{
  "contractName": "AccountsWithController",
  "abi": [
    {
      "constant": true,
      "inputs": [],
      "name": "ACCURACY",
      "outputs": [
        {
          "internalType": "uint256",
          "name": "",
          "type": "uint256"
        }
      ],
      "payable": false,
      "stateMutability": "view",
      "type": "function"
    },
    {
      "constant": true,
      "inputs": [],
      "name": "BLOCKS_PER_YEAR",
      "outputs": [
        {
          "internalType": "uint256",
          "name": "",
          "type": "uint256"
        }
      ],
      "payable": false,
      "stateMutability": "view",
      "type": "function"
    },
    {
      "constant": true,
      "inputs": [],
      "name": "EMERGENCY_ADDR",
      "outputs": [
        {
          "internalType": "address payable",
          "name": "",
          "type": "address"
        }
      ],
      "payable": false,
      "stateMutability": "view",
      "type": "function"
    },
    {
      "constant": true,
      "inputs": [],
      "name": "ETH_ADDR",
      "outputs": [
        {
          "internalType": "address",
          "name": "",
          "type": "address"
        }
      ],
      "payable": false,
      "stateMutability": "view",
      "type": "function"
    },
    {
      "constant": true,
      "inputs": [
        {
          "internalType": "address",
          "name": "",
          "type": "address"
        }
      ],
      "name": "FINAmount",
      "outputs": [
        {
          "internalType": "uint256",
          "name": "",
          "type": "uint256"
        }
      ],
      "payable": false,
      "stateMutability": "view",
      "type": "function"
    },
    {
      "constant": true,
      "inputs": [],
      "name": "INT_UNIT",
      "outputs": [
        {
          "internalType": "uint256",
          "name": "",
          "type": "uint256"
        }
      ],
      "payable": false,
      "stateMutability": "view",
      "type": "function"
    },
    {
      "constant": true,
      "inputs": [
        {
          "internalType": "address",
          "name": "",
          "type": "address"
        }
      ],
      "name": "accounts",
      "outputs": [
        {
          "internalType": "uint128",
          "name": "depositBitmap",
          "type": "uint128"
        },
        {
          "internalType": "uint128",
          "name": "borrowBitmap",
          "type": "uint128"
        }
      ],
      "payable": false,
      "stateMutability": "view",
      "type": "function"
    },
    {
      "constant": false,
      "inputs": [
        {
          "internalType": "address",
          "name": "_accountAddr",
          "type": "address"
        },
        {
          "internalType": "address",
          "name": "_token",
          "type": "address"
        },
        {
          "internalType": "uint256",
          "name": "_amount",
          "type": "uint256"
        }
      ],
      "name": "borrow",
      "outputs": [],
      "payable": false,
      "stateMutability": "nonpayable",
      "type": "function"
    },
    {
      "constant": false,
      "inputs": [
        {
          "internalType": "address",
          "name": "_account",
          "type": "address"
        }
      ],
      "name": "claim",
      "outputs": [
        {
          "internalType": "uint256",
          "name": "",
          "type": "uint256"
        }
      ],
      "payable": false,
      "stateMutability": "nonpayable",
      "type": "function"
    },
    {
      "constant": false,
      "inputs": [
        {
          "internalType": "address",
          "name": "_accountAddr",
          "type": "address"
        },
        {
          "internalType": "address",
          "name": "_token",
          "type": "address"
        },
        {
          "internalType": "uint256",
          "name": "_amount",
          "type": "uint256"
        }
      ],
      "name": "deposit",
      "outputs": [],
      "payable": false,
      "stateMutability": "nonpayable",
      "type": "function"
    },
    {
      "constant": true,
      "inputs": [
        {
          "internalType": "address",
          "name": "_token",
          "type": "address"
        },
        {
          "internalType": "address",
          "name": "_accountAddr",
          "type": "address"
        }
      ],
      "name": "getBorrowBalanceCurrent",
      "outputs": [
        {
          "internalType": "uint256",
          "name": "borrowBalance",
          "type": "uint256"
        }
      ],
      "payable": false,
      "stateMutability": "view",
      "type": "function"
    },
    {
      "constant": true,
      "inputs": [
        {
          "internalType": "address",
          "name": "_accountAddr",
          "type": "address"
        }
      ],
      "name": "getBorrowETH",
      "outputs": [
        {
          "internalType": "uint256",
          "name": "borrowETH",
          "type": "uint256"
        }
      ],
      "payable": false,
      "stateMutability": "view",
      "type": "function"
    },
    {
      "constant": true,
      "inputs": [
        {
          "internalType": "address",
          "name": "_accountAddr",
          "type": "address"
        },
        {
          "internalType": "address",
          "name": "_token",
          "type": "address"
        }
      ],
      "name": "getBorrowInterest",
      "outputs": [
        {
          "internalType": "uint256",
          "name": "",
          "type": "uint256"
        }
      ],
      "payable": false,
      "stateMutability": "view",
      "type": "function"
    },
    {
      "constant": true,
      "inputs": [
        {
          "internalType": "address",
          "name": "_borrower",
          "type": "address"
        }
      ],
      "name": "getBorrowPower",
      "outputs": [
        {
          "internalType": "uint256",
          "name": "power",
          "type": "uint256"
        }
      ],
      "payable": false,
      "stateMutability": "view",
      "type": "function"
    },
    {
      "constant": true,
      "inputs": [
        {
          "internalType": "address",
          "name": "_accountAddr",
          "type": "address"
        },
        {
          "internalType": "address",
          "name": "_token",
          "type": "address"
        }
      ],
      "name": "getBorrowPrincipal",
      "outputs": [
        {
          "internalType": "uint256",
          "name": "",
          "type": "uint256"
        }
      ],
      "payable": false,
      "stateMutability": "view",
      "type": "function"
    },
    {
      "constant": true,
      "inputs": [
        {
          "internalType": "address",
          "name": "_token",
          "type": "address"
        },
        {
          "internalType": "address",
          "name": "_accountAddr",
          "type": "address"
        }
      ],
      "name": "getDepositBalanceCurrent",
      "outputs": [
        {
          "internalType": "uint256",
          "name": "depositBalance",
          "type": "uint256"
        }
      ],
      "payable": false,
      "stateMutability": "view",
      "type": "function"
    },
    {
      "constant": true,
      "inputs": [
        {
          "internalType": "address",
          "name": "_accountAddr",
          "type": "address"
        }
      ],
      "name": "getDepositETH",
      "outputs": [
        {
          "internalType": "uint256",
          "name": "depositETH",
          "type": "uint256"
        }
      ],
      "payable": false,
      "stateMutability": "view",
      "type": "function"
    },
    {
      "constant": true,
      "inputs": [
        {
          "internalType": "address",
          "name": "_account",
          "type": "address"
        },
        {
          "internalType": "address",
          "name": "_token",
          "type": "address"
        }
      ],
      "name": "getDepositInterest",
      "outputs": [
        {
          "internalType": "uint256",
          "name": "",
          "type": "uint256"
        }
      ],
      "payable": false,
      "stateMutability": "view",
      "type": "function"
    },
    {
      "constant": true,
      "inputs": [
        {
          "internalType": "address",
          "name": "_accountAddr",
          "type": "address"
        },
        {
          "internalType": "address",
          "name": "_token",
          "type": "address"
        }
      ],
      "name": "getDepositPrincipal",
      "outputs": [
        {
          "internalType": "uint256",
          "name": "",
          "type": "uint256"
        }
      ],
      "payable": false,
      "stateMutability": "view",
      "type": "function"
    },
    {
      "constant": true,
      "inputs": [
        {
          "internalType": "address",
          "name": "_accountAddr",
          "type": "address"
        },
        {
          "internalType": "address",
          "name": "_token",
          "type": "address"
        }
      ],
      "name": "getLastBorrowBlock",
      "outputs": [
        {
          "internalType": "uint256",
          "name": "",
          "type": "uint256"
        }
      ],
      "payable": false,
      "stateMutability": "view",
      "type": "function"
    },
    {
      "constant": true,
      "inputs": [
        {
          "internalType": "address",
          "name": "_accountAddr",
          "type": "address"
        },
        {
          "internalType": "address",
          "name": "_token",
          "type": "address"
        }
      ],
      "name": "getLastDepositBlock",
      "outputs": [
        {
          "internalType": "uint256",
          "name": "",
          "type": "uint256"
        }
      ],
      "payable": false,
      "stateMutability": "view",
      "type": "function"
    },
    {
      "constant": false,
      "inputs": [
        {
          "internalType": "address",
          "name": "_borrower",
          "type": "address"
        }
      ],
      "name": "isAccountLiquidatable",
      "outputs": [
        {
          "internalType": "bool",
          "name": "",
          "type": "bool"
        }
      ],
      "payable": false,
      "stateMutability": "nonpayable",
      "type": "function"
    },
    {
      "constant": true,
      "inputs": [
        {
          "internalType": "address",
          "name": "_account",
          "type": "address"
        }
      ],
      "name": "isUserHasAnyDeposits",
      "outputs": [
        {
          "internalType": "bool",
          "name": "",
          "type": "bool"
        }
      ],
      "payable": false,
      "stateMutability": "view",
      "type": "function"
    },
    {
      "constant": true,
      "inputs": [
        {
          "internalType": "address",
          "name": "_account",
          "type": "address"
        },
        {
          "internalType": "uint8",
          "name": "_index",
          "type": "uint8"
        }
      ],
      "name": "isUserHasBorrows",
      "outputs": [
        {
          "internalType": "bool",
          "name": "",
          "type": "bool"
        }
      ],
      "payable": false,
      "stateMutability": "view",
      "type": "function"
    },
    {
      "constant": true,
      "inputs": [
        {
          "internalType": "address",
          "name": "_account",
          "type": "address"
        },
        {
          "internalType": "uint8",
          "name": "_index",
          "type": "uint8"
        }
      ],
      "name": "isUserHasDeposits",
      "outputs": [
        {
          "internalType": "bool",
          "name": "",
          "type": "bool"
        }
      ],
      "payable": false,
      "stateMutability": "view",
      "type": "function"
    },
    {
      "constant": false,
      "inputs": [
        {
          "internalType": "address",
          "name": "_accountAddr",
          "type": "address"
        },
        {
          "internalType": "address",
          "name": "_token",
          "type": "address"
        },
        {
          "internalType": "uint256",
          "name": "_amount",
          "type": "uint256"
        }
      ],
      "name": "repay",
      "outputs": [
        {
          "internalType": "uint256",
          "name": "",
          "type": "uint256"
        }
      ],
      "payable": false,
      "stateMutability": "nonpayable",
      "type": "function"
    },
    {
      "constant": false,
      "inputs": [
        {
          "internalType": "address",
          "name": "_accountAddr",
          "type": "address"
        },
        {
          "internalType": "address",
          "name": "_token",
          "type": "address"
        },
        {
          "internalType": "uint256",
          "name": "_amount",
          "type": "uint256"
        }
      ],
      "name": "withdraw",
      "outputs": [
        {
          "internalType": "uint256",
          "name": "",
          "type": "uint256"
        }
      ],
      "payable": false,
      "stateMutability": "nonpayable",
      "type": "function"
    },
    {
      "constant": false,
      "inputs": [
        {
          "internalType": "contract GlobalConfig",
          "name": "_globalConfig",
          "type": "address"
        },
        {
          "internalType": "address",
          "name": "_comptroller",
          "type": "address"
        }
      ],
      "name": "initialize",
      "outputs": [],
      "payable": false,
      "stateMutability": "nonpayable",
      "type": "function"
    },
    {
      "constant": false,
      "inputs": [
        {
          "internalType": "contract GlobalConfig",
          "name": "_globalConfig",
          "type": "address"
        }
      ],
      "name": "initialize",
      "outputs": [],
      "payable": false,
      "stateMutability": "nonpayable",
      "type": "function"
    }
  ],
  "bytecode": "0x608060405234801561001057600080fd5b5061678280620000216000396000f3fe608060405234801561001057600080fd5b50600436106101cf5760003560e01c8063b4c56abc11610104578063e2067204116100a2578063edc337b411610071578063edc337b4146105fe578063f1debb901461062c578063fa78d59f1461065a578063fbcd9b05146104ea576101cf565b8063e206720414610556578063e21f0b551461057c578063e2a93dd9146105a2578063e94201c7146105d0576101cf565b8063d37db1d2116100de578063d37db1d2146104e2578063d8c2d84c146104ea578063d9caed12146104f2578063e0ed319414610528576101cf565b8063b4c56abc14610470578063be2801b514610496578063c4d66de8146104bc576101cf565b80635e5c06e2116101715780638340f5491161014b5780638340f549146103c05780639c9dd88f146103f6578063b0fcd7a01461041c578063b44d253d14610442576101cf565b80635e5c06e21461033e5780637753f47b1461038a5780638224b89914610392576101cf565b8063485cc955116101ad578063485cc955146102855780634b096f80146102b55780635224372c146102e45780635467cec41461031a576101cf565b80631da649cf146101d45780631e83409a1461021c57806324e46eba14610242575b600080fd5b61020a600480360360608110156101ea57600080fd5b506001600160a01b03813581169160208101359091169060400135610688565b60408051918252519081900360200190f35b61020a6004803603602081101561023257600080fd5b50356001600160a01b0316610e19565b6102716004803603604081101561025857600080fd5b5080356001600160a01b0316906020013560ff1661198f565b604080519115158252519081900360200190f35b6102b36004803603604081101561029b57600080fd5b506001600160a01b03813581169160200135166119d0565b005b610271600480360360408110156102cb57600080fd5b5080356001600160a01b0316906020013560ff16611a98565b6102b3600480360360608110156102fa57600080fd5b506001600160a01b03813581169160208101359091169060400135611ace565b610322612351565b604080516001600160a01b039092168252519081900360200190f35b6103646004803603602081101561035457600080fd5b50356001600160a01b0316612369565b604080516001600160801b03938416815291909216602082015281519081900390910190f35b610322612392565b61020a600480360360408110156103a857600080fd5b506001600160a01b0381358116916020013516612397565b6102b3600480360360608110156103d657600080fd5b506001600160a01b03813581169160208101359091169060400135612442565b61020a6004803603602081101561040c57600080fd5b50356001600160a01b0316612ad5565b61020a6004803603602081101561043257600080fd5b50356001600160a01b0316612f07565b61020a6004803603604081101561045857600080fd5b506001600160a01b0381358116916020013516613319565b61020a6004803603602081101561048657600080fd5b50356001600160a01b0316613873565b610271600480360360208110156104ac57600080fd5b50356001600160a01b0316613885565b6102b3600480360360208110156104d257600080fd5b50356001600160a01b0316613cc5565b61020a613d83565b61020a613d8a565b61020a6004803603606081101561050857600080fd5b506001600160a01b03813581169160208101359091169060400135613d96565b61020a6004803603604081101561053e57600080fd5b506001600160a01b0381358116916020013516614a40565b6102716004803603602081101561056c57600080fd5b50356001600160a01b0316614ab7565b61020a6004803603602081101561059257600080fd5b50356001600160a01b0316614ae0565b61020a600480360360408110156105b857600080fd5b506001600160a01b0381358116916020013516614ff4565b61020a600480360360408110156105e657600080fd5b506001600160a01b038135811691602001351661527e565b61020a6004803603604081101561061457600080fd5b506001600160a01b038135811691602001351661576c565b61020a6004803603604081101561064257600080fd5b506001600160a01b03813581169160200135166157e3565b61020a6004803603604081101561067057600080fd5b506001600160a01b0381358116916020013516615a6d565b6034546040805163cc5738b560e01b815290516000926001600160a01b03169163cc5738b5916004808301926020929190829003018186803b1580156106cd57600080fd5b505afa1580156106e1573d6000803e3d6000fd5b505050506040513d60208110156106f757600080fd5b50516001600160a01b03163314806107905750603460009054906101000a90046001600160a01b03166001600160a01b03166376cdb03b6040518163ffffffff1660e01b815260040160206040518083038186803b15801561075857600080fd5b505afa15801561076c573d6000803e3d6000fd5b505050506040513d602081101561078257600080fd5b50516001600160a01b031633145b6107cb5760405162461bcd60e51b81526004018080602001828103825260388152602001806166f06038913960400191505060405180910390fd5b60006107d7848661527e565b905060008184116107e857836107ea565b815b905060008285116107fc57600061080c565b61080c858463ffffffff615ae216565b6001600160a01b038089166000908152603360209081526040808320938b16835292815282822083516343ae240160e11b815260048101829052935194955093919273__AccountTokenLib_______________________9263875c480292602480840193919291829003018186803b15801561088757600080fd5b505af415801561089b573d6000803e3d6000fd5b505050506040513d60208110156108b157600080fd5b5051116108ef5760405162461bcd60e51b815260040180806020018281038252605c8152602001806165da605c913960600191505060405180910390fd5b8073__AccountTokenLib_______________________633bc496a090916040518263ffffffff1660e01b81526004018082815260200191505060206040518083038186803b15801561094057600080fd5b505af4158015610954573d6000803e3d6000fd5b505050506040513d602081101561096a57600080fd5b5051610a035773__AccountTokenLib_______________________63febc2fe38285670de0b6b3a764000061099d615b2b565b6040518563ffffffff1660e01b81526004018085815260200184815260200183815260200182815260200194505050505060006040518083038186803b1580156109e657600080fd5b505af41580156109fa573d6000803e3d6000fd5b50505050610c98565b610a928173__AccountTokenLib_______________________633bc496a090916040518263ffffffff1660e01b81526004018082815260200191505060206040518083038186803b158015610a5757600080fd5b505af4158015610a6b573d6000803e3d6000fd5b505050506040513d6020811015610a8157600080fd5b5051888a610a8d615b2b565b615ba1565b603454604080516376cdb03b60e01b815290516000926001600160a01b0316916376cdb03b916004808301926020929190829003018186803b158015610ad757600080fd5b505afa158015610aeb573d6000803e3d6000fd5b505050506040513d6020811015610b0157600080fd5b5051604080516301de24b560e51b81526004810185905290516001600160a01b0390921691632d6cb681918b9173__AccountTokenLib_______________________91633bc496a0916024808301926020929190829003018186803b158015610b6957600080fd5b505af4158015610b7d573d6000803e3d6000fd5b505050506040513d6020811015610b9357600080fd5b5051604080516001600160e01b031960e086901b1681526001600160a01b0390931660048401526024830191909152516044808301926020929190829003018186803b158015610be257600080fd5b505afa158015610bf6573d6000803e3d6000fd5b505050506040513d6020811015610c0c57600080fd5b5051905073__AccountTokenLib_______________________63febc2fe3838684610c35615b2b565b6040518563ffffffff1660e01b81526004018085815260200184815260200183815260200182815260200194505050505060006040518083038186803b158015610c7e57600080fd5b505af4158015610c92573d6000803e3d6000fd5b50505050505b8073__AccountTokenLib_______________________63875c480290916040518263ffffffff1660e01b81526004018082815260200191505060206040518083038186803b158015610ce957600080fd5b505af4158015610cfd573d6000803e3d6000fd5b505050506040513d6020811015610d1357600080fd5b5051610e0e5760345460408051639895880f60e01b815290516000926001600160a01b031691639895880f916004808301926020929190829003018186803b158015610d5e57600080fd5b505afa158015610d72573d6000803e3d6000fd5b505050506040513d6020811015610d8857600080fd5b5051604080516319b02f4960e21b81526001600160a01b038b81166004830152915191909216916366c0bd24916024808301926020929190829003018186803b158015610dd457600080fd5b505afa158015610de8573d6000803e3d6000fd5b505050506040513d6020811015610dfe57600080fd5b50519050610e0c8982615f06565b505b509695505050505050565b6034546040805163cc5738b560e01b815290516000926001600160a01b03169163cc5738b5916004808301926020929190829003018186803b158015610e5e57600080fd5b505afa158015610e72573d6000803e3d6000fd5b505050506040513d6020811015610e8857600080fd5b50516001600160a01b0316331480610f215750603460009054906101000a90046001600160a01b03166001600160a01b03166376cdb03b6040518163ffffffff1660e01b815260040160206040518083038186803b158015610ee957600080fd5b505afa158015610efd573d6000803e3d6000fd5b505050506040513d6020811015610f1357600080fd5b50516001600160a01b031633145b610f5c5760405162461bcd60e51b81526004018080602001828103825260388152602001806166f06038913960400191505060405180910390fd5b60345460408051639895880f60e01b815290516000926001600160a01b031691639895880f916004808301926020929190829003018186803b158015610fa157600080fd5b505afa158015610fb5573d6000803e3d6000fd5b505050506040513d6020811015610fcb57600080fd5b505160408051630463749760e51b815290516001600160a01b0390921691638c6e92e091600480820192602092909190829003018186803b15801561100f57600080fd5b505afa158015611023573d6000803e3d6000fd5b505050506040513d602081101561103957600080fd5b5051905060005b818160ff16101561196d576110558482611a98565b806110655750611065848261198f565b156119655760345460408051639895880f60e01b815290516000926001600160a01b031691639895880f916004808301926020929190829003018186803b1580156110af57600080fd5b505afa1580156110c3573d6000803e3d6000fd5b505050506040513d60208110156110d957600080fd5b50516040805163021245b160e01b815260ff8516600482015290516001600160a01b039092169163021245b191602480820192602092909190829003018186803b15801561112657600080fd5b505afa15801561113a573d6000803e3d6000fd5b505050506040513d602081101561115057600080fd5b50516001600160a01b0380871660009081526033602090815260408083209385168352929052908120919250611184615b2b565b9050603460009054906101000a90046001600160a01b03166001600160a01b03166376cdb03b6040518163ffffffff1660e01b815260040160206040518083038186803b1580156111d457600080fd5b505afa1580156111e8573d6000803e3d6000fd5b505050506040513d60208110156111fe57600080fd5b505160408051635f85ca4760e01b81526001600160a01b03868116600483015291519190921691635f85ca4791602480830192600092919082900301818387803b15801561124b57600080fd5b505af115801561125f573d6000803e3d6000fd5b5050505061126d8785611a98565b156115e257603460009054906101000a90046001600160a01b03166001600160a01b03166376cdb03b6040518163ffffffff1660e01b815260040160206040518083038186803b1580156112c057600080fd5b505afa1580156112d4573d6000803e3d6000fd5b505050506040513d60208110156112ea57600080fd5b50516040805163382d699960e21b81526001600160a01b0386811660048301529151919092169163e0b5a66491602480830192600092919082900301818387803b15801561133757600080fd5b505af115801561134b573d6000803e3d6000fd5b505050506000603460009054906101000a90046001600160a01b03166001600160a01b03166376cdb03b6040518163ffffffff1660e01b815260040160206040518083038186803b15801561139f57600080fd5b505afa1580156113b3573d6000803e3d6000fd5b505050506040513d60208110156113c957600080fd5b50516040805163b66b3ce960e01b81526004810186905290516001600160a01b0390921691635a80c49791879173__AccountTokenLib_______________________9163b66b3ce9916024808301926020929190829003018186803b15801561143157600080fd5b505af4158015611445573d6000803e3d6000fd5b505050506040513d602081101561145b57600080fd5b5051604080516001600160e01b031960e086901b1681526001600160a01b0390931660048401526024830191909152516044808301926020929190829003018186803b1580156114aa57600080fd5b505afa1580156114be573d6000803e3d6000fd5b505050506040513d60208110156114d457600080fd5b50516040805163b66b3ce960e01b81526004810186905290519192506115639173__AccountTokenLib_______________________9163b66b3ce9916024808301926020929190829003018186803b15801561152f57600080fd5b505af4158015611543573d6000803e3d6000fd5b505050506040513d602081101561155957600080fd5b5051858a85615f61565b60408051631496a79760e01b8152600481018590526000602482018190526044820184905260648201859052915173__AccountTokenLib_______________________92631496a7979260848082019391829003018186803b1580156115c857600080fd5b505af41580156115dc573d6000803e3d6000fd5b50505050505b6115ec878561198f565b1561196157603460009054906101000a90046001600160a01b03166001600160a01b03166376cdb03b6040518163ffffffff1660e01b815260040160206040518083038186803b15801561163f57600080fd5b505afa158015611653573d6000803e3d6000fd5b505050506040513d602081101561166957600080fd5b50516040805163d2796a9360e01b81526001600160a01b0386811660048301529151919092169163d2796a9391602480830192600092919082900301818387803b1580156116b657600080fd5b505af11580156116ca573d6000803e3d6000fd5b505050506000603460009054906101000a90046001600160a01b03166001600160a01b03166376cdb03b6040518163ffffffff1660e01b815260040160206040518083038186803b15801561171e57600080fd5b505afa158015611732573d6000803e3d6000fd5b505050506040513d602081101561174857600080fd5b5051604080516301de24b560e51b81526004810186905290516001600160a01b0390921691632d6cb68191879173__AccountTokenLib_______________________91633bc496a0916024808301926020929190829003018186803b1580156117b057600080fd5b505af41580156117c4573d6000803e3d6000fd5b505050506040513d60208110156117da57600080fd5b5051604080516001600160e01b031960e086901b1681526001600160a01b0390931660048401526024830191909152516044808301926020929190829003018186803b15801561182957600080fd5b505afa15801561183d573d6000803e3d6000fd5b505050506040513d602081101561185357600080fd5b5051604080516301de24b560e51b81526004810186905290519192506118e29173__AccountTokenLib_______________________91633bc496a0916024808301926020929190829003018186803b1580156118ae57600080fd5b505af41580156118c2573d6000803e3d6000fd5b505050506040513d60208110156118d857600080fd5b5051858a85615ba1565b604080516327bf70d760e21b8152600481018590526000602482018190526044820184905260648201859052915173__AccountTokenLib_______________________92639efdc35c9260848082019391829003018186803b15801561194757600080fd5b505af415801561195b573d6000803e3d6000fd5b50505050505b5050505b600101611040565b5050506001600160a01b03166000908152603560205260408120805491905590565b6001600160a01b038216600090815260336020526040812060018101546119c690600160801b90046001600160801b03168461623e565b9150505b92915050565b600054610100900460ff16806119e957506119e961629d565b806119f7575060005460ff16155b611a325760405162461bcd60e51b815260040180806020018281038252602e81526020018061667b602e913960400191505060405180910390fd5b600054610100900460ff16158015611a5d576000805460ff1961ff0019909116610100171660011790555b611a6683613cc5565b603680546001600160a01b0319166001600160a01b0384161790558015611a93576000805461ff00191690555b505050565b6001600160a01b038216600090815260336020526040812060018101546119c6906001600160801b03168463ffffffff61623e16565b603460009054906101000a90046001600160a01b03166001600160a01b031663cc5738b56040518163ffffffff1660e01b815260040160206040518083038186803b158015611b1c57600080fd5b505afa158015611b30573d6000803e3d6000fd5b505050506040513d6020811015611b4657600080fd5b50516001600160a01b0316331480611bdf5750603460009054906101000a90046001600160a01b03166001600160a01b03166376cdb03b6040518163ffffffff1660e01b815260040160206040518083038186803b158015611ba757600080fd5b505afa158015611bbb573d6000803e3d6000fd5b505050506040513d6020811015611bd157600080fd5b50516001600160a01b031633145b611c1a5760405162461bcd60e51b81526004018080602001828103825260388152602001806166f06038913960400191505060405180910390fd5b80611c565760405162461bcd60e51b815260040180806020018281038252602b8152602001806165af602b913960400191505060405180910390fd5b611c5f83614ab7565b611c9a5760405162461bcd60e51b81526004018080602001828103825260238152602001806166cd6023913960400191505060405180910390fd5b611ca383614ae0565b6034546040805163d182f33560e01b81526001600160a01b039283166004820152918516602483015251611e5291611e3d9173__Utils_________________________________9163d182f335916044808301926020929190829003018186803b158015611d1057600080fd5b505af4158015611d24573d6000803e3d6000fd5b505050506040513d6020811015611d3a57600080fd5b505160345460408051639895880f60e01b81529051611e31926001600160a01b031691639895880f916004808301926020929190829003018186803b158015611d8257600080fd5b505afa158015611d96573d6000803e3d6000fd5b505050506040513d6020811015611dac57600080fd5b505160408051636e9ecb0f60e11b81526001600160a01b038a811660048301529151919092169163dd3d961e916024808301926020929190829003018186803b158015611df857600080fd5b505afa158015611e0c573d6000803e3d6000fd5b505050506040513d6020811015611e2257600080fd5b5051869063ffffffff6162a316565b9063ffffffff6162fc16565b611e4686612f07565b9063ffffffff61633e16565b1115611e8f5760405162461bcd60e51b81526004018080602001828103825260248152602001806166a96024913960400191505060405180910390fd5b6001600160a01b03808416600090815260336020908152604080832093861683529281529082902082516301de24b560e51b8152600481018290529251909273__AccountTokenLib_______________________92633bc496a092602480840193829003018186803b158015611f0457600080fd5b505af4158015611f18573d6000803e3d6000fd5b505050506040513d6020811015611f2e57600080fd5b5051611fc75773__AccountTokenLib_______________________639efdc35c8284670de0b6b3a7640000611f61615b2b565b6040518563ffffffff1660e01b81526004018085815260200184815260200183815260200182815260200194505050505060006040518083038186803b158015611faa57600080fd5b505af4158015611fbe573d6000803e3d6000fd5b50505050612257565b6120518173__AccountTokenLib_______________________633bc496a090916040518263ffffffff1660e01b81526004018082815260200191505060206040518083038186803b15801561201b57600080fd5b505af415801561202f573d6000803e3d6000fd5b505050506040513d602081101561204557600080fd5b50518486610a8d615b2b565b603454604080516376cdb03b60e01b815290516000926001600160a01b0316916376cdb03b916004808301926020929190829003018186803b15801561209657600080fd5b505afa1580156120aa573d6000803e3d6000fd5b505050506040513d60208110156120c057600080fd5b5051604080516301de24b560e51b81526004810185905290516001600160a01b0390921691632d6cb68191879173__AccountTokenLib_______________________91633bc496a0916024808301926020929190829003018186803b15801561212857600080fd5b505af415801561213c573d6000803e3d6000fd5b505050506040513d602081101561215257600080fd5b5051604080516001600160e01b031960e086901b1681526001600160a01b0390931660048401526024830191909152516044808301926020929190829003018186803b1580156121a157600080fd5b505afa1580156121b5573d6000803e3d6000fd5b505050506040513d60208110156121cb57600080fd5b5051905073__AccountTokenLib_______________________639efdc35c8385846121f4615b2b565b6040518563ffffffff1660e01b81526004018085815260200184815260200183815260200182815260200194505050505060006040518083038186803b15801561223d57600080fd5b505af4158015612251573d6000803e3d6000fd5b50505050505b60345460408051639895880f60e01b815290516000926001600160a01b031691639895880f916004808301926020929190829003018186803b15801561229c57600080fd5b505afa1580156122b0573d6000803e3d6000fd5b505050506040513d60208110156122c657600080fd5b5051604080516319b02f4960e21b81526001600160a01b038781166004830152915191909216916366c0bd24916024808301926020929190829003018186803b15801561231257600080fd5b505afa158015612326573d6000803e3d6000fd5b505050506040513d602081101561233c57600080fd5b5051905061234a8582616398565b5050505050565b73c04158f7db6f9c9ffbd5593236a1a3d69f92167c81565b6033602052600090815260409020600101546001600160801b0380821691600160801b90041682565b600e81565b6001600160a01b038083166000908152603360209081526040808320938516835292815282822083516343ae240160e11b81526004810182905293519293909273__AccountTokenLib_______________________9263875c48029260248082019391829003018186803b15801561240e57600080fd5b505af4158015612422573d6000803e3d6000fd5b505050506040513d602081101561243857600080fd5b5051949350505050565b603460009054906101000a90046001600160a01b03166001600160a01b031663cc5738b56040518163ffffffff1660e01b815260040160206040518083038186803b15801561249057600080fd5b505afa1580156124a4573d6000803e3d6000fd5b505050506040513d60208110156124ba57600080fd5b50516001600160a01b03163314806125535750603460009054906101000a90046001600160a01b03166001600160a01b03166376cdb03b6040518163ffffffff1660e01b815260040160206040518083038186803b15801561251b57600080fd5b505afa15801561252f573d6000803e3d6000fd5b505050506040513d602081101561254557600080fd5b50516001600160a01b031633145b61258e5760405162461bcd60e51b81526004018080602001828103825260388152602001806166f06038913960400191505060405180910390fd5b6001600160a01b038084166000908152603360209081526040808320938616835292815290829020825162b0b8a160e01b8152600481018290529251909273__AccountTokenLib_______________________9262b0b8a192602480840193829003018186803b15801561260157600080fd5b505af4158015612615573d6000803e3d6000fd5b505050506040513d602081101561262b57600080fd5b50516127265760345460408051639895880f60e01b815290516000926001600160a01b031691639895880f916004808301926020929190829003018186803b15801561267657600080fd5b505afa15801561268a573d6000803e3d6000fd5b505050506040513d60208110156126a057600080fd5b5051604080516319b02f4960e21b81526001600160a01b038781166004830152915191909216916366c0bd24916024808301926020929190829003018186803b1580156126ec57600080fd5b505afa158015612700573d6000803e3d6000fd5b505050506040513d602081101561271657600080fd5b5051905061272485826163cf565b505b8073__AccountTokenLib_______________________63b66b3ce990916040518263ffffffff1660e01b81526004018082815260200191505060206040518083038186803b15801561277757600080fd5b505af415801561278b573d6000803e3d6000fd5b505050506040513d60208110156127a157600080fd5b505161283a5773__AccountTokenLib_______________________631496a7978284670de0b6b3a76400006127d4615b2b565b6040518563ffffffff1660e01b81526004018085815260200184815260200183815260200182815260200194505050505060006040518083038186803b15801561281d57600080fd5b505af4158015612831573d6000803e3d6000fd5b50505050612acf565b6128c98173__AccountTokenLib_______________________63b66b3ce990916040518263ffffffff1660e01b81526004018082815260200191505060206040518083038186803b15801561288e57600080fd5b505af41580156128a2573d6000803e3d6000fd5b505050506040513d60208110156128b857600080fd5b505184866128c4615b2b565b615f61565b603454604080516376cdb03b60e01b815290516000926001600160a01b0316916376cdb03b916004808301926020929190829003018186803b15801561290e57600080fd5b505afa158015612922573d6000803e3d6000fd5b505050506040513d602081101561293857600080fd5b50516040805163b66b3ce960e01b81526004810185905290516001600160a01b0390921691635a80c49791879173__AccountTokenLib_______________________9163b66b3ce9916024808301926020929190829003018186803b1580156129a057600080fd5b505af41580156129b4573d6000803e3d6000fd5b505050506040513d60208110156129ca57600080fd5b5051604080516001600160e01b031960e086901b1681526001600160a01b0390931660048401526024830191909152516044808301926020929190829003018186803b158015612a1957600080fd5b505afa158015612a2d573d6000803e3d6000fd5b505050506040513d6020811015612a4357600080fd5b5051905073__AccountTokenLib_______________________631496a797838584612a6c615b2b565b6040518563ffffffff1660e01b81526004018085815260200184815260200183815260200182815260200194505050505060006040518083038186803b158015612ab557600080fd5b505af4158015612ac9573d6000803e3d6000fd5b50505050505b50505050565b600080603460009054906101000a90046001600160a01b03166001600160a01b0316639895880f6040518163ffffffff1660e01b815260040160206040518083038186803b158015612b2657600080fd5b505afa158015612b3a573d6000803e3d6000fd5b505050506040513d6020811015612b5057600080fd5b505160408051630463749760e51b815290516001600160a01b0390921691638c6e92e091600480820192602092909190829003018186803b158015612b9457600080fd5b505afa158015612ba8573d6000803e3d6000fd5b505050506040513d6020811015612bbe57600080fd5b5051905060005b81811015612f0057612bd78482611a98565b15612ef85760345460408051639895880f60e01b815290516000926001600160a01b031691639895880f916004808301926020929190829003018186803b158015612c2157600080fd5b505afa158015612c35573d6000803e3d6000fd5b505050506040513d6020811015612c4b57600080fd5b50516040805163021245b160e01b81526004810185905290516001600160a01b039092169163021245b191602480820192602092909190829003018186803b158015612c9657600080fd5b505afa158015612caa573d6000803e3d6000fd5b505050506040513d6020811015612cc057600080fd5b50519050670de0b6b3a76400006001600160a01b038216600e14612dd757603460009054906101000a90046001600160a01b03166001600160a01b0316639895880f6040518163ffffffff1660e01b815260040160206040518083038186803b158015612d2c57600080fd5b505afa158015612d40573d6000803e3d6000fd5b505050506040513d6020811015612d5657600080fd5b505160408051633c2e3e7b60e11b81526001600160a01b0385811660048301529151919092169163785c7cf6916024808301926020929190829003018186803b158015612da257600080fd5b505afa158015612db6573d6000803e3d6000fd5b505050506040513d6020811015612dcc57600080fd5b505160ff16600a0a90505b612ef3612ee682611e31603460009054906101000a90046001600160a01b03166001600160a01b0316639895880f6040518163ffffffff1660e01b815260040160206040518083038186803b158015612e2f57600080fd5b505afa158015612e43573d6000803e3d6000fd5b505050506040513d6020811015612e5957600080fd5b505160408051634af44fff60e11b8152600481018a905290516001600160a01b03909216916395e89ffe91602480820192602092909190829003018186803b158015612ea457600080fd5b505afa158015612eb8573d6000803e3d6000fd5b505050506040513d6020811015612ece57600080fd5b5051612eda878c613319565b9063ffffffff6162a316565b869063ffffffff61633e16565b945050505b600101612bc5565b5050919050565b600080603460009054906101000a90046001600160a01b03166001600160a01b0316639895880f6040518163ffffffff1660e01b815260040160206040518083038186803b158015612f5857600080fd5b505afa158015612f6c573d6000803e3d6000fd5b505050506040513d6020811015612f8257600080fd5b505160408051630463749760e51b815290516001600160a01b0390921691638c6e92e091600480820192602092909190829003018186803b158015612fc657600080fd5b505afa158015612fda573d6000803e3d6000fd5b505050506040513d6020811015612ff057600080fd5b5051905060005b81811015612f0057613009848261198f565b156133115760345460408051639895880f60e01b815290516000926001600160a01b031691639895880f916004808301926020929190829003018186803b15801561305357600080fd5b505afa158015613067573d6000803e3d6000fd5b505050506040513d602081101561307d57600080fd5b50516040805163021245b160e01b81526004810185905290516001600160a01b039092169163021245b191602480820192602092909190829003018186803b1580156130c857600080fd5b505afa1580156130dc573d6000803e3d6000fd5b505050506040513d60208110156130f257600080fd5b50519050670de0b6b3a76400006001600160a01b038216600e1461320957603460009054906101000a90046001600160a01b03166001600160a01b0316639895880f6040518163ffffffff1660e01b815260040160206040518083038186803b15801561315e57600080fd5b505afa158015613172573d6000803e3d6000fd5b505050506040513d602081101561318857600080fd5b505160408051633c2e3e7b60e11b81526001600160a01b0385811660048301529151919092169163785c7cf6916024808301926020929190829003018186803b1580156131d457600080fd5b505afa1580156131e8573d6000803e3d6000fd5b505050506040513d60208110156131fe57600080fd5b505160ff16600a0a90505b61330c612ee682611e31603460009054906101000a90046001600160a01b03166001600160a01b0316639895880f6040518163ffffffff1660e01b815260040160206040518083038186803b15801561326157600080fd5b505afa158015613275573d6000803e3d6000fd5b505050506040513d602081101561328b57600080fd5b505160408051634af44fff60e11b8152600481018a905290516001600160a01b03909216916395e89ffe91602480820192602092909190829003018186803b1580156132d657600080fd5b505afa1580156132ea573d6000803e3d6000fd5b505050506040513d602081101561330057600080fd5b5051612eda878c61527e565b945050505b600101612ff7565b6001600160a01b0380821660009081526033602090815260408083209386168352928152828220835162b0b8a160e01b815260048101829052935192939092849273__AccountTokenLib_______________________9262b0b8a19260248083019392829003018186803b15801561339057600080fd5b505af41580156133a4573d6000803e3d6000fd5b505050506040513d60208110156133ba57600080fd5b50516133cb576000925050506119ca565b603460009054906101000a90046001600160a01b03166001600160a01b03166376cdb03b6040518163ffffffff1660e01b815260040160206040518083038186803b15801561341957600080fd5b505afa15801561342d573d6000803e3d6000fd5b505050506040513d602081101561344357600080fd5b50516040805163b66b3ce960e01b81526004810185905290516001600160a01b0390921691631ff4443c91889173__AccountTokenLib_______________________9163b66b3ce9916024808301926020929190829003018186803b1580156134ab57600080fd5b505af41580156134bf573d6000803e3d6000fd5b505050506040513d60208110156134d557600080fd5b5051604080516001600160e01b031960e086901b1681526001600160a01b0390931660048401526024830191909152516044808301926020929190829003018186803b15801561352457600080fd5b505afa158015613538573d6000803e3d6000fd5b505050506040513d602081101561354e57600080fd5b50516135635750670de0b6b3a76400006137e4565b603454604080516376cdb03b60e01b815290516137e1926001600160a01b0316916376cdb03b916004808301926020929190829003018186803b1580156135a957600080fd5b505afa1580156135bd573d6000803e3d6000fd5b505050506040513d60208110156135d357600080fd5b50516040805163b66b3ce960e01b81526004810186905290516001600160a01b0390921691631ff4443c91899173__AccountTokenLib_______________________9163b66b3ce9916024808301926020929190829003018186803b15801561363b57600080fd5b505af415801561364f573d6000803e3d6000fd5b505050506040513d602081101561366557600080fd5b5051604080516001600160e01b031960e086901b1681526001600160a01b0390931660048401526024830191909152516044808301926020929190829003018186803b1580156136b457600080fd5b505afa1580156136c8573d6000803e3d6000fd5b505050506040513d60208110156136de57600080fd5b5051603454604080516376cdb03b60e01b81529051611e3192670de0b6b3a7640000926001600160a01b03909116916376cdb03b91600480820192602092909190829003018186803b15801561373357600080fd5b505afa158015613747573d6000803e3d6000fd5b505050506040513d602081101561375d57600080fd5b505160408051637ebff3d560e01b81526001600160a01b038c8116600483015291519190921691637ebff3d5916024808301926020929190829003018186803b1580156137a957600080fd5b505afa1580156137bd573d6000803e3d6000fd5b505050506040513d60208110156137d357600080fd5b50519063ffffffff6162a316565b90505b604080516313d973f760e01b81526004810184905260248101839052905173__AccountTokenLib_______________________916313d973f7916044808301926020929190829003018186803b15801561383d57600080fd5b505af4158015613851573d6000803e3d6000fd5b505050506040513d602081101561386757600080fd5b505192506119ca915050565b60356020526000908152604090205481565b600080603460009054906101000a90046001600160a01b03166001600160a01b0316639895880f6040518163ffffffff1660e01b815260040160206040518083038186803b1580156138d657600080fd5b505afa1580156138ea573d6000803e3d6000fd5b505050506040513d602081101561390057600080fd5b505160408051630463749760e51b815290516001600160a01b0390921691638c6e92e091600480820192602092909190829003018186803b15801561394457600080fd5b505afa158015613958573d6000803e3d6000fd5b505050506040513d602081101561396e57600080fd5b5051905060005b818160ff161015613b685761398a8482611a98565b8061399a575061399a848261198f565b15613b605760345460408051639895880f60e01b815290516000926001600160a01b031691639895880f916004808301926020929190829003018186803b1580156139e457600080fd5b505afa1580156139f8573d6000803e3d6000fd5b505050506040513d6020811015613a0e57600080fd5b50516040805163021245b160e01b815260ff8516600482015290516001600160a01b039092169163021245b191602480820192602092909190829003018186803b158015613a5b57600080fd5b505afa158015613a6f573d6000803e3d6000fd5b505050506040513d6020811015613a8557600080fd5b5051603454604080516376cdb03b60e01b815290519293506001600160a01b03909116916376cdb03b91600480820192602092909190829003018186803b158015613acf57600080fd5b505afa158015613ae3573d6000803e3d6000fd5b505050506040513d6020811015613af957600080fd5b50516040805163378d2c3d60e21b81526001600160a01b0384811660048301529151919092169163de34b0f491602480830192600092919082900301818387803b158015613b4657600080fd5b505af1158015613b5a573d6000803e3d6000fd5b50505050505b600101613975565b506034546040805163100c48d360e21b815290516000926001600160a01b031691634031234c916004808301926020929190829003018186803b158015613bae57600080fd5b505afa158015613bc2573d6000803e3d6000fd5b505050506040513d6020811015613bd857600080fd5b505160345460408051634802b7c160e01b815290519293506000926001600160a01b0390921691634802b7c191600480820192602092909190829003018186803b158015613c2557600080fd5b505afa158015613c39573d6000803e3d6000fd5b505050506040513d6020811015613c4f57600080fd5b505190506000613c5e86612f07565b90506000613c6b87612ad5565b9050613c7d818563ffffffff6162a316565b613c8e83606463ffffffff6162a316565b118015613cba5750613ca6818463ffffffff6162a316565b613cb783606463ffffffff6162a316565b11155b979650505050505050565b600054610100900460ff1680613cde5750613cde61629d565b80613cec575060005460ff16155b613d275760405162461bcd60e51b815260040180806020018281038252602e81526020018061667b602e913960400191505060405180910390fd5b600054610100900460ff16158015613d52576000805460ff1961ff0019909116610100171660011790555b603480546001600160a01b0319166001600160a01b0384161790558015613d7f576000805461ff00191690555b5050565b6220148081565b670de0b6b3a764000081565b6034546040805163cc5738b560e01b815290516000926001600160a01b03169163cc5738b5916004808301926020929190829003018186803b158015613ddb57600080fd5b505afa158015613def573d6000803e3d6000fd5b505050506040513d6020811015613e0557600080fd5b50516001600160a01b0316331480613e9e5750603460009054906101000a90046001600160a01b03166001600160a01b03166376cdb03b6040518163ffffffff1660e01b815260040160206040518083038186803b158015613e6657600080fd5b505afa158015613e7a573d6000803e3d6000fd5b505050506040513d6020811015613e9057600080fd5b50516001600160a01b031633145b613ed95760405162461bcd60e51b81526004018080602001828103825260388152602001806166f06038913960400191505060405180910390fd5b613ee38385613319565b821115613f2f576040805162461bcd60e51b815260206004820152601560248201527424b739bab33334b1b4b2b73a103130b630b731b29760591b604482015290519081900360640190fd5b60345460408051639895880f60e01b815290516000926001600160a01b031691639895880f916004808301926020929190829003018186803b158015613f7457600080fd5b505afa158015613f88573d6000803e3d6000fd5b505050506040513d6020811015613f9e57600080fd5b505160408051632418cd4960e21b81526001600160a01b038781166004830152915191909216916390633524916024808301926020929190829003018186803b158015613fea57600080fd5b505afa158015613ffe573d6000803e3d6000fd5b505050506040513d602081101561401457600080fd5b5051905061402185614ae0565b61402a86612f07565b11614228576034546040805163d182f33560e01b81526001600160a01b0392831660048201529186166024830152516141e2916141cd91606491611e319173__Utils_________________________________9163d182f335916044808301926020929190829003018186803b1580156140a357600080fd5b505af41580156140b7573d6000803e3d6000fd5b505050506040513d60208110156140cd57600080fd5b505160345460408051639895880f60e01b81529051611e31928992612eda926001600160a01b0390921691639895880f91600480820192602092909190829003018186803b15801561411e57600080fd5b505afa158015614132573d6000803e3d6000fd5b505050506040513d602081101561414857600080fd5b505160408051636e9ecb0f60e11b81526001600160a01b038f811660048301529151919092169163dd3d961e916024808301926020929190829003018186803b15801561419457600080fd5b505afa1580156141a8573d6000803e3d6000fd5b505050506040513d60208110156141be57600080fd5b50518b9063ffffffff6162a316565b6141d687614ae0565b9063ffffffff615ae216565b6141eb86612f07565b11156142285760405162461bcd60e51b81526004018080602001828103825260268152602001806167286026913960400191505060405180910390fd5b6001600160a01b0380861660009081526033602090815260408083209388168352928152828220835163b66b3ce960e01b8152600481018290529351909373__AccountTokenLib_______________________9263b66b3ce992602480840193829003018186803b15801561429c57600080fd5b505af41580156142b0573d6000803e3d6000fd5b505050506040513d60208110156142c657600080fd5b5051905060006142d4615b2b565b90506142e282888a84615f61565b60008373__AccountTokenLib_______________________62b0b8a190916040518263ffffffff1660e01b81526004018082815260200191505060206040518083038186803b15801561433457600080fd5b505af4158015614348573d6000803e3d6000fd5b505050506040513d602081101561435e57600080fd5b50516040805163b66b3ce960e01b815260048101879052905191925073__AccountTokenLib_______________________9163b66b3ce991602480820192602092909190829003018186803b1580156143b657600080fd5b505af41580156143ca573d6000803e3d6000fd5b505050506040513d60208110156143e057600080fd5b50516144795773__AccountTokenLib_______________________63381cec488589670de0b6b3a7640000614413615b2b565b6040518563ffffffff1660e01b81526004018085815260200184815260200183815260200182815260200194505050505060006040518083038186803b15801561445c57600080fd5b505af4158015614470573d6000803e3d6000fd5b5050505061467f565b603454604080516376cdb03b60e01b815290516000926001600160a01b0316916376cdb03b916004808301926020929190829003018186803b1580156144be57600080fd5b505afa1580156144d2573d6000803e3d6000fd5b505050506040513d60208110156144e857600080fd5b50516040805163b66b3ce960e01b81526004810188905290516001600160a01b0390921691635a80c497918c9173__AccountTokenLib_______________________9163b66b3ce9916024808301926020929190829003018186803b15801561455057600080fd5b505af4158015614564573d6000803e3d6000fd5b505050506040513d602081101561457a57600080fd5b5051604080516001600160e01b031960e086901b1681526001600160a01b0390931660048401526024830191909152516044808301926020929190829003018186803b1580156145c957600080fd5b505afa1580156145dd573d6000803e3d6000fd5b505050506040513d60208110156145f357600080fd5b5051905073__AccountTokenLib_______________________63381cec48868a8461461c615b2b565b6040518563ffffffff1660e01b81526004018085815260200184815260200183815260200182815260200194505050505060006040518083038186803b15801561466557600080fd5b505af4158015614679573d6000803e3d6000fd5b50505050505b60008473__AccountTokenLib_______________________62b0b8a190916040518263ffffffff1660e01b81526004018082815260200191505060206040518083038186803b1580156146d157600080fd5b505af41580156146e5573d6000803e3d6000fd5b505050506040513d60208110156146fb57600080fd5b50516040805162b0b8a160e01b815260048101889052905191925073__AccountTokenLib_______________________9162b0b8a191602480820192602092909190829003018186803b15801561475157600080fd5b505af4158015614765573d6000803e3d6000fd5b505050506040513d602081101561477b57600080fd5b50516148765760345460408051639895880f60e01b815290516000926001600160a01b031691639895880f916004808301926020929190829003018186803b1580156147c657600080fd5b505afa1580156147da573d6000803e3d6000fd5b505050506040513d60208110156147f057600080fd5b5051604080516319b02f4960e21b81526001600160a01b038d81166004830152915191909216916366c0bd24916024808301926020929190829003018186803b15801561483c57600080fd5b505afa158015614850573d6000803e3d6000fd5b505050506040513d602081101561486657600080fd5b505190506148748b82616435565b505b60345460408051632fe24e4560e21b815290516000926001600160a01b03169163bf893914916004808301926020929190829003018186803b1580156148bb57600080fd5b505afa1580156148cf573d6000803e3d6000fd5b505050506040513d60208110156148e557600080fd5b50516001600160a01b038c8116911614614a215761499b6064611e31603460009054906101000a90046001600160a01b03166001600160a01b031663ace96d0e6040518163ffffffff1660e01b815260040160206040518083038186803b15801561494f57600080fd5b505afa158015614963573d6000803e3d6000fd5b505050506040513d602081101561497957600080fd5b5051612eda61498e888863ffffffff615ae216565b8e9063ffffffff615ae216565b9050614a21603460009054906101000a90046001600160a01b03166001600160a01b031663bf8939146040518163ffffffff1660e01b815260040160206040518083038186803b1580156149ee57600080fd5b505afa158015614a02573d6000803e3d6000fd5b505050506040513d6020811015614a1857600080fd5b50518b83612442565b614a31898263ffffffff615ae216565b9b9a5050505050505050505050565b6001600160a01b0380831660009081526033602090815260408083209385168352928152828220835163b66b3ce960e01b81526004810182905293519293909273__AccountTokenLib_______________________9263b66b3ce99260248082019391829003018186803b15801561240e57600080fd5b6001600160a01b03166000908152603360205260409020600101546001600160801b0316151590565b6000805b603460009054906101000a90046001600160a01b03166001600160a01b0316639895880f6040518163ffffffff1660e01b815260040160206040518083038186803b158015614b3257600080fd5b505afa158015614b46573d6000803e3d6000fd5b505050506040513d6020811015614b5c57600080fd5b505160408051630463749760e51b815290516001600160a01b0390921691638c6e92e091600480820192602092909190829003018186803b158015614ba057600080fd5b505afa158015614bb4573d6000803e3d6000fd5b505050506040513d6020811015614bca57600080fd5b505160ff82161015614fee57614be08382611a98565b15614fe65760345460408051639895880f60e01b815290516000926001600160a01b031691639895880f916004808301926020929190829003018186803b158015614c2a57600080fd5b505afa158015614c3e573d6000803e3d6000fd5b505050506040513d6020811015614c5457600080fd5b50516040805163021245b160e01b815260ff8516600482015290516001600160a01b039092169163021245b191602480820192602092909190829003018186803b158015614ca157600080fd5b505afa158015614cb5573d6000803e3d6000fd5b505050506040513d6020811015614ccb57600080fd5b50519050670de0b6b3a76400006001600160a01b038216600e14614de257603460009054906101000a90046001600160a01b03166001600160a01b0316639895880f6040518163ffffffff1660e01b815260040160206040518083038186803b158015614d3757600080fd5b505afa158015614d4b573d6000803e3d6000fd5b505050506040513d6020811015614d6157600080fd5b505160408051633c2e3e7b60e11b81526001600160a01b0385811660048301529151919092169163785c7cf6916024808301926020929190829003018186803b158015614dad57600080fd5b505afa158015614dc1573d6000803e3d6000fd5b505050506040513d6020811015614dd757600080fd5b505160ff16600a0a90505b614fe1614fd482611e316064611e31603460009054906101000a90046001600160a01b03166001600160a01b0316639895880f6040518163ffffffff1660e01b815260040160206040518083038186803b158015614e3f57600080fd5b505afa158015614e53573d6000803e3d6000fd5b505050506040513d6020811015614e6957600080fd5b505160408051632418cd4960e21b81526001600160a01b038b81166004830152915191909216916390633524916024808301926020929190829003018186803b158015614eb557600080fd5b505afa158015614ec9573d6000803e3d6000fd5b505050506040513d6020811015614edf57600080fd5b505160345460408051639895880f60e01b81529051612eda926001600160a01b031691639895880f916004808301926020929190829003018186803b158015614f2757600080fd5b505afa158015614f3b573d6000803e3d6000fd5b505050506040513d6020811015614f5157600080fd5b505160408051634af44fff60e11b815260ff8e16600482015290516001600160a01b03909216916395e89ffe91602480820192602092909190829003018186803b158015614f9e57600080fd5b505afa158015614fb2573d6000803e3d6000fd5b505050506040513d6020811015614fc857600080fd5b5051612eda8b8f613319565b859063ffffffff61633e16565b935050505b600101614ae4565b50919050565b6001600160a01b0380831660009081526033602090815260408083209385168352928152828220835163b66b3ce960e01b81526004810182905293519293909273__AccountTokenLib_______________________9263b66b3ce99260248082019391829003018186803b15801561506b57600080fd5b505af415801561507f573d6000803e3d6000fd5b505050506040513d602081101561509557600080fd5b50516150a55760009150506119ca565b603454604080516376cdb03b60e01b815290516000926001600160a01b0316916376cdb03b916004808301926020929190829003018186803b1580156150ea57600080fd5b505afa1580156150fe573d6000803e3d6000fd5b505050506040513d602081101561511457600080fd5b50516040805163b66b3ce960e01b81526004810185905290516001600160a01b0390921691635a80c49791879173__AccountTokenLib_______________________9163b66b3ce9916024808301926020929190829003018186803b15801561517c57600080fd5b505af4158015615190573d6000803e3d6000fd5b505050506040513d60208110156151a657600080fd5b5051604080516001600160e01b031960e086901b1681526001600160a01b0390931660048401526024830191909152516044808301926020929190829003018186803b1580156151f557600080fd5b505afa158015615209573d6000803e3d6000fd5b505050506040513d602081101561521f57600080fd5b5051604080516328648c6560e11b81526004810185905260248101839052905191925073__AccountTokenLib_______________________916350c918ca91604480820192602092909190829003018186803b15801561383d57600080fd5b6001600160a01b038082166000908152603360209081526040808320938616835292815282822083516343ae240160e11b815260048101829052935192939092849273__AccountTokenLib_______________________9263875c48029260248083019392829003018186803b1580156152f757600080fd5b505af415801561530b573d6000803e3d6000fd5b505050506040513d602081101561532157600080fd5b5051615332576000925050506119ca565b603460009054906101000a90046001600160a01b03166001600160a01b03166376cdb03b6040518163ffffffff1660e01b815260040160206040518083038186803b15801561538057600080fd5b505afa158015615394573d6000803e3d6000fd5b505050506040513d60208110156153aa57600080fd5b5051604080516301de24b560e51b81526004810185905290516001600160a01b0390921691637aa473d191889173__AccountTokenLib_______________________91633bc496a0916024808301926020929190829003018186803b15801561541257600080fd5b505af4158015615426573d6000803e3d6000fd5b505050506040513d602081101561543c57600080fd5b5051604080516001600160e01b031960e086901b1681526001600160a01b0390931660048401526024830191909152516044808301926020929190829003018186803b15801561548b57600080fd5b505afa15801561549f573d6000803e3d6000fd5b505050506040513d60208110156154b557600080fd5b50516154ca5750670de0b6b3a7640000615713565b603454604080516376cdb03b60e01b81529051615710926001600160a01b0316916376cdb03b916004808301926020929190829003018186803b15801561551057600080fd5b505afa158015615524573d6000803e3d6000fd5b505050506040513d602081101561553a57600080fd5b5051604080516301de24b560e51b81526004810186905290516001600160a01b0390921691637aa473d191899173__AccountTokenLib_______________________91633bc496a0916024808301926020929190829003018186803b1580156155a257600080fd5b505af41580156155b6573d6000803e3d6000fd5b505050506040513d60208110156155cc57600080fd5b5051604080516001600160e01b031960e086901b1681526001600160a01b0390931660048401526024830191909152516044808301926020929190829003018186803b15801561561b57600080fd5b505afa15801561562f573d6000803e3d6000fd5b505050506040513d602081101561564557600080fd5b5051603454604080516376cdb03b60e01b81529051611e3192670de0b6b3a7640000926001600160a01b03909116916376cdb03b91600480820192602092909190829003018186803b15801561569a57600080fd5b505afa1580156156ae573d6000803e3d6000fd5b505050506040513d60208110156156c457600080fd5b505160408051630b57444360e01b81526001600160a01b038c8116600483015291519190921691630b574443916024808301926020929190829003018186803b1580156137a957600080fd5b90505b6040805163e8f2267360e01b81526004810184905260248101839052905173__AccountTokenLib_______________________9163e8f22673916044808301926020929190829003018186803b15801561383d57600080fd5b6001600160a01b038083166000908152603360209081526040808320938516835292815282822083516301de24b560e51b81526004810182905293519293909273__AccountTokenLib_______________________92633bc496a09260248082019391829003018186803b15801561240e57600080fd5b6001600160a01b038083166000908152603360209081526040808320938516835292815282822083516301de24b560e51b81526004810182905293519293909273__AccountTokenLib_______________________92633bc496a09260248082019391829003018186803b15801561585a57600080fd5b505af415801561586e573d6000803e3d6000fd5b505050506040513d602081101561588457600080fd5b50516158945760009150506119ca565b603454604080516376cdb03b60e01b815290516000926001600160a01b0316916376cdb03b916004808301926020929190829003018186803b1580156158d957600080fd5b505afa1580156158ed573d6000803e3d6000fd5b505050506040513d602081101561590357600080fd5b5051604080516301de24b560e51b81526004810185905290516001600160a01b0390921691632d6cb68191879173__AccountTokenLib_______________________91633bc496a0916024808301926020929190829003018186803b15801561596b57600080fd5b505af415801561597f573d6000803e3d6000fd5b505050506040513d602081101561599557600080fd5b5051604080516001600160e01b031960e086901b1681526001600160a01b0390931660048401526024830191909152516044808301926020929190829003018186803b1580156159e457600080fd5b505afa1580156159f8573d6000803e3d6000fd5b505050506040513d6020811015615a0e57600080fd5b5051604080516315d7fef560e01b81526004810185905260248101839052905191925073__AccountTokenLib_______________________916315d7fef591604480820192602092909190829003018186803b15801561383d57600080fd5b6001600160a01b0380831660009081526033602090815260408083209385168352928152828220835162b0b8a160e01b81526004810182905293519293909273__AccountTokenLib_______________________9262b0b8a19260248082019391829003018186803b15801561240e57600080fd5b6000615b2483836040518060400160405280601e81526020017f536166654d6174683a207375627472616374696f6e206f766572666c6f77000081525061646b565b9392505050565b603654604080516310b2ec5760e21b815290516000926001600160a01b0316916342cbb15c916004808301926020929190829003018186803b158015615b7057600080fd5b505afa158015615b84573d6000803e3d6000fd5b505050506040513d6020811015615b9a57600080fd5b5051905090565b6000615d97603460009054906101000a90046001600160a01b03166001600160a01b03166376cdb03b6040518163ffffffff1660e01b815260040160206040518083038186803b158015615bf457600080fd5b505afa158015615c08573d6000803e3d6000fd5b505050506040513d6020811015615c1e57600080fd5b505160408051630301e11160e11b81526001600160a01b038881166004830152602482018a905291519190921691630603c222916044808301926020929190829003018186803b158015615c7157600080fd5b505afa158015615c85573d6000803e3d6000fd5b505050506040513d6020811015615c9b57600080fd5b5051603454604080516376cdb03b60e01b815290516001600160a01b03909216916376cdb03b91600480820192602092909190829003018186803b158015615ce257600080fd5b505afa158015615cf6573d6000803e3d6000fd5b505050506040513d6020811015615d0c57600080fd5b505160408051630301e11160e11b81526001600160a01b0389811660048301526024820188905291519190921691630603c222916044808301926020929190829003018186803b158015615d5f57600080fd5b505afa158015615d73573d6000803e3d6000fd5b505050506040513d6020811015615d8957600080fd5b50519063ffffffff615ae216565b90506000615eb6603460009054906101000a90046001600160a01b03166001600160a01b03166376cdb03b6040518163ffffffff1660e01b815260040160206040518083038186803b158015615dec57600080fd5b505afa158015615e00573d6000803e3d6000fd5b505050506040513d6020811015615e1657600080fd5b50516001600160a01b0316637aa473d187615e2f615b2b565b6040518363ffffffff1660e01b815260040180836001600160a01b03166001600160a01b031681526020018281526020019250505060206040518083038186803b158015615e7c57600080fd5b505afa158015615e90573d6000803e3d6000fd5b505050506040513d6020811015615ea657600080fd5b5051611e3184612eda898961527e565b6001600160a01b038516600090815260356020526040902054909150615ee2908263ffffffff61633e16565b6001600160a01b039094166000908152603560205260409020939093555050505050565b6001600160a01b03821660009081526033602052604090206001810154615f3d90600160801b90046001600160801b031683616502565b600190910180546001600160801b03928316600160801b0292169190911790555050565b600061611f603460009054906101000a90046001600160a01b03166001600160a01b03166376cdb03b6040518163ffffffff1660e01b815260040160206040518083038186803b158015615fb457600080fd5b505afa158015615fc8573d6000803e3d6000fd5b505050506040513d6020811015615fde57600080fd5b505160408051630566973160e41b81526001600160a01b038881166004830152602482018a9052915191909216916356697310916044808301926020929190829003018186803b15801561603157600080fd5b505afa158015616045573d6000803e3d6000fd5b505050506040513d602081101561605b57600080fd5b5051603454604080516376cdb03b60e01b815290516001600160a01b03909216916376cdb03b91600480820192602092909190829003018186803b1580156160a257600080fd5b505afa1580156160b6573d6000803e3d6000fd5b505050506040513d60208110156160cc57600080fd5b505160408051630566973160e41b81526001600160a01b03898116600483015260248201889052915191909216916356697310916044808301926020929190829003018186803b158015615d5f57600080fd5b90506000615eb6603460009054906101000a90046001600160a01b03166001600160a01b03166376cdb03b6040518163ffffffff1660e01b815260040160206040518083038186803b15801561617457600080fd5b505afa158015616188573d6000803e3d6000fd5b505050506040513d602081101561619e57600080fd5b50516001600160a01b0316631ff4443c876161b7615b2b565b6040518363ffffffff1660e01b815260040180836001600160a01b03166001600160a01b031681526020018281526020019250505060206040518083038186803b15801561620457600080fd5b505afa158015616218573d6000803e3d6000fd5b505050506040513d602081101561622e57600080fd5b5051611e3184612eda8989613319565b600060808260ff16106162825760405162461bcd60e51b81526004018080602001828103825260248152602001806166366024913960400191505060405180910390fd5b50600160ff82161b82166001600160801b0316151592915050565b303b1590565b6000826162b2575060006119ca565b828202828482816162bf57fe5b0414615b245760405162461bcd60e51b815260040180806020018281038252602181526020018061665a6021913960400191505060405180910390fd5b6000615b2483836040518060400160405280601a81526020017f536166654d6174683a206469766973696f6e206279207a65726f00000000000081525061652a565b600082820183811015615b24576040805162461bcd60e51b815260206004820152601b60248201527f536166654d6174683a206164646974696f6e206f766572666c6f770000000000604482015290519081900360640190fd5b6001600160a01b03821660009081526033602052604090206001810154615f3d90600160801b90046001600160801b03168361658f565b6001600160a01b03821660009081526033602052604090206001810154616405906001600160801b03168363ffffffff61658f16565b60019190910180546fffffffffffffffffffffffffffffffff19166001600160801b039092169190911790555050565b6001600160a01b03821660009081526033602052604090206001810154616405906001600160801b03168363ffffffff61650216565b600081848411156164fa5760405162461bcd60e51b81526004018080602001828103825283818151815260200191508051906020019080838360005b838110156164bf5781810151838201526020016164a7565b50505050905090810190601f1680156164ec5780820380516001836020036101000a031916815260200191505b509250505060405180910390fd5b505050900390565b600061650e838361623e565b156165235750600160ff82161b1982166119ca565b5090919050565b600081836165795760405162461bcd60e51b81526020600482018181528351602484015283519092839260449091019190850190808383600083156164bf5781810151838201526020016164a7565b50600083858161658557fe5b0495945050505050565b600061659b838361623e565b6165235750600160ff82161b82176119ca56fe426f72726f77207a65726f20616d6f756e74206f6620746f6b656e206973206e6f7420616c6c6f7765642e546f6b656e20426f72726f775072696e636970616c206d7573742062652067726561746572207468616e20302e20546f206465706f7369742062616c616e63652c20706c6561736520757365206465706f73697420627574746f6e2e496e646578206f7574206f662072616e676520666f7220626974206f7065726174696f6e536166654d6174683a206d756c7469706c69636174696f6e206f766572666c6f77436f6e747261637420696e7374616e63652068617320616c7265616479206265656e20696e697469616c697a6564496e73756666696369656e7420636f6c6c61746572616c207768656e20626f72726f772e546865207573657220646f65736e2774206861766520616e79206465706f736974732e4f6e6c7920617574686f72697a656420746f2063616c6c2066726f6d20446546696e657220696e7465726e616c20636f6e7472616374732e496e73756666696369656e7420636f6c6c61746572616c207768656e2077697468647261772ea265627a7a7231582037f301d52fcdd57e2d49ccb90ccb22bd6841ec543799a1247835a7408293178b64736f6c634300050e0032",
  "source": "pragma solidity 0.5.14;\n\nimport \"../Accounts.sol\";\nimport { IController } from \"../compound/ICompound.sol\";\n\ncontract AccountsWithController is Accounts {\n\n    address comptroller;\n\n    function initialize(\n        GlobalConfig _globalConfig,\n        address _comptroller\n    ) public initializer {\n        super.initialize(_globalConfig); // expected 3 passed 5 args\n        comptroller = _comptroller;\n    }\n\n    function getBlockNumber() private view returns (uint) {\n        return IController(comptroller).getBlockNumber();\n    }\n}",
  "sourcePath": "/Users/yanyichun/project/Savings/contracts/mocks/AccountsWithController.sol",
  "compiler": {
    "name": "solc",
    "version": "0.5.14+commit.01f1aaa4.Emscripten.clang"
  },
  "schemaVersion": "3.2.3",
  "updatedAt": "2021-02-25T05:30:06.494Z",
  "devdoc": {
    "methods": {
      "claim(address)": {
        "details": "If the FIN mining index point doesn't exist, we have to calculate the FIN amount  accurately. So the user can withdraw all available FIN tokens."
      },
      "getBorrowBalanceCurrent(address,address)": {
        "details": "This is an estimation. Add a new checkpoint first, if you want to derive the exact balance.",
        "params": {
          "_token": "token address"
        }
      },
      "getDepositETH(address)": {
        "details": "This is an estimation. Add a new checkpoint first, if you want to derive the exact balance."
      },
      "getDepositInterest(address,address)": {
        "details": "The deposit interest may not have been updated in AccountTokenLib, so we need to explicited calcuate it.",
        "params": {
          "_account": "account address",
          "_token": "token address"
        }
      },
      "initialize(address)": {
        "params": {
          "_globalConfig": "the global configuration contract"
        }
      },
      "isAccountLiquidatable(address)": {
        "params": {
          "_borrower": "borrower's account"
        },
        "return": "true if the account is liquidatable"
      },
      "isUserHasAnyDeposits(address)": {
        "params": {
          "_account": "address of the user"
        },
        "return": "true if the user has positive deposit balance"
      },
      "isUserHasBorrows(address,uint8)": {
        "params": {
          "_account": "address of the user",
          "_index": "index of the token"
        },
        "return": "true if the user has borrowed the token"
      },
      "isUserHasDeposits(address,uint8)": {
        "params": {
          "_account": "address of the user",
          "_index": "index of the token"
        },
        "return": "true if the user has positive deposit balance for the token"
      }
    }
  },
  "userdoc": {
    "methods": {
      "claim(address)": {
        "notice": "An account claim all mined FIN token."
      },
      "deposit(address,address,uint256)": {
        "notice": "Update token info for deposit"
      },
      "getBorrowBalanceCurrent(address,address)": {
        "notice": "Get current borrow balance of a token"
      },
      "getBorrowETH(address)": {
        "notice": "Get borrowed balance of a token in the uint of Wei"
      },
      "getBorrowPower(address)": {
        "notice": "Calculate an account's borrow power based on token's LTV"
      },
      "getDepositETH(address)": {
        "notice": "Get current deposit balance of a token"
      },
      "getDepositInterest(address,address)": {
        "notice": "Get deposit interest of an account for a specific token"
      },
      "initialize(address)": {
        "notice": "Initialize the Accounts"
      },
      "isAccountLiquidatable(address)": {
        "notice": "Check if the account is liquidatable"
      },
      "isUserHasAnyDeposits(address)": {
        "notice": "Check if the user has deposit for any tokens"
      },
      "isUserHasBorrows(address,uint8)": {
        "notice": "Check if the user has borrowed a token"
      },
      "isUserHasDeposits(address,uint8)": {
        "notice": "Check if the user has deposit for a token"
      },
      "withdraw(address,address,uint256)": {
        "notice": "Update token info for withdraw. The interest will be withdrawn with higher priority."
      }
    }
  }
}