{
  "contractName": "Accounts",
  "abi": [
    {
      "constant": true,
      "inputs": [],
      "name": "ACCURACY",
      "outputs": [
        {
          "internalType": "uint256",
          "name": "",
          "type": "uint256"
        }
      ],
      "payable": false,
      "stateMutability": "view",
      "type": "function"
    },
    {
      "constant": true,
      "inputs": [],
      "name": "BLOCKS_PER_YEAR",
      "outputs": [
        {
          "internalType": "uint256",
          "name": "",
          "type": "uint256"
        }
      ],
      "payable": false,
      "stateMutability": "view",
      "type": "function"
    },
    {
      "constant": true,
      "inputs": [],
      "name": "EMERGENCY_ADDR",
      "outputs": [
        {
          "internalType": "address payable",
          "name": "",
          "type": "address"
        }
      ],
      "payable": false,
      "stateMutability": "view",
      "type": "function"
    },
    {
      "constant": true,
      "inputs": [],
      "name": "ETH_ADDR",
      "outputs": [
        {
          "internalType": "address",
          "name": "",
          "type": "address"
        }
      ],
      "payable": false,
      "stateMutability": "view",
      "type": "function"
    },
    {
      "constant": true,
      "inputs": [
        {
          "internalType": "address",
          "name": "",
          "type": "address"
        }
      ],
      "name": "FINAmount",
      "outputs": [
        {
          "internalType": "uint256",
          "name": "",
          "type": "uint256"
        }
      ],
      "payable": false,
      "stateMutability": "view",
      "type": "function"
    },
    {
      "constant": true,
      "inputs": [],
      "name": "INT_UNIT",
      "outputs": [
        {
          "internalType": "uint256",
          "name": "",
          "type": "uint256"
        }
      ],
      "payable": false,
      "stateMutability": "view",
      "type": "function"
    },
    {
      "constant": true,
      "inputs": [
        {
          "internalType": "address",
          "name": "",
          "type": "address"
        }
      ],
      "name": "accounts",
      "outputs": [
        {
          "internalType": "uint128",
          "name": "depositBitmap",
          "type": "uint128"
        },
        {
          "internalType": "uint128",
          "name": "borrowBitmap",
          "type": "uint128"
        }
      ],
      "payable": false,
      "stateMutability": "view",
      "type": "function"
    },
    {
      "constant": false,
      "inputs": [
        {
          "internalType": "contract GlobalConfig",
          "name": "_globalConfig",
          "type": "address"
        }
      ],
      "name": "initialize",
      "outputs": [],
      "payable": false,
      "stateMutability": "nonpayable",
      "type": "function"
    },
    {
      "constant": true,
      "inputs": [
        {
          "internalType": "address",
          "name": "_account",
          "type": "address"
        }
      ],
      "name": "isUserHasAnyDeposits",
      "outputs": [
        {
          "internalType": "bool",
          "name": "",
          "type": "bool"
        }
      ],
      "payable": false,
      "stateMutability": "view",
      "type": "function"
    },
    {
      "constant": true,
      "inputs": [
        {
          "internalType": "address",
          "name": "_account",
          "type": "address"
        },
        {
          "internalType": "uint8",
          "name": "_index",
          "type": "uint8"
        }
      ],
      "name": "isUserHasDeposits",
      "outputs": [
        {
          "internalType": "bool",
          "name": "",
          "type": "bool"
        }
      ],
      "payable": false,
      "stateMutability": "view",
      "type": "function"
    },
    {
      "constant": true,
      "inputs": [
        {
          "internalType": "address",
          "name": "_account",
          "type": "address"
        },
        {
          "internalType": "uint8",
          "name": "_index",
          "type": "uint8"
        }
      ],
      "name": "isUserHasBorrows",
      "outputs": [
        {
          "internalType": "bool",
          "name": "",
          "type": "bool"
        }
      ],
      "payable": false,
      "stateMutability": "view",
      "type": "function"
    },
    {
      "constant": true,
      "inputs": [
        {
          "internalType": "address",
          "name": "_accountAddr",
          "type": "address"
        },
        {
          "internalType": "address",
          "name": "_token",
          "type": "address"
        }
      ],
      "name": "getDepositPrincipal",
      "outputs": [
        {
          "internalType": "uint256",
          "name": "",
          "type": "uint256"
        }
      ],
      "payable": false,
      "stateMutability": "view",
      "type": "function"
    },
    {
      "constant": true,
      "inputs": [
        {
          "internalType": "address",
          "name": "_accountAddr",
          "type": "address"
        },
        {
          "internalType": "address",
          "name": "_token",
          "type": "address"
        }
      ],
      "name": "getBorrowPrincipal",
      "outputs": [
        {
          "internalType": "uint256",
          "name": "",
          "type": "uint256"
        }
      ],
      "payable": false,
      "stateMutability": "view",
      "type": "function"
    },
    {
      "constant": true,
      "inputs": [
        {
          "internalType": "address",
          "name": "_accountAddr",
          "type": "address"
        },
        {
          "internalType": "address",
          "name": "_token",
          "type": "address"
        }
      ],
      "name": "getLastDepositBlock",
      "outputs": [
        {
          "internalType": "uint256",
          "name": "",
          "type": "uint256"
        }
      ],
      "payable": false,
      "stateMutability": "view",
      "type": "function"
    },
    {
      "constant": true,
      "inputs": [
        {
          "internalType": "address",
          "name": "_accountAddr",
          "type": "address"
        },
        {
          "internalType": "address",
          "name": "_token",
          "type": "address"
        }
      ],
      "name": "getLastBorrowBlock",
      "outputs": [
        {
          "internalType": "uint256",
          "name": "",
          "type": "uint256"
        }
      ],
      "payable": false,
      "stateMutability": "view",
      "type": "function"
    },
    {
      "constant": true,
      "inputs": [
        {
          "internalType": "address",
          "name": "_account",
          "type": "address"
        },
        {
          "internalType": "address",
          "name": "_token",
          "type": "address"
        }
      ],
      "name": "getDepositInterest",
      "outputs": [
        {
          "internalType": "uint256",
          "name": "",
          "type": "uint256"
        }
      ],
      "payable": false,
      "stateMutability": "view",
      "type": "function"
    },
    {
      "constant": true,
      "inputs": [
        {
          "internalType": "address",
          "name": "_accountAddr",
          "type": "address"
        },
        {
          "internalType": "address",
          "name": "_token",
          "type": "address"
        }
      ],
      "name": "getBorrowInterest",
      "outputs": [
        {
          "internalType": "uint256",
          "name": "",
          "type": "uint256"
        }
      ],
      "payable": false,
      "stateMutability": "view",
      "type": "function"
    },
    {
      "constant": false,
      "inputs": [
        {
          "internalType": "address",
          "name": "_accountAddr",
          "type": "address"
        },
        {
          "internalType": "address",
          "name": "_token",
          "type": "address"
        },
        {
          "internalType": "uint256",
          "name": "_amount",
          "type": "uint256"
        }
      ],
      "name": "borrow",
      "outputs": [],
      "payable": false,
      "stateMutability": "nonpayable",
      "type": "function"
    },
    {
      "constant": false,
      "inputs": [
        {
          "internalType": "address",
          "name": "_accountAddr",
          "type": "address"
        },
        {
          "internalType": "address",
          "name": "_token",
          "type": "address"
        },
        {
          "internalType": "uint256",
          "name": "_amount",
          "type": "uint256"
        }
      ],
      "name": "withdraw",
      "outputs": [
        {
          "internalType": "uint256",
          "name": "",
          "type": "uint256"
        }
      ],
      "payable": false,
      "stateMutability": "nonpayable",
      "type": "function"
    },
    {
      "constant": false,
      "inputs": [
        {
          "internalType": "address",
          "name": "_accountAddr",
          "type": "address"
        },
        {
          "internalType": "address",
          "name": "_token",
          "type": "address"
        },
        {
          "internalType": "uint256",
          "name": "_amount",
          "type": "uint256"
        }
      ],
      "name": "deposit",
      "outputs": [],
      "payable": false,
      "stateMutability": "nonpayable",
      "type": "function"
    },
    {
      "constant": false,
      "inputs": [
        {
          "internalType": "address",
          "name": "_accountAddr",
          "type": "address"
        },
        {
          "internalType": "address",
          "name": "_token",
          "type": "address"
        },
        {
          "internalType": "uint256",
          "name": "_amount",
          "type": "uint256"
        }
      ],
      "name": "repay",
      "outputs": [
        {
          "internalType": "uint256",
          "name": "",
          "type": "uint256"
        }
      ],
      "payable": false,
      "stateMutability": "nonpayable",
      "type": "function"
    },
    {
      "constant": true,
      "inputs": [
        {
          "internalType": "address",
          "name": "_token",
          "type": "address"
        },
        {
          "internalType": "address",
          "name": "_accountAddr",
          "type": "address"
        }
      ],
      "name": "getDepositBalanceCurrent",
      "outputs": [
        {
          "internalType": "uint256",
          "name": "depositBalance",
          "type": "uint256"
        }
      ],
      "payable": false,
      "stateMutability": "view",
      "type": "function"
    },
    {
      "constant": true,
      "inputs": [
        {
          "internalType": "address",
          "name": "_token",
          "type": "address"
        },
        {
          "internalType": "address",
          "name": "_accountAddr",
          "type": "address"
        }
      ],
      "name": "getBorrowBalanceCurrent",
      "outputs": [
        {
          "internalType": "uint256",
          "name": "borrowBalance",
          "type": "uint256"
        }
      ],
      "payable": false,
      "stateMutability": "view",
      "type": "function"
    },
    {
      "constant": true,
      "inputs": [
        {
          "internalType": "address",
          "name": "_borrower",
          "type": "address"
        }
      ],
      "name": "getBorrowPower",
      "outputs": [
        {
          "internalType": "uint256",
          "name": "power",
          "type": "uint256"
        }
      ],
      "payable": false,
      "stateMutability": "view",
      "type": "function"
    },
    {
      "constant": true,
      "inputs": [
        {
          "internalType": "address",
          "name": "_accountAddr",
          "type": "address"
        }
      ],
      "name": "getDepositETH",
      "outputs": [
        {
          "internalType": "uint256",
          "name": "depositETH",
          "type": "uint256"
        }
      ],
      "payable": false,
      "stateMutability": "view",
      "type": "function"
    },
    {
      "constant": true,
      "inputs": [
        {
          "internalType": "address",
          "name": "_accountAddr",
          "type": "address"
        }
      ],
      "name": "getBorrowETH",
      "outputs": [
        {
          "internalType": "uint256",
          "name": "borrowETH",
          "type": "uint256"
        }
      ],
      "payable": false,
      "stateMutability": "view",
      "type": "function"
    },
    {
      "constant": false,
      "inputs": [
        {
          "internalType": "address",
          "name": "_borrower",
          "type": "address"
        }
      ],
      "name": "isAccountLiquidatable",
      "outputs": [
        {
          "internalType": "bool",
          "name": "",
          "type": "bool"
        }
      ],
      "payable": false,
      "stateMutability": "nonpayable",
      "type": "function"
    },
    {
      "constant": false,
      "inputs": [
        {
          "internalType": "address",
          "name": "_account",
          "type": "address"
        }
      ],
      "name": "claim",
      "outputs": [
        {
          "internalType": "uint256",
          "name": "",
          "type": "uint256"
        }
      ],
      "payable": false,
      "stateMutability": "nonpayable",
      "type": "function"
    }
  ],
  "bytecode": "0x608060405234801561001057600080fd5b5061660f80620000216000396000f3fe608060405234801561001057600080fd5b50600436106101c45760003560e01c8063be2801b5116100f9578063e21f0b5511610097578063edc337b411610071578063edc337b4146105c5578063f1debb90146105f3578063fa78d59f14610621578063fbcd9b05146104b1576101c4565b8063e21f0b5514610543578063e2a93dd914610569578063e94201c714610597576101c4565b8063d8c2d84c116100d3578063d8c2d84c146104b1578063d9caed12146104b9578063e0ed3194146104ef578063e20672041461051d576101c4565b8063be2801b51461045d578063c4d66de814610483578063d37db1d2146104a9576101c4565b80637753f47b116101665780639c9dd88f116101405780639c9dd88f146103bd578063b0fcd7a0146103e3578063b44d253d14610409578063b4c56abc14610437576101c4565b80637753f47b146103515780638224b899146103595780638340f54914610387576101c4565b80634b096f80116101a25780634b096f801461027a5780635224372c146102a95780635467cec4146102e15780635e5c06e214610305576101c4565b80631da649cf146101c95780631e83409a1461021157806324e46eba14610237575b600080fd5b6101ff600480360360608110156101df57600080fd5b506001600160a01b0381358116916020810135909116906040013561064f565b60408051918252519081900360200190f35b6101ff6004803603602081101561022757600080fd5b50356001600160a01b0316610de0565b6102666004803603604081101561024d57600080fd5b5080356001600160a01b0316906020013560ff16611956565b604080519115158252519081900360200190f35b6102666004803603604081101561029057600080fd5b5080356001600160a01b0316906020013560ff16611997565b6102df600480360360608110156102bf57600080fd5b506001600160a01b038135811691602081013590911690604001356119cd565b005b6102e9612250565b604080516001600160a01b039092168252519081900360200190f35b61032b6004803603602081101561031b57600080fd5b50356001600160a01b0316612268565b604080516001600160801b03938416815291909216602082015281519081900390910190f35b6102e9612291565b6101ff6004803603604081101561036f57600080fd5b506001600160a01b0381358116916020013516612296565b6102df6004803603606081101561039d57600080fd5b506001600160a01b03813581169160208101359091169060400135612341565b6101ff600480360360208110156103d357600080fd5b50356001600160a01b03166129d4565b6101ff600480360360208110156103f957600080fd5b50356001600160a01b0316612e06565b6101ff6004803603604081101561041f57600080fd5b506001600160a01b0381358116916020013516613218565b6101ff6004803603602081101561044d57600080fd5b50356001600160a01b0316613772565b6102666004803603602081101561047357600080fd5b50356001600160a01b0316613784565b6102df6004803603602081101561049957600080fd5b50356001600160a01b0316613bc4565b6101ff613c82565b6101ff613c89565b6101ff600480360360608110156104cf57600080fd5b506001600160a01b03813581169160208101359091169060400135613c95565b6101ff6004803603604081101561050557600080fd5b506001600160a01b038135811691602001351661493f565b6102666004803603602081101561053357600080fd5b50356001600160a01b03166149b6565b6101ff6004803603602081101561055957600080fd5b50356001600160a01b03166149df565b6101ff6004803603604081101561057f57600080fd5b506001600160a01b0381358116916020013516614ef3565b6101ff600480360360408110156105ad57600080fd5b506001600160a01b038135811691602001351661517d565b6101ff600480360360408110156105db57600080fd5b506001600160a01b038135811691602001351661566b565b6101ff6004803603604081101561060957600080fd5b506001600160a01b03813581169160200135166156e2565b6101ff6004803603604081101561063757600080fd5b506001600160a01b038135811691602001351661596c565b6034546040805163cc5738b560e01b815290516000926001600160a01b03169163cc5738b5916004808301926020929190829003018186803b15801561069457600080fd5b505afa1580156106a8573d6000803e3d6000fd5b505050506040513d60208110156106be57600080fd5b50516001600160a01b03163314806107575750603460009054906101000a90046001600160a01b03166001600160a01b03166376cdb03b6040518163ffffffff1660e01b815260040160206040518083038186803b15801561071f57600080fd5b505afa158015610733573d6000803e3d6000fd5b505050506040513d602081101561074957600080fd5b50516001600160a01b031633145b6107925760405162461bcd60e51b815260040180806020018281038252603881526020018061657d6038913960400191505060405180910390fd5b600061079e848661517d565b905060008184116107af57836107b1565b815b905060008285116107c35760006107d3565b6107d3858463ffffffff6159e116565b6001600160a01b038089166000908152603360209081526040808320938b16835292815282822083516343ae240160e11b815260048101829052935194955093919273__AccountTokenLib_______________________9263875c480292602480840193919291829003018186803b15801561084e57600080fd5b505af4158015610862573d6000803e3d6000fd5b505050506040513d602081101561087857600080fd5b5051116108b65760405162461bcd60e51b815260040180806020018281038252605c815260200180616467605c913960600191505060405180910390fd5b8073__AccountTokenLib_______________________633bc496a090916040518263ffffffff1660e01b81526004018082815260200191505060206040518083038186803b15801561090757600080fd5b505af415801561091b573d6000803e3d6000fd5b505050506040513d602081101561093157600080fd5b50516109ca5773__AccountTokenLib_______________________63febc2fe38285670de0b6b3a7640000610964615a2a565b6040518563ffffffff1660e01b81526004018085815260200184815260200183815260200182815260200194505050505060006040518083038186803b1580156109ad57600080fd5b505af41580156109c1573d6000803e3d6000fd5b50505050610c5f565b610a598173__AccountTokenLib_______________________633bc496a090916040518263ffffffff1660e01b81526004018082815260200191505060206040518083038186803b158015610a1e57600080fd5b505af4158015610a32573d6000803e3d6000fd5b505050506040513d6020811015610a4857600080fd5b5051888a610a54615a2a565b615a2e565b603454604080516376cdb03b60e01b815290516000926001600160a01b0316916376cdb03b916004808301926020929190829003018186803b158015610a9e57600080fd5b505afa158015610ab2573d6000803e3d6000fd5b505050506040513d6020811015610ac857600080fd5b5051604080516301de24b560e51b81526004810185905290516001600160a01b0390921691632d6cb681918b9173__AccountTokenLib_______________________91633bc496a0916024808301926020929190829003018186803b158015610b3057600080fd5b505af4158015610b44573d6000803e3d6000fd5b505050506040513d6020811015610b5a57600080fd5b5051604080516001600160e01b031960e086901b1681526001600160a01b0390931660048401526024830191909152516044808301926020929190829003018186803b158015610ba957600080fd5b505afa158015610bbd573d6000803e3d6000fd5b505050506040513d6020811015610bd357600080fd5b5051905073__AccountTokenLib_______________________63febc2fe3838684610bfc615a2a565b6040518563ffffffff1660e01b81526004018085815260200184815260200183815260200182815260200194505050505060006040518083038186803b158015610c4557600080fd5b505af4158015610c59573d6000803e3d6000fd5b50505050505b8073__AccountTokenLib_______________________63875c480290916040518263ffffffff1660e01b81526004018082815260200191505060206040518083038186803b158015610cb057600080fd5b505af4158015610cc4573d6000803e3d6000fd5b505050506040513d6020811015610cda57600080fd5b5051610dd55760345460408051639895880f60e01b815290516000926001600160a01b031691639895880f916004808301926020929190829003018186803b158015610d2557600080fd5b505afa158015610d39573d6000803e3d6000fd5b505050506040513d6020811015610d4f57600080fd5b5051604080516319b02f4960e21b81526001600160a01b038b81166004830152915191909216916366c0bd24916024808301926020929190829003018186803b158015610d9b57600080fd5b505afa158015610daf573d6000803e3d6000fd5b505050506040513d6020811015610dc557600080fd5b50519050610dd38982615d93565b505b509695505050505050565b6034546040805163cc5738b560e01b815290516000926001600160a01b03169163cc5738b5916004808301926020929190829003018186803b158015610e2557600080fd5b505afa158015610e39573d6000803e3d6000fd5b505050506040513d6020811015610e4f57600080fd5b50516001600160a01b0316331480610ee85750603460009054906101000a90046001600160a01b03166001600160a01b03166376cdb03b6040518163ffffffff1660e01b815260040160206040518083038186803b158015610eb057600080fd5b505afa158015610ec4573d6000803e3d6000fd5b505050506040513d6020811015610eda57600080fd5b50516001600160a01b031633145b610f235760405162461bcd60e51b815260040180806020018281038252603881526020018061657d6038913960400191505060405180910390fd5b60345460408051639895880f60e01b815290516000926001600160a01b031691639895880f916004808301926020929190829003018186803b158015610f6857600080fd5b505afa158015610f7c573d6000803e3d6000fd5b505050506040513d6020811015610f9257600080fd5b505160408051630463749760e51b815290516001600160a01b0390921691638c6e92e091600480820192602092909190829003018186803b158015610fd657600080fd5b505afa158015610fea573d6000803e3d6000fd5b505050506040513d602081101561100057600080fd5b5051905060005b818160ff1610156119345761101c8482611997565b8061102c575061102c8482611956565b1561192c5760345460408051639895880f60e01b815290516000926001600160a01b031691639895880f916004808301926020929190829003018186803b15801561107657600080fd5b505afa15801561108a573d6000803e3d6000fd5b505050506040513d60208110156110a057600080fd5b50516040805163021245b160e01b815260ff8516600482015290516001600160a01b039092169163021245b191602480820192602092909190829003018186803b1580156110ed57600080fd5b505afa158015611101573d6000803e3d6000fd5b505050506040513d602081101561111757600080fd5b50516001600160a01b038087166000908152603360209081526040808320938516835292905290812091925061114b615a2a565b9050603460009054906101000a90046001600160a01b03166001600160a01b03166376cdb03b6040518163ffffffff1660e01b815260040160206040518083038186803b15801561119b57600080fd5b505afa1580156111af573d6000803e3d6000fd5b505050506040513d60208110156111c557600080fd5b505160408051635f85ca4760e01b81526001600160a01b03868116600483015291519190921691635f85ca4791602480830192600092919082900301818387803b15801561121257600080fd5b505af1158015611226573d6000803e3d6000fd5b505050506112348785611997565b156115a957603460009054906101000a90046001600160a01b03166001600160a01b03166376cdb03b6040518163ffffffff1660e01b815260040160206040518083038186803b15801561128757600080fd5b505afa15801561129b573d6000803e3d6000fd5b505050506040513d60208110156112b157600080fd5b50516040805163382d699960e21b81526001600160a01b0386811660048301529151919092169163e0b5a66491602480830192600092919082900301818387803b1580156112fe57600080fd5b505af1158015611312573d6000803e3d6000fd5b505050506000603460009054906101000a90046001600160a01b03166001600160a01b03166376cdb03b6040518163ffffffff1660e01b815260040160206040518083038186803b15801561136657600080fd5b505afa15801561137a573d6000803e3d6000fd5b505050506040513d602081101561139057600080fd5b50516040805163b66b3ce960e01b81526004810186905290516001600160a01b0390921691635a80c49791879173__AccountTokenLib_______________________9163b66b3ce9916024808301926020929190829003018186803b1580156113f857600080fd5b505af415801561140c573d6000803e3d6000fd5b505050506040513d602081101561142257600080fd5b5051604080516001600160e01b031960e086901b1681526001600160a01b0390931660048401526024830191909152516044808301926020929190829003018186803b15801561147157600080fd5b505afa158015611485573d6000803e3d6000fd5b505050506040513d602081101561149b57600080fd5b50516040805163b66b3ce960e01b815260048101869052905191925061152a9173__AccountTokenLib_______________________9163b66b3ce9916024808301926020929190829003018186803b1580156114f657600080fd5b505af415801561150a573d6000803e3d6000fd5b505050506040513d602081101561152057600080fd5b5051858a85615dee565b60408051631496a79760e01b8152600481018590526000602482018190526044820184905260648201859052915173__AccountTokenLib_______________________92631496a7979260848082019391829003018186803b15801561158f57600080fd5b505af41580156115a3573d6000803e3d6000fd5b50505050505b6115b38785611956565b1561192857603460009054906101000a90046001600160a01b03166001600160a01b03166376cdb03b6040518163ffffffff1660e01b815260040160206040518083038186803b15801561160657600080fd5b505afa15801561161a573d6000803e3d6000fd5b505050506040513d602081101561163057600080fd5b50516040805163d2796a9360e01b81526001600160a01b0386811660048301529151919092169163d2796a9391602480830192600092919082900301818387803b15801561167d57600080fd5b505af1158015611691573d6000803e3d6000fd5b505050506000603460009054906101000a90046001600160a01b03166001600160a01b03166376cdb03b6040518163ffffffff1660e01b815260040160206040518083038186803b1580156116e557600080fd5b505afa1580156116f9573d6000803e3d6000fd5b505050506040513d602081101561170f57600080fd5b5051604080516301de24b560e51b81526004810186905290516001600160a01b0390921691632d6cb68191879173__AccountTokenLib_______________________91633bc496a0916024808301926020929190829003018186803b15801561177757600080fd5b505af415801561178b573d6000803e3d6000fd5b505050506040513d60208110156117a157600080fd5b5051604080516001600160e01b031960e086901b1681526001600160a01b0390931660048401526024830191909152516044808301926020929190829003018186803b1580156117f057600080fd5b505afa158015611804573d6000803e3d6000fd5b505050506040513d602081101561181a57600080fd5b5051604080516301de24b560e51b81526004810186905290519192506118a99173__AccountTokenLib_______________________91633bc496a0916024808301926020929190829003018186803b15801561187557600080fd5b505af4158015611889573d6000803e3d6000fd5b505050506040513d602081101561189f57600080fd5b5051858a85615a2e565b604080516327bf70d760e21b8152600481018590526000602482018190526044820184905260648201859052915173__AccountTokenLib_______________________92639efdc35c9260848082019391829003018186803b15801561190e57600080fd5b505af4158015611922573d6000803e3d6000fd5b50505050505b5050505b600101611007565b5050506001600160a01b03166000908152603560205260408120805491905590565b6001600160a01b0382166000908152603360205260408120600181015461198d90600160801b90046001600160801b0316846160cb565b9150505b92915050565b6001600160a01b0382166000908152603360205260408120600181015461198d906001600160801b03168463ffffffff6160cb16565b603460009054906101000a90046001600160a01b03166001600160a01b031663cc5738b56040518163ffffffff1660e01b815260040160206040518083038186803b158015611a1b57600080fd5b505afa158015611a2f573d6000803e3d6000fd5b505050506040513d6020811015611a4557600080fd5b50516001600160a01b0316331480611ade5750603460009054906101000a90046001600160a01b03166001600160a01b03166376cdb03b6040518163ffffffff1660e01b815260040160206040518083038186803b158015611aa657600080fd5b505afa158015611aba573d6000803e3d6000fd5b505050506040513d6020811015611ad057600080fd5b50516001600160a01b031633145b611b195760405162461bcd60e51b815260040180806020018281038252603881526020018061657d6038913960400191505060405180910390fd5b80611b555760405162461bcd60e51b815260040180806020018281038252602b81526020018061643c602b913960400191505060405180910390fd5b611b5e836149b6565b611b995760405162461bcd60e51b815260040180806020018281038252602381526020018061655a6023913960400191505060405180910390fd5b611ba2836149df565b6034546040805163d182f33560e01b81526001600160a01b039283166004820152918516602483015251611d5191611d3c9173__Utils_________________________________9163d182f335916044808301926020929190829003018186803b158015611c0f57600080fd5b505af4158015611c23573d6000803e3d6000fd5b505050506040513d6020811015611c3957600080fd5b505160345460408051639895880f60e01b81529051611d30926001600160a01b031691639895880f916004808301926020929190829003018186803b158015611c8157600080fd5b505afa158015611c95573d6000803e3d6000fd5b505050506040513d6020811015611cab57600080fd5b505160408051636e9ecb0f60e11b81526001600160a01b038a811660048301529151919092169163dd3d961e916024808301926020929190829003018186803b158015611cf757600080fd5b505afa158015611d0b573d6000803e3d6000fd5b505050506040513d6020811015611d2157600080fd5b5051869063ffffffff61612a16565b9063ffffffff61618316565b611d4586612e06565b9063ffffffff6161c516565b1115611d8e5760405162461bcd60e51b81526004018080602001828103825260248152602001806165366024913960400191505060405180910390fd5b6001600160a01b03808416600090815260336020908152604080832093861683529281529082902082516301de24b560e51b8152600481018290529251909273__AccountTokenLib_______________________92633bc496a092602480840193829003018186803b158015611e0357600080fd5b505af4158015611e17573d6000803e3d6000fd5b505050506040513d6020811015611e2d57600080fd5b5051611ec65773__AccountTokenLib_______________________639efdc35c8284670de0b6b3a7640000611e60615a2a565b6040518563ffffffff1660e01b81526004018085815260200184815260200183815260200182815260200194505050505060006040518083038186803b158015611ea957600080fd5b505af4158015611ebd573d6000803e3d6000fd5b50505050612156565b611f508173__AccountTokenLib_______________________633bc496a090916040518263ffffffff1660e01b81526004018082815260200191505060206040518083038186803b158015611f1a57600080fd5b505af4158015611f2e573d6000803e3d6000fd5b505050506040513d6020811015611f4457600080fd5b50518486610a54615a2a565b603454604080516376cdb03b60e01b815290516000926001600160a01b0316916376cdb03b916004808301926020929190829003018186803b158015611f9557600080fd5b505afa158015611fa9573d6000803e3d6000fd5b505050506040513d6020811015611fbf57600080fd5b5051604080516301de24b560e51b81526004810185905290516001600160a01b0390921691632d6cb68191879173__AccountTokenLib_______________________91633bc496a0916024808301926020929190829003018186803b15801561202757600080fd5b505af415801561203b573d6000803e3d6000fd5b505050506040513d602081101561205157600080fd5b5051604080516001600160e01b031960e086901b1681526001600160a01b0390931660048401526024830191909152516044808301926020929190829003018186803b1580156120a057600080fd5b505afa1580156120b4573d6000803e3d6000fd5b505050506040513d60208110156120ca57600080fd5b5051905073__AccountTokenLib_______________________639efdc35c8385846120f3615a2a565b6040518563ffffffff1660e01b81526004018085815260200184815260200183815260200182815260200194505050505060006040518083038186803b15801561213c57600080fd5b505af4158015612150573d6000803e3d6000fd5b50505050505b60345460408051639895880f60e01b815290516000926001600160a01b031691639895880f916004808301926020929190829003018186803b15801561219b57600080fd5b505afa1580156121af573d6000803e3d6000fd5b505050506040513d60208110156121c557600080fd5b5051604080516319b02f4960e21b81526001600160a01b038781166004830152915191909216916366c0bd24916024808301926020929190829003018186803b15801561221157600080fd5b505afa158015612225573d6000803e3d6000fd5b505050506040513d602081101561223b57600080fd5b50519050612249858261621f565b5050505050565b73c04158f7db6f9c9ffbd5593236a1a3d69f92167c81565b6033602052600090815260409020600101546001600160801b0380821691600160801b90041682565b600e81565b6001600160a01b038083166000908152603360209081526040808320938516835292815282822083516343ae240160e11b81526004810182905293519293909273__AccountTokenLib_______________________9263875c48029260248082019391829003018186803b15801561230d57600080fd5b505af4158015612321573d6000803e3d6000fd5b505050506040513d602081101561233757600080fd5b5051949350505050565b603460009054906101000a90046001600160a01b03166001600160a01b031663cc5738b56040518163ffffffff1660e01b815260040160206040518083038186803b15801561238f57600080fd5b505afa1580156123a3573d6000803e3d6000fd5b505050506040513d60208110156123b957600080fd5b50516001600160a01b03163314806124525750603460009054906101000a90046001600160a01b03166001600160a01b03166376cdb03b6040518163ffffffff1660e01b815260040160206040518083038186803b15801561241a57600080fd5b505afa15801561242e573d6000803e3d6000fd5b505050506040513d602081101561244457600080fd5b50516001600160a01b031633145b61248d5760405162461bcd60e51b815260040180806020018281038252603881526020018061657d6038913960400191505060405180910390fd5b6001600160a01b038084166000908152603360209081526040808320938616835292815290829020825162b0b8a160e01b8152600481018290529251909273__AccountTokenLib_______________________9262b0b8a192602480840193829003018186803b15801561250057600080fd5b505af4158015612514573d6000803e3d6000fd5b505050506040513d602081101561252a57600080fd5b50516126255760345460408051639895880f60e01b815290516000926001600160a01b031691639895880f916004808301926020929190829003018186803b15801561257557600080fd5b505afa158015612589573d6000803e3d6000fd5b505050506040513d602081101561259f57600080fd5b5051604080516319b02f4960e21b81526001600160a01b038781166004830152915191909216916366c0bd24916024808301926020929190829003018186803b1580156125eb57600080fd5b505afa1580156125ff573d6000803e3d6000fd5b505050506040513d602081101561261557600080fd5b505190506126238582616256565b505b8073__AccountTokenLib_______________________63b66b3ce990916040518263ffffffff1660e01b81526004018082815260200191505060206040518083038186803b15801561267657600080fd5b505af415801561268a573d6000803e3d6000fd5b505050506040513d60208110156126a057600080fd5b50516127395773__AccountTokenLib_______________________631496a7978284670de0b6b3a76400006126d3615a2a565b6040518563ffffffff1660e01b81526004018085815260200184815260200183815260200182815260200194505050505060006040518083038186803b15801561271c57600080fd5b505af4158015612730573d6000803e3d6000fd5b505050506129ce565b6127c88173__AccountTokenLib_______________________63b66b3ce990916040518263ffffffff1660e01b81526004018082815260200191505060206040518083038186803b15801561278d57600080fd5b505af41580156127a1573d6000803e3d6000fd5b505050506040513d60208110156127b757600080fd5b505184866127c3615a2a565b615dee565b603454604080516376cdb03b60e01b815290516000926001600160a01b0316916376cdb03b916004808301926020929190829003018186803b15801561280d57600080fd5b505afa158015612821573d6000803e3d6000fd5b505050506040513d602081101561283757600080fd5b50516040805163b66b3ce960e01b81526004810185905290516001600160a01b0390921691635a80c49791879173__AccountTokenLib_______________________9163b66b3ce9916024808301926020929190829003018186803b15801561289f57600080fd5b505af41580156128b3573d6000803e3d6000fd5b505050506040513d60208110156128c957600080fd5b5051604080516001600160e01b031960e086901b1681526001600160a01b0390931660048401526024830191909152516044808301926020929190829003018186803b15801561291857600080fd5b505afa15801561292c573d6000803e3d6000fd5b505050506040513d602081101561294257600080fd5b5051905073__AccountTokenLib_______________________631496a79783858461296b615a2a565b6040518563ffffffff1660e01b81526004018085815260200184815260200183815260200182815260200194505050505060006040518083038186803b1580156129b457600080fd5b505af41580156129c8573d6000803e3d6000fd5b50505050505b50505050565b600080603460009054906101000a90046001600160a01b03166001600160a01b0316639895880f6040518163ffffffff1660e01b815260040160206040518083038186803b158015612a2557600080fd5b505afa158015612a39573d6000803e3d6000fd5b505050506040513d6020811015612a4f57600080fd5b505160408051630463749760e51b815290516001600160a01b0390921691638c6e92e091600480820192602092909190829003018186803b158015612a9357600080fd5b505afa158015612aa7573d6000803e3d6000fd5b505050506040513d6020811015612abd57600080fd5b5051905060005b81811015612dff57612ad68482611997565b15612df75760345460408051639895880f60e01b815290516000926001600160a01b031691639895880f916004808301926020929190829003018186803b158015612b2057600080fd5b505afa158015612b34573d6000803e3d6000fd5b505050506040513d6020811015612b4a57600080fd5b50516040805163021245b160e01b81526004810185905290516001600160a01b039092169163021245b191602480820192602092909190829003018186803b158015612b9557600080fd5b505afa158015612ba9573d6000803e3d6000fd5b505050506040513d6020811015612bbf57600080fd5b50519050670de0b6b3a76400006001600160a01b038216600e14612cd657603460009054906101000a90046001600160a01b03166001600160a01b0316639895880f6040518163ffffffff1660e01b815260040160206040518083038186803b158015612c2b57600080fd5b505afa158015612c3f573d6000803e3d6000fd5b505050506040513d6020811015612c5557600080fd5b505160408051633c2e3e7b60e11b81526001600160a01b0385811660048301529151919092169163785c7cf6916024808301926020929190829003018186803b158015612ca157600080fd5b505afa158015612cb5573d6000803e3d6000fd5b505050506040513d6020811015612ccb57600080fd5b505160ff16600a0a90505b612df2612de582611d30603460009054906101000a90046001600160a01b03166001600160a01b0316639895880f6040518163ffffffff1660e01b815260040160206040518083038186803b158015612d2e57600080fd5b505afa158015612d42573d6000803e3d6000fd5b505050506040513d6020811015612d5857600080fd5b505160408051634af44fff60e11b8152600481018a905290516001600160a01b03909216916395e89ffe91602480820192602092909190829003018186803b158015612da357600080fd5b505afa158015612db7573d6000803e3d6000fd5b505050506040513d6020811015612dcd57600080fd5b5051612dd9878c613218565b9063ffffffff61612a16565b869063ffffffff6161c516565b945050505b600101612ac4565b5050919050565b600080603460009054906101000a90046001600160a01b03166001600160a01b0316639895880f6040518163ffffffff1660e01b815260040160206040518083038186803b158015612e5757600080fd5b505afa158015612e6b573d6000803e3d6000fd5b505050506040513d6020811015612e8157600080fd5b505160408051630463749760e51b815290516001600160a01b0390921691638c6e92e091600480820192602092909190829003018186803b158015612ec557600080fd5b505afa158015612ed9573d6000803e3d6000fd5b505050506040513d6020811015612eef57600080fd5b5051905060005b81811015612dff57612f088482611956565b156132105760345460408051639895880f60e01b815290516000926001600160a01b031691639895880f916004808301926020929190829003018186803b158015612f5257600080fd5b505afa158015612f66573d6000803e3d6000fd5b505050506040513d6020811015612f7c57600080fd5b50516040805163021245b160e01b81526004810185905290516001600160a01b039092169163021245b191602480820192602092909190829003018186803b158015612fc757600080fd5b505afa158015612fdb573d6000803e3d6000fd5b505050506040513d6020811015612ff157600080fd5b50519050670de0b6b3a76400006001600160a01b038216600e1461310857603460009054906101000a90046001600160a01b03166001600160a01b0316639895880f6040518163ffffffff1660e01b815260040160206040518083038186803b15801561305d57600080fd5b505afa158015613071573d6000803e3d6000fd5b505050506040513d602081101561308757600080fd5b505160408051633c2e3e7b60e11b81526001600160a01b0385811660048301529151919092169163785c7cf6916024808301926020929190829003018186803b1580156130d357600080fd5b505afa1580156130e7573d6000803e3d6000fd5b505050506040513d60208110156130fd57600080fd5b505160ff16600a0a90505b61320b612de582611d30603460009054906101000a90046001600160a01b03166001600160a01b0316639895880f6040518163ffffffff1660e01b815260040160206040518083038186803b15801561316057600080fd5b505afa158015613174573d6000803e3d6000fd5b505050506040513d602081101561318a57600080fd5b505160408051634af44fff60e11b8152600481018a905290516001600160a01b03909216916395e89ffe91602480820192602092909190829003018186803b1580156131d557600080fd5b505afa1580156131e9573d6000803e3d6000fd5b505050506040513d60208110156131ff57600080fd5b5051612dd9878c61517d565b945050505b600101612ef6565b6001600160a01b0380821660009081526033602090815260408083209386168352928152828220835162b0b8a160e01b815260048101829052935192939092849273__AccountTokenLib_______________________9262b0b8a19260248083019392829003018186803b15801561328f57600080fd5b505af41580156132a3573d6000803e3d6000fd5b505050506040513d60208110156132b957600080fd5b50516132ca57600092505050611991565b603460009054906101000a90046001600160a01b03166001600160a01b03166376cdb03b6040518163ffffffff1660e01b815260040160206040518083038186803b15801561331857600080fd5b505afa15801561332c573d6000803e3d6000fd5b505050506040513d602081101561334257600080fd5b50516040805163b66b3ce960e01b81526004810185905290516001600160a01b0390921691631ff4443c91889173__AccountTokenLib_______________________9163b66b3ce9916024808301926020929190829003018186803b1580156133aa57600080fd5b505af41580156133be573d6000803e3d6000fd5b505050506040513d60208110156133d457600080fd5b5051604080516001600160e01b031960e086901b1681526001600160a01b0390931660048401526024830191909152516044808301926020929190829003018186803b15801561342357600080fd5b505afa158015613437573d6000803e3d6000fd5b505050506040513d602081101561344d57600080fd5b50516134625750670de0b6b3a76400006136e3565b603454604080516376cdb03b60e01b815290516136e0926001600160a01b0316916376cdb03b916004808301926020929190829003018186803b1580156134a857600080fd5b505afa1580156134bc573d6000803e3d6000fd5b505050506040513d60208110156134d257600080fd5b50516040805163b66b3ce960e01b81526004810186905290516001600160a01b0390921691631ff4443c91899173__AccountTokenLib_______________________9163b66b3ce9916024808301926020929190829003018186803b15801561353a57600080fd5b505af415801561354e573d6000803e3d6000fd5b505050506040513d602081101561356457600080fd5b5051604080516001600160e01b031960e086901b1681526001600160a01b0390931660048401526024830191909152516044808301926020929190829003018186803b1580156135b357600080fd5b505afa1580156135c7573d6000803e3d6000fd5b505050506040513d60208110156135dd57600080fd5b5051603454604080516376cdb03b60e01b81529051611d3092670de0b6b3a7640000926001600160a01b03909116916376cdb03b91600480820192602092909190829003018186803b15801561363257600080fd5b505afa158015613646573d6000803e3d6000fd5b505050506040513d602081101561365c57600080fd5b505160408051637ebff3d560e01b81526001600160a01b038c8116600483015291519190921691637ebff3d5916024808301926020929190829003018186803b1580156136a857600080fd5b505afa1580156136bc573d6000803e3d6000fd5b505050506040513d60208110156136d257600080fd5b50519063ffffffff61612a16565b90505b604080516313d973f760e01b81526004810184905260248101839052905173__AccountTokenLib_______________________916313d973f7916044808301926020929190829003018186803b15801561373c57600080fd5b505af4158015613750573d6000803e3d6000fd5b505050506040513d602081101561376657600080fd5b50519250611991915050565b60356020526000908152604090205481565b600080603460009054906101000a90046001600160a01b03166001600160a01b0316639895880f6040518163ffffffff1660e01b815260040160206040518083038186803b1580156137d557600080fd5b505afa1580156137e9573d6000803e3d6000fd5b505050506040513d60208110156137ff57600080fd5b505160408051630463749760e51b815290516001600160a01b0390921691638c6e92e091600480820192602092909190829003018186803b15801561384357600080fd5b505afa158015613857573d6000803e3d6000fd5b505050506040513d602081101561386d57600080fd5b5051905060005b818160ff161015613a67576138898482611997565b8061389957506138998482611956565b15613a5f5760345460408051639895880f60e01b815290516000926001600160a01b031691639895880f916004808301926020929190829003018186803b1580156138e357600080fd5b505afa1580156138f7573d6000803e3d6000fd5b505050506040513d602081101561390d57600080fd5b50516040805163021245b160e01b815260ff8516600482015290516001600160a01b039092169163021245b191602480820192602092909190829003018186803b15801561395a57600080fd5b505afa15801561396e573d6000803e3d6000fd5b505050506040513d602081101561398457600080fd5b5051603454604080516376cdb03b60e01b815290519293506001600160a01b03909116916376cdb03b91600480820192602092909190829003018186803b1580156139ce57600080fd5b505afa1580156139e2573d6000803e3d6000fd5b505050506040513d60208110156139f857600080fd5b50516040805163378d2c3d60e21b81526001600160a01b0384811660048301529151919092169163de34b0f491602480830192600092919082900301818387803b158015613a4557600080fd5b505af1158015613a59573d6000803e3d6000fd5b50505050505b600101613874565b506034546040805163100c48d360e21b815290516000926001600160a01b031691634031234c916004808301926020929190829003018186803b158015613aad57600080fd5b505afa158015613ac1573d6000803e3d6000fd5b505050506040513d6020811015613ad757600080fd5b505160345460408051634802b7c160e01b815290519293506000926001600160a01b0390921691634802b7c191600480820192602092909190829003018186803b158015613b2457600080fd5b505afa158015613b38573d6000803e3d6000fd5b505050506040513d6020811015613b4e57600080fd5b505190506000613b5d86612e06565b90506000613b6a876129d4565b9050613b7c818563ffffffff61612a16565b613b8d83606463ffffffff61612a16565b118015613bb95750613ba5818463ffffffff61612a16565b613bb683606463ffffffff61612a16565b11155b979650505050505050565b600054610100900460ff1680613bdd5750613bdd6162bc565b80613beb575060005460ff16155b613c265760405162461bcd60e51b815260040180806020018281038252602e815260200180616508602e913960400191505060405180910390fd5b600054610100900460ff16158015613c51576000805460ff1961ff0019909116610100171660011790555b603480546001600160a01b0319166001600160a01b0384161790558015613c7e576000805461ff00191690555b5050565b6220148081565b670de0b6b3a764000081565b6034546040805163cc5738b560e01b815290516000926001600160a01b03169163cc5738b5916004808301926020929190829003018186803b158015613cda57600080fd5b505afa158015613cee573d6000803e3d6000fd5b505050506040513d6020811015613d0457600080fd5b50516001600160a01b0316331480613d9d5750603460009054906101000a90046001600160a01b03166001600160a01b03166376cdb03b6040518163ffffffff1660e01b815260040160206040518083038186803b158015613d6557600080fd5b505afa158015613d79573d6000803e3d6000fd5b505050506040513d6020811015613d8f57600080fd5b50516001600160a01b031633145b613dd85760405162461bcd60e51b815260040180806020018281038252603881526020018061657d6038913960400191505060405180910390fd5b613de28385613218565b821115613e2e576040805162461bcd60e51b815260206004820152601560248201527424b739bab33334b1b4b2b73a103130b630b731b29760591b604482015290519081900360640190fd5b60345460408051639895880f60e01b815290516000926001600160a01b031691639895880f916004808301926020929190829003018186803b158015613e7357600080fd5b505afa158015613e87573d6000803e3d6000fd5b505050506040513d6020811015613e9d57600080fd5b505160408051632418cd4960e21b81526001600160a01b038781166004830152915191909216916390633524916024808301926020929190829003018186803b158015613ee957600080fd5b505afa158015613efd573d6000803e3d6000fd5b505050506040513d6020811015613f1357600080fd5b50519050613f20856149df565b613f2986612e06565b11614127576034546040805163d182f33560e01b81526001600160a01b0392831660048201529186166024830152516140e1916140cc91606491611d309173__Utils_________________________________9163d182f335916044808301926020929190829003018186803b158015613fa257600080fd5b505af4158015613fb6573d6000803e3d6000fd5b505050506040513d6020811015613fcc57600080fd5b505160345460408051639895880f60e01b81529051611d30928992612dd9926001600160a01b0390921691639895880f91600480820192602092909190829003018186803b15801561401d57600080fd5b505afa158015614031573d6000803e3d6000fd5b505050506040513d602081101561404757600080fd5b505160408051636e9ecb0f60e11b81526001600160a01b038f811660048301529151919092169163dd3d961e916024808301926020929190829003018186803b15801561409357600080fd5b505afa1580156140a7573d6000803e3d6000fd5b505050506040513d60208110156140bd57600080fd5b50518b9063ffffffff61612a16565b6140d5876149df565b9063ffffffff6159e116565b6140ea86612e06565b11156141275760405162461bcd60e51b81526004018080602001828103825260268152602001806165b56026913960400191505060405180910390fd5b6001600160a01b0380861660009081526033602090815260408083209388168352928152828220835163b66b3ce960e01b8152600481018290529351909373__AccountTokenLib_______________________9263b66b3ce992602480840193829003018186803b15801561419b57600080fd5b505af41580156141af573d6000803e3d6000fd5b505050506040513d60208110156141c557600080fd5b5051905060006141d3615a2a565b90506141e182888a84615dee565b60008373__AccountTokenLib_______________________62b0b8a190916040518263ffffffff1660e01b81526004018082815260200191505060206040518083038186803b15801561423357600080fd5b505af4158015614247573d6000803e3d6000fd5b505050506040513d602081101561425d57600080fd5b50516040805163b66b3ce960e01b815260048101879052905191925073__AccountTokenLib_______________________9163b66b3ce991602480820192602092909190829003018186803b1580156142b557600080fd5b505af41580156142c9573d6000803e3d6000fd5b505050506040513d60208110156142df57600080fd5b50516143785773__AccountTokenLib_______________________63381cec488589670de0b6b3a7640000614312615a2a565b6040518563ffffffff1660e01b81526004018085815260200184815260200183815260200182815260200194505050505060006040518083038186803b15801561435b57600080fd5b505af415801561436f573d6000803e3d6000fd5b5050505061457e565b603454604080516376cdb03b60e01b815290516000926001600160a01b0316916376cdb03b916004808301926020929190829003018186803b1580156143bd57600080fd5b505afa1580156143d1573d6000803e3d6000fd5b505050506040513d60208110156143e757600080fd5b50516040805163b66b3ce960e01b81526004810188905290516001600160a01b0390921691635a80c497918c9173__AccountTokenLib_______________________9163b66b3ce9916024808301926020929190829003018186803b15801561444f57600080fd5b505af4158015614463573d6000803e3d6000fd5b505050506040513d602081101561447957600080fd5b5051604080516001600160e01b031960e086901b1681526001600160a01b0390931660048401526024830191909152516044808301926020929190829003018186803b1580156144c857600080fd5b505afa1580156144dc573d6000803e3d6000fd5b505050506040513d60208110156144f257600080fd5b5051905073__AccountTokenLib_______________________63381cec48868a8461451b615a2a565b6040518563ffffffff1660e01b81526004018085815260200184815260200183815260200182815260200194505050505060006040518083038186803b15801561456457600080fd5b505af4158015614578573d6000803e3d6000fd5b50505050505b60008473__AccountTokenLib_______________________62b0b8a190916040518263ffffffff1660e01b81526004018082815260200191505060206040518083038186803b1580156145d057600080fd5b505af41580156145e4573d6000803e3d6000fd5b505050506040513d60208110156145fa57600080fd5b50516040805162b0b8a160e01b815260048101889052905191925073__AccountTokenLib_______________________9162b0b8a191602480820192602092909190829003018186803b15801561465057600080fd5b505af4158015614664573d6000803e3d6000fd5b505050506040513d602081101561467a57600080fd5b50516147755760345460408051639895880f60e01b815290516000926001600160a01b031691639895880f916004808301926020929190829003018186803b1580156146c557600080fd5b505afa1580156146d9573d6000803e3d6000fd5b505050506040513d60208110156146ef57600080fd5b5051604080516319b02f4960e21b81526001600160a01b038d81166004830152915191909216916366c0bd24916024808301926020929190829003018186803b15801561473b57600080fd5b505afa15801561474f573d6000803e3d6000fd5b505050506040513d602081101561476557600080fd5b505190506147738b826162c2565b505b60345460408051632fe24e4560e21b815290516000926001600160a01b03169163bf893914916004808301926020929190829003018186803b1580156147ba57600080fd5b505afa1580156147ce573d6000803e3d6000fd5b505050506040513d60208110156147e457600080fd5b50516001600160a01b038c81169116146149205761489a6064611d30603460009054906101000a90046001600160a01b03166001600160a01b031663ace96d0e6040518163ffffffff1660e01b815260040160206040518083038186803b15801561484e57600080fd5b505afa158015614862573d6000803e3d6000fd5b505050506040513d602081101561487857600080fd5b5051612dd961488d888863ffffffff6159e116565b8e9063ffffffff6159e116565b9050614920603460009054906101000a90046001600160a01b03166001600160a01b031663bf8939146040518163ffffffff1660e01b815260040160206040518083038186803b1580156148ed57600080fd5b505afa158015614901573d6000803e3d6000fd5b505050506040513d602081101561491757600080fd5b50518b83612341565b614930898263ffffffff6159e116565b9b9a5050505050505050505050565b6001600160a01b0380831660009081526033602090815260408083209385168352928152828220835163b66b3ce960e01b81526004810182905293519293909273__AccountTokenLib_______________________9263b66b3ce99260248082019391829003018186803b15801561230d57600080fd5b6001600160a01b03166000908152603360205260409020600101546001600160801b0316151590565b6000805b603460009054906101000a90046001600160a01b03166001600160a01b0316639895880f6040518163ffffffff1660e01b815260040160206040518083038186803b158015614a3157600080fd5b505afa158015614a45573d6000803e3d6000fd5b505050506040513d6020811015614a5b57600080fd5b505160408051630463749760e51b815290516001600160a01b0390921691638c6e92e091600480820192602092909190829003018186803b158015614a9f57600080fd5b505afa158015614ab3573d6000803e3d6000fd5b505050506040513d6020811015614ac957600080fd5b505160ff82161015614eed57614adf8382611997565b15614ee55760345460408051639895880f60e01b815290516000926001600160a01b031691639895880f916004808301926020929190829003018186803b158015614b2957600080fd5b505afa158015614b3d573d6000803e3d6000fd5b505050506040513d6020811015614b5357600080fd5b50516040805163021245b160e01b815260ff8516600482015290516001600160a01b039092169163021245b191602480820192602092909190829003018186803b158015614ba057600080fd5b505afa158015614bb4573d6000803e3d6000fd5b505050506040513d6020811015614bca57600080fd5b50519050670de0b6b3a76400006001600160a01b038216600e14614ce157603460009054906101000a90046001600160a01b03166001600160a01b0316639895880f6040518163ffffffff1660e01b815260040160206040518083038186803b158015614c3657600080fd5b505afa158015614c4a573d6000803e3d6000fd5b505050506040513d6020811015614c6057600080fd5b505160408051633c2e3e7b60e11b81526001600160a01b0385811660048301529151919092169163785c7cf6916024808301926020929190829003018186803b158015614cac57600080fd5b505afa158015614cc0573d6000803e3d6000fd5b505050506040513d6020811015614cd657600080fd5b505160ff16600a0a90505b614ee0614ed382611d306064611d30603460009054906101000a90046001600160a01b03166001600160a01b0316639895880f6040518163ffffffff1660e01b815260040160206040518083038186803b158015614d3e57600080fd5b505afa158015614d52573d6000803e3d6000fd5b505050506040513d6020811015614d6857600080fd5b505160408051632418cd4960e21b81526001600160a01b038b81166004830152915191909216916390633524916024808301926020929190829003018186803b158015614db457600080fd5b505afa158015614dc8573d6000803e3d6000fd5b505050506040513d6020811015614dde57600080fd5b505160345460408051639895880f60e01b81529051612dd9926001600160a01b031691639895880f916004808301926020929190829003018186803b158015614e2657600080fd5b505afa158015614e3a573d6000803e3d6000fd5b505050506040513d6020811015614e5057600080fd5b505160408051634af44fff60e11b815260ff8e16600482015290516001600160a01b03909216916395e89ffe91602480820192602092909190829003018186803b158015614e9d57600080fd5b505afa158015614eb1573d6000803e3d6000fd5b505050506040513d6020811015614ec757600080fd5b5051612dd98b8f613218565b859063ffffffff6161c516565b935050505b6001016149e3565b50919050565b6001600160a01b0380831660009081526033602090815260408083209385168352928152828220835163b66b3ce960e01b81526004810182905293519293909273__AccountTokenLib_______________________9263b66b3ce99260248082019391829003018186803b158015614f6a57600080fd5b505af4158015614f7e573d6000803e3d6000fd5b505050506040513d6020811015614f9457600080fd5b5051614fa4576000915050611991565b603454604080516376cdb03b60e01b815290516000926001600160a01b0316916376cdb03b916004808301926020929190829003018186803b158015614fe957600080fd5b505afa158015614ffd573d6000803e3d6000fd5b505050506040513d602081101561501357600080fd5b50516040805163b66b3ce960e01b81526004810185905290516001600160a01b0390921691635a80c49791879173__AccountTokenLib_______________________9163b66b3ce9916024808301926020929190829003018186803b15801561507b57600080fd5b505af415801561508f573d6000803e3d6000fd5b505050506040513d60208110156150a557600080fd5b5051604080516001600160e01b031960e086901b1681526001600160a01b0390931660048401526024830191909152516044808301926020929190829003018186803b1580156150f457600080fd5b505afa158015615108573d6000803e3d6000fd5b505050506040513d602081101561511e57600080fd5b5051604080516328648c6560e11b81526004810185905260248101839052905191925073__AccountTokenLib_______________________916350c918ca91604480820192602092909190829003018186803b15801561373c57600080fd5b6001600160a01b038082166000908152603360209081526040808320938616835292815282822083516343ae240160e11b815260048101829052935192939092849273__AccountTokenLib_______________________9263875c48029260248083019392829003018186803b1580156151f657600080fd5b505af415801561520a573d6000803e3d6000fd5b505050506040513d602081101561522057600080fd5b505161523157600092505050611991565b603460009054906101000a90046001600160a01b03166001600160a01b03166376cdb03b6040518163ffffffff1660e01b815260040160206040518083038186803b15801561527f57600080fd5b505afa158015615293573d6000803e3d6000fd5b505050506040513d60208110156152a957600080fd5b5051604080516301de24b560e51b81526004810185905290516001600160a01b0390921691637aa473d191889173__AccountTokenLib_______________________91633bc496a0916024808301926020929190829003018186803b15801561531157600080fd5b505af4158015615325573d6000803e3d6000fd5b505050506040513d602081101561533b57600080fd5b5051604080516001600160e01b031960e086901b1681526001600160a01b0390931660048401526024830191909152516044808301926020929190829003018186803b15801561538a57600080fd5b505afa15801561539e573d6000803e3d6000fd5b505050506040513d60208110156153b457600080fd5b50516153c95750670de0b6b3a7640000615612565b603454604080516376cdb03b60e01b8152905161560f926001600160a01b0316916376cdb03b916004808301926020929190829003018186803b15801561540f57600080fd5b505afa158015615423573d6000803e3d6000fd5b505050506040513d602081101561543957600080fd5b5051604080516301de24b560e51b81526004810186905290516001600160a01b0390921691637aa473d191899173__AccountTokenLib_______________________91633bc496a0916024808301926020929190829003018186803b1580156154a157600080fd5b505af41580156154b5573d6000803e3d6000fd5b505050506040513d60208110156154cb57600080fd5b5051604080516001600160e01b031960e086901b1681526001600160a01b0390931660048401526024830191909152516044808301926020929190829003018186803b15801561551a57600080fd5b505afa15801561552e573d6000803e3d6000fd5b505050506040513d602081101561554457600080fd5b5051603454604080516376cdb03b60e01b81529051611d3092670de0b6b3a7640000926001600160a01b03909116916376cdb03b91600480820192602092909190829003018186803b15801561559957600080fd5b505afa1580156155ad573d6000803e3d6000fd5b505050506040513d60208110156155c357600080fd5b505160408051630b57444360e01b81526001600160a01b038c8116600483015291519190921691630b574443916024808301926020929190829003018186803b1580156136a857600080fd5b90505b6040805163e8f2267360e01b81526004810184905260248101839052905173__AccountTokenLib_______________________9163e8f22673916044808301926020929190829003018186803b15801561373c57600080fd5b6001600160a01b038083166000908152603360209081526040808320938516835292815282822083516301de24b560e51b81526004810182905293519293909273__AccountTokenLib_______________________92633bc496a09260248082019391829003018186803b15801561230d57600080fd5b6001600160a01b038083166000908152603360209081526040808320938516835292815282822083516301de24b560e51b81526004810182905293519293909273__AccountTokenLib_______________________92633bc496a09260248082019391829003018186803b15801561575957600080fd5b505af415801561576d573d6000803e3d6000fd5b505050506040513d602081101561578357600080fd5b5051615793576000915050611991565b603454604080516376cdb03b60e01b815290516000926001600160a01b0316916376cdb03b916004808301926020929190829003018186803b1580156157d857600080fd5b505afa1580156157ec573d6000803e3d6000fd5b505050506040513d602081101561580257600080fd5b5051604080516301de24b560e51b81526004810185905290516001600160a01b0390921691632d6cb68191879173__AccountTokenLib_______________________91633bc496a0916024808301926020929190829003018186803b15801561586a57600080fd5b505af415801561587e573d6000803e3d6000fd5b505050506040513d602081101561589457600080fd5b5051604080516001600160e01b031960e086901b1681526001600160a01b0390931660048401526024830191909152516044808301926020929190829003018186803b1580156158e357600080fd5b505afa1580156158f7573d6000803e3d6000fd5b505050506040513d602081101561590d57600080fd5b5051604080516315d7fef560e01b81526004810185905260248101839052905191925073__AccountTokenLib_______________________916315d7fef591604480820192602092909190829003018186803b15801561373c57600080fd5b6001600160a01b0380831660009081526033602090815260408083209385168352928152828220835162b0b8a160e01b81526004810182905293519293909273__AccountTokenLib_______________________9262b0b8a19260248082019391829003018186803b15801561230d57600080fd5b6000615a2383836040518060400160405280601e81526020017f536166654d6174683a207375627472616374696f6e206f766572666c6f7700008152506162f8565b9392505050565b4390565b6000615c24603460009054906101000a90046001600160a01b03166001600160a01b03166376cdb03b6040518163ffffffff1660e01b815260040160206040518083038186803b158015615a8157600080fd5b505afa158015615a95573d6000803e3d6000fd5b505050506040513d6020811015615aab57600080fd5b505160408051630301e11160e11b81526001600160a01b038881166004830152602482018a905291519190921691630603c222916044808301926020929190829003018186803b158015615afe57600080fd5b505afa158015615b12573d6000803e3d6000fd5b505050506040513d6020811015615b2857600080fd5b5051603454604080516376cdb03b60e01b815290516001600160a01b03909216916376cdb03b91600480820192602092909190829003018186803b158015615b6f57600080fd5b505afa158015615b83573d6000803e3d6000fd5b505050506040513d6020811015615b9957600080fd5b505160408051630301e11160e11b81526001600160a01b0389811660048301526024820188905291519190921691630603c222916044808301926020929190829003018186803b158015615bec57600080fd5b505afa158015615c00573d6000803e3d6000fd5b505050506040513d6020811015615c1657600080fd5b50519063ffffffff6159e116565b90506000615d43603460009054906101000a90046001600160a01b03166001600160a01b03166376cdb03b6040518163ffffffff1660e01b815260040160206040518083038186803b158015615c7957600080fd5b505afa158015615c8d573d6000803e3d6000fd5b505050506040513d6020811015615ca357600080fd5b50516001600160a01b0316637aa473d187615cbc615a2a565b6040518363ffffffff1660e01b815260040180836001600160a01b03166001600160a01b031681526020018281526020019250505060206040518083038186803b158015615d0957600080fd5b505afa158015615d1d573d6000803e3d6000fd5b505050506040513d6020811015615d3357600080fd5b5051611d3084612dd9898961517d565b6001600160a01b038516600090815260356020526040902054909150615d6f908263ffffffff6161c516565b6001600160a01b039094166000908152603560205260409020939093555050505050565b6001600160a01b03821660009081526033602052604090206001810154615dca90600160801b90046001600160801b03168361638f565b600190910180546001600160801b03928316600160801b0292169190911790555050565b6000615fac603460009054906101000a90046001600160a01b03166001600160a01b03166376cdb03b6040518163ffffffff1660e01b815260040160206040518083038186803b158015615e4157600080fd5b505afa158015615e55573d6000803e3d6000fd5b505050506040513d6020811015615e6b57600080fd5b505160408051630566973160e41b81526001600160a01b038881166004830152602482018a9052915191909216916356697310916044808301926020929190829003018186803b158015615ebe57600080fd5b505afa158015615ed2573d6000803e3d6000fd5b505050506040513d6020811015615ee857600080fd5b5051603454604080516376cdb03b60e01b815290516001600160a01b03909216916376cdb03b91600480820192602092909190829003018186803b158015615f2f57600080fd5b505afa158015615f43573d6000803e3d6000fd5b505050506040513d6020811015615f5957600080fd5b505160408051630566973160e41b81526001600160a01b03898116600483015260248201889052915191909216916356697310916044808301926020929190829003018186803b158015615bec57600080fd5b90506000615d43603460009054906101000a90046001600160a01b03166001600160a01b03166376cdb03b6040518163ffffffff1660e01b815260040160206040518083038186803b15801561600157600080fd5b505afa158015616015573d6000803e3d6000fd5b505050506040513d602081101561602b57600080fd5b50516001600160a01b0316631ff4443c87616044615a2a565b6040518363ffffffff1660e01b815260040180836001600160a01b03166001600160a01b031681526020018281526020019250505060206040518083038186803b15801561609157600080fd5b505afa1580156160a5573d6000803e3d6000fd5b505050506040513d60208110156160bb57600080fd5b5051611d3084612dd98989613218565b600060808260ff161061610f5760405162461bcd60e51b81526004018080602001828103825260248152602001806164c36024913960400191505060405180910390fd5b50600160ff82161b82166001600160801b0316151592915050565b60008261613957506000611991565b8282028284828161614657fe5b0414615a235760405162461bcd60e51b81526004018080602001828103825260218152602001806164e76021913960400191505060405180910390fd5b6000615a2383836040518060400160405280601a81526020017f536166654d6174683a206469766973696f6e206279207a65726f0000000000008152506163b7565b600082820183811015615a23576040805162461bcd60e51b815260206004820152601b60248201527f536166654d6174683a206164646974696f6e206f766572666c6f770000000000604482015290519081900360640190fd5b6001600160a01b03821660009081526033602052604090206001810154615dca90600160801b90046001600160801b03168361641c565b6001600160a01b0382166000908152603360205260409020600181015461628c906001600160801b03168363ffffffff61641c16565b60019190910180546fffffffffffffffffffffffffffffffff19166001600160801b039092169190911790555050565b303b1590565b6001600160a01b0382166000908152603360205260409020600181015461628c906001600160801b03168363ffffffff61638f16565b600081848411156163875760405162461bcd60e51b81526004018080602001828103825283818151815260200191508051906020019080838360005b8381101561634c578181015183820152602001616334565b50505050905090810190601f1680156163795780820380516001836020036101000a031916815260200191505b509250505060405180910390fd5b505050900390565b600061639b83836160cb565b156163b05750600160ff82161b198216611991565b5090919050565b600081836164065760405162461bcd60e51b815260206004820181815283516024840152835190928392604490910191908501908083836000831561634c578181015183820152602001616334565b50600083858161641257fe5b0495945050505050565b600061642883836160cb565b6163b05750600160ff82161b821761199156fe426f72726f77207a65726f20616d6f756e74206f6620746f6b656e206973206e6f7420616c6c6f7765642e546f6b656e20426f72726f775072696e636970616c206d7573742062652067726561746572207468616e20302e20546f206465706f7369742062616c616e63652c20706c6561736520757365206465706f73697420627574746f6e2e496e646578206f7574206f662072616e676520666f7220626974206f7065726174696f6e536166654d6174683a206d756c7469706c69636174696f6e206f766572666c6f77436f6e747261637420696e7374616e63652068617320616c7265616479206265656e20696e697469616c697a6564496e73756666696369656e7420636f6c6c61746572616c207768656e20626f72726f772e546865207573657220646f65736e2774206861766520616e79206465706f736974732e4f6e6c7920617574686f72697a656420746f2063616c6c2066726f6d20446546696e657220696e7465726e616c20636f6e7472616374732e496e73756666696369656e7420636f6c6c61746572616c207768656e2077697468647261772ea265627a7a72315820ad4388c23b1a4aef5a76d0f6383154b977f4f458465edd68bcab02b54b5e6ffb64736f6c634300050e0032",
  "source": "pragma solidity 0.5.14;\n\nimport \"./lib/AccountTokenLib.sol\";\nimport \"./lib/BitmapLib.sol\";\nimport \"./lib/Utils.sol\";\nimport \"./config/Constant.sol\";\nimport \"./config/GlobalConfig.sol\";\nimport \"openzeppelin-solidity/contracts/math/SafeMath.sol\";\nimport \"@openzeppelin/upgrades/contracts/Initializable.sol\";\nimport \"@nomiclabs/buidler/console.sol\";\n\ncontract Accounts is Constant, Initializable{\n    using AccountTokenLib for AccountTokenLib.TokenInfo;\n    using BitmapLib for uint128;\n    using SafeMath for uint256;\n\n    mapping(address => Account) public accounts;\n    GlobalConfig globalConfig;\n    mapping(address => uint) public FINAmount;\n\n    modifier onlyAuthorized() {\n        require(msg.sender == address(globalConfig.savingAccount()) || msg.sender == address(globalConfig.bank()),\n            \"Only authorized to call from DeFiner internal contracts.\");\n        _;\n    }\n\n    struct Account {\n        // Note, it's best practice to use functions minusAmount, addAmount, totalAmount\n        // to operate tokenInfos instead of changing it directly.\n        mapping(address => AccountTokenLib.TokenInfo) tokenInfos;\n        uint128 depositBitmap;\n        uint128 borrowBitmap;\n    }\n\n    /**\n     * Initialize the Accounts\n     * @param _globalConfig the global configuration contract\n     */\n    function initialize(\n        GlobalConfig _globalConfig\n    ) public initializer {\n        globalConfig = _globalConfig;\n    }\n\n    /**\n     * Check if the user has deposit for any tokens\n     * @param _account address of the user\n     * @return true if the user has positive deposit balance\n     */\n    function isUserHasAnyDeposits(address _account) public view returns (bool) {\n        Account storage account = accounts[_account];\n        return account.depositBitmap > 0;\n    }\n\n    /**\n     * Check if the user has deposit for a token\n     * @param _account address of the user\n     * @param _index index of the token\n     * @return true if the user has positive deposit balance for the token\n     */\n    function isUserHasDeposits(address _account, uint8 _index) public view returns (bool) {\n        Account storage account = accounts[_account];\n        return account.depositBitmap.isBitSet(_index);\n    }\n\n    /**\n     * Check if the user has borrowed a token\n     * @param _account address of the user\n     * @param _index index of the token\n     * @return true if the user has borrowed the token\n     */\n    function isUserHasBorrows(address _account, uint8 _index) public view returns (bool) {\n        Account storage account = accounts[_account];\n        return account.borrowBitmap.isBitSet(_index);\n    }\n\n    /**\n     * Set the deposit bitmap for a token.\n     * @param _account address of the user\n     * @param _index index of the token\n     */\n    function setInDepositBitmap(address _account, uint8 _index) internal {\n        Account storage account = accounts[_account];\n        account.depositBitmap = account.depositBitmap.setBit(_index);\n    }\n\n    /**\n     * Unset the deposit bitmap for a token\n     * @param _account address of the user\n     * @param _index index of the token\n     */\n    function unsetFromDepositBitmap(address _account, uint8 _index) internal {\n        Account storage account = accounts[_account];\n        account.depositBitmap = account.depositBitmap.unsetBit(_index);\n    }\n\n    /**\n     * Set the borrow bitmap for a token.\n     * @param _account address of the user\n     * @param _index index of the token\n     */\n    function setInBorrowBitmap(address _account, uint8 _index) internal {\n        Account storage account = accounts[_account];\n        account.borrowBitmap = account.borrowBitmap.setBit(_index);\n    }\n\n    /**\n     * Unset the borrow bitmap for a token\n     * @param _account address of the user\n     * @param _index index of the token\n     */\n    function unsetFromBorrowBitmap(address _account, uint8 _index) internal {\n        Account storage account = accounts[_account];\n        account.borrowBitmap = account.borrowBitmap.unsetBit(_index);\n    }\n\n    function getDepositPrincipal(address _accountAddr, address _token) public view returns(uint256) {\n        AccountTokenLib.TokenInfo storage tokenInfo = accounts[_accountAddr].tokenInfos[_token];\n        return tokenInfo.getDepositPrincipal();\n    }\n\n    function getBorrowPrincipal(address _accountAddr, address _token) public view returns(uint256) {\n        AccountTokenLib.TokenInfo storage tokenInfo = accounts[_accountAddr].tokenInfos[_token];\n        return tokenInfo.getBorrowPrincipal();\n    }\n\n    function getLastDepositBlock(address _accountAddr, address _token) public view returns(uint256) {\n        AccountTokenLib.TokenInfo storage tokenInfo = accounts[_accountAddr].tokenInfos[_token];\n        return tokenInfo.getLastDepositBlock();\n    }\n\n    function getLastBorrowBlock(address _accountAddr, address _token) public view returns(uint256) {\n        AccountTokenLib.TokenInfo storage tokenInfo = accounts[_accountAddr].tokenInfos[_token];\n        return tokenInfo.getLastBorrowBlock();\n    }\n\n    /**\n     * Get deposit interest of an account for a specific token\n     * @param _account account address\n     * @param _token token address\n     * @dev The deposit interest may not have been updated in AccountTokenLib, so we need to explicited calcuate it.\n     */\n    function getDepositInterest(address _account, address _token) public view returns(uint256) {\n        AccountTokenLib.TokenInfo storage tokenInfo = accounts[_account].tokenInfos[_token];\n        // If the account has never deposited the token, return 0.\n        if (tokenInfo.getLastDepositBlock() == 0)\n            return 0;\n        else {\n            // As the last deposit block exists, the block is also a check point on index curve.\n            uint256 accruedRate = globalConfig.bank().getDepositAccruedRate(_token, tokenInfo.getLastDepositBlock());\n            return tokenInfo.calculateDepositInterest(accruedRate);\n        }\n    }\n\n    function getBorrowInterest(address _accountAddr, address _token) public view returns(uint256) {\n        AccountTokenLib.TokenInfo storage tokenInfo = accounts[_accountAddr].tokenInfos[_token];\n        // If the account has never borrowed the token, return 0\n        if (tokenInfo.getLastBorrowBlock() == 0)\n            return 0;\n        else {\n            // As the last borrow block exists, the block is also a check point on index curve.\n            uint256 accruedRate = globalConfig.bank().getBorrowAccruedRate(_token, tokenInfo.getLastBorrowBlock());\n            return tokenInfo.calculateBorrowInterest(accruedRate);\n        }\n    }\n\n    function borrow(address _accountAddr, address _token, uint256 _amount) external onlyAuthorized {\n        require(_amount != 0, \"Borrow zero amount of token is not allowed.\");\n        require(isUserHasAnyDeposits(_accountAddr), \"The user doesn't have any deposits.\");\n        require(\n            getBorrowETH(_accountAddr).add(\n                _amount.mul(globalConfig.tokenInfoRegistry().priceFromAddress(_token))\n                .div(Utils.getDivisor(address(globalConfig), _token))\n            )\n            <= getBorrowPower(_accountAddr), \"Insufficient collateral when borrow.\");\n\n        AccountTokenLib.TokenInfo storage tokenInfo = accounts[_accountAddr].tokenInfos[_token];\n\n        if(tokenInfo.getLastBorrowBlock() == 0)\n            tokenInfo.borrow(_amount, INT_UNIT, getBlockNumber());\n        else {\n            calculateBorrowFIN(tokenInfo.getLastBorrowBlock(), _token, _accountAddr, getBlockNumber());\n            uint256 accruedRate = globalConfig.bank().getBorrowAccruedRate(_token, tokenInfo.getLastBorrowBlock());\n            // Update the token principla and interest\n            tokenInfo.borrow(_amount, accruedRate, getBlockNumber());\n        }\n\n        // Since we have checked that borrow amount is larget than zero. We can set the borrow\n        // map directly without checking the borrow balance.\n        uint8 tokenIndex = globalConfig.tokenInfoRegistry().getTokenIndex(_token);\n        setInBorrowBitmap(_accountAddr, tokenIndex);\n    }\n\n    /**\n     * Update token info for withdraw. The interest will be withdrawn with higher priority.\n     */\n    function withdraw(address _accountAddr, address _token, uint256 _amount) external onlyAuthorized returns(uint256) {\n\n        // Check if withdraw amount is less than user's balance\n        require(_amount <= getDepositBalanceCurrent(_token, _accountAddr), \"Insufficient balance.\");\n        uint256 borrowLTV = globalConfig.tokenInfoRegistry().getBorrowLTV(_token);\n\n        // This if condition is to deal with the withdraw of collateral token in liquidation.\n        // As the amount if borrowed asset is already large than the borrow power, we don't\n        // have to check the condition here.\n        if(getBorrowETH(_accountAddr) <= getBorrowPower(_accountAddr))\n            require(\n                getBorrowETH(_accountAddr) <= getBorrowPower(_accountAddr).sub(\n                    _amount.mul(globalConfig.tokenInfoRegistry().priceFromAddress(_token))\n                    .mul(borrowLTV).div(Utils.getDivisor(address(globalConfig), _token)).div(100)\n                ), \"Insufficient collateral when withdraw.\");\n\n        AccountTokenLib.TokenInfo storage tokenInfo = accounts[_accountAddr].tokenInfos[_token];\n        uint lastBlock = tokenInfo.getLastDepositBlock();\n        uint currentBlock = getBlockNumber();\n        calculateDepositFIN(lastBlock, _token, _accountAddr, currentBlock);\n\n        uint256 principalBeforeWithdraw = tokenInfo.getDepositPrincipal();\n\n        if (tokenInfo.getLastDepositBlock() == 0)\n            tokenInfo.withdraw(_amount, INT_UNIT, getBlockNumber());\n        else {\n            // As the last deposit block exists, the block is also a check point on index curve.\n            uint256 accruedRate = globalConfig.bank().getDepositAccruedRate(_token, tokenInfo.getLastDepositBlock());\n            tokenInfo.withdraw(_amount, accruedRate, getBlockNumber());\n        }\n\n        uint256 principalAfterWithdraw = tokenInfo.getDepositPrincipal();\n        if(tokenInfo.getDepositPrincipal() == 0) {\n            uint8 tokenIndex = globalConfig.tokenInfoRegistry().getTokenIndex(_token);\n            unsetFromDepositBitmap(_accountAddr, tokenIndex);\n        }\n\n        uint commission = 0;\n        if (_accountAddr != globalConfig.deFinerCommunityFund()) {\n            // DeFiner takes 10% commission on the interest a user earn\n            commission = _amount.sub(principalBeforeWithdraw.sub(principalAfterWithdraw)).mul(globalConfig.deFinerRate()).div(100);\n            deposit(globalConfig.deFinerCommunityFund(), _token, commission);\n        }\n\n        return _amount.sub(commission);\n    }\n\n    /**\n     * Update token info for deposit\n     */\n    function deposit(address _accountAddr, address _token, uint256 _amount) public onlyAuthorized {\n        AccountTokenLib.TokenInfo storage tokenInfo = accounts[_accountAddr].tokenInfos[_token];\n        if(tokenInfo.getDepositPrincipal() == 0) {\n            uint8 tokenIndex = globalConfig.tokenInfoRegistry().getTokenIndex(_token);\n            setInDepositBitmap(_accountAddr, tokenIndex);\n        }\n\n        if(tokenInfo.getLastDepositBlock() == 0)\n            tokenInfo.deposit(_amount, INT_UNIT, getBlockNumber());\n        else {\n            calculateDepositFIN(tokenInfo.getLastDepositBlock(), _token, _accountAddr, getBlockNumber());\n            uint accruedRate = globalConfig.bank().getDepositAccruedRate(_token, tokenInfo.getLastDepositBlock());\n            tokenInfo.deposit(_amount, accruedRate, getBlockNumber());\n        }\n    }\n\n    function repay(address _accountAddr, address _token, uint256 _amount) external onlyAuthorized returns(uint256){\n        // Update tokenInfo\n        uint256 amountOwedWithInterest = getBorrowBalanceCurrent(_token, _accountAddr);\n        uint amount = _amount > amountOwedWithInterest ? amountOwedWithInterest : _amount;\n        uint256 remain =  _amount > amountOwedWithInterest ? _amount.sub(amountOwedWithInterest) : 0;\n        AccountTokenLib.TokenInfo storage tokenInfo = accounts[_accountAddr].tokenInfos[_token];\n        // Sanity check\n        require(tokenInfo.getBorrowPrincipal() > 0, \"Token BorrowPrincipal must be greater than 0. To deposit balance, please use deposit button.\");\n        if(tokenInfo.getLastBorrowBlock() == 0)\n            tokenInfo.repay(amount, INT_UNIT, getBlockNumber());\n        else {\n            calculateBorrowFIN(tokenInfo.getLastBorrowBlock(), _token, _accountAddr, getBlockNumber());\n            uint accruedRate = globalConfig.bank().getBorrowAccruedRate(_token, tokenInfo.getLastBorrowBlock());\n            tokenInfo.repay(amount, accruedRate, getBlockNumber());\n        }\n\n        if(tokenInfo.getBorrowPrincipal() == 0) {\n            uint8 tokenIndex = globalConfig.tokenInfoRegistry().getTokenIndex(_token);\n            unsetFromBorrowBitmap(_accountAddr, tokenIndex);\n        }\n        return remain;\n    }\n\n    // sichaoy: switch the order of the parameters\n    function getDepositBalanceCurrent(\n        address _token,\n        address _accountAddr\n    ) public view returns (uint256 depositBalance) {\n        AccountTokenLib.TokenInfo storage tokenInfo = accounts[_accountAddr].tokenInfos[_token];\n        uint accruedRate;\n        if(tokenInfo.getDepositPrincipal() == 0) {\n            return 0;\n        } else {\n            if(globalConfig.bank().depositeRateIndex(_token, tokenInfo.getLastDepositBlock()) == 0) {\n                accruedRate = INT_UNIT;\n            } else {\n                accruedRate = globalConfig.bank().depositRateIndexNow(_token)\n                .mul(INT_UNIT)\n                .div(globalConfig.bank().depositeRateIndex(_token, tokenInfo.getLastDepositBlock()));\n            }\n            return tokenInfo.getDepositBalance(accruedRate);\n        }\n    }\n\n    /**\n     * Get current borrow balance of a token\n     * @param _token token address\n     * @dev This is an estimation. Add a new checkpoint first, if you want to derive the exact balance.\n     */\n    // sichaoy: What's the diff of getBorrowBalance with getBorrowAcruedRate?\n    function getBorrowBalanceCurrent(\n        address _token,\n        address _accountAddr\n    ) public view returns (uint256 borrowBalance) {\n        AccountTokenLib.TokenInfo storage tokenInfo = accounts[_accountAddr].tokenInfos[_token];\n        uint accruedRate;\n        if(tokenInfo.getBorrowPrincipal() == 0) {\n            return 0;\n        } else {\n            if(globalConfig.bank().borrowRateIndex(_token, tokenInfo.getLastBorrowBlock()) == 0) {\n                accruedRate = INT_UNIT;\n            } else {\n                accruedRate = globalConfig.bank().borrowRateIndexNow(_token)\n                .mul(INT_UNIT)\n                .div(globalConfig.bank().borrowRateIndex(_token, tokenInfo.getLastBorrowBlock()));\n            }\n            return tokenInfo.getBorrowBalance(accruedRate);\n        }\n    }\n\n    /**\n     * Calculate an account's borrow power based on token's LTV\n     */\n    function getBorrowPower(address _borrower) public view returns (uint256 power) {\n        for(uint8 i = 0; i < globalConfig.tokenInfoRegistry().getCoinLength(); i++) {\n            if (isUserHasDeposits(_borrower, i)) {\n                address token = globalConfig.tokenInfoRegistry().addressFromIndex(i);\n                uint divisor = INT_UNIT;\n                if(token != ETH_ADDR) {\n                    divisor = 10**uint256(globalConfig.tokenInfoRegistry().getTokenDecimals(token));\n                }\n                // globalConfig.bank().newRateIndexCheckpoint(token);\n                power = power.add(getDepositBalanceCurrent(token, _borrower)\n                    .mul(globalConfig.tokenInfoRegistry().priceFromIndex(i))\n                    .mul(globalConfig.tokenInfoRegistry().getBorrowLTV(token)).div(100)\n                    .div(divisor)\n                );\n            }\n        }\n        return power;\n    }\n\n    /**\n     * Get current deposit balance of a token\n     * @dev This is an estimation. Add a new checkpoint first, if you want to derive the exact balance.\n     */\n    function getDepositETH(\n        address _accountAddr\n    ) public view returns (uint256 depositETH) {\n        uint tokenNum = globalConfig.tokenInfoRegistry().getCoinLength();\n        //console.log(\"tokenNum\", tokenNum);\n        for(uint i = 0; i < tokenNum; i++) {\n            if(isUserHasDeposits(_accountAddr, uint8(i))) {\n                address tokenAddress = globalConfig.tokenInfoRegistry().addressFromIndex(i);\n                uint divisor = INT_UNIT;\n                if(tokenAddress != ETH_ADDR) {\n                    divisor = 10**uint256(globalConfig.tokenInfoRegistry().getTokenDecimals(tokenAddress));\n                }\n                depositETH = depositETH.add(getDepositBalanceCurrent(tokenAddress, _accountAddr).mul(globalConfig.tokenInfoRegistry().priceFromIndex(i)).div(divisor));\n            }\n        }\n        return depositETH;\n    }\n\n    /**\n     * Get borrowed balance of a token in the uint of Wei\n     */\n    // sichaoy: change name to getTotalBorrowInETH()\n    function getBorrowETH(\n        address _accountAddr\n    ) public view returns (uint256 borrowETH) {\n        uint tokenNum = globalConfig.tokenInfoRegistry().getCoinLength();\n        //console.log(\"tokenNum\", tokenNum);\n        for(uint i = 0; i < tokenNum; i++) {\n            if(isUserHasBorrows(_accountAddr, uint8(i))) {\n                address tokenAddress = globalConfig.tokenInfoRegistry().addressFromIndex(i);\n                uint divisor = INT_UNIT;\n                if(tokenAddress != ETH_ADDR) {\n                    divisor = 10 ** uint256(globalConfig.tokenInfoRegistry().getTokenDecimals(tokenAddress));\n                }\n                borrowETH = borrowETH.add(getBorrowBalanceCurrent(tokenAddress, _accountAddr).mul(globalConfig.tokenInfoRegistry().priceFromIndex(i)).div(divisor));\n            }\n        }\n        return borrowETH;\n    }\n\n    /**\n\t * Check if the account is liquidatable\n     * @param _borrower borrower's account\n     * @return true if the account is liquidatable\n\t */\n    function isAccountLiquidatable(address _borrower) external returns (bool) {\n\n        // Add new rate check points for all the collateral tokens from borrower in order to\n        // have accurate calculation of liquidation oppotunites.\n        uint tokenNum = globalConfig.tokenInfoRegistry().getCoinLength();\n        //console.log(\"tokenNum\", tokenNum);\n        for(uint8 i = 0; i < tokenNum; i++) {\n            if (isUserHasDeposits(_borrower, i) || isUserHasBorrows(_borrower, i)) {\n                address token = globalConfig.tokenInfoRegistry().addressFromIndex(i);\n                globalConfig.bank().newRateIndexCheckpoint(token);\n            }\n        }\n\n        uint256 liquidationThreshold = globalConfig.liquidationThreshold();\n        uint256 liquidationDiscountRatio = globalConfig.liquidationDiscountRatio();\n\n        uint256 totalBorrow = getBorrowETH(_borrower);\n        uint256 totalCollateral = getDepositETH(_borrower);\n\n        // The value of discounted collateral should be never less than the borrow amount.\n        // We assume this will never happen as the market will not drop extreamly fast so that\n        // the LTV changes from 85% to 95%, an 10% drop within one block.\n        // require(\n        //     totalBorrow.mul(100) <= totalCollateral.mul(liquidationDiscountRatio),\n        //     \"Collateral is not sufficient to be liquidated.\"\n        // );\n\n        // It is required that LTV is larger than LIQUIDATE_THREADHOLD for liquidation\n        // return totalBorrow.mul(100) > totalCollateral.mul(liquidationThreshold);\n        return totalBorrow.mul(100) > totalCollateral.mul(liquidationThreshold) && totalBorrow.mul(100) <= totalCollateral.mul(liquidationDiscountRatio);\n    }\n\n    struct LiquidationVars {\n        uint256 totalBorrow;\n        uint256 totalCollateral;\n        uint256 msgTotalBorrow;\n        uint256 msgTotalCollateral;\n\n        uint256 targetTokenBalance;\n        uint256 liquidationDebtValue;\n        uint256 liquidationThreshold;\n        uint256 liquidationDiscountRatio;\n        uint256 borrowLTV;\n        uint256 paymentOfLiquidationValue;\n    }\n    /**\n     * Get current block number\n     * @return the current block number\n     */\n    function getBlockNumber() private view returns (uint) {\n        return block.number;\n    }\n\n    /**\n     * An account claim all mined FIN token.\n     * @dev If the FIN mining index point doesn't exist, we have to calculate the FIN amount \n     * accurately. So the user can withdraw all available FIN tokens.\n     */\n    function claim(address _account) public onlyAuthorized returns(uint){\n        uint256 coinLength = globalConfig.tokenInfoRegistry().getCoinLength();\n        for(uint8 i = 0; i < coinLength; i++) {\n            if (isUserHasDeposits(_account, i) || isUserHasBorrows(_account, i)) {\n                address token = globalConfig.tokenInfoRegistry().addressFromIndex(i);\n                AccountTokenLib.TokenInfo storage tokenInfo = accounts[_account].tokenInfos[token];\n                uint256 currentBlock = getBlockNumber();\n                globalConfig.bank().updateMining(token);\n\n                if (isUserHasDeposits(_account, i)) {\n                    globalConfig.bank().updateDepositFINIndex(token);\n                    uint256 accruedRate = globalConfig.bank().getDepositAccruedRate(token, tokenInfo.getLastDepositBlock());\n                    calculateDepositFIN(tokenInfo.getLastDepositBlock(), token, _account, currentBlock);\n                    tokenInfo.deposit(0, accruedRate, currentBlock);\n                }\n\n                if (isUserHasBorrows(_account, i)) {\n                    globalConfig.bank().updateBorrowFINIndex(token);\n                    uint256 accruedRate = globalConfig.bank().getBorrowAccruedRate(token, tokenInfo.getLastBorrowBlock());\n                    calculateBorrowFIN(tokenInfo.getLastBorrowBlock(), token, _account, currentBlock);\n                    tokenInfo.borrow(0, accruedRate, currentBlock);\n                }\n            }\n        }\n        uint _FINAmount = FINAmount[_account];\n        FINAmount[_account] = 0;\n        return _FINAmount;\n    }\n\n    /**\n     * Accumulate the amount FIN mined by depositing between _lastBlock and _currentBlock\n     */\n    function calculateDepositFIN(uint256 _lastBlock, address _token, address _accountAddr, uint _currentBlock) internal {\n        uint indexDifference = globalConfig.bank().depositFINRateIndex(_token, _currentBlock)\n                                .sub(globalConfig.bank().depositFINRateIndex(_token, _lastBlock));\n        uint getFIN = getDepositBalanceCurrent(_token, _accountAddr)\n                        .mul(indexDifference)\n                        .div(globalConfig.bank().depositeRateIndex(_token, getBlockNumber()));\n        FINAmount[_accountAddr] = FINAmount[_accountAddr].add(getFIN);\n    }\n\n    /**\n     * Accumulate the amount FIN mined by borrowing between _lastBlock and _currentBlock\n     */\n    function calculateBorrowFIN(uint256 _lastBlock, address _token, address _accountAddr, uint _currentBlock) internal {\n        uint indexDifference = globalConfig.bank().borrowFINRateIndex(_token, _currentBlock)\n                                .sub(globalConfig.bank().borrowFINRateIndex(_token, _lastBlock));\n        uint getFIN = getBorrowBalanceCurrent(_token, _accountAddr)\n                        .mul(indexDifference)\n                        .div(globalConfig.bank().borrowRateIndex(_token, getBlockNumber()));\n        FINAmount[_accountAddr] = FINAmount[_accountAddr].add(getFIN);\n    }\n}\n",
  "sourcePath": "/Users/yanyichun/project/Savings/contracts/Accounts.sol",
  "compiler": {
    "name": "solc",
    "version": "0.5.14+commit.01f1aaa4.Emscripten.clang"
  },
  "schemaVersion": "3.2.3",
  "updatedAt": "2021-02-25T05:30:05.846Z",
  "devdoc": {
    "methods": {
      "claim(address)": {
        "details": "If the FIN mining index point doesn't exist, we have to calculate the FIN amount  accurately. So the user can withdraw all available FIN tokens."
      },
      "getBorrowBalanceCurrent(address,address)": {
        "details": "This is an estimation. Add a new checkpoint first, if you want to derive the exact balance.",
        "params": {
          "_token": "token address"
        }
      },
      "getDepositETH(address)": {
        "details": "This is an estimation. Add a new checkpoint first, if you want to derive the exact balance."
      },
      "getDepositInterest(address,address)": {
        "details": "The deposit interest may not have been updated in AccountTokenLib, so we need to explicited calcuate it.",
        "params": {
          "_account": "account address",
          "_token": "token address"
        }
      },
      "initialize(address)": {
        "params": {
          "_globalConfig": "the global configuration contract"
        }
      },
      "isAccountLiquidatable(address)": {
        "params": {
          "_borrower": "borrower's account"
        },
        "return": "true if the account is liquidatable"
      },
      "isUserHasAnyDeposits(address)": {
        "params": {
          "_account": "address of the user"
        },
        "return": "true if the user has positive deposit balance"
      },
      "isUserHasBorrows(address,uint8)": {
        "params": {
          "_account": "address of the user",
          "_index": "index of the token"
        },
        "return": "true if the user has borrowed the token"
      },
      "isUserHasDeposits(address,uint8)": {
        "params": {
          "_account": "address of the user",
          "_index": "index of the token"
        },
        "return": "true if the user has positive deposit balance for the token"
      }
    }
  },
  "userdoc": {
    "methods": {
      "claim(address)": {
        "notice": "An account claim all mined FIN token."
      },
      "deposit(address,address,uint256)": {
        "notice": "Update token info for deposit"
      },
      "getBorrowBalanceCurrent(address,address)": {
        "notice": "Get current borrow balance of a token"
      },
      "getBorrowETH(address)": {
        "notice": "Get borrowed balance of a token in the uint of Wei"
      },
      "getBorrowPower(address)": {
        "notice": "Calculate an account's borrow power based on token's LTV"
      },
      "getDepositETH(address)": {
        "notice": "Get current deposit balance of a token"
      },
      "getDepositInterest(address,address)": {
        "notice": "Get deposit interest of an account for a specific token"
      },
      "initialize(address)": {
        "notice": "Initialize the Accounts"
      },
      "isAccountLiquidatable(address)": {
        "notice": "Check if the account is liquidatable"
      },
      "isUserHasAnyDeposits(address)": {
        "notice": "Check if the user has deposit for any tokens"
      },
      "isUserHasBorrows(address,uint8)": {
        "notice": "Check if the user has borrowed a token"
      },
      "isUserHasDeposits(address,uint8)": {
        "notice": "Check if the user has deposit for a token"
      },
      "withdraw(address,address,uint256)": {
        "notice": "Update token info for withdraw. The interest will be withdrawn with higher priority."
      }
    }
  }
}