{
  "contractName": "BankWithController",
  "abi": [
    {
      "anonymous": false,
      "inputs": [
        {
          "indexed": true,
          "internalType": "address",
          "name": "_token",
          "type": "address"
        },
        {
          "indexed": false,
          "internalType": "uint256",
          "name": "borrowFINRateIndex",
          "type": "uint256"
        }
      ],
      "name": "UpdateBorrowFINIndex",
      "type": "event"
    },
    {
      "anonymous": false,
      "inputs": [
        {
          "indexed": true,
          "internalType": "address",
          "name": "_token",
          "type": "address"
        },
        {
          "indexed": false,
          "internalType": "uint256",
          "name": "depositFINRateIndex",
          "type": "uint256"
        }
      ],
      "name": "UpdateDepositFINIndex",
      "type": "event"
    },
    {
      "anonymous": false,
      "inputs": [
        {
          "indexed": true,
          "internalType": "address",
          "name": "token",
          "type": "address"
        },
        {
          "indexed": false,
          "internalType": "uint256",
          "name": "depositeRateIndex",
          "type": "uint256"
        },
        {
          "indexed": false,
          "internalType": "uint256",
          "name": "borrowRateIndex",
          "type": "uint256"
        }
      ],
      "name": "UpdateIndex",
      "type": "event"
    },
    {
      "constant": true,
      "inputs": [],
      "name": "ACCURACY",
      "outputs": [
        {
          "internalType": "uint256",
          "name": "",
          "type": "uint256"
        }
      ],
      "payable": false,
      "stateMutability": "view",
      "type": "function"
    },
    {
      "constant": true,
      "inputs": [],
      "name": "BLOCKS_PER_YEAR",
      "outputs": [
        {
          "internalType": "uint256",
          "name": "",
          "type": "uint256"
        }
      ],
      "payable": false,
      "stateMutability": "view",
      "type": "function"
    },
    {
      "constant": true,
      "inputs": [],
      "name": "EMERGENCY_ADDR",
      "outputs": [
        {
          "internalType": "address payable",
          "name": "",
          "type": "address"
        }
      ],
      "payable": false,
      "stateMutability": "view",
      "type": "function"
    },
    {
      "constant": true,
      "inputs": [],
      "name": "ETH_ADDR",
      "outputs": [
        {
          "internalType": "address",
          "name": "",
          "type": "address"
        }
      ],
      "payable": false,
      "stateMutability": "view",
      "type": "function"
    },
    {
      "constant": true,
      "inputs": [],
      "name": "INT_UNIT",
      "outputs": [
        {
          "internalType": "uint256",
          "name": "",
          "type": "uint256"
        }
      ],
      "payable": false,
      "stateMutability": "view",
      "type": "function"
    },
    {
      "constant": false,
      "inputs": [
        {
          "internalType": "address",
          "name": "_from",
          "type": "address"
        },
        {
          "internalType": "address",
          "name": "_token",
          "type": "address"
        },
        {
          "internalType": "uint256",
          "name": "_amount",
          "type": "uint256"
        }
      ],
      "name": "borrow",
      "outputs": [],
      "payable": false,
      "stateMutability": "nonpayable",
      "type": "function"
    },
    {
      "constant": true,
      "inputs": [
        {
          "internalType": "address",
          "name": "",
          "type": "address"
        },
        {
          "internalType": "uint256",
          "name": "",
          "type": "uint256"
        }
      ],
      "name": "borrowFINRateIndex",
      "outputs": [
        {
          "internalType": "uint256",
          "name": "",
          "type": "uint256"
        }
      ],
      "payable": false,
      "stateMutability": "view",
      "type": "function"
    },
    {
      "constant": true,
      "inputs": [
        {
          "internalType": "address",
          "name": "",
          "type": "address"
        },
        {
          "internalType": "uint256",
          "name": "",
          "type": "uint256"
        }
      ],
      "name": "borrowRateIndex",
      "outputs": [
        {
          "internalType": "uint256",
          "name": "",
          "type": "uint256"
        }
      ],
      "payable": false,
      "stateMutability": "view",
      "type": "function"
    },
    {
      "constant": true,
      "inputs": [
        {
          "internalType": "address",
          "name": "_token",
          "type": "address"
        }
      ],
      "name": "borrowRateIndexNow",
      "outputs": [
        {
          "internalType": "uint256",
          "name": "",
          "type": "uint256"
        }
      ],
      "payable": false,
      "stateMutability": "view",
      "type": "function"
    },
    {
      "constant": false,
      "inputs": [
        {
          "internalType": "address",
          "name": "_to",
          "type": "address"
        },
        {
          "internalType": "address",
          "name": "_token",
          "type": "address"
        },
        {
          "internalType": "uint256",
          "name": "_amount",
          "type": "uint256"
        }
      ],
      "name": "deposit",
      "outputs": [],
      "payable": false,
      "stateMutability": "nonpayable",
      "type": "function"
    },
    {
      "constant": true,
      "inputs": [
        {
          "internalType": "address",
          "name": "",
          "type": "address"
        },
        {
          "internalType": "uint256",
          "name": "",
          "type": "uint256"
        }
      ],
      "name": "depositFINRateIndex",
      "outputs": [
        {
          "internalType": "uint256",
          "name": "",
          "type": "uint256"
        }
      ],
      "payable": false,
      "stateMutability": "view",
      "type": "function"
    },
    {
      "constant": true,
      "inputs": [
        {
          "internalType": "address",
          "name": "_token",
          "type": "address"
        }
      ],
      "name": "depositRateIndexNow",
      "outputs": [
        {
          "internalType": "uint256",
          "name": "",
          "type": "uint256"
        }
      ],
      "payable": false,
      "stateMutability": "view",
      "type": "function"
    },
    {
      "constant": true,
      "inputs": [
        {
          "internalType": "address",
          "name": "",
          "type": "address"
        },
        {
          "internalType": "uint256",
          "name": "",
          "type": "uint256"
        }
      ],
      "name": "depositeRateIndex",
      "outputs": [
        {
          "internalType": "uint256",
          "name": "",
          "type": "uint256"
        }
      ],
      "payable": false,
      "stateMutability": "view",
      "type": "function"
    },
    {
      "constant": true,
      "inputs": [
        {
          "internalType": "address",
          "name": "_token",
          "type": "address"
        },
        {
          "internalType": "uint256",
          "name": "_borrowRateRecordStart",
          "type": "uint256"
        }
      ],
      "name": "getBorrowAccruedRate",
      "outputs": [
        {
          "internalType": "uint256",
          "name": "",
          "type": "uint256"
        }
      ],
      "payable": false,
      "stateMutability": "view",
      "type": "function"
    },
    {
      "constant": true,
      "inputs": [
        {
          "internalType": "address",
          "name": "_token",
          "type": "address"
        }
      ],
      "name": "getBorrowRatePerBlock",
      "outputs": [
        {
          "internalType": "uint256",
          "name": "",
          "type": "uint256"
        }
      ],
      "payable": false,
      "stateMutability": "view",
      "type": "function"
    },
    {
      "constant": true,
      "inputs": [
        {
          "internalType": "address",
          "name": "_token",
          "type": "address"
        }
      ],
      "name": "getCapitalCompoundRatio",
      "outputs": [
        {
          "internalType": "uint256",
          "name": "",
          "type": "uint256"
        }
      ],
      "payable": false,
      "stateMutability": "view",
      "type": "function"
    },
    {
      "constant": true,
      "inputs": [
        {
          "internalType": "address",
          "name": "_token",
          "type": "address"
        }
      ],
      "name": "getCapitalUtilizationRatio",
      "outputs": [
        {
          "internalType": "uint256",
          "name": "",
          "type": "uint256"
        }
      ],
      "payable": false,
      "stateMutability": "view",
      "type": "function"
    },
    {
      "constant": true,
      "inputs": [
        {
          "internalType": "address",
          "name": "_token",
          "type": "address"
        },
        {
          "internalType": "uint256",
          "name": "_depositRateRecordStart",
          "type": "uint256"
        }
      ],
      "name": "getDepositAccruedRate",
      "outputs": [
        {
          "internalType": "uint256",
          "name": "",
          "type": "uint256"
        }
      ],
      "payable": false,
      "stateMutability": "view",
      "type": "function"
    },
    {
      "constant": true,
      "inputs": [
        {
          "internalType": "address",
          "name": "_token",
          "type": "address"
        }
      ],
      "name": "getDepositRatePerBlock",
      "outputs": [
        {
          "internalType": "uint256",
          "name": "",
          "type": "uint256"
        }
      ],
      "payable": false,
      "stateMutability": "view",
      "type": "function"
    },
    {
      "constant": true,
      "inputs": [
        {
          "internalType": "address",
          "name": "_token",
          "type": "address"
        }
      ],
      "name": "getPoolAmount",
      "outputs": [
        {
          "internalType": "uint256",
          "name": "",
          "type": "uint256"
        }
      ],
      "payable": false,
      "stateMutability": "view",
      "type": "function"
    },
    {
      "constant": true,
      "inputs": [
        {
          "internalType": "address",
          "name": "_token",
          "type": "address"
        }
      ],
      "name": "getTokenState",
      "outputs": [
        {
          "internalType": "uint256",
          "name": "deposits",
          "type": "uint256"
        },
        {
          "internalType": "uint256",
          "name": "loans",
          "type": "uint256"
        },
        {
          "internalType": "uint256",
          "name": "reserveBalance",
          "type": "uint256"
        },
        {
          "internalType": "uint256",
          "name": "remainingAssets",
          "type": "uint256"
        }
      ],
      "payable": false,
      "stateMutability": "view",
      "type": "function"
    },
    {
      "constant": true,
      "inputs": [
        {
          "internalType": "address",
          "name": "_token",
          "type": "address"
        }
      ],
      "name": "getTotalDepositStore",
      "outputs": [
        {
          "internalType": "uint256",
          "name": "",
          "type": "uint256"
        }
      ],
      "payable": false,
      "stateMutability": "view",
      "type": "function"
    },
    {
      "constant": true,
      "inputs": [
        {
          "internalType": "address",
          "name": "",
          "type": "address"
        }
      ],
      "name": "lastBorrowFINRateCheckpoint",
      "outputs": [
        {
          "internalType": "uint256",
          "name": "",
          "type": "uint256"
        }
      ],
      "payable": false,
      "stateMutability": "view",
      "type": "function"
    },
    {
      "constant": true,
      "inputs": [
        {
          "internalType": "address",
          "name": "",
          "type": "address"
        }
      ],
      "name": "lastCTokenExchangeRate",
      "outputs": [
        {
          "internalType": "uint256",
          "name": "",
          "type": "uint256"
        }
      ],
      "payable": false,
      "stateMutability": "view",
      "type": "function"
    },
    {
      "constant": true,
      "inputs": [
        {
          "internalType": "address",
          "name": "",
          "type": "address"
        }
      ],
      "name": "lastCheckpoint",
      "outputs": [
        {
          "internalType": "uint256",
          "name": "",
          "type": "uint256"
        }
      ],
      "payable": false,
      "stateMutability": "view",
      "type": "function"
    },
    {
      "constant": true,
      "inputs": [
        {
          "internalType": "address",
          "name": "",
          "type": "address"
        }
      ],
      "name": "lastDepositeFINRateCheckpoint",
      "outputs": [
        {
          "internalType": "uint256",
          "name": "",
          "type": "uint256"
        }
      ],
      "payable": false,
      "stateMutability": "view",
      "type": "function"
    },
    {
      "constant": false,
      "inputs": [
        {
          "internalType": "address",
          "name": "_token",
          "type": "address"
        }
      ],
      "name": "newRateIndexCheckpoint",
      "outputs": [],
      "payable": false,
      "stateMutability": "nonpayable",
      "type": "function"
    },
    {
      "constant": false,
      "inputs": [
        {
          "internalType": "address",
          "name": "_to",
          "type": "address"
        },
        {
          "internalType": "address",
          "name": "_token",
          "type": "address"
        },
        {
          "internalType": "uint256",
          "name": "_amount",
          "type": "uint256"
        }
      ],
      "name": "repay",
      "outputs": [
        {
          "internalType": "uint256",
          "name": "",
          "type": "uint256"
        }
      ],
      "payable": false,
      "stateMutability": "nonpayable",
      "type": "function"
    },
    {
      "constant": true,
      "inputs": [
        {
          "internalType": "address",
          "name": "",
          "type": "address"
        }
      ],
      "name": "totalCompound",
      "outputs": [
        {
          "internalType": "uint256",
          "name": "",
          "type": "uint256"
        }
      ],
      "payable": false,
      "stateMutability": "view",
      "type": "function"
    },
    {
      "constant": true,
      "inputs": [
        {
          "internalType": "address",
          "name": "",
          "type": "address"
        }
      ],
      "name": "totalLoans",
      "outputs": [
        {
          "internalType": "uint256",
          "name": "",
          "type": "uint256"
        }
      ],
      "payable": false,
      "stateMutability": "view",
      "type": "function"
    },
    {
      "constant": true,
      "inputs": [
        {
          "internalType": "address",
          "name": "",
          "type": "address"
        }
      ],
      "name": "totalReserve",
      "outputs": [
        {
          "internalType": "uint256",
          "name": "",
          "type": "uint256"
        }
      ],
      "payable": false,
      "stateMutability": "view",
      "type": "function"
    },
    {
      "constant": false,
      "inputs": [
        {
          "internalType": "address",
          "name": "_token",
          "type": "address"
        },
        {
          "internalType": "uint256",
          "name": "_amount",
          "type": "uint256"
        },
        {
          "internalType": "enum Constant.ActionType",
          "name": "_action",
          "type": "uint8"
        }
      ],
      "name": "update",
      "outputs": [
        {
          "internalType": "uint256",
          "name": "compoundAmount",
          "type": "uint256"
        }
      ],
      "payable": false,
      "stateMutability": "nonpayable",
      "type": "function"
    },
    {
      "constant": false,
      "inputs": [
        {
          "internalType": "address",
          "name": "_token",
          "type": "address"
        }
      ],
      "name": "updateBorrowFINIndex",
      "outputs": [],
      "payable": false,
      "stateMutability": "nonpayable",
      "type": "function"
    },
    {
      "constant": false,
      "inputs": [
        {
          "internalType": "address",
          "name": "_token",
          "type": "address"
        }
      ],
      "name": "updateDepositFINIndex",
      "outputs": [],
      "payable": false,
      "stateMutability": "nonpayable",
      "type": "function"
    },
    {
      "constant": false,
      "inputs": [
        {
          "internalType": "address",
          "name": "_token",
          "type": "address"
        }
      ],
      "name": "updateMining",
      "outputs": [],
      "payable": false,
      "stateMutability": "nonpayable",
      "type": "function"
    },
    {
      "constant": false,
      "inputs": [
        {
          "internalType": "address",
          "name": "_from",
          "type": "address"
        },
        {
          "internalType": "address",
          "name": "_token",
          "type": "address"
        },
        {
          "internalType": "uint256",
          "name": "_amount",
          "type": "uint256"
        }
      ],
      "name": "withdraw",
      "outputs": [
        {
          "internalType": "uint256",
          "name": "",
          "type": "uint256"
        }
      ],
      "payable": false,
      "stateMutability": "nonpayable",
      "type": "function"
    },
    {
      "constant": false,
      "inputs": [
        {
          "internalType": "contract GlobalConfig",
          "name": "_globalConfig",
          "type": "address"
        },
        {
          "internalType": "address",
          "name": "_comptroller",
          "type": "address"
        }
      ],
      "name": "initialize",
      "outputs": [],
      "payable": false,
      "stateMutability": "nonpayable",
      "type": "function"
    },
    {
      "constant": false,
      "inputs": [
        {
          "internalType": "contract GlobalConfig",
          "name": "_globalConfig",
          "type": "address"
        }
      ],
      "name": "initialize",
      "outputs": [],
      "payable": false,
      "stateMutability": "nonpayable",
      "type": "function"
    }
  ],
  "bytecode": "0x608060405234801561001057600080fd5b50614842806100206000396000f3fe608060405234801561001057600080fd5b50600436106102325760003560e01c80636dae2fa511610130578063c9ca7d31116100b8578063de34b0f41161007c578063de34b0f414610776578063e0b5a6641461079c578063e9ace6d9146107c2578063f4871966146107e8578063fbcd9b051461073857610232565b8063c9ca7d31146106e4578063d2796a931461070a578063d37db1d214610730578063d8c2d84c14610738578063d9caed121461074057610232565b80637aa473d1116100ff5780637aa473d1146106105780637ebff3d51461063c5780638340f54914610662578063945eb76414610698578063c4d66de8146106be57610232565b80636dae2fa5146105965780636e5d84ba146105bc57806374a23843146105e25780637753f47b1461060857610232565b8063398a0c46116101be5780635467cec4116101825780635467cec4146104bf57806356697310146104e35780635a80c4971461050f5780635f85ca471461053b57806362e4a78c1461056157610232565b8063398a0c46146103e7578063485cc9551461040d5780634d7705701461043d5780634e7e36e2146104635780635224372c1461048957610232565b80631ff4443c116102055780631ff4443c1461031d57806329aa4218146103495780632d6cb6811461036f578063343340f41461039b57806337a58b15146103c157610232565b80630603c222146102375780630b3eb970146102755780630b574443146102c15780631da649cf146102e7575b600080fd5b6102636004803603604081101561024d57600080fd5b506001600160a01b03813516906020013561080e565b60408051918252519081900360200190f35b61029b6004803603602081101561028b57600080fd5b50356001600160a01b031661082b565b604080519485526020850193909352838301919091526060830152519081900360800190f35b610263600480360360208110156102d757600080fd5b50356001600160a01b031661098d565b610263600480360360608110156102fd57600080fd5b506001600160a01b03813581169160208101359091169060400135610a57565b6102636004803603604081101561033357600080fd5b506001600160a01b038135169060200135610ef5565b6102636004803603602081101561035f57600080fd5b50356001600160a01b0316610f12565b6102636004803603604081101561038557600080fd5b506001600160a01b038135169060200135610f24565b610263600480360360208110156103b157600080fd5b50356001600160a01b0316610fa7565b610263600480360360208110156103d757600080fd5b50356001600160a01b0316610fb9565b610263600480360360208110156103fd57600080fd5b50356001600160a01b0316610fcb565b61043b6004803603604081101561042357600080fd5b506001600160a01b0381358116916020013516610fdd565b005b6102636004803603602081101561045357600080fd5b50356001600160a01b03166110a5565b6102636004803603602081101561047957600080fd5b50356001600160a01b0316611101565b61043b6004803603606081101561049f57600080fd5b506001600160a01b03813581169160208101359091169060400135611113565b6104c761145e565b604080516001600160a01b039092168252519081900360200190f35b610263600480360360408110156104f957600080fd5b506001600160a01b038135169060200135611476565b6102636004803603604081101561052557600080fd5b506001600160a01b038135169060200135611493565b61043b6004803603602081101561055157600080fd5b50356001600160a01b031661150c565b6102636004803603606081101561057757600080fd5b5080356001600160a01b0316906020810135906040013560ff1661166d565b610263600480360360208110156105ac57600080fd5b50356001600160a01b03166117cc565b610263600480360360208110156105d257600080fd5b50356001600160a01b0316611955565b610263600480360360208110156105f857600080fd5b50356001600160a01b0316611a9b565b6104c7611aad565b6102636004803603604081101561062657600080fd5b506001600160a01b038135169060200135611ab2565b6102636004803603602081101561065257600080fd5b50356001600160a01b0316611acf565b61043b6004803603606081101561067857600080fd5b506001600160a01b03813581169160208101359091169060400135611b2c565b610263600480360360208110156106ae57600080fd5b50356001600160a01b0316611e9b565b61043b600480360360208110156106d457600080fd5b50356001600160a01b0316611fce565b610263600480360360208110156106fa57600080fd5b50356001600160a01b031661208c565b61043b6004803603602081101561072057600080fd5b50356001600160a01b03166123d5565b6102636127ad565b6102636127b4565b6102636004803603606081101561075657600080fd5b506001600160a01b038135811691602081013590911690604001356127c0565b61043b6004803603602081101561078c57600080fd5b50356001600160a01b0316612b56565b61043b600480360360208110156107b257600080fd5b50356001600160a01b0316613460565b610263600480360360208110156107d857600080fd5b50356001600160a01b0316613798565b610263600480360360208110156107fe57600080fd5b50356001600160a01b03166137aa565b603d60209081526000928352604080842090915290825290205481565b60008060008061083a85611955565b6001600160a01b038087166000908152603360209081526040808320546034835281842054603b548351639895880f60e01b815293519296919561097e9560359591949290931692639895880f92600480840193829003018186803b1580156108a257600080fd5b505afa1580156108b6573d6000803e3d6000fd5b505050506040513d60208110156108cc57600080fd5b505160408051637e5a4eb960e01b81526001600160a01b038e8116600483015291519190921691637e5a4eb9916024808301926020929190829003018186803b15801561091857600080fd5b505afa15801561092c573d6000803e3d6000fd5b505050506040513d602081101561094257600080fd5b50516001600160a01b0390811682526020828101939093526040918201600090812054918d16815260349093529120549063ffffffff61390416565b93509350935093509193509193565b6001600160a01b038116600090815260386020526040812054806109bc5750670de0b6b3a76400009050610a52565b6001600160a01b0383166000908152603760209081526040808320848452909152812054906109ea8561208c565b9050610a4c670de0b6b3a7640000610a40610a3382610a2786610a1b8a610a0f61395e565b9063ffffffff6139df16565b9063ffffffff613a2116565b9063ffffffff61390416565b859063ffffffff613a2116565b9063ffffffff613a7a16565b93505050505b919050565b603b546040805163cc5738b560e01b815290516000926001600160a01b03169163cc5738b5916004808301926020929190829003018186803b158015610a9c57600080fd5b505afa158015610ab0573d6000803e3d6000fd5b505050506040513d6020811015610ac657600080fd5b50516001600160a01b0316331480610b5f5750603b60009054906101000a90046001600160a01b03166001600160a01b03166368cd03f66040518163ffffffff1660e01b815260040160206040518083038186803b158015610b2757600080fd5b505afa158015610b3b573d6000803e3d6000fd5b505050506040513d6020811015610b5157600080fd5b50516001600160a01b031633145b610b9a5760405162461bcd60e51b815260040180806020018281038252603881526020018061479b6038913960400191505060405180910390fd5b610ba383612b56565b610bac836123d5565b603b546040805163346681fb60e11b815290516000926001600160a01b0316916368cd03f6916004808301926020929190829003018186803b158015610bf157600080fd5b505afa158015610c05573d6000803e3d6000fd5b505050506040513d6020811015610c1b57600080fd5b505160408051638224b89960e01b81526001600160a01b038881166004830152878116602483015291519190921691638224b899916044808301926020929190829003018186803b158015610c6f57600080fd5b505afa158015610c83573d6000803e3d6000fd5b505050506040513d6020811015610c9957600080fd5b505111610cd75760405162461bcd60e51b815260040180806020018281038252605c8152602001806146f0605c913960600191505060405180910390fd5b603b546040805163346681fb60e11b815290516000926001600160a01b0316916368cd03f6916004808301926020929190829003018186803b158015610d1c57600080fd5b505afa158015610d30573d6000803e3d6000fd5b505050506040513d6020811015610d4657600080fd5b505160408051631da649cf60e01b81526001600160a01b03888116600483015287811660248301526044820187905291519190921691631da649cf9160648083019260209291908290030181600087803b158015610da357600080fd5b505af1158015610db7573d6000803e3d6000fd5b505050506040513d6020811015610dcd57600080fd5b505190506000610dee85610de7868563ffffffff6139df16565b600361166d565b90508015610edb57603b60009054906101000a90046001600160a01b03166001600160a01b031663cc5738b56040518163ffffffff1660e01b815260040160206040518083038186803b158015610e4457600080fd5b505afa158015610e58573d6000803e3d6000fd5b505050506040513d6020811015610e6e57600080fd5b505160408051638280e5a960e01b81526001600160a01b0388811660048301526024820185905291519190921691638280e5a991604480830192600092919082900301818387803b158015610ec257600080fd5b505af1158015610ed6573d6000803e3d6000fd5b505050505b610eeb848363ffffffff6139df16565b9695505050505050565b603660209081526000928352604080842090915290825290205481565b603f6020526000908152604090205481565b6001600160a01b038216600090815260376020908152604080832084845290915281205480610f845760405162461bcd60e51b815260040180806020018281038252603b8152602001806147d3603b913960400191505060405180910390fd5b610f9d81610a40670de0b6b3a7640000610a1b8861098d565b9150505b92915050565b60336020526000908152604090205481565b60356020526000908152604090205481565b603e6020526000908152604090205481565b600054610100900460ff1680610ff65750610ff6613abc565b80611004575060005460ff16155b61103f5760405162461bcd60e51b815260040180806020018281038252602e81526020018061476d602e913960400191505060405180910390fd5b600054610100900460ff1615801561106a576000805460ff1961ff0019909116610100171660011790555b61107383611fce565b604080546001600160a01b0319166001600160a01b03841617905580156110a0576000805461ff00191690555b505050565b6000806110b183611955565b9050806110c2576000915050610a52565b6001600160a01b0383166000908152603360205260409020546110f9908290610a4090670de0b6b3a764000063ffffffff613a2116565b915050610a52565b60346020526000908152604090205481565b603b60009054906101000a90046001600160a01b03166001600160a01b031663cc5738b56040518163ffffffff1660e01b815260040160206040518083038186803b15801561116157600080fd5b505afa158015611175573d6000803e3d6000fd5b505050506040513d602081101561118b57600080fd5b50516001600160a01b03163314806112245750603b60009054906101000a90046001600160a01b03166001600160a01b03166368cd03f66040518163ffffffff1660e01b815260040160206040518083038186803b1580156111ec57600080fd5b505afa158015611200573d6000803e3d6000fd5b505050506040513d602081101561121657600080fd5b50516001600160a01b031633145b61125f5760405162461bcd60e51b815260040180806020018281038252603881526020018061479b6038913960400191505060405180910390fd5b61126882612b56565b611271826123d5565b603b60009054906101000a90046001600160a01b03166001600160a01b03166368cd03f66040518163ffffffff1660e01b815260040160206040518083038186803b1580156112bf57600080fd5b505afa1580156112d3573d6000803e3d6000fd5b505050506040513d60208110156112e957600080fd5b5051604080516314890dcb60e21b81526001600160a01b03868116600483015285811660248301526044820185905291519190921691635224372c91606480830192600092919082900301818387803b15801561134557600080fd5b505af1158015611359573d6000803e3d6000fd5b50505050600061136b8383600261166d565b9050801561145857603b60009054906101000a90046001600160a01b03166001600160a01b031663cc5738b56040518163ffffffff1660e01b815260040160206040518083038186803b1580156113c157600080fd5b505afa1580156113d5573d6000803e3d6000fd5b505050506040513d60208110156113eb57600080fd5b50516040805163526e93cb60e01b81526001600160a01b038681166004830152602482018590529151919092169163526e93cb91604480830192600092919082900301818387803b15801561143f57600080fd5b505af1158015611453573d6000803e3d6000fd5b505050505b50505050565b73c04158f7db6f9c9ffbd5593236a1a3d69f92167c81565b603c60209081526000928352604080842090915290825290205481565b6001600160a01b0382166000908152603660209081526040808320848452909152812054806114f35760405162461bcd60e51b815260040180806020018281038252603c8152602001806146b4603c913960400191505060405180910390fd5b610f9d81610a40670de0b6b3a7640000610a1b88611acf565b603b60009054906101000a90046001600160a01b03166001600160a01b031663cc5738b56040518163ffffffff1660e01b815260040160206040518083038186803b15801561155a57600080fd5b505afa15801561156e573d6000803e3d6000fd5b505050506040513d602081101561158457600080fd5b50516001600160a01b031633148061161d5750603b60009054906101000a90046001600160a01b03166001600160a01b03166368cd03f66040518163ffffffff1660e01b815260040160206040518083038186803b1580156115e557600080fd5b505afa1580156115f9573d6000803e3d6000fd5b505050506040513d602081101561160f57600080fd5b50516001600160a01b031633145b6116585760405162461bcd60e51b815260040180806020018281038252603881526020018061479b6038913960400191505060405180910390fd5b61166181612b56565b61166a81613ac2565b50565b603b546040805163cc5738b560e01b815290516000926001600160a01b03169163cc5738b5916004808301926020929190829003018186803b1580156116b257600080fd5b505afa1580156116c6573d6000803e3d6000fd5b505050506040513d60208110156116dc57600080fd5b50516001600160a01b03163314806117755750603b60009054906101000a90046001600160a01b03166001600160a01b03166368cd03f66040518163ffffffff1660e01b815260040160206040518083038186803b15801561173d57600080fd5b505afa158015611751573d6000803e3d6000fd5b505050506040513d602081101561176757600080fd5b50516001600160a01b031633145b6117b05760405162461bcd60e51b815260040180806020018281038252603881526020018061479b6038913960400191505060405180910390fd5b6117b984613ac2565b6117c4848484613cd3565b949350505050565b6000806117d88361208c565b905060006117e5846110a5565b9050603b60009054906101000a90046001600160a01b03166001600160a01b0316639895880f6040518163ffffffff1660e01b815260040160206040518083038186803b15801561183557600080fd5b505afa158015611849573d6000803e3d6000fd5b505050506040513d602081101561185f57600080fd5b505160408051630e525ed960e21b81526001600160a01b038781166004830152915191909216916339497b64916024808301926020929190829003018186803b1580156118ab57600080fd5b505afa1580156118bf573d6000803e3d6000fd5b505050506040513d60208110156118d557600080fd5b5051611900576118f7670de0b6b3a7640000610a40848463ffffffff613a2116565b92505050610a52565b6001600160a01b0384166000908152603a6020526040902060018101546002909101546117c491670de0b6b3a764000091610a4091611945919063ffffffff613a2116565b610a27868663ffffffff613a2116565b600080603b60009054906101000a90046001600160a01b03166001600160a01b0316639895880f6040518163ffffffff1660e01b815260040160206040518083038186803b1580156119a657600080fd5b505afa1580156119ba573d6000803e3d6000fd5b505050506040513d60208110156119d057600080fd5b505160408051637e5a4eb960e01b81526001600160a01b03868116600483015291519190921691637e5a4eb9916024808301926020929190829003018186803b158015611a1c57600080fd5b505afa158015611a30573d6000803e3d6000fd5b505050506040513d6020811015611a4657600080fd5b50516001600160a01b0380851660009081526034602090815260408083205460338352818420549486168452603590925290912054929350611a94929091610a27919063ffffffff61390416565b9392505050565b60386020526000908152604090205481565b600e81565b603760209081526000928352604080842090915290825290205481565b6001600160a01b03811660009081526038602052604081205480611afe5750670de0b6b3a76400009050610a52565b6001600160a01b0383166000908152603660209081526040808320848452909152812054906109ea856117cc565b603b60009054906101000a90046001600160a01b03166001600160a01b031663cc5738b56040518163ffffffff1660e01b815260040160206040518083038186803b158015611b7a57600080fd5b505afa158015611b8e573d6000803e3d6000fd5b505050506040513d6020811015611ba457600080fd5b50516001600160a01b0316331480611c3d5750603b60009054906101000a90046001600160a01b03166001600160a01b03166368cd03f66040518163ffffffff1660e01b815260040160206040518083038186803b158015611c0557600080fd5b505afa158015611c19573d6000803e3d6000fd5b505050506040513d6020811015611c2f57600080fd5b50516001600160a01b031633145b611c785760405162461bcd60e51b815260040180806020018281038252603881526020018061479b6038913960400191505060405180910390fd5b80611cbb576040805162461bcd60e51b815260206004820152600e60248201526d416d6f756e74206973207a65726f60901b604482015290519081900360640190fd5b611cc482612b56565b611ccd82613460565b603b60009054906101000a90046001600160a01b03166001600160a01b03166368cd03f66040518163ffffffff1660e01b815260040160206040518083038186803b158015611d1b57600080fd5b505afa158015611d2f573d6000803e3d6000fd5b505050506040513d6020811015611d4557600080fd5b505160408051638340f54960e01b81526001600160a01b03868116600483015285811660248301526044820185905291519190921691638340f54991606480830192600092919082900301818387803b158015611da157600080fd5b505af1158015611db5573d6000803e3d6000fd5b505050506000611dc78383600061166d565b9050801561145857603b60009054906101000a90046001600160a01b03166001600160a01b031663cc5738b56040518163ffffffff1660e01b815260040160206040518083038186803b158015611e1d57600080fd5b505afa158015611e31573d6000803e3d6000fd5b505050506040513d6020811015611e4757600080fd5b505160408051638280e5a960e01b81526001600160a01b0386811660048301526024820185905291519190921691638280e5a991604480830192600092919082900301818387803b15801561143f57600080fd5b6000610fa160356000603b60009054906101000a90046001600160a01b03166001600160a01b0316639895880f6040518163ffffffff1660e01b815260040160206040518083038186803b158015611ef257600080fd5b505afa158015611f06573d6000803e3d6000fd5b505050506040513d6020811015611f1c57600080fd5b505160408051637e5a4eb960e01b81526001600160a01b03888116600483015291519190921691637e5a4eb9916024808301926020929190829003018186803b158015611f6857600080fd5b505afa158015611f7c573d6000803e3d6000fd5b505050506040513d6020811015611f9257600080fd5b50516001600160a01b0390811682526020828101939093526040918201600090812054918716815260349093529120549063ffffffff61390416565b600054610100900460ff1680611fe75750611fe7613abc565b80611ff5575060005460ff16155b6120305760405162461bcd60e51b815260040180806020018281038252602e81526020018061476d602e913960400191505060405180910390fd5b600054610100900460ff1615801561205b576000805460ff1961ff0019909116610100171660011790555b603b80546001600160a01b0319166001600160a01b0384161790558015612088576000805461ff00191690555b5050565b603b5460408051639895880f60e01b815290516000926001600160a01b031691639895880f916004808301926020929190829003018186803b1580156120d157600080fd5b505afa1580156120e5573d6000803e3d6000fd5b505050506040513d60208110156120fb57600080fd5b505160408051630e525ed960e21b81526001600160a01b038581166004830152915191909216916339497b64916024808301926020929190829003018186803b15801561214757600080fd5b505afa15801561215b573d6000803e3d6000fd5b505050506040513d602081101561217157600080fd5b505161228e5761228762201480610a40603b60009054906101000a90046001600160a01b03166001600160a01b031663b442a2066040518163ffffffff1660e01b815260040160206040518083038186803b1580156121cf57600080fd5b505afa1580156121e3573d6000803e3d6000fd5b505050506040513d60208110156121f957600080fd5b5051603b5460408051637664c38560e11b81529051610a2792670de0b6b3a764000092610a40926001600160a01b039092169163ecc9870a91600480820192602092909190829003018186803b15801561225257600080fd5b505afa158015612266573d6000803e3d6000fd5b505050506040513d602081101561227c57600080fd5b5051610a1b8a6110a5565b9050610a52565b610fa1600a610a4061233b603b60009054906101000a90046001600160a01b03166001600160a01b03166313afb8ef6040518163ffffffff1660e01b815260040160206040518083038186803b1580156122e757600080fd5b505afa1580156122fb573d6000803e3d6000fd5b505050506040513d602081101561231157600080fd5b50516001600160a01b0387166000908152603a60205260409020600301549063ffffffff613a2116565b603b54604080516308fafb8d60e01b81529051610a27926001600160a01b0316916308fafb8d916004808301926020929190829003018186803b15801561238157600080fd5b505afa158015612395573d6000803e3d6000fd5b505050506040513d60208110156123ab57600080fd5b50516001600160a01b0388166000908152603a60205260409020600201549063ffffffff613a2116565b603b60009054906101000a90046001600160a01b03166001600160a01b031663cc5738b56040518163ffffffff1660e01b815260040160206040518083038186803b15801561242357600080fd5b505afa158015612437573d6000803e3d6000fd5b505050506040513d602081101561244d57600080fd5b50516001600160a01b03163314806124e65750603b60009054906101000a90046001600160a01b03166001600160a01b03166368cd03f66040518163ffffffff1660e01b815260040160206040518083038186803b1580156124ae57600080fd5b505afa1580156124c2573d6000803e3d6000fd5b505050506040513d60208110156124d857600080fd5b50516001600160a01b031633145b6125215760405162461bcd60e51b815260040180806020018281038252603881526020018061479b6038913960400191505060405180910390fd5b600061252b61395e565b6001600160a01b0383166000908152603f6020526040812054919250901561257c576001600160a01b0383166000908152603f602052604090205461257790839063ffffffff6139df16565b61257f565b60005b6001600160a01b03841660009081526033602052604090205490915015612736576127316126fa60336000866001600160a01b03166001600160a01b0316815260200190815260200160002054610a40603b60009054906101000a90046001600160a01b03166001600160a01b0316639895880f6040518163ffffffff1660e01b815260040160206040518083038186803b15801561261d57600080fd5b505afa158015612631573d6000803e3d6000fd5b505050506040513d602081101561264757600080fd5b50516040805163d7fa113760e01b81526001600160a01b038a811660048301529151919092169163d7fa1137916024808301926020929190829003018186803b15801561269357600080fd5b505afa1580156126a7573d6000803e3d6000fd5b505050506040513d60208110156126bd57600080fd5b50516001600160a01b038816600090815260366020908152604080832060388352818420548452909152902054610a1b908763ffffffff613a2116565b6001600160a01b0385166000908152603d60209081526040808320603f83528184205484529091529020549063ffffffff61390416565b612739565b60005b6001600160a01b0384166000818152603d60209081526040808320878452808352818420958655848452603f83528184208890559287905291815292548151908152905191927fabb9f52b6cb5c079bc60ea0d31e98448916c1b4fdbfea1dda8e2ef9802588bfd92918290030190a2505050565b6220148081565b670de0b6b3a764000081565b603b546040805163cc5738b560e01b815290516000926001600160a01b03169163cc5738b5916004808301926020929190829003018186803b15801561280557600080fd5b505afa158015612819573d6000803e3d6000fd5b505050506040513d602081101561282f57600080fd5b50516001600160a01b03163314806128c85750603b60009054906101000a90046001600160a01b03166001600160a01b03166368cd03f66040518163ffffffff1660e01b815260040160206040518083038186803b15801561289057600080fd5b505afa1580156128a4573d6000803e3d6000fd5b505050506040513d60208110156128ba57600080fd5b50516001600160a01b031633145b6129035760405162461bcd60e51b815260040180806020018281038252603881526020018061479b6038913960400191505060405180910390fd5b81612946576040805162461bcd60e51b815260206004820152600e60248201526d416d6f756e74206973207a65726f60901b604482015290519081900360640190fd5b61294f83612b56565b61295883613460565b603b546040805163346681fb60e11b815290516000926001600160a01b0316916368cd03f6916004808301926020929190829003018186803b15801561299d57600080fd5b505afa1580156129b1573d6000803e3d6000fd5b505050506040513d60208110156129c757600080fd5b505160408051636ce5768960e11b81526001600160a01b0388811660048301528781166024830152604482018790529151919092169163d9caed129160648083019260209291908290030181600087803b158015612a2457600080fd5b505af1158015612a38573d6000803e3d6000fd5b505050506040513d6020811015612a4e57600080fd5b505190506000612a608583600161166d565b90508015612b4d57603b60009054906101000a90046001600160a01b03166001600160a01b031663cc5738b56040518163ffffffff1660e01b815260040160206040518083038186803b158015612ab657600080fd5b505afa158015612aca573d6000803e3d6000fd5b505050506040513d6020811015612ae057600080fd5b50516040805163526e93cb60e01b81526001600160a01b038881166004830152602482018590529151919092169163526e93cb91604480830192600092919082900301818387803b158015612b3457600080fd5b505af1158015612b48573d6000803e3d6000fd5b505050505b50949350505050565b603b60009054906101000a90046001600160a01b03166001600160a01b031663cc5738b56040518163ffffffff1660e01b815260040160206040518083038186803b158015612ba457600080fd5b505afa158015612bb8573d6000803e3d6000fd5b505050506040513d6020811015612bce57600080fd5b50516001600160a01b0316331480612c675750603b60009054906101000a90046001600160a01b03166001600160a01b03166368cd03f66040518163ffffffff1660e01b815260040160206040518083038186803b158015612c2f57600080fd5b505afa158015612c43573d6000803e3d6000fd5b505050506040513d6020811015612c5957600080fd5b50516001600160a01b031633145b612ca25760405162461bcd60e51b815260040180806020018281038252603881526020018061479b6038913960400191505060405180910390fd5b6000612cac61395e565b6001600160a01b038316600090815260386020526040902054909150811415612cd5575061166a565b603b5460408051639895880f60e01b81529051670de0b6b3a7640000926000926001600160a01b0390911691639895880f91600480820192602092909190829003018186803b158015612d2757600080fd5b505afa158015612d3b573d6000803e3d6000fd5b505050506040513d6020811015612d5157600080fd5b505160408051637e5a4eb960e01b81526001600160a01b03878116600483015291519190921691637e5a4eb9916024808301926020929190829003018186803b158015612d9d57600080fd5b505afa158015612db1573d6000803e3d6000fd5b505050506040513d6020811015612dc757600080fd5b50516001600160a01b03851660009081526038602052604090205490915080613062576001600160a01b038216612e52576001600160a01b0385166000818152603a60209081526040808320805460ff19169055603782528083208884528252808320879055838352603682528083208884528252808320879055928252603890522084905561305d565b6001600160a01b038086166000908152603a60209081526040808320805460ff19166001179055805163bd6d894d60e01b81529051929386169263bd6d894d9260048084019391929182900301818787803b158015612eb057600080fd5b505af1158015612ec4573d6000803e3d6000fd5b505050506040513d6020811015612eda57600080fd5b50519050612ee7866137aa565b603a6000886001600160a01b03166001600160a01b0316815260200190815260200160002060010181905550826001600160a01b031663f8f9da286040518163ffffffff1660e01b815260040160206040518083038186803b158015612f4c57600080fd5b505afa158015612f60573d6000803e3d6000fd5b505050506040513d6020811015612f7657600080fd5b50516001600160a01b038088166000908152603a6020908152604091829020600301939093558051630ae9d70b60e41b815290519186169263ae9d70b092600480840193829003018186803b158015612fce57600080fd5b505afa158015612fe2573d6000803e3d6000fd5b505050506040513d6020811015612ff857600080fd5b50516001600160a01b038088166000818152603a6020908152604080832060020195909555603781528482208a83528152848220899055828252603681528482208a835281528482208990559181526038825283812089905591861682526039905220555b613325565b6001600160a01b0382166130fe576001600160a01b0385166000908152603a60205260409020805460ff191690556130998561098d565b6001600160a01b03861660009081526037602090815260408083208884529091529020556130c685611acf565b6001600160a01b0386166000818152603660209081526040808320898452825280832094909455918152603890915220849055613325565b6001600160a01b038086166000908152603a60209081526040808320805460ff19166001179055805163bd6d894d60e01b81529051929386169263bd6d894d9260048084019391929182900301818787803b15801561315c57600080fd5b505af1158015613170573d6000803e3d6000fd5b505050506040513d602081101561318657600080fd5b50519050613193866137aa565b603a6000886001600160a01b03166001600160a01b0316815260200190815260200160002060010181905550826001600160a01b031663f8f9da286040518163ffffffff1660e01b815260040160206040518083038186803b1580156131f857600080fd5b505afa15801561320c573d6000803e3d6000fd5b505050506040513d602081101561322257600080fd5b50516001600160a01b0387166000908152603a60209081526040808320600301939093556038905220546132929061326190879063ffffffff6139df16565b6001600160a01b038516600090815260396020526040902054610a40908790610a0f9083878463ffffffff613a2116565b6001600160a01b0387166000908152603a60205260409020600201556132b78661098d565b6001600160a01b03871660009081526037602090815260408083208984529091529020556132e486611acf565b6001600160a01b0380881660008181526036602090815260408083208b84528252808320959095559181526038825283812089905591861682526039905220555b6001600160a01b038516600090815260376020908152604080832087845290915290205483146133ae576001600160a01b03851660008181526037602090815260408083208584528252808320548884528184205494845260339092529091205461339492610a409190613a21565b6001600160a01b0386166000908152603360205260409020555b6001600160a01b03851660008181526036602052604081207f1cc14bf94d8329e459fdcf4f38c293236b70411487793b5c07ac7448c788c252916133f061395e565b81526020019081526020016000205460376000896001600160a01b03166001600160a01b03168152602001908152602001600020600061342e61395e565b815260200190815260200160002054604051808381526020018281526020019250505060405180910390a25050505050565b603b60009054906101000a90046001600160a01b03166001600160a01b031663cc5738b56040518163ffffffff1660e01b815260040160206040518083038186803b1580156134ae57600080fd5b505afa1580156134c2573d6000803e3d6000fd5b505050506040513d60208110156134d857600080fd5b50516001600160a01b03163314806135715750603b60009054906101000a90046001600160a01b03166001600160a01b03166368cd03f66040518163ffffffff1660e01b815260040160206040518083038186803b15801561353957600080fd5b505afa15801561354d573d6000803e3d6000fd5b505050506040513d602081101561356357600080fd5b50516001600160a01b031633145b6135ac5760405162461bcd60e51b815260040180806020018281038252603881526020018061479b6038913960400191505060405180910390fd5b60006135b661395e565b6001600160a01b0383166000908152603e60205260408120549192509015613607576001600160a01b0383166000908152603e602052604090205461360290839063ffffffff6139df16565b61360a565b60005b905061361583611955565b156137215761371c6136e561362985611955565b603b5460408051639895880f60e01b81529051610a40926001600160a01b031691639895880f916004808301926020929190829003018186803b15801561366f57600080fd5b505afa158015613683573d6000803e3d6000fd5b505050506040513d602081101561369957600080fd5b505160408051637a78a94360e01b81526001600160a01b038a8116600483015291519190921691637a78a943916024808301926020929190829003018186803b15801561269357600080fd5b6001600160a01b0385166000908152603c60209081526040808320603e83528184205484529091529020549063ffffffff61390416565b613724565b60005b6001600160a01b0384166000818152603c60209081526040808320878452808352818420958655848452603e83528184208890559287905291815292548151908152905191927f2aa34452d1f231efd3e8dc3eae64938dbfa82f1b40e2b994e1a395d7ed27ae5b92918290030190a2505050565b60396020526000908152604090205481565b600080603b60009054906101000a90046001600160a01b03166001600160a01b0316639895880f6040518163ffffffff1660e01b815260040160206040518083038186803b1580156137fb57600080fd5b505afa15801561380f573d6000803e3d6000fd5b505050506040513d602081101561382557600080fd5b505160408051637e5a4eb960e01b81526001600160a01b03868116600483015291519190921691637e5a4eb9916024808301926020929190829003018186803b15801561387157600080fd5b505afa158015613885573d6000803e3d6000fd5b505050506040513d602081101561389b57600080fd5b50516001600160a01b0381166000908152603560205260409020549091506138c7576000915050610a52565b6110f96138d384611955565b6001600160a01b038316600090815260356020526040902054610a4090670de0b6b3a764000063ffffffff613a2116565b600082820183811015611a94576040805162461bcd60e51b815260206004820152601b60248201527f536166654d6174683a206164646974696f6e206f766572666c6f770000000000604482015290519081900360640190fd5b6000604060009054906101000a90046001600160a01b03166001600160a01b03166342cbb15c6040518163ffffffff1660e01b815260040160206040518083038186803b1580156139ae57600080fd5b505afa1580156139c2573d6000803e3d6000fd5b505050506040513d60208110156139d857600080fd5b5051905090565b6000611a9483836040518060400160405280601e81526020017f536166654d6174683a207375627472616374696f6e206f766572666c6f7700008152506145b7565b600082613a3057506000610fa1565b82820282848281613a3d57fe5b0414611a945760405162461bcd60e51b815260040180806020018281038252602181526020018061474c6021913960400191505060405180910390fd5b6000611a9483836040518060400160405280601a81526020017f536166654d6174683a206469766973696f6e206279207a65726f00000000000081525061464e565b303b1590565b603b5460408051639895880f60e01b815290516000926001600160a01b031691639895880f916004808301926020929190829003018186803b158015613b0757600080fd5b505afa158015613b1b573d6000803e3d6000fd5b505050506040513d6020811015613b3157600080fd5b505160408051637e5a4eb960e01b81526001600160a01b03858116600483015291519190921691637e5a4eb9916024808301926020929190829003018186803b158015613b7d57600080fd5b505afa158015613b91573d6000803e3d6000fd5b505050506040513d6020811015613ba757600080fd5b505190506001600160a01b0381161561208857806001600160a01b0316633af9e669603b60009054906101000a90046001600160a01b03166001600160a01b031663cc5738b56040518163ffffffff1660e01b815260040160206040518083038186803b158015613c1757600080fd5b505afa158015613c2b573d6000803e3d6000fd5b505050506040513d6020811015613c4157600080fd5b5051604080516001600160e01b031960e085901b1681526001600160a01b0390921660048301525160248083019260209291908290030181600087803b158015613c8a57600080fd5b505af1158015613c9e573d6000803e3d6000fd5b505050506040513d6020811015613cb457600080fd5b50516001600160a01b0382166000908152603560205260409020555050565b600080603b60009054906101000a90046001600160a01b03166001600160a01b0316639895880f6040518163ffffffff1660e01b815260040160206040518083038186803b158015613d2457600080fd5b505afa158015613d38573d6000803e3d6000fd5b505050506040513d6020811015613d4e57600080fd5b505160408051637e5a4eb960e01b81526001600160a01b03888116600483015291519190921691637e5a4eb9916024808301926020929190829003018186803b158015613d9a57600080fd5b505afa158015613dae573d6000803e3d6000fd5b505050506040513d6020811015613dc457600080fd5b505190506000613dd386611955565b90506000846003811115613de357fe5b1480613dfa57506003846003811115613df857fe5b145b156140bc576000846003811115613e0d57fe5b1415613e2a57613e23818663ffffffff61390416565b9050613e6d565b6001600160a01b038616600090815260336020526040902054613e53908663ffffffff6139df16565b6001600160a01b0387166000908152603360205260409020555b6001600160a01b038616600090815260346020526040812054613e96908763ffffffff61390416565b90506001600160a01b03831615801590613f3d5750613f3a6064610a40603b60009054906101000a90046001600160a01b03166001600160a01b031663268c74e46040518163ffffffff1660e01b815260040160206040518083038186803b158015613f0157600080fd5b505afa158015613f15573d6000803e3d6000fd5b505050506040513d6020811015613f2b57600080fd5b5051859063ffffffff613a2116565b81115b15614073576000613fe3613fd66064610a40603b60009054906101000a90046001600160a01b03166001600160a01b031663c36938966040518163ffffffff1660e01b815260040160206040518083038186803b158015613f9d57600080fd5b505afa158015613fb1573d6000803e3d6000fd5b505050506040513d6020811015613fc757600080fd5b5051879063ffffffff613a2116565b839063ffffffff6139df16565b6001600160a01b038516600090815260356020526040902054909550859150614012908263ffffffff61390416565b6001600160a01b03808616600090815260356020908152604080832094909455918b16815260349091522054614054908290610a0f908a63ffffffff61390416565b6001600160a01b038916600090815260346020526040902055506140b6565b6001600160a01b03871660009081526034602052604090205461409c908763ffffffff61390416565b6001600160a01b0388166000908152603460205260409020555b506145ae565b60018460038111156140ca57fe5b14156141b4576001600160a01b0386166000908152603360205260409020541561415057846140f887611e9b565b101561414b576040805162461bcd60e51b815260206004820181905260248201527f4c61636b206f66206c6971756964697479207768656e2077697468647261772e604482015290519081900360640190fd5b6141a4565b8461415a87611e9b565b10156141a4576001600160a01b03821660009081526035602052604090205461418a90869063ffffffff6139df16565b6001600160a01b0387166000908152603460205260409020555b6141ad86611955565b9050614211565b846141be87611e9b565b1015614211576040805162461bcd60e51b815260206004820152601e60248201527f4c61636b206f66206c6971756964697479207768656e20626f72726f772e0000604482015290519081900360640190fd5b600184600381111561421f57fe5b141561423c57614235818663ffffffff6139df16565b905061427f565b6001600160a01b038616600090815260336020526040902054614265908663ffffffff61390416565b6001600160a01b0387166000908152603360205260409020555b6001600160a01b03861660009081526034602052604081205486106142a55760006142ce565b6001600160a01b0387166000908152603460205260409020546142ce908763ffffffff6139df16565b90506001600160a01b03831615801590614344575081158061434457506143416064610a40603b60009054906101000a90046001600160a01b03166001600160a01b0316635a596d1c6040518163ffffffff1660e01b815260040160206040518083038186803b158015613f0157600080fd5b81105b15614569576001600160a01b03808416600090815260356020908152604080832054938b1683526034909152812054909161438b918991610a0f919063ffffffff61390416565b905061441c6064610a40603b60009054906101000a90046001600160a01b03166001600160a01b031663c36938966040518163ffffffff1660e01b815260040160206040518083038186803b1580156143e357600080fd5b505afa1580156143f7573d6000803e3d6000fd5b505050506040513d602081101561440d57600080fd5b5051869063ffffffff613a2116565b81101561445b576001600160a01b038085166000908152603560209081526040808320805490849055938c168352603490915290208290559450614563565b60006144ef613fd66064610a40603b60009054906101000a90046001600160a01b03166001600160a01b031663c36938966040518163ffffffff1660e01b815260040160206040518083038186803b1580156144b657600080fd5b505afa1580156144ca573d6000803e3d6000fd5b505050506040513d60208110156144e057600080fd5b5051889063ffffffff613a2116565b6001600160a01b03861660009081526035602052604090205490915061451b908263ffffffff6139df16565b6001600160a01b03861660009081526035602052604090208290559550614548828263ffffffff6139df16565b6001600160a01b038a16600090815260346020526040902055505b506145ac565b6001600160a01b038716600090815260346020526040902054614592908763ffffffff6139df16565b6001600160a01b0388166000908152603460205260409020555b505b50509392505050565b600081848411156146465760405162461bcd60e51b81526004018080602001828103825283818151815260200191508051906020019080838360005b8381101561460b5781810151838201526020016145f3565b50505050905090810190601f1680156146385780820380516001836020036101000a031916815260200191505b509250505060405180910390fd5b505050900390565b6000818361469d5760405162461bcd60e51b815260206004820181815283516024840152835190928392604490910191908501908083836000831561460b5781810151838201526020016145f3565b5060008385816146a957fe5b049594505050505056fe5f6465706f736974526174655265636f72645374617274206973206e6f74206120636865636b20706f696e74206f6e20696e6465782063757276652e546f6b656e20426f72726f775072696e636970616c206d7573742062652067726561746572207468616e20302e20546f206465706f7369742062616c616e63652c20706c6561736520757365206465706f73697420627574746f6e2e536166654d6174683a206d756c7469706c69636174696f6e206f766572666c6f77436f6e747261637420696e7374616e63652068617320616c7265616479206265656e20696e697469616c697a65644f6e6c7920617574686f72697a656420746f2063616c6c2066726f6d20446546696e657220696e7465726e616c20636f6e7472616374732e5f626f72726f77526174655265636f72645374617274206973206e6f74206120636865636b20706f696e74206f6e20696e6465782063757276652ea265627a7a7231582036d3060f02e99643f50d248db429690acd663c9ff62c55638df08d7e4f71c37464736f6c634300050e0032",
  "source": "pragma solidity 0.5.14;\n\nimport \"../Bank.sol\";\nimport { IController } from \"../compound/ICompound.sol\";\n\ncontract BankWithController is Bank {\n\n    address comptroller;\n\n    function initialize(\n        GlobalConfig _globalConfig,\n        address _comptroller\n    ) external initializer {\n        super.initialize(_globalConfig); // expected 3 passed 5 args\n        comptroller = _comptroller;\n    }\n\n    function getBlockNumber() private view returns (uint) {\n        return IController(comptroller).getBlockNumber();\n    }\n}",
  "sourcePath": "/Users/yanyichun/project/Savings/contracts/mocks/BankWithController.sol",
  "compiler": {
    "name": "solc",
    "version": "0.5.14+commit.01f1aaa4.Emscripten.clang"
  },
  "schemaVersion": "3.2.3",
  "updatedAt": "2021-02-25T05:55:41.092Z",
  "devdoc": {
    "methods": {
      "borrowRateIndexNow(address)": {
        "params": {
          "_token": "token address"
        }
      },
      "depositRateIndexNow(address)": {
        "details": "This is an looking forward estimation from last checkpoint and not the exactly rate that the user will pay or earn. sichaoy: to make the notation consistent, change the name from depositRateIndexNow to depositRateIndexCurrent",
        "params": {
          "_token": "token address"
        }
      },
      "getBorrowAccruedRate(address,uint256)": {
        "details": "This function should always be called after current block is set as a new rateIndex point.",
        "params": {
          "_borrowRateRecordStart": "the start block of the interval",
          "_token": "token address"
        }
      },
      "getBorrowRatePerBlock(address)": {
        "params": {
          "_token": "token address"
        },
        "return": "the borrow rate for the current block"
      },
      "getCapitalCompoundRatio(address)": {
        "params": {
          "_token": "token address"
        }
      },
      "getCapitalUtilizationRatio(address)": {
        "params": {
          "_token": "token address"
        }
      },
      "getDepositAccruedRate(address,uint256)": {
        "details": "This function should always be called after current block is set as a new rateIndex point.",
        "params": {
          "_depositRateRecordStart": "the start block of the interval",
          "_token": "token address"
        }
      },
      "getDepositRatePerBlock(address)": {
        "params": {
          "_token": "token address"
        },
        "return": "deposite rate of blocks before the current block"
      },
      "getTokenState(address)": {
        "params": {
          "_token": "token address"
        }
      },
      "getTotalDepositStore(address)": {
        "params": {
          "_token": "token address"
        }
      },
      "initialize(address)": {
        "params": {
          "_globalConfig": "the global configuration contract"
        }
      },
      "newRateIndexCheckpoint(address)": {
        "details": "The rate set at the checkpoint is the rate from the last checkpoint to this checkpoint",
        "params": {
          "_token": "token address"
        }
      },
      "withdraw(address,address,uint256)": {
        "params": {
          "_amount": "amount to be withdrawn",
          "_from": "address to be withdrawn from",
          "_token": "token address"
        },
        "return": "The actually amount withdrawed, which will be the amount requested minus the commission fee."
      }
    }
  },
  "userdoc": {
    "methods": {
      "borrowRateIndexNow(address)": {
        "notice": "Calculate a token borrow rate of current block"
      },
      "depositRateIndexNow(address)": {
        "notice": "Calculate a token deposite rate of current block"
      },
      "getBorrowAccruedRate(address,uint256)": {
        "notice": "Get the cummulative borrow rate in a block interval ending in current block"
      },
      "getBorrowRatePerBlock(address)": {
        "notice": "Get the borrowing interest rate Borrowing interest rate."
      },
      "getCapitalCompoundRatio(address)": {
        "notice": "Ratio of the capital in Compound"
      },
      "getCapitalUtilizationRatio(address)": {
        "notice": "Get capital utilization. Capital Utilization Rate (U )= total loan outstanding / Total market deposit"
      },
      "getDepositAccruedRate(address,uint256)": {
        "notice": "It's a utility function. Get the cummulative deposit rate in a block interval ending in current block"
      },
      "getDepositRatePerBlock(address)": {
        "notice": "Get Deposit Rate.  Deposit APR = (Borrow APR * Utilization Rate (U) +  Compound Supply Rate * Capital Compound Ratio (C) )* (1- DeFiner Community Fund Ratio (D)). The scaling is 10 ** 18 sichaoy: make sure the ratePerBlock is zero if both U and C are zero."
      },
      "getTokenState(address)": {
        "notice": "Get the state of the given token"
      },
      "getTotalDepositStore(address)": {
        "notice": "Total amount of the token in Saving account"
      },
      "initialize(address)": {
        "notice": "Initialize the Bank"
      },
      "newRateIndexCheckpoint(address)": {
        "notice": "Set a new rate index checkpoint."
      },
      "withdraw(address,address,uint256)": {
        "notice": "Withdraw a token from an address"
      }
    }
  }
}