{
  "contractName": "Bank",
  "abi": [
    {
      "anonymous": false,
      "inputs": [
        {
          "indexed": true,
          "internalType": "address",
          "name": "_token",
          "type": "address"
        },
        {
          "indexed": false,
          "internalType": "uint256",
          "name": "borrowFINRateIndex",
          "type": "uint256"
        }
      ],
      "name": "UpdateBorrowFINIndex",
      "type": "event"
    },
    {
      "anonymous": false,
      "inputs": [
        {
          "indexed": true,
          "internalType": "address",
          "name": "_token",
          "type": "address"
        },
        {
          "indexed": false,
          "internalType": "uint256",
          "name": "depositFINRateIndex",
          "type": "uint256"
        }
      ],
      "name": "UpdateDepositFINIndex",
      "type": "event"
    },
    {
      "anonymous": false,
      "inputs": [
        {
          "indexed": true,
          "internalType": "address",
          "name": "token",
          "type": "address"
        },
        {
          "indexed": false,
          "internalType": "uint256",
          "name": "depositeRateIndex",
          "type": "uint256"
        },
        {
          "indexed": false,
          "internalType": "uint256",
          "name": "borrowRateIndex",
          "type": "uint256"
        }
      ],
      "name": "UpdateIndex",
      "type": "event"
    },
    {
      "constant": true,
      "inputs": [],
      "name": "ACCURACY",
      "outputs": [
        {
          "internalType": "uint256",
          "name": "",
          "type": "uint256"
        }
      ],
      "payable": false,
      "stateMutability": "view",
      "type": "function"
    },
    {
      "constant": true,
      "inputs": [],
      "name": "BLOCKS_PER_YEAR",
      "outputs": [
        {
          "internalType": "uint256",
          "name": "",
          "type": "uint256"
        }
      ],
      "payable": false,
      "stateMutability": "view",
      "type": "function"
    },
    {
      "constant": true,
      "inputs": [],
      "name": "EMERGENCY_ADDR",
      "outputs": [
        {
          "internalType": "address payable",
          "name": "",
          "type": "address"
        }
      ],
      "payable": false,
      "stateMutability": "view",
      "type": "function"
    },
    {
      "constant": true,
      "inputs": [],
      "name": "ETH_ADDR",
      "outputs": [
        {
          "internalType": "address",
          "name": "",
          "type": "address"
        }
      ],
      "payable": false,
      "stateMutability": "view",
      "type": "function"
    },
    {
      "constant": true,
      "inputs": [],
      "name": "INT_UNIT",
      "outputs": [
        {
          "internalType": "uint256",
          "name": "",
          "type": "uint256"
        }
      ],
      "payable": false,
      "stateMutability": "view",
      "type": "function"
    },
    {
      "constant": true,
      "inputs": [
        {
          "internalType": "address",
          "name": "",
          "type": "address"
        },
        {
          "internalType": "uint256",
          "name": "",
          "type": "uint256"
        }
      ],
      "name": "borrowFINRateIndex",
      "outputs": [
        {
          "internalType": "uint256",
          "name": "",
          "type": "uint256"
        }
      ],
      "payable": false,
      "stateMutability": "view",
      "type": "function"
    },
    {
      "constant": true,
      "inputs": [
        {
          "internalType": "address",
          "name": "",
          "type": "address"
        },
        {
          "internalType": "uint256",
          "name": "",
          "type": "uint256"
        }
      ],
      "name": "borrowRateIndex",
      "outputs": [
        {
          "internalType": "uint256",
          "name": "",
          "type": "uint256"
        }
      ],
      "payable": false,
      "stateMutability": "view",
      "type": "function"
    },
    {
      "constant": true,
      "inputs": [
        {
          "internalType": "address",
          "name": "",
          "type": "address"
        },
        {
          "internalType": "uint256",
          "name": "",
          "type": "uint256"
        }
      ],
      "name": "depositFINRateIndex",
      "outputs": [
        {
          "internalType": "uint256",
          "name": "",
          "type": "uint256"
        }
      ],
      "payable": false,
      "stateMutability": "view",
      "type": "function"
    },
    {
      "constant": true,
      "inputs": [
        {
          "internalType": "address",
          "name": "",
          "type": "address"
        },
        {
          "internalType": "uint256",
          "name": "",
          "type": "uint256"
        }
      ],
      "name": "depositeRateIndex",
      "outputs": [
        {
          "internalType": "uint256",
          "name": "",
          "type": "uint256"
        }
      ],
      "payable": false,
      "stateMutability": "view",
      "type": "function"
    },
    {
      "constant": true,
      "inputs": [
        {
          "internalType": "address",
          "name": "",
          "type": "address"
        }
      ],
      "name": "lastBorrowFINRateCheckpoint",
      "outputs": [
        {
          "internalType": "uint256",
          "name": "",
          "type": "uint256"
        }
      ],
      "payable": false,
      "stateMutability": "view",
      "type": "function"
    },
    {
      "constant": true,
      "inputs": [
        {
          "internalType": "address",
          "name": "",
          "type": "address"
        }
      ],
      "name": "lastCTokenExchangeRate",
      "outputs": [
        {
          "internalType": "uint256",
          "name": "",
          "type": "uint256"
        }
      ],
      "payable": false,
      "stateMutability": "view",
      "type": "function"
    },
    {
      "constant": true,
      "inputs": [
        {
          "internalType": "address",
          "name": "",
          "type": "address"
        }
      ],
      "name": "lastCheckpoint",
      "outputs": [
        {
          "internalType": "uint256",
          "name": "",
          "type": "uint256"
        }
      ],
      "payable": false,
      "stateMutability": "view",
      "type": "function"
    },
    {
      "constant": true,
      "inputs": [
        {
          "internalType": "address",
          "name": "",
          "type": "address"
        }
      ],
      "name": "lastDepositeFINRateCheckpoint",
      "outputs": [
        {
          "internalType": "uint256",
          "name": "",
          "type": "uint256"
        }
      ],
      "payable": false,
      "stateMutability": "view",
      "type": "function"
    },
    {
      "constant": true,
      "inputs": [
        {
          "internalType": "address",
          "name": "",
          "type": "address"
        }
      ],
      "name": "totalCompound",
      "outputs": [
        {
          "internalType": "uint256",
          "name": "",
          "type": "uint256"
        }
      ],
      "payable": false,
      "stateMutability": "view",
      "type": "function"
    },
    {
      "constant": true,
      "inputs": [
        {
          "internalType": "address",
          "name": "",
          "type": "address"
        }
      ],
      "name": "totalLoans",
      "outputs": [
        {
          "internalType": "uint256",
          "name": "",
          "type": "uint256"
        }
      ],
      "payable": false,
      "stateMutability": "view",
      "type": "function"
    },
    {
      "constant": true,
      "inputs": [
        {
          "internalType": "address",
          "name": "",
          "type": "address"
        }
      ],
      "name": "totalReserve",
      "outputs": [
        {
          "internalType": "uint256",
          "name": "",
          "type": "uint256"
        }
      ],
      "payable": false,
      "stateMutability": "view",
      "type": "function"
    },
    {
      "constant": false,
      "inputs": [
        {
          "internalType": "contract GlobalConfig",
          "name": "_globalConfig",
          "type": "address"
        }
      ],
      "name": "initialize",
      "outputs": [],
      "payable": false,
      "stateMutability": "nonpayable",
      "type": "function"
    },
    {
      "constant": true,
      "inputs": [
        {
          "internalType": "address",
          "name": "_token",
          "type": "address"
        }
      ],
      "name": "getTotalDepositStore",
      "outputs": [
        {
          "internalType": "uint256",
          "name": "",
          "type": "uint256"
        }
      ],
      "payable": false,
      "stateMutability": "view",
      "type": "function"
    },
    {
      "constant": false,
      "inputs": [
        {
          "internalType": "address",
          "name": "_token",
          "type": "address"
        },
        {
          "internalType": "uint256",
          "name": "_amount",
          "type": "uint256"
        },
        {
          "internalType": "enum Constant.ActionType",
          "name": "_action",
          "type": "uint8"
        }
      ],
      "name": "update",
      "outputs": [
        {
          "internalType": "uint256",
          "name": "compoundAmount",
          "type": "uint256"
        }
      ],
      "payable": false,
      "stateMutability": "nonpayable",
      "type": "function"
    },
    {
      "constant": false,
      "inputs": [
        {
          "internalType": "address",
          "name": "_token",
          "type": "address"
        }
      ],
      "name": "updateDepositFINIndex",
      "outputs": [],
      "payable": false,
      "stateMutability": "nonpayable",
      "type": "function"
    },
    {
      "constant": false,
      "inputs": [
        {
          "internalType": "address",
          "name": "_token",
          "type": "address"
        }
      ],
      "name": "updateBorrowFINIndex",
      "outputs": [],
      "payable": false,
      "stateMutability": "nonpayable",
      "type": "function"
    },
    {
      "constant": false,
      "inputs": [
        {
          "internalType": "address",
          "name": "_token",
          "type": "address"
        }
      ],
      "name": "updateMining",
      "outputs": [],
      "payable": false,
      "stateMutability": "nonpayable",
      "type": "function"
    },
    {
      "constant": true,
      "inputs": [
        {
          "internalType": "address",
          "name": "_token",
          "type": "address"
        }
      ],
      "name": "getBorrowRatePerBlock",
      "outputs": [
        {
          "internalType": "uint256",
          "name": "",
          "type": "uint256"
        }
      ],
      "payable": false,
      "stateMutability": "view",
      "type": "function"
    },
    {
      "constant": true,
      "inputs": [
        {
          "internalType": "address",
          "name": "_token",
          "type": "address"
        }
      ],
      "name": "getDepositRatePerBlock",
      "outputs": [
        {
          "internalType": "uint256",
          "name": "",
          "type": "uint256"
        }
      ],
      "payable": false,
      "stateMutability": "view",
      "type": "function"
    },
    {
      "constant": true,
      "inputs": [
        {
          "internalType": "address",
          "name": "_token",
          "type": "address"
        }
      ],
      "name": "getCapitalUtilizationRatio",
      "outputs": [
        {
          "internalType": "uint256",
          "name": "",
          "type": "uint256"
        }
      ],
      "payable": false,
      "stateMutability": "view",
      "type": "function"
    },
    {
      "constant": true,
      "inputs": [
        {
          "internalType": "address",
          "name": "_token",
          "type": "address"
        }
      ],
      "name": "getCapitalCompoundRatio",
      "outputs": [
        {
          "internalType": "uint256",
          "name": "",
          "type": "uint256"
        }
      ],
      "payable": false,
      "stateMutability": "view",
      "type": "function"
    },
    {
      "constant": true,
      "inputs": [
        {
          "internalType": "address",
          "name": "_token",
          "type": "address"
        },
        {
          "internalType": "uint256",
          "name": "_depositRateRecordStart",
          "type": "uint256"
        }
      ],
      "name": "getDepositAccruedRate",
      "outputs": [
        {
          "internalType": "uint256",
          "name": "",
          "type": "uint256"
        }
      ],
      "payable": false,
      "stateMutability": "view",
      "type": "function"
    },
    {
      "constant": true,
      "inputs": [
        {
          "internalType": "address",
          "name": "_token",
          "type": "address"
        },
        {
          "internalType": "uint256",
          "name": "_borrowRateRecordStart",
          "type": "uint256"
        }
      ],
      "name": "getBorrowAccruedRate",
      "outputs": [
        {
          "internalType": "uint256",
          "name": "",
          "type": "uint256"
        }
      ],
      "payable": false,
      "stateMutability": "view",
      "type": "function"
    },
    {
      "constant": false,
      "inputs": [
        {
          "internalType": "address",
          "name": "_token",
          "type": "address"
        }
      ],
      "name": "newRateIndexCheckpoint",
      "outputs": [],
      "payable": false,
      "stateMutability": "nonpayable",
      "type": "function"
    },
    {
      "constant": true,
      "inputs": [
        {
          "internalType": "address",
          "name": "_token",
          "type": "address"
        }
      ],
      "name": "depositRateIndexNow",
      "outputs": [
        {
          "internalType": "uint256",
          "name": "",
          "type": "uint256"
        }
      ],
      "payable": false,
      "stateMutability": "view",
      "type": "function"
    },
    {
      "constant": true,
      "inputs": [
        {
          "internalType": "address",
          "name": "_token",
          "type": "address"
        }
      ],
      "name": "borrowRateIndexNow",
      "outputs": [
        {
          "internalType": "uint256",
          "name": "",
          "type": "uint256"
        }
      ],
      "payable": false,
      "stateMutability": "view",
      "type": "function"
    },
    {
      "constant": true,
      "inputs": [
        {
          "internalType": "address",
          "name": "_token",
          "type": "address"
        }
      ],
      "name": "getTokenState",
      "outputs": [
        {
          "internalType": "uint256",
          "name": "deposits",
          "type": "uint256"
        },
        {
          "internalType": "uint256",
          "name": "loans",
          "type": "uint256"
        },
        {
          "internalType": "uint256",
          "name": "reserveBalance",
          "type": "uint256"
        },
        {
          "internalType": "uint256",
          "name": "remainingAssets",
          "type": "uint256"
        }
      ],
      "payable": false,
      "stateMutability": "view",
      "type": "function"
    },
    {
      "constant": true,
      "inputs": [
        {
          "internalType": "address",
          "name": "_token",
          "type": "address"
        }
      ],
      "name": "getPoolAmount",
      "outputs": [
        {
          "internalType": "uint256",
          "name": "",
          "type": "uint256"
        }
      ],
      "payable": false,
      "stateMutability": "view",
      "type": "function"
    },
    {
      "constant": false,
      "inputs": [
        {
          "internalType": "address",
          "name": "_to",
          "type": "address"
        },
        {
          "internalType": "address",
          "name": "_token",
          "type": "address"
        },
        {
          "internalType": "uint256",
          "name": "_amount",
          "type": "uint256"
        }
      ],
      "name": "deposit",
      "outputs": [],
      "payable": false,
      "stateMutability": "nonpayable",
      "type": "function"
    },
    {
      "constant": false,
      "inputs": [
        {
          "internalType": "address",
          "name": "_from",
          "type": "address"
        },
        {
          "internalType": "address",
          "name": "_token",
          "type": "address"
        },
        {
          "internalType": "uint256",
          "name": "_amount",
          "type": "uint256"
        }
      ],
      "name": "borrow",
      "outputs": [],
      "payable": false,
      "stateMutability": "nonpayable",
      "type": "function"
    },
    {
      "constant": false,
      "inputs": [
        {
          "internalType": "address",
          "name": "_to",
          "type": "address"
        },
        {
          "internalType": "address",
          "name": "_token",
          "type": "address"
        },
        {
          "internalType": "uint256",
          "name": "_amount",
          "type": "uint256"
        }
      ],
      "name": "repay",
      "outputs": [
        {
          "internalType": "uint256",
          "name": "",
          "type": "uint256"
        }
      ],
      "payable": false,
      "stateMutability": "nonpayable",
      "type": "function"
    },
    {
      "constant": false,
      "inputs": [
        {
          "internalType": "address",
          "name": "_from",
          "type": "address"
        },
        {
          "internalType": "address",
          "name": "_token",
          "type": "address"
        },
        {
          "internalType": "uint256",
          "name": "_amount",
          "type": "uint256"
        }
      ],
      "name": "withdraw",
      "outputs": [
        {
          "internalType": "uint256",
          "name": "",
          "type": "uint256"
        }
      ],
      "payable": false,
      "stateMutability": "nonpayable",
      "type": "function"
    }
  ],
  "bytecode": "0x608060405234801561001057600080fd5b506146c4806100206000396000f3fe608060405234801561001057600080fd5b50600436106102275760003560e01c80636dae2fa511610130578063c9ca7d31116100b8578063de34b0f41161007c578063de34b0f41461073d578063e0b5a66414610763578063e9ace6d914610789578063f4871966146107af578063fbcd9b05146106ff57610227565b8063c9ca7d31146106ab578063d2796a93146106d1578063d37db1d2146106f7578063d8c2d84c146106ff578063d9caed121461070757610227565b80637aa473d1116100ff5780637aa473d1146105d75780637ebff3d5146106035780638340f54914610629578063945eb7641461065f578063c4d66de81461068557610227565b80636dae2fa51461055d5780636e5d84ba1461058357806374a23843146105a95780637753f47b146105cf57610227565b8063398a0c46116101b35780635467cec4116101825780635467cec41461048657806356697310146104aa5780635a80c497146104d65780635f85ca471461050257806362e4a78c1461052857610227565b8063398a0c46146103dc5780634d770570146104025780634e7e36e2146104285780635224372c1461044e57610227565b80631ff4443c116101fa5780631ff4443c1461031257806329aa42181461033e5780632d6cb68114610364578063343340f41461039057806337a58b15146103b657610227565b80630603c2221461022c5780630b3eb9701461026a5780630b574443146102b65780631da649cf146102dc575b600080fd5b6102586004803603604081101561024257600080fd5b506001600160a01b0381351690602001356107d5565b60408051918252519081900360200190f35b6102906004803603602081101561028057600080fd5b50356001600160a01b03166107f2565b604080519485526020850193909352838301919091526060830152519081900360800190f35b610258600480360360208110156102cc57600080fd5b50356001600160a01b0316610954565b610258600480360360608110156102f257600080fd5b506001600160a01b03813581169160208101359091169060400135610a1e565b6102586004803603604081101561032857600080fd5b506001600160a01b038135169060200135610ebc565b6102586004803603602081101561035457600080fd5b50356001600160a01b0316610ed9565b6102586004803603604081101561037a57600080fd5b506001600160a01b038135169060200135610eeb565b610258600480360360208110156103a657600080fd5b50356001600160a01b0316610f6e565b610258600480360360208110156103cc57600080fd5b50356001600160a01b0316610f80565b610258600480360360208110156103f257600080fd5b50356001600160a01b0316610f92565b6102586004803603602081101561041857600080fd5b50356001600160a01b0316610fa4565b6102586004803603602081101561043e57600080fd5b50356001600160a01b0316611000565b6104846004803603606081101561046457600080fd5b506001600160a01b03813581169160208101359091169060400135611012565b005b61048e61135d565b604080516001600160a01b039092168252519081900360200190f35b610258600480360360408110156104c057600080fd5b506001600160a01b038135169060200135611375565b610258600480360360408110156104ec57600080fd5b506001600160a01b038135169060200135611392565b6104846004803603602081101561051857600080fd5b50356001600160a01b031661140b565b6102586004803603606081101561053e57600080fd5b5080356001600160a01b0316906020810135906040013560ff1661156c565b6102586004803603602081101561057357600080fd5b50356001600160a01b03166116cb565b6102586004803603602081101561059957600080fd5b50356001600160a01b0316611854565b610258600480360360208110156105bf57600080fd5b50356001600160a01b031661199a565b61048e6119ac565b610258600480360360408110156105ed57600080fd5b506001600160a01b0381351690602001356119b1565b6102586004803603602081101561061957600080fd5b50356001600160a01b03166119ce565b6104846004803603606081101561063f57600080fd5b506001600160a01b03813581169160208101359091169060400135611a2b565b6102586004803603602081101561067557600080fd5b50356001600160a01b0316611d9a565b6104846004803603602081101561069b57600080fd5b50356001600160a01b0316611ecd565b610258600480360360208110156106c157600080fd5b50356001600160a01b0316611f8b565b610484600480360360208110156106e757600080fd5b50356001600160a01b03166122d4565b6102586126ac565b6102586126b3565b6102586004803603606081101561071d57600080fd5b506001600160a01b038135811691602081013590911690604001356126bf565b6104846004803603602081101561075357600080fd5b50356001600160a01b0316612a55565b6104846004803603602081101561077957600080fd5b50356001600160a01b031661335f565b6102586004803603602081101561079f57600080fd5b50356001600160a01b0316613697565b610258600480360360208110156107c557600080fd5b50356001600160a01b03166136a9565b603d60209081526000928352604080842090915290825290205481565b60008060008061080185611854565b6001600160a01b038087166000908152603360209081526040808320546034835281842054603b548351639895880f60e01b81529351929691956109459560359591949290931692639895880f92600480840193829003018186803b15801561086957600080fd5b505afa15801561087d573d6000803e3d6000fd5b505050506040513d602081101561089357600080fd5b505160408051637e5a4eb960e01b81526001600160a01b038e8116600483015291519190921691637e5a4eb9916024808301926020929190829003018186803b1580156108df57600080fd5b505afa1580156108f3573d6000803e3d6000fd5b505050506040513d602081101561090957600080fd5b50516001600160a01b0390811682526020828101939093526040918201600090812054918d16815260349093529120549063ffffffff61380316565b93509350935093509193509193565b6001600160a01b038116600090815260386020526040812054806109835750670de0b6b3a76400009050610a19565b6001600160a01b0383166000908152603760209081526040808320848452909152812054906109b185611f8b565b9050610a13670de0b6b3a7640000610a076109fa826109ee866109e28a6109d661385d565b9063ffffffff61386116565b9063ffffffff6138a316565b9063ffffffff61380316565b859063ffffffff6138a316565b9063ffffffff6138fc16565b93505050505b919050565b603b546040805163cc5738b560e01b815290516000926001600160a01b03169163cc5738b5916004808301926020929190829003018186803b158015610a6357600080fd5b505afa158015610a77573d6000803e3d6000fd5b505050506040513d6020811015610a8d57600080fd5b50516001600160a01b0316331480610b265750603b60009054906101000a90046001600160a01b03166001600160a01b03166368cd03f66040518163ffffffff1660e01b815260040160206040518083038186803b158015610aee57600080fd5b505afa158015610b02573d6000803e3d6000fd5b505050506040513d6020811015610b1857600080fd5b50516001600160a01b031633145b610b615760405162461bcd60e51b815260040180806020018281038252603881526020018061461d6038913960400191505060405180910390fd5b610b6a83612a55565b610b73836122d4565b603b546040805163346681fb60e11b815290516000926001600160a01b0316916368cd03f6916004808301926020929190829003018186803b158015610bb857600080fd5b505afa158015610bcc573d6000803e3d6000fd5b505050506040513d6020811015610be257600080fd5b505160408051638224b89960e01b81526001600160a01b038881166004830152878116602483015291519190921691638224b899916044808301926020929190829003018186803b158015610c3657600080fd5b505afa158015610c4a573d6000803e3d6000fd5b505050506040513d6020811015610c6057600080fd5b505111610c9e5760405162461bcd60e51b815260040180806020018281038252605c815260200180614572605c913960600191505060405180910390fd5b603b546040805163346681fb60e11b815290516000926001600160a01b0316916368cd03f6916004808301926020929190829003018186803b158015610ce357600080fd5b505afa158015610cf7573d6000803e3d6000fd5b505050506040513d6020811015610d0d57600080fd5b505160408051631da649cf60e01b81526001600160a01b03888116600483015287811660248301526044820187905291519190921691631da649cf9160648083019260209291908290030181600087803b158015610d6a57600080fd5b505af1158015610d7e573d6000803e3d6000fd5b505050506040513d6020811015610d9457600080fd5b505190506000610db585610dae868563ffffffff61386116565b600361156c565b90508015610ea257603b60009054906101000a90046001600160a01b03166001600160a01b031663cc5738b56040518163ffffffff1660e01b815260040160206040518083038186803b158015610e0b57600080fd5b505afa158015610e1f573d6000803e3d6000fd5b505050506040513d6020811015610e3557600080fd5b505160408051638280e5a960e01b81526001600160a01b0388811660048301526024820185905291519190921691638280e5a991604480830192600092919082900301818387803b158015610e8957600080fd5b505af1158015610e9d573d6000803e3d6000fd5b505050505b610eb2848363ffffffff61386116565b9695505050505050565b603660209081526000928352604080842090915290825290205481565b603f6020526000908152604090205481565b6001600160a01b038216600090815260376020908152604080832084845290915281205480610f4b5760405162461bcd60e51b815260040180806020018281038252603b815260200180614655603b913960400191505060405180910390fd5b610f6481610a07670de0b6b3a76400006109e288610954565b9150505b92915050565b60336020526000908152604090205481565b60356020526000908152604090205481565b603e6020526000908152604090205481565b600080610fb083611854565b905080610fc1576000915050610a19565b6001600160a01b038316600090815260336020526040902054610ff8908290610a0790670de0b6b3a764000063ffffffff6138a316565b915050610a19565b60346020526000908152604090205481565b603b60009054906101000a90046001600160a01b03166001600160a01b031663cc5738b56040518163ffffffff1660e01b815260040160206040518083038186803b15801561106057600080fd5b505afa158015611074573d6000803e3d6000fd5b505050506040513d602081101561108a57600080fd5b50516001600160a01b03163314806111235750603b60009054906101000a90046001600160a01b03166001600160a01b03166368cd03f66040518163ffffffff1660e01b815260040160206040518083038186803b1580156110eb57600080fd5b505afa1580156110ff573d6000803e3d6000fd5b505050506040513d602081101561111557600080fd5b50516001600160a01b031633145b61115e5760405162461bcd60e51b815260040180806020018281038252603881526020018061461d6038913960400191505060405180910390fd5b61116782612a55565b611170826122d4565b603b60009054906101000a90046001600160a01b03166001600160a01b03166368cd03f66040518163ffffffff1660e01b815260040160206040518083038186803b1580156111be57600080fd5b505afa1580156111d2573d6000803e3d6000fd5b505050506040513d60208110156111e857600080fd5b5051604080516314890dcb60e21b81526001600160a01b03868116600483015285811660248301526044820185905291519190921691635224372c91606480830192600092919082900301818387803b15801561124457600080fd5b505af1158015611258573d6000803e3d6000fd5b50505050600061126a8383600261156c565b9050801561135757603b60009054906101000a90046001600160a01b03166001600160a01b031663cc5738b56040518163ffffffff1660e01b815260040160206040518083038186803b1580156112c057600080fd5b505afa1580156112d4573d6000803e3d6000fd5b505050506040513d60208110156112ea57600080fd5b50516040805163526e93cb60e01b81526001600160a01b038681166004830152602482018590529151919092169163526e93cb91604480830192600092919082900301818387803b15801561133e57600080fd5b505af1158015611352573d6000803e3d6000fd5b505050505b50505050565b73c04158f7db6f9c9ffbd5593236a1a3d69f92167c81565b603c60209081526000928352604080842090915290825290205481565b6001600160a01b0382166000908152603660209081526040808320848452909152812054806113f25760405162461bcd60e51b815260040180806020018281038252603c815260200180614536603c913960400191505060405180910390fd5b610f6481610a07670de0b6b3a76400006109e2886119ce565b603b60009054906101000a90046001600160a01b03166001600160a01b031663cc5738b56040518163ffffffff1660e01b815260040160206040518083038186803b15801561145957600080fd5b505afa15801561146d573d6000803e3d6000fd5b505050506040513d602081101561148357600080fd5b50516001600160a01b031633148061151c5750603b60009054906101000a90046001600160a01b03166001600160a01b03166368cd03f66040518163ffffffff1660e01b815260040160206040518083038186803b1580156114e457600080fd5b505afa1580156114f8573d6000803e3d6000fd5b505050506040513d602081101561150e57600080fd5b50516001600160a01b031633145b6115575760405162461bcd60e51b815260040180806020018281038252603881526020018061461d6038913960400191505060405180910390fd5b61156081612a55565b6115698161393e565b50565b603b546040805163cc5738b560e01b815290516000926001600160a01b03169163cc5738b5916004808301926020929190829003018186803b1580156115b157600080fd5b505afa1580156115c5573d6000803e3d6000fd5b505050506040513d60208110156115db57600080fd5b50516001600160a01b03163314806116745750603b60009054906101000a90046001600160a01b03166001600160a01b03166368cd03f66040518163ffffffff1660e01b815260040160206040518083038186803b15801561163c57600080fd5b505afa158015611650573d6000803e3d6000fd5b505050506040513d602081101561166657600080fd5b50516001600160a01b031633145b6116af5760405162461bcd60e51b815260040180806020018281038252603881526020018061461d6038913960400191505060405180910390fd5b6116b88461393e565b6116c3848484613b4f565b949350505050565b6000806116d783611f8b565b905060006116e484610fa4565b9050603b60009054906101000a90046001600160a01b03166001600160a01b0316639895880f6040518163ffffffff1660e01b815260040160206040518083038186803b15801561173457600080fd5b505afa158015611748573d6000803e3d6000fd5b505050506040513d602081101561175e57600080fd5b505160408051630e525ed960e21b81526001600160a01b038781166004830152915191909216916339497b64916024808301926020929190829003018186803b1580156117aa57600080fd5b505afa1580156117be573d6000803e3d6000fd5b505050506040513d60208110156117d457600080fd5b50516117ff576117f6670de0b6b3a7640000610a07848463ffffffff6138a316565b92505050610a19565b6001600160a01b0384166000908152603a6020526040902060018101546002909101546116c391670de0b6b3a764000091610a0791611844919063ffffffff6138a316565b6109ee868663ffffffff6138a316565b600080603b60009054906101000a90046001600160a01b03166001600160a01b0316639895880f6040518163ffffffff1660e01b815260040160206040518083038186803b1580156118a557600080fd5b505afa1580156118b9573d6000803e3d6000fd5b505050506040513d60208110156118cf57600080fd5b505160408051637e5a4eb960e01b81526001600160a01b03868116600483015291519190921691637e5a4eb9916024808301926020929190829003018186803b15801561191b57600080fd5b505afa15801561192f573d6000803e3d6000fd5b505050506040513d602081101561194557600080fd5b50516001600160a01b03808516600090815260346020908152604080832054603383528184205494861684526035909252909120549293506119939290916109ee919063ffffffff61380316565b9392505050565b60386020526000908152604090205481565b600e81565b603760209081526000928352604080842090915290825290205481565b6001600160a01b038116600090815260386020526040812054806119fd5750670de0b6b3a76400009050610a19565b6001600160a01b0383166000908152603660209081526040808320848452909152812054906109b1856116cb565b603b60009054906101000a90046001600160a01b03166001600160a01b031663cc5738b56040518163ffffffff1660e01b815260040160206040518083038186803b158015611a7957600080fd5b505afa158015611a8d573d6000803e3d6000fd5b505050506040513d6020811015611aa357600080fd5b50516001600160a01b0316331480611b3c5750603b60009054906101000a90046001600160a01b03166001600160a01b03166368cd03f66040518163ffffffff1660e01b815260040160206040518083038186803b158015611b0457600080fd5b505afa158015611b18573d6000803e3d6000fd5b505050506040513d6020811015611b2e57600080fd5b50516001600160a01b031633145b611b775760405162461bcd60e51b815260040180806020018281038252603881526020018061461d6038913960400191505060405180910390fd5b80611bba576040805162461bcd60e51b815260206004820152600e60248201526d416d6f756e74206973207a65726f60901b604482015290519081900360640190fd5b611bc382612a55565b611bcc8261335f565b603b60009054906101000a90046001600160a01b03166001600160a01b03166368cd03f66040518163ffffffff1660e01b815260040160206040518083038186803b158015611c1a57600080fd5b505afa158015611c2e573d6000803e3d6000fd5b505050506040513d6020811015611c4457600080fd5b505160408051638340f54960e01b81526001600160a01b03868116600483015285811660248301526044820185905291519190921691638340f54991606480830192600092919082900301818387803b158015611ca057600080fd5b505af1158015611cb4573d6000803e3d6000fd5b505050506000611cc68383600061156c565b9050801561135757603b60009054906101000a90046001600160a01b03166001600160a01b031663cc5738b56040518163ffffffff1660e01b815260040160206040518083038186803b158015611d1c57600080fd5b505afa158015611d30573d6000803e3d6000fd5b505050506040513d6020811015611d4657600080fd5b505160408051638280e5a960e01b81526001600160a01b0386811660048301526024820185905291519190921691638280e5a991604480830192600092919082900301818387803b15801561133e57600080fd5b6000610f6860356000603b60009054906101000a90046001600160a01b03166001600160a01b0316639895880f6040518163ffffffff1660e01b815260040160206040518083038186803b158015611df157600080fd5b505afa158015611e05573d6000803e3d6000fd5b505050506040513d6020811015611e1b57600080fd5b505160408051637e5a4eb960e01b81526001600160a01b03888116600483015291519190921691637e5a4eb9916024808301926020929190829003018186803b158015611e6757600080fd5b505afa158015611e7b573d6000803e3d6000fd5b505050506040513d6020811015611e9157600080fd5b50516001600160a01b0390811682526020828101939093526040918201600090812054918716815260349093529120549063ffffffff61380316565b600054610100900460ff1680611ee65750611ee6614433565b80611ef4575060005460ff16155b611f2f5760405162461bcd60e51b815260040180806020018281038252602e8152602001806145ef602e913960400191505060405180910390fd5b600054610100900460ff16158015611f5a576000805460ff1961ff0019909116610100171660011790555b603b80546001600160a01b0319166001600160a01b0384161790558015611f87576000805461ff00191690555b5050565b603b5460408051639895880f60e01b815290516000926001600160a01b031691639895880f916004808301926020929190829003018186803b158015611fd057600080fd5b505afa158015611fe4573d6000803e3d6000fd5b505050506040513d6020811015611ffa57600080fd5b505160408051630e525ed960e21b81526001600160a01b038581166004830152915191909216916339497b64916024808301926020929190829003018186803b15801561204657600080fd5b505afa15801561205a573d6000803e3d6000fd5b505050506040513d602081101561207057600080fd5b505161218d5761218662201480610a07603b60009054906101000a90046001600160a01b03166001600160a01b031663b442a2066040518163ffffffff1660e01b815260040160206040518083038186803b1580156120ce57600080fd5b505afa1580156120e2573d6000803e3d6000fd5b505050506040513d60208110156120f857600080fd5b5051603b5460408051637664c38560e11b815290516109ee92670de0b6b3a764000092610a07926001600160a01b039092169163ecc9870a91600480820192602092909190829003018186803b15801561215157600080fd5b505afa158015612165573d6000803e3d6000fd5b505050506040513d602081101561217b57600080fd5b50516109e28a610fa4565b9050610a19565b610f68600a610a0761223a603b60009054906101000a90046001600160a01b03166001600160a01b03166313afb8ef6040518163ffffffff1660e01b815260040160206040518083038186803b1580156121e657600080fd5b505afa1580156121fa573d6000803e3d6000fd5b505050506040513d602081101561221057600080fd5b50516001600160a01b0387166000908152603a60205260409020600301549063ffffffff6138a316565b603b54604080516308fafb8d60e01b815290516109ee926001600160a01b0316916308fafb8d916004808301926020929190829003018186803b15801561228057600080fd5b505afa158015612294573d6000803e3d6000fd5b505050506040513d60208110156122aa57600080fd5b50516001600160a01b0388166000908152603a60205260409020600201549063ffffffff6138a316565b603b60009054906101000a90046001600160a01b03166001600160a01b031663cc5738b56040518163ffffffff1660e01b815260040160206040518083038186803b15801561232257600080fd5b505afa158015612336573d6000803e3d6000fd5b505050506040513d602081101561234c57600080fd5b50516001600160a01b03163314806123e55750603b60009054906101000a90046001600160a01b03166001600160a01b03166368cd03f66040518163ffffffff1660e01b815260040160206040518083038186803b1580156123ad57600080fd5b505afa1580156123c1573d6000803e3d6000fd5b505050506040513d60208110156123d757600080fd5b50516001600160a01b031633145b6124205760405162461bcd60e51b815260040180806020018281038252603881526020018061461d6038913960400191505060405180910390fd5b600061242a61385d565b6001600160a01b0383166000908152603f6020526040812054919250901561247b576001600160a01b0383166000908152603f602052604090205461247690839063ffffffff61386116565b61247e565b60005b6001600160a01b03841660009081526033602052604090205490915015612635576126306125f960336000866001600160a01b03166001600160a01b0316815260200190815260200160002054610a07603b60009054906101000a90046001600160a01b03166001600160a01b0316639895880f6040518163ffffffff1660e01b815260040160206040518083038186803b15801561251c57600080fd5b505afa158015612530573d6000803e3d6000fd5b505050506040513d602081101561254657600080fd5b50516040805163d7fa113760e01b81526001600160a01b038a811660048301529151919092169163d7fa1137916024808301926020929190829003018186803b15801561259257600080fd5b505afa1580156125a6573d6000803e3d6000fd5b505050506040513d60208110156125bc57600080fd5b50516001600160a01b0388166000908152603660209081526040808320603883528184205484529091529020546109e2908763ffffffff6138a316565b6001600160a01b0385166000908152603d60209081526040808320603f83528184205484529091529020549063ffffffff61380316565b612638565b60005b6001600160a01b0384166000818152603d60209081526040808320878452808352818420958655848452603f83528184208890559287905291815292548151908152905191927fabb9f52b6cb5c079bc60ea0d31e98448916c1b4fdbfea1dda8e2ef9802588bfd92918290030190a2505050565b6220148081565b670de0b6b3a764000081565b603b546040805163cc5738b560e01b815290516000926001600160a01b03169163cc5738b5916004808301926020929190829003018186803b15801561270457600080fd5b505afa158015612718573d6000803e3d6000fd5b505050506040513d602081101561272e57600080fd5b50516001600160a01b03163314806127c75750603b60009054906101000a90046001600160a01b03166001600160a01b03166368cd03f66040518163ffffffff1660e01b815260040160206040518083038186803b15801561278f57600080fd5b505afa1580156127a3573d6000803e3d6000fd5b505050506040513d60208110156127b957600080fd5b50516001600160a01b031633145b6128025760405162461bcd60e51b815260040180806020018281038252603881526020018061461d6038913960400191505060405180910390fd5b81612845576040805162461bcd60e51b815260206004820152600e60248201526d416d6f756e74206973207a65726f60901b604482015290519081900360640190fd5b61284e83612a55565b6128578361335f565b603b546040805163346681fb60e11b815290516000926001600160a01b0316916368cd03f6916004808301926020929190829003018186803b15801561289c57600080fd5b505afa1580156128b0573d6000803e3d6000fd5b505050506040513d60208110156128c657600080fd5b505160408051636ce5768960e11b81526001600160a01b0388811660048301528781166024830152604482018790529151919092169163d9caed129160648083019260209291908290030181600087803b15801561292357600080fd5b505af1158015612937573d6000803e3d6000fd5b505050506040513d602081101561294d57600080fd5b50519050600061295f8583600161156c565b90508015612a4c57603b60009054906101000a90046001600160a01b03166001600160a01b031663cc5738b56040518163ffffffff1660e01b815260040160206040518083038186803b1580156129b557600080fd5b505afa1580156129c9573d6000803e3d6000fd5b505050506040513d60208110156129df57600080fd5b50516040805163526e93cb60e01b81526001600160a01b038881166004830152602482018590529151919092169163526e93cb91604480830192600092919082900301818387803b158015612a3357600080fd5b505af1158015612a47573d6000803e3d6000fd5b505050505b50949350505050565b603b60009054906101000a90046001600160a01b03166001600160a01b031663cc5738b56040518163ffffffff1660e01b815260040160206040518083038186803b158015612aa357600080fd5b505afa158015612ab7573d6000803e3d6000fd5b505050506040513d6020811015612acd57600080fd5b50516001600160a01b0316331480612b665750603b60009054906101000a90046001600160a01b03166001600160a01b03166368cd03f66040518163ffffffff1660e01b815260040160206040518083038186803b158015612b2e57600080fd5b505afa158015612b42573d6000803e3d6000fd5b505050506040513d6020811015612b5857600080fd5b50516001600160a01b031633145b612ba15760405162461bcd60e51b815260040180806020018281038252603881526020018061461d6038913960400191505060405180910390fd5b6000612bab61385d565b6001600160a01b038316600090815260386020526040902054909150811415612bd45750611569565b603b5460408051639895880f60e01b81529051670de0b6b3a7640000926000926001600160a01b0390911691639895880f91600480820192602092909190829003018186803b158015612c2657600080fd5b505afa158015612c3a573d6000803e3d6000fd5b505050506040513d6020811015612c5057600080fd5b505160408051637e5a4eb960e01b81526001600160a01b03878116600483015291519190921691637e5a4eb9916024808301926020929190829003018186803b158015612c9c57600080fd5b505afa158015612cb0573d6000803e3d6000fd5b505050506040513d6020811015612cc657600080fd5b50516001600160a01b03851660009081526038602052604090205490915080612f61576001600160a01b038216612d51576001600160a01b0385166000818152603a60209081526040808320805460ff191690556037825280832088845282528083208790558383526036825280832088845282528083208790559282526038905220849055612f5c565b6001600160a01b038086166000908152603a60209081526040808320805460ff19166001179055805163bd6d894d60e01b81529051929386169263bd6d894d9260048084019391929182900301818787803b158015612daf57600080fd5b505af1158015612dc3573d6000803e3d6000fd5b505050506040513d6020811015612dd957600080fd5b50519050612de6866136a9565b603a6000886001600160a01b03166001600160a01b0316815260200190815260200160002060010181905550826001600160a01b031663f8f9da286040518163ffffffff1660e01b815260040160206040518083038186803b158015612e4b57600080fd5b505afa158015612e5f573d6000803e3d6000fd5b505050506040513d6020811015612e7557600080fd5b50516001600160a01b038088166000908152603a6020908152604091829020600301939093558051630ae9d70b60e41b815290519186169263ae9d70b092600480840193829003018186803b158015612ecd57600080fd5b505afa158015612ee1573d6000803e3d6000fd5b505050506040513d6020811015612ef757600080fd5b50516001600160a01b038088166000818152603a6020908152604080832060020195909555603781528482208a83528152848220899055828252603681528482208a835281528482208990559181526038825283812089905591861682526039905220555b613224565b6001600160a01b038216612ffd576001600160a01b0385166000908152603a60205260409020805460ff19169055612f9885610954565b6001600160a01b0386166000908152603760209081526040808320888452909152902055612fc5856119ce565b6001600160a01b0386166000818152603660209081526040808320898452825280832094909455918152603890915220849055613224565b6001600160a01b038086166000908152603a60209081526040808320805460ff19166001179055805163bd6d894d60e01b81529051929386169263bd6d894d9260048084019391929182900301818787803b15801561305b57600080fd5b505af115801561306f573d6000803e3d6000fd5b505050506040513d602081101561308557600080fd5b50519050613092866136a9565b603a6000886001600160a01b03166001600160a01b0316815260200190815260200160002060010181905550826001600160a01b031663f8f9da286040518163ffffffff1660e01b815260040160206040518083038186803b1580156130f757600080fd5b505afa15801561310b573d6000803e3d6000fd5b505050506040513d602081101561312157600080fd5b50516001600160a01b0387166000908152603a60209081526040808320600301939093556038905220546131919061316090879063ffffffff61386116565b6001600160a01b038516600090815260396020526040902054610a079087906109d69083878463ffffffff6138a316565b6001600160a01b0387166000908152603a60205260409020600201556131b686610954565b6001600160a01b03871660009081526037602090815260408083208984529091529020556131e3866119ce565b6001600160a01b0380881660008181526036602090815260408083208b84528252808320959095559181526038825283812089905591861682526039905220555b6001600160a01b038516600090815260376020908152604080832087845290915290205483146132ad576001600160a01b03851660008181526037602090815260408083208584528252808320548884528184205494845260339092529091205461329392610a0791906138a3565b6001600160a01b0386166000908152603360205260409020555b6001600160a01b03851660008181526036602052604081207f1cc14bf94d8329e459fdcf4f38c293236b70411487793b5c07ac7448c788c252916132ef61385d565b81526020019081526020016000205460376000896001600160a01b03166001600160a01b03168152602001908152602001600020600061332d61385d565b815260200190815260200160002054604051808381526020018281526020019250505060405180910390a25050505050565b603b60009054906101000a90046001600160a01b03166001600160a01b031663cc5738b56040518163ffffffff1660e01b815260040160206040518083038186803b1580156133ad57600080fd5b505afa1580156133c1573d6000803e3d6000fd5b505050506040513d60208110156133d757600080fd5b50516001600160a01b03163314806134705750603b60009054906101000a90046001600160a01b03166001600160a01b03166368cd03f66040518163ffffffff1660e01b815260040160206040518083038186803b15801561343857600080fd5b505afa15801561344c573d6000803e3d6000fd5b505050506040513d602081101561346257600080fd5b50516001600160a01b031633145b6134ab5760405162461bcd60e51b815260040180806020018281038252603881526020018061461d6038913960400191505060405180910390fd5b60006134b561385d565b6001600160a01b0383166000908152603e60205260408120549192509015613506576001600160a01b0383166000908152603e602052604090205461350190839063ffffffff61386116565b613509565b60005b905061351483611854565b156136205761361b6135e461352885611854565b603b5460408051639895880f60e01b81529051610a07926001600160a01b031691639895880f916004808301926020929190829003018186803b15801561356e57600080fd5b505afa158015613582573d6000803e3d6000fd5b505050506040513d602081101561359857600080fd5b505160408051637a78a94360e01b81526001600160a01b038a8116600483015291519190921691637a78a943916024808301926020929190829003018186803b15801561259257600080fd5b6001600160a01b0385166000908152603c60209081526040808320603e83528184205484529091529020549063ffffffff61380316565b613623565b60005b6001600160a01b0384166000818152603c60209081526040808320878452808352818420958655848452603e83528184208890559287905291815292548151908152905191927f2aa34452d1f231efd3e8dc3eae64938dbfa82f1b40e2b994e1a395d7ed27ae5b92918290030190a2505050565b60396020526000908152604090205481565b600080603b60009054906101000a90046001600160a01b03166001600160a01b0316639895880f6040518163ffffffff1660e01b815260040160206040518083038186803b1580156136fa57600080fd5b505afa15801561370e573d6000803e3d6000fd5b505050506040513d602081101561372457600080fd5b505160408051637e5a4eb960e01b81526001600160a01b03868116600483015291519190921691637e5a4eb9916024808301926020929190829003018186803b15801561377057600080fd5b505afa158015613784573d6000803e3d6000fd5b505050506040513d602081101561379a57600080fd5b50516001600160a01b0381166000908152603560205260409020549091506137c6576000915050610a19565b610ff86137d284611854565b6001600160a01b038316600090815260356020526040902054610a0790670de0b6b3a764000063ffffffff6138a316565b600082820183811015611993576040805162461bcd60e51b815260206004820152601b60248201527f536166654d6174683a206164646974696f6e206f766572666c6f770000000000604482015290519081900360640190fd5b4390565b600061199383836040518060400160405280601e81526020017f536166654d6174683a207375627472616374696f6e206f766572666c6f770000815250614439565b6000826138b257506000610f68565b828202828482816138bf57fe5b04146119935760405162461bcd60e51b81526004018080602001828103825260218152602001806145ce6021913960400191505060405180910390fd5b600061199383836040518060400160405280601a81526020017f536166654d6174683a206469766973696f6e206279207a65726f0000000000008152506144d0565b603b5460408051639895880f60e01b815290516000926001600160a01b031691639895880f916004808301926020929190829003018186803b15801561398357600080fd5b505afa158015613997573d6000803e3d6000fd5b505050506040513d60208110156139ad57600080fd5b505160408051637e5a4eb960e01b81526001600160a01b03858116600483015291519190921691637e5a4eb9916024808301926020929190829003018186803b1580156139f957600080fd5b505afa158015613a0d573d6000803e3d6000fd5b505050506040513d6020811015613a2357600080fd5b505190506001600160a01b03811615611f8757806001600160a01b0316633af9e669603b60009054906101000a90046001600160a01b03166001600160a01b031663cc5738b56040518163ffffffff1660e01b815260040160206040518083038186803b158015613a9357600080fd5b505afa158015613aa7573d6000803e3d6000fd5b505050506040513d6020811015613abd57600080fd5b5051604080516001600160e01b031960e085901b1681526001600160a01b0390921660048301525160248083019260209291908290030181600087803b158015613b0657600080fd5b505af1158015613b1a573d6000803e3d6000fd5b505050506040513d6020811015613b3057600080fd5b50516001600160a01b0382166000908152603560205260409020555050565b600080603b60009054906101000a90046001600160a01b03166001600160a01b0316639895880f6040518163ffffffff1660e01b815260040160206040518083038186803b158015613ba057600080fd5b505afa158015613bb4573d6000803e3d6000fd5b505050506040513d6020811015613bca57600080fd5b505160408051637e5a4eb960e01b81526001600160a01b03888116600483015291519190921691637e5a4eb9916024808301926020929190829003018186803b158015613c1657600080fd5b505afa158015613c2a573d6000803e3d6000fd5b505050506040513d6020811015613c4057600080fd5b505190506000613c4f86611854565b90506000846003811115613c5f57fe5b1480613c7657506003846003811115613c7457fe5b145b15613f38576000846003811115613c8957fe5b1415613ca657613c9f818663ffffffff61380316565b9050613ce9565b6001600160a01b038616600090815260336020526040902054613ccf908663ffffffff61386116565b6001600160a01b0387166000908152603360205260409020555b6001600160a01b038616600090815260346020526040812054613d12908763ffffffff61380316565b90506001600160a01b03831615801590613db95750613db66064610a07603b60009054906101000a90046001600160a01b03166001600160a01b031663268c74e46040518163ffffffff1660e01b815260040160206040518083038186803b158015613d7d57600080fd5b505afa158015613d91573d6000803e3d6000fd5b505050506040513d6020811015613da757600080fd5b5051859063ffffffff6138a316565b81115b15613eef576000613e5f613e526064610a07603b60009054906101000a90046001600160a01b03166001600160a01b031663c36938966040518163ffffffff1660e01b815260040160206040518083038186803b158015613e1957600080fd5b505afa158015613e2d573d6000803e3d6000fd5b505050506040513d6020811015613e4357600080fd5b5051879063ffffffff6138a316565b839063ffffffff61386116565b6001600160a01b038516600090815260356020526040902054909550859150613e8e908263ffffffff61380316565b6001600160a01b03808616600090815260356020908152604080832094909455918b16815260349091522054613ed09082906109d6908a63ffffffff61380316565b6001600160a01b03891660009081526034602052604090205550613f32565b6001600160a01b038716600090815260346020526040902054613f18908763ffffffff61380316565b6001600160a01b0388166000908152603460205260409020555b5061442a565b6001846003811115613f4657fe5b1415614030576001600160a01b03861660009081526033602052604090205415613fcc5784613f7487611d9a565b1015613fc7576040805162461bcd60e51b815260206004820181905260248201527f4c61636b206f66206c6971756964697479207768656e2077697468647261772e604482015290519081900360640190fd5b614020565b84613fd687611d9a565b1015614020576001600160a01b03821660009081526035602052604090205461400690869063ffffffff61386116565b6001600160a01b0387166000908152603460205260409020555b61402986611854565b905061408d565b8461403a87611d9a565b101561408d576040805162461bcd60e51b815260206004820152601e60248201527f4c61636b206f66206c6971756964697479207768656e20626f72726f772e0000604482015290519081900360640190fd5b600184600381111561409b57fe5b14156140b8576140b1818663ffffffff61386116565b90506140fb565b6001600160a01b0386166000908152603360205260409020546140e1908663ffffffff61380316565b6001600160a01b0387166000908152603360205260409020555b6001600160a01b038616600090815260346020526040812054861061412157600061414a565b6001600160a01b03871660009081526034602052604090205461414a908763ffffffff61386116565b90506001600160a01b038316158015906141c057508115806141c057506141bd6064610a07603b60009054906101000a90046001600160a01b03166001600160a01b0316635a596d1c6040518163ffffffff1660e01b815260040160206040518083038186803b158015613d7d57600080fd5b81105b156143e5576001600160a01b03808416600090815260356020908152604080832054938b168352603490915281205490916142079189916109d6919063ffffffff61380316565b90506142986064610a07603b60009054906101000a90046001600160a01b03166001600160a01b031663c36938966040518163ffffffff1660e01b815260040160206040518083038186803b15801561425f57600080fd5b505afa158015614273573d6000803e3d6000fd5b505050506040513d602081101561428957600080fd5b5051869063ffffffff6138a316565b8110156142d7576001600160a01b038085166000908152603560209081526040808320805490849055938c1683526034909152902082905594506143df565b600061436b613e526064610a07603b60009054906101000a90046001600160a01b03166001600160a01b031663c36938966040518163ffffffff1660e01b815260040160206040518083038186803b15801561433257600080fd5b505afa158015614346573d6000803e3d6000fd5b505050506040513d602081101561435c57600080fd5b5051889063ffffffff6138a316565b6001600160a01b038616600090815260356020526040902054909150614397908263ffffffff61386116565b6001600160a01b038616600090815260356020526040902082905595506143c4828263ffffffff61386116565b6001600160a01b038a16600090815260346020526040902055505b50614428565b6001600160a01b03871660009081526034602052604090205461440e908763ffffffff61386116565b6001600160a01b0388166000908152603460205260409020555b505b50509392505050565b303b1590565b600081848411156144c85760405162461bcd60e51b81526004018080602001828103825283818151815260200191508051906020019080838360005b8381101561448d578181015183820152602001614475565b50505050905090810190601f1680156144ba5780820380516001836020036101000a031916815260200191505b509250505060405180910390fd5b505050900390565b6000818361451f5760405162461bcd60e51b815260206004820181815283516024840152835190928392604490910191908501908083836000831561448d578181015183820152602001614475565b50600083858161452b57fe5b049594505050505056fe5f6465706f736974526174655265636f72645374617274206973206e6f74206120636865636b20706f696e74206f6e20696e6465782063757276652e546f6b656e20426f72726f775072696e636970616c206d7573742062652067726561746572207468616e20302e20546f206465706f7369742062616c616e63652c20706c6561736520757365206465706f73697420627574746f6e2e536166654d6174683a206d756c7469706c69636174696f6e206f766572666c6f77436f6e747261637420696e7374616e63652068617320616c7265616479206265656e20696e697469616c697a65644f6e6c7920617574686f72697a656420746f2063616c6c2066726f6d20446546696e657220696e7465726e616c20636f6e7472616374732e5f626f72726f77526174655265636f72645374617274206973206e6f74206120636865636b20706f696e74206f6e20696e6465782063757276652ea265627a7a723158200e8fb1aca21607e7b76e4e5e673c336eaf9cb4ccc4378c3edeaeea87a27d1fb564736f6c634300050e0032",
  "source": "pragma solidity 0.5.14;\n\nimport \"openzeppelin-solidity/contracts/math/SafeMath.sol\";\nimport \"./config/Constant.sol\";\nimport \"./config/GlobalConfig.sol\";\nimport { ICToken } from \"./compound/ICompound.sol\";\nimport { ICETH } from \"./compound/ICompound.sol\";\nimport \"@openzeppelin/upgrades/contracts/Initializable.sol\";\n// import \"@nomiclabs/buidler/console.sol\";\n\ncontract Bank is Constant, Initializable{\n    using SafeMath for uint256;\n\n    mapping(address => uint256) public totalLoans;     // amount of lended tokens\n    mapping(address => uint256) public totalReserve;   // amount of tokens in reservation\n    mapping(address => uint256) public totalCompound;  // amount of tokens in compound\n    // Token => block-num => rate\n    mapping(address => mapping(uint => uint)) public depositeRateIndex; // the index curve of deposit rate\n    // Token => block-num => rate\n    mapping(address => mapping(uint => uint)) public borrowRateIndex;   // the index curve of borrow rate\n    // token address => block number\n    mapping(address => uint) public lastCheckpoint;            // last checkpoint on the index curve\n    // cToken address => rate\n    mapping(address => uint) public lastCTokenExchangeRate;    // last compound cToken exchange rate\n    mapping(address => ThirdPartyPool) compoundPool;    // the compound pool\n\n    GlobalConfig globalConfig;            // global configuration contract address\n\n    mapping(address => mapping(uint => uint)) public depositFINRateIndex;\n    mapping(address => mapping(uint => uint)) public borrowFINRateIndex;\n    mapping(address => uint) public lastDepositeFINRateCheckpoint;\n    mapping(address => uint) public lastBorrowFINRateCheckpoint;\n\n    modifier onlyAuthorized() {\n        require(msg.sender == address(globalConfig.savingAccount()) || msg.sender == address(globalConfig.accounts()),\n            \"Only authorized to call from DeFiner internal contracts.\");\n        _;\n    }\n\n    struct ThirdPartyPool {\n        bool supported;             // if the token is supported by the third party platforms such as Compound\n        uint capitalRatio;          // the ratio of the capital in third party to the total asset\n        uint depositRatePerBlock;   // the deposit rate of the token in third party\n        uint borrowRatePerBlock;    // the borrow rate of the token in third party\n    }\n\n    event UpdateIndex(address indexed token, uint256 depositeRateIndex, uint256 borrowRateIndex);\n    event UpdateDepositFINIndex(address indexed _token, uint256 depositFINRateIndex);\n    event UpdateBorrowFINIndex(address indexed _token, uint256 borrowFINRateIndex);\n\n    /**\n     * Initialize the Bank\n     * @param _globalConfig the global configuration contract\n     */\n    function initialize(\n        GlobalConfig _globalConfig\n    ) public initializer {\n        globalConfig = _globalConfig;\n    }\n\n    /**\n     * Total amount of the token in Saving account\n     * @param _token token address\n     */\n    function getTotalDepositStore(address _token) public view returns(uint) {\n        address cToken = globalConfig.tokenInfoRegistry().getCToken(_token);\n        // totalLoans[_token] = U   totalReserve[_token] = R\n        return totalCompound[cToken].add(totalLoans[_token]).add(totalReserve[_token]); // return totalAmount = C + U + R\n    }\n\n    /**\n     * Update total amount of token in Compound as the cToken price changed\n     * @param _token token address\n     */\n    function updateTotalCompound(address _token) internal {\n        address cToken = globalConfig.tokenInfoRegistry().getCToken(_token);\n        if(cToken != address(0)) {\n            totalCompound[cToken] = ICToken(cToken).balanceOfUnderlying(address(globalConfig.savingAccount()));\n        }\n    }\n\n    /**\n     * Update the total reservation. Before run this function, make sure that totalCompound has been updated\n     * by calling updateTotalCompound. Otherwise, totalCompound may not equal to the exact amount of the\n     * token in Compound.\n     * @param _token token address\n     * @param _action indicate if user's operation is deposit or withdraw, and borrow or repay.\n     * @return the actuall amount deposit/withdraw from the saving pool\n     */\n    function updateTotalReserve(address _token, uint _amount, ActionType _action) internal returns(uint256 compoundAmount){\n        address cToken = globalConfig.tokenInfoRegistry().getCToken(_token);\n        uint totalAmount = getTotalDepositStore(_token);\n        if (_action == ActionType.DepositAction || _action == ActionType.RepayAction) {\n            // Total amount of token after deposit or repay\n            if (_action == ActionType.DepositAction)\n                totalAmount = totalAmount.add(_amount);\n            else\n                totalLoans[_token] = totalLoans[_token].sub(_amount);\n\n            // Expected total amount of token in reservation after deposit or repay\n            uint totalReserveBeforeAdjust = totalReserve[_token].add(_amount);\n\n            if (cToken != address(0) &&\n            totalReserveBeforeAdjust > totalAmount.mul(globalConfig.maxReserveRatio()).div(100)) {\n                uint toCompoundAmount = totalReserveBeforeAdjust.sub(totalAmount.mul(globalConfig.midReserveRatio()).div(100));\n                //toCompound(_token, toCompoundAmount);\n                compoundAmount = toCompoundAmount;\n                totalCompound[cToken] = totalCompound[cToken].add(toCompoundAmount);\n                totalReserve[_token] = totalReserve[_token].add(_amount).sub(toCompoundAmount);\n            }\n            else {\n                totalReserve[_token] = totalReserve[_token].add(_amount);\n            }\n        } else {\n            // The lack of liquidity exception happens when the pool doesn't have enough tokens for borrow/withdraw\n            // It happens when part of the token has lended to the other accounts.\n            // However in case of withdrawAll, even if the token has no loan, this requirment may still false because\n            // of the precision loss in the rate calcuation. So we put a logic here to deal with this case: in case\n            // of withdrawAll and there is no loans for the token, we just adjust the balance in bank contract to the\n            // to the balance of that individual account.\n            if(_action == ActionType.WithdrawAction) {\n                if(totalLoans[_token] != 0)\n                    require(getPoolAmount(_token) >= _amount, \"Lack of liquidity when withdraw.\");\n                else if (getPoolAmount(_token) < _amount)\n                    totalReserve[_token] = _amount.sub(totalCompound[cToken]);\n                totalAmount = getTotalDepositStore(_token);\n            }\n            else\n                require(getPoolAmount(_token) >= _amount, \"Lack of liquidity when borrow.\");\n\n            // Total amount of token after withdraw or borrow\n            if (_action == ActionType.WithdrawAction)\n                totalAmount = totalAmount.sub(_amount);\n            else\n                totalLoans[_token] = totalLoans[_token].add(_amount);\n\n            // Expected total amount of token in reservation after deposit or repay\n            uint totalReserveBeforeAdjust = totalReserve[_token] > _amount ? totalReserve[_token].sub(_amount) : 0;\n\n            // Trigger fromCompound if the new reservation ratio is less than 10%\n            if(cToken != address(0) &&\n            (totalAmount == 0 || totalReserveBeforeAdjust < totalAmount.mul(globalConfig.minReserveRatio()).div(100))) {\n\n                uint totalAvailable = totalReserve[_token].add(totalCompound[cToken]).sub(_amount);\n                if (totalAvailable < totalAmount.mul(globalConfig.midReserveRatio()).div(100)){\n                    // Withdraw all the tokens from Compound\n                    compoundAmount = totalCompound[cToken];\n                    totalCompound[cToken] = 0;\n                    totalReserve[_token] = totalAvailable;\n                } else {\n                    // Withdraw partial tokens from Compound\n                    uint totalInCompound = totalAvailable.sub(totalAmount.mul(globalConfig.midReserveRatio()).div(100));\n                    compoundAmount = totalCompound[cToken].sub(totalInCompound);\n                    totalCompound[cToken] = totalInCompound;\n                    totalReserve[_token] = totalAvailable.sub(totalInCompound);\n                }\n            }\n            else {\n                totalReserve[_token] = totalReserve[_token].sub(_amount);\n            }\n        }\n        return compoundAmount;\n    }\n\n     function update(address _token, uint _amount, ActionType _action) public onlyAuthorized returns(uint256 compoundAmount) {\n        updateTotalCompound(_token);\n        // updateTotalLoan(_token);\n        compoundAmount = updateTotalReserve(_token, _amount, _action);\n        return compoundAmount;\n    }\n\n    function updateDepositFINIndex(address _token) public onlyAuthorized{\n        uint currentBlock = getBlockNumber();\n        uint deltaBlock;\n        // sichaoy: newRateIndexCheckpoint should never be called before this line, so the total deposit\n        // derived here is the total deposit in the last checkpoint without latest interests.\n        deltaBlock = lastDepositeFINRateCheckpoint[_token] == 0 ? 0 : currentBlock.sub(lastDepositeFINRateCheckpoint[_token]);\n        // sichaoy: How to deal with the case that totalDeposit = 0?\n        depositFINRateIndex[_token][currentBlock] = getTotalDepositStore(_token) == 0 ?\n            0 : depositFINRateIndex[_token][lastDepositeFINRateCheckpoint[_token]]\n                .add(depositeRateIndex[_token][lastCheckpoint[_token]]\n                    .mul(deltaBlock)\n                    .mul(globalConfig.tokenInfoRegistry().depositeMiningSpeeds(_token))\n                    .div(getTotalDepositStore(_token))\n                );\n        lastDepositeFINRateCheckpoint[_token] = currentBlock;\n\n        emit UpdateDepositFINIndex(_token, depositFINRateIndex[_token][currentBlock]);\n    }\n\n    function updateBorrowFINIndex(address _token) public onlyAuthorized{\n        uint currentBlock = getBlockNumber();\n        uint deltaBlock;\n        deltaBlock = lastBorrowFINRateCheckpoint[_token] == 0 ? 0 : currentBlock.sub(lastBorrowFINRateCheckpoint[_token]);\n        borrowFINRateIndex[_token][currentBlock] = totalLoans[_token] == 0 ?\n            0 : borrowFINRateIndex[_token][lastBorrowFINRateCheckpoint[_token]]\n                .add(depositeRateIndex[_token][lastCheckpoint[_token]]\n                    .mul(deltaBlock)\n                    .mul(globalConfig.tokenInfoRegistry().borrowMiningSpeeds(_token))\n                    .div(totalLoans[_token]));\n        lastBorrowFINRateCheckpoint[_token] = currentBlock;\n\n        emit UpdateBorrowFINIndex(_token, borrowFINRateIndex[_token][currentBlock]);\n    }\n\n    function updateMining(address _token) public onlyAuthorized{\n        newRateIndexCheckpoint(_token);\n        updateTotalCompound(_token);\n    }\n\n    /**\n     * Get the borrowing interest rate Borrowing interest rate.\n     * @param _token token address\n     * @return the borrow rate for the current block\n     */\n    function getBorrowRatePerBlock(address _token) public view returns(uint) {\n        if(!globalConfig.tokenInfoRegistry().isSupportedOnCompound(_token))\n        // If the token is NOT supported by the third party, borrowing rate = 3% + U * 15%.\n            return getCapitalUtilizationRatio(_token).mul(globalConfig.rateCurveSlope()).div(INT_UNIT).add(globalConfig.rateCurveConstant()).div(BLOCKS_PER_YEAR);\n\n        // if the token is suppored in third party, borrowing rate = Compound Supply Rate * 0.4 + Compound Borrow Rate * 0.6\n        return (compoundPool[_token].depositRatePerBlock).mul(globalConfig.compoundSupplyRateWeights()).\n            add((compoundPool[_token].borrowRatePerBlock).mul(globalConfig.compoundBorrowRateWeights())).div(10);\n    }\n\n    /**\n    * Get Deposit Rate.  Deposit APR = (Borrow APR * Utilization Rate (U) +  Compound Supply Rate *\n    * Capital Compound Ratio (C) )* (1- DeFiner Community Fund Ratio (D)). The scaling is 10 ** 18\n    * sichaoy: make sure the ratePerBlock is zero if both U and C are zero.\n    * @param _token token address\n    * @return deposite rate of blocks before the current block\n    */\n    function getDepositRatePerBlock(address _token) public view returns(uint) {\n        uint256 borrowRatePerBlock = getBorrowRatePerBlock(_token);\n        uint256 capitalUtilRatio = getCapitalUtilizationRatio(_token);\n        if(!globalConfig.tokenInfoRegistry().isSupportedOnCompound(_token))\n            return borrowRatePerBlock.mul(capitalUtilRatio).div(INT_UNIT);\n\n        return borrowRatePerBlock.mul(capitalUtilRatio).add(compoundPool[_token].depositRatePerBlock\n            .mul(compoundPool[_token].capitalRatio)).div(INT_UNIT);\n    }\n\n    /**\n     * Get capital utilization. Capital Utilization Rate (U )= total loan outstanding / Total market deposit\n     * @param _token token address\n     */\n    function getCapitalUtilizationRatio(address _token) public view returns(uint) {\n        uint256 totalDepositsNow = getTotalDepositStore(_token);\n        if(totalDepositsNow == 0) {\n            return 0;\n        } else {\n            return totalLoans[_token].mul(INT_UNIT).div(totalDepositsNow);\n        }\n    }\n\n    /**\n     * Ratio of the capital in Compound\n     * @param _token token address\n     */\n    function getCapitalCompoundRatio(address _token) public view returns(uint) {\n        address cToken = globalConfig.tokenInfoRegistry().getCToken(_token);\n        if(totalCompound[cToken] == 0 ) {\n            return 0;\n        } else {\n            return uint(totalCompound[cToken].mul(INT_UNIT).div(getTotalDepositStore(_token)));\n        }\n    }\n\n    /**\n     * It's a utility function. Get the cummulative deposit rate in a block interval ending in current block\n     * @param _token token address\n     * @param _depositRateRecordStart the start block of the interval\n     * @dev This function should always be called after current block is set as a new rateIndex point.\n     */\n    // sichaoy: this function could be more general to have an end checkpoit as a parameter.\n    // sichaoy: require:what if a index point doesn't exist?\n    function getDepositAccruedRate(address _token, uint _depositRateRecordStart) external view returns (uint256) {\n        uint256 depositRate = depositeRateIndex[_token][_depositRateRecordStart];\n        require(depositRate != 0, \"_depositRateRecordStart is not a check point on index curve.\");\n        return depositRateIndexNow(_token).mul(INT_UNIT).div(depositRate);\n    }\n\n    /**\n     * Get the cummulative borrow rate in a block interval ending in current block\n     * @param _token token address\n     * @param _borrowRateRecordStart the start block of the interval\n     * @dev This function should always be called after current block is set as a new rateIndex point.\n     */\n    // sichaoy: actually the rate + 1, add a require statement here to make sure\n    // the checkpoint for current block exists.\n    function getBorrowAccruedRate(address _token, uint _borrowRateRecordStart) external view returns (uint256) {\n        uint256 borrowRate = borrowRateIndex[_token][_borrowRateRecordStart];\n        require(borrowRate != 0, \"_borrowRateRecordStart is not a check point on index curve.\");\n        return borrowRateIndexNow(_token).mul(INT_UNIT).div(borrowRate);\n    }\n\n    /**\n     * Set a new rate index checkpoint.\n     * @param _token token address\n     * @dev The rate set at the checkpoint is the rate from the last checkpoint to this checkpoint\n     */\n    function newRateIndexCheckpoint(address _token) public onlyAuthorized {\n\n        // return if the rate check point already exists\n        uint blockNumber = getBlockNumber();\n        if (blockNumber == lastCheckpoint[_token])\n            return;\n\n        uint256 UNIT = INT_UNIT;\n        address cToken = globalConfig.tokenInfoRegistry().getCToken(_token);\n\n        // If it is the first check point, initialize the rate index\n        uint256 previousCheckpoint = lastCheckpoint[_token];\n        if (lastCheckpoint[_token] == 0) {\n            if(cToken == address(0)) {\n                compoundPool[_token].supported = false;\n                borrowRateIndex[_token][blockNumber] = UNIT;\n                depositeRateIndex[_token][blockNumber] = UNIT;\n                // Update the last checkpoint\n                lastCheckpoint[_token] = blockNumber;\n            }\n            else {\n                compoundPool[_token].supported = true;\n                uint cTokenExchangeRate = ICToken(cToken).exchangeRateCurrent();\n                // Get the curretn cToken exchange rate in Compound, which is need to calculate DeFiner's rate\n                // sichaoy: How to deal with the issue capitalRatio is zero if looking forward (An estimation)\n                compoundPool[_token].capitalRatio = getCapitalCompoundRatio(_token);\n                compoundPool[_token].borrowRatePerBlock = ICToken(cToken).borrowRatePerBlock();  // initial value\n                compoundPool[_token].depositRatePerBlock = ICToken(cToken).supplyRatePerBlock(); // initial value\n                borrowRateIndex[_token][blockNumber] = UNIT;\n                depositeRateIndex[_token][blockNumber] = UNIT;\n                // Update the last checkpoint\n                lastCheckpoint[_token] = blockNumber;\n                lastCTokenExchangeRate[cToken] = cTokenExchangeRate;\n            }\n\n        } else {\n            if(cToken == address(0)) {\n                compoundPool[_token].supported = false;\n                borrowRateIndex[_token][blockNumber] = borrowRateIndexNow(_token);\n                depositeRateIndex[_token][blockNumber] = depositRateIndexNow(_token);\n                // Update the last checkpoint\n                lastCheckpoint[_token] = blockNumber;\n            } else {\n                compoundPool[_token].supported = true;\n                uint cTokenExchangeRate = ICToken(cToken).exchangeRateCurrent();\n                // Get the curretn cToken exchange rate in Compound, which is need to calculate DeFiner's rate\n                compoundPool[_token].capitalRatio = getCapitalCompoundRatio(_token);\n                compoundPool[_token].borrowRatePerBlock = ICToken(cToken).borrowRatePerBlock();\n                compoundPool[_token].depositRatePerBlock = cTokenExchangeRate.mul(UNIT).div(lastCTokenExchangeRate[cToken])\n                    .sub(UNIT).div(blockNumber.sub(lastCheckpoint[_token]));\n                borrowRateIndex[_token][blockNumber] = borrowRateIndexNow(_token);\n                depositeRateIndex[_token][blockNumber] = depositRateIndexNow(_token);\n                // Update the last checkpoint\n                lastCheckpoint[_token] = blockNumber;\n                lastCTokenExchangeRate[cToken] = cTokenExchangeRate;\n            }\n        }\n\n        // Update the total loan\n        if(borrowRateIndex[_token][blockNumber] != UNIT) {\n            totalLoans[_token] = totalLoans[_token].mul(borrowRateIndex[_token][blockNumber])\n                .div(borrowRateIndex[_token][previousCheckpoint]);\n        }\n\n        emit UpdateIndex(_token, depositeRateIndex[_token][getBlockNumber()], borrowRateIndex[_token][getBlockNumber()]);\n    }\n\n    /**\n     * Calculate a token deposite rate of current block\n     * @param _token token address\n     * @dev This is an looking forward estimation from last checkpoint and not the exactly rate that the user will pay or earn.\n     * sichaoy: to make the notation consistent, change the name from depositRateIndexNow to depositRateIndexCurrent\n     */\n    function depositRateIndexNow(address _token) public view returns(uint) {\n        uint256 lcp = lastCheckpoint[_token];\n        // If this is the first checkpoint, set the index be 1.\n        if(lcp == 0)\n            return INT_UNIT;\n\n        uint256 lastDepositeRateIndex = depositeRateIndex[_token][lcp];\n        uint256 depositRatePerBlock = getDepositRatePerBlock(_token);\n        // newIndex = oldIndex*(1+r*delta_block). If delta_block = 0, i.e. the last checkpoint is current block, index doesn't change.\n        return lastDepositeRateIndex.mul(getBlockNumber().sub(lcp).mul(depositRatePerBlock).add(INT_UNIT)).div(INT_UNIT);\n    }\n\n    /**\n     * Calculate a token borrow rate of current block\n     * @param _token token address\n     */\n    function borrowRateIndexNow(address _token) public view returns(uint) {\n        uint256 lcp = lastCheckpoint[_token];\n        // If this is the first checkpoint, set the index be 1.\n        if(lcp == 0)\n            return INT_UNIT;\n        uint256 lastBorrowRateIndex = borrowRateIndex[_token][lcp];\n        uint256 borrowRatePerBlock = getBorrowRatePerBlock(_token);\n        return lastBorrowRateIndex.mul(getBlockNumber().sub(lcp).mul(borrowRatePerBlock).add(INT_UNIT)).div(INT_UNIT);\n    }\n\n    /**\n\t * Get the state of the given token\n     * @param _token token address\n\t */\n    function getTokenState(address _token) public view returns (uint256 deposits, uint256 loans, uint256 reserveBalance, uint256 remainingAssets){\n        return (\n        getTotalDepositStore(_token),\n        totalLoans[_token],\n        totalReserve[_token],\n        totalReserve[_token].add(totalCompound[globalConfig.tokenInfoRegistry().getCToken(_token)])\n        );\n    }\n\n    function getPoolAmount(address _token) public view returns(uint) {\n        return totalReserve[_token].add(totalCompound[globalConfig.tokenInfoRegistry().getCToken(_token)]);\n    }\n\n // sichaoy: should not be public, why cannot we find _tokenIndex from token address?\n    function deposit(address _to, address _token, uint256 _amount) external onlyAuthorized {\n\n        require(_amount != 0, \"Amount is zero\");\n\n        // Add a new checkpoint on the index curve.\n        newRateIndexCheckpoint(_token);\n        updateDepositFINIndex(_token);\n\n        // Update tokenInfo. Add the _amount to principal, and update the last deposit block in tokenInfo\n        globalConfig.accounts().deposit(_to, _token, _amount);\n\n        // Update the amount of tokens in compound and loans, i.e. derive the new values\n        // of C (Compound Ratio) and U (Utilization Ratio).\n        uint compoundAmount = update(_token, _amount, ActionType.DepositAction);\n\n        if(compoundAmount > 0) {\n            globalConfig.savingAccount().toCompound(_token, compoundAmount);\n        }\n    }\n\n    function borrow(address _from, address _token, uint256 _amount) external onlyAuthorized {\n\n        // Add a new checkpoint on the index curve.\n        newRateIndexCheckpoint(_token);\n        updateBorrowFINIndex(_token);\n\n        // Update tokenInfo for the user\n        globalConfig.accounts().borrow(_from, _token, _amount);\n\n        // Update pool balance\n        // Update the amount of tokens in compound and loans, i.e. derive the new values\n        // of C (Compound Ratio) and U (Utilization Ratio).\n        uint compoundAmount = update(_token, _amount, ActionType.BorrowAction);\n\n        if(compoundAmount > 0) {\n            globalConfig.savingAccount().fromCompound(_token, compoundAmount);\n        }\n    }\n\n    function repay(address _to, address _token, uint256 _amount) external onlyAuthorized returns(uint) {\n\n        // Add a new checkpoint on the index curve.\n        newRateIndexCheckpoint(_token);\n        updateBorrowFINIndex(_token);\n\n        // Sanity check\n        require(globalConfig.accounts().getBorrowPrincipal(_to, _token) > 0,\n            \"Token BorrowPrincipal must be greater than 0. To deposit balance, please use deposit button.\"\n        );\n\n        // Update tokenInfo\n        uint256 remain = globalConfig.accounts().repay(_to, _token, _amount);\n\n        // Update the amount of tokens in compound and loans, i.e. derive the new values\n        // of C (Compound Ratio) and U (Utilization Ratio).\n        uint compoundAmount = update(_token, _amount.sub(remain), ActionType.RepayAction);\n        if(compoundAmount > 0) {\n           globalConfig.savingAccount().toCompound(_token, compoundAmount);\n        }\n\n        // Return actual amount repaid\n        return _amount.sub(remain);\n    }\n\n    /**\n     * Withdraw a token from an address\n     * @param _from address to be withdrawn from\n     * @param _token token address\n     * @param _amount amount to be withdrawn\n     * @return The actually amount withdrawed, which will be the amount requested minus the commission fee.\n     */\n    function withdraw(address _from, address _token, uint256 _amount) external onlyAuthorized returns(uint) {\n\n        require(_amount != 0, \"Amount is zero\");\n\n        // Add a new checkpoint on the index curve.\n        newRateIndexCheckpoint(_token);\n        updateDepositFINIndex(_token);\n\n        // Withdraw from the account\n        uint amount = globalConfig.accounts().withdraw(_from, _token, _amount);\n\n        // Update pool balance\n        // Update the amount of tokens in compound and loans, i.e. derive the new values\n        // of C (Compound Ratio) and U (Utilization Ratio).\n        uint compoundAmount = update(_token, amount, ActionType.WithdrawAction);\n\n        // Check if there are enough tokens in the pool.\n        if(compoundAmount > 0) {\n            globalConfig.savingAccount().fromCompound(_token, compoundAmount);\n        }\n\n        return amount;\n    }\n\n    /**\n     * Get current block number\n     * @return the current block number\n     */\n    function getBlockNumber() private view returns (uint) {\n        return block.number;\n    }\n}\n",
  "sourcePath": "/Users/yanyichun/project/Savings/contracts/Bank.sol",
  "compiler": {
    "name": "solc",
    "version": "0.5.14+commit.01f1aaa4.Emscripten.clang"
  },
  "schemaVersion": "3.2.3",
  "updatedAt": "2021-02-25T05:55:40.246Z",
  "devdoc": {
    "methods": {
      "borrowRateIndexNow(address)": {
        "params": {
          "_token": "token address"
        }
      },
      "depositRateIndexNow(address)": {
        "details": "This is an looking forward estimation from last checkpoint and not the exactly rate that the user will pay or earn. sichaoy: to make the notation consistent, change the name from depositRateIndexNow to depositRateIndexCurrent",
        "params": {
          "_token": "token address"
        }
      },
      "getBorrowAccruedRate(address,uint256)": {
        "details": "This function should always be called after current block is set as a new rateIndex point.",
        "params": {
          "_borrowRateRecordStart": "the start block of the interval",
          "_token": "token address"
        }
      },
      "getBorrowRatePerBlock(address)": {
        "params": {
          "_token": "token address"
        },
        "return": "the borrow rate for the current block"
      },
      "getCapitalCompoundRatio(address)": {
        "params": {
          "_token": "token address"
        }
      },
      "getCapitalUtilizationRatio(address)": {
        "params": {
          "_token": "token address"
        }
      },
      "getDepositAccruedRate(address,uint256)": {
        "details": "This function should always be called after current block is set as a new rateIndex point.",
        "params": {
          "_depositRateRecordStart": "the start block of the interval",
          "_token": "token address"
        }
      },
      "getDepositRatePerBlock(address)": {
        "params": {
          "_token": "token address"
        },
        "return": "deposite rate of blocks before the current block"
      },
      "getTokenState(address)": {
        "params": {
          "_token": "token address"
        }
      },
      "getTotalDepositStore(address)": {
        "params": {
          "_token": "token address"
        }
      },
      "initialize(address)": {
        "params": {
          "_globalConfig": "the global configuration contract"
        }
      },
      "newRateIndexCheckpoint(address)": {
        "details": "The rate set at the checkpoint is the rate from the last checkpoint to this checkpoint",
        "params": {
          "_token": "token address"
        }
      },
      "withdraw(address,address,uint256)": {
        "params": {
          "_amount": "amount to be withdrawn",
          "_from": "address to be withdrawn from",
          "_token": "token address"
        },
        "return": "The actually amount withdrawed, which will be the amount requested minus the commission fee."
      }
    }
  },
  "userdoc": {
    "methods": {
      "borrowRateIndexNow(address)": {
        "notice": "Calculate a token borrow rate of current block"
      },
      "depositRateIndexNow(address)": {
        "notice": "Calculate a token deposite rate of current block"
      },
      "getBorrowAccruedRate(address,uint256)": {
        "notice": "Get the cummulative borrow rate in a block interval ending in current block"
      },
      "getBorrowRatePerBlock(address)": {
        "notice": "Get the borrowing interest rate Borrowing interest rate."
      },
      "getCapitalCompoundRatio(address)": {
        "notice": "Ratio of the capital in Compound"
      },
      "getCapitalUtilizationRatio(address)": {
        "notice": "Get capital utilization. Capital Utilization Rate (U )= total loan outstanding / Total market deposit"
      },
      "getDepositAccruedRate(address,uint256)": {
        "notice": "It's a utility function. Get the cummulative deposit rate in a block interval ending in current block"
      },
      "getDepositRatePerBlock(address)": {
        "notice": "Get Deposit Rate.  Deposit APR = (Borrow APR * Utilization Rate (U) +  Compound Supply Rate * Capital Compound Ratio (C) )* (1- DeFiner Community Fund Ratio (D)). The scaling is 10 ** 18 sichaoy: make sure the ratePerBlock is zero if both U and C are zero."
      },
      "getTokenState(address)": {
        "notice": "Get the state of the given token"
      },
      "getTotalDepositStore(address)": {
        "notice": "Total amount of the token in Saving account"
      },
      "initialize(address)": {
        "notice": "Initialize the Bank"
      },
      "newRateIndexCheckpoint(address)": {
        "notice": "Set a new rate index checkpoint."
      },
      "withdraw(address,address,uint256)": {
        "notice": "Withdraw a token from an address"
      }
    }
  }
}