{
  "contractName": "CDaiDelegateHarness",
  "abi": [
    {
      "anonymous": false,
      "inputs": [
        {
          "indexed": false,
          "internalType": "uint256",
          "name": "cashPrior",
          "type": "uint256"
        },
        {
          "indexed": false,
          "internalType": "uint256",
          "name": "interestAccumulated",
          "type": "uint256"
        },
        {
          "indexed": false,
          "internalType": "uint256",
          "name": "borrowIndex",
          "type": "uint256"
        },
        {
          "indexed": false,
          "internalType": "uint256",
          "name": "totalBorrows",
          "type": "uint256"
        }
      ],
      "name": "AccrueInterest",
      "type": "event"
    },
    {
      "anonymous": false,
      "inputs": [
        {
          "indexed": true,
          "internalType": "address",
          "name": "owner",
          "type": "address"
        },
        {
          "indexed": true,
          "internalType": "address",
          "name": "spender",
          "type": "address"
        },
        {
          "indexed": false,
          "internalType": "uint256",
          "name": "amount",
          "type": "uint256"
        }
      ],
      "name": "Approval",
      "type": "event"
    },
    {
      "anonymous": false,
      "inputs": [
        {
          "indexed": false,
          "internalType": "address",
          "name": "borrower",
          "type": "address"
        },
        {
          "indexed": false,
          "internalType": "uint256",
          "name": "borrowAmount",
          "type": "uint256"
        },
        {
          "indexed": false,
          "internalType": "uint256",
          "name": "accountBorrows",
          "type": "uint256"
        },
        {
          "indexed": false,
          "internalType": "uint256",
          "name": "totalBorrows",
          "type": "uint256"
        }
      ],
      "name": "Borrow",
      "type": "event"
    },
    {
      "anonymous": false,
      "inputs": [
        {
          "indexed": false,
          "internalType": "uint256",
          "name": "error",
          "type": "uint256"
        },
        {
          "indexed": false,
          "internalType": "uint256",
          "name": "info",
          "type": "uint256"
        },
        {
          "indexed": false,
          "internalType": "uint256",
          "name": "detail",
          "type": "uint256"
        }
      ],
      "name": "Failure",
      "type": "event"
    },
    {
      "anonymous": false,
      "inputs": [
        {
          "indexed": false,
          "internalType": "address",
          "name": "liquidator",
          "type": "address"
        },
        {
          "indexed": false,
          "internalType": "address",
          "name": "borrower",
          "type": "address"
        },
        {
          "indexed": false,
          "internalType": "uint256",
          "name": "repayAmount",
          "type": "uint256"
        },
        {
          "indexed": false,
          "internalType": "address",
          "name": "cTokenCollateral",
          "type": "address"
        },
        {
          "indexed": false,
          "internalType": "uint256",
          "name": "seizeTokens",
          "type": "uint256"
        }
      ],
      "name": "LiquidateBorrow",
      "type": "event"
    },
    {
      "anonymous": false,
      "inputs": [
        {
          "indexed": false,
          "internalType": "address",
          "name": "minter",
          "type": "address"
        },
        {
          "indexed": false,
          "internalType": "uint256",
          "name": "mintAmount",
          "type": "uint256"
        },
        {
          "indexed": false,
          "internalType": "uint256",
          "name": "mintTokens",
          "type": "uint256"
        }
      ],
      "name": "Mint",
      "type": "event"
    },
    {
      "anonymous": false,
      "inputs": [
        {
          "indexed": false,
          "internalType": "address",
          "name": "oldAdmin",
          "type": "address"
        },
        {
          "indexed": false,
          "internalType": "address",
          "name": "newAdmin",
          "type": "address"
        }
      ],
      "name": "NewAdmin",
      "type": "event"
    },
    {
      "anonymous": false,
      "inputs": [
        {
          "indexed": false,
          "internalType": "contract ComptrollerInterface",
          "name": "oldComptroller",
          "type": "address"
        },
        {
          "indexed": false,
          "internalType": "contract ComptrollerInterface",
          "name": "newComptroller",
          "type": "address"
        }
      ],
      "name": "NewComptroller",
      "type": "event"
    },
    {
      "anonymous": false,
      "inputs": [
        {
          "indexed": false,
          "internalType": "contract InterestRateModel",
          "name": "oldInterestRateModel",
          "type": "address"
        },
        {
          "indexed": false,
          "internalType": "contract InterestRateModel",
          "name": "newInterestRateModel",
          "type": "address"
        }
      ],
      "name": "NewMarketInterestRateModel",
      "type": "event"
    },
    {
      "anonymous": false,
      "inputs": [
        {
          "indexed": false,
          "internalType": "address",
          "name": "oldPendingAdmin",
          "type": "address"
        },
        {
          "indexed": false,
          "internalType": "address",
          "name": "newPendingAdmin",
          "type": "address"
        }
      ],
      "name": "NewPendingAdmin",
      "type": "event"
    },
    {
      "anonymous": false,
      "inputs": [
        {
          "indexed": false,
          "internalType": "uint256",
          "name": "oldReserveFactorMantissa",
          "type": "uint256"
        },
        {
          "indexed": false,
          "internalType": "uint256",
          "name": "newReserveFactorMantissa",
          "type": "uint256"
        }
      ],
      "name": "NewReserveFactor",
      "type": "event"
    },
    {
      "anonymous": false,
      "inputs": [
        {
          "indexed": false,
          "internalType": "address",
          "name": "redeemer",
          "type": "address"
        },
        {
          "indexed": false,
          "internalType": "uint256",
          "name": "redeemAmount",
          "type": "uint256"
        },
        {
          "indexed": false,
          "internalType": "uint256",
          "name": "redeemTokens",
          "type": "uint256"
        }
      ],
      "name": "Redeem",
      "type": "event"
    },
    {
      "anonymous": false,
      "inputs": [
        {
          "indexed": false,
          "internalType": "address",
          "name": "payer",
          "type": "address"
        },
        {
          "indexed": false,
          "internalType": "address",
          "name": "borrower",
          "type": "address"
        },
        {
          "indexed": false,
          "internalType": "uint256",
          "name": "repayAmount",
          "type": "uint256"
        },
        {
          "indexed": false,
          "internalType": "uint256",
          "name": "accountBorrows",
          "type": "uint256"
        },
        {
          "indexed": false,
          "internalType": "uint256",
          "name": "totalBorrows",
          "type": "uint256"
        }
      ],
      "name": "RepayBorrow",
      "type": "event"
    },
    {
      "anonymous": false,
      "inputs": [
        {
          "indexed": false,
          "internalType": "address",
          "name": "benefactor",
          "type": "address"
        },
        {
          "indexed": false,
          "internalType": "uint256",
          "name": "addAmount",
          "type": "uint256"
        },
        {
          "indexed": false,
          "internalType": "uint256",
          "name": "newTotalReserves",
          "type": "uint256"
        }
      ],
      "name": "ReservesAdded",
      "type": "event"
    },
    {
      "anonymous": false,
      "inputs": [
        {
          "indexed": false,
          "internalType": "address",
          "name": "admin",
          "type": "address"
        },
        {
          "indexed": false,
          "internalType": "uint256",
          "name": "reduceAmount",
          "type": "uint256"
        },
        {
          "indexed": false,
          "internalType": "uint256",
          "name": "newTotalReserves",
          "type": "uint256"
        }
      ],
      "name": "ReservesReduced",
      "type": "event"
    },
    {
      "anonymous": false,
      "inputs": [
        {
          "indexed": true,
          "internalType": "address",
          "name": "from",
          "type": "address"
        },
        {
          "indexed": true,
          "internalType": "address",
          "name": "to",
          "type": "address"
        },
        {
          "indexed": false,
          "internalType": "uint256",
          "name": "amount",
          "type": "uint256"
        }
      ],
      "name": "Transfer",
      "type": "event"
    },
    {
      "constant": false,
      "inputs": [],
      "name": "_acceptAdmin",
      "outputs": [
        {
          "internalType": "uint256",
          "name": "",
          "type": "uint256"
        }
      ],
      "payable": false,
      "stateMutability": "nonpayable",
      "type": "function"
    },
    {
      "constant": false,
      "inputs": [
        {
          "internalType": "uint256",
          "name": "addAmount",
          "type": "uint256"
        }
      ],
      "name": "_addReserves",
      "outputs": [
        {
          "internalType": "uint256",
          "name": "",
          "type": "uint256"
        }
      ],
      "payable": false,
      "stateMutability": "nonpayable",
      "type": "function"
    },
    {
      "constant": false,
      "inputs": [
        {
          "internalType": "bytes",
          "name": "data",
          "type": "bytes"
        }
      ],
      "name": "_becomeImplementation",
      "outputs": [],
      "payable": false,
      "stateMutability": "nonpayable",
      "type": "function"
    },
    {
      "constant": false,
      "inputs": [
        {
          "internalType": "uint256",
          "name": "reduceAmount",
          "type": "uint256"
        }
      ],
      "name": "_reduceReserves",
      "outputs": [
        {
          "internalType": "uint256",
          "name": "",
          "type": "uint256"
        }
      ],
      "payable": false,
      "stateMutability": "nonpayable",
      "type": "function"
    },
    {
      "constant": false,
      "inputs": [],
      "name": "_resignImplementation",
      "outputs": [],
      "payable": false,
      "stateMutability": "nonpayable",
      "type": "function"
    },
    {
      "constant": false,
      "inputs": [
        {
          "internalType": "contract ComptrollerInterface",
          "name": "newComptroller",
          "type": "address"
        }
      ],
      "name": "_setComptroller",
      "outputs": [
        {
          "internalType": "uint256",
          "name": "",
          "type": "uint256"
        }
      ],
      "payable": false,
      "stateMutability": "nonpayable",
      "type": "function"
    },
    {
      "constant": false,
      "inputs": [
        {
          "internalType": "contract InterestRateModel",
          "name": "newInterestRateModel",
          "type": "address"
        }
      ],
      "name": "_setInterestRateModel",
      "outputs": [
        {
          "internalType": "uint256",
          "name": "",
          "type": "uint256"
        }
      ],
      "payable": false,
      "stateMutability": "nonpayable",
      "type": "function"
    },
    {
      "constant": false,
      "inputs": [
        {
          "internalType": "address payable",
          "name": "newPendingAdmin",
          "type": "address"
        }
      ],
      "name": "_setPendingAdmin",
      "outputs": [
        {
          "internalType": "uint256",
          "name": "",
          "type": "uint256"
        }
      ],
      "payable": false,
      "stateMutability": "nonpayable",
      "type": "function"
    },
    {
      "constant": false,
      "inputs": [
        {
          "internalType": "uint256",
          "name": "newReserveFactorMantissa",
          "type": "uint256"
        }
      ],
      "name": "_setReserveFactor",
      "outputs": [
        {
          "internalType": "uint256",
          "name": "",
          "type": "uint256"
        }
      ],
      "payable": false,
      "stateMutability": "nonpayable",
      "type": "function"
    },
    {
      "constant": true,
      "inputs": [],
      "name": "accrualBlockNumber",
      "outputs": [
        {
          "internalType": "uint256",
          "name": "",
          "type": "uint256"
        }
      ],
      "payable": false,
      "stateMutability": "view",
      "type": "function"
    },
    {
      "constant": false,
      "inputs": [],
      "name": "accrueInterest",
      "outputs": [
        {
          "internalType": "uint256",
          "name": "",
          "type": "uint256"
        }
      ],
      "payable": false,
      "stateMutability": "nonpayable",
      "type": "function"
    },
    {
      "constant": true,
      "inputs": [],
      "name": "admin",
      "outputs": [
        {
          "internalType": "address payable",
          "name": "",
          "type": "address"
        }
      ],
      "payable": false,
      "stateMutability": "view",
      "type": "function"
    },
    {
      "constant": true,
      "inputs": [
        {
          "internalType": "address",
          "name": "owner",
          "type": "address"
        },
        {
          "internalType": "address",
          "name": "spender",
          "type": "address"
        }
      ],
      "name": "allowance",
      "outputs": [
        {
          "internalType": "uint256",
          "name": "",
          "type": "uint256"
        }
      ],
      "payable": false,
      "stateMutability": "view",
      "type": "function"
    },
    {
      "constant": false,
      "inputs": [
        {
          "internalType": "address",
          "name": "spender",
          "type": "address"
        },
        {
          "internalType": "uint256",
          "name": "amount",
          "type": "uint256"
        }
      ],
      "name": "approve",
      "outputs": [
        {
          "internalType": "bool",
          "name": "",
          "type": "bool"
        }
      ],
      "payable": false,
      "stateMutability": "nonpayable",
      "type": "function"
    },
    {
      "constant": true,
      "inputs": [
        {
          "internalType": "address",
          "name": "owner",
          "type": "address"
        }
      ],
      "name": "balanceOf",
      "outputs": [
        {
          "internalType": "uint256",
          "name": "",
          "type": "uint256"
        }
      ],
      "payable": false,
      "stateMutability": "view",
      "type": "function"
    },
    {
      "constant": false,
      "inputs": [
        {
          "internalType": "address",
          "name": "owner",
          "type": "address"
        }
      ],
      "name": "balanceOfUnderlying",
      "outputs": [
        {
          "internalType": "uint256",
          "name": "",
          "type": "uint256"
        }
      ],
      "payable": false,
      "stateMutability": "nonpayable",
      "type": "function"
    },
    {
      "constant": false,
      "inputs": [
        {
          "internalType": "uint256",
          "name": "borrowAmount",
          "type": "uint256"
        }
      ],
      "name": "borrow",
      "outputs": [
        {
          "internalType": "uint256",
          "name": "",
          "type": "uint256"
        }
      ],
      "payable": false,
      "stateMutability": "nonpayable",
      "type": "function"
    },
    {
      "constant": false,
      "inputs": [
        {
          "internalType": "address",
          "name": "account",
          "type": "address"
        }
      ],
      "name": "borrowBalanceCurrent",
      "outputs": [
        {
          "internalType": "uint256",
          "name": "",
          "type": "uint256"
        }
      ],
      "payable": false,
      "stateMutability": "nonpayable",
      "type": "function"
    },
    {
      "constant": true,
      "inputs": [
        {
          "internalType": "address",
          "name": "account",
          "type": "address"
        }
      ],
      "name": "borrowBalanceStored",
      "outputs": [
        {
          "internalType": "uint256",
          "name": "",
          "type": "uint256"
        }
      ],
      "payable": false,
      "stateMutability": "view",
      "type": "function"
    },
    {
      "constant": true,
      "inputs": [],
      "name": "borrowIndex",
      "outputs": [
        {
          "internalType": "uint256",
          "name": "",
          "type": "uint256"
        }
      ],
      "payable": false,
      "stateMutability": "view",
      "type": "function"
    },
    {
      "constant": true,
      "inputs": [],
      "name": "borrowRatePerBlock",
      "outputs": [
        {
          "internalType": "uint256",
          "name": "",
          "type": "uint256"
        }
      ],
      "payable": false,
      "stateMutability": "view",
      "type": "function"
    },
    {
      "constant": true,
      "inputs": [],
      "name": "comptroller",
      "outputs": [
        {
          "internalType": "contract ComptrollerInterface",
          "name": "",
          "type": "address"
        }
      ],
      "payable": false,
      "stateMutability": "view",
      "type": "function"
    },
    {
      "constant": true,
      "inputs": [],
      "name": "daiJoinAddress",
      "outputs": [
        {
          "internalType": "address",
          "name": "",
          "type": "address"
        }
      ],
      "payable": false,
      "stateMutability": "view",
      "type": "function"
    },
    {
      "constant": true,
      "inputs": [],
      "name": "decimals",
      "outputs": [
        {
          "internalType": "uint8",
          "name": "",
          "type": "uint8"
        }
      ],
      "payable": false,
      "stateMutability": "view",
      "type": "function"
    },
    {
      "constant": false,
      "inputs": [],
      "name": "exchangeRateCurrent",
      "outputs": [
        {
          "internalType": "uint256",
          "name": "",
          "type": "uint256"
        }
      ],
      "payable": false,
      "stateMutability": "nonpayable",
      "type": "function"
    },
    {
      "constant": true,
      "inputs": [],
      "name": "exchangeRateStored",
      "outputs": [
        {
          "internalType": "uint256",
          "name": "",
          "type": "uint256"
        }
      ],
      "payable": false,
      "stateMutability": "view",
      "type": "function"
    },
    {
      "constant": true,
      "inputs": [
        {
          "internalType": "address",
          "name": "account",
          "type": "address"
        }
      ],
      "name": "getAccountSnapshot",
      "outputs": [
        {
          "internalType": "uint256",
          "name": "",
          "type": "uint256"
        },
        {
          "internalType": "uint256",
          "name": "",
          "type": "uint256"
        },
        {
          "internalType": "uint256",
          "name": "",
          "type": "uint256"
        },
        {
          "internalType": "uint256",
          "name": "",
          "type": "uint256"
        }
      ],
      "payable": false,
      "stateMutability": "view",
      "type": "function"
    },
    {
      "constant": true,
      "inputs": [],
      "name": "getCash",
      "outputs": [
        {
          "internalType": "uint256",
          "name": "",
          "type": "uint256"
        }
      ],
      "payable": false,
      "stateMutability": "view",
      "type": "function"
    },
    {
      "constant": true,
      "inputs": [],
      "name": "implementation",
      "outputs": [
        {
          "internalType": "address",
          "name": "",
          "type": "address"
        }
      ],
      "payable": false,
      "stateMutability": "view",
      "type": "function"
    },
    {
      "constant": false,
      "inputs": [
        {
          "internalType": "address",
          "name": "underlying_",
          "type": "address"
        },
        {
          "internalType": "contract ComptrollerInterface",
          "name": "comptroller_",
          "type": "address"
        },
        {
          "internalType": "contract InterestRateModel",
          "name": "interestRateModel_",
          "type": "address"
        },
        {
          "internalType": "uint256",
          "name": "initialExchangeRateMantissa_",
          "type": "uint256"
        },
        {
          "internalType": "string",
          "name": "name_",
          "type": "string"
        },
        {
          "internalType": "string",
          "name": "symbol_",
          "type": "string"
        },
        {
          "internalType": "uint8",
          "name": "decimals_",
          "type": "uint8"
        }
      ],
      "name": "initialize",
      "outputs": [],
      "payable": false,
      "stateMutability": "nonpayable",
      "type": "function"
    },
    {
      "constant": false,
      "inputs": [
        {
          "internalType": "contract ComptrollerInterface",
          "name": "comptroller_",
          "type": "address"
        },
        {
          "internalType": "contract InterestRateModel",
          "name": "interestRateModel_",
          "type": "address"
        },
        {
          "internalType": "uint256",
          "name": "initialExchangeRateMantissa_",
          "type": "uint256"
        },
        {
          "internalType": "string",
          "name": "name_",
          "type": "string"
        },
        {
          "internalType": "string",
          "name": "symbol_",
          "type": "string"
        },
        {
          "internalType": "uint8",
          "name": "decimals_",
          "type": "uint8"
        }
      ],
      "name": "initialize",
      "outputs": [],
      "payable": false,
      "stateMutability": "nonpayable",
      "type": "function"
    },
    {
      "constant": true,
      "inputs": [],
      "name": "interestRateModel",
      "outputs": [
        {
          "internalType": "contract InterestRateModel",
          "name": "",
          "type": "address"
        }
      ],
      "payable": false,
      "stateMutability": "view",
      "type": "function"
    },
    {
      "constant": true,
      "inputs": [],
      "name": "isCToken",
      "outputs": [
        {
          "internalType": "bool",
          "name": "",
          "type": "bool"
        }
      ],
      "payable": false,
      "stateMutability": "view",
      "type": "function"
    },
    {
      "constant": false,
      "inputs": [
        {
          "internalType": "address",
          "name": "borrower",
          "type": "address"
        },
        {
          "internalType": "uint256",
          "name": "repayAmount",
          "type": "uint256"
        },
        {
          "internalType": "contract CTokenInterface",
          "name": "cTokenCollateral",
          "type": "address"
        }
      ],
      "name": "liquidateBorrow",
      "outputs": [
        {
          "internalType": "uint256",
          "name": "",
          "type": "uint256"
        }
      ],
      "payable": false,
      "stateMutability": "nonpayable",
      "type": "function"
    },
    {
      "constant": false,
      "inputs": [
        {
          "internalType": "uint256",
          "name": "mintAmount",
          "type": "uint256"
        }
      ],
      "name": "mint",
      "outputs": [
        {
          "internalType": "uint256",
          "name": "",
          "type": "uint256"
        }
      ],
      "payable": false,
      "stateMutability": "nonpayable",
      "type": "function"
    },
    {
      "constant": true,
      "inputs": [],
      "name": "name",
      "outputs": [
        {
          "internalType": "string",
          "name": "",
          "type": "string"
        }
      ],
      "payable": false,
      "stateMutability": "view",
      "type": "function"
    },
    {
      "constant": true,
      "inputs": [],
      "name": "pendingAdmin",
      "outputs": [
        {
          "internalType": "address payable",
          "name": "",
          "type": "address"
        }
      ],
      "payable": false,
      "stateMutability": "view",
      "type": "function"
    },
    {
      "constant": true,
      "inputs": [],
      "name": "potAddress",
      "outputs": [
        {
          "internalType": "address",
          "name": "",
          "type": "address"
        }
      ],
      "payable": false,
      "stateMutability": "view",
      "type": "function"
    },
    {
      "constant": false,
      "inputs": [
        {
          "internalType": "uint256",
          "name": "redeemTokens",
          "type": "uint256"
        }
      ],
      "name": "redeem",
      "outputs": [
        {
          "internalType": "uint256",
          "name": "",
          "type": "uint256"
        }
      ],
      "payable": false,
      "stateMutability": "nonpayable",
      "type": "function"
    },
    {
      "constant": false,
      "inputs": [
        {
          "internalType": "uint256",
          "name": "redeemAmount",
          "type": "uint256"
        }
      ],
      "name": "redeemUnderlying",
      "outputs": [
        {
          "internalType": "uint256",
          "name": "",
          "type": "uint256"
        }
      ],
      "payable": false,
      "stateMutability": "nonpayable",
      "type": "function"
    },
    {
      "constant": false,
      "inputs": [
        {
          "internalType": "uint256",
          "name": "repayAmount",
          "type": "uint256"
        }
      ],
      "name": "repayBorrow",
      "outputs": [
        {
          "internalType": "uint256",
          "name": "",
          "type": "uint256"
        }
      ],
      "payable": false,
      "stateMutability": "nonpayable",
      "type": "function"
    },
    {
      "constant": false,
      "inputs": [
        {
          "internalType": "address",
          "name": "borrower",
          "type": "address"
        },
        {
          "internalType": "uint256",
          "name": "repayAmount",
          "type": "uint256"
        }
      ],
      "name": "repayBorrowBehalf",
      "outputs": [
        {
          "internalType": "uint256",
          "name": "",
          "type": "uint256"
        }
      ],
      "payable": false,
      "stateMutability": "nonpayable",
      "type": "function"
    },
    {
      "constant": true,
      "inputs": [],
      "name": "reserveFactorMantissa",
      "outputs": [
        {
          "internalType": "uint256",
          "name": "",
          "type": "uint256"
        }
      ],
      "payable": false,
      "stateMutability": "view",
      "type": "function"
    },
    {
      "constant": false,
      "inputs": [
        {
          "internalType": "address",
          "name": "liquidator",
          "type": "address"
        },
        {
          "internalType": "address",
          "name": "borrower",
          "type": "address"
        },
        {
          "internalType": "uint256",
          "name": "seizeTokens",
          "type": "uint256"
        }
      ],
      "name": "seize",
      "outputs": [
        {
          "internalType": "uint256",
          "name": "",
          "type": "uint256"
        }
      ],
      "payable": false,
      "stateMutability": "nonpayable",
      "type": "function"
    },
    {
      "constant": true,
      "inputs": [],
      "name": "supplyRatePerBlock",
      "outputs": [
        {
          "internalType": "uint256",
          "name": "",
          "type": "uint256"
        }
      ],
      "payable": false,
      "stateMutability": "view",
      "type": "function"
    },
    {
      "constant": true,
      "inputs": [],
      "name": "symbol",
      "outputs": [
        {
          "internalType": "string",
          "name": "",
          "type": "string"
        }
      ],
      "payable": false,
      "stateMutability": "view",
      "type": "function"
    },
    {
      "constant": true,
      "inputs": [],
      "name": "totalBorrows",
      "outputs": [
        {
          "internalType": "uint256",
          "name": "",
          "type": "uint256"
        }
      ],
      "payable": false,
      "stateMutability": "view",
      "type": "function"
    },
    {
      "constant": false,
      "inputs": [],
      "name": "totalBorrowsCurrent",
      "outputs": [
        {
          "internalType": "uint256",
          "name": "",
          "type": "uint256"
        }
      ],
      "payable": false,
      "stateMutability": "nonpayable",
      "type": "function"
    },
    {
      "constant": true,
      "inputs": [],
      "name": "totalReserves",
      "outputs": [
        {
          "internalType": "uint256",
          "name": "",
          "type": "uint256"
        }
      ],
      "payable": false,
      "stateMutability": "view",
      "type": "function"
    },
    {
      "constant": true,
      "inputs": [],
      "name": "totalSupply",
      "outputs": [
        {
          "internalType": "uint256",
          "name": "",
          "type": "uint256"
        }
      ],
      "payable": false,
      "stateMutability": "view",
      "type": "function"
    },
    {
      "constant": false,
      "inputs": [
        {
          "internalType": "address",
          "name": "dst",
          "type": "address"
        },
        {
          "internalType": "uint256",
          "name": "amount",
          "type": "uint256"
        }
      ],
      "name": "transfer",
      "outputs": [
        {
          "internalType": "bool",
          "name": "",
          "type": "bool"
        }
      ],
      "payable": false,
      "stateMutability": "nonpayable",
      "type": "function"
    },
    {
      "constant": false,
      "inputs": [
        {
          "internalType": "address",
          "name": "src",
          "type": "address"
        },
        {
          "internalType": "address",
          "name": "dst",
          "type": "address"
        },
        {
          "internalType": "uint256",
          "name": "amount",
          "type": "uint256"
        }
      ],
      "name": "transferFrom",
      "outputs": [
        {
          "internalType": "bool",
          "name": "",
          "type": "bool"
        }
      ],
      "payable": false,
      "stateMutability": "nonpayable",
      "type": "function"
    },
    {
      "constant": true,
      "inputs": [],
      "name": "underlying",
      "outputs": [
        {
          "internalType": "address",
          "name": "",
          "type": "address"
        }
      ],
      "payable": false,
      "stateMutability": "view",
      "type": "function"
    },
    {
      "constant": true,
      "inputs": [],
      "name": "vatAddress",
      "outputs": [
        {
          "internalType": "address",
          "name": "",
          "type": "address"
        }
      ],
      "payable": false,
      "stateMutability": "view",
      "type": "function"
    },
    {
      "constant": false,
      "inputs": [
        {
          "internalType": "uint256",
          "name": "blocks",
          "type": "uint256"
        }
      ],
      "name": "harnessFastForward",
      "outputs": [],
      "payable": false,
      "stateMutability": "nonpayable",
      "type": "function"
    },
    {
      "constant": false,
      "inputs": [
        {
          "internalType": "uint256",
          "name": "_accrualblockNumber",
          "type": "uint256"
        }
      ],
      "name": "harnessSetAccrualBlockNumber",
      "outputs": [],
      "payable": false,
      "stateMutability": "nonpayable",
      "type": "function"
    },
    {
      "constant": false,
      "inputs": [
        {
          "internalType": "address",
          "name": "account",
          "type": "address"
        },
        {
          "internalType": "uint256",
          "name": "amount",
          "type": "uint256"
        }
      ],
      "name": "harnessSetBalance",
      "outputs": [],
      "payable": false,
      "stateMutability": "nonpayable",
      "type": "function"
    },
    {
      "constant": false,
      "inputs": [
        {
          "internalType": "uint256",
          "name": "newBlockNumber",
          "type": "uint256"
        }
      ],
      "name": "harnessSetBlockNumber",
      "outputs": [],
      "payable": false,
      "stateMutability": "nonpayable",
      "type": "function"
    },
    {
      "constant": false,
      "inputs": [
        {
          "internalType": "uint256",
          "name": "exchangeRate",
          "type": "uint256"
        }
      ],
      "name": "harnessSetExchangeRate",
      "outputs": [],
      "payable": false,
      "stateMutability": "nonpayable",
      "type": "function"
    },
    {
      "constant": false,
      "inputs": [
        {
          "internalType": "uint256",
          "name": "totalSupply_",
          "type": "uint256"
        }
      ],
      "name": "harnessSetTotalSupply",
      "outputs": [],
      "payable": false,
      "stateMutability": "nonpayable",
      "type": "function"
    },
    {
      "constant": true,
      "inputs": [
        {
          "internalType": "address",
          "name": "account",
          "type": "address"
        }
      ],
      "name": "toString",
      "outputs": [
        {
          "internalType": "string",
          "name": "",
          "type": "string"
        }
      ],
      "payable": false,
      "stateMutability": "pure",
      "type": "function"
    },
    {
      "constant": true,
      "inputs": [
        {
          "internalType": "uint256",
          "name": "value",
          "type": "uint256"
        }
      ],
      "name": "toString",
      "outputs": [
        {
          "internalType": "string",
          "name": "",
          "type": "string"
        }
      ],
      "payable": false,
      "stateMutability": "pure",
      "type": "function"
    },
    {
      "constant": true,
      "inputs": [
        {
          "internalType": "bytes",
          "name": "data",
          "type": "bytes"
        }
      ],
      "name": "toString",
      "outputs": [
        {
          "internalType": "string",
          "name": "",
          "type": "string"
        }
      ],
      "payable": false,
      "stateMutability": "pure",
      "type": "function"
    },
    {
      "constant": true,
      "inputs": [
        {
          "internalType": "bytes32",
          "name": "value",
          "type": "bytes32"
        }
      ],
      "name": "toString",
      "outputs": [
        {
          "internalType": "string",
          "name": "",
          "type": "string"
        }
      ],
      "payable": false,
      "stateMutability": "pure",
      "type": "function"
    }
  ],
  "bytecode": "0x6080604052620186a0601655615f1b8061001a6000396000f3fe608060405234801561001057600080fd5b50600436106103d05760003560e01c806373acee98116101ff578063b71d1a0c1161011a578063e9c714f2116100ad578063f851a4401161007c578063f851a44014610dcd578063f8f9da2814610dd5578063fca7820b14610ddd578063fe9c44ae14610dfa576103d0565b8063e9c714f214610d61578063f2b3abbd14610d69578063f3fdb15a14610d8f578063f5e3c46214610d97576103d0565b8063c5ebeaec116100e9578063c5ebeaec14610ccd578063d9a7eb7014610cea578063db006a7514610d16578063dd62ed3e14610d33576103d0565b8063b71d1a0c14610c36578063bcbef6f314610c5c578063bd6d894d14610c79578063c37f68e214610c81576103d0565b806399d8c1b411610192578063aa5af0fd11610161578063aa5af0fd14610bf0578063ae9d70b014610bf8578063b11a19e8146108d2578063b2a02ff114610c00576103d0565b806399d8c1b414610a51578063a0712d6814610b9f578063a6afed9514610bbc578063a9059cbb14610bc4576103d0565b80638d925ccd116101ce5780638d925ccd14610a135780638f840ddd14610a1b57806395d89b4114610a2357806395dd919314610a2b576103d0565b806373acee98146109c9578063852a12e3146109d15780638869737e146109ee5780638a8df2e614610a0b576103d0565b80633b1d21a2116102ef5780635fe3b567116102825780636c540baf116102515780636c540baf146108ef5780636f307dc3146108f757806370a08231146108ff57806371aad10d14610925576103d0565b80635fe3b567146108a5578063601a0bf1146108ad57806366ced602146108ca5780636900a3ae146108d2576103d0565b806356ca623e116102be57806356ca623e146107b657806356e67728146107dc5780635a518ba8146108805780635c60da1b1461089d576103d0565b80633b1d21a2146107635780633e9410101461076b5780634576b5db1461078857806347bd3718146107ae576103d0565b80631a31d46511610367578063267822471161033657806326782247146106de578063313ce5671461070257806331c2480b146107205780633af9e6691461073d576103d0565b80631a31d4651461050957806323b872dd1461065f578063246acab1146106955780632608f818146106b2576103d0565b8063173b9904116103a3578063173b9904146104cb57806317bfdfbc146104d357806318160ddd146104f9578063182df0f514610501576103d0565b806306fdde03146103d5578063095ea7b3146104525780630e75270214610492578063153ab505146104c1575b600080fd5b6103dd610e02565b6040805160208082528351818301528351919283929083019185019080838360005b838110156104175781810151838201526020016103ff565b50505050905090810190601f1680156104445780820380516001836020036101000a031916815260200191505b509250505060405180910390f35b61047e6004803603604081101561046857600080fd5b506001600160a01b038135169060200135610e8f565b604080519115158252519081900360200190f35b6104af600480360360208110156104a857600080fd5b5035610efc565b60408051918252519081900360200190f35b6104c9610f12565b005b6104af6111b0565b6104af600480360360208110156104e957600080fd5b50356001600160a01b03166111b6565b6104af611276565b6104af61127c565b6104c9600480360360e081101561051f57600080fd5b6001600160a01b03823581169260208101358216926040820135909216916060820135919081019060a081016080820135600160201b81111561056157600080fd5b82018360208201111561057357600080fd5b803590602001918460018302840111600160201b8311171561059457600080fd5b91908080601f0160208091040260200160405190810160405280939291908181526020018383808284376000920191909152509295949360208101935035915050600160201b8111156105e657600080fd5b8201836020820111156105f857600080fd5b803590602001918460018302840111600160201b8311171561061957600080fd5b91908080601f0160208091040260200160405190810160405280939291908181526020018383808284376000920191909152509295505050903560ff1691506112df9050565b61047e6004803603606081101561067557600080fd5b506001600160a01b03813581169160208101359091169060400135611373565b6104c9600480360360208110156106ab57600080fd5b50356113e5565b6104af600480360360408110156106c857600080fd5b506001600160a01b0381351690602001356113f0565b6106e6611406565b604080516001600160a01b039092168252519081900360200190f35b61070a611415565b6040805160ff9092168252519081900360200190f35b6104c96004803603602081101561073657600080fd5b503561141e565b6104af6004803603602081101561075357600080fd5b50356001600160a01b0316611423565b6104af6114d9565b6104af6004803603602081101561078157600080fd5b50356114e8565b6104af6004803603602081101561079e57600080fd5b50356001600160a01b03166114f3565b6104af611648565b6103dd600480360360208110156107cc57600080fd5b50356001600160a01b031661164e565b6104c9600480360360208110156107f257600080fd5b810190602081018135600160201b81111561080c57600080fd5b82018360208201111561081e57600080fd5b803590602001918460018302840111600160201b8311171561083f57600080fd5b91908080601f01602080910402602001604051908101604052809392919081815260200183838082843760009201919091525092955061168d945050505050565b6104c96004803603602081101561089657600080fd5b5035611710565b6106e6611715565b6106e6611724565b6104af600480360360208110156108c357600080fd5b5035611733565b6106e66117ce565b6103dd600480360360208110156108e857600080fd5b50356117dd565b6104af611807565b6106e661180d565b6104af6004803603602081101561091557600080fd5b50356001600160a01b031661181c565b6103dd6004803603602081101561093b57600080fd5b810190602081018135600160201b81111561095557600080fd5b82018360208201111561096757600080fd5b803590602001918460018302840111600160201b8311171561098857600080fd5b91908080601f016020809104026020016040519081016040528093929190818152602001838380828437600092019190915250929550611837945050505050565b6104af6119c2565b6104af600480360360208110156109e757600080fd5b5035611a78565b6104c960048036036020811015610a0457600080fd5b5035611a83565b6106e6611a88565b6106e6611a97565b6104af611aa6565b6103dd611aac565b6104af60048036036020811015610a4157600080fd5b50356001600160a01b0316611b04565b6104c9600480360360c0811015610a6757600080fd5b6001600160a01b03823581169260208101359091169160408201359190810190608081016060820135600160201b811115610aa157600080fd5b820183602082011115610ab357600080fd5b803590602001918460018302840111600160201b83111715610ad457600080fd5b91908080601f0160208091040260200160405190810160405280939291908181526020018383808284376000920191909152509295949360208101935035915050600160201b811115610b2657600080fd5b820183602082011115610b3857600080fd5b803590602001918460018302840111600160201b83111715610b5957600080fd5b91908080601f0160208091040260200160405190810160405280939291908181526020018383808284376000920191909152509295505050903560ff169150611b619050565b6104af60048036036020811015610bb557600080fd5b5035611d48565b6104af611d54565b61047e60048036036040811015610bda57600080fd5b506001600160a01b038135169060200135611dcf565b6104af611e40565b6104af611e46565b6104af60048036036060811015610c1657600080fd5b506001600160a01b03813581169160208101359091169060400135611ee5565b6104af60048036036020811015610c4c57600080fd5b50356001600160a01b0316611f56565b6104c960048036036020811015610c7257600080fd5b5035611fe2565b6104af611ff4565b610ca760048036036020811015610c9757600080fd5b50356001600160a01b03166120b0565b604080519485526020850193909352838301919091526060830152519081900360800190f35b6104af60048036036020811015610ce357600080fd5b5035612145565b6104c960048036036040811015610d0057600080fd5b506001600160a01b038135169060200135612150565b6104af60048036036020811015610d2c57600080fd5b503561216c565b6104af60048036036040811015610d4957600080fd5b506001600160a01b0381358116916020013516612177565b6104af6121a2565b6104af60048036036020811015610d7f57600080fd5b50356001600160a01b03166122a5565b6106e66122df565b6104af60048036036060811015610dad57600080fd5b506001600160a01b038135811691602081013591604090910135166122ee565b6106e6612306565b6104af61231a565b6104af60048036036020811015610df357600080fd5b503561237e565b61047e6123fc565b60018054604080516020600284861615610100026000190190941693909304601f81018490048402820184019092528181529291830182828015610e875780601f10610e5c57610100808354040283529160200191610e87565b820191906000526020600020905b815481529060010190602001808311610e6a57829003601f168201915b505050505081565b336000818152600f602090815260408083206001600160a01b03871680855290835281842086905581518681529151939493909284927f8c5be1e5ebec7d5bd14f71427d1e84f3dd0314c0f7b2291e5b200ac8c7c3b925929081900390910190a360019150505b92915050565b600080610f0883612401565b509150505b919050565b60035461010090046001600160a01b03163314610f605760405162461bcd60e51b815260040180806020018281038252602d815260200180615c9f602d913960400191505060405180910390fd5b60135460145460155460408051634fb3c66560e11b815290516001600160a01b039485169493841693909216918391639f678cca9160048083019260209291908290030181600087803b158015610fb657600080fd5b505af1158015610fca573d6000803e3d6000fd5b505050506040513d6020811015610fe057600080fd5b5050604080516305f5d64360e11b815230600482015290516000916001600160a01b03851691630bebac8691602480820192602092909190829003018186803b15801561102c57600080fd5b505afa158015611040573d6000803e3d6000fd5b505050506040513d602081101561105657600080fd5b505160408051637f8661a160e01b81526004810183905290519192506001600160a01b03851691637f8661a19160248082019260009290919082900301818387803b1580156110a457600080fd5b505af11580156110b8573d6000803e3d6000fd5b505060408051633612d9a360e11b81523060048201529051600093506001600160a01b0386169250636c25b34691602480820192602092909190829003018186803b15801561110657600080fd5b505afa15801561111a573d6000803e3d6000fd5b505050506040513d602081101561113057600080fd5b50516040805163ef693bed60e01b81523060048201526b033b2e3c9fd0803ce80000008304602482015290519192506001600160a01b0387169163ef693bed9160448082019260009290919082900301818387803b15801561119157600080fd5b505af11580156111a5573d6000803e3d6000fd5b505050505050505050565b60085481565b6000805460ff166111fb576040805162461bcd60e51b815260206004820152600a6024820152691c994b595b9d195c995960b21b604482015290519081900360640190fd5b6000805460ff1916815561120d611d54565b14611258576040805162461bcd60e51b81526020600482015260166024820152751858d8dc9d59481a5b9d195c995cdd0819985a5b195960521b604482015290519081900360640190fd5b61126182611b04565b90505b6000805460ff19166001179055919050565b600d5481565b60008060006112896124aa565b9092509050600082600381111561129c57fe5b146112d85760405162461bcd60e51b8152600401808060200182810382526035815260200180615e326035913960400191505060405180910390fd5b9150505b90565b6112ed868686868686611b61565b601180546001600160a01b0319166001600160a01b038981169190911791829055604080516318160ddd60e01b8152905192909116916318160ddd91600480820192602092909190829003018186803b15801561134957600080fd5b505afa15801561135d573d6000803e3d6000fd5b505050506040513d60208110156111a557600080fd5b6000805460ff166113b8576040805162461bcd60e51b815260206004820152600a6024820152691c994b595b9d195c995960b21b604482015290519081900360640190fd5b6000805460ff191681556113ce33868686612559565b1490506000805460ff191660011790559392505050565b601680549091019055565b6000806113fd8484612867565b50949350505050565b6004546001600160a01b031681565b60035460ff1681565b600d55565b600061142d615a7d565b6040518060200160405280611440611ff4565b90526001600160a01b0384166000908152600e602052604081205491925090819061146c908490612912565b9092509050600082600381111561147f57fe5b146114d1576040805162461bcd60e51b815260206004820152601f60248201527f62616c616e636520636f756c64206e6f742062652063616c63756c6174656400604482015290519081900360640190fd5b949350505050565b60006114e3612966565b905090565b6000610ef682612a78565b60035460009061010090046001600160a01b03163314611520576115196001603f612b0c565b9050610f0d565b60055460408051623f1ee960e11b815290516001600160a01b0392831692851691627e3dd2916004808301926020929190829003018186803b15801561156557600080fd5b505afa158015611579573d6000803e3d6000fd5b505050506040513d602081101561158f57600080fd5b50516115e2576040805162461bcd60e51b815260206004820152601c60248201527f6d61726b6572206d6574686f642072657475726e65642066616c736500000000604482015290519081900360640190fd5b600580546001600160a01b0319166001600160a01b03858116918217909255604080519284168352602083019190915280517f7ac369dbd14fa5ea3f473ed67cc9d598964a77501540ba6751eb0b3decf5870d9281900390910190a160005b9392505050565b600b5481565b6060610ef68260405160200180826001600160a01b03166001600160a01b031660601b8152601401915050604051602081830303815290604052611837565b60035461010090046001600160a01b031633146116db5760405162461bcd60e51b8152600401808060200182810382526030815260200180615c1d6030913960400191505060405180910390fd5b6000808280602001905160408110156116f357600080fd5b508051602090910151909250905061170b8282612b72565b505050565b600955565b6012546001600160a01b031681565b6005546001600160a01b031681565b6000805460ff16611778576040805162461bcd60e51b815260206004820152600a6024820152691c994b595b9d195c995960b21b604482015290519081900360640190fd5b6000805460ff1916815561178a611d54565b905080156117b0576117a88160108111156117a157fe5b6030612b0c565b915050611264565b6117b983612e8d565b9150506000805460ff19166001179055919050565b6014546001600160a01b031681565b6060610ef68260405160200180828152602001915050604051602081830303815290604052611837565b60095481565b6011546001600160a01b031681565b6001600160a01b03166000908152600e602052604090205490565b6060806040518060400160405280601081526020016f181899199a1a9b1b9c1cb0b131b232b360811b8152509050606083516002026002016040519080825280601f01601f191660200182016040528015611899576020820181803883390190505b509050600360fc1b816000815181106118ae57fe5b60200101906001600160f81b031916908160001a905350600f60fb1b816001815181106118d757fe5b60200101906001600160f81b031916908160001a90535060005b8451811015610f085782600486838151811061190957fe5b016020015182516001600160f81b031990911690911c60f81c90811061192b57fe5b602001015160f81c60f81b82826002026002018151811061194857fe5b60200101906001600160f81b031916908160001a9053508285828151811061196c57fe5b602091010151815160f89190911c600f1690811061198657fe5b602001015160f81c60f81b8282600202600301815181106119a357fe5b60200101906001600160f81b031916908160001a9053506001016118f1565b6000805460ff16611a07576040805162461bcd60e51b815260206004820152600a6024820152691c994b595b9d195c995960b21b604482015290519081900360640190fd5b6000805460ff19168155611a19611d54565b14611a64576040805162461bcd60e51b81526020600482015260166024820152751858d8dc9d59481a5b9d195c995cdd0819985a5b195960521b604482015290519081900360640190fd5b50600b546000805460ff1916600117905590565b6000610ef682612fc0565b601655565b6013546001600160a01b031681565b6015546001600160a01b031681565b600c5481565b6002805460408051602060018416156101000260001901909316849004601f81018490048402820184019092528181529291830182828015610e875780601f10610e5c57610100808354040283529160200191610e87565b6000806000611b1284613041565b90925090506000826003811115611b2557fe5b146116415760405162461bcd60e51b8152600401808060200182810382526037815260200180615cf76037913960400191505060405180910390fd5b60035461010090046001600160a01b03163314611baf5760405162461bcd60e51b8152600401808060200182810382526024815260200180615bd66024913960400191505060405180910390fd5b600954158015611bbf5750600a54155b611bfa5760405162461bcd60e51b8152600401808060200182810382526023815260200180615bfa6023913960400191505060405180910390fd5b600784905583611c3b5760405162461bcd60e51b8152600401808060200182810382526030815260200180615c4d6030913960400191505060405180910390fd5b6000611c46876114f3565b90508015611c9b576040805162461bcd60e51b815260206004820152601a60248201527f73657474696e6720636f6d7074726f6c6c6572206661696c6564000000000000604482015290519081900360640190fd5b611ca36130f5565b600955670de0b6b3a7640000600a55611cbb866130fb565b90508015611cfa5760405162461bcd60e51b8152600401808060200182810382526022815260200180615c7d6022913960400191505060405180910390fd5b8351611d0d906001906020870190615a90565b508251611d21906002906020860190615a90565b50506003805460ff90921660ff199283161790556000805490911660011790555050505050565b600080610f0883613270565b60145460408051634fb3c66560e11b815290516000926001600160a01b031691639f678cca91600480830192602092919082900301818787803b158015611d9a57600080fd5b505af1158015611dae573d6000803e3d6000fd5b505050506040513d6020811015611dc457600080fd5b506114e390506132f1565b6000805460ff16611e14576040805162461bcd60e51b815260206004820152600a6024820152691c994b595b9d195c995960b21b604482015290519081900360640190fd5b6000805460ff19168155611e2a33338686612559565b1490506000805460ff1916600117905592915050565b600a5481565b6006546000906001600160a01b031663b8168816611e62612966565b600b54600c546008546040518563ffffffff1660e01b81526004018085815260200184815260200183815260200182815260200194505050505060206040518083038186803b158015611eb457600080fd5b505afa158015611ec8573d6000803e3d6000fd5b505050506040513d6020811015611ede57600080fd5b5051905090565b6000805460ff16611f2a576040805162461bcd60e51b815260206004820152600a6024820152691c994b595b9d195c995960b21b604482015290519081900360640190fd5b6000805460ff19169055611f4033858585613649565b90506000805460ff191660011790559392505050565b60035460009061010090046001600160a01b03163314611f7c5761151960016045612b0c565b600480546001600160a01b038481166001600160a01b0319831681179093556040805191909216808252602082019390935281517fca4f2f25d0898edd99413412fb94012f9e54ec8142f9b093e7720646a95b16a9929181900390910190a16000611641565b6017556018805460ff19166001179055565b6000805460ff16612039576040805162461bcd60e51b815260206004820152600a6024820152691c994b595b9d195c995960b21b604482015290519081900360640190fd5b6000805460ff1916815561204b611d54565b14612096576040805162461bcd60e51b81526020600482015260166024820152751858d8dc9d59481a5b9d195c995cdd0819985a5b195960521b604482015290519081900360640190fd5b61209e61127c565b90506000805460ff1916600117905590565b6001600160a01b0381166000908152600e60205260408120548190819081908180806120db89613041565b9350905060008160038111156120ed57fe5b1461210b5760095b97506000965086955085945061213e9350505050565b6121136124aa565b92509050600081600381111561212557fe5b146121315760096120f5565b5060009650919450925090505b9193509193565b6000610ef6826138af565b6001600160a01b039091166000908152600e6020526040902055565b6000610ef68261392e565b6001600160a01b039182166000908152600f6020908152604080832093909416825291909152205490565b6004546000906001600160a01b0316331415806121bd575033155b156121d5576121ce60016000612b0c565b90506112dc565b60038054600480546001600160a01b03818116610100818102610100600160a81b0319871617968790556001600160a01b031990931690935560408051948390048216808652929095041660208401528351909391927ff9ffabca9c8276e99321725bcb43fb076a6c66a54b7f21c4e8146d8519b417dc92908290030190a1600454604080516001600160a01b038085168252909216602083015280517fca4f2f25d0898edd99413412fb94012f9e54ec8142f9b093e7720646a95b16a99281900390910190a160009250505090565b6000806122b0611d54565b905080156122d6576122ce8160108111156122c757fe5b6040612b0c565b915050610f0d565b611641836130fb565b6006546001600160a01b031681565b6000806122fc8585856139a8565b5095945050505050565b60035461010090046001600160a01b031681565b6006546000906001600160a01b03166315f24053612336612966565b600b54600c546040518463ffffffff1660e01b815260040180848152602001838152602001828152602001935050505060206040518083038186803b158015611eb457600080fd5b6000805460ff166123c3576040805162461bcd60e51b815260206004820152600a6024820152691c994b595b9d195c995960b21b604482015290519081900360640190fd5b6000805460ff191681556123d5611d54565b905080156123f3576117a88160108111156123ec57fe5b6046612b0c565b6117b983613ada565b600181565b60008054819060ff16612448576040805162461bcd60e51b815260206004820152600a6024820152691c994b595b9d195c995960b21b604482015290519081900360640190fd5b6000805460ff1916815561245a611d54565b905080156124855761247881601081111561247157fe5b6036612b0c565b9250600091506124969050565b612490333386613b82565b92509250505b6000805460ff191660011790559092909150565b600d546000908190806124c557505060075460009150612555565b60006124cf612966565b905060006124db615a7d565b60006124ec84600b54600c54613f68565b9350905060008160038111156124fe57fe5b14612513579550600094506125559350505050565b61251d8386613fb4565b92509050600081600381111561252f57fe5b14612544579550600094506125559350505050565b505160009550935061255592505050565b9091565b600554604080516317b9b84b60e31b81523060048201526001600160a01b03868116602483015285811660448301526064820185905291516000938493169163bdcdc25891608480830192602092919082900301818787803b1580156125be57600080fd5b505af11580156125d2573d6000803e3d6000fd5b505050506040513d60208110156125e857600080fd5b505190508015612607576125ff6003604a83614064565b9150506114d1565b836001600160a01b0316856001600160a01b0316141561262d576125ff6002604b612b0c565b60006001600160a01b03878116908716141561264c5750600019612674565b506001600160a01b038086166000908152600f60209081526040808320938a16835292905220545b60008060008061268485896140ca565b9094509250600084600381111561269757fe5b146126b5576126a86009604b612b0c565b96505050505050506114d1565b6001600160a01b038a166000908152600e60205260409020546126d890896140ca565b909450915060008460038111156126eb57fe5b146126fc576126a86009604c612b0c565b6001600160a01b0389166000908152600e602052604090205461271f90896140ed565b9094509050600084600381111561273257fe5b14612743576126a86009604d612b0c565b6001600160a01b03808b166000908152600e6020526040808220859055918b16815220819055600019851461279b576001600160a01b03808b166000908152600f60209081526040808320938f168352929052208390555b886001600160a01b03168a6001600160a01b0316600080516020615d8a8339815191528a6040518082815260200191505060405180910390a36005546040805163352b4a3f60e11b81523060048201526001600160a01b038d811660248301528c81166044830152606482018c905291519190921691636a56947e91608480830192600092919082900301818387803b15801561283757600080fd5b505af115801561284b573d6000803e3d6000fd5b5060009250612858915050565b9b9a5050505050505050505050565b60008054819060ff166128ae576040805162461bcd60e51b815260206004820152600a6024820152691c994b595b9d195c995960b21b604482015290519081900360640190fd5b6000805460ff191681556128c0611d54565b905080156128eb576128de8160108111156128d757fe5b6035612b0c565b9250600091506128fc9050565b6128f6338686613b82565b92509250505b6000805460ff1916600117905590939092509050565b600080600061291f615a7d565b6129298686614113565b9092509050600082600381111561293c57fe5b1461294d575091506000905061295f565b60006129588261417b565b9350935050505b9250929050565b601454604080516305f5d64360e11b815230600482015290516000926001600160a01b03169183918391630bebac86916024808301926020929190829003018186803b1580156129b557600080fd5b505afa1580156129c9573d6000803e3d6000fd5b505050506040513d60208110156129df57600080fd5b50516040805163324abb3160e21b815290519192506b033b2e3c9fd0803ce800000091612a69916001600160a01b0386169163c92aecc491600480820192602092909190829003018186803b158015612a3757600080fd5b505afa158015612a4b573d6000803e3d6000fd5b505050506040513d6020811015612a6157600080fd5b50518361418a565b81612a7057fe5b049250505090565b6000805460ff16612abd576040805162461bcd60e51b815260206004820152600a6024820152691c994b595b9d195c995960b21b604482015290519081900360640190fd5b6000805460ff19168155612acf611d54565b90508015612aed576117a8816010811115612ae657fe5b604e612b0c565b612af6836141e5565b509150506000805460ff19166001179055919050565b60007f45b96fe442630264581b197e84bbada861235052c5a1aadfff9ea4e40a969aa0836010811115612b3b57fe5b836050811115612b4757fe5b604080519283526020830191909152600082820152519081900360600190a182601081111561164157fe5b600082905060008290506000826001600160a01b031663f4b9fa756040518163ffffffff1660e01b8152600401602060405180830381600087803b158015612bb957600080fd5b505af1158015612bcd573d6000803e3d6000fd5b505050506040513d6020811015612be357600080fd5b5051604080516336569e7760e01b815290519192506000916001600160a01b038616916336569e7791600480830192602092919082900301818787803b158015612c2c57600080fd5b505af1158015612c40573d6000803e3d6000fd5b505050506040513d6020811015612c5657600080fd5b50516011549091506001600160a01b03838116911614612ca75760405162461bcd60e51b8152600401808060200182810382526022815260200180615d2e6022913960400191505060405180910390fd5b601380546001600160a01b038089166001600160a01b0319928316179283905560148054898316908416179055601580548583169316929092179091556040805163095ea7b360e01b815292821660048401526000196024840152519084169163095ea7b391604480830192600092919082900301818387803b158015612d2d57600080fd5b505af1158015612d41573d6000803e3d6000fd5b5050601454604080516328ec8bf160e21b81526001600160a01b0392831660048201529051918516935063a3b22fc4925060248082019260009290919082900301818387803b158015612d9357600080fd5b505af1158015612da7573d6000803e3d6000fd5b5050601354604080516328ec8bf160e21b81526001600160a01b0392831660048201529051918516935063a3b22fc4925060248082019260009290919082900301818387803b158015612df957600080fd5b505af1158015612e0d573d6000803e3d6000fd5b50505050826001600160a01b0316639f678cca6040518163ffffffff1660e01b8152600401602060405180830381600087803b158015612e4c57600080fd5b505af1158015612e60573d6000803e3d6000fd5b505050506040513d6020811015612e7657600080fd5b50612e8490503060006142cd565b50505050505050565b600354600090819061010090046001600160a01b03163314612eb5576122ce60016031612b0c565b612ebd6130f5565b60095414612ed1576122ce600a6033612b0c565b82612eda612966565b1015612eec576122ce600e6032612b0c565b600c54831115612f02576122ce60026034612b0c565b50600c5482810390811115612f485760405162461bcd60e51b8152600401808060200182810382526024815260200180615ec36024913960400191505060405180910390fd5b600c819055600354612f689061010090046001600160a01b0316846145f2565b600354604080516101009092046001600160a01b0316825260208201859052818101839052517f3bad0c59cf2f06e7314077049f48a93578cd16f5ef92329f1dab1420a99c177e916060908290030190a16000611641565b6000805460ff16613005576040805162461bcd60e51b815260206004820152600a6024820152691c994b595b9d195c995960b21b604482015290519081900360640190fd5b6000805460ff19168155613017611d54565b90508015613035576117a881601081111561302e57fe5b6027612b0c565b6117b933600085614757565b6001600160a01b0381166000908152601060205260408120805482918291829182916130785750600094508493506130f092505050565b6130888160000154600a54614c1e565b9094509250600084600381111561309b57fe5b146130b05750919350600092506130f0915050565b6130be838260010154614c5d565b909450915060008460038111156130d157fe5b146130e65750919350600092506130f0915050565b5060009450925050505b915091565b60165490565b600354600090819061010090046001600160a01b03163314613123576122ce60016042612b0c565b61312b6130f5565b6009541461313f576122ce600a6041612b0c565b600660009054906101000a90046001600160a01b03169050826001600160a01b0316632191f92a6040518163ffffffff1660e01b815260040160206040518083038186803b15801561319057600080fd5b505afa1580156131a4573d6000803e3d6000fd5b505050506040513d60208110156131ba57600080fd5b505161320d576040805162461bcd60e51b815260206004820152601c60248201527f6d61726b6572206d6574686f642072657475726e65642066616c736500000000604482015290519081900360640190fd5b600680546001600160a01b0319166001600160a01b03858116918217909255604080519284168352602083019190915280517fedffc32e068c7c95dfd4bdfd5c4d939a084d6b11c4199eac8436ed234d72f9269281900390910190a16000611641565b60008054819060ff166132b7576040805162461bcd60e51b815260206004820152600a6024820152691c994b595b9d195c995960b21b604482015290519081900360640190fd5b6000805460ff191681556132c9611d54565b905080156132e7576124788160108111156132e057fe5b601e612b0c565b6124903385614c88565b6000806132fc6130f5565b60095490915080821415613315576000925050506112dc565b600061331f612966565b600b54600c54600a54600654604080516315f2405360e01b815260048101879052602481018690526044810185905290519596509394929391926000926001600160a01b03909216916315f24053916064808301926020929190829003018186803b15801561338d57600080fd5b505afa1580156133a1573d6000803e3d6000fd5b505050506040513d60208110156133b757600080fd5b5051905065048c27395000811115613416576040805162461bcd60e51b815260206004820152601c60248201527f626f72726f772072617465206973206162737572646c79206869676800000000604482015290519081900360640190fd5b60008061342389896140ca565b9092509050600082600381111561343657fe5b14613488576040805162461bcd60e51b815260206004820152601f60248201527f636f756c64206e6f742063616c63756c61746520626c6f636b2064656c746100604482015290519081900360640190fd5b613490615a7d565b6000806000806134ae60405180602001604052808a81525087614113565b909750945060008760038111156134c157fe5b146134f3576134de600960068960038111156134d957fe5b614064565b9e5050505050505050505050505050506112dc565b6134fd858c612912565b9097509350600087600381111561351057fe5b14613528576134de600960018960038111156134d957fe5b613532848c6140ed565b9097509250600087600381111561354557fe5b1461355d576134de600960048960038111156134d957fe5b6135786040518060200160405280600854815250858c6150e7565b9097509150600087600381111561358b57fe5b146135a3576134de600960058960038111156134d957fe5b6135ae858a8b6150e7565b909750905060008760038111156135c157fe5b146135d9576134de600960038960038111156134d957fe5b60098e9055600a819055600b839055600c829055604080518d8152602081018690528082018390526060810185905290517f4dec04e750ca11537cabcd8a9eab06494de08da3735bc8871cd41250e190bc049181900360800190a160009e50505050505050505050505050505090565b6005546040805163d02f735160e01b81523060048201526001600160a01b038781166024830152868116604483015285811660648301526084820185905291516000938493169163d02f73519160a480830192602092919082900301818787803b1580156136b657600080fd5b505af11580156136ca573d6000803e3d6000fd5b505050506040513d60208110156136e057600080fd5b5051905080156136f7576125ff6003601b83614064565b846001600160a01b0316846001600160a01b0316141561371d576125ff6006601c612b0c565b6001600160a01b0384166000908152600e60205260408120548190819061374490876140ca565b9093509150600083600381111561375757fe5b1461377a5761376f6009601a8560038111156134d957fe5b9450505050506114d1565b6001600160a01b0388166000908152600e602052604090205461379d90876140ed565b909350905060008360038111156137b057fe5b146137c85761376f600960198560038111156134d957fe5b6001600160a01b038088166000818152600e60209081526040808320879055938c168083529184902085905583518a815293519193600080516020615d8a833981519152929081900390910190a360055460408051636d35bf9160e01b81523060048201526001600160a01b038c811660248301528b811660448301528a81166064830152608482018a905291519190921691636d35bf919160a480830192600092919082900301818387803b15801561388157600080fd5b505af1158015613895573d6000803e3d6000fd5b50600092506138a2915050565b9998505050505050505050565b6000805460ff166138f4576040805162461bcd60e51b815260206004820152600a6024820152691c994b595b9d195c995960b21b604482015290519081900360640190fd5b6000805460ff19168155613906611d54565b90508015613924576117a881601081111561391d57fe5b6008612b0c565b6117b93384615134565b6000805460ff16613973576040805162461bcd60e51b815260206004820152600a6024820152691c994b595b9d195c995960b21b604482015290519081900360640190fd5b6000805460ff19168155613985611d54565b9050801561399c576117a881601081111561302e57fe5b6117b933846000614757565b60008054819060ff166139ef576040805162461bcd60e51b815260206004820152600a6024820152691c994b595b9d195c995960b21b604482015290519081900360640190fd5b6000805460ff19168155613a01611d54565b90508015613a2c57613a1f816010811115613a1857fe5b600f612b0c565b925060009150613ac39050565b836001600160a01b031663a6afed956040518163ffffffff1660e01b8152600401602060405180830381600087803b158015613a6757600080fd5b505af1158015613a7b573d6000803e3d6000fd5b505050506040513d6020811015613a9157600080fd5b505190508015613ab157613a1f816010811115613aaa57fe5b6010612b0c565b613abd33878787615442565b92509250505b6000805460ff191660011790559094909350915050565b60035460009061010090046001600160a01b03163314613b005761151960016047612b0c565b613b086130f5565b60095414613b1c57611519600a6048612b0c565b670de0b6b3a7640000821115613b385761151960026049612b0c565b6008805490839055604080518281526020810185905281517faaa68312e2ea9d50e16af5068410ab56e1a1fd06037b1a35664812c30f821460929181900390910190a16000611641565b60055460408051631200453160e11b81523060048201526001600160a01b0386811660248301528581166044830152606482018590529151600093849384939116916324008a629160848082019260209290919082900301818787803b158015613beb57600080fd5b505af1158015613bff573d6000803e3d6000fd5b505050506040513d6020811015613c1557600080fd5b505190508015613c3957613c2c6003603883614064565b925060009150613f609050565b613c416130f5565b60095414613c5557613c2c600a6039612b0c565b613c5d615b0e565b6001600160a01b0386166000908152601060205260409020600101546060820152613c8786613041565b6080830181905260208301826003811115613c9e57fe5b6003811115613ca957fe5b9052506000905081602001516003811115613cc057fe5b14613cea57613cdc60096037836020015160038111156134d957fe5b935060009250613f60915050565b600019851415613d035760808101516040820152613d0b565b604081018590525b613d198782604001516142cd565b60e082018190526080820151613d2e916140ca565b60a0830181905260208301826003811115613d4557fe5b6003811115613d5057fe5b9052506000905081602001516003811115613d6757fe5b14613da35760405162461bcd60e51b815260040180806020018281038252603a815260200180615d50603a913960400191505060405180910390fd5b613db3600b548260e001516140ca565b60c0830181905260208301826003811115613dca57fe5b6003811115613dd557fe5b9052506000905081602001516003811115613dec57fe5b14613e285760405162461bcd60e51b8152600401808060200182810382526031815260200180615daa6031913960400191505060405180910390fd5b60a080820180516001600160a01b03808a16600081815260106020908152604091829020948555600a5460019095019490945560c0870151600b81905560e088015195518251948f16855294840192909252828101949094526060820192909252608081019190915290517f1a2a22cb034d26d1854bdc6666a5b91fe25efbbb5dcad3b0355478d6f5c362a1929181900390910190a160055460e0820151606083015160408051631ededc9160e01b81523060048201526001600160a01b038c811660248301528b8116604483015260648201949094526084810192909252519190921691631ededc919160a480830192600092919082900301818387803b158015613f3357600080fd5b505af1158015613f47573d6000803e3d6000fd5b5060009250613f54915050565b8160e001519350935050505b935093915050565b600080600080613f7887876140ed565b90925090506000826003811115613f8b57fe5b14613f9c5750915060009050613f60565b613fa681866140ca565b935093505050935093915050565b6000613fbe615a7d565b600080613fd386670de0b6b3a7640000614c1e565b90925090506000826003811115613fe657fe5b146140055750604080516020810190915260008152909250905061295f565b6000806140128388614c5d565b9092509050600082600381111561402557fe5b146140475750604080516020810190915260008152909450925061295f915050565b604080516020810190915290815260009890975095505050505050565b60007f45b96fe442630264581b197e84bbada861235052c5a1aadfff9ea4e40a969aa084601081111561409357fe5b84605081111561409f57fe5b604080519283526020830191909152818101859052519081900360600190a18360108111156114d157fe5b6000808383116140e157506000905081830361295f565b5060039050600061295f565b6000808383018481106141055760009250905061295f565b50600291506000905061295f565b600061411d615a7d565b60008061412e866000015186614c1e565b9092509050600082600381111561414157fe5b146141605750604080516020810190915260008152909250905061295f565b60408051602081019091529081526000969095509350505050565b51670de0b6b3a7640000900490565b60008115806141a5575050808202828282816141a257fe5b04145b610ef6576040805162461bcd60e51b815260206004820152600c60248201526b6d756c2d6f766572666c6f7760a01b604482015290519081900360640190fd5b6000806000806141f36130f5565b6009541461421257614207600a604f612b0c565b935091506130f09050565b61421c33866142cd565b905080600c54019150600c5482101561427c576040805162461bcd60e51b815260206004820181905260248201527f61646420726573657276657320756e6578706563746564206f766572666c6f77604482015290519081900360640190fd5b600c829055604080513381526020810183905280820184905290517fa91e67c5ea634cd43a12c5a482724b03de01e85ca68702a53d0c2f45cb7c1dc59181900360600190a160009350915050915091565b601154604080516323b872dd60e01b81526001600160a01b038581166004830152306024830152604482018590529151600093929092169182916323b872dd91606480830192602092919082900301818887803b15801561432d57600080fd5b505af1158015614341573d6000803e3d6000fd5b505050506040513d602081101561435757600080fd5b50516143945760405162461bcd60e51b8152600401808060200182810382526024815260200180615e0e6024913960400191505060405180910390fd5b601354601154601454601554604080516370a0823160e01b8152306004820181905291516001600160a01b03968716969586169594851694909316928692633b4da69f92909187916370a08231916024808301926020929190829003018186803b15801561440157600080fd5b505afa158015614415573d6000803e3d6000fd5b505050506040513d602081101561442b57600080fd5b5051604080516001600160e01b031960e086901b1681526001600160a01b039093166004840152602483019190915251604480830192600092919082900301818387803b15801561447b57600080fd5b505af115801561448f573d6000803e3d6000fd5b505060408051633612d9a360e11b81523060048201529051600093506001600160a01b0385169250636c25b34691602480820192602092909190829003018186803b1580156144dd57600080fd5b505afa1580156144f1573d6000803e3d6000fd5b505050506040513d602081101561450757600080fd5b50516040805163324abb3160e21b815290519192506000916001600160a01b0386169163c92aecc4916004808301926020929190829003018186803b15801561454f57600080fd5b505afa158015614563573d6000803e3d6000fd5b505050506040513d602081101561457957600080fd5b5051828161458357fe5b049050836001600160a01b031663049878f3826040518263ffffffff1660e01b815260040180828152602001915050600060405180830381600087803b1580156145cc57600080fd5b505af11580156145e0573d6000803e3d6000fd5b509a9c9b505050505050505050505050565b6013546014546040805163324abb3160e21b815290516001600160a01b03938416939092169160009161469791849163c92aecc4916004808301926020929190829003018186803b15801561464657600080fd5b505afa15801561465a573d6000803e3d6000fd5b505050506040513d602081101561467057600080fd5b5051614688866b033b2e3c9fd0803ce800000061418a565b8161468f57fe5b0460016159c5565b9050816001600160a01b0316637f8661a1826040518263ffffffff1660e01b815260040180828152602001915050600060405180830381600087803b1580156146df57600080fd5b505af11580156146f3573d6000803e3d6000fd5b50505050826001600160a01b031663ef693bed86866040518363ffffffff1660e01b815260040180836001600160a01b03166001600160a01b0316815260200182815260200192505050600060405180830381600087803b15801561119157600080fd5b6000821580614764575081155b61479f5760405162461bcd60e51b8152600401808060200182810382526034815260200180615e8f6034913960400191505060405180910390fd5b6147a7615b54565b6147af6124aa565b60408301819052602083018260038111156147c657fe5b60038111156147d157fe5b90525060009050816020015160038111156147e857fe5b1461480c576148046009602b836020015160038111156134d957fe5b915050611641565b831561488d5760608101849052604080516020810182529082015181526148339085612912565b608083018190526020830182600381111561484a57fe5b600381111561485557fe5b905250600090508160200151600381111561486c57fe5b146148885761480460096029836020015160038111156134d957fe5b614906565b6148a98360405180602001604052808460400151815250615a0c565b60608301819052602083018260038111156148c057fe5b60038111156148cb57fe5b90525060009050816020015160038111156148e257fe5b146148fe576148046009602a836020015160038111156134d957fe5b608081018390525b60055460608201516040805163eabe7d9160e01b81523060048201526001600160a01b03898116602483015260448201939093529051600093929092169163eabe7d919160648082019260209290919082900301818787803b15801561496b57600080fd5b505af115801561497f573d6000803e3d6000fd5b505050506040513d602081101561499557600080fd5b5051905080156149b5576149ac6003602883614064565b92505050611641565b6149bd6130f5565b600954146149d1576149ac600a602c612b0c565b6149e1600d5483606001516140ca565b60a08401819052602084018260038111156149f857fe5b6003811115614a0357fe5b9052506000905082602001516003811115614a1a57fe5b14614a36576149ac6009602e846020015160038111156134d957fe5b6001600160a01b0386166000908152600e60205260409020546060830151614a5e91906140ca565b60c0840181905260208401826003811115614a7557fe5b6003811115614a8057fe5b9052506000905082602001516003811115614a9757fe5b14614ab3576149ac6009602d846020015160038111156134d957fe5b8160800151614ac0612966565b1015614ad2576149ac600e602f612b0c565b614ae08683608001516145f2565b60a0820151600d5560c08201516001600160a01b0387166000818152600e6020908152604091829020939093556060850151815190815290513093600080516020615d8a833981519152928290030190a36080820151606080840151604080516001600160a01b038b168152602081019490945283810191909152517fe5b754fb1abb7f01b499791d0b820ae3b6af3424ac1c59768edb53f4ec31a9299281900390910190a160055460808301516060840151604080516351dff98960e01b81523060048201526001600160a01b038b81166024830152604482019490945260648101929092525191909216916351dff98991608480830192600092919082900301818387803b158015614bf357600080fd5b505af1158015614c07573d6000803e3d6000fd5b5060009250614c14915050565b9695505050505050565b60008083614c315750600090508061295f565b83830283858281614c3e57fe5b0414614c525750600291506000905061295f565b60009250905061295f565b60008082614c71575060019050600061295f565b6000838581614c7c57fe5b04915091509250929050565b60055460408051634ef4c3e160e01b81523060048201526001600160a01b03858116602483015260448201859052915160009384938493911691634ef4c3e19160648082019260209290919082900301818787803b158015614ce957600080fd5b505af1158015614cfd573d6000803e3d6000fd5b505050506040513d6020811015614d1357600080fd5b505190508015614d3757614d2a6003601f83614064565b92506000915061295f9050565b614d3f6130f5565b60095414614d5357614d2a600a6022612b0c565b614d5b615b54565b614d636124aa565b6040830181905260208301826003811115614d7a57fe5b6003811115614d8557fe5b9052506000905081602001516003811115614d9c57fe5b14614dc657614db860096021836020015160038111156134d957fe5b93506000925061295f915050565b614dd086866142cd565b60c0820181905260408051602081018252908301518152614df19190615a0c565b6060830181905260208301826003811115614e0857fe5b6003811115614e1357fe5b9052506000905081602001516003811115614e2a57fe5b14614e7c576040805162461bcd60e51b815260206004820181905260248201527f4d494e545f45584348414e47455f43414c43554c4154494f4e5f4641494c4544604482015290519081900360640190fd5b614e8c600d5482606001516140ed565b6080830181905260208301826003811115614ea357fe5b6003811115614eae57fe5b9052506000905081602001516003811115614ec557fe5b14614f015760405162461bcd60e51b8152600401808060200182810382526028815260200180615e676028913960400191505060405180910390fd5b6001600160a01b0386166000908152600e60205260409020546060820151614f2991906140ed565b60a0830181905260208301826003811115614f4057fe5b6003811115614f4b57fe5b9052506000905081602001516003811115614f6257fe5b14614f9e5760405162461bcd60e51b815260040180806020018281038252602b815260200180615ccc602b913960400191505060405180910390fd5b6080810151600d5560a08101516001600160a01b0387166000818152600e60209081526040918290209390935560c084015160608086015183519485529484019190915282820193909352517f4c209b5fc8ad50758f13e2e1088ba56a560dff690a1c6fef26394f4c03821c4f929181900390910190a1606081015160408051918252516001600160a01b038816913091600080516020615d8a8339815191529181900360200190a360055460c08201516060830151604080516341c728b960e01b81523060048201526001600160a01b038b81166024830152604482019490945260648101929092525191909216916341c728b991608480830192600092919082900301818387803b1580156150b457600080fd5b505af11580156150c8573d6000803e3d6000fd5b50600092506150d5915050565b8160c001519350935050509250929050565b60008060006150f4615a7d565b6150fe8787614113565b9092509050600082600381111561511157fe5b146151225750915060009050613f60565b613fa661512e8261417b565b866140ed565b6005546040805163368f515360e21b81523060048201526001600160a01b0385811660248301526044820185905291516000938493169163da3d454c91606480830192602092919082900301818787803b15801561519157600080fd5b505af11580156151a5573d6000803e3d6000fd5b505050506040513d60208110156151bb57600080fd5b5051905080156151da576151d26003600e83614064565b915050610ef6565b6151e26130f5565b600954146151f5576151d2600a80612b0c565b826151fe612966565b1015615210576151d2600e6009612b0c565b615218615b92565b61522185613041565b602083018190528282600381111561523557fe5b600381111561524057fe5b905250600090508151600381111561525457fe5b146152795761527060096007836000015160038111156134d957fe5b92505050610ef6565b6152878160200151856140ed565b604083018190528282600381111561529b57fe5b60038111156152a657fe5b90525060009050815160038111156152ba57fe5b146152d6576152706009600c836000015160038111156134d957fe5b6152e2600b54856140ed565b60608301819052828260038111156152f657fe5b600381111561530157fe5b905250600090508151600381111561531557fe5b14615331576152706009600b836000015160038111156134d957fe5b61533b85856145f2565b604080820180516001600160a01b03881660008181526010602090815290859020928355600a54600190930192909255606080860151600b81905593518551928352928201899052818501929092529081019190915290517f13ed6866d4e1ee6da46f845c46d7e54120883d75c5ea9a2dacc1c4ca8984ab809181900360800190a160055460408051635c77860560e01b81523060048201526001600160a01b0388811660248301526044820188905291519190921691635c77860591606480830192600092919082900301818387803b15801561541857600080fd5b505af115801561542c573d6000803e3d6000fd5b5060009250615439915050565b95945050505050565b60055460408051632fe3f38f60e11b81523060048201526001600160a01b0384811660248301528781166044830152868116606483015260848201869052915160009384938493911691635fc7e71e9160a48082019260209290919082900301818787803b1580156154b357600080fd5b505af11580156154c7573d6000803e3d6000fd5b505050506040513d60208110156154dd57600080fd5b505190508015615501576154f46003601283614064565b9250600091506159bc9050565b6155096130f5565b6009541461551d576154f4600a6016612b0c565b6155256130f5565b846001600160a01b0316636c540baf6040518163ffffffff1660e01b815260040160206040518083038186803b15801561555e57600080fd5b505afa158015615572573d6000803e3d6000fd5b505050506040513d602081101561558857600080fd5b50511461559b576154f4600a6011612b0c565b866001600160a01b0316866001600160a01b031614156155c1576154f460066017612b0c565b846155d2576154f460076015612b0c565b6000198514156155e8576154f460076014612b0c565b6000806155f6898989613b82565b909250905081156156265761561782601081111561561057fe5b6018612b0c565b9450600093506159bc92505050565b6005546040805163c488847b60e01b81523060048201526001600160a01b038981166024830152604482018590528251600094859492169263c488847b926064808301939192829003018186803b15801561568057600080fd5b505afa158015615694573d6000803e3d6000fd5b505050506040513d60408110156156aa57600080fd5b508051602090910151909250905081156156f55760405162461bcd60e51b8152600401808060200182810382526033815260200180615ddb6033913960400191505060405180910390fd5b80886001600160a01b03166370a082318c6040518263ffffffff1660e01b815260040180826001600160a01b03166001600160a01b0316815260200191505060206040518083038186803b15801561574c57600080fd5b505afa158015615760573d6000803e3d6000fd5b505050506040513d602081101561577657600080fd5b505110156157cb576040805162461bcd60e51b815260206004820152601860248201527f4c49515549444154455f5345495a455f544f4f5f4d5543480000000000000000604482015290519081900360640190fd5b60006001600160a01b0389163014156157f1576157ea308d8d85613649565b905061587b565b6040805163b2a02ff160e01b81526001600160a01b038e811660048301528d81166024830152604482018590529151918b169163b2a02ff1916064808201926020929091908290030181600087803b15801561584c57600080fd5b505af1158015615860573d6000803e3d6000fd5b505050506040513d602081101561587657600080fd5b505190505b80156158c5576040805162461bcd60e51b81526020600482015260146024820152731d1bdad95b881cd95a5e9d5c994819985a5b195960621b604482015290519081900360640190fd5b604080516001600160a01b03808f168252808e1660208301528183018790528b1660608201526080810184905290517f298637f684da70674f26509b10f07ec2fbc77a335ab1e7d6215a4b2484d8bb529181900360a00190a1600554604080516347ef3b3b60e01b81523060048201526001600160a01b038c811660248301528f811660448301528e811660648301526084820188905260a48201869052915191909216916347ef3b3b9160c480830192600092919082900301818387803b15801561599057600080fd5b505af11580156159a4573d6000803e3d6000fd5b50600092506159b1915050565b975092955050505050505b94509492505050565b80820182811015610ef6576040805162461bcd60e51b815260206004820152600c60248201526b6164642d6f766572666c6f7760a01b604482015290519081900360640190fd5b6000806000615a19615a7d565b61292986866000615a28615a7d565b600080615a3d670de0b6b3a764000087614c1e565b90925090506000826003811115615a5057fe5b14615a6f5750604080516020810190915260008152909250905061295f565b612958818660000151613fb4565b6040518060200160405280600081525090565b828054600181600116156101000203166002900490600052602060002090601f016020900481019282601f10615ad157805160ff1916838001178555615afe565b82800160010185558215615afe579182015b82811115615afe578251825591602001919060010190615ae3565b50615b0a929150615bbb565b5090565b6040805161010081019091528060008152602001600081526020016000815260200160008152602001600081526020016000815260200160008152602001600081525090565b6040805160e0810190915280600081526020016000815260200160008152602001600081526020016000815260200160008152602001600081525090565b604080516080810190915280600081526020016000815260200160008152602001600081525090565b6112dc91905b80821115615b0a5760008155600101615bc156fe6f6e6c792061646d696e206d617920696e697469616c697a6520746865206d61726b65746d61726b6574206d6179206f6e6c7920626520696e697469616c697a6564206f6e63656f6e6c79207468652061646d696e206d617920696e697469616c697a652074686520696d706c656d656e746174696f6e696e697469616c2065786368616e67652072617465206d7573742062652067726561746572207468616e207a65726f2e73657474696e6720696e7465726573742072617465206d6f64656c206661696c65646f6e6c79207468652061646d696e206d6179206162616e646f6e2074686520696d706c656d656e746174696f6e4d494e545f4e45575f4143434f554e545f42414c414e43455f43414c43554c4154494f4e5f4641494c4544626f72726f7742616c616e636553746f7265643a20626f72726f7742616c616e636553746f726564496e7465726e616c206661696c6564444149206d757374206265207468652073616d6520617320756e6465726c79696e6752455041595f424f52524f575f4e45575f4143434f554e545f424f52524f575f42414c414e43455f43414c43554c4154494f4e5f4641494c4544ddf252ad1be2c89b69c2b068fc378daa952ba7f163c4a11628f55a4df523b3ef52455041595f424f52524f575f4e45575f544f54414c5f42414c414e43455f43414c43554c4154494f4e5f4641494c45444c49515549444154455f434f4d5054524f4c4c45525f43414c43554c4154455f414d4f554e545f5345495a455f4641494c4544756e6578706563746564204549502d3230207472616e7366657220696e2072657475726e65786368616e67655261746553746f7265643a2065786368616e67655261746553746f726564496e7465726e616c206661696c65644d494e545f4e45575f544f54414c5f535550504c595f43414c43554c4154494f4e5f4641494c45446f6e65206f662072656465656d546f6b656e73496e206f722072656465656d416d6f756e74496e206d757374206265207a65726f72656475636520726573657276657320756e657870656374656420756e646572666c6f77a265627a7a723158208ee6168cabca8e11bfeecf832c533276b25db9781bc271d4a008fb228244fb3764736f6c634300050e0032",
  "source": "pragma solidity ^0.5.14;\n\nimport \"../../contracts/CErc20Immutable.sol\";\nimport \"../../contracts/CErc20Delegator.sol\";\nimport \"../../contracts/CErc20Delegate.sol\";\nimport \"../../contracts/CDaiDelegate.sol\";\nimport \"./ComptrollerHarness.sol\";\n\ncontract CErc20Harness is CErc20Immutable {\n    uint blockNumber = 100000;\n    uint harnessExchangeRate;\n    bool harnessExchangeRateStored;\n\n    mapping (address => bool) public failTransferToAddresses;\n\n    constructor(address underlying_,\n                ComptrollerInterface comptroller_,\n                InterestRateModel interestRateModel_,\n                uint initialExchangeRateMantissa_,\n                string memory name_,\n                string memory symbol_,\n                uint8 decimals_,\n                address payable admin_)\n    CErc20Immutable(\n    underlying_,\n    comptroller_,\n    interestRateModel_,\n    initialExchangeRateMantissa_,\n    name_,\n    symbol_,\n    decimals_,\n    admin_) public {}\n\n    function doTransferOut(address payable to, uint amount) internal {\n        require(failTransferToAddresses[to] == false, \"TOKEN_TRANSFER_OUT_FAILED\");\n        return super.doTransferOut(to, amount);\n    }\n\n    function exchangeRateStoredInternal() internal view returns (MathError, uint) {\n        if (harnessExchangeRateStored) {\n            return (MathError.NO_ERROR, harnessExchangeRate);\n        }\n        return super.exchangeRateStoredInternal();\n    }\n\n    function getBlockNumber() internal view returns (uint) {\n        return blockNumber;\n    }\n\n    function getBorrowRateMaxMantissa() public pure returns (uint) {\n        return borrowRateMaxMantissa;\n    }\n\n    function harnessSetAccrualBlockNumber(uint _accrualblockNumber) public {\n        accrualBlockNumber = _accrualblockNumber;\n    }\n\n    function harnessSetBlockNumber(uint newBlockNumber) public {\n        blockNumber = newBlockNumber;\n    }\n\n    function harnessFastForward(uint blocks) public {\n        blockNumber += blocks;\n    }\n\n    function harnessSetBalance(address account, uint amount) external {\n        accountTokens[account] = amount;\n    }\n\n    function harnessSetTotalSupply(uint totalSupply_) public {\n        totalSupply = totalSupply_;\n    }\n\n    function harnessSetTotalBorrows(uint totalBorrows_) public {\n        totalBorrows = totalBorrows_;\n    }\n\n    function harnessSetTotalReserves(uint totalReserves_) public {\n        totalReserves = totalReserves_;\n    }\n\n    function harnessExchangeRateDetails(uint totalSupply_, uint totalBorrows_, uint totalReserves_) public {\n        totalSupply = totalSupply_;\n        totalBorrows = totalBorrows_;\n        totalReserves = totalReserves_;\n    }\n\n    function harnessSetExchangeRate(uint exchangeRate) public {\n        harnessExchangeRate = exchangeRate;\n        harnessExchangeRateStored = true;\n    }\n\n    function harnessSetFailTransferToAddress(address _to, bool _fail) public {\n        failTransferToAddresses[_to] = _fail;\n    }\n\n    function harnessMintFresh(address account, uint mintAmount) public returns (uint) {\n        (uint err,) = super.mintFresh(account, mintAmount);\n        return err;\n    }\n\n    function harnessRedeemFresh(address payable account, uint cTokenAmount, uint underlyingAmount) public returns (uint) {\n        return super.redeemFresh(account, cTokenAmount, underlyingAmount);\n    }\n\n    function harnessAccountBorrows(address account) public view returns (uint principal, uint interestIndex) {\n        BorrowSnapshot memory snapshot = accountBorrows[account];\n        return (snapshot.principal, snapshot.interestIndex);\n    }\n\n    function harnessSetAccountBorrows(address account, uint principal, uint interestIndex) public {\n        accountBorrows[account] = BorrowSnapshot({principal: principal, interestIndex: interestIndex});\n    }\n\n    function harnessSetBorrowIndex(uint borrowIndex_) public {\n        borrowIndex = borrowIndex_;\n    }\n\n    function harnessBorrowFresh(address payable account, uint borrowAmount) public returns (uint) {\n        return borrowFresh(account, borrowAmount);\n    }\n\n    function harnessRepayBorrowFresh(address payer, address account, uint repayAmount) public returns (uint) {\n        (uint err,) = repayBorrowFresh(payer, account, repayAmount);\n        return err;\n    }\n\n    function harnessLiquidateBorrowFresh(address liquidator, address borrower, uint repayAmount, CToken cTokenCollateral) public returns (uint) {\n        (uint err,) = liquidateBorrowFresh(liquidator, borrower, repayAmount, cTokenCollateral);\n        return err;\n    }\n\n    function harnessReduceReservesFresh(uint amount) public returns (uint) {\n        return _reduceReservesFresh(amount);\n    }\n\n    function harnessSetReserveFactorFresh(uint newReserveFactorMantissa) public returns (uint) {\n        return _setReserveFactorFresh(newReserveFactorMantissa);\n    }\n\n    function harnessSetInterestRateModelFresh(InterestRateModel newInterestRateModel) public returns (uint) {\n        return _setInterestRateModelFresh(newInterestRateModel);\n    }\n\n    function harnessSetInterestRateModel(address newInterestRateModelAddress) public {\n        interestRateModel = InterestRateModel(newInterestRateModelAddress);\n    }\n\n    function harnessCallBorrowAllowed(uint amount) public returns (uint) {\n        return comptroller.borrowAllowed(address(this), msg.sender, amount);\n    }\n}\n\ncontract CErc20Scenario is CErc20Immutable {\n    constructor(address underlying_,\n                ComptrollerInterface comptroller_,\n                InterestRateModel interestRateModel_,\n                uint initialExchangeRateMantissa_,\n                string memory name_,\n                string memory symbol_,\n                uint8 decimals_,\n                address payable admin_)\n    CErc20Immutable(\n    underlying_,\n    comptroller_,\n    interestRateModel_,\n    initialExchangeRateMantissa_,\n    name_,\n    symbol_,\n    decimals_,\n    admin_) public {}\n\n    function setTotalBorrows(uint totalBorrows_) public {\n        totalBorrows = totalBorrows_;\n    }\n\n    function setTotalReserves(uint totalReserves_) public {\n        totalReserves = totalReserves_;\n    }\n\n    function getBlockNumber() internal view returns (uint) {\n        ComptrollerScenario comptrollerScenario = ComptrollerScenario(address(comptroller));\n        return comptrollerScenario.blockNumber();\n    }\n}\n\ncontract CEvil is CErc20Scenario {\n    constructor(address underlying_,\n                ComptrollerInterface comptroller_,\n                InterestRateModel interestRateModel_,\n                uint initialExchangeRateMantissa_,\n                string memory name_,\n                string memory symbol_,\n                uint8 decimals_,\n                address payable admin_)\n    CErc20Scenario(\n    underlying_,\n    comptroller_,\n    interestRateModel_,\n    initialExchangeRateMantissa_,\n    name_,\n    symbol_,\n    decimals_,\n    admin_) public {}\n\n    function evilSeize(CToken treasure, address liquidator, address borrower, uint seizeTokens) public returns (uint) {\n        return treasure.seize(liquidator, borrower, seizeTokens);\n    }\n}\n\ncontract CErc20DelegatorScenario is CErc20Delegator {\n    constructor(address underlying_,\n                ComptrollerInterface comptroller_,\n                InterestRateModel interestRateModel_,\n                uint initialExchangeRateMantissa_,\n                string memory name_,\n                string memory symbol_,\n                uint8 decimals_,\n                address payable admin_,\n                address implementation_,\n                bytes memory becomeImplementationData)\n    CErc20Delegator(\n    underlying_,\n    comptroller_,\n    interestRateModel_,\n    initialExchangeRateMantissa_,\n    name_,\n    symbol_,\n    decimals_,\n    admin_,\n    implementation_,\n    becomeImplementationData) public {}\n\n    function setTotalBorrows(uint totalBorrows_) public {\n        totalBorrows = totalBorrows_;\n    }\n\n    function setTotalReserves(uint totalReserves_) public {\n        totalReserves = totalReserves_;\n    }\n}\n\ncontract CErc20DelegateHarness is CErc20Delegate {\n    event Log(string x, address y);\n    event Log(string x, uint y);\n\n    uint blockNumber = 100000;\n    uint harnessExchangeRate;\n    bool harnessExchangeRateStored;\n\n    mapping (address => bool) public failTransferToAddresses;\n\n    function exchangeRateStoredInternal() internal view returns (MathError, uint) {\n        if (harnessExchangeRateStored) {\n            return (MathError.NO_ERROR, harnessExchangeRate);\n        }\n        return super.exchangeRateStoredInternal();\n    }\n\n    function doTransferOut(address payable to, uint amount) internal {\n        require(failTransferToAddresses[to] == false, \"TOKEN_TRANSFER_OUT_FAILED\");\n        return super.doTransferOut(to, amount);\n    }\n\n    function getBlockNumber() internal view returns (uint) {\n        return blockNumber;\n    }\n\n    function getBorrowRateMaxMantissa() public pure returns (uint) {\n        return borrowRateMaxMantissa;\n    }\n\n    function harnessSetBlockNumber(uint newBlockNumber) public {\n        blockNumber = newBlockNumber;\n    }\n\n    function harnessFastForward(uint blocks) public {\n        blockNumber += blocks;\n    }\n\n    function harnessSetBalance(address account, uint amount) external {\n        accountTokens[account] = amount;\n    }\n\n    function harnessSetAccrualBlockNumber(uint _accrualblockNumber) public {\n        accrualBlockNumber = _accrualblockNumber;\n    }\n\n    function harnessSetTotalSupply(uint totalSupply_) public {\n        totalSupply = totalSupply_;\n    }\n\n    function harnessSetTotalBorrows(uint totalBorrows_) public {\n        totalBorrows = totalBorrows_;\n    }\n\n    function harnessIncrementTotalBorrows(uint addtlBorrow_) public {\n        totalBorrows = totalBorrows + addtlBorrow_;\n    }\n\n    function harnessSetTotalReserves(uint totalReserves_) public {\n        totalReserves = totalReserves_;\n    }\n\n    function harnessExchangeRateDetails(uint totalSupply_, uint totalBorrows_, uint totalReserves_) public {\n        totalSupply = totalSupply_;\n        totalBorrows = totalBorrows_;\n        totalReserves = totalReserves_;\n    }\n\n    function harnessSetExchangeRate(uint exchangeRate) public {\n        harnessExchangeRate = exchangeRate;\n        harnessExchangeRateStored = true;\n    }\n\n    function harnessSetFailTransferToAddress(address _to, bool _fail) public {\n        failTransferToAddresses[_to] = _fail;\n    }\n\n    function harnessMintFresh(address account, uint mintAmount) public returns (uint) {\n        (uint err,) = super.mintFresh(account, mintAmount);\n        return err;\n    }\n\n    function harnessRedeemFresh(address payable account, uint cTokenAmount, uint underlyingAmount) public returns (uint) {\n        return super.redeemFresh(account, cTokenAmount, underlyingAmount);\n    }\n\n    function harnessAccountBorrows(address account) public view returns (uint principal, uint interestIndex) {\n        BorrowSnapshot memory snapshot = accountBorrows[account];\n        return (snapshot.principal, snapshot.interestIndex);\n    }\n\n    function harnessSetAccountBorrows(address account, uint principal, uint interestIndex) public {\n        accountBorrows[account] = BorrowSnapshot({principal: principal, interestIndex: interestIndex});\n    }\n\n    function harnessSetBorrowIndex(uint borrowIndex_) public {\n        borrowIndex = borrowIndex_;\n    }\n\n    function harnessBorrowFresh(address payable account, uint borrowAmount) public returns (uint) {\n        return borrowFresh(account, borrowAmount);\n    }\n\n    function harnessRepayBorrowFresh(address payer, address account, uint repayAmount) public returns (uint) {\n        (uint err,) = repayBorrowFresh(payer, account, repayAmount);\n        return err;\n    }\n\n    function harnessLiquidateBorrowFresh(address liquidator, address borrower, uint repayAmount, CToken cTokenCollateral) public returns (uint) {\n        (uint err,) = liquidateBorrowFresh(liquidator, borrower, repayAmount, cTokenCollateral);\n        return err;\n    }\n\n    function harnessReduceReservesFresh(uint amount) public returns (uint) {\n        return _reduceReservesFresh(amount);\n    }\n\n    function harnessSetReserveFactorFresh(uint newReserveFactorMantissa) public returns (uint) {\n        return _setReserveFactorFresh(newReserveFactorMantissa);\n    }\n\n    function harnessSetInterestRateModelFresh(InterestRateModel newInterestRateModel) public returns (uint) {\n        return _setInterestRateModelFresh(newInterestRateModel);\n    }\n\n    function harnessSetInterestRateModel(address newInterestRateModelAddress) public {\n        interestRateModel = InterestRateModel(newInterestRateModelAddress);\n    }\n\n    function harnessCallBorrowAllowed(uint amount) public returns (uint) {\n        return comptroller.borrowAllowed(address(this), msg.sender, amount);\n    }\n}\n\ncontract CErc20DelegateScenario is CErc20Delegate {\n    constructor() public {}\n\n    function setTotalBorrows(uint totalBorrows_) public {\n        totalBorrows = totalBorrows_;\n    }\n\n    function setTotalReserves(uint totalReserves_) public {\n        totalReserves = totalReserves_;\n    }\n\n    function getBlockNumber() internal view returns (uint) {\n        ComptrollerScenario comptrollerScenario = ComptrollerScenario(address(comptroller));\n        return comptrollerScenario.blockNumber();\n    }\n}\n\ncontract CErc20DelegateScenarioExtra is CErc20DelegateScenario {\n    function iHaveSpoken() public pure returns (string memory) {\n      return \"i have spoken\";\n    }\n\n    function itIsTheWay() public {\n      admin = address(1); // make a change to test effect\n    }\n\n    function babyYoda() public pure {\n      revert(\"protect the baby\");\n    }\n}\n\ncontract CDaiDelegateHarness is CDaiDelegate {\n    uint blockNumber = 100000;\n    uint harnessExchangeRate;\n    bool harnessExchangeRateStored;\n\n    function harnessFastForward(uint blocks) public {\n        blockNumber += blocks;\n    }\n\n    function harnessSetAccrualBlockNumber(uint _accrualblockNumber) public {\n        accrualBlockNumber = _accrualblockNumber;\n    }\n\n    function harnessSetBalance(address account, uint amount) external {\n        accountTokens[account] = amount;\n    }\n\n    function harnessSetBlockNumber(uint newBlockNumber) public {\n        blockNumber = newBlockNumber;\n    }\n\n    function harnessSetExchangeRate(uint exchangeRate) public {\n        harnessExchangeRate = exchangeRate;\n        harnessExchangeRateStored = true;\n    }\n\n    function harnessSetTotalSupply(uint totalSupply_) public {\n        totalSupply = totalSupply_;\n    }\n\n    function getBlockNumber() internal view returns (uint) {\n        return blockNumber;\n    }\n}\n\ncontract CDaiDelegateScenario is CDaiDelegate {\n    function setTotalBorrows(uint totalBorrows_) public {\n        totalBorrows = totalBorrows_;\n    }\n\n    function setTotalReserves(uint totalReserves_) public {\n        totalReserves = totalReserves_;\n    }\n\n    function getBlockNumber() internal view returns (uint) {\n        ComptrollerScenario comptrollerScenario = ComptrollerScenario(address(comptroller));\n        return comptrollerScenario.blockNumber();\n    }\n}\n\ncontract CDaiDelegateMakerHarness is PotLike, VatLike, GemLike, DaiJoinLike {\n    /* Pot */\n\n    // exchangeRate\n    function chi() external view returns (uint) { return 1; }\n\n    // totalSupply\n    function pie(address) external view returns (uint) { return 0; }\n\n    // accrueInterest -> new exchangeRate\n    function drip() external returns (uint) { return 0; }\n\n    // mint\n    function join(uint) external {}\n\n    // redeem\n    function exit(uint) external {}\n\n    /* Vat */\n\n    // internal dai balance\n    function dai(address) external view returns (uint) { return 0; }\n\n    // approve pot transfer\n    function hope(address) external {}\n\n    /* Gem (Dai) */\n\n    uint public totalSupply;\n    mapping (address => mapping (address => uint)) public allowance;\n    mapping (address => uint) public balanceOf;\n    function approve(address, uint) external {}\n    function transferFrom(address src, address dst, uint amount) external returns (bool) {\n        balanceOf[src] -= amount;\n        balanceOf[dst] += amount;\n        return true;\n    }\n\n    function harnessSetBalance(address account, uint amount) external {\n        balanceOf[account] = amount;\n    }\n\n    /* DaiJoin */\n\n    // vat contract\n    function vat() external returns (VatLike) { return this; }\n\n    // dai contract\n    function dai() external returns (GemLike) { return this; }\n\n    // dai -> internal dai\n    function join(address, uint) external payable {}\n\n    // internal dai transfer out\n    function exit(address, uint) external {}\n}\n",
  "sourcePath": "/Users/yanyichun/project/Savings/contracts/compound/test/Contracts/CErc20Harness.sol",
  "compiler": {
    "name": "solc",
    "version": "0.5.14+commit.01f1aaa4.Emscripten.clang"
  },
  "schemaVersion": "3.2.3",
  "updatedAt": "2021-02-25T05:55:40.739Z",
  "devdoc": {
    "methods": {
      "_acceptAdmin()": {
        "details": "Admin function for pending admin to accept role and update admin",
        "return": "uint 0=success, otherwise a failure (see ErrorReporter.sol for details)"
      },
      "_addReserves(uint256)": {
        "params": {
          "addAmount": "The amount fo underlying token to add as reserves"
        },
        "return": "uint 0=success, otherwise a failure (see ErrorReporter.sol for details)"
      },
      "_becomeImplementation(bytes)": {
        "params": {
          "data": "The encoded arguments for becoming"
        }
      },
      "_reduceReserves(uint256)": {
        "params": {
          "reduceAmount": "Amount of reduction to reserves"
        },
        "return": "uint 0=success, otherwise a failure (see ErrorReporter.sol for details)"
      },
      "_setComptroller(address)": {
        "details": "Admin function to set a new comptroller",
        "return": "uint 0=success, otherwise a failure (see ErrorReporter.sol for details)"
      },
      "_setInterestRateModel(address)": {
        "details": "Admin function to accrue interest and update the interest rate model",
        "params": {
          "newInterestRateModel": "the new interest rate model to use"
        },
        "return": "uint 0=success, otherwise a failure (see ErrorReporter.sol for details)"
      },
      "_setPendingAdmin(address)": {
        "details": "Admin function to begin change of admin. The newPendingAdmin must call `_acceptAdmin` to finalize the transfer.",
        "params": {
          "newPendingAdmin": "New pending admin."
        },
        "return": "uint 0=success, otherwise a failure (see ErrorReporter.sol for details)"
      },
      "_setReserveFactor(uint256)": {
        "details": "Admin function to accrue interest and set a new reserve factor",
        "return": "uint 0=success, otherwise a failure (see ErrorReporter.sol for details)"
      },
      "accrueInterest()": {
        "details": "This calculates interest accrued from the last checkpointed block     up to the current block and writes new checkpoint to storage."
      },
      "allowance(address,address)": {
        "params": {
          "owner": "The address of the account which owns the tokens to be spent",
          "spender": "The address of the account which may transfer tokens"
        },
        "return": "The number of tokens allowed to be spent (-1 means infinite)"
      },
      "approve(address,uint256)": {
        "details": "This will overwrite the approval amount for `spender` and is subject to issues noted [here](https://eips.ethereum.org/EIPS/eip-20#approve)",
        "params": {
          "amount": "The number of tokens that are approved (-1 means infinite)",
          "spender": "The address of the account which may transfer tokens"
        },
        "return": "Whether or not the approval succeeded"
      },
      "balanceOf(address)": {
        "params": {
          "owner": "The address of the account to query"
        },
        "return": "The number of tokens owned by `owner`"
      },
      "balanceOfUnderlying(address)": {
        "details": "This also accrues interest in a transaction",
        "params": {
          "owner": "The address of the account to query"
        },
        "return": "The amount of underlying owned by `owner`"
      },
      "borrow(uint256)": {
        "params": {
          "borrowAmount": "The amount of the underlying asset to borrow"
        },
        "return": "uint 0=success, otherwise a failure (see ErrorReporter.sol for details)"
      },
      "borrowBalanceCurrent(address)": {
        "params": {
          "account": "The address whose balance should be calculated after updating borrowIndex"
        },
        "return": "The calculated balance"
      },
      "borrowBalanceStored(address)": {
        "params": {
          "account": "The address whose balance should be calculated"
        },
        "return": "The calculated balance"
      },
      "borrowRatePerBlock()": {
        "return": "The borrow interest rate per block, scaled by 1e18"
      },
      "exchangeRateCurrent()": {
        "return": "Calculated exchange rate scaled by 1e18"
      },
      "exchangeRateStored()": {
        "details": "This function does not accrue interest before calculating the exchange rate",
        "return": "Calculated exchange rate scaled by 1e18"
      },
      "getAccountSnapshot(address)": {
        "details": "This is used by comptroller to more efficiently perform liquidity checks.",
        "params": {
          "account": "Address of the account to snapshot"
        },
        "return": "(possible error, token balance, borrow balance, exchange rate mantissa)"
      },
      "getCash()": {
        "return": "The quantity of underlying asset owned by this contract"
      },
      "initialize(address,address,address,uint256,string,string,uint8)": {
        "params": {
          "comptroller_": "The address of the Comptroller",
          "decimals_": "ERC-20 decimal precision of this token",
          "initialExchangeRateMantissa_": "The initial exchange rate, scaled by 1e18",
          "interestRateModel_": "The address of the interest rate model",
          "name_": "ERC-20 name of this token",
          "symbol_": "ERC-20 symbol of this token",
          "underlying_": "The address of the underlying asset"
        }
      },
      "initialize(address,address,uint256,string,string,uint8)": {
        "params": {
          "comptroller_": "The address of the Comptroller",
          "decimals_": "EIP-20 decimal precision of this token",
          "initialExchangeRateMantissa_": "The initial exchange rate, scaled by 1e18",
          "interestRateModel_": "The address of the interest rate model",
          "name_": "EIP-20 name of this token",
          "symbol_": "EIP-20 symbol of this token"
        }
      },
      "liquidateBorrow(address,uint256,address)": {
        "params": {
          "borrower": "The borrower of this cToken to be liquidated",
          "cTokenCollateral": "The market in which to seize collateral from the borrower",
          "repayAmount": "The amount of the underlying borrowed asset to repay"
        },
        "return": "uint 0=success, otherwise a failure (see ErrorReporter.sol for details)"
      },
      "mint(uint256)": {
        "details": "Accrues interest whether or not the operation succeeds, unless reverted",
        "params": {
          "mintAmount": "The amount of the underlying asset to supply"
        },
        "return": "uint 0=success, otherwise a failure (see ErrorReporter.sol for details)"
      },
      "redeem(uint256)": {
        "details": "Accrues interest whether or not the operation succeeds, unless reverted",
        "params": {
          "redeemTokens": "The number of cTokens to redeem into underlying"
        },
        "return": "uint 0=success, otherwise a failure (see ErrorReporter.sol for details)"
      },
      "redeemUnderlying(uint256)": {
        "details": "Accrues interest whether or not the operation succeeds, unless reverted",
        "params": {
          "redeemAmount": "The amount of underlying to redeem"
        },
        "return": "uint 0=success, otherwise a failure (see ErrorReporter.sol for details)"
      },
      "repayBorrow(uint256)": {
        "params": {
          "repayAmount": "The amount to repay"
        },
        "return": "uint 0=success, otherwise a failure (see ErrorReporter.sol for details)"
      },
      "repayBorrowBehalf(address,uint256)": {
        "params": {
          "borrower": "the account with the debt being payed off",
          "repayAmount": "The amount to repay"
        },
        "return": "uint 0=success, otherwise a failure (see ErrorReporter.sol for details)"
      },
      "seize(address,address,uint256)": {
        "details": "Will fail unless called by another cToken during the process of liquidation. Its absolutely critical to use msg.sender as the borrowed cToken and not a parameter.",
        "params": {
          "borrower": "The account having collateral seized",
          "liquidator": "The account receiving seized collateral",
          "seizeTokens": "The number of cTokens to seize"
        },
        "return": "uint 0=success, otherwise a failure (see ErrorReporter.sol for details)"
      },
      "supplyRatePerBlock()": {
        "return": "The supply interest rate per block, scaled by 1e18"
      },
      "totalBorrowsCurrent()": {
        "return": "The total borrows with interest"
      },
      "transfer(address,uint256)": {
        "params": {
          "amount": "The number of tokens to transfer",
          "dst": "The address of the destination account"
        },
        "return": "Whether or not the transfer succeeded"
      },
      "transferFrom(address,address,uint256)": {
        "params": {
          "amount": "The number of tokens to transfer",
          "dst": "The address of the destination account",
          "src": "The address of the source account"
        },
        "return": "Whether or not the transfer succeeded"
      }
    }
  },
  "userdoc": {
    "methods": {
      "_acceptAdmin()": {
        "notice": "Accepts transfer of admin rights. msg.sender must be pendingAdmin"
      },
      "_addReserves(uint256)": {
        "notice": "The sender adds to reserves."
      },
      "_becomeImplementation(bytes)": {
        "notice": "Delegate interface to become the implementation"
      },
      "_reduceReserves(uint256)": {
        "notice": "Accrues interest and reduces reserves by transferring to admin"
      },
      "_resignImplementation()": {
        "notice": "Delegate interface to resign the implementation"
      },
      "_setComptroller(address)": {
        "notice": "Sets a new comptroller for the market"
      },
      "_setInterestRateModel(address)": {
        "notice": "accrues interest and updates the interest rate model using _setInterestRateModelFresh"
      },
      "_setPendingAdmin(address)": {
        "notice": "Begins transfer of admin rights. The newPendingAdmin must call `_acceptAdmin` to finalize the transfer."
      },
      "_setReserveFactor(uint256)": {
        "notice": "accrues interest and sets a new reserve factor for the protocol using _setReserveFactorFresh"
      },
      "accrueInterest()": {
        "notice": "Accrues DSR then applies accrued interest to total borrows and reserves"
      },
      "allowance(address,address)": {
        "notice": "Get the current allowance from `owner` for `spender`"
      },
      "approve(address,uint256)": {
        "notice": "Approve `spender` to transfer up to `amount` from `src`"
      },
      "balanceOf(address)": {
        "notice": "Get the token balance of the `owner`"
      },
      "balanceOfUnderlying(address)": {
        "notice": "Get the underlying balance of the `owner`"
      },
      "borrow(uint256)": {
        "notice": "Sender borrows assets from the protocol to their own address"
      },
      "borrowBalanceCurrent(address)": {
        "notice": "Accrue interest to updated borrowIndex and then calculate account's borrow balance using the updated borrowIndex"
      },
      "borrowBalanceStored(address)": {
        "notice": "Return the borrow balance of account based on stored data"
      },
      "borrowRatePerBlock()": {
        "notice": "Returns the current per-block borrow interest rate for this cToken"
      },
      "exchangeRateCurrent()": {
        "notice": "Accrue interest then return the up-to-date exchange rate"
      },
      "exchangeRateStored()": {
        "notice": "Calculates the exchange rate from the underlying to the CToken"
      },
      "getAccountSnapshot(address)": {
        "notice": "Get a snapshot of the account's balances, and the cached exchange rate"
      },
      "getCash()": {
        "notice": "Get cash balance of this cToken in the underlying asset"
      },
      "initialize(address,address,address,uint256,string,string,uint8)": {
        "notice": "Initialize the new money market"
      },
      "initialize(address,address,uint256,string,string,uint8)": {
        "notice": "Initialize the money market"
      },
      "liquidateBorrow(address,uint256,address)": {
        "notice": "The sender liquidates the borrowers collateral. The collateral seized is transferred to the liquidator."
      },
      "mint(uint256)": {
        "notice": "Sender supplies assets into the market and receives cTokens in exchange"
      },
      "redeem(uint256)": {
        "notice": "Sender redeems cTokens in exchange for the underlying asset"
      },
      "redeemUnderlying(uint256)": {
        "notice": "Sender redeems cTokens in exchange for a specified amount of underlying asset"
      },
      "repayBorrow(uint256)": {
        "notice": "Sender repays their own borrow"
      },
      "repayBorrowBehalf(address,uint256)": {
        "notice": "Sender repays a borrow belonging to borrower"
      },
      "seize(address,address,uint256)": {
        "notice": "Transfers collateral tokens (this market) to the liquidator."
      },
      "supplyRatePerBlock()": {
        "notice": "Returns the current per-block supply interest rate for this cToken"
      },
      "totalBorrowsCurrent()": {
        "notice": "Returns the current total borrows plus accrued interest"
      },
      "transfer(address,uint256)": {
        "notice": "Transfer `amount` tokens from `msg.sender` to `dst`"
      },
      "transferFrom(address,address,uint256)": {
        "notice": "Transfer `amount` tokens from `src` to `dst`"
      }
    }
  }
}