{
  "contractName": "CDaiDelegate",
  "abi": [
    {
      "anonymous": false,
      "inputs": [
        {
          "indexed": false,
          "internalType": "uint256",
          "name": "cashPrior",
          "type": "uint256"
        },
        {
          "indexed": false,
          "internalType": "uint256",
          "name": "interestAccumulated",
          "type": "uint256"
        },
        {
          "indexed": false,
          "internalType": "uint256",
          "name": "borrowIndex",
          "type": "uint256"
        },
        {
          "indexed": false,
          "internalType": "uint256",
          "name": "totalBorrows",
          "type": "uint256"
        }
      ],
      "name": "AccrueInterest",
      "type": "event"
    },
    {
      "anonymous": false,
      "inputs": [
        {
          "indexed": true,
          "internalType": "address",
          "name": "owner",
          "type": "address"
        },
        {
          "indexed": true,
          "internalType": "address",
          "name": "spender",
          "type": "address"
        },
        {
          "indexed": false,
          "internalType": "uint256",
          "name": "amount",
          "type": "uint256"
        }
      ],
      "name": "Approval",
      "type": "event"
    },
    {
      "anonymous": false,
      "inputs": [
        {
          "indexed": false,
          "internalType": "address",
          "name": "borrower",
          "type": "address"
        },
        {
          "indexed": false,
          "internalType": "uint256",
          "name": "borrowAmount",
          "type": "uint256"
        },
        {
          "indexed": false,
          "internalType": "uint256",
          "name": "accountBorrows",
          "type": "uint256"
        },
        {
          "indexed": false,
          "internalType": "uint256",
          "name": "totalBorrows",
          "type": "uint256"
        }
      ],
      "name": "Borrow",
      "type": "event"
    },
    {
      "anonymous": false,
      "inputs": [
        {
          "indexed": false,
          "internalType": "uint256",
          "name": "error",
          "type": "uint256"
        },
        {
          "indexed": false,
          "internalType": "uint256",
          "name": "info",
          "type": "uint256"
        },
        {
          "indexed": false,
          "internalType": "uint256",
          "name": "detail",
          "type": "uint256"
        }
      ],
      "name": "Failure",
      "type": "event"
    },
    {
      "anonymous": false,
      "inputs": [
        {
          "indexed": false,
          "internalType": "address",
          "name": "liquidator",
          "type": "address"
        },
        {
          "indexed": false,
          "internalType": "address",
          "name": "borrower",
          "type": "address"
        },
        {
          "indexed": false,
          "internalType": "uint256",
          "name": "repayAmount",
          "type": "uint256"
        },
        {
          "indexed": false,
          "internalType": "address",
          "name": "cTokenCollateral",
          "type": "address"
        },
        {
          "indexed": false,
          "internalType": "uint256",
          "name": "seizeTokens",
          "type": "uint256"
        }
      ],
      "name": "LiquidateBorrow",
      "type": "event"
    },
    {
      "anonymous": false,
      "inputs": [
        {
          "indexed": false,
          "internalType": "address",
          "name": "minter",
          "type": "address"
        },
        {
          "indexed": false,
          "internalType": "uint256",
          "name": "mintAmount",
          "type": "uint256"
        },
        {
          "indexed": false,
          "internalType": "uint256",
          "name": "mintTokens",
          "type": "uint256"
        }
      ],
      "name": "Mint",
      "type": "event"
    },
    {
      "anonymous": false,
      "inputs": [
        {
          "indexed": false,
          "internalType": "address",
          "name": "oldAdmin",
          "type": "address"
        },
        {
          "indexed": false,
          "internalType": "address",
          "name": "newAdmin",
          "type": "address"
        }
      ],
      "name": "NewAdmin",
      "type": "event"
    },
    {
      "anonymous": false,
      "inputs": [
        {
          "indexed": false,
          "internalType": "contract ComptrollerInterface",
          "name": "oldComptroller",
          "type": "address"
        },
        {
          "indexed": false,
          "internalType": "contract ComptrollerInterface",
          "name": "newComptroller",
          "type": "address"
        }
      ],
      "name": "NewComptroller",
      "type": "event"
    },
    {
      "anonymous": false,
      "inputs": [
        {
          "indexed": false,
          "internalType": "contract InterestRateModel",
          "name": "oldInterestRateModel",
          "type": "address"
        },
        {
          "indexed": false,
          "internalType": "contract InterestRateModel",
          "name": "newInterestRateModel",
          "type": "address"
        }
      ],
      "name": "NewMarketInterestRateModel",
      "type": "event"
    },
    {
      "anonymous": false,
      "inputs": [
        {
          "indexed": false,
          "internalType": "address",
          "name": "oldPendingAdmin",
          "type": "address"
        },
        {
          "indexed": false,
          "internalType": "address",
          "name": "newPendingAdmin",
          "type": "address"
        }
      ],
      "name": "NewPendingAdmin",
      "type": "event"
    },
    {
      "anonymous": false,
      "inputs": [
        {
          "indexed": false,
          "internalType": "uint256",
          "name": "oldReserveFactorMantissa",
          "type": "uint256"
        },
        {
          "indexed": false,
          "internalType": "uint256",
          "name": "newReserveFactorMantissa",
          "type": "uint256"
        }
      ],
      "name": "NewReserveFactor",
      "type": "event"
    },
    {
      "anonymous": false,
      "inputs": [
        {
          "indexed": false,
          "internalType": "address",
          "name": "redeemer",
          "type": "address"
        },
        {
          "indexed": false,
          "internalType": "uint256",
          "name": "redeemAmount",
          "type": "uint256"
        },
        {
          "indexed": false,
          "internalType": "uint256",
          "name": "redeemTokens",
          "type": "uint256"
        }
      ],
      "name": "Redeem",
      "type": "event"
    },
    {
      "anonymous": false,
      "inputs": [
        {
          "indexed": false,
          "internalType": "address",
          "name": "payer",
          "type": "address"
        },
        {
          "indexed": false,
          "internalType": "address",
          "name": "borrower",
          "type": "address"
        },
        {
          "indexed": false,
          "internalType": "uint256",
          "name": "repayAmount",
          "type": "uint256"
        },
        {
          "indexed": false,
          "internalType": "uint256",
          "name": "accountBorrows",
          "type": "uint256"
        },
        {
          "indexed": false,
          "internalType": "uint256",
          "name": "totalBorrows",
          "type": "uint256"
        }
      ],
      "name": "RepayBorrow",
      "type": "event"
    },
    {
      "anonymous": false,
      "inputs": [
        {
          "indexed": false,
          "internalType": "address",
          "name": "benefactor",
          "type": "address"
        },
        {
          "indexed": false,
          "internalType": "uint256",
          "name": "addAmount",
          "type": "uint256"
        },
        {
          "indexed": false,
          "internalType": "uint256",
          "name": "newTotalReserves",
          "type": "uint256"
        }
      ],
      "name": "ReservesAdded",
      "type": "event"
    },
    {
      "anonymous": false,
      "inputs": [
        {
          "indexed": false,
          "internalType": "address",
          "name": "admin",
          "type": "address"
        },
        {
          "indexed": false,
          "internalType": "uint256",
          "name": "reduceAmount",
          "type": "uint256"
        },
        {
          "indexed": false,
          "internalType": "uint256",
          "name": "newTotalReserves",
          "type": "uint256"
        }
      ],
      "name": "ReservesReduced",
      "type": "event"
    },
    {
      "anonymous": false,
      "inputs": [
        {
          "indexed": true,
          "internalType": "address",
          "name": "from",
          "type": "address"
        },
        {
          "indexed": true,
          "internalType": "address",
          "name": "to",
          "type": "address"
        },
        {
          "indexed": false,
          "internalType": "uint256",
          "name": "amount",
          "type": "uint256"
        }
      ],
      "name": "Transfer",
      "type": "event"
    },
    {
      "constant": false,
      "inputs": [],
      "name": "_acceptAdmin",
      "outputs": [
        {
          "internalType": "uint256",
          "name": "",
          "type": "uint256"
        }
      ],
      "payable": false,
      "stateMutability": "nonpayable",
      "type": "function"
    },
    {
      "constant": false,
      "inputs": [
        {
          "internalType": "uint256",
          "name": "addAmount",
          "type": "uint256"
        }
      ],
      "name": "_addReserves",
      "outputs": [
        {
          "internalType": "uint256",
          "name": "",
          "type": "uint256"
        }
      ],
      "payable": false,
      "stateMutability": "nonpayable",
      "type": "function"
    },
    {
      "constant": false,
      "inputs": [
        {
          "internalType": "uint256",
          "name": "reduceAmount",
          "type": "uint256"
        }
      ],
      "name": "_reduceReserves",
      "outputs": [
        {
          "internalType": "uint256",
          "name": "",
          "type": "uint256"
        }
      ],
      "payable": false,
      "stateMutability": "nonpayable",
      "type": "function"
    },
    {
      "constant": false,
      "inputs": [
        {
          "internalType": "contract ComptrollerInterface",
          "name": "newComptroller",
          "type": "address"
        }
      ],
      "name": "_setComptroller",
      "outputs": [
        {
          "internalType": "uint256",
          "name": "",
          "type": "uint256"
        }
      ],
      "payable": false,
      "stateMutability": "nonpayable",
      "type": "function"
    },
    {
      "constant": false,
      "inputs": [
        {
          "internalType": "contract InterestRateModel",
          "name": "newInterestRateModel",
          "type": "address"
        }
      ],
      "name": "_setInterestRateModel",
      "outputs": [
        {
          "internalType": "uint256",
          "name": "",
          "type": "uint256"
        }
      ],
      "payable": false,
      "stateMutability": "nonpayable",
      "type": "function"
    },
    {
      "constant": false,
      "inputs": [
        {
          "internalType": "address payable",
          "name": "newPendingAdmin",
          "type": "address"
        }
      ],
      "name": "_setPendingAdmin",
      "outputs": [
        {
          "internalType": "uint256",
          "name": "",
          "type": "uint256"
        }
      ],
      "payable": false,
      "stateMutability": "nonpayable",
      "type": "function"
    },
    {
      "constant": false,
      "inputs": [
        {
          "internalType": "uint256",
          "name": "newReserveFactorMantissa",
          "type": "uint256"
        }
      ],
      "name": "_setReserveFactor",
      "outputs": [
        {
          "internalType": "uint256",
          "name": "",
          "type": "uint256"
        }
      ],
      "payable": false,
      "stateMutability": "nonpayable",
      "type": "function"
    },
    {
      "constant": true,
      "inputs": [],
      "name": "accrualBlockNumber",
      "outputs": [
        {
          "internalType": "uint256",
          "name": "",
          "type": "uint256"
        }
      ],
      "payable": false,
      "stateMutability": "view",
      "type": "function"
    },
    {
      "constant": true,
      "inputs": [],
      "name": "admin",
      "outputs": [
        {
          "internalType": "address payable",
          "name": "",
          "type": "address"
        }
      ],
      "payable": false,
      "stateMutability": "view",
      "type": "function"
    },
    {
      "constant": true,
      "inputs": [
        {
          "internalType": "address",
          "name": "owner",
          "type": "address"
        },
        {
          "internalType": "address",
          "name": "spender",
          "type": "address"
        }
      ],
      "name": "allowance",
      "outputs": [
        {
          "internalType": "uint256",
          "name": "",
          "type": "uint256"
        }
      ],
      "payable": false,
      "stateMutability": "view",
      "type": "function"
    },
    {
      "constant": false,
      "inputs": [
        {
          "internalType": "address",
          "name": "spender",
          "type": "address"
        },
        {
          "internalType": "uint256",
          "name": "amount",
          "type": "uint256"
        }
      ],
      "name": "approve",
      "outputs": [
        {
          "internalType": "bool",
          "name": "",
          "type": "bool"
        }
      ],
      "payable": false,
      "stateMutability": "nonpayable",
      "type": "function"
    },
    {
      "constant": true,
      "inputs": [
        {
          "internalType": "address",
          "name": "owner",
          "type": "address"
        }
      ],
      "name": "balanceOf",
      "outputs": [
        {
          "internalType": "uint256",
          "name": "",
          "type": "uint256"
        }
      ],
      "payable": false,
      "stateMutability": "view",
      "type": "function"
    },
    {
      "constant": false,
      "inputs": [
        {
          "internalType": "address",
          "name": "owner",
          "type": "address"
        }
      ],
      "name": "balanceOfUnderlying",
      "outputs": [
        {
          "internalType": "uint256",
          "name": "",
          "type": "uint256"
        }
      ],
      "payable": false,
      "stateMutability": "nonpayable",
      "type": "function"
    },
    {
      "constant": false,
      "inputs": [
        {
          "internalType": "uint256",
          "name": "borrowAmount",
          "type": "uint256"
        }
      ],
      "name": "borrow",
      "outputs": [
        {
          "internalType": "uint256",
          "name": "",
          "type": "uint256"
        }
      ],
      "payable": false,
      "stateMutability": "nonpayable",
      "type": "function"
    },
    {
      "constant": false,
      "inputs": [
        {
          "internalType": "address",
          "name": "account",
          "type": "address"
        }
      ],
      "name": "borrowBalanceCurrent",
      "outputs": [
        {
          "internalType": "uint256",
          "name": "",
          "type": "uint256"
        }
      ],
      "payable": false,
      "stateMutability": "nonpayable",
      "type": "function"
    },
    {
      "constant": true,
      "inputs": [
        {
          "internalType": "address",
          "name": "account",
          "type": "address"
        }
      ],
      "name": "borrowBalanceStored",
      "outputs": [
        {
          "internalType": "uint256",
          "name": "",
          "type": "uint256"
        }
      ],
      "payable": false,
      "stateMutability": "view",
      "type": "function"
    },
    {
      "constant": true,
      "inputs": [],
      "name": "borrowIndex",
      "outputs": [
        {
          "internalType": "uint256",
          "name": "",
          "type": "uint256"
        }
      ],
      "payable": false,
      "stateMutability": "view",
      "type": "function"
    },
    {
      "constant": true,
      "inputs": [],
      "name": "borrowRatePerBlock",
      "outputs": [
        {
          "internalType": "uint256",
          "name": "",
          "type": "uint256"
        }
      ],
      "payable": false,
      "stateMutability": "view",
      "type": "function"
    },
    {
      "constant": true,
      "inputs": [],
      "name": "comptroller",
      "outputs": [
        {
          "internalType": "contract ComptrollerInterface",
          "name": "",
          "type": "address"
        }
      ],
      "payable": false,
      "stateMutability": "view",
      "type": "function"
    },
    {
      "constant": true,
      "inputs": [],
      "name": "daiJoinAddress",
      "outputs": [
        {
          "internalType": "address",
          "name": "",
          "type": "address"
        }
      ],
      "payable": false,
      "stateMutability": "view",
      "type": "function"
    },
    {
      "constant": true,
      "inputs": [],
      "name": "decimals",
      "outputs": [
        {
          "internalType": "uint8",
          "name": "",
          "type": "uint8"
        }
      ],
      "payable": false,
      "stateMutability": "view",
      "type": "function"
    },
    {
      "constant": false,
      "inputs": [],
      "name": "exchangeRateCurrent",
      "outputs": [
        {
          "internalType": "uint256",
          "name": "",
          "type": "uint256"
        }
      ],
      "payable": false,
      "stateMutability": "nonpayable",
      "type": "function"
    },
    {
      "constant": true,
      "inputs": [],
      "name": "exchangeRateStored",
      "outputs": [
        {
          "internalType": "uint256",
          "name": "",
          "type": "uint256"
        }
      ],
      "payable": false,
      "stateMutability": "view",
      "type": "function"
    },
    {
      "constant": true,
      "inputs": [
        {
          "internalType": "address",
          "name": "account",
          "type": "address"
        }
      ],
      "name": "getAccountSnapshot",
      "outputs": [
        {
          "internalType": "uint256",
          "name": "",
          "type": "uint256"
        },
        {
          "internalType": "uint256",
          "name": "",
          "type": "uint256"
        },
        {
          "internalType": "uint256",
          "name": "",
          "type": "uint256"
        },
        {
          "internalType": "uint256",
          "name": "",
          "type": "uint256"
        }
      ],
      "payable": false,
      "stateMutability": "view",
      "type": "function"
    },
    {
      "constant": true,
      "inputs": [],
      "name": "getCash",
      "outputs": [
        {
          "internalType": "uint256",
          "name": "",
          "type": "uint256"
        }
      ],
      "payable": false,
      "stateMutability": "view",
      "type": "function"
    },
    {
      "constant": true,
      "inputs": [],
      "name": "implementation",
      "outputs": [
        {
          "internalType": "address",
          "name": "",
          "type": "address"
        }
      ],
      "payable": false,
      "stateMutability": "view",
      "type": "function"
    },
    {
      "constant": false,
      "inputs": [
        {
          "internalType": "address",
          "name": "underlying_",
          "type": "address"
        },
        {
          "internalType": "contract ComptrollerInterface",
          "name": "comptroller_",
          "type": "address"
        },
        {
          "internalType": "contract InterestRateModel",
          "name": "interestRateModel_",
          "type": "address"
        },
        {
          "internalType": "uint256",
          "name": "initialExchangeRateMantissa_",
          "type": "uint256"
        },
        {
          "internalType": "string",
          "name": "name_",
          "type": "string"
        },
        {
          "internalType": "string",
          "name": "symbol_",
          "type": "string"
        },
        {
          "internalType": "uint8",
          "name": "decimals_",
          "type": "uint8"
        }
      ],
      "name": "initialize",
      "outputs": [],
      "payable": false,
      "stateMutability": "nonpayable",
      "type": "function"
    },
    {
      "constant": false,
      "inputs": [
        {
          "internalType": "contract ComptrollerInterface",
          "name": "comptroller_",
          "type": "address"
        },
        {
          "internalType": "contract InterestRateModel",
          "name": "interestRateModel_",
          "type": "address"
        },
        {
          "internalType": "uint256",
          "name": "initialExchangeRateMantissa_",
          "type": "uint256"
        },
        {
          "internalType": "string",
          "name": "name_",
          "type": "string"
        },
        {
          "internalType": "string",
          "name": "symbol_",
          "type": "string"
        },
        {
          "internalType": "uint8",
          "name": "decimals_",
          "type": "uint8"
        }
      ],
      "name": "initialize",
      "outputs": [],
      "payable": false,
      "stateMutability": "nonpayable",
      "type": "function"
    },
    {
      "constant": true,
      "inputs": [],
      "name": "interestRateModel",
      "outputs": [
        {
          "internalType": "contract InterestRateModel",
          "name": "",
          "type": "address"
        }
      ],
      "payable": false,
      "stateMutability": "view",
      "type": "function"
    },
    {
      "constant": true,
      "inputs": [],
      "name": "isCToken",
      "outputs": [
        {
          "internalType": "bool",
          "name": "",
          "type": "bool"
        }
      ],
      "payable": false,
      "stateMutability": "view",
      "type": "function"
    },
    {
      "constant": false,
      "inputs": [
        {
          "internalType": "address",
          "name": "borrower",
          "type": "address"
        },
        {
          "internalType": "uint256",
          "name": "repayAmount",
          "type": "uint256"
        },
        {
          "internalType": "contract CTokenInterface",
          "name": "cTokenCollateral",
          "type": "address"
        }
      ],
      "name": "liquidateBorrow",
      "outputs": [
        {
          "internalType": "uint256",
          "name": "",
          "type": "uint256"
        }
      ],
      "payable": false,
      "stateMutability": "nonpayable",
      "type": "function"
    },
    {
      "constant": false,
      "inputs": [
        {
          "internalType": "uint256",
          "name": "mintAmount",
          "type": "uint256"
        }
      ],
      "name": "mint",
      "outputs": [
        {
          "internalType": "uint256",
          "name": "",
          "type": "uint256"
        }
      ],
      "payable": false,
      "stateMutability": "nonpayable",
      "type": "function"
    },
    {
      "constant": true,
      "inputs": [],
      "name": "name",
      "outputs": [
        {
          "internalType": "string",
          "name": "",
          "type": "string"
        }
      ],
      "payable": false,
      "stateMutability": "view",
      "type": "function"
    },
    {
      "constant": true,
      "inputs": [],
      "name": "pendingAdmin",
      "outputs": [
        {
          "internalType": "address payable",
          "name": "",
          "type": "address"
        }
      ],
      "payable": false,
      "stateMutability": "view",
      "type": "function"
    },
    {
      "constant": true,
      "inputs": [],
      "name": "potAddress",
      "outputs": [
        {
          "internalType": "address",
          "name": "",
          "type": "address"
        }
      ],
      "payable": false,
      "stateMutability": "view",
      "type": "function"
    },
    {
      "constant": false,
      "inputs": [
        {
          "internalType": "uint256",
          "name": "redeemTokens",
          "type": "uint256"
        }
      ],
      "name": "redeem",
      "outputs": [
        {
          "internalType": "uint256",
          "name": "",
          "type": "uint256"
        }
      ],
      "payable": false,
      "stateMutability": "nonpayable",
      "type": "function"
    },
    {
      "constant": false,
      "inputs": [
        {
          "internalType": "uint256",
          "name": "redeemAmount",
          "type": "uint256"
        }
      ],
      "name": "redeemUnderlying",
      "outputs": [
        {
          "internalType": "uint256",
          "name": "",
          "type": "uint256"
        }
      ],
      "payable": false,
      "stateMutability": "nonpayable",
      "type": "function"
    },
    {
      "constant": false,
      "inputs": [
        {
          "internalType": "uint256",
          "name": "repayAmount",
          "type": "uint256"
        }
      ],
      "name": "repayBorrow",
      "outputs": [
        {
          "internalType": "uint256",
          "name": "",
          "type": "uint256"
        }
      ],
      "payable": false,
      "stateMutability": "nonpayable",
      "type": "function"
    },
    {
      "constant": false,
      "inputs": [
        {
          "internalType": "address",
          "name": "borrower",
          "type": "address"
        },
        {
          "internalType": "uint256",
          "name": "repayAmount",
          "type": "uint256"
        }
      ],
      "name": "repayBorrowBehalf",
      "outputs": [
        {
          "internalType": "uint256",
          "name": "",
          "type": "uint256"
        }
      ],
      "payable": false,
      "stateMutability": "nonpayable",
      "type": "function"
    },
    {
      "constant": true,
      "inputs": [],
      "name": "reserveFactorMantissa",
      "outputs": [
        {
          "internalType": "uint256",
          "name": "",
          "type": "uint256"
        }
      ],
      "payable": false,
      "stateMutability": "view",
      "type": "function"
    },
    {
      "constant": false,
      "inputs": [
        {
          "internalType": "address",
          "name": "liquidator",
          "type": "address"
        },
        {
          "internalType": "address",
          "name": "borrower",
          "type": "address"
        },
        {
          "internalType": "uint256",
          "name": "seizeTokens",
          "type": "uint256"
        }
      ],
      "name": "seize",
      "outputs": [
        {
          "internalType": "uint256",
          "name": "",
          "type": "uint256"
        }
      ],
      "payable": false,
      "stateMutability": "nonpayable",
      "type": "function"
    },
    {
      "constant": true,
      "inputs": [],
      "name": "supplyRatePerBlock",
      "outputs": [
        {
          "internalType": "uint256",
          "name": "",
          "type": "uint256"
        }
      ],
      "payable": false,
      "stateMutability": "view",
      "type": "function"
    },
    {
      "constant": true,
      "inputs": [],
      "name": "symbol",
      "outputs": [
        {
          "internalType": "string",
          "name": "",
          "type": "string"
        }
      ],
      "payable": false,
      "stateMutability": "view",
      "type": "function"
    },
    {
      "constant": true,
      "inputs": [],
      "name": "totalBorrows",
      "outputs": [
        {
          "internalType": "uint256",
          "name": "",
          "type": "uint256"
        }
      ],
      "payable": false,
      "stateMutability": "view",
      "type": "function"
    },
    {
      "constant": false,
      "inputs": [],
      "name": "totalBorrowsCurrent",
      "outputs": [
        {
          "internalType": "uint256",
          "name": "",
          "type": "uint256"
        }
      ],
      "payable": false,
      "stateMutability": "nonpayable",
      "type": "function"
    },
    {
      "constant": true,
      "inputs": [],
      "name": "totalReserves",
      "outputs": [
        {
          "internalType": "uint256",
          "name": "",
          "type": "uint256"
        }
      ],
      "payable": false,
      "stateMutability": "view",
      "type": "function"
    },
    {
      "constant": true,
      "inputs": [],
      "name": "totalSupply",
      "outputs": [
        {
          "internalType": "uint256",
          "name": "",
          "type": "uint256"
        }
      ],
      "payable": false,
      "stateMutability": "view",
      "type": "function"
    },
    {
      "constant": false,
      "inputs": [
        {
          "internalType": "address",
          "name": "dst",
          "type": "address"
        },
        {
          "internalType": "uint256",
          "name": "amount",
          "type": "uint256"
        }
      ],
      "name": "transfer",
      "outputs": [
        {
          "internalType": "bool",
          "name": "",
          "type": "bool"
        }
      ],
      "payable": false,
      "stateMutability": "nonpayable",
      "type": "function"
    },
    {
      "constant": false,
      "inputs": [
        {
          "internalType": "address",
          "name": "src",
          "type": "address"
        },
        {
          "internalType": "address",
          "name": "dst",
          "type": "address"
        },
        {
          "internalType": "uint256",
          "name": "amount",
          "type": "uint256"
        }
      ],
      "name": "transferFrom",
      "outputs": [
        {
          "internalType": "bool",
          "name": "",
          "type": "bool"
        }
      ],
      "payable": false,
      "stateMutability": "nonpayable",
      "type": "function"
    },
    {
      "constant": true,
      "inputs": [],
      "name": "underlying",
      "outputs": [
        {
          "internalType": "address",
          "name": "",
          "type": "address"
        }
      ],
      "payable": false,
      "stateMutability": "view",
      "type": "function"
    },
    {
      "constant": true,
      "inputs": [],
      "name": "vatAddress",
      "outputs": [
        {
          "internalType": "address",
          "name": "",
          "type": "address"
        }
      ],
      "payable": false,
      "stateMutability": "view",
      "type": "function"
    },
    {
      "constant": false,
      "inputs": [
        {
          "internalType": "bytes",
          "name": "data",
          "type": "bytes"
        }
      ],
      "name": "_becomeImplementation",
      "outputs": [],
      "payable": false,
      "stateMutability": "nonpayable",
      "type": "function"
    },
    {
      "constant": false,
      "inputs": [],
      "name": "_resignImplementation",
      "outputs": [],
      "payable": false,
      "stateMutability": "nonpayable",
      "type": "function"
    },
    {
      "constant": false,
      "inputs": [],
      "name": "accrueInterest",
      "outputs": [
        {
          "internalType": "uint256",
          "name": "",
          "type": "uint256"
        }
      ],
      "payable": false,
      "stateMutability": "nonpayable",
      "type": "function"
    },
    {
      "constant": true,
      "inputs": [
        {
          "internalType": "address",
          "name": "account",
          "type": "address"
        }
      ],
      "name": "toString",
      "outputs": [
        {
          "internalType": "string",
          "name": "",
          "type": "string"
        }
      ],
      "payable": false,
      "stateMutability": "pure",
      "type": "function"
    },
    {
      "constant": true,
      "inputs": [
        {
          "internalType": "uint256",
          "name": "value",
          "type": "uint256"
        }
      ],
      "name": "toString",
      "outputs": [
        {
          "internalType": "string",
          "name": "",
          "type": "string"
        }
      ],
      "payable": false,
      "stateMutability": "pure",
      "type": "function"
    },
    {
      "constant": true,
      "inputs": [
        {
          "internalType": "bytes",
          "name": "data",
          "type": "bytes"
        }
      ],
      "name": "toString",
      "outputs": [
        {
          "internalType": "string",
          "name": "",
          "type": "string"
        }
      ],
      "payable": false,
      "stateMutability": "pure",
      "type": "function"
    },
    {
      "constant": true,
      "inputs": [
        {
          "internalType": "bytes32",
          "name": "value",
          "type": "bytes32"
        }
      ],
      "name": "toString",
      "outputs": [
        {
          "internalType": "string",
          "name": "",
          "type": "string"
        }
      ],
      "payable": false,
      "stateMutability": "pure",
      "type": "function"
    }
  ],
  "bytecode": "0x6080604052615dd2806100136000396000f3fe608060405234801561001057600080fd5b506004361061038e5760003560e01c806373acee98116101de578063b2a02ff11161010f578063e9c714f2116100ad578063f851a4401161007c578063f851a44014610cce578063f8f9da2814610cd6578063fca7820b14610cde578063fe9c44ae14610cfb5761038e565b8063e9c714f214610c62578063f2b3abbd14610c6a578063f3fdb15a14610c90578063f5e3c46214610c985761038e565b8063c37f68e2116100e9578063c37f68e214610bae578063c5ebeaec14610bfa578063db006a7514610c17578063dd62ed3e14610c345761038e565b8063b2a02ff114610b4a578063b71d1a0c14610b80578063bd6d894d14610ba65761038e565b806399d8c1b41161017c578063a9059cbb11610156578063a9059cbb14610b0e578063aa5af0fd14610b3a578063ae9d70b014610b42578063b11a19e8146108395761038e565b806399d8c1b41461099b578063a0712d6814610ae9578063a6afed9514610b065761038e565b80638d925ccd116101b85780638d925ccd1461095d5780638f840ddd1461096557806395d89b411461096d57806395dd9193146109755761038e565b806373acee9814610930578063852a12e3146109385780638a8df2e6146109555761038e565b80633b1d21a2116102c35780635fe3b567116102615780636c540baf116102305780636c540baf146108565780636f307dc31461085e57806370a082311461086657806371aad10d1461088c5761038e565b80635fe3b5671461080c578063601a0bf11461081457806366ced602146108315780636900a3ae146108395761038e565b806347bd37181161029d57806347bd37181461073257806356ca623e1461073a57806356e67728146107605780635c60da1b146108045761038e565b80633b1d21a2146106e75780633e941010146106ef5780634576b5db1461070c5761038e565b8063182df0f5116103305780632608f8181161030a5780632608f81814610653578063267822471461067f578063313ce567146106a35780633af9e669146106c15761038e565b8063182df0f5146104bf5780631a31d465146104c757806323b872dd1461061d5761038e565b8063153ab5051161036c578063153ab5051461047f578063173b99041461048957806317bfdfbc1461049157806318160ddd146104b75761038e565b806306fdde0314610393578063095ea7b3146104105780630e75270214610450575b600080fd5b61039b610d03565b6040805160208082528351818301528351919283929083019185019080838360005b838110156103d55781810151838201526020016103bd565b50505050905090810190601f1680156104025780820380516001836020036101000a031916815260200191505b509250505060405180910390f35b61043c6004803603604081101561042657600080fd5b506001600160a01b038135169060200135610d90565b604080519115158252519081900360200190f35b61046d6004803603602081101561046657600080fd5b5035610dfd565b60408051918252519081900360200190f35b610487610e13565b005b61046d6110b1565b61046d600480360360208110156104a757600080fd5b50356001600160a01b03166110b7565b61046d611177565b61046d61117d565b610487600480360360e08110156104dd57600080fd5b6001600160a01b03823581169260208101358216926040820135909216916060820135919081019060a081016080820135600160201b81111561051f57600080fd5b82018360208201111561053157600080fd5b803590602001918460018302840111600160201b8311171561055257600080fd5b91908080601f0160208091040260200160405190810160405280939291908181526020018383808284376000920191909152509295949360208101935035915050600160201b8111156105a457600080fd5b8201836020820111156105b657600080fd5b803590602001918460018302840111600160201b831117156105d757600080fd5b91908080601f0160208091040260200160405190810160405280939291908181526020018383808284376000920191909152509295505050903560ff1691506111e09050565b61043c6004803603606081101561063357600080fd5b506001600160a01b03813581169160208101359091169060400135611274565b61046d6004803603604081101561066957600080fd5b506001600160a01b0381351690602001356112e6565b6106876112fc565b604080516001600160a01b039092168252519081900360200190f35b6106ab61130b565b6040805160ff9092168252519081900360200190f35b61046d600480360360208110156106d757600080fd5b50356001600160a01b0316611314565b61046d6113ca565b61046d6004803603602081101561070557600080fd5b50356113d9565b61046d6004803603602081101561072257600080fd5b50356001600160a01b03166113e4565b61046d611539565b61039b6004803603602081101561075057600080fd5b50356001600160a01b031661153f565b6104876004803603602081101561077657600080fd5b810190602081018135600160201b81111561079057600080fd5b8201836020820111156107a257600080fd5b803590602001918460018302840111600160201b831117156107c357600080fd5b91908080601f01602080910402602001604051908101604052809392919081815260200183838082843760009201919091525092955061157e945050505050565b610687611601565b610687611610565b61046d6004803603602081101561082a57600080fd5b503561161f565b6106876116ba565b61039b6004803603602081101561084f57600080fd5b50356116c9565b61046d6116f3565b6106876116f9565b61046d6004803603602081101561087c57600080fd5b50356001600160a01b0316611708565b61039b600480360360208110156108a257600080fd5b810190602081018135600160201b8111156108bc57600080fd5b8201836020820111156108ce57600080fd5b803590602001918460018302840111600160201b831117156108ef57600080fd5b91908080601f016020809104026020016040519081016040528093929190818152602001838380828437600092019190915250929550611723945050505050565b61046d6118ae565b61046d6004803603602081101561094e57600080fd5b5035611964565b61068761196f565b61068761197e565b61046d61198d565b61039b611993565b61046d6004803603602081101561098b57600080fd5b50356001600160a01b03166119eb565b610487600480360360c08110156109b157600080fd5b6001600160a01b03823581169260208101359091169160408201359190810190608081016060820135600160201b8111156109eb57600080fd5b8201836020820111156109fd57600080fd5b803590602001918460018302840111600160201b83111715610a1e57600080fd5b91908080601f0160208091040260200160405190810160405280939291908181526020018383808284376000920191909152509295949360208101935035915050600160201b811115610a7057600080fd5b820183602082011115610a8257600080fd5b803590602001918460018302840111600160201b83111715610aa357600080fd5b91908080601f0160208091040260200160405190810160405280939291908181526020018383808284376000920191909152509295505050903560ff169150611a489050565b61046d60048036036020811015610aff57600080fd5b5035611c2f565b61046d611c3b565b61043c60048036036040811015610b2457600080fd5b506001600160a01b038135169060200135611cb6565b61046d611d27565b61046d611d2d565b61046d60048036036060811015610b6057600080fd5b506001600160a01b03813581169160208101359091169060400135611dcc565b61046d60048036036020811015610b9657600080fd5b50356001600160a01b0316611e3d565b61046d611ec9565b610bd460048036036020811015610bc457600080fd5b50356001600160a01b0316611f85565b604080519485526020850193909352838301919091526060830152519081900360800190f35b61046d60048036036020811015610c1057600080fd5b503561201a565b61046d60048036036020811015610c2d57600080fd5b5035612025565b61046d60048036036040811015610c4a57600080fd5b506001600160a01b0381358116916020013516612030565b61046d61205b565b61046d60048036036020811015610c8057600080fd5b50356001600160a01b031661215e565b610687612198565b61046d60048036036060811015610cae57600080fd5b506001600160a01b038135811691602081013591604090910135166121a7565b6106876121bf565b61046d6121d3565b61046d60048036036020811015610cf457600080fd5b5035612237565b61043c6122b5565b60018054604080516020600284861615610100026000190190941693909304601f81018490048402820184019092528181529291830182828015610d885780601f10610d5d57610100808354040283529160200191610d88565b820191906000526020600020905b815481529060010190602001808311610d6b57829003601f168201915b505050505081565b336000818152600f602090815260408083206001600160a01b03871680855290835281842086905581518681529151939493909284927f8c5be1e5ebec7d5bd14f71427d1e84f3dd0314c0f7b2291e5b200ac8c7c3b925929081900390910190a360019150505b92915050565b600080610e09836122ba565b509150505b919050565b60035461010090046001600160a01b03163314610e615760405162461bcd60e51b815260040180806020018281038252602d815260200180615b56602d913960400191505060405180910390fd5b60135460145460155460408051634fb3c66560e11b815290516001600160a01b039485169493841693909216918391639f678cca9160048083019260209291908290030181600087803b158015610eb757600080fd5b505af1158015610ecb573d6000803e3d6000fd5b505050506040513d6020811015610ee157600080fd5b5050604080516305f5d64360e11b815230600482015290516000916001600160a01b03851691630bebac8691602480820192602092909190829003018186803b158015610f2d57600080fd5b505afa158015610f41573d6000803e3d6000fd5b505050506040513d6020811015610f5757600080fd5b505160408051637f8661a160e01b81526004810183905290519192506001600160a01b03851691637f8661a19160248082019260009290919082900301818387803b158015610fa557600080fd5b505af1158015610fb9573d6000803e3d6000fd5b505060408051633612d9a360e11b81523060048201529051600093506001600160a01b0386169250636c25b34691602480820192602092909190829003018186803b15801561100757600080fd5b505afa15801561101b573d6000803e3d6000fd5b505050506040513d602081101561103157600080fd5b50516040805163ef693bed60e01b81523060048201526b033b2e3c9fd0803ce80000008304602482015290519192506001600160a01b0387169163ef693bed9160448082019260009290919082900301818387803b15801561109257600080fd5b505af11580156110a6573d6000803e3d6000fd5b505050505050505050565b60085481565b6000805460ff166110fc576040805162461bcd60e51b815260206004820152600a6024820152691c994b595b9d195c995960b21b604482015290519081900360640190fd5b6000805460ff1916815561110e611c3b565b14611159576040805162461bcd60e51b81526020600482015260166024820152751858d8dc9d59481a5b9d195c995cdd0819985a5b195960521b604482015290519081900360640190fd5b611162826119eb565b90505b6000805460ff19166001179055919050565b600d5481565b600080600061118a612363565b9092509050600082600381111561119d57fe5b146111d95760405162461bcd60e51b8152600401808060200182810382526035815260200180615ce96035913960400191505060405180910390fd5b9150505b90565b6111ee868686868686611a48565b601180546001600160a01b0319166001600160a01b038981169190911791829055604080516318160ddd60e01b8152905192909116916318160ddd91600480820192602092909190829003018186803b15801561124a57600080fd5b505afa15801561125e573d6000803e3d6000fd5b505050506040513d60208110156110a657600080fd5b6000805460ff166112b9576040805162461bcd60e51b815260206004820152600a6024820152691c994b595b9d195c995960b21b604482015290519081900360640190fd5b6000805460ff191681556112cf33868686612412565b1490506000805460ff191660011790559392505050565b6000806112f38484612720565b50949350505050565b6004546001600160a01b031681565b60035460ff1681565b600061131e615934565b6040518060200160405280611331611ec9565b90526001600160a01b0384166000908152600e602052604081205491925090819061135d9084906127cb565b9092509050600082600381111561137057fe5b146113c2576040805162461bcd60e51b815260206004820152601f60248201527f62616c616e636520636f756c64206e6f742062652063616c63756c6174656400604482015290519081900360640190fd5b949350505050565b60006113d461281f565b905090565b6000610df782612931565b60035460009061010090046001600160a01b031633146114115761140a6001603f6129c5565b9050610e0e565b60055460408051623f1ee960e11b815290516001600160a01b0392831692851691627e3dd2916004808301926020929190829003018186803b15801561145657600080fd5b505afa15801561146a573d6000803e3d6000fd5b505050506040513d602081101561148057600080fd5b50516114d3576040805162461bcd60e51b815260206004820152601c60248201527f6d61726b6572206d6574686f642072657475726e65642066616c736500000000604482015290519081900360640190fd5b600580546001600160a01b0319166001600160a01b03858116918217909255604080519284168352602083019190915280517f7ac369dbd14fa5ea3f473ed67cc9d598964a77501540ba6751eb0b3decf5870d9281900390910190a160005b9392505050565b600b5481565b6060610df78260405160200180826001600160a01b03166001600160a01b031660601b8152601401915050604051602081830303815290604052611723565b60035461010090046001600160a01b031633146115cc5760405162461bcd60e51b8152600401808060200182810382526030815260200180615ad46030913960400191505060405180910390fd5b6000808280602001905160408110156115e457600080fd5b50805160209091015190925090506115fc8282612a2b565b505050565b6012546001600160a01b031681565b6005546001600160a01b031681565b6000805460ff16611664576040805162461bcd60e51b815260206004820152600a6024820152691c994b595b9d195c995960b21b604482015290519081900360640190fd5b6000805460ff19168155611676611c3b565b9050801561169c5761169481601081111561168d57fe5b60306129c5565b915050611165565b6116a583612d46565b9150506000805460ff19166001179055919050565b6014546001600160a01b031681565b6060610df78260405160200180828152602001915050604051602081830303815290604052611723565b60095481565b6011546001600160a01b031681565b6001600160a01b03166000908152600e602052604090205490565b6060806040518060400160405280601081526020016f181899199a1a9b1b9c1cb0b131b232b360811b8152509050606083516002026002016040519080825280601f01601f191660200182016040528015611785576020820181803883390190505b509050600360fc1b8160008151811061179a57fe5b60200101906001600160f81b031916908160001a905350600f60fb1b816001815181106117c357fe5b60200101906001600160f81b031916908160001a90535060005b8451811015610e09578260048683815181106117f557fe5b016020015182516001600160f81b031990911690911c60f81c90811061181757fe5b602001015160f81c60f81b82826002026002018151811061183457fe5b60200101906001600160f81b031916908160001a9053508285828151811061185857fe5b602091010151815160f89190911c600f1690811061187257fe5b602001015160f81c60f81b82826002026003018151811061188f57fe5b60200101906001600160f81b031916908160001a9053506001016117dd565b6000805460ff166118f3576040805162461bcd60e51b815260206004820152600a6024820152691c994b595b9d195c995960b21b604482015290519081900360640190fd5b6000805460ff19168155611905611c3b565b14611950576040805162461bcd60e51b81526020600482015260166024820152751858d8dc9d59481a5b9d195c995cdd0819985a5b195960521b604482015290519081900360640190fd5b50600b546000805460ff1916600117905590565b6000610df782612e79565b6013546001600160a01b031681565b6015546001600160a01b031681565b600c5481565b6002805460408051602060018416156101000260001901909316849004601f81018490048402820184019092528181529291830182828015610d885780601f10610d5d57610100808354040283529160200191610d88565b60008060006119f984612efa565b90925090506000826003811115611a0c57fe5b146115325760405162461bcd60e51b8152600401808060200182810382526037815260200180615bae6037913960400191505060405180910390fd5b60035461010090046001600160a01b03163314611a965760405162461bcd60e51b8152600401808060200182810382526024815260200180615a8d6024913960400191505060405180910390fd5b600954158015611aa65750600a54155b611ae15760405162461bcd60e51b8152600401808060200182810382526023815260200180615ab16023913960400191505060405180910390fd5b600784905583611b225760405162461bcd60e51b8152600401808060200182810382526030815260200180615b046030913960400191505060405180910390fd5b6000611b2d876113e4565b90508015611b82576040805162461bcd60e51b815260206004820152601a60248201527f73657474696e6720636f6d7074726f6c6c6572206661696c6564000000000000604482015290519081900360640190fd5b611b8a612fae565b600955670de0b6b3a7640000600a55611ba286612fb2565b90508015611be15760405162461bcd60e51b8152600401808060200182810382526022815260200180615b346022913960400191505060405180910390fd5b8351611bf4906001906020870190615947565b508251611c08906002906020860190615947565b50506003805460ff90921660ff199283161790556000805490911660011790555050505050565b600080610e0983613127565b60145460408051634fb3c66560e11b815290516000926001600160a01b031691639f678cca91600480830192602092919082900301818787803b158015611c8157600080fd5b505af1158015611c95573d6000803e3d6000fd5b505050506040513d6020811015611cab57600080fd5b506113d490506131a8565b6000805460ff16611cfb576040805162461bcd60e51b815260206004820152600a6024820152691c994b595b9d195c995960b21b604482015290519081900360640190fd5b6000805460ff19168155611d1133338686612412565b1490506000805460ff1916600117905592915050565b600a5481565b6006546000906001600160a01b031663b8168816611d4961281f565b600b54600c546008546040518563ffffffff1660e01b81526004018085815260200184815260200183815260200182815260200194505050505060206040518083038186803b158015611d9b57600080fd5b505afa158015611daf573d6000803e3d6000fd5b505050506040513d6020811015611dc557600080fd5b5051905090565b6000805460ff16611e11576040805162461bcd60e51b815260206004820152600a6024820152691c994b595b9d195c995960b21b604482015290519081900360640190fd5b6000805460ff19169055611e2733858585613500565b90506000805460ff191660011790559392505050565b60035460009061010090046001600160a01b03163314611e635761140a600160456129c5565b600480546001600160a01b038481166001600160a01b0319831681179093556040805191909216808252602082019390935281517fca4f2f25d0898edd99413412fb94012f9e54ec8142f9b093e7720646a95b16a9929181900390910190a16000611532565b6000805460ff16611f0e576040805162461bcd60e51b815260206004820152600a6024820152691c994b595b9d195c995960b21b604482015290519081900360640190fd5b6000805460ff19168155611f20611c3b565b14611f6b576040805162461bcd60e51b81526020600482015260166024820152751858d8dc9d59481a5b9d195c995cdd0819985a5b195960521b604482015290519081900360640190fd5b611f7361117d565b90506000805460ff1916600117905590565b6001600160a01b0381166000908152600e6020526040812054819081908190818080611fb089612efa565b935090506000816003811115611fc257fe5b14611fe05760095b9750600096508695508594506120139350505050565b611fe8612363565b925090506000816003811115611ffa57fe5b14612006576009611fca565b5060009650919450925090505b9193509193565b6000610df782613766565b6000610df7826137e5565b6001600160a01b039182166000908152600f6020908152604080832093909416825291909152205490565b6004546000906001600160a01b031633141580612076575033155b1561208e57612087600160006129c5565b90506111dd565b60038054600480546001600160a01b03818116610100818102610100600160a81b0319871617968790556001600160a01b031990931690935560408051948390048216808652929095041660208401528351909391927ff9ffabca9c8276e99321725bcb43fb076a6c66a54b7f21c4e8146d8519b417dc92908290030190a1600454604080516001600160a01b038085168252909216602083015280517fca4f2f25d0898edd99413412fb94012f9e54ec8142f9b093e7720646a95b16a99281900390910190a160009250505090565b600080612169611c3b565b9050801561218f5761218781601081111561218057fe5b60406129c5565b915050610e0e565b61153283612fb2565b6006546001600160a01b031681565b6000806121b585858561385f565b5095945050505050565b60035461010090046001600160a01b031681565b6006546000906001600160a01b03166315f240536121ef61281f565b600b54600c546040518463ffffffff1660e01b815260040180848152602001838152602001828152602001935050505060206040518083038186803b158015611d9b57600080fd5b6000805460ff1661227c576040805162461bcd60e51b815260206004820152600a6024820152691c994b595b9d195c995960b21b604482015290519081900360640190fd5b6000805460ff1916815561228e611c3b565b905080156122ac576116948160108111156122a557fe5b60466129c5565b6116a583613991565b600181565b60008054819060ff16612301576040805162461bcd60e51b815260206004820152600a6024820152691c994b595b9d195c995960b21b604482015290519081900360640190fd5b6000805460ff19168155612313611c3b565b9050801561233e5761233181601081111561232a57fe5b60366129c5565b92506000915061234f9050565b612349333386613a39565b92509250505b6000805460ff191660011790559092909150565b600d5460009081908061237e5750506007546000915061240e565b600061238861281f565b90506000612394615934565b60006123a584600b54600c54613e1f565b9350905060008160038111156123b757fe5b146123cc5795506000945061240e9350505050565b6123d68386613e6b565b9250905060008160038111156123e857fe5b146123fd5795506000945061240e9350505050565b505160009550935061240e92505050565b9091565b600554604080516317b9b84b60e31b81523060048201526001600160a01b03868116602483015285811660448301526064820185905291516000938493169163bdcdc25891608480830192602092919082900301818787803b15801561247757600080fd5b505af115801561248b573d6000803e3d6000fd5b505050506040513d60208110156124a157600080fd5b5051905080156124c0576124b86003604a83613f1b565b9150506113c2565b836001600160a01b0316856001600160a01b031614156124e6576124b86002604b6129c5565b60006001600160a01b038781169087161415612505575060001961252d565b506001600160a01b038086166000908152600f60209081526040808320938a16835292905220545b60008060008061253d8589613f81565b9094509250600084600381111561255057fe5b1461256e576125616009604b6129c5565b96505050505050506113c2565b6001600160a01b038a166000908152600e60205260409020546125919089613f81565b909450915060008460038111156125a457fe5b146125b5576125616009604c6129c5565b6001600160a01b0389166000908152600e60205260409020546125d89089613fa4565b909450905060008460038111156125eb57fe5b146125fc576125616009604d6129c5565b6001600160a01b03808b166000908152600e6020526040808220859055918b168152208190556000198514612654576001600160a01b03808b166000908152600f60209081526040808320938f168352929052208390555b886001600160a01b03168a6001600160a01b0316600080516020615c418339815191528a6040518082815260200191505060405180910390a36005546040805163352b4a3f60e11b81523060048201526001600160a01b038d811660248301528c81166044830152606482018c905291519190921691636a56947e91608480830192600092919082900301818387803b1580156126f057600080fd5b505af1158015612704573d6000803e3d6000fd5b5060009250612711915050565b9b9a5050505050505050505050565b60008054819060ff16612767576040805162461bcd60e51b815260206004820152600a6024820152691c994b595b9d195c995960b21b604482015290519081900360640190fd5b6000805460ff19168155612779611c3b565b905080156127a45761279781601081111561279057fe5b60356129c5565b9250600091506127b59050565b6127af338686613a39565b92509250505b6000805460ff1916600117905590939092509050565b60008060006127d8615934565b6127e28686613fca565b909250905060008260038111156127f557fe5b146128065750915060009050612818565b600061281182614032565b9350935050505b9250929050565b601454604080516305f5d64360e11b815230600482015290516000926001600160a01b03169183918391630bebac86916024808301926020929190829003018186803b15801561286e57600080fd5b505afa158015612882573d6000803e3d6000fd5b505050506040513d602081101561289857600080fd5b50516040805163324abb3160e21b815290519192506b033b2e3c9fd0803ce800000091612922916001600160a01b0386169163c92aecc491600480820192602092909190829003018186803b1580156128f057600080fd5b505afa158015612904573d6000803e3d6000fd5b505050506040513d602081101561291a57600080fd5b505183614041565b8161292957fe5b049250505090565b6000805460ff16612976576040805162461bcd60e51b815260206004820152600a6024820152691c994b595b9d195c995960b21b604482015290519081900360640190fd5b6000805460ff19168155612988611c3b565b905080156129a65761169481601081111561299f57fe5b604e6129c5565b6129af8361409c565b509150506000805460ff19166001179055919050565b60007f45b96fe442630264581b197e84bbada861235052c5a1aadfff9ea4e40a969aa08360108111156129f457fe5b836050811115612a0057fe5b604080519283526020830191909152600082820152519081900360600190a182601081111561153257fe5b600082905060008290506000826001600160a01b031663f4b9fa756040518163ffffffff1660e01b8152600401602060405180830381600087803b158015612a7257600080fd5b505af1158015612a86573d6000803e3d6000fd5b505050506040513d6020811015612a9c57600080fd5b5051604080516336569e7760e01b815290519192506000916001600160a01b038616916336569e7791600480830192602092919082900301818787803b158015612ae557600080fd5b505af1158015612af9573d6000803e3d6000fd5b505050506040513d6020811015612b0f57600080fd5b50516011549091506001600160a01b03838116911614612b605760405162461bcd60e51b8152600401808060200182810382526022815260200180615be56022913960400191505060405180910390fd5b601380546001600160a01b038089166001600160a01b0319928316179283905560148054898316908416179055601580548583169316929092179091556040805163095ea7b360e01b815292821660048401526000196024840152519084169163095ea7b391604480830192600092919082900301818387803b158015612be657600080fd5b505af1158015612bfa573d6000803e3d6000fd5b5050601454604080516328ec8bf160e21b81526001600160a01b0392831660048201529051918516935063a3b22fc4925060248082019260009290919082900301818387803b158015612c4c57600080fd5b505af1158015612c60573d6000803e3d6000fd5b5050601354604080516328ec8bf160e21b81526001600160a01b0392831660048201529051918516935063a3b22fc4925060248082019260009290919082900301818387803b158015612cb257600080fd5b505af1158015612cc6573d6000803e3d6000fd5b50505050826001600160a01b0316639f678cca6040518163ffffffff1660e01b8152600401602060405180830381600087803b158015612d0557600080fd5b505af1158015612d19573d6000803e3d6000fd5b505050506040513d6020811015612d2f57600080fd5b50612d3d9050306000614184565b50505050505050565b600354600090819061010090046001600160a01b03163314612d6e57612187600160316129c5565b612d76612fae565b60095414612d8a57612187600a60336129c5565b82612d9361281f565b1015612da557612187600e60326129c5565b600c54831115612dbb57612187600260346129c5565b50600c5482810390811115612e015760405162461bcd60e51b8152600401808060200182810382526024815260200180615d7a6024913960400191505060405180910390fd5b600c819055600354612e219061010090046001600160a01b0316846144a9565b600354604080516101009092046001600160a01b0316825260208201859052818101839052517f3bad0c59cf2f06e7314077049f48a93578cd16f5ef92329f1dab1420a99c177e916060908290030190a16000611532565b6000805460ff16612ebe576040805162461bcd60e51b815260206004820152600a6024820152691c994b595b9d195c995960b21b604482015290519081900360640190fd5b6000805460ff19168155612ed0611c3b565b90508015612eee57611694816010811115612ee757fe5b60276129c5565b6116a53360008561460e565b6001600160a01b038116600090815260106020526040812080548291829182918291612f31575060009450849350612fa992505050565b612f418160000154600a54614ad5565b90945092506000846003811115612f5457fe5b14612f69575091935060009250612fa9915050565b612f77838260010154614b14565b90945091506000846003811115612f8a57fe5b14612f9f575091935060009250612fa9915050565b5060009450925050505b915091565b4390565b600354600090819061010090046001600160a01b03163314612fda57612187600160426129c5565b612fe2612fae565b60095414612ff657612187600a60416129c5565b600660009054906101000a90046001600160a01b03169050826001600160a01b0316632191f92a6040518163ffffffff1660e01b815260040160206040518083038186803b15801561304757600080fd5b505afa15801561305b573d6000803e3d6000fd5b505050506040513d602081101561307157600080fd5b50516130c4576040805162461bcd60e51b815260206004820152601c60248201527f6d61726b6572206d6574686f642072657475726e65642066616c736500000000604482015290519081900360640190fd5b600680546001600160a01b0319166001600160a01b03858116918217909255604080519284168352602083019190915280517fedffc32e068c7c95dfd4bdfd5c4d939a084d6b11c4199eac8436ed234d72f9269281900390910190a16000611532565b60008054819060ff1661316e576040805162461bcd60e51b815260206004820152600a6024820152691c994b595b9d195c995960b21b604482015290519081900360640190fd5b6000805460ff19168155613180611c3b565b9050801561319e5761233181601081111561319757fe5b601e6129c5565b6123493385614b3f565b6000806131b3612fae565b600954909150808214156131cc576000925050506111dd565b60006131d661281f565b600b54600c54600a54600654604080516315f2405360e01b815260048101879052602481018690526044810185905290519596509394929391926000926001600160a01b03909216916315f24053916064808301926020929190829003018186803b15801561324457600080fd5b505afa158015613258573d6000803e3d6000fd5b505050506040513d602081101561326e57600080fd5b5051905065048c273950008111156132cd576040805162461bcd60e51b815260206004820152601c60248201527f626f72726f772072617465206973206162737572646c79206869676800000000604482015290519081900360640190fd5b6000806132da8989613f81565b909250905060008260038111156132ed57fe5b1461333f576040805162461bcd60e51b815260206004820152601f60248201527f636f756c64206e6f742063616c63756c61746520626c6f636b2064656c746100604482015290519081900360640190fd5b613347615934565b60008060008061336560405180602001604052808a81525087613fca565b9097509450600087600381111561337857fe5b146133aa576133956009600689600381111561339057fe5b613f1b565b9e5050505050505050505050505050506111dd565b6133b4858c6127cb565b909750935060008760038111156133c757fe5b146133df576133956009600189600381111561339057fe5b6133e9848c613fa4565b909750925060008760038111156133fc57fe5b14613414576133956009600489600381111561339057fe5b61342f6040518060200160405280600854815250858c614f9e565b9097509150600087600381111561344257fe5b1461345a576133956009600589600381111561339057fe5b613465858a8b614f9e565b9097509050600087600381111561347857fe5b14613490576133956009600389600381111561339057fe5b60098e9055600a819055600b839055600c829055604080518d8152602081018690528082018390526060810185905290517f4dec04e750ca11537cabcd8a9eab06494de08da3735bc8871cd41250e190bc049181900360800190a160009e50505050505050505050505050505090565b6005546040805163d02f735160e01b81523060048201526001600160a01b038781166024830152868116604483015285811660648301526084820185905291516000938493169163d02f73519160a480830192602092919082900301818787803b15801561356d57600080fd5b505af1158015613581573d6000803e3d6000fd5b505050506040513d602081101561359757600080fd5b5051905080156135ae576124b86003601b83613f1b565b846001600160a01b0316846001600160a01b031614156135d4576124b86006601c6129c5565b6001600160a01b0384166000908152600e6020526040812054819081906135fb9087613f81565b9093509150600083600381111561360e57fe5b14613631576136266009601a85600381111561339057fe5b9450505050506113c2565b6001600160a01b0388166000908152600e60205260409020546136549087613fa4565b9093509050600083600381111561366757fe5b1461367f576136266009601985600381111561339057fe5b6001600160a01b038088166000818152600e60209081526040808320879055938c168083529184902085905583518a815293519193600080516020615c41833981519152929081900390910190a360055460408051636d35bf9160e01b81523060048201526001600160a01b038c811660248301528b811660448301528a81166064830152608482018a905291519190921691636d35bf919160a480830192600092919082900301818387803b15801561373857600080fd5b505af115801561374c573d6000803e3d6000fd5b5060009250613759915050565b9998505050505050505050565b6000805460ff166137ab576040805162461bcd60e51b815260206004820152600a6024820152691c994b595b9d195c995960b21b604482015290519081900360640190fd5b6000805460ff191681556137bd611c3b565b905080156137db576116948160108111156137d457fe5b60086129c5565b6116a53384614feb565b6000805460ff1661382a576040805162461bcd60e51b815260206004820152600a6024820152691c994b595b9d195c995960b21b604482015290519081900360640190fd5b6000805460ff1916815561383c611c3b565b9050801561385357611694816010811115612ee757fe5b6116a53384600061460e565b60008054819060ff166138a6576040805162461bcd60e51b815260206004820152600a6024820152691c994b595b9d195c995960b21b604482015290519081900360640190fd5b6000805460ff191681556138b8611c3b565b905080156138e3576138d68160108111156138cf57fe5b600f6129c5565b92506000915061397a9050565b836001600160a01b031663a6afed956040518163ffffffff1660e01b8152600401602060405180830381600087803b15801561391e57600080fd5b505af1158015613932573d6000803e3d6000fd5b505050506040513d602081101561394857600080fd5b505190508015613968576138d681601081111561396157fe5b60106129c5565b613974338787876152f9565b92509250505b6000805460ff191660011790559094909350915050565b60035460009061010090046001600160a01b031633146139b75761140a600160476129c5565b6139bf612fae565b600954146139d35761140a600a60486129c5565b670de0b6b3a76400008211156139ef5761140a600260496129c5565b6008805490839055604080518281526020810185905281517faaa68312e2ea9d50e16af5068410ab56e1a1fd06037b1a35664812c30f821460929181900390910190a16000611532565b60055460408051631200453160e11b81523060048201526001600160a01b0386811660248301528581166044830152606482018590529151600093849384939116916324008a629160848082019260209290919082900301818787803b158015613aa257600080fd5b505af1158015613ab6573d6000803e3d6000fd5b505050506040513d6020811015613acc57600080fd5b505190508015613af057613ae36003603883613f1b565b925060009150613e179050565b613af8612fae565b60095414613b0c57613ae3600a60396129c5565b613b146159c5565b6001600160a01b0386166000908152601060205260409020600101546060820152613b3e86612efa565b6080830181905260208301826003811115613b5557fe5b6003811115613b6057fe5b9052506000905081602001516003811115613b7757fe5b14613ba157613b93600960378360200151600381111561339057fe5b935060009250613e17915050565b600019851415613bba5760808101516040820152613bc2565b604081018590525b613bd0878260400151614184565b60e082018190526080820151613be591613f81565b60a0830181905260208301826003811115613bfc57fe5b6003811115613c0757fe5b9052506000905081602001516003811115613c1e57fe5b14613c5a5760405162461bcd60e51b815260040180806020018281038252603a815260200180615c07603a913960400191505060405180910390fd5b613c6a600b548260e00151613f81565b60c0830181905260208301826003811115613c8157fe5b6003811115613c8c57fe5b9052506000905081602001516003811115613ca357fe5b14613cdf5760405162461bcd60e51b8152600401808060200182810382526031815260200180615c616031913960400191505060405180910390fd5b60a080820180516001600160a01b03808a16600081815260106020908152604091829020948555600a5460019095019490945560c0870151600b81905560e088015195518251948f16855294840192909252828101949094526060820192909252608081019190915290517f1a2a22cb034d26d1854bdc6666a5b91fe25efbbb5dcad3b0355478d6f5c362a1929181900390910190a160055460e0820151606083015160408051631ededc9160e01b81523060048201526001600160a01b038c811660248301528b8116604483015260648201949094526084810192909252519190921691631ededc919160a480830192600092919082900301818387803b158015613dea57600080fd5b505af1158015613dfe573d6000803e3d6000fd5b5060009250613e0b915050565b8160e001519350935050505b935093915050565b600080600080613e2f8787613fa4565b90925090506000826003811115613e4257fe5b14613e535750915060009050613e17565b613e5d8186613f81565b935093505050935093915050565b6000613e75615934565b600080613e8a86670de0b6b3a7640000614ad5565b90925090506000826003811115613e9d57fe5b14613ebc57506040805160208101909152600081529092509050612818565b600080613ec98388614b14565b90925090506000826003811115613edc57fe5b14613efe57506040805160208101909152600081529094509250612818915050565b604080516020810190915290815260009890975095505050505050565b60007f45b96fe442630264581b197e84bbada861235052c5a1aadfff9ea4e40a969aa0846010811115613f4a57fe5b846050811115613f5657fe5b604080519283526020830191909152818101859052519081900360600190a18360108111156113c257fe5b600080838311613f98575060009050818303612818565b50600390506000612818565b600080838301848110613fbc57600092509050612818565b506002915060009050612818565b6000613fd4615934565b600080613fe5866000015186614ad5565b90925090506000826003811115613ff857fe5b1461401757506040805160208101909152600081529092509050612818565b60408051602081019091529081526000969095509350505050565b51670de0b6b3a7640000900490565b600081158061405c5750508082028282828161405957fe5b04145b610df7576040805162461bcd60e51b815260206004820152600c60248201526b6d756c2d6f766572666c6f7760a01b604482015290519081900360640190fd5b6000806000806140aa612fae565b600954146140c9576140be600a604f6129c5565b93509150612fa99050565b6140d33386614184565b905080600c54019150600c54821015614133576040805162461bcd60e51b815260206004820181905260248201527f61646420726573657276657320756e6578706563746564206f766572666c6f77604482015290519081900360640190fd5b600c829055604080513381526020810183905280820184905290517fa91e67c5ea634cd43a12c5a482724b03de01e85ca68702a53d0c2f45cb7c1dc59181900360600190a160009350915050915091565b601154604080516323b872dd60e01b81526001600160a01b038581166004830152306024830152604482018590529151600093929092169182916323b872dd91606480830192602092919082900301818887803b1580156141e457600080fd5b505af11580156141f8573d6000803e3d6000fd5b505050506040513d602081101561420e57600080fd5b505161424b5760405162461bcd60e51b8152600401808060200182810382526024815260200180615cc56024913960400191505060405180910390fd5b601354601154601454601554604080516370a0823160e01b8152306004820181905291516001600160a01b03968716969586169594851694909316928692633b4da69f92909187916370a08231916024808301926020929190829003018186803b1580156142b857600080fd5b505afa1580156142cc573d6000803e3d6000fd5b505050506040513d60208110156142e257600080fd5b5051604080516001600160e01b031960e086901b1681526001600160a01b039093166004840152602483019190915251604480830192600092919082900301818387803b15801561433257600080fd5b505af1158015614346573d6000803e3d6000fd5b505060408051633612d9a360e11b81523060048201529051600093506001600160a01b0385169250636c25b34691602480820192602092909190829003018186803b15801561439457600080fd5b505afa1580156143a8573d6000803e3d6000fd5b505050506040513d60208110156143be57600080fd5b50516040805163324abb3160e21b815290519192506000916001600160a01b0386169163c92aecc4916004808301926020929190829003018186803b15801561440657600080fd5b505afa15801561441a573d6000803e3d6000fd5b505050506040513d602081101561443057600080fd5b5051828161443a57fe5b049050836001600160a01b031663049878f3826040518263ffffffff1660e01b815260040180828152602001915050600060405180830381600087803b15801561448357600080fd5b505af1158015614497573d6000803e3d6000fd5b509a9c9b505050505050505050505050565b6013546014546040805163324abb3160e21b815290516001600160a01b03938416939092169160009161454e91849163c92aecc4916004808301926020929190829003018186803b1580156144fd57600080fd5b505afa158015614511573d6000803e3d6000fd5b505050506040513d602081101561452757600080fd5b505161453f866b033b2e3c9fd0803ce8000000614041565b8161454657fe5b04600161587c565b9050816001600160a01b0316637f8661a1826040518263ffffffff1660e01b815260040180828152602001915050600060405180830381600087803b15801561459657600080fd5b505af11580156145aa573d6000803e3d6000fd5b50505050826001600160a01b031663ef693bed86866040518363ffffffff1660e01b815260040180836001600160a01b03166001600160a01b0316815260200182815260200192505050600060405180830381600087803b15801561109257600080fd5b600082158061461b575081155b6146565760405162461bcd60e51b8152600401808060200182810382526034815260200180615d466034913960400191505060405180910390fd5b61465e615a0b565b614666612363565b604083018190526020830182600381111561467d57fe5b600381111561468857fe5b905250600090508160200151600381111561469f57fe5b146146c3576146bb6009602b8360200151600381111561339057fe5b915050611532565b83156147445760608101849052604080516020810182529082015181526146ea90856127cb565b608083018190526020830182600381111561470157fe5b600381111561470c57fe5b905250600090508160200151600381111561472357fe5b1461473f576146bb600960298360200151600381111561339057fe5b6147bd565b61476083604051806020016040528084604001518152506158c3565b606083018190526020830182600381111561477757fe5b600381111561478257fe5b905250600090508160200151600381111561479957fe5b146147b5576146bb6009602a8360200151600381111561339057fe5b608081018390525b60055460608201516040805163eabe7d9160e01b81523060048201526001600160a01b03898116602483015260448201939093529051600093929092169163eabe7d919160648082019260209290919082900301818787803b15801561482257600080fd5b505af1158015614836573d6000803e3d6000fd5b505050506040513d602081101561484c57600080fd5b50519050801561486c576148636003602883613f1b565b92505050611532565b614874612fae565b6009541461488857614863600a602c6129c5565b614898600d548360600151613f81565b60a08401819052602084018260038111156148af57fe5b60038111156148ba57fe5b90525060009050826020015160038111156148d157fe5b146148ed576148636009602e8460200151600381111561339057fe5b6001600160a01b0386166000908152600e602052604090205460608301516149159190613f81565b60c084018190526020840182600381111561492c57fe5b600381111561493757fe5b905250600090508260200151600381111561494e57fe5b1461496a576148636009602d8460200151600381111561339057fe5b816080015161497761281f565b101561498957614863600e602f6129c5565b6149978683608001516144a9565b60a0820151600d5560c08201516001600160a01b0387166000818152600e6020908152604091829020939093556060850151815190815290513093600080516020615c41833981519152928290030190a36080820151606080840151604080516001600160a01b038b168152602081019490945283810191909152517fe5b754fb1abb7f01b499791d0b820ae3b6af3424ac1c59768edb53f4ec31a9299281900390910190a160055460808301516060840151604080516351dff98960e01b81523060048201526001600160a01b038b81166024830152604482019490945260648101929092525191909216916351dff98991608480830192600092919082900301818387803b158015614aaa57600080fd5b505af1158015614abe573d6000803e3d6000fd5b5060009250614acb915050565b9695505050505050565b60008083614ae857506000905080612818565b83830283858281614af557fe5b0414614b0957506002915060009050612818565b600092509050612818565b60008082614b285750600190506000612818565b6000838581614b3357fe5b04915091509250929050565b60055460408051634ef4c3e160e01b81523060048201526001600160a01b03858116602483015260448201859052915160009384938493911691634ef4c3e19160648082019260209290919082900301818787803b158015614ba057600080fd5b505af1158015614bb4573d6000803e3d6000fd5b505050506040513d6020811015614bca57600080fd5b505190508015614bee57614be16003601f83613f1b565b9250600091506128189050565b614bf6612fae565b60095414614c0a57614be1600a60226129c5565b614c12615a0b565b614c1a612363565b6040830181905260208301826003811115614c3157fe5b6003811115614c3c57fe5b9052506000905081602001516003811115614c5357fe5b14614c7d57614c6f600960218360200151600381111561339057fe5b935060009250612818915050565b614c878686614184565b60c0820181905260408051602081018252908301518152614ca891906158c3565b6060830181905260208301826003811115614cbf57fe5b6003811115614cca57fe5b9052506000905081602001516003811115614ce157fe5b14614d33576040805162461bcd60e51b815260206004820181905260248201527f4d494e545f45584348414e47455f43414c43554c4154494f4e5f4641494c4544604482015290519081900360640190fd5b614d43600d548260600151613fa4565b6080830181905260208301826003811115614d5a57fe5b6003811115614d6557fe5b9052506000905081602001516003811115614d7c57fe5b14614db85760405162461bcd60e51b8152600401808060200182810382526028815260200180615d1e6028913960400191505060405180910390fd5b6001600160a01b0386166000908152600e60205260409020546060820151614de09190613fa4565b60a0830181905260208301826003811115614df757fe5b6003811115614e0257fe5b9052506000905081602001516003811115614e1957fe5b14614e555760405162461bcd60e51b815260040180806020018281038252602b815260200180615b83602b913960400191505060405180910390fd5b6080810151600d5560a08101516001600160a01b0387166000818152600e60209081526040918290209390935560c084015160608086015183519485529484019190915282820193909352517f4c209b5fc8ad50758f13e2e1088ba56a560dff690a1c6fef26394f4c03821c4f929181900390910190a1606081015160408051918252516001600160a01b038816913091600080516020615c418339815191529181900360200190a360055460c08201516060830151604080516341c728b960e01b81523060048201526001600160a01b038b81166024830152604482019490945260648101929092525191909216916341c728b991608480830192600092919082900301818387803b158015614f6b57600080fd5b505af1158015614f7f573d6000803e3d6000fd5b5060009250614f8c915050565b8160c001519350935050509250929050565b6000806000614fab615934565b614fb58787613fca565b90925090506000826003811115614fc857fe5b14614fd95750915060009050613e17565b613e5d614fe582614032565b86613fa4565b6005546040805163368f515360e21b81523060048201526001600160a01b0385811660248301526044820185905291516000938493169163da3d454c91606480830192602092919082900301818787803b15801561504857600080fd5b505af115801561505c573d6000803e3d6000fd5b505050506040513d602081101561507257600080fd5b505190508015615091576150896003600e83613f1b565b915050610df7565b615099612fae565b600954146150ac57615089600a806129c5565b826150b561281f565b10156150c757615089600e60096129c5565b6150cf615a49565b6150d885612efa565b60208301819052828260038111156150ec57fe5b60038111156150f757fe5b905250600090508151600381111561510b57fe5b1461513057615127600960078360000151600381111561339057fe5b92505050610df7565b61513e816020015185613fa4565b604083018190528282600381111561515257fe5b600381111561515d57fe5b905250600090508151600381111561517157fe5b1461518d576151276009600c8360000151600381111561339057fe5b615199600b5485613fa4565b60608301819052828260038111156151ad57fe5b60038111156151b857fe5b90525060009050815160038111156151cc57fe5b146151e8576151276009600b8360000151600381111561339057fe5b6151f285856144a9565b604080820180516001600160a01b03881660008181526010602090815290859020928355600a54600190930192909255606080860151600b81905593518551928352928201899052818501929092529081019190915290517f13ed6866d4e1ee6da46f845c46d7e54120883d75c5ea9a2dacc1c4ca8984ab809181900360800190a160055460408051635c77860560e01b81523060048201526001600160a01b0388811660248301526044820188905291519190921691635c77860591606480830192600092919082900301818387803b1580156152cf57600080fd5b505af11580156152e3573d6000803e3d6000fd5b50600092506152f0915050565b95945050505050565b60055460408051632fe3f38f60e11b81523060048201526001600160a01b0384811660248301528781166044830152868116606483015260848201869052915160009384938493911691635fc7e71e9160a48082019260209290919082900301818787803b15801561536a57600080fd5b505af115801561537e573d6000803e3d6000fd5b505050506040513d602081101561539457600080fd5b5051905080156153b8576153ab6003601283613f1b565b9250600091506158739050565b6153c0612fae565b600954146153d4576153ab600a60166129c5565b6153dc612fae565b846001600160a01b0316636c540baf6040518163ffffffff1660e01b815260040160206040518083038186803b15801561541557600080fd5b505afa158015615429573d6000803e3d6000fd5b505050506040513d602081101561543f57600080fd5b505114615452576153ab600a60116129c5565b866001600160a01b0316866001600160a01b03161415615478576153ab600660176129c5565b84615489576153ab600760156129c5565b60001985141561549f576153ab600760146129c5565b6000806154ad898989613a39565b909250905081156154dd576154ce8260108111156154c757fe5b60186129c5565b94506000935061587392505050565b6005546040805163c488847b60e01b81523060048201526001600160a01b038981166024830152604482018590528251600094859492169263c488847b926064808301939192829003018186803b15801561553757600080fd5b505afa15801561554b573d6000803e3d6000fd5b505050506040513d604081101561556157600080fd5b508051602090910151909250905081156155ac5760405162461bcd60e51b8152600401808060200182810382526033815260200180615c926033913960400191505060405180910390fd5b80886001600160a01b03166370a082318c6040518263ffffffff1660e01b815260040180826001600160a01b03166001600160a01b0316815260200191505060206040518083038186803b15801561560357600080fd5b505afa158015615617573d6000803e3d6000fd5b505050506040513d602081101561562d57600080fd5b50511015615682576040805162461bcd60e51b815260206004820152601860248201527f4c49515549444154455f5345495a455f544f4f5f4d5543480000000000000000604482015290519081900360640190fd5b60006001600160a01b0389163014156156a8576156a1308d8d85613500565b9050615732565b6040805163b2a02ff160e01b81526001600160a01b038e811660048301528d81166024830152604482018590529151918b169163b2a02ff1916064808201926020929091908290030181600087803b15801561570357600080fd5b505af1158015615717573d6000803e3d6000fd5b505050506040513d602081101561572d57600080fd5b505190505b801561577c576040805162461bcd60e51b81526020600482015260146024820152731d1bdad95b881cd95a5e9d5c994819985a5b195960621b604482015290519081900360640190fd5b604080516001600160a01b03808f168252808e1660208301528183018790528b1660608201526080810184905290517f298637f684da70674f26509b10f07ec2fbc77a335ab1e7d6215a4b2484d8bb529181900360a00190a1600554604080516347ef3b3b60e01b81523060048201526001600160a01b038c811660248301528f811660448301528e811660648301526084820188905260a48201869052915191909216916347ef3b3b9160c480830192600092919082900301818387803b15801561584757600080fd5b505af115801561585b573d6000803e3d6000fd5b5060009250615868915050565b975092955050505050505b94509492505050565b80820182811015610df7576040805162461bcd60e51b815260206004820152600c60248201526b6164642d6f766572666c6f7760a01b604482015290519081900360640190fd5b60008060006158d0615934565b6127e2868660006158df615934565b6000806158f4670de0b6b3a764000087614ad5565b9092509050600082600381111561590757fe5b1461592657506040805160208101909152600081529092509050612818565b612811818660000151613e6b565b6040518060200160405280600081525090565b828054600181600116156101000203166002900490600052602060002090601f016020900481019282601f1061598857805160ff19168380011785556159b5565b828001600101855582156159b5579182015b828111156159b557825182559160200191906001019061599a565b506159c1929150615a72565b5090565b6040805161010081019091528060008152602001600081526020016000815260200160008152602001600081526020016000815260200160008152602001600081525090565b6040805160e0810190915280600081526020016000815260200160008152602001600081526020016000815260200160008152602001600081525090565b604080516080810190915280600081526020016000815260200160008152602001600081525090565b6111dd91905b808211156159c15760008155600101615a7856fe6f6e6c792061646d696e206d617920696e697469616c697a6520746865206d61726b65746d61726b6574206d6179206f6e6c7920626520696e697469616c697a6564206f6e63656f6e6c79207468652061646d696e206d617920696e697469616c697a652074686520696d706c656d656e746174696f6e696e697469616c2065786368616e67652072617465206d7573742062652067726561746572207468616e207a65726f2e73657474696e6720696e7465726573742072617465206d6f64656c206661696c65646f6e6c79207468652061646d696e206d6179206162616e646f6e2074686520696d706c656d656e746174696f6e4d494e545f4e45575f4143434f554e545f42414c414e43455f43414c43554c4154494f4e5f4641494c4544626f72726f7742616c616e636553746f7265643a20626f72726f7742616c616e636553746f726564496e7465726e616c206661696c6564444149206d757374206265207468652073616d6520617320756e6465726c79696e6752455041595f424f52524f575f4e45575f4143434f554e545f424f52524f575f42414c414e43455f43414c43554c4154494f4e5f4641494c4544ddf252ad1be2c89b69c2b068fc378daa952ba7f163c4a11628f55a4df523b3ef52455041595f424f52524f575f4e45575f544f54414c5f42414c414e43455f43414c43554c4154494f4e5f4641494c45444c49515549444154455f434f4d5054524f4c4c45525f43414c43554c4154455f414d4f554e545f5345495a455f4641494c4544756e6578706563746564204549502d3230207472616e7366657220696e2072657475726e65786368616e67655261746553746f7265643a2065786368616e67655261746553746f726564496e7465726e616c206661696c65644d494e545f4e45575f544f54414c5f535550504c595f43414c43554c4154494f4e5f4641494c45446f6e65206f662072656465656d546f6b656e73496e206f722072656465656d416d6f756e74496e206d757374206265207a65726f72656475636520726573657276657320756e657870656374656420756e646572666c6f77a265627a7a723158202bf033694e3a244f3200b4383915a1e026da0c68bf2a74cd7176d0053f6e8b9d64736f6c634300050e0032",
  "source": "pragma solidity ^0.5.14;\n\nimport \"./CErc20Delegate.sol\";\n\n/**\n * @title Compound's CDai Contract\n * @notice CToken which wraps Multi-Collateral DAI\n * @author Compound\n */\ncontract CDaiDelegate is CErc20Delegate {\n    /**\n     * @notice DAI adapter address\n     */\n    address public daiJoinAddress;\n\n    /**\n     * @notice DAI Savings Rate (DSR) pot address\n     */\n    address public potAddress;\n\n    /**\n     * @notice DAI vat address\n     */\n    address public vatAddress;\n\n    /**\n     * @notice Delegate interface to become the implementation\n     * @param data The encoded arguments for becoming\n     */\n    function _becomeImplementation(bytes memory data) public {\n        require(msg.sender == admin, \"only the admin may initialize the implementation\");\n\n        (address daiJoinAddress_, address potAddress_) = abi.decode(data, (address, address));\n        return _becomeImplementation(daiJoinAddress_, potAddress_);\n    }\n\n    /**\n     * @notice Explicit interface to become the implementation\n     * @param daiJoinAddress_ DAI adapter address\n     * @param potAddress_ DAI Savings Rate (DSR) pot address\n     */\n    function _becomeImplementation(address daiJoinAddress_, address potAddress_) internal {\n        // Get dai and vat and sanity check the underlying\n        DaiJoinLike daiJoin = DaiJoinLike(daiJoinAddress_);\n        PotLike pot = PotLike(potAddress_);\n        GemLike dai = daiJoin.dai();\n        VatLike vat = daiJoin.vat();\n        require(address(dai) == underlying, \"DAI must be the same as underlying\");\n\n        // Remember the relevant addresses\n        daiJoinAddress = daiJoinAddress_;\n        potAddress = potAddress_;\n        vatAddress = address(vat);\n\n        // Approve moving our DAI into the vat through daiJoin\n        dai.approve(daiJoinAddress, uint(-1));\n\n        // Approve the pot to transfer our funds within the vat\n        vat.hope(potAddress);\n        vat.hope(daiJoinAddress);\n\n        // Accumulate DSR interest -- must do this in order to doTransferIn\n        pot.drip();\n\n        // Transfer all cash in (doTransferIn does this regardless of amount)\n        doTransferIn(address(this), 0);\n    }\n\n    /**\n     * @notice Delegate interface to resign the implementation\n     */\n    function _resignImplementation() public {\n        require(msg.sender == admin, \"only the admin may abandon the implementation\");\n\n        // Transfer all cash out of the DSR - note that this relies on self-transfer\n        DaiJoinLike daiJoin = DaiJoinLike(daiJoinAddress);\n        PotLike pot = PotLike(potAddress);\n        VatLike vat = VatLike(vatAddress);\n\n        // Accumulate interest\n        pot.drip();\n\n        // Calculate the total amount in the pot, and move it out\n        uint pie = pot.pie(address(this));\n        pot.exit(pie);\n\n        // Checks the actual balance of DAI in the vat after the pot exit\n        uint bal = vat.dai(address(this));\n\n        // Remove our whole balance\n        daiJoin.exit(address(this), bal / RAY);\n    }\n\n    /*** CToken Overrides ***/\n\n    /**\n      * @notice Accrues DSR then applies accrued interest to total borrows and reserves\n      * @dev This calculates interest accrued from the last checkpointed block\n      *      up to the current block and writes new checkpoint to storage.\n      */\n    function accrueInterest() public returns (uint) {\n        // Accumulate DSR interest\n        PotLike(potAddress).drip();\n\n        // Accumulate CToken interest\n        return super.accrueInterest();\n    }\n\n    /*** Safe Token ***/\n\n    /**\n     * @notice Gets balance of this contract in terms of the underlying\n     * @dev This excludes the value of the current message, if any\n     * @return The quantity of underlying tokens owned by this contract\n     */\n    function getCashPrior() internal view returns (uint) {\n        PotLike pot = PotLike(potAddress);\n        uint pie = pot.pie(address(this));\n        return mul(pot.chi(), pie) / RAY;\n    }\n\n    /**\n     * @notice Transfer the underlying to this contract and sweep into DSR pot\n     * @param from Address to transfer funds from\n     * @param amount Amount of underlying to transfer\n     * @return The actual amount that is transferred\n     */\n    function doTransferIn(address from, uint amount) internal returns (uint) {\n        // Perform the EIP-20 transfer in\n        EIP20Interface token = EIP20Interface(underlying);\n        require(token.transferFrom(from, address(this), amount), \"unexpected EIP-20 transfer in return\");\n\n        DaiJoinLike daiJoin = DaiJoinLike(daiJoinAddress);\n        GemLike dai = GemLike(underlying);\n        PotLike pot = PotLike(potAddress);\n        VatLike vat = VatLike(vatAddress);\n\n        // Convert all our DAI to internal DAI in the vat\n        daiJoin.join(address(this), dai.balanceOf(address(this)));\n\n        // Checks the actual balance of DAI in the vat after the join\n        uint bal = vat.dai(address(this));\n\n        // Calculate the percentage increase to th pot for the entire vat, and move it in\n        // Note: We may leave a tiny bit of DAI in the vat...but we do the whole thing every time\n        uint pie = bal / pot.chi();\n        pot.join(pie);\n\n        return amount;\n    }\n\n    /**\n     * @notice Transfer the underlying from this contract, after sweeping out of DSR pot\n     * @param to Address to transfer funds to\n     * @param amount Amount of underlying to transfer\n     */\n    function doTransferOut(address payable to, uint amount) internal {\n        DaiJoinLike daiJoin = DaiJoinLike(daiJoinAddress);\n        PotLike pot = PotLike(potAddress);\n\n        // Calculate the percentage decrease from the pot, and move that much out\n        // Note: Use a slightly larger pie size to ensure that we get at least amount in the vat\n        uint pie = add(mul(amount, RAY) / pot.chi(), 1);\n        pot.exit(pie);\n\n        daiJoin.exit(to, amount);\n    }\n\n    /*** Maker Internals ***/\n\n    uint256 constant RAY = 10 ** 27;\n\n    function add(uint x, uint y) internal pure returns (uint z) {\n        require((z = x + y) >= x, \"add-overflow\");\n    }\n\n    function mul(uint x, uint y) internal pure returns (uint z) {\n        require(y == 0 || (z = x * y) / y == x, \"mul-overflow\");\n    }\n}\n\n/*** Maker Interfaces ***/\n\ninterface PotLike {\n    function chi() external view returns (uint);\n    function pie(address) external view returns (uint);\n    function drip() external returns (uint);\n    function join(uint) external;\n    function exit(uint) external;\n}\n\ninterface GemLike {\n    function approve(address, uint) external;\n    function balanceOf(address) external view returns (uint);\n    function transferFrom(address, address, uint) external returns (bool);\n}\n\ninterface VatLike {\n    function dai(address) external view returns (uint);\n    function hope(address) external;\n}\n\ninterface DaiJoinLike {\n    function vat() external returns (VatLike);\n    function dai() external returns (GemLike);\n    function join(address, uint) external payable;\n    function exit(address, uint) external;\n}\n",
  "sourcePath": "/Users/yanyichun/project/Savings/contracts/compound/contracts/CDaiDelegate.sol",
  "compiler": {
    "name": "solc",
    "version": "0.5.14+commit.01f1aaa4.Emscripten.clang"
  },
  "schemaVersion": "3.2.3",
  "updatedAt": "2021-02-25T05:55:40.321Z",
  "devdoc": {
    "author": "Compound",
    "methods": {
      "_acceptAdmin()": {
        "details": "Admin function for pending admin to accept role and update admin",
        "return": "uint 0=success, otherwise a failure (see ErrorReporter.sol for details)"
      },
      "_addReserves(uint256)": {
        "params": {
          "addAmount": "The amount fo underlying token to add as reserves"
        },
        "return": "uint 0=success, otherwise a failure (see ErrorReporter.sol for details)"
      },
      "_becomeImplementation(bytes)": {
        "params": {
          "data": "The encoded arguments for becoming"
        }
      },
      "_reduceReserves(uint256)": {
        "params": {
          "reduceAmount": "Amount of reduction to reserves"
        },
        "return": "uint 0=success, otherwise a failure (see ErrorReporter.sol for details)"
      },
      "_setComptroller(address)": {
        "details": "Admin function to set a new comptroller",
        "return": "uint 0=success, otherwise a failure (see ErrorReporter.sol for details)"
      },
      "_setInterestRateModel(address)": {
        "details": "Admin function to accrue interest and update the interest rate model",
        "params": {
          "newInterestRateModel": "the new interest rate model to use"
        },
        "return": "uint 0=success, otherwise a failure (see ErrorReporter.sol for details)"
      },
      "_setPendingAdmin(address)": {
        "details": "Admin function to begin change of admin. The newPendingAdmin must call `_acceptAdmin` to finalize the transfer.",
        "params": {
          "newPendingAdmin": "New pending admin."
        },
        "return": "uint 0=success, otherwise a failure (see ErrorReporter.sol for details)"
      },
      "_setReserveFactor(uint256)": {
        "details": "Admin function to accrue interest and set a new reserve factor",
        "return": "uint 0=success, otherwise a failure (see ErrorReporter.sol for details)"
      },
      "accrueInterest()": {
        "details": "This calculates interest accrued from the last checkpointed block     up to the current block and writes new checkpoint to storage."
      },
      "allowance(address,address)": {
        "params": {
          "owner": "The address of the account which owns the tokens to be spent",
          "spender": "The address of the account which may transfer tokens"
        },
        "return": "The number of tokens allowed to be spent (-1 means infinite)"
      },
      "approve(address,uint256)": {
        "details": "This will overwrite the approval amount for `spender` and is subject to issues noted [here](https://eips.ethereum.org/EIPS/eip-20#approve)",
        "params": {
          "amount": "The number of tokens that are approved (-1 means infinite)",
          "spender": "The address of the account which may transfer tokens"
        },
        "return": "Whether or not the approval succeeded"
      },
      "balanceOf(address)": {
        "params": {
          "owner": "The address of the account to query"
        },
        "return": "The number of tokens owned by `owner`"
      },
      "balanceOfUnderlying(address)": {
        "details": "This also accrues interest in a transaction",
        "params": {
          "owner": "The address of the account to query"
        },
        "return": "The amount of underlying owned by `owner`"
      },
      "borrow(uint256)": {
        "params": {
          "borrowAmount": "The amount of the underlying asset to borrow"
        },
        "return": "uint 0=success, otherwise a failure (see ErrorReporter.sol for details)"
      },
      "borrowBalanceCurrent(address)": {
        "params": {
          "account": "The address whose balance should be calculated after updating borrowIndex"
        },
        "return": "The calculated balance"
      },
      "borrowBalanceStored(address)": {
        "params": {
          "account": "The address whose balance should be calculated"
        },
        "return": "The calculated balance"
      },
      "borrowRatePerBlock()": {
        "return": "The borrow interest rate per block, scaled by 1e18"
      },
      "exchangeRateCurrent()": {
        "return": "Calculated exchange rate scaled by 1e18"
      },
      "exchangeRateStored()": {
        "details": "This function does not accrue interest before calculating the exchange rate",
        "return": "Calculated exchange rate scaled by 1e18"
      },
      "getAccountSnapshot(address)": {
        "details": "This is used by comptroller to more efficiently perform liquidity checks.",
        "params": {
          "account": "Address of the account to snapshot"
        },
        "return": "(possible error, token balance, borrow balance, exchange rate mantissa)"
      },
      "getCash()": {
        "return": "The quantity of underlying asset owned by this contract"
      },
      "initialize(address,address,address,uint256,string,string,uint8)": {
        "params": {
          "comptroller_": "The address of the Comptroller",
          "decimals_": "ERC-20 decimal precision of this token",
          "initialExchangeRateMantissa_": "The initial exchange rate, scaled by 1e18",
          "interestRateModel_": "The address of the interest rate model",
          "name_": "ERC-20 name of this token",
          "symbol_": "ERC-20 symbol of this token",
          "underlying_": "The address of the underlying asset"
        }
      },
      "initialize(address,address,uint256,string,string,uint8)": {
        "params": {
          "comptroller_": "The address of the Comptroller",
          "decimals_": "EIP-20 decimal precision of this token",
          "initialExchangeRateMantissa_": "The initial exchange rate, scaled by 1e18",
          "interestRateModel_": "The address of the interest rate model",
          "name_": "EIP-20 name of this token",
          "symbol_": "EIP-20 symbol of this token"
        }
      },
      "liquidateBorrow(address,uint256,address)": {
        "params": {
          "borrower": "The borrower of this cToken to be liquidated",
          "cTokenCollateral": "The market in which to seize collateral from the borrower",
          "repayAmount": "The amount of the underlying borrowed asset to repay"
        },
        "return": "uint 0=success, otherwise a failure (see ErrorReporter.sol for details)"
      },
      "mint(uint256)": {
        "details": "Accrues interest whether or not the operation succeeds, unless reverted",
        "params": {
          "mintAmount": "The amount of the underlying asset to supply"
        },
        "return": "uint 0=success, otherwise a failure (see ErrorReporter.sol for details)"
      },
      "redeem(uint256)": {
        "details": "Accrues interest whether or not the operation succeeds, unless reverted",
        "params": {
          "redeemTokens": "The number of cTokens to redeem into underlying"
        },
        "return": "uint 0=success, otherwise a failure (see ErrorReporter.sol for details)"
      },
      "redeemUnderlying(uint256)": {
        "details": "Accrues interest whether or not the operation succeeds, unless reverted",
        "params": {
          "redeemAmount": "The amount of underlying to redeem"
        },
        "return": "uint 0=success, otherwise a failure (see ErrorReporter.sol for details)"
      },
      "repayBorrow(uint256)": {
        "params": {
          "repayAmount": "The amount to repay"
        },
        "return": "uint 0=success, otherwise a failure (see ErrorReporter.sol for details)"
      },
      "repayBorrowBehalf(address,uint256)": {
        "params": {
          "borrower": "the account with the debt being payed off",
          "repayAmount": "The amount to repay"
        },
        "return": "uint 0=success, otherwise a failure (see ErrorReporter.sol for details)"
      },
      "seize(address,address,uint256)": {
        "details": "Will fail unless called by another cToken during the process of liquidation. Its absolutely critical to use msg.sender as the borrowed cToken and not a parameter.",
        "params": {
          "borrower": "The account having collateral seized",
          "liquidator": "The account receiving seized collateral",
          "seizeTokens": "The number of cTokens to seize"
        },
        "return": "uint 0=success, otherwise a failure (see ErrorReporter.sol for details)"
      },
      "supplyRatePerBlock()": {
        "return": "The supply interest rate per block, scaled by 1e18"
      },
      "totalBorrowsCurrent()": {
        "return": "The total borrows with interest"
      },
      "transfer(address,uint256)": {
        "params": {
          "amount": "The number of tokens to transfer",
          "dst": "The address of the destination account"
        },
        "return": "Whether or not the transfer succeeded"
      },
      "transferFrom(address,address,uint256)": {
        "params": {
          "amount": "The number of tokens to transfer",
          "dst": "The address of the destination account",
          "src": "The address of the source account"
        },
        "return": "Whether or not the transfer succeeded"
      }
    },
    "title": "Compound's CDai Contract"
  },
  "userdoc": {
    "methods": {
      "_acceptAdmin()": {
        "notice": "Accepts transfer of admin rights. msg.sender must be pendingAdmin"
      },
      "_addReserves(uint256)": {
        "notice": "The sender adds to reserves."
      },
      "_becomeImplementation(bytes)": {
        "notice": "Delegate interface to become the implementation"
      },
      "_reduceReserves(uint256)": {
        "notice": "Accrues interest and reduces reserves by transferring to admin"
      },
      "_resignImplementation()": {
        "notice": "Delegate interface to resign the implementation"
      },
      "_setComptroller(address)": {
        "notice": "Sets a new comptroller for the market"
      },
      "_setInterestRateModel(address)": {
        "notice": "accrues interest and updates the interest rate model using _setInterestRateModelFresh"
      },
      "_setPendingAdmin(address)": {
        "notice": "Begins transfer of admin rights. The newPendingAdmin must call `_acceptAdmin` to finalize the transfer."
      },
      "_setReserveFactor(uint256)": {
        "notice": "accrues interest and sets a new reserve factor for the protocol using _setReserveFactorFresh"
      },
      "accrueInterest()": {
        "notice": "Accrues DSR then applies accrued interest to total borrows and reserves"
      },
      "allowance(address,address)": {
        "notice": "Get the current allowance from `owner` for `spender`"
      },
      "approve(address,uint256)": {
        "notice": "Approve `spender` to transfer up to `amount` from `src`"
      },
      "balanceOf(address)": {
        "notice": "Get the token balance of the `owner`"
      },
      "balanceOfUnderlying(address)": {
        "notice": "Get the underlying balance of the `owner`"
      },
      "borrow(uint256)": {
        "notice": "Sender borrows assets from the protocol to their own address"
      },
      "borrowBalanceCurrent(address)": {
        "notice": "Accrue interest to updated borrowIndex and then calculate account's borrow balance using the updated borrowIndex"
      },
      "borrowBalanceStored(address)": {
        "notice": "Return the borrow balance of account based on stored data"
      },
      "borrowRatePerBlock()": {
        "notice": "Returns the current per-block borrow interest rate for this cToken"
      },
      "exchangeRateCurrent()": {
        "notice": "Accrue interest then return the up-to-date exchange rate"
      },
      "exchangeRateStored()": {
        "notice": "Calculates the exchange rate from the underlying to the CToken"
      },
      "getAccountSnapshot(address)": {
        "notice": "Get a snapshot of the account's balances, and the cached exchange rate"
      },
      "getCash()": {
        "notice": "Get cash balance of this cToken in the underlying asset"
      },
      "initialize(address,address,address,uint256,string,string,uint8)": {
        "notice": "Initialize the new money market"
      },
      "initialize(address,address,uint256,string,string,uint8)": {
        "notice": "Initialize the money market"
      },
      "liquidateBorrow(address,uint256,address)": {
        "notice": "The sender liquidates the borrowers collateral. The collateral seized is transferred to the liquidator."
      },
      "mint(uint256)": {
        "notice": "Sender supplies assets into the market and receives cTokens in exchange"
      },
      "redeem(uint256)": {
        "notice": "Sender redeems cTokens in exchange for the underlying asset"
      },
      "redeemUnderlying(uint256)": {
        "notice": "Sender redeems cTokens in exchange for a specified amount of underlying asset"
      },
      "repayBorrow(uint256)": {
        "notice": "Sender repays their own borrow"
      },
      "repayBorrowBehalf(address,uint256)": {
        "notice": "Sender repays a borrow belonging to borrower"
      },
      "seize(address,address,uint256)": {
        "notice": "Transfers collateral tokens (this market) to the liquidator."
      },
      "supplyRatePerBlock()": {
        "notice": "Returns the current per-block supply interest rate for this cToken"
      },
      "totalBorrowsCurrent()": {
        "notice": "Returns the current total borrows plus accrued interest"
      },
      "transfer(address,uint256)": {
        "notice": "Transfer `amount` tokens from `msg.sender` to `dst`"
      },
      "transferFrom(address,address,uint256)": {
        "notice": "Transfer `amount` tokens from `src` to `dst`"
      }
    },
    "notice": "CToken which wraps Multi-Collateral DAI"
  }
}