{
  "contractName": "CDaiDelegateMakerHarness",
  "abi": [
    {
      "constant": true,
      "inputs": [
        {
          "internalType": "address",
          "name": "",
          "type": "address"
        },
        {
          "internalType": "address",
          "name": "",
          "type": "address"
        }
      ],
      "name": "allowance",
      "outputs": [
        {
          "internalType": "uint256",
          "name": "",
          "type": "uint256"
        }
      ],
      "payable": false,
      "stateMutability": "view",
      "type": "function"
    },
    {
      "constant": true,
      "inputs": [
        {
          "internalType": "address",
          "name": "",
          "type": "address"
        }
      ],
      "name": "balanceOf",
      "outputs": [
        {
          "internalType": "uint256",
          "name": "",
          "type": "uint256"
        }
      ],
      "payable": false,
      "stateMutability": "view",
      "type": "function"
    },
    {
      "constant": true,
      "inputs": [],
      "name": "totalSupply",
      "outputs": [
        {
          "internalType": "uint256",
          "name": "",
          "type": "uint256"
        }
      ],
      "payable": false,
      "stateMutability": "view",
      "type": "function"
    },
    {
      "constant": true,
      "inputs": [],
      "name": "chi",
      "outputs": [
        {
          "internalType": "uint256",
          "name": "",
          "type": "uint256"
        }
      ],
      "payable": false,
      "stateMutability": "view",
      "type": "function"
    },
    {
      "constant": true,
      "inputs": [
        {
          "internalType": "address",
          "name": "",
          "type": "address"
        }
      ],
      "name": "pie",
      "outputs": [
        {
          "internalType": "uint256",
          "name": "",
          "type": "uint256"
        }
      ],
      "payable": false,
      "stateMutability": "view",
      "type": "function"
    },
    {
      "constant": false,
      "inputs": [],
      "name": "drip",
      "outputs": [
        {
          "internalType": "uint256",
          "name": "",
          "type": "uint256"
        }
      ],
      "payable": false,
      "stateMutability": "nonpayable",
      "type": "function"
    },
    {
      "constant": false,
      "inputs": [
        {
          "internalType": "address",
          "name": "",
          "type": "address"
        }
      ],
      "name": "hope",
      "outputs": [],
      "payable": false,
      "stateMutability": "nonpayable",
      "type": "function"
    },
    {
      "constant": false,
      "inputs": [
        {
          "internalType": "address",
          "name": "",
          "type": "address"
        },
        {
          "internalType": "uint256",
          "name": "",
          "type": "uint256"
        }
      ],
      "name": "approve",
      "outputs": [],
      "payable": false,
      "stateMutability": "nonpayable",
      "type": "function"
    },
    {
      "constant": false,
      "inputs": [
        {
          "internalType": "address",
          "name": "src",
          "type": "address"
        },
        {
          "internalType": "address",
          "name": "dst",
          "type": "address"
        },
        {
          "internalType": "uint256",
          "name": "amount",
          "type": "uint256"
        }
      ],
      "name": "transferFrom",
      "outputs": [
        {
          "internalType": "bool",
          "name": "",
          "type": "bool"
        }
      ],
      "payable": false,
      "stateMutability": "nonpayable",
      "type": "function"
    },
    {
      "constant": false,
      "inputs": [
        {
          "internalType": "address",
          "name": "account",
          "type": "address"
        },
        {
          "internalType": "uint256",
          "name": "amount",
          "type": "uint256"
        }
      ],
      "name": "harnessSetBalance",
      "outputs": [],
      "payable": false,
      "stateMutability": "nonpayable",
      "type": "function"
    },
    {
      "constant": false,
      "inputs": [],
      "name": "vat",
      "outputs": [
        {
          "internalType": "contract VatLike",
          "name": "",
          "type": "address"
        }
      ],
      "payable": false,
      "stateMutability": "nonpayable",
      "type": "function"
    },
    {
      "constant": false,
      "inputs": [],
      "name": "dai",
      "outputs": [
        {
          "internalType": "contract GemLike",
          "name": "",
          "type": "address"
        }
      ],
      "payable": false,
      "stateMutability": "nonpayable",
      "type": "function"
    },
    {
      "constant": true,
      "inputs": [
        {
          "internalType": "address",
          "name": "",
          "type": "address"
        }
      ],
      "name": "dai",
      "outputs": [
        {
          "internalType": "uint256",
          "name": "",
          "type": "uint256"
        }
      ],
      "payable": false,
      "stateMutability": "view",
      "type": "function"
    },
    {
      "constant": false,
      "inputs": [
        {
          "internalType": "uint256",
          "name": "",
          "type": "uint256"
        }
      ],
      "name": "join",
      "outputs": [],
      "payable": false,
      "stateMutability": "nonpayable",
      "type": "function"
    },
    {
      "constant": false,
      "inputs": [
        {
          "internalType": "address",
          "name": "",
          "type": "address"
        },
        {
          "internalType": "uint256",
          "name": "",
          "type": "uint256"
        }
      ],
      "name": "join",
      "outputs": [],
      "payable": true,
      "stateMutability": "payable",
      "type": "function"
    },
    {
      "constant": false,
      "inputs": [
        {
          "internalType": "address",
          "name": "",
          "type": "address"
        },
        {
          "internalType": "uint256",
          "name": "",
          "type": "uint256"
        }
      ],
      "name": "exit",
      "outputs": [],
      "payable": false,
      "stateMutability": "nonpayable",
      "type": "function"
    },
    {
      "constant": false,
      "inputs": [
        {
          "internalType": "uint256",
          "name": "",
          "type": "uint256"
        }
      ],
      "name": "exit",
      "outputs": [],
      "payable": false,
      "stateMutability": "nonpayable",
      "type": "function"
    }
  ],
  "bytecode": "0x608060405234801561001057600080fd5b5061043a806100206000396000f3fe6080604052600436106100fe5760003560e01c806370a0823111610095578063c92aecc411610064578063c92aecc4146102db578063d9a7eb70146102f0578063dd62ed3e14610329578063ef693bed1461012f578063f4b9fa7514610219576100fe565b806370a08231146102605780637f8661a1146101035780639f678cca14610293578063a3b22fc4146102a8576100fe565b806323b872dd116100d157806323b872dd146101c257806336569e77146102195780633b4da69f1461024a5780636c25b34614610168576100fe565b8063049878f314610103578063095ea7b31461012f5780630bebac861461016857806318160ddd146101ad575b600080fd5b34801561010f57600080fd5b5061012d6004803603602081101561012657600080fd5b5035610364565b005b34801561013b57600080fd5b5061012d6004803603604081101561015257600080fd5b506001600160a01b038135169060200135610367565b34801561017457600080fd5b5061019b6004803603602081101561018b57600080fd5b50356001600160a01b031661036b565b60408051918252519081900360200190f35b3480156101b957600080fd5b5061019b610371565b3480156101ce57600080fd5b50610205600480360360608110156101e557600080fd5b506001600160a01b03813581169160208101359091169060400135610377565b604080519115158252519081900360200190f35b34801561022557600080fd5b5061022e6103ac565b604080516001600160a01b039092168252519081900360200190f35b61012d6004803603604081101561015257600080fd5b34801561026c57600080fd5b5061019b6004803603602081101561028357600080fd5b50356001600160a01b03166103b0565b34801561029f57600080fd5b5061019b6103c2565b3480156102b457600080fd5b5061012d600480360360208110156102cb57600080fd5b50356001600160a01b0316610364565b3480156102e757600080fd5b5061019b6103c7565b3480156102fc57600080fd5b5061012d6004803603604081101561031357600080fd5b506001600160a01b0381351690602001356103cc565b34801561033557600080fd5b5061019b6004803603604081101561034c57600080fd5b506001600160a01b03813581169160200135166103e8565b50565b5050565b50600090565b60005481565b6001600160a01b0392831660009081526002602052604080822080548490039055929093168352912080549091019055600190565b3090565b60026020526000908152604090205481565b600090565b600190565b6001600160a01b03909116600090815260026020526040902055565b60016020908152600092835260408084209091529082529020548156fea265627a7a72315820811c1d49aea2fa076a7ae647e4db34af3f378ecbc6da17e47113661e2881f26b64736f6c634300050e0032",
  "source": "pragma solidity ^0.5.14;\n\nimport \"../../contracts/CErc20Immutable.sol\";\nimport \"../../contracts/CErc20Delegator.sol\";\nimport \"../../contracts/CErc20Delegate.sol\";\nimport \"../../contracts/CDaiDelegate.sol\";\nimport \"./ComptrollerHarness.sol\";\n\ncontract CErc20Harness is CErc20Immutable {\n    uint blockNumber = 100000;\n    uint harnessExchangeRate;\n    bool harnessExchangeRateStored;\n\n    mapping (address => bool) public failTransferToAddresses;\n\n    constructor(address underlying_,\n                ComptrollerInterface comptroller_,\n                InterestRateModel interestRateModel_,\n                uint initialExchangeRateMantissa_,\n                string memory name_,\n                string memory symbol_,\n                uint8 decimals_,\n                address payable admin_)\n    CErc20Immutable(\n    underlying_,\n    comptroller_,\n    interestRateModel_,\n    initialExchangeRateMantissa_,\n    name_,\n    symbol_,\n    decimals_,\n    admin_) public {}\n\n    function doTransferOut(address payable to, uint amount) internal {\n        require(failTransferToAddresses[to] == false, \"TOKEN_TRANSFER_OUT_FAILED\");\n        return super.doTransferOut(to, amount);\n    }\n\n    function exchangeRateStoredInternal() internal view returns (MathError, uint) {\n        if (harnessExchangeRateStored) {\n            return (MathError.NO_ERROR, harnessExchangeRate);\n        }\n        return super.exchangeRateStoredInternal();\n    }\n\n    function getBlockNumber() internal view returns (uint) {\n        return blockNumber;\n    }\n\n    function getBorrowRateMaxMantissa() public pure returns (uint) {\n        return borrowRateMaxMantissa;\n    }\n\n    function harnessSetAccrualBlockNumber(uint _accrualblockNumber) public {\n        accrualBlockNumber = _accrualblockNumber;\n    }\n\n    function harnessSetBlockNumber(uint newBlockNumber) public {\n        blockNumber = newBlockNumber;\n    }\n\n    function harnessFastForward(uint blocks) public {\n        blockNumber += blocks;\n    }\n\n    function harnessSetBalance(address account, uint amount) external {\n        accountTokens[account] = amount;\n    }\n\n    function harnessSetTotalSupply(uint totalSupply_) public {\n        totalSupply = totalSupply_;\n    }\n\n    function harnessSetTotalBorrows(uint totalBorrows_) public {\n        totalBorrows = totalBorrows_;\n    }\n\n    function harnessSetTotalReserves(uint totalReserves_) public {\n        totalReserves = totalReserves_;\n    }\n\n    function harnessExchangeRateDetails(uint totalSupply_, uint totalBorrows_, uint totalReserves_) public {\n        totalSupply = totalSupply_;\n        totalBorrows = totalBorrows_;\n        totalReserves = totalReserves_;\n    }\n\n    function harnessSetExchangeRate(uint exchangeRate) public {\n        harnessExchangeRate = exchangeRate;\n        harnessExchangeRateStored = true;\n    }\n\n    function harnessSetFailTransferToAddress(address _to, bool _fail) public {\n        failTransferToAddresses[_to] = _fail;\n    }\n\n    function harnessMintFresh(address account, uint mintAmount) public returns (uint) {\n        (uint err,) = super.mintFresh(account, mintAmount);\n        return err;\n    }\n\n    function harnessRedeemFresh(address payable account, uint cTokenAmount, uint underlyingAmount) public returns (uint) {\n        return super.redeemFresh(account, cTokenAmount, underlyingAmount);\n    }\n\n    function harnessAccountBorrows(address account) public view returns (uint principal, uint interestIndex) {\n        BorrowSnapshot memory snapshot = accountBorrows[account];\n        return (snapshot.principal, snapshot.interestIndex);\n    }\n\n    function harnessSetAccountBorrows(address account, uint principal, uint interestIndex) public {\n        accountBorrows[account] = BorrowSnapshot({principal: principal, interestIndex: interestIndex});\n    }\n\n    function harnessSetBorrowIndex(uint borrowIndex_) public {\n        borrowIndex = borrowIndex_;\n    }\n\n    function harnessBorrowFresh(address payable account, uint borrowAmount) public returns (uint) {\n        return borrowFresh(account, borrowAmount);\n    }\n\n    function harnessRepayBorrowFresh(address payer, address account, uint repayAmount) public returns (uint) {\n        (uint err,) = repayBorrowFresh(payer, account, repayAmount);\n        return err;\n    }\n\n    function harnessLiquidateBorrowFresh(address liquidator, address borrower, uint repayAmount, CToken cTokenCollateral) public returns (uint) {\n        (uint err,) = liquidateBorrowFresh(liquidator, borrower, repayAmount, cTokenCollateral);\n        return err;\n    }\n\n    function harnessReduceReservesFresh(uint amount) public returns (uint) {\n        return _reduceReservesFresh(amount);\n    }\n\n    function harnessSetReserveFactorFresh(uint newReserveFactorMantissa) public returns (uint) {\n        return _setReserveFactorFresh(newReserveFactorMantissa);\n    }\n\n    function harnessSetInterestRateModelFresh(InterestRateModel newInterestRateModel) public returns (uint) {\n        return _setInterestRateModelFresh(newInterestRateModel);\n    }\n\n    function harnessSetInterestRateModel(address newInterestRateModelAddress) public {\n        interestRateModel = InterestRateModel(newInterestRateModelAddress);\n    }\n\n    function harnessCallBorrowAllowed(uint amount) public returns (uint) {\n        return comptroller.borrowAllowed(address(this), msg.sender, amount);\n    }\n}\n\ncontract CErc20Scenario is CErc20Immutable {\n    constructor(address underlying_,\n                ComptrollerInterface comptroller_,\n                InterestRateModel interestRateModel_,\n                uint initialExchangeRateMantissa_,\n                string memory name_,\n                string memory symbol_,\n                uint8 decimals_,\n                address payable admin_)\n    CErc20Immutable(\n    underlying_,\n    comptroller_,\n    interestRateModel_,\n    initialExchangeRateMantissa_,\n    name_,\n    symbol_,\n    decimals_,\n    admin_) public {}\n\n    function setTotalBorrows(uint totalBorrows_) public {\n        totalBorrows = totalBorrows_;\n    }\n\n    function setTotalReserves(uint totalReserves_) public {\n        totalReserves = totalReserves_;\n    }\n\n    function getBlockNumber() internal view returns (uint) {\n        ComptrollerScenario comptrollerScenario = ComptrollerScenario(address(comptroller));\n        return comptrollerScenario.blockNumber();\n    }\n}\n\ncontract CEvil is CErc20Scenario {\n    constructor(address underlying_,\n                ComptrollerInterface comptroller_,\n                InterestRateModel interestRateModel_,\n                uint initialExchangeRateMantissa_,\n                string memory name_,\n                string memory symbol_,\n                uint8 decimals_,\n                address payable admin_)\n    CErc20Scenario(\n    underlying_,\n    comptroller_,\n    interestRateModel_,\n    initialExchangeRateMantissa_,\n    name_,\n    symbol_,\n    decimals_,\n    admin_) public {}\n\n    function evilSeize(CToken treasure, address liquidator, address borrower, uint seizeTokens) public returns (uint) {\n        return treasure.seize(liquidator, borrower, seizeTokens);\n    }\n}\n\ncontract CErc20DelegatorScenario is CErc20Delegator {\n    constructor(address underlying_,\n                ComptrollerInterface comptroller_,\n                InterestRateModel interestRateModel_,\n                uint initialExchangeRateMantissa_,\n                string memory name_,\n                string memory symbol_,\n                uint8 decimals_,\n                address payable admin_,\n                address implementation_,\n                bytes memory becomeImplementationData)\n    CErc20Delegator(\n    underlying_,\n    comptroller_,\n    interestRateModel_,\n    initialExchangeRateMantissa_,\n    name_,\n    symbol_,\n    decimals_,\n    admin_,\n    implementation_,\n    becomeImplementationData) public {}\n\n    function setTotalBorrows(uint totalBorrows_) public {\n        totalBorrows = totalBorrows_;\n    }\n\n    function setTotalReserves(uint totalReserves_) public {\n        totalReserves = totalReserves_;\n    }\n}\n\ncontract CErc20DelegateHarness is CErc20Delegate {\n    event Log(string x, address y);\n    event Log(string x, uint y);\n\n    uint blockNumber = 100000;\n    uint harnessExchangeRate;\n    bool harnessExchangeRateStored;\n\n    mapping (address => bool) public failTransferToAddresses;\n\n    function exchangeRateStoredInternal() internal view returns (MathError, uint) {\n        if (harnessExchangeRateStored) {\n            return (MathError.NO_ERROR, harnessExchangeRate);\n        }\n        return super.exchangeRateStoredInternal();\n    }\n\n    function doTransferOut(address payable to, uint amount) internal {\n        require(failTransferToAddresses[to] == false, \"TOKEN_TRANSFER_OUT_FAILED\");\n        return super.doTransferOut(to, amount);\n    }\n\n    function getBlockNumber() internal view returns (uint) {\n        return blockNumber;\n    }\n\n    function getBorrowRateMaxMantissa() public pure returns (uint) {\n        return borrowRateMaxMantissa;\n    }\n\n    function harnessSetBlockNumber(uint newBlockNumber) public {\n        blockNumber = newBlockNumber;\n    }\n\n    function harnessFastForward(uint blocks) public {\n        blockNumber += blocks;\n    }\n\n    function harnessSetBalance(address account, uint amount) external {\n        accountTokens[account] = amount;\n    }\n\n    function harnessSetAccrualBlockNumber(uint _accrualblockNumber) public {\n        accrualBlockNumber = _accrualblockNumber;\n    }\n\n    function harnessSetTotalSupply(uint totalSupply_) public {\n        totalSupply = totalSupply_;\n    }\n\n    function harnessSetTotalBorrows(uint totalBorrows_) public {\n        totalBorrows = totalBorrows_;\n    }\n\n    function harnessIncrementTotalBorrows(uint addtlBorrow_) public {\n        totalBorrows = totalBorrows + addtlBorrow_;\n    }\n\n    function harnessSetTotalReserves(uint totalReserves_) public {\n        totalReserves = totalReserves_;\n    }\n\n    function harnessExchangeRateDetails(uint totalSupply_, uint totalBorrows_, uint totalReserves_) public {\n        totalSupply = totalSupply_;\n        totalBorrows = totalBorrows_;\n        totalReserves = totalReserves_;\n    }\n\n    function harnessSetExchangeRate(uint exchangeRate) public {\n        harnessExchangeRate = exchangeRate;\n        harnessExchangeRateStored = true;\n    }\n\n    function harnessSetFailTransferToAddress(address _to, bool _fail) public {\n        failTransferToAddresses[_to] = _fail;\n    }\n\n    function harnessMintFresh(address account, uint mintAmount) public returns (uint) {\n        (uint err,) = super.mintFresh(account, mintAmount);\n        return err;\n    }\n\n    function harnessRedeemFresh(address payable account, uint cTokenAmount, uint underlyingAmount) public returns (uint) {\n        return super.redeemFresh(account, cTokenAmount, underlyingAmount);\n    }\n\n    function harnessAccountBorrows(address account) public view returns (uint principal, uint interestIndex) {\n        BorrowSnapshot memory snapshot = accountBorrows[account];\n        return (snapshot.principal, snapshot.interestIndex);\n    }\n\n    function harnessSetAccountBorrows(address account, uint principal, uint interestIndex) public {\n        accountBorrows[account] = BorrowSnapshot({principal: principal, interestIndex: interestIndex});\n    }\n\n    function harnessSetBorrowIndex(uint borrowIndex_) public {\n        borrowIndex = borrowIndex_;\n    }\n\n    function harnessBorrowFresh(address payable account, uint borrowAmount) public returns (uint) {\n        return borrowFresh(account, borrowAmount);\n    }\n\n    function harnessRepayBorrowFresh(address payer, address account, uint repayAmount) public returns (uint) {\n        (uint err,) = repayBorrowFresh(payer, account, repayAmount);\n        return err;\n    }\n\n    function harnessLiquidateBorrowFresh(address liquidator, address borrower, uint repayAmount, CToken cTokenCollateral) public returns (uint) {\n        (uint err,) = liquidateBorrowFresh(liquidator, borrower, repayAmount, cTokenCollateral);\n        return err;\n    }\n\n    function harnessReduceReservesFresh(uint amount) public returns (uint) {\n        return _reduceReservesFresh(amount);\n    }\n\n    function harnessSetReserveFactorFresh(uint newReserveFactorMantissa) public returns (uint) {\n        return _setReserveFactorFresh(newReserveFactorMantissa);\n    }\n\n    function harnessSetInterestRateModelFresh(InterestRateModel newInterestRateModel) public returns (uint) {\n        return _setInterestRateModelFresh(newInterestRateModel);\n    }\n\n    function harnessSetInterestRateModel(address newInterestRateModelAddress) public {\n        interestRateModel = InterestRateModel(newInterestRateModelAddress);\n    }\n\n    function harnessCallBorrowAllowed(uint amount) public returns (uint) {\n        return comptroller.borrowAllowed(address(this), msg.sender, amount);\n    }\n}\n\ncontract CErc20DelegateScenario is CErc20Delegate {\n    constructor() public {}\n\n    function setTotalBorrows(uint totalBorrows_) public {\n        totalBorrows = totalBorrows_;\n    }\n\n    function setTotalReserves(uint totalReserves_) public {\n        totalReserves = totalReserves_;\n    }\n\n    function getBlockNumber() internal view returns (uint) {\n        ComptrollerScenario comptrollerScenario = ComptrollerScenario(address(comptroller));\n        return comptrollerScenario.blockNumber();\n    }\n}\n\ncontract CErc20DelegateScenarioExtra is CErc20DelegateScenario {\n    function iHaveSpoken() public pure returns (string memory) {\n      return \"i have spoken\";\n    }\n\n    function itIsTheWay() public {\n      admin = address(1); // make a change to test effect\n    }\n\n    function babyYoda() public pure {\n      revert(\"protect the baby\");\n    }\n}\n\ncontract CDaiDelegateHarness is CDaiDelegate {\n    uint blockNumber = 100000;\n    uint harnessExchangeRate;\n    bool harnessExchangeRateStored;\n\n    function harnessFastForward(uint blocks) public {\n        blockNumber += blocks;\n    }\n\n    function harnessSetAccrualBlockNumber(uint _accrualblockNumber) public {\n        accrualBlockNumber = _accrualblockNumber;\n    }\n\n    function harnessSetBalance(address account, uint amount) external {\n        accountTokens[account] = amount;\n    }\n\n    function harnessSetBlockNumber(uint newBlockNumber) public {\n        blockNumber = newBlockNumber;\n    }\n\n    function harnessSetExchangeRate(uint exchangeRate) public {\n        harnessExchangeRate = exchangeRate;\n        harnessExchangeRateStored = true;\n    }\n\n    function harnessSetTotalSupply(uint totalSupply_) public {\n        totalSupply = totalSupply_;\n    }\n\n    function getBlockNumber() internal view returns (uint) {\n        return blockNumber;\n    }\n}\n\ncontract CDaiDelegateScenario is CDaiDelegate {\n    function setTotalBorrows(uint totalBorrows_) public {\n        totalBorrows = totalBorrows_;\n    }\n\n    function setTotalReserves(uint totalReserves_) public {\n        totalReserves = totalReserves_;\n    }\n\n    function getBlockNumber() internal view returns (uint) {\n        ComptrollerScenario comptrollerScenario = ComptrollerScenario(address(comptroller));\n        return comptrollerScenario.blockNumber();\n    }\n}\n\ncontract CDaiDelegateMakerHarness is PotLike, VatLike, GemLike, DaiJoinLike {\n    /* Pot */\n\n    // exchangeRate\n    function chi() external view returns (uint) { return 1; }\n\n    // totalSupply\n    function pie(address) external view returns (uint) { return 0; }\n\n    // accrueInterest -> new exchangeRate\n    function drip() external returns (uint) { return 0; }\n\n    // mint\n    function join(uint) external {}\n\n    // redeem\n    function exit(uint) external {}\n\n    /* Vat */\n\n    // internal dai balance\n    function dai(address) external view returns (uint) { return 0; }\n\n    // approve pot transfer\n    function hope(address) external {}\n\n    /* Gem (Dai) */\n\n    uint public totalSupply;\n    mapping (address => mapping (address => uint)) public allowance;\n    mapping (address => uint) public balanceOf;\n    function approve(address, uint) external {}\n    function transferFrom(address src, address dst, uint amount) external returns (bool) {\n        balanceOf[src] -= amount;\n        balanceOf[dst] += amount;\n        return true;\n    }\n\n    function harnessSetBalance(address account, uint amount) external {\n        balanceOf[account] = amount;\n    }\n\n    /* DaiJoin */\n\n    // vat contract\n    function vat() external returns (VatLike) { return this; }\n\n    // dai contract\n    function dai() external returns (GemLike) { return this; }\n\n    // dai -> internal dai\n    function join(address, uint) external payable {}\n\n    // internal dai transfer out\n    function exit(address, uint) external {}\n}\n",
  "sourcePath": "/Users/yanyichun/project/Savings/contracts/compound/test/Contracts/CErc20Harness.sol",
  "compiler": {
    "name": "solc",
    "version": "0.5.14+commit.01f1aaa4.Emscripten.clang"
  },
  "schemaVersion": "3.2.3",
  "updatedAt": "2021-02-25T05:55:40.756Z",
  "devdoc": {
    "methods": {}
  },
  "userdoc": {
    "methods": {}
  }
}