{
  "contractName": "CErc20Immutable",
  "abi": [
    {
      "inputs": [
        {
          "internalType": "address",
          "name": "underlying_",
          "type": "address"
        },
        {
          "internalType": "contract ComptrollerInterface",
          "name": "comptroller_",
          "type": "address"
        },
        {
          "internalType": "contract InterestRateModel",
          "name": "interestRateModel_",
          "type": "address"
        },
        {
          "internalType": "uint256",
          "name": "initialExchangeRateMantissa_",
          "type": "uint256"
        },
        {
          "internalType": "string",
          "name": "name_",
          "type": "string"
        },
        {
          "internalType": "string",
          "name": "symbol_",
          "type": "string"
        },
        {
          "internalType": "uint8",
          "name": "decimals_",
          "type": "uint8"
        },
        {
          "internalType": "address payable",
          "name": "admin_",
          "type": "address"
        }
      ],
      "payable": false,
      "stateMutability": "nonpayable",
      "type": "constructor"
    },
    {
      "anonymous": false,
      "inputs": [
        {
          "indexed": false,
          "internalType": "uint256",
          "name": "cashPrior",
          "type": "uint256"
        },
        {
          "indexed": false,
          "internalType": "uint256",
          "name": "interestAccumulated",
          "type": "uint256"
        },
        {
          "indexed": false,
          "internalType": "uint256",
          "name": "borrowIndex",
          "type": "uint256"
        },
        {
          "indexed": false,
          "internalType": "uint256",
          "name": "totalBorrows",
          "type": "uint256"
        }
      ],
      "name": "AccrueInterest",
      "type": "event"
    },
    {
      "anonymous": false,
      "inputs": [
        {
          "indexed": true,
          "internalType": "address",
          "name": "owner",
          "type": "address"
        },
        {
          "indexed": true,
          "internalType": "address",
          "name": "spender",
          "type": "address"
        },
        {
          "indexed": false,
          "internalType": "uint256",
          "name": "amount",
          "type": "uint256"
        }
      ],
      "name": "Approval",
      "type": "event"
    },
    {
      "anonymous": false,
      "inputs": [
        {
          "indexed": false,
          "internalType": "address",
          "name": "borrower",
          "type": "address"
        },
        {
          "indexed": false,
          "internalType": "uint256",
          "name": "borrowAmount",
          "type": "uint256"
        },
        {
          "indexed": false,
          "internalType": "uint256",
          "name": "accountBorrows",
          "type": "uint256"
        },
        {
          "indexed": false,
          "internalType": "uint256",
          "name": "totalBorrows",
          "type": "uint256"
        }
      ],
      "name": "Borrow",
      "type": "event"
    },
    {
      "anonymous": false,
      "inputs": [
        {
          "indexed": false,
          "internalType": "uint256",
          "name": "error",
          "type": "uint256"
        },
        {
          "indexed": false,
          "internalType": "uint256",
          "name": "info",
          "type": "uint256"
        },
        {
          "indexed": false,
          "internalType": "uint256",
          "name": "detail",
          "type": "uint256"
        }
      ],
      "name": "Failure",
      "type": "event"
    },
    {
      "anonymous": false,
      "inputs": [
        {
          "indexed": false,
          "internalType": "address",
          "name": "liquidator",
          "type": "address"
        },
        {
          "indexed": false,
          "internalType": "address",
          "name": "borrower",
          "type": "address"
        },
        {
          "indexed": false,
          "internalType": "uint256",
          "name": "repayAmount",
          "type": "uint256"
        },
        {
          "indexed": false,
          "internalType": "address",
          "name": "cTokenCollateral",
          "type": "address"
        },
        {
          "indexed": false,
          "internalType": "uint256",
          "name": "seizeTokens",
          "type": "uint256"
        }
      ],
      "name": "LiquidateBorrow",
      "type": "event"
    },
    {
      "anonymous": false,
      "inputs": [
        {
          "indexed": false,
          "internalType": "address",
          "name": "minter",
          "type": "address"
        },
        {
          "indexed": false,
          "internalType": "uint256",
          "name": "mintAmount",
          "type": "uint256"
        },
        {
          "indexed": false,
          "internalType": "uint256",
          "name": "mintTokens",
          "type": "uint256"
        }
      ],
      "name": "Mint",
      "type": "event"
    },
    {
      "anonymous": false,
      "inputs": [
        {
          "indexed": false,
          "internalType": "address",
          "name": "oldAdmin",
          "type": "address"
        },
        {
          "indexed": false,
          "internalType": "address",
          "name": "newAdmin",
          "type": "address"
        }
      ],
      "name": "NewAdmin",
      "type": "event"
    },
    {
      "anonymous": false,
      "inputs": [
        {
          "indexed": false,
          "internalType": "contract ComptrollerInterface",
          "name": "oldComptroller",
          "type": "address"
        },
        {
          "indexed": false,
          "internalType": "contract ComptrollerInterface",
          "name": "newComptroller",
          "type": "address"
        }
      ],
      "name": "NewComptroller",
      "type": "event"
    },
    {
      "anonymous": false,
      "inputs": [
        {
          "indexed": false,
          "internalType": "contract InterestRateModel",
          "name": "oldInterestRateModel",
          "type": "address"
        },
        {
          "indexed": false,
          "internalType": "contract InterestRateModel",
          "name": "newInterestRateModel",
          "type": "address"
        }
      ],
      "name": "NewMarketInterestRateModel",
      "type": "event"
    },
    {
      "anonymous": false,
      "inputs": [
        {
          "indexed": false,
          "internalType": "address",
          "name": "oldPendingAdmin",
          "type": "address"
        },
        {
          "indexed": false,
          "internalType": "address",
          "name": "newPendingAdmin",
          "type": "address"
        }
      ],
      "name": "NewPendingAdmin",
      "type": "event"
    },
    {
      "anonymous": false,
      "inputs": [
        {
          "indexed": false,
          "internalType": "uint256",
          "name": "oldReserveFactorMantissa",
          "type": "uint256"
        },
        {
          "indexed": false,
          "internalType": "uint256",
          "name": "newReserveFactorMantissa",
          "type": "uint256"
        }
      ],
      "name": "NewReserveFactor",
      "type": "event"
    },
    {
      "anonymous": false,
      "inputs": [
        {
          "indexed": false,
          "internalType": "address",
          "name": "redeemer",
          "type": "address"
        },
        {
          "indexed": false,
          "internalType": "uint256",
          "name": "redeemAmount",
          "type": "uint256"
        },
        {
          "indexed": false,
          "internalType": "uint256",
          "name": "redeemTokens",
          "type": "uint256"
        }
      ],
      "name": "Redeem",
      "type": "event"
    },
    {
      "anonymous": false,
      "inputs": [
        {
          "indexed": false,
          "internalType": "address",
          "name": "payer",
          "type": "address"
        },
        {
          "indexed": false,
          "internalType": "address",
          "name": "borrower",
          "type": "address"
        },
        {
          "indexed": false,
          "internalType": "uint256",
          "name": "repayAmount",
          "type": "uint256"
        },
        {
          "indexed": false,
          "internalType": "uint256",
          "name": "accountBorrows",
          "type": "uint256"
        },
        {
          "indexed": false,
          "internalType": "uint256",
          "name": "totalBorrows",
          "type": "uint256"
        }
      ],
      "name": "RepayBorrow",
      "type": "event"
    },
    {
      "anonymous": false,
      "inputs": [
        {
          "indexed": false,
          "internalType": "address",
          "name": "benefactor",
          "type": "address"
        },
        {
          "indexed": false,
          "internalType": "uint256",
          "name": "addAmount",
          "type": "uint256"
        },
        {
          "indexed": false,
          "internalType": "uint256",
          "name": "newTotalReserves",
          "type": "uint256"
        }
      ],
      "name": "ReservesAdded",
      "type": "event"
    },
    {
      "anonymous": false,
      "inputs": [
        {
          "indexed": false,
          "internalType": "address",
          "name": "admin",
          "type": "address"
        },
        {
          "indexed": false,
          "internalType": "uint256",
          "name": "reduceAmount",
          "type": "uint256"
        },
        {
          "indexed": false,
          "internalType": "uint256",
          "name": "newTotalReserves",
          "type": "uint256"
        }
      ],
      "name": "ReservesReduced",
      "type": "event"
    },
    {
      "anonymous": false,
      "inputs": [
        {
          "indexed": true,
          "internalType": "address",
          "name": "from",
          "type": "address"
        },
        {
          "indexed": true,
          "internalType": "address",
          "name": "to",
          "type": "address"
        },
        {
          "indexed": false,
          "internalType": "uint256",
          "name": "amount",
          "type": "uint256"
        }
      ],
      "name": "Transfer",
      "type": "event"
    },
    {
      "constant": false,
      "inputs": [],
      "name": "_acceptAdmin",
      "outputs": [
        {
          "internalType": "uint256",
          "name": "",
          "type": "uint256"
        }
      ],
      "payable": false,
      "stateMutability": "nonpayable",
      "type": "function"
    },
    {
      "constant": false,
      "inputs": [
        {
          "internalType": "uint256",
          "name": "addAmount",
          "type": "uint256"
        }
      ],
      "name": "_addReserves",
      "outputs": [
        {
          "internalType": "uint256",
          "name": "",
          "type": "uint256"
        }
      ],
      "payable": false,
      "stateMutability": "nonpayable",
      "type": "function"
    },
    {
      "constant": false,
      "inputs": [
        {
          "internalType": "uint256",
          "name": "reduceAmount",
          "type": "uint256"
        }
      ],
      "name": "_reduceReserves",
      "outputs": [
        {
          "internalType": "uint256",
          "name": "",
          "type": "uint256"
        }
      ],
      "payable": false,
      "stateMutability": "nonpayable",
      "type": "function"
    },
    {
      "constant": false,
      "inputs": [
        {
          "internalType": "contract ComptrollerInterface",
          "name": "newComptroller",
          "type": "address"
        }
      ],
      "name": "_setComptroller",
      "outputs": [
        {
          "internalType": "uint256",
          "name": "",
          "type": "uint256"
        }
      ],
      "payable": false,
      "stateMutability": "nonpayable",
      "type": "function"
    },
    {
      "constant": false,
      "inputs": [
        {
          "internalType": "contract InterestRateModel",
          "name": "newInterestRateModel",
          "type": "address"
        }
      ],
      "name": "_setInterestRateModel",
      "outputs": [
        {
          "internalType": "uint256",
          "name": "",
          "type": "uint256"
        }
      ],
      "payable": false,
      "stateMutability": "nonpayable",
      "type": "function"
    },
    {
      "constant": false,
      "inputs": [
        {
          "internalType": "address payable",
          "name": "newPendingAdmin",
          "type": "address"
        }
      ],
      "name": "_setPendingAdmin",
      "outputs": [
        {
          "internalType": "uint256",
          "name": "",
          "type": "uint256"
        }
      ],
      "payable": false,
      "stateMutability": "nonpayable",
      "type": "function"
    },
    {
      "constant": false,
      "inputs": [
        {
          "internalType": "uint256",
          "name": "newReserveFactorMantissa",
          "type": "uint256"
        }
      ],
      "name": "_setReserveFactor",
      "outputs": [
        {
          "internalType": "uint256",
          "name": "",
          "type": "uint256"
        }
      ],
      "payable": false,
      "stateMutability": "nonpayable",
      "type": "function"
    },
    {
      "constant": true,
      "inputs": [],
      "name": "accrualBlockNumber",
      "outputs": [
        {
          "internalType": "uint256",
          "name": "",
          "type": "uint256"
        }
      ],
      "payable": false,
      "stateMutability": "view",
      "type": "function"
    },
    {
      "constant": false,
      "inputs": [],
      "name": "accrueInterest",
      "outputs": [
        {
          "internalType": "uint256",
          "name": "",
          "type": "uint256"
        }
      ],
      "payable": false,
      "stateMutability": "nonpayable",
      "type": "function"
    },
    {
      "constant": true,
      "inputs": [],
      "name": "admin",
      "outputs": [
        {
          "internalType": "address payable",
          "name": "",
          "type": "address"
        }
      ],
      "payable": false,
      "stateMutability": "view",
      "type": "function"
    },
    {
      "constant": true,
      "inputs": [
        {
          "internalType": "address",
          "name": "owner",
          "type": "address"
        },
        {
          "internalType": "address",
          "name": "spender",
          "type": "address"
        }
      ],
      "name": "allowance",
      "outputs": [
        {
          "internalType": "uint256",
          "name": "",
          "type": "uint256"
        }
      ],
      "payable": false,
      "stateMutability": "view",
      "type": "function"
    },
    {
      "constant": false,
      "inputs": [
        {
          "internalType": "address",
          "name": "spender",
          "type": "address"
        },
        {
          "internalType": "uint256",
          "name": "amount",
          "type": "uint256"
        }
      ],
      "name": "approve",
      "outputs": [
        {
          "internalType": "bool",
          "name": "",
          "type": "bool"
        }
      ],
      "payable": false,
      "stateMutability": "nonpayable",
      "type": "function"
    },
    {
      "constant": true,
      "inputs": [
        {
          "internalType": "address",
          "name": "owner",
          "type": "address"
        }
      ],
      "name": "balanceOf",
      "outputs": [
        {
          "internalType": "uint256",
          "name": "",
          "type": "uint256"
        }
      ],
      "payable": false,
      "stateMutability": "view",
      "type": "function"
    },
    {
      "constant": false,
      "inputs": [
        {
          "internalType": "address",
          "name": "owner",
          "type": "address"
        }
      ],
      "name": "balanceOfUnderlying",
      "outputs": [
        {
          "internalType": "uint256",
          "name": "",
          "type": "uint256"
        }
      ],
      "payable": false,
      "stateMutability": "nonpayable",
      "type": "function"
    },
    {
      "constant": false,
      "inputs": [
        {
          "internalType": "uint256",
          "name": "borrowAmount",
          "type": "uint256"
        }
      ],
      "name": "borrow",
      "outputs": [
        {
          "internalType": "uint256",
          "name": "",
          "type": "uint256"
        }
      ],
      "payable": false,
      "stateMutability": "nonpayable",
      "type": "function"
    },
    {
      "constant": false,
      "inputs": [
        {
          "internalType": "address",
          "name": "account",
          "type": "address"
        }
      ],
      "name": "borrowBalanceCurrent",
      "outputs": [
        {
          "internalType": "uint256",
          "name": "",
          "type": "uint256"
        }
      ],
      "payable": false,
      "stateMutability": "nonpayable",
      "type": "function"
    },
    {
      "constant": true,
      "inputs": [
        {
          "internalType": "address",
          "name": "account",
          "type": "address"
        }
      ],
      "name": "borrowBalanceStored",
      "outputs": [
        {
          "internalType": "uint256",
          "name": "",
          "type": "uint256"
        }
      ],
      "payable": false,
      "stateMutability": "view",
      "type": "function"
    },
    {
      "constant": true,
      "inputs": [],
      "name": "borrowIndex",
      "outputs": [
        {
          "internalType": "uint256",
          "name": "",
          "type": "uint256"
        }
      ],
      "payable": false,
      "stateMutability": "view",
      "type": "function"
    },
    {
      "constant": true,
      "inputs": [],
      "name": "borrowRatePerBlock",
      "outputs": [
        {
          "internalType": "uint256",
          "name": "",
          "type": "uint256"
        }
      ],
      "payable": false,
      "stateMutability": "view",
      "type": "function"
    },
    {
      "constant": true,
      "inputs": [],
      "name": "comptroller",
      "outputs": [
        {
          "internalType": "contract ComptrollerInterface",
          "name": "",
          "type": "address"
        }
      ],
      "payable": false,
      "stateMutability": "view",
      "type": "function"
    },
    {
      "constant": true,
      "inputs": [],
      "name": "decimals",
      "outputs": [
        {
          "internalType": "uint8",
          "name": "",
          "type": "uint8"
        }
      ],
      "payable": false,
      "stateMutability": "view",
      "type": "function"
    },
    {
      "constant": false,
      "inputs": [],
      "name": "exchangeRateCurrent",
      "outputs": [
        {
          "internalType": "uint256",
          "name": "",
          "type": "uint256"
        }
      ],
      "payable": false,
      "stateMutability": "nonpayable",
      "type": "function"
    },
    {
      "constant": true,
      "inputs": [],
      "name": "exchangeRateStored",
      "outputs": [
        {
          "internalType": "uint256",
          "name": "",
          "type": "uint256"
        }
      ],
      "payable": false,
      "stateMutability": "view",
      "type": "function"
    },
    {
      "constant": true,
      "inputs": [
        {
          "internalType": "address",
          "name": "account",
          "type": "address"
        }
      ],
      "name": "getAccountSnapshot",
      "outputs": [
        {
          "internalType": "uint256",
          "name": "",
          "type": "uint256"
        },
        {
          "internalType": "uint256",
          "name": "",
          "type": "uint256"
        },
        {
          "internalType": "uint256",
          "name": "",
          "type": "uint256"
        },
        {
          "internalType": "uint256",
          "name": "",
          "type": "uint256"
        }
      ],
      "payable": false,
      "stateMutability": "view",
      "type": "function"
    },
    {
      "constant": true,
      "inputs": [],
      "name": "getCash",
      "outputs": [
        {
          "internalType": "uint256",
          "name": "",
          "type": "uint256"
        }
      ],
      "payable": false,
      "stateMutability": "view",
      "type": "function"
    },
    {
      "constant": false,
      "inputs": [
        {
          "internalType": "address",
          "name": "underlying_",
          "type": "address"
        },
        {
          "internalType": "contract ComptrollerInterface",
          "name": "comptroller_",
          "type": "address"
        },
        {
          "internalType": "contract InterestRateModel",
          "name": "interestRateModel_",
          "type": "address"
        },
        {
          "internalType": "uint256",
          "name": "initialExchangeRateMantissa_",
          "type": "uint256"
        },
        {
          "internalType": "string",
          "name": "name_",
          "type": "string"
        },
        {
          "internalType": "string",
          "name": "symbol_",
          "type": "string"
        },
        {
          "internalType": "uint8",
          "name": "decimals_",
          "type": "uint8"
        }
      ],
      "name": "initialize",
      "outputs": [],
      "payable": false,
      "stateMutability": "nonpayable",
      "type": "function"
    },
    {
      "constant": false,
      "inputs": [
        {
          "internalType": "contract ComptrollerInterface",
          "name": "comptroller_",
          "type": "address"
        },
        {
          "internalType": "contract InterestRateModel",
          "name": "interestRateModel_",
          "type": "address"
        },
        {
          "internalType": "uint256",
          "name": "initialExchangeRateMantissa_",
          "type": "uint256"
        },
        {
          "internalType": "string",
          "name": "name_",
          "type": "string"
        },
        {
          "internalType": "string",
          "name": "symbol_",
          "type": "string"
        },
        {
          "internalType": "uint8",
          "name": "decimals_",
          "type": "uint8"
        }
      ],
      "name": "initialize",
      "outputs": [],
      "payable": false,
      "stateMutability": "nonpayable",
      "type": "function"
    },
    {
      "constant": true,
      "inputs": [],
      "name": "interestRateModel",
      "outputs": [
        {
          "internalType": "contract InterestRateModel",
          "name": "",
          "type": "address"
        }
      ],
      "payable": false,
      "stateMutability": "view",
      "type": "function"
    },
    {
      "constant": true,
      "inputs": [],
      "name": "isCToken",
      "outputs": [
        {
          "internalType": "bool",
          "name": "",
          "type": "bool"
        }
      ],
      "payable": false,
      "stateMutability": "view",
      "type": "function"
    },
    {
      "constant": false,
      "inputs": [
        {
          "internalType": "address",
          "name": "borrower",
          "type": "address"
        },
        {
          "internalType": "uint256",
          "name": "repayAmount",
          "type": "uint256"
        },
        {
          "internalType": "contract CTokenInterface",
          "name": "cTokenCollateral",
          "type": "address"
        }
      ],
      "name": "liquidateBorrow",
      "outputs": [
        {
          "internalType": "uint256",
          "name": "",
          "type": "uint256"
        }
      ],
      "payable": false,
      "stateMutability": "nonpayable",
      "type": "function"
    },
    {
      "constant": false,
      "inputs": [
        {
          "internalType": "uint256",
          "name": "mintAmount",
          "type": "uint256"
        }
      ],
      "name": "mint",
      "outputs": [
        {
          "internalType": "uint256",
          "name": "",
          "type": "uint256"
        }
      ],
      "payable": false,
      "stateMutability": "nonpayable",
      "type": "function"
    },
    {
      "constant": true,
      "inputs": [],
      "name": "name",
      "outputs": [
        {
          "internalType": "string",
          "name": "",
          "type": "string"
        }
      ],
      "payable": false,
      "stateMutability": "view",
      "type": "function"
    },
    {
      "constant": true,
      "inputs": [],
      "name": "pendingAdmin",
      "outputs": [
        {
          "internalType": "address payable",
          "name": "",
          "type": "address"
        }
      ],
      "payable": false,
      "stateMutability": "view",
      "type": "function"
    },
    {
      "constant": false,
      "inputs": [
        {
          "internalType": "uint256",
          "name": "redeemTokens",
          "type": "uint256"
        }
      ],
      "name": "redeem",
      "outputs": [
        {
          "internalType": "uint256",
          "name": "",
          "type": "uint256"
        }
      ],
      "payable": false,
      "stateMutability": "nonpayable",
      "type": "function"
    },
    {
      "constant": false,
      "inputs": [
        {
          "internalType": "uint256",
          "name": "redeemAmount",
          "type": "uint256"
        }
      ],
      "name": "redeemUnderlying",
      "outputs": [
        {
          "internalType": "uint256",
          "name": "",
          "type": "uint256"
        }
      ],
      "payable": false,
      "stateMutability": "nonpayable",
      "type": "function"
    },
    {
      "constant": false,
      "inputs": [
        {
          "internalType": "uint256",
          "name": "repayAmount",
          "type": "uint256"
        }
      ],
      "name": "repayBorrow",
      "outputs": [
        {
          "internalType": "uint256",
          "name": "",
          "type": "uint256"
        }
      ],
      "payable": false,
      "stateMutability": "nonpayable",
      "type": "function"
    },
    {
      "constant": false,
      "inputs": [
        {
          "internalType": "address",
          "name": "borrower",
          "type": "address"
        },
        {
          "internalType": "uint256",
          "name": "repayAmount",
          "type": "uint256"
        }
      ],
      "name": "repayBorrowBehalf",
      "outputs": [
        {
          "internalType": "uint256",
          "name": "",
          "type": "uint256"
        }
      ],
      "payable": false,
      "stateMutability": "nonpayable",
      "type": "function"
    },
    {
      "constant": true,
      "inputs": [],
      "name": "reserveFactorMantissa",
      "outputs": [
        {
          "internalType": "uint256",
          "name": "",
          "type": "uint256"
        }
      ],
      "payable": false,
      "stateMutability": "view",
      "type": "function"
    },
    {
      "constant": false,
      "inputs": [
        {
          "internalType": "address",
          "name": "liquidator",
          "type": "address"
        },
        {
          "internalType": "address",
          "name": "borrower",
          "type": "address"
        },
        {
          "internalType": "uint256",
          "name": "seizeTokens",
          "type": "uint256"
        }
      ],
      "name": "seize",
      "outputs": [
        {
          "internalType": "uint256",
          "name": "",
          "type": "uint256"
        }
      ],
      "payable": false,
      "stateMutability": "nonpayable",
      "type": "function"
    },
    {
      "constant": true,
      "inputs": [],
      "name": "supplyRatePerBlock",
      "outputs": [
        {
          "internalType": "uint256",
          "name": "",
          "type": "uint256"
        }
      ],
      "payable": false,
      "stateMutability": "view",
      "type": "function"
    },
    {
      "constant": true,
      "inputs": [],
      "name": "symbol",
      "outputs": [
        {
          "internalType": "string",
          "name": "",
          "type": "string"
        }
      ],
      "payable": false,
      "stateMutability": "view",
      "type": "function"
    },
    {
      "constant": true,
      "inputs": [],
      "name": "totalBorrows",
      "outputs": [
        {
          "internalType": "uint256",
          "name": "",
          "type": "uint256"
        }
      ],
      "payable": false,
      "stateMutability": "view",
      "type": "function"
    },
    {
      "constant": false,
      "inputs": [],
      "name": "totalBorrowsCurrent",
      "outputs": [
        {
          "internalType": "uint256",
          "name": "",
          "type": "uint256"
        }
      ],
      "payable": false,
      "stateMutability": "nonpayable",
      "type": "function"
    },
    {
      "constant": true,
      "inputs": [],
      "name": "totalReserves",
      "outputs": [
        {
          "internalType": "uint256",
          "name": "",
          "type": "uint256"
        }
      ],
      "payable": false,
      "stateMutability": "view",
      "type": "function"
    },
    {
      "constant": true,
      "inputs": [],
      "name": "totalSupply",
      "outputs": [
        {
          "internalType": "uint256",
          "name": "",
          "type": "uint256"
        }
      ],
      "payable": false,
      "stateMutability": "view",
      "type": "function"
    },
    {
      "constant": false,
      "inputs": [
        {
          "internalType": "address",
          "name": "dst",
          "type": "address"
        },
        {
          "internalType": "uint256",
          "name": "amount",
          "type": "uint256"
        }
      ],
      "name": "transfer",
      "outputs": [
        {
          "internalType": "bool",
          "name": "",
          "type": "bool"
        }
      ],
      "payable": false,
      "stateMutability": "nonpayable",
      "type": "function"
    },
    {
      "constant": false,
      "inputs": [
        {
          "internalType": "address",
          "name": "src",
          "type": "address"
        },
        {
          "internalType": "address",
          "name": "dst",
          "type": "address"
        },
        {
          "internalType": "uint256",
          "name": "amount",
          "type": "uint256"
        }
      ],
      "name": "transferFrom",
      "outputs": [
        {
          "internalType": "bool",
          "name": "",
          "type": "bool"
        }
      ],
      "payable": false,
      "stateMutability": "nonpayable",
      "type": "function"
    },
    {
      "constant": true,
      "inputs": [],
      "name": "underlying",
      "outputs": [
        {
          "internalType": "address",
          "name": "",
          "type": "address"
        }
      ],
      "payable": false,
      "stateMutability": "view",
      "type": "function"
    },
    {
      "constant": true,
      "inputs": [
        {
          "internalType": "address",
          "name": "account",
          "type": "address"
        }
      ],
      "name": "toString",
      "outputs": [
        {
          "internalType": "string",
          "name": "",
          "type": "string"
        }
      ],
      "payable": false,
      "stateMutability": "pure",
      "type": "function"
    },
    {
      "constant": true,
      "inputs": [
        {
          "internalType": "uint256",
          "name": "value",
          "type": "uint256"
        }
      ],
      "name": "toString",
      "outputs": [
        {
          "internalType": "string",
          "name": "",
          "type": "string"
        }
      ],
      "payable": false,
      "stateMutability": "pure",
      "type": "function"
    },
    {
      "constant": true,
      "inputs": [
        {
          "internalType": "bytes",
          "name": "data",
          "type": "bytes"
        }
      ],
      "name": "toString",
      "outputs": [
        {
          "internalType": "string",
          "name": "",
          "type": "string"
        }
      ],
      "payable": false,
      "stateMutability": "pure",
      "type": "function"
    },
    {
      "constant": true,
      "inputs": [
        {
          "internalType": "bytes32",
          "name": "value",
          "type": "bytes32"
        }
      ],
      "name": "toString",
      "outputs": [
        {
          "internalType": "string",
          "name": "",
          "type": "string"
        }
      ],
      "payable": false,
      "stateMutability": "pure",
      "type": "function"
    }
  ],
  "bytecode": "0x60806040523480156200001157600080fd5b5060405162005c3238038062005c3283398181016040526101008110156200003857600080fd5b81516020830151604080850151606086015160808701805193519597949692959194919392820192846401000000008211156200007457600080fd5b9083019060208201858111156200008a57600080fd5b8251640100000000811182820188101715620000a557600080fd5b82525081516020918201929091019080838360005b83811015620000d4578181015183820152602001620000ba565b50505050905090810190601f168015620001025780820380516001836020036101000a031916815260200191505b50604052602001805160405193929190846401000000008211156200012657600080fd5b9083019060208201858111156200013c57600080fd5b82516401000000008111828201881017156200015757600080fd5b82525081516020918201929091019080838360005b83811015620001865781810151838201526020016200016c565b50505050905090810190601f168015620001b45780820380516001836020036101000a031916815260200191505b506040908152602082015191015160038054610100600160a81b03191633610100021790559092509050620001ef8888888888888862000223565b600380546001600160a01b0390921661010002610100600160a81b0319909216919091179055506200090d95505050505050565b6200023e868686868686620002d260201b620015a81760201c565b601180546001600160a01b0319166001600160a01b038981169190911791829055604080516318160ddd60e01b8152905192909116916318160ddd91600480820192602092909190829003018186803b1580156200029b57600080fd5b505afa158015620002b0573d6000803e3d6000fd5b505050506040513d6020811015620002c757600080fd5b505050505050505050565b60035461010090046001600160a01b03163314620003225760405162461bcd60e51b815260040180806020018281038252602481526020018062005b996024913960400191505060405180910390fd5b600954158015620003335750600a54155b620003705760405162461bcd60e51b815260040180806020018281038252602381526020018062005bbd6023913960400191505060405180910390fd5b600784905583620003b35760405162461bcd60e51b815260040180806020018281038252603081526020018062005be06030913960400191505060405180910390fd5b6000620003c9876001600160e01b03620004e816565b905080156200041f576040805162461bcd60e51b815260206004820152601a60248201527f73657474696e6720636f6d7074726f6c6c6572206661696c6564000000000000604482015290519081900360640190fd5b620004326001600160e01b036200065016565b600955670de0b6b3a7640000600a5562000455866001600160e01b036200065516565b90508015620004965760405162461bcd60e51b815260040180806020018281038252602281526020018062005c106022913960400191505060405180910390fd5b8351620004ab9060019060208701906200086b565b508251620004c19060029060208601906200086b565b50506003805460ff90921660ff199283161790556000805490911660011790555050505050565b60035460009061010090046001600160a01b0316331462000522576200051a6001603f6001600160e01b03620007fb16565b90506200064b565b60055460408051623f1ee960e11b815290516001600160a01b0392831692851691627e3dd2916004808301926020929190829003018186803b1580156200056857600080fd5b505afa1580156200057d573d6000803e3d6000fd5b505050506040513d60208110156200059457600080fd5b5051620005e8576040805162461bcd60e51b815260206004820152601c60248201527f6d61726b6572206d6574686f642072657475726e65642066616c736500000000604482015290519081900360640190fd5b600580546001600160a01b0319166001600160a01b03858116918217909255604080519284168352602083019190915280517f7ac369dbd14fa5ea3f473ed67cc9d598964a77501540ba6751eb0b3decf5870d9281900390910190a160005b9150505b919050565b435b90565b600354600090819061010090046001600160a01b03163314620006925762000689600160426001600160e01b03620007fb16565b9150506200064b565b620006a56001600160e01b036200065016565b60095414620006c55762000689600a60416001600160e01b03620007fb16565b600660009054906101000a90046001600160a01b03169050826001600160a01b0316632191f92a6040518163ffffffff1660e01b815260040160206040518083038186803b1580156200071757600080fd5b505afa1580156200072c573d6000803e3d6000fd5b505050506040513d60208110156200074357600080fd5b505162000797576040805162461bcd60e51b815260206004820152601c60248201527f6d61726b6572206d6574686f642072657475726e65642066616c736500000000604482015290519081900360640190fd5b600680546001600160a01b0319166001600160a01b03858116918217909255604080519284168352602083019190915280517fedffc32e068c7c95dfd4bdfd5c4d939a084d6b11c4199eac8436ed234d72f9269281900390910190a1600062000647565b60007f45b96fe442630264581b197e84bbada861235052c5a1aadfff9ea4e40a969aa08360108111156200082b57fe5b8360508111156200083857fe5b604080519283526020830191909152600082820152519081900360600190a18260108111156200086457fe5b9392505050565b828054600181600116156101000203166002900490600052602060002090601f016020900481019282601f10620008ae57805160ff1916838001178555620008de565b82800160010185558215620008de579182015b82811115620008de578251825591602001919060010190620008c1565b50620008ec929150620008f0565b5090565b6200065291905b80821115620008ec5760008155600101620008f7565b61527c806200091d6000396000f3fe608060405234801561001057600080fd5b506004361061030c5760003560e01c8063852a12e31161019d578063bd6d894d116100e9578063f2b3abbd116100a2578063f851a4401161007c578063f851a44014610b80578063f8f9da2814610b88578063fca7820b14610b90578063fe9c44ae14610bad5761030c565b8063f2b3abbd14610b1c578063f3fdb15a14610b42578063f5e3c46214610b4a5761030c565b8063bd6d894d14610a58578063c37f68e214610a60578063c5ebeaec14610aac578063db006a7514610ac9578063dd62ed3e14610ae6578063e9c714f214610b145761030c565b8063a6afed9511610156578063ae9d70b011610130578063ae9d70b0146109f4578063b11a19e8146106fb578063b2a02ff1146109fc578063b71d1a0c14610a325761030c565b8063a6afed95146109b8578063a9059cbb146109c0578063aa5af0fd146109ec5761030c565b8063852a12e3146107fa5780638f840ddd1461081757806395d89b411461081f57806395dd91931461082757806399d8c1b41461084d578063a0712d681461099b5761030c565b80633b1d21a21161025c578063601a0bf1116102155780636f307dc3116101ef5780636f307dc31461072057806370a082311461072857806371aad10d1461074e57806373acee98146107f25761030c565b8063601a0bf1146106de5780636900a3ae146106fb5780636c540baf146107185761030c565b80633b1d21a21461065d5780633e941010146106655780634576b5db1461068257806347bd3718146106a857806356ca623e146106b05780635fe3b567146106d65761030c565b8063182df0f5116102c95780632608f818116102a35780632608f818146105c957806326782247146105f5578063313ce567146106195780633af9e669146106375761030c565b8063182df0f5146104335780631a31d4651461043b57806323b872dd146105935761030c565b806306fdde0314610311578063095ea7b31461038e5780630e752702146103ce578063173b9904146103fd57806317bfdfbc1461040557806318160ddd1461042b575b600080fd5b610319610bb5565b6040805160208082528351818301528351919283929083019185019080838360005b8381101561035357818101518382015260200161033b565b50505050905090810190601f1680156103805780820380516001836020036101000a031916815260200191505b509250505060405180910390f35b6103ba600480360360408110156103a457600080fd5b506001600160a01b038135169060200135610c42565b604080519115158252519081900360200190f35b6103eb600480360360208110156103e457600080fd5b5035610caf565b60408051918252519081900360200190f35b6103eb610cc5565b6103eb6004803603602081101561041b57600080fd5b50356001600160a01b0316610ccb565b6103eb610d8b565b6103eb610d91565b610591600480360360e081101561045157600080fd5b6001600160a01b03823581169260208101358216926040820135909216916060820135919081019060a081016080820135600160201b81111561049357600080fd5b8201836020820111156104a557600080fd5b803590602001918460018302840111600160201b831117156104c657600080fd5b91908080601f0160208091040260200160405190810160405280939291908181526020018383808284376000920191909152509295949360208101935035915050600160201b81111561051857600080fd5b82018360208201111561052a57600080fd5b803590602001918460018302840111600160201b8311171561054b57600080fd5b91908080601f0160208091040260200160405190810160405280939291908181526020018383808284376000920191909152509295505050903560ff169150610df49050565b005b6103ba600480360360608110156105a957600080fd5b506001600160a01b03813581169160208101359091169060400135610e93565b6103eb600480360360408110156105df57600080fd5b506001600160a01b038135169060200135610f05565b6105fd610f1b565b604080516001600160a01b039092168252519081900360200190f35b610621610f2a565b6040805160ff9092168252519081900360200190f35b6103eb6004803603602081101561064d57600080fd5b50356001600160a01b0316610f33565b6103eb610fe9565b6103eb6004803603602081101561067b57600080fd5b5035610ff8565b6103eb6004803603602081101561069857600080fd5b50356001600160a01b0316611003565b6103eb611158565b610319600480360360208110156106c657600080fd5b50356001600160a01b031661115e565b6105fd61119d565b6103eb600480360360208110156106f457600080fd5b50356111ac565b6103196004803603602081101561071157600080fd5b5035611247565b6103eb611271565b6105fd611277565b6103eb6004803603602081101561073e57600080fd5b50356001600160a01b0316611286565b6103196004803603602081101561076457600080fd5b810190602081018135600160201b81111561077e57600080fd5b82018360208201111561079057600080fd5b803590602001918460018302840111600160201b831117156107b157600080fd5b91908080601f0160208091040260200160405190810160405280939291908181526020018383808284376000920191909152509295506112a1945050505050565b6103eb61142c565b6103eb6004803603602081101561081057600080fd5b50356114e2565b6103eb6114ed565b6103196114f3565b6103eb6004803603602081101561083d57600080fd5b50356001600160a01b031661154b565b610591600480360360c081101561086357600080fd5b6001600160a01b03823581169260208101359091169160408201359190810190608081016060820135600160201b81111561089d57600080fd5b8201836020820111156108af57600080fd5b803590602001918460018302840111600160201b831117156108d057600080fd5b91908080601f0160208091040260200160405190810160405280939291908181526020018383808284376000920191909152509295949360208101935035915050600160201b81111561092257600080fd5b82018360208201111561093457600080fd5b803590602001918460018302840111600160201b8311171561095557600080fd5b91908080601f0160208091040260200160405190810160405280939291908181526020018383808284376000920191909152509295505050903560ff1691506115a89050565b6103eb600480360360208110156109b157600080fd5b503561178f565b6103eb61179b565b6103ba600480360360408110156109d657600080fd5b506001600160a01b038135169060200135611af3565b6103eb611b64565b6103eb611b6a565b6103eb60048036036060811015610a1257600080fd5b506001600160a01b03813581169160208101359091169060400135611c09565b6103eb60048036036020811015610a4857600080fd5b50356001600160a01b0316611c7a565b6103eb611d06565b610a8660048036036020811015610a7657600080fd5b50356001600160a01b0316611dc2565b604080519485526020850193909352838301919091526060830152519081900360800190f35b6103eb60048036036020811015610ac257600080fd5b5035611e57565b6103eb60048036036020811015610adf57600080fd5b5035611e62565b6103eb60048036036040811015610afc57600080fd5b506001600160a01b0381358116916020013516611e6d565b6103eb611e98565b6103eb60048036036020811015610b3257600080fd5b50356001600160a01b0316611f9b565b6105fd611fd5565b6103eb60048036036060811015610b6057600080fd5b506001600160a01b03813581169160208101359160409091013516611fe4565b6105fd611ffc565b6103eb612010565b6103eb60048036036020811015610ba657600080fd5b5035612074565b6103ba6120f2565b60018054604080516020600284861615610100026000190190941693909304601f81018490048402820184019092528181529291830182828015610c3a5780601f10610c0f57610100808354040283529160200191610c3a565b820191906000526020600020905b815481529060010190602001808311610c1d57829003601f168201915b505050505081565b336000818152600f602090815260408083206001600160a01b03871680855290835281842086905581518681529151939493909284927f8c5be1e5ebec7d5bd14f71427d1e84f3dd0314c0f7b2291e5b200ac8c7c3b925929081900390910190a360019150505b92915050565b600080610cbb836120f7565b509150505b919050565b60085481565b6000805460ff16610d10576040805162461bcd60e51b815260206004820152600a6024820152691c994b595b9d195c995960b21b604482015290519081900360640190fd5b6000805460ff19168155610d2261179b565b14610d6d576040805162461bcd60e51b81526020600482015260166024820152751858d8dc9d59481a5b9d195c995cdd0819985a5b195960521b604482015290519081900360640190fd5b610d768261154b565b90505b6000805460ff19166001179055919050565b600d5481565b6000806000610d9e6121a0565b90925090506000826003811115610db157fe5b14610ded5760405162461bcd60e51b81526004018080602001828103825260358152602001806151936035913960400191505060405180910390fd5b9150505b90565b610e028686868686866115a8565b601180546001600160a01b0319166001600160a01b038981169190911791829055604080516318160ddd60e01b8152905192909116916318160ddd91600480820192602092909190829003018186803b158015610e5e57600080fd5b505afa158015610e72573d6000803e3d6000fd5b505050506040513d6020811015610e8857600080fd5b505050505050505050565b6000805460ff16610ed8576040805162461bcd60e51b815260206004820152600a6024820152691c994b595b9d195c995960b21b604482015290519081900360640190fd5b6000805460ff19168155610eee3386868661224f565b1490506000805460ff191660011790559392505050565b600080610f12848461255d565b50949350505050565b6004546001600160a01b031681565b60035460ff1681565b6000610f3d614e81565b6040518060200160405280610f50611d06565b90526001600160a01b0384166000908152600e6020526040812054919250908190610f7c908490612608565b90925090506000826003811115610f8f57fe5b14610fe1576040805162461bcd60e51b815260206004820152601f60248201527f62616c616e636520636f756c64206e6f742062652063616c63756c6174656400604482015290519081900360640190fd5b949350505050565b6000610ff361265c565b905090565b6000610ca9826126dc565b60035460009061010090046001600160a01b03163314611030576110296001603f612770565b9050610cc0565b60055460408051623f1ee960e11b815290516001600160a01b0392831692851691627e3dd2916004808301926020929190829003018186803b15801561107557600080fd5b505afa158015611089573d6000803e3d6000fd5b505050506040513d602081101561109f57600080fd5b50516110f2576040805162461bcd60e51b815260206004820152601c60248201527f6d61726b6572206d6574686f642072657475726e65642066616c736500000000604482015290519081900360640190fd5b600580546001600160a01b0319166001600160a01b03858116918217909255604080519284168352602083019190915280517f7ac369dbd14fa5ea3f473ed67cc9d598964a77501540ba6751eb0b3decf5870d9281900390910190a160005b9392505050565b600b5481565b6060610ca98260405160200180826001600160a01b03166001600160a01b031660601b81526014019150506040516020818303038152906040526112a1565b6005546001600160a01b031681565b6000805460ff166111f1576040805162461bcd60e51b815260206004820152600a6024820152691c994b595b9d195c995960b21b604482015290519081900360640190fd5b6000805460ff1916815561120361179b565b905080156112295761122181601081111561121a57fe5b6030612770565b915050610d79565b611232836127d6565b9150506000805460ff19166001179055919050565b6060610ca982604051602001808281526020019150506040516020818303038152906040526112a1565b60095481565b6011546001600160a01b031681565b6001600160a01b03166000908152600e602052604090205490565b6060806040518060400160405280601081526020016f181899199a1a9b1b9c1cb0b131b232b360811b8152509050606083516002026002016040519080825280601f01601f191660200182016040528015611303576020820181803883390190505b509050600360fc1b8160008151811061131857fe5b60200101906001600160f81b031916908160001a905350600f60fb1b8160018151811061134157fe5b60200101906001600160f81b031916908160001a90535060005b8451811015610cbb5782600486838151811061137357fe5b016020015182516001600160f81b031990911690911c60f81c90811061139557fe5b602001015160f81c60f81b8282600202600201815181106113b257fe5b60200101906001600160f81b031916908160001a905350828582815181106113d657fe5b602091010151815160f89190911c600f169081106113f057fe5b602001015160f81c60f81b82826002026003018151811061140d57fe5b60200101906001600160f81b031916908160001a90535060010161135b565b6000805460ff16611471576040805162461bcd60e51b815260206004820152600a6024820152691c994b595b9d195c995960b21b604482015290519081900360640190fd5b6000805460ff1916815561148361179b565b146114ce576040805162461bcd60e51b81526020600482015260166024820152751858d8dc9d59481a5b9d195c995cdd0819985a5b195960521b604482015290519081900360640190fd5b50600b546000805460ff1916600117905590565b6000610ca982612909565b600c5481565b6002805460408051602060018416156101000260001901909316849004601f81018490048402820184019092528181529291830182828015610c3a5780601f10610c0f57610100808354040283529160200191610c3a565b60008060006115598461298a565b9092509050600082600381111561156c57fe5b146111515760405162461bcd60e51b815260040180806020018281038252603781526020018061509e6037913960400191505060405180910390fd5b60035461010090046001600160a01b031633146115f65760405162461bcd60e51b8152600401808060200182810382526024815260200180614fda6024913960400191505060405180910390fd5b6009541580156116065750600a54155b6116415760405162461bcd60e51b8152600401808060200182810382526023815260200180614ffe6023913960400191505060405180910390fd5b6007849055836116825760405162461bcd60e51b81526004018080602001828103825260308152602001806150216030913960400191505060405180910390fd5b600061168d87611003565b905080156116e2576040805162461bcd60e51b815260206004820152601a60248201527f73657474696e6720636f6d7074726f6c6c6572206661696c6564000000000000604482015290519081900360640190fd5b6116ea612a3e565b600955670de0b6b3a7640000600a5561170286612a42565b905080156117415760405162461bcd60e51b81526004018080602001828103825260228152602001806150516022913960400191505060405180910390fd5b8351611754906001906020870190614e94565b508251611768906002906020860190614e94565b50506003805460ff90921660ff199283161790556000805490911660011790555050505050565b600080610cbb83612bb7565b6000806117a6612a3e565b600954909150808214156117bf57600092505050610df1565b60006117c961265c565b600b54600c54600a54600654604080516315f2405360e01b815260048101879052602481018690526044810185905290519596509394929391926000926001600160a01b03909216916315f24053916064808301926020929190829003018186803b15801561183757600080fd5b505afa15801561184b573d6000803e3d6000fd5b505050506040513d602081101561186157600080fd5b5051905065048c273950008111156118c0576040805162461bcd60e51b815260206004820152601c60248201527f626f72726f772072617465206973206162737572646c79206869676800000000604482015290519081900360640190fd5b6000806118cd8989612c38565b909250905060008260038111156118e057fe5b14611932576040805162461bcd60e51b815260206004820152601f60248201527f636f756c64206e6f742063616c63756c61746520626c6f636b2064656c746100604482015290519081900360640190fd5b61193a614e81565b60008060008061195860405180602001604052808a81525087612c5b565b9097509450600087600381111561196b57fe5b1461199d576119886009600689600381111561198357fe5b612cc3565b9e505050505050505050505050505050610df1565b6119a7858c612608565b909750935060008760038111156119ba57fe5b146119d2576119886009600189600381111561198357fe5b6119dc848c612d29565b909750925060008760038111156119ef57fe5b14611a07576119886009600489600381111561198357fe5b611a226040518060200160405280600854815250858c612d4f565b90975091506000876003811115611a3557fe5b14611a4d576119886009600589600381111561198357fe5b611a58858a8b612d4f565b90975090506000876003811115611a6b57fe5b14611a83576119886009600389600381111561198357fe5b60098e9055600a819055600b839055600c829055604080518d8152602081018690528082018390526060810185905290517f4dec04e750ca11537cabcd8a9eab06494de08da3735bc8871cd41250e190bc049181900360800190a160009e50505050505050505050505050505090565b6000805460ff16611b38576040805162461bcd60e51b815260206004820152600a6024820152691c994b595b9d195c995960b21b604482015290519081900360640190fd5b6000805460ff19168155611b4e3333868661224f565b1490506000805460ff1916600117905592915050565b600a5481565b6006546000906001600160a01b031663b8168816611b8661265c565b600b54600c546008546040518563ffffffff1660e01b81526004018085815260200184815260200183815260200182815260200194505050505060206040518083038186803b158015611bd857600080fd5b505afa158015611bec573d6000803e3d6000fd5b505050506040513d6020811015611c0257600080fd5b5051905090565b6000805460ff16611c4e576040805162461bcd60e51b815260206004820152600a6024820152691c994b595b9d195c995960b21b604482015290519081900360640190fd5b6000805460ff19169055611c6433858585612dab565b90506000805460ff191660011790559392505050565b60035460009061010090046001600160a01b03163314611ca05761102960016045612770565b600480546001600160a01b038481166001600160a01b0319831681179093556040805191909216808252602082019390935281517fca4f2f25d0898edd99413412fb94012f9e54ec8142f9b093e7720646a95b16a9929181900390910190a16000611151565b6000805460ff16611d4b576040805162461bcd60e51b815260206004820152600a6024820152691c994b595b9d195c995960b21b604482015290519081900360640190fd5b6000805460ff19168155611d5d61179b565b14611da8576040805162461bcd60e51b81526020600482015260166024820152751858d8dc9d59481a5b9d195c995cdd0819985a5b195960521b604482015290519081900360640190fd5b611db0610d91565b90506000805460ff1916600117905590565b6001600160a01b0381166000908152600e6020526040812054819081908190818080611ded8961298a565b935090506000816003811115611dff57fe5b14611e1d5760095b975060009650869550859450611e509350505050565b611e256121a0565b925090506000816003811115611e3757fe5b14611e43576009611e07565b5060009650919450925090505b9193509193565b6000610ca982613011565b6000610ca982613090565b6001600160a01b039182166000908152600f6020908152604080832093909416825291909152205490565b6004546000906001600160a01b031633141580611eb3575033155b15611ecb57611ec460016000612770565b9050610df1565b60038054600480546001600160a01b03818116610100818102610100600160a81b0319871617968790556001600160a01b031990931690935560408051948390048216808652929095041660208401528351909391927ff9ffabca9c8276e99321725bcb43fb076a6c66a54b7f21c4e8146d8519b417dc92908290030190a1600454604080516001600160a01b038085168252909216602083015280517fca4f2f25d0898edd99413412fb94012f9e54ec8142f9b093e7720646a95b16a99281900390910190a160009250505090565b600080611fa661179b565b90508015611fcc57611fc4816010811115611fbd57fe5b6040612770565b915050610cc0565b61115183612a42565b6006546001600160a01b031681565b600080611ff285858561310a565b5095945050505050565b60035461010090046001600160a01b031681565b6006546000906001600160a01b03166315f2405361202c61265c565b600b54600c546040518463ffffffff1660e01b815260040180848152602001838152602001828152602001935050505060206040518083038186803b158015611bd857600080fd5b6000805460ff166120b9576040805162461bcd60e51b815260206004820152600a6024820152691c994b595b9d195c995960b21b604482015290519081900360640190fd5b6000805460ff191681556120cb61179b565b905080156120e9576112218160108111156120e257fe5b6046612770565b6112328361323c565b600181565b60008054819060ff1661213e576040805162461bcd60e51b815260206004820152600a6024820152691c994b595b9d195c995960b21b604482015290519081900360640190fd5b6000805460ff1916815561215061179b565b9050801561217b5761216e81601081111561216757fe5b6036612770565b92506000915061218c9050565b6121863333866132e4565b92509250505b6000805460ff191660011790559092909150565b600d546000908190806121bb5750506007546000915061224b565b60006121c561265c565b905060006121d1614e81565b60006121e284600b54600c546136c9565b9350905060008160038111156121f457fe5b146122095795506000945061224b9350505050565b6122138386613707565b92509050600081600381111561222557fe5b1461223a5795506000945061224b9350505050565b505160009550935061224b92505050565b9091565b600554604080516317b9b84b60e31b81523060048201526001600160a01b03868116602483015285811660448301526064820185905291516000938493169163bdcdc25891608480830192602092919082900301818787803b1580156122b457600080fd5b505af11580156122c8573d6000803e3d6000fd5b505050506040513d60208110156122de57600080fd5b5051905080156122fd576122f56003604a83612cc3565b915050610fe1565b836001600160a01b0316856001600160a01b03161415612323576122f56002604b612770565b60006001600160a01b038781169087161415612342575060001961236a565b506001600160a01b038086166000908152600f60209081526040808320938a16835292905220545b60008060008061237a8589612c38565b9094509250600084600381111561238d57fe5b146123ab5761239e6009604b612770565b9650505050505050610fe1565b6001600160a01b038a166000908152600e60205260409020546123ce9089612c38565b909450915060008460038111156123e157fe5b146123f25761239e6009604c612770565b6001600160a01b0389166000908152600e60205260409020546124159089612d29565b9094509050600084600381111561242857fe5b146124395761239e6009604d612770565b6001600160a01b03808b166000908152600e6020526040808220859055918b168152208190556000198514612491576001600160a01b03808b166000908152600f60209081526040808320938f168352929052208390555b886001600160a01b03168a6001600160a01b031660008051602061510f8339815191528a6040518082815260200191505060405180910390a36005546040805163352b4a3f60e11b81523060048201526001600160a01b038d811660248301528c81166044830152606482018c905291519190921691636a56947e91608480830192600092919082900301818387803b15801561252d57600080fd5b505af1158015612541573d6000803e3d6000fd5b506000925061254e915050565b9b9a5050505050505050505050565b60008054819060ff166125a4576040805162461bcd60e51b815260206004820152600a6024820152691c994b595b9d195c995960b21b604482015290519081900360640190fd5b6000805460ff191681556125b661179b565b905080156125e1576125d48160108111156125cd57fe5b6035612770565b9250600091506125f29050565b6125ec3386866132e4565b92509250505b6000805460ff1916600117905590939092509050565b6000806000612615614e81565b61261f8686612c5b565b9092509050600082600381111561263257fe5b146126435750915060009050612655565b600061264e826137b7565b9350935050505b9250929050565b601154604080516370a0823160e01b815230600482015290516000926001600160a01b03169182916370a0823191602480820192602092909190829003018186803b1580156126aa57600080fd5b505afa1580156126be573d6000803e3d6000fd5b505050506040513d60208110156126d457600080fd5b505191505090565b6000805460ff16612721576040805162461bcd60e51b815260206004820152600a6024820152691c994b595b9d195c995960b21b604482015290519081900360640190fd5b6000805460ff1916815561273361179b565b905080156127515761122181601081111561274a57fe5b604e612770565b61275a836137c6565b509150506000805460ff19166001179055919050565b60007f45b96fe442630264581b197e84bbada861235052c5a1aadfff9ea4e40a969aa083601081111561279f57fe5b8360508111156127ab57fe5b604080519283526020830191909152600082820152519081900360600190a182601081111561115157fe5b600354600090819061010090046001600160a01b031633146127fe57611fc460016031612770565b612806612a3e565b6009541461281a57611fc4600a6033612770565b8261282361265c565b101561283557611fc4600e6032612770565b600c5483111561284b57611fc460026034612770565b50600c54828103908111156128915760405162461bcd60e51b81526004018080602001828103825260248152602001806152246024913960400191505060405180910390fd5b600c8190556003546128b19061010090046001600160a01b0316846138ae565b600354604080516101009092046001600160a01b0316825260208201859052818101839052517f3bad0c59cf2f06e7314077049f48a93578cd16f5ef92329f1dab1420a99c177e916060908290030190a16000611151565b6000805460ff1661294e576040805162461bcd60e51b815260206004820152600a6024820152691c994b595b9d195c995960b21b604482015290519081900360640190fd5b6000805460ff1916815561296061179b565b9050801561297e5761122181601081111561297757fe5b6027612770565b611232336000856139a5565b6001600160a01b0381166000908152601060205260408120805482918291829182916129c1575060009450849350612a3992505050565b6129d18160000154600a54613e6c565b909450925060008460038111156129e457fe5b146129f9575091935060009250612a39915050565b612a07838260010154613eab565b90945091506000846003811115612a1a57fe5b14612a2f575091935060009250612a39915050565b5060009450925050505b915091565b4390565b600354600090819061010090046001600160a01b03163314612a6a57611fc460016042612770565b612a72612a3e565b60095414612a8657611fc4600a6041612770565b600660009054906101000a90046001600160a01b03169050826001600160a01b0316632191f92a6040518163ffffffff1660e01b815260040160206040518083038186803b158015612ad757600080fd5b505afa158015612aeb573d6000803e3d6000fd5b505050506040513d6020811015612b0157600080fd5b5051612b54576040805162461bcd60e51b815260206004820152601c60248201527f6d61726b6572206d6574686f642072657475726e65642066616c736500000000604482015290519081900360640190fd5b600680546001600160a01b0319166001600160a01b03858116918217909255604080519284168352602083019190915280517fedffc32e068c7c95dfd4bdfd5c4d939a084d6b11c4199eac8436ed234d72f9269281900390910190a16000611151565b60008054819060ff16612bfe576040805162461bcd60e51b815260206004820152600a6024820152691c994b595b9d195c995960b21b604482015290519081900360640190fd5b6000805460ff19168155612c1061179b565b90508015612c2e5761216e816010811115612c2757fe5b601e612770565b6121863385613ed6565b600080838311612c4f575060009050818303612655565b50600390506000612655565b6000612c65614e81565b600080612c76866000015186613e6c565b90925090506000826003811115612c8957fe5b14612ca857506040805160208101909152600081529092509050612655565b60408051602081019091529081526000969095509350505050565b60007f45b96fe442630264581b197e84bbada861235052c5a1aadfff9ea4e40a969aa0846010811115612cf257fe5b846050811115612cfe57fe5b604080519283526020830191909152818101859052519081900360600190a1836010811115610fe157fe5b600080838301848110612d4157600092509050612655565b506002915060009050612655565b6000806000612d5c614e81565b612d668787612c5b565b90925090506000826003811115612d7957fe5b14612d8a5750915060009050612da3565b612d9c612d96826137b7565b86612d29565b9350935050505b935093915050565b6005546040805163d02f735160e01b81523060048201526001600160a01b038781166024830152868116604483015285811660648301526084820185905291516000938493169163d02f73519160a480830192602092919082900301818787803b158015612e1857600080fd5b505af1158015612e2c573d6000803e3d6000fd5b505050506040513d6020811015612e4257600080fd5b505190508015612e59576122f56003601b83612cc3565b846001600160a01b0316846001600160a01b03161415612e7f576122f56006601c612770565b6001600160a01b0384166000908152600e602052604081205481908190612ea69087612c38565b90935091506000836003811115612eb957fe5b14612edc57612ed16009601a85600381111561198357fe5b945050505050610fe1565b6001600160a01b0388166000908152600e6020526040902054612eff9087612d29565b90935090506000836003811115612f1257fe5b14612f2a57612ed16009601985600381111561198357fe5b6001600160a01b038088166000818152600e60209081526040808320879055938c168083529184902085905583518a81529351919360008051602061510f833981519152929081900390910190a360055460408051636d35bf9160e01b81523060048201526001600160a01b038c811660248301528b811660448301528a81166064830152608482018a905291519190921691636d35bf919160a480830192600092919082900301818387803b158015612fe357600080fd5b505af1158015612ff7573d6000803e3d6000fd5b5060009250613004915050565b9998505050505050505050565b6000805460ff16613056576040805162461bcd60e51b815260206004820152600a6024820152691c994b595b9d195c995960b21b604482015290519081900360640190fd5b6000805460ff1916815561306861179b565b905080156130865761122181601081111561307f57fe5b6008612770565b6112323384614335565b6000805460ff166130d5576040805162461bcd60e51b815260206004820152600a6024820152691c994b595b9d195c995960b21b604482015290519081900360640190fd5b6000805460ff191681556130e761179b565b905080156130fe5761122181601081111561297757fe5b611232338460006139a5565b60008054819060ff16613151576040805162461bcd60e51b815260206004820152600a6024820152691c994b595b9d195c995960b21b604482015290519081900360640190fd5b6000805460ff1916815561316361179b565b9050801561318e5761318181601081111561317a57fe5b600f612770565b9250600091506132259050565b836001600160a01b031663a6afed956040518163ffffffff1660e01b8152600401602060405180830381600087803b1580156131c957600080fd5b505af11580156131dd573d6000803e3d6000fd5b505050506040513d60208110156131f357600080fd5b5051905080156132135761318181601081111561320c57fe5b6010612770565b61321f33878787614643565b92509250505b6000805460ff191660011790559094909350915050565b60035460009061010090046001600160a01b031633146132625761102960016047612770565b61326a612a3e565b6009541461327e57611029600a6048612770565b670de0b6b3a764000082111561329a5761102960026049612770565b6008805490839055604080518281526020810185905281517faaa68312e2ea9d50e16af5068410ab56e1a1fd06037b1a35664812c30f821460929181900390910190a16000611151565b60055460408051631200453160e11b81523060048201526001600160a01b0386811660248301528581166044830152606482018590529151600093849384939116916324008a629160848082019260209290919082900301818787803b15801561334d57600080fd5b505af1158015613361573d6000803e3d6000fd5b505050506040513d602081101561337757600080fd5b50519050801561339b5761338e6003603883612cc3565b925060009150612da39050565b6133a3612a3e565b600954146133b75761338e600a6039612770565b6133bf614f12565b6001600160a01b03861660009081526010602052604090206001015460608201526133e98661298a565b608083018190526020830182600381111561340057fe5b600381111561340b57fe5b905250600090508160200151600381111561342257fe5b1461344c5761343e600960378360200151600381111561198357fe5b935060009250612da3915050565b600019851415613465576080810151604082015261346d565b604081018590525b61347b878260400151614bc6565b60e08201819052608082015161349091612c38565b60a08301819052602083018260038111156134a757fe5b60038111156134b257fe5b90525060009050816020015160038111156134c957fe5b146135055760405162461bcd60e51b815260040180806020018281038252603a8152602001806150d5603a913960400191505060405180910390fd5b613515600b548260e00151612c38565b60c083018190526020830182600381111561352c57fe5b600381111561353757fe5b905250600090508160200151600381111561354e57fe5b1461358a5760405162461bcd60e51b815260040180806020018281038252603181526020018061512f6031913960400191505060405180910390fd5b60a080820180516001600160a01b03808a16600081815260106020908152604091829020948555600a5460019095019490945560c0870151600b81905560e088015195518251948f16855294840192909252828101949094526060820192909252608081019190915290517f1a2a22cb034d26d1854bdc6666a5b91fe25efbbb5dcad3b0355478d6f5c362a1929181900390910190a160055460e0820151606083015160408051631ededc9160e01b81523060048201526001600160a01b038c811660248301528b8116604483015260648201949094526084810192909252519190921691631ededc919160a480830192600092919082900301818387803b15801561369557600080fd5b505af11580156136a9573d6000803e3d6000fd5b50600092506136b6915050565b8160e00151935093505050935093915050565b6000806000806136d98787612d29565b909250905060008260038111156136ec57fe5b146136fd5750915060009050612da3565b612d9c8186612c38565b6000613711614e81565b60008061372686670de0b6b3a7640000613e6c565b9092509050600082600381111561373957fe5b1461375857506040805160208101909152600081529092509050612655565b6000806137658388613eab565b9092509050600082600381111561377857fe5b1461379a57506040805160208101909152600081529094509250612655915050565b604080516020810190915290815260009890975095505050505050565b51670de0b6b3a7640000900490565b6000806000806137d4612a3e565b600954146137f3576137e8600a604f612770565b93509150612a399050565b6137fd3386614bc6565b905080600c54019150600c5482101561385d576040805162461bcd60e51b815260206004820181905260248201527f61646420726573657276657320756e6578706563746564206f766572666c6f77604482015290519081900360640190fd5b600c829055604080513381526020810183905280820184905290517fa91e67c5ea634cd43a12c5a482724b03de01e85ca68702a53d0c2f45cb7c1dc59181900360600190a160009350915050915091565b6011546040805163a9059cbb60e01b81526001600160a01b0385811660048301526024820185905291519190921691829163a9059cbb9160448082019260009290919082900301818387803b15801561390657600080fd5b505af115801561391a573d6000803e3d6000fd5b5050505060003d60008114613936576020811461394057600080fd5b600019915061394c565b60206000803e60005191505b508061399f576040805162461bcd60e51b815260206004820152601960248201527f544f4b454e5f5452414e534645525f4f55545f4641494c454400000000000000604482015290519081900360640190fd5b50505050565b60008215806139b2575081155b6139ed5760405162461bcd60e51b81526004018080602001828103825260348152602001806151f06034913960400191505060405180910390fd5b6139f5614f58565b6139fd6121a0565b6040830181905260208301826003811115613a1457fe5b6003811115613a1f57fe5b9052506000905081602001516003811115613a3657fe5b14613a5a57613a526009602b8360200151600381111561198357fe5b915050611151565b8315613adb576060810184905260408051602081018252908201518152613a819085612608565b6080830181905260208301826003811115613a9857fe5b6003811115613aa357fe5b9052506000905081602001516003811115613aba57fe5b14613ad657613a52600960298360200151600381111561198357fe5b613b54565b613af78360405180602001604052808460400151815250614e10565b6060830181905260208301826003811115613b0e57fe5b6003811115613b1957fe5b9052506000905081602001516003811115613b3057fe5b14613b4c57613a526009602a8360200151600381111561198357fe5b608081018390525b60055460608201516040805163eabe7d9160e01b81523060048201526001600160a01b03898116602483015260448201939093529051600093929092169163eabe7d919160648082019260209290919082900301818787803b158015613bb957600080fd5b505af1158015613bcd573d6000803e3d6000fd5b505050506040513d6020811015613be357600080fd5b505190508015613c0357613bfa6003602883612cc3565b92505050611151565b613c0b612a3e565b60095414613c1f57613bfa600a602c612770565b613c2f600d548360600151612c38565b60a0840181905260208401826003811115613c4657fe5b6003811115613c5157fe5b9052506000905082602001516003811115613c6857fe5b14613c8457613bfa6009602e8460200151600381111561198357fe5b6001600160a01b0386166000908152600e60205260409020546060830151613cac9190612c38565b60c0840181905260208401826003811115613cc357fe5b6003811115613cce57fe5b9052506000905082602001516003811115613ce557fe5b14613d0157613bfa6009602d8460200151600381111561198357fe5b8160800151613d0e61265c565b1015613d2057613bfa600e602f612770565b613d2e8683608001516138ae565b60a0820151600d5560c08201516001600160a01b0387166000818152600e602090815260409182902093909355606085015181519081529051309360008051602061510f833981519152928290030190a36080820151606080840151604080516001600160a01b038b168152602081019490945283810191909152517fe5b754fb1abb7f01b499791d0b820ae3b6af3424ac1c59768edb53f4ec31a9299281900390910190a160055460808301516060840151604080516351dff98960e01b81523060048201526001600160a01b038b81166024830152604482019490945260648101929092525191909216916351dff98991608480830192600092919082900301818387803b158015613e4157600080fd5b505af1158015613e55573d6000803e3d6000fd5b5060009250613e62915050565b9695505050505050565b60008083613e7f57506000905080612655565b83830283858281613e8c57fe5b0414613ea057506002915060009050612655565b600092509050612655565b60008082613ebf5750600190506000612655565b6000838581613eca57fe5b04915091509250929050565b60055460408051634ef4c3e160e01b81523060048201526001600160a01b03858116602483015260448201859052915160009384938493911691634ef4c3e19160648082019260209290919082900301818787803b158015613f3757600080fd5b505af1158015613f4b573d6000803e3d6000fd5b505050506040513d6020811015613f6157600080fd5b505190508015613f8557613f786003601f83612cc3565b9250600091506126559050565b613f8d612a3e565b60095414613fa157613f78600a6022612770565b613fa9614f58565b613fb16121a0565b6040830181905260208301826003811115613fc857fe5b6003811115613fd357fe5b9052506000905081602001516003811115613fea57fe5b1461401457614006600960218360200151600381111561198357fe5b935060009250612655915050565b61401e8686614bc6565b60c082018190526040805160208101825290830151815261403f9190614e10565b606083018190526020830182600381111561405657fe5b600381111561406157fe5b905250600090508160200151600381111561407857fe5b146140ca576040805162461bcd60e51b815260206004820181905260248201527f4d494e545f45584348414e47455f43414c43554c4154494f4e5f4641494c4544604482015290519081900360640190fd5b6140da600d548260600151612d29565b60808301819052602083018260038111156140f157fe5b60038111156140fc57fe5b905250600090508160200151600381111561411357fe5b1461414f5760405162461bcd60e51b81526004018080602001828103825260288152602001806151c86028913960400191505060405180910390fd5b6001600160a01b0386166000908152600e602052604090205460608201516141779190612d29565b60a083018190526020830182600381111561418e57fe5b600381111561419957fe5b90525060009050816020015160038111156141b057fe5b146141ec5760405162461bcd60e51b815260040180806020018281038252602b815260200180615073602b913960400191505060405180910390fd5b6080810151600d5560a08101516001600160a01b0387166000818152600e60209081526040918290209390935560c084015160608086015183519485529484019190915282820193909352517f4c209b5fc8ad50758f13e2e1088ba56a560dff690a1c6fef26394f4c03821c4f929181900390910190a1606081015160408051918252516001600160a01b03881691309160008051602061510f8339815191529181900360200190a360055460c08201516060830151604080516341c728b960e01b81523060048201526001600160a01b038b81166024830152604482019490945260648101929092525191909216916341c728b991608480830192600092919082900301818387803b15801561430257600080fd5b505af1158015614316573d6000803e3d6000fd5b5060009250614323915050565b8160c001519350935050509250929050565b6005546040805163368f515360e21b81523060048201526001600160a01b0385811660248301526044820185905291516000938493169163da3d454c91606480830192602092919082900301818787803b15801561439257600080fd5b505af11580156143a6573d6000803e3d6000fd5b505050506040513d60208110156143bc57600080fd5b5051905080156143db576143d36003600e83612cc3565b915050610ca9565b6143e3612a3e565b600954146143f6576143d3600a80612770565b826143ff61265c565b1015614411576143d3600e6009612770565b614419614f96565b6144228561298a565b602083018190528282600381111561443657fe5b600381111561444157fe5b905250600090508151600381111561445557fe5b1461447a57614471600960078360000151600381111561198357fe5b92505050610ca9565b614488816020015185612d29565b604083018190528282600381111561449c57fe5b60038111156144a757fe5b90525060009050815160038111156144bb57fe5b146144d7576144716009600c8360000151600381111561198357fe5b6144e3600b5485612d29565b60608301819052828260038111156144f757fe5b600381111561450257fe5b905250600090508151600381111561451657fe5b14614532576144716009600b8360000151600381111561198357fe5b61453c85856138ae565b604080820180516001600160a01b03881660008181526010602090815290859020928355600a54600190930192909255606080860151600b81905593518551928352928201899052818501929092529081019190915290517f13ed6866d4e1ee6da46f845c46d7e54120883d75c5ea9a2dacc1c4ca8984ab809181900360800190a160055460408051635c77860560e01b81523060048201526001600160a01b0388811660248301526044820188905291519190921691635c77860591606480830192600092919082900301818387803b15801561461957600080fd5b505af115801561462d573d6000803e3d6000fd5b506000925061463a915050565b95945050505050565b60055460408051632fe3f38f60e11b81523060048201526001600160a01b0384811660248301528781166044830152868116606483015260848201869052915160009384938493911691635fc7e71e9160a48082019260209290919082900301818787803b1580156146b457600080fd5b505af11580156146c8573d6000803e3d6000fd5b505050506040513d60208110156146de57600080fd5b505190508015614702576146f56003601283612cc3565b925060009150614bbd9050565b61470a612a3e565b6009541461471e576146f5600a6016612770565b614726612a3e565b846001600160a01b0316636c540baf6040518163ffffffff1660e01b815260040160206040518083038186803b15801561475f57600080fd5b505afa158015614773573d6000803e3d6000fd5b505050506040513d602081101561478957600080fd5b50511461479c576146f5600a6011612770565b866001600160a01b0316866001600160a01b031614156147c2576146f560066017612770565b846147d3576146f560076015612770565b6000198514156147e9576146f560076014612770565b6000806147f78989896132e4565b909250905081156148275761481882601081111561481157fe5b6018612770565b945060009350614bbd92505050565b6005546040805163c488847b60e01b81523060048201526001600160a01b038981166024830152604482018590528251600094859492169263c488847b926064808301939192829003018186803b15801561488157600080fd5b505afa158015614895573d6000803e3d6000fd5b505050506040513d60408110156148ab57600080fd5b508051602090910151909250905081156148f65760405162461bcd60e51b81526004018080602001828103825260338152602001806151606033913960400191505060405180910390fd5b80886001600160a01b03166370a082318c6040518263ffffffff1660e01b815260040180826001600160a01b03166001600160a01b0316815260200191505060206040518083038186803b15801561494d57600080fd5b505afa158015614961573d6000803e3d6000fd5b505050506040513d602081101561497757600080fd5b505110156149cc576040805162461bcd60e51b815260206004820152601860248201527f4c49515549444154455f5345495a455f544f4f5f4d5543480000000000000000604482015290519081900360640190fd5b60006001600160a01b0389163014156149f2576149eb308d8d85612dab565b9050614a7c565b6040805163b2a02ff160e01b81526001600160a01b038e811660048301528d81166024830152604482018590529151918b169163b2a02ff1916064808201926020929091908290030181600087803b158015614a4d57600080fd5b505af1158015614a61573d6000803e3d6000fd5b505050506040513d6020811015614a7757600080fd5b505190505b8015614ac6576040805162461bcd60e51b81526020600482015260146024820152731d1bdad95b881cd95a5e9d5c994819985a5b195960621b604482015290519081900360640190fd5b604080516001600160a01b03808f168252808e1660208301528183018790528b1660608201526080810184905290517f298637f684da70674f26509b10f07ec2fbc77a335ab1e7d6215a4b2484d8bb529181900360a00190a1600554604080516347ef3b3b60e01b81523060048201526001600160a01b038c811660248301528f811660448301528e811660648301526084820188905260a48201869052915191909216916347ef3b3b9160c480830192600092919082900301818387803b158015614b9157600080fd5b505af1158015614ba5573d6000803e3d6000fd5b5060009250614bb2915050565b975092955050505050505b94509492505050565b601154604080516370a0823160e01b815230600482015290516000926001600160a01b031691839183916370a08231916024808301926020929190829003018186803b158015614c1557600080fd5b505afa158015614c29573d6000803e3d6000fd5b505050506040513d6020811015614c3f57600080fd5b5051604080516323b872dd60e01b81526001600160a01b038881166004830152306024830152604482018890529151929350908416916323b872dd9160648082019260009290919082900301818387803b158015614c9c57600080fd5b505af1158015614cb0573d6000803e3d6000fd5b5050505060003d60008114614ccc5760208114614cd657600080fd5b6000199150614ce2565b60206000803e60005191505b5080614d35576040805162461bcd60e51b815260206004820152601860248201527f544f4b454e5f5452414e534645525f494e5f4641494c45440000000000000000604482015290519081900360640190fd5b601154604080516370a0823160e01b815230600482015290516000926001600160a01b0316916370a08231916024808301926020929190829003018186803b158015614d8057600080fd5b505afa158015614d94573d6000803e3d6000fd5b505050506040513d6020811015614daa57600080fd5b5051905082811015614e03576040805162461bcd60e51b815260206004820152601a60248201527f544f4b454e5f5452414e534645525f494e5f4f564552464c4f57000000000000604482015290519081900360640190fd5b9190910395945050505050565b6000806000614e1d614e81565b61261f86866000614e2c614e81565b600080614e41670de0b6b3a764000087613e6c565b90925090506000826003811115614e5457fe5b14614e7357506040805160208101909152600081529092509050612655565b61264e818660000151613707565b6040518060200160405280600081525090565b828054600181600116156101000203166002900490600052602060002090601f016020900481019282601f10614ed557805160ff1916838001178555614f02565b82800160010185558215614f02579182015b82811115614f02578251825591602001919060010190614ee7565b50614f0e929150614fbf565b5090565b6040805161010081019091528060008152602001600081526020016000815260200160008152602001600081526020016000815260200160008152602001600081525090565b6040805160e0810190915280600081526020016000815260200160008152602001600081526020016000815260200160008152602001600081525090565b604080516080810190915280600081526020016000815260200160008152602001600081525090565b610df191905b80821115614f0e5760008155600101614fc556fe6f6e6c792061646d696e206d617920696e697469616c697a6520746865206d61726b65746d61726b6574206d6179206f6e6c7920626520696e697469616c697a6564206f6e6365696e697469616c2065786368616e67652072617465206d7573742062652067726561746572207468616e207a65726f2e73657474696e6720696e7465726573742072617465206d6f64656c206661696c65644d494e545f4e45575f4143434f554e545f42414c414e43455f43414c43554c4154494f4e5f4641494c4544626f72726f7742616c616e636553746f7265643a20626f72726f7742616c616e636553746f726564496e7465726e616c206661696c656452455041595f424f52524f575f4e45575f4143434f554e545f424f52524f575f42414c414e43455f43414c43554c4154494f4e5f4641494c4544ddf252ad1be2c89b69c2b068fc378daa952ba7f163c4a11628f55a4df523b3ef52455041595f424f52524f575f4e45575f544f54414c5f42414c414e43455f43414c43554c4154494f4e5f4641494c45444c49515549444154455f434f4d5054524f4c4c45525f43414c43554c4154455f414d4f554e545f5345495a455f4641494c454465786368616e67655261746553746f7265643a2065786368616e67655261746553746f726564496e7465726e616c206661696c65644d494e545f4e45575f544f54414c5f535550504c595f43414c43554c4154494f4e5f4641494c45446f6e65206f662072656465656d546f6b656e73496e206f722072656465656d416d6f756e74496e206d757374206265207a65726f72656475636520726573657276657320756e657870656374656420756e646572666c6f77a265627a7a72315820cf897763cf2b9d0374a6265248838f9015d1f384d636dbcc13d367408f08190064736f6c634300050e00326f6e6c792061646d696e206d617920696e697469616c697a6520746865206d61726b65746d61726b6574206d6179206f6e6c7920626520696e697469616c697a6564206f6e6365696e697469616c2065786368616e67652072617465206d7573742062652067726561746572207468616e207a65726f2e73657474696e6720696e7465726573742072617465206d6f64656c206661696c6564",
  "source": "pragma solidity ^0.5.14;\n\nimport \"./CErc20.sol\";\n\n/**\n * @title Compound's CErc20Immutable Contract\n * @notice CTokens which wrap an EIP-20 underlying and are immutable\n * @author Compound\n */\ncontract CErc20Immutable is CErc20 {\n    /**\n     * @notice Construct a new money market\n     * @param underlying_ The address of the underlying asset\n     * @param comptroller_ The address of the Comptroller\n     * @param interestRateModel_ The address of the interest rate model\n     * @param initialExchangeRateMantissa_ The initial exchange rate, scaled by 1e18\n     * @param name_ ERC-20 name of this token\n     * @param symbol_ ERC-20 symbol of this token\n     * @param decimals_ ERC-20 decimal precision of this token\n     * @param admin_ Address of the administrator of this token\n     */\n    constructor(address underlying_,\n                ComptrollerInterface comptroller_,\n                InterestRateModel interestRateModel_,\n                uint initialExchangeRateMantissa_,\n                string memory name_,\n                string memory symbol_,\n                uint8 decimals_,\n                address payable admin_) public {\n        // Creator of the contract is admin during initialization\n        admin = msg.sender;\n\n        // Initialize the market\n        initialize(underlying_, comptroller_, interestRateModel_, initialExchangeRateMantissa_, name_, symbol_, decimals_);\n\n        // Set the proper admin now that initialization is done\n        admin = admin_;\n    }\n}\n",
  "sourcePath": "/Users/yanyichun/project/Savings/contracts/compound/contracts/CErc20Immutable.sol",
  "compiler": {
    "name": "solc",
    "version": "0.5.14+commit.01f1aaa4.Emscripten.clang"
  },
  "schemaVersion": "3.2.3",
  "updatedAt": "2021-02-25T05:55:40.403Z",
  "devdoc": {
    "author": "Compound",
    "methods": {
      "_acceptAdmin()": {
        "details": "Admin function for pending admin to accept role and update admin",
        "return": "uint 0=success, otherwise a failure (see ErrorReporter.sol for details)"
      },
      "_addReserves(uint256)": {
        "params": {
          "addAmount": "The amount fo underlying token to add as reserves"
        },
        "return": "uint 0=success, otherwise a failure (see ErrorReporter.sol for details)"
      },
      "_reduceReserves(uint256)": {
        "params": {
          "reduceAmount": "Amount of reduction to reserves"
        },
        "return": "uint 0=success, otherwise a failure (see ErrorReporter.sol for details)"
      },
      "_setComptroller(address)": {
        "details": "Admin function to set a new comptroller",
        "return": "uint 0=success, otherwise a failure (see ErrorReporter.sol for details)"
      },
      "_setInterestRateModel(address)": {
        "details": "Admin function to accrue interest and update the interest rate model",
        "params": {
          "newInterestRateModel": "the new interest rate model to use"
        },
        "return": "uint 0=success, otherwise a failure (see ErrorReporter.sol for details)"
      },
      "_setPendingAdmin(address)": {
        "details": "Admin function to begin change of admin. The newPendingAdmin must call `_acceptAdmin` to finalize the transfer.",
        "params": {
          "newPendingAdmin": "New pending admin."
        },
        "return": "uint 0=success, otherwise a failure (see ErrorReporter.sol for details)"
      },
      "_setReserveFactor(uint256)": {
        "details": "Admin function to accrue interest and set a new reserve factor",
        "return": "uint 0=success, otherwise a failure (see ErrorReporter.sol for details)"
      },
      "accrueInterest()": {
        "details": "This calculates interest accrued from the last checkpointed block  up to the current block and writes new checkpoint to storage."
      },
      "allowance(address,address)": {
        "params": {
          "owner": "The address of the account which owns the tokens to be spent",
          "spender": "The address of the account which may transfer tokens"
        },
        "return": "The number of tokens allowed to be spent (-1 means infinite)"
      },
      "approve(address,uint256)": {
        "details": "This will overwrite the approval amount for `spender` and is subject to issues noted [here](https://eips.ethereum.org/EIPS/eip-20#approve)",
        "params": {
          "amount": "The number of tokens that are approved (-1 means infinite)",
          "spender": "The address of the account which may transfer tokens"
        },
        "return": "Whether or not the approval succeeded"
      },
      "balanceOf(address)": {
        "params": {
          "owner": "The address of the account to query"
        },
        "return": "The number of tokens owned by `owner`"
      },
      "balanceOfUnderlying(address)": {
        "details": "This also accrues interest in a transaction",
        "params": {
          "owner": "The address of the account to query"
        },
        "return": "The amount of underlying owned by `owner`"
      },
      "borrow(uint256)": {
        "params": {
          "borrowAmount": "The amount of the underlying asset to borrow"
        },
        "return": "uint 0=success, otherwise a failure (see ErrorReporter.sol for details)"
      },
      "borrowBalanceCurrent(address)": {
        "params": {
          "account": "The address whose balance should be calculated after updating borrowIndex"
        },
        "return": "The calculated balance"
      },
      "borrowBalanceStored(address)": {
        "params": {
          "account": "The address whose balance should be calculated"
        },
        "return": "The calculated balance"
      },
      "borrowRatePerBlock()": {
        "return": "The borrow interest rate per block, scaled by 1e18"
      },
      "constructor": {
        "params": {
          "admin_": "Address of the administrator of this token",
          "comptroller_": "The address of the Comptroller",
          "decimals_": "ERC-20 decimal precision of this token",
          "initialExchangeRateMantissa_": "The initial exchange rate, scaled by 1e18",
          "interestRateModel_": "The address of the interest rate model",
          "name_": "ERC-20 name of this token",
          "symbol_": "ERC-20 symbol of this token",
          "underlying_": "The address of the underlying asset"
        }
      },
      "exchangeRateCurrent()": {
        "return": "Calculated exchange rate scaled by 1e18"
      },
      "exchangeRateStored()": {
        "details": "This function does not accrue interest before calculating the exchange rate",
        "return": "Calculated exchange rate scaled by 1e18"
      },
      "getAccountSnapshot(address)": {
        "details": "This is used by comptroller to more efficiently perform liquidity checks.",
        "params": {
          "account": "Address of the account to snapshot"
        },
        "return": "(possible error, token balance, borrow balance, exchange rate mantissa)"
      },
      "getCash()": {
        "return": "The quantity of underlying asset owned by this contract"
      },
      "initialize(address,address,address,uint256,string,string,uint8)": {
        "params": {
          "comptroller_": "The address of the Comptroller",
          "decimals_": "ERC-20 decimal precision of this token",
          "initialExchangeRateMantissa_": "The initial exchange rate, scaled by 1e18",
          "interestRateModel_": "The address of the interest rate model",
          "name_": "ERC-20 name of this token",
          "symbol_": "ERC-20 symbol of this token",
          "underlying_": "The address of the underlying asset"
        }
      },
      "initialize(address,address,uint256,string,string,uint8)": {
        "params": {
          "comptroller_": "The address of the Comptroller",
          "decimals_": "EIP-20 decimal precision of this token",
          "initialExchangeRateMantissa_": "The initial exchange rate, scaled by 1e18",
          "interestRateModel_": "The address of the interest rate model",
          "name_": "EIP-20 name of this token",
          "symbol_": "EIP-20 symbol of this token"
        }
      },
      "liquidateBorrow(address,uint256,address)": {
        "params": {
          "borrower": "The borrower of this cToken to be liquidated",
          "cTokenCollateral": "The market in which to seize collateral from the borrower",
          "repayAmount": "The amount of the underlying borrowed asset to repay"
        },
        "return": "uint 0=success, otherwise a failure (see ErrorReporter.sol for details)"
      },
      "mint(uint256)": {
        "details": "Accrues interest whether or not the operation succeeds, unless reverted",
        "params": {
          "mintAmount": "The amount of the underlying asset to supply"
        },
        "return": "uint 0=success, otherwise a failure (see ErrorReporter.sol for details)"
      },
      "redeem(uint256)": {
        "details": "Accrues interest whether or not the operation succeeds, unless reverted",
        "params": {
          "redeemTokens": "The number of cTokens to redeem into underlying"
        },
        "return": "uint 0=success, otherwise a failure (see ErrorReporter.sol for details)"
      },
      "redeemUnderlying(uint256)": {
        "details": "Accrues interest whether or not the operation succeeds, unless reverted",
        "params": {
          "redeemAmount": "The amount of underlying to redeem"
        },
        "return": "uint 0=success, otherwise a failure (see ErrorReporter.sol for details)"
      },
      "repayBorrow(uint256)": {
        "params": {
          "repayAmount": "The amount to repay"
        },
        "return": "uint 0=success, otherwise a failure (see ErrorReporter.sol for details)"
      },
      "repayBorrowBehalf(address,uint256)": {
        "params": {
          "borrower": "the account with the debt being payed off",
          "repayAmount": "The amount to repay"
        },
        "return": "uint 0=success, otherwise a failure (see ErrorReporter.sol for details)"
      },
      "seize(address,address,uint256)": {
        "details": "Will fail unless called by another cToken during the process of liquidation. Its absolutely critical to use msg.sender as the borrowed cToken and not a parameter.",
        "params": {
          "borrower": "The account having collateral seized",
          "liquidator": "The account receiving seized collateral",
          "seizeTokens": "The number of cTokens to seize"
        },
        "return": "uint 0=success, otherwise a failure (see ErrorReporter.sol for details)"
      },
      "supplyRatePerBlock()": {
        "return": "The supply interest rate per block, scaled by 1e18"
      },
      "totalBorrowsCurrent()": {
        "return": "The total borrows with interest"
      },
      "transfer(address,uint256)": {
        "params": {
          "amount": "The number of tokens to transfer",
          "dst": "The address of the destination account"
        },
        "return": "Whether or not the transfer succeeded"
      },
      "transferFrom(address,address,uint256)": {
        "params": {
          "amount": "The number of tokens to transfer",
          "dst": "The address of the destination account",
          "src": "The address of the source account"
        },
        "return": "Whether or not the transfer succeeded"
      }
    },
    "title": "Compound's CErc20Immutable Contract"
  },
  "userdoc": {
    "methods": {
      "_acceptAdmin()": {
        "notice": "Accepts transfer of admin rights. msg.sender must be pendingAdmin"
      },
      "_addReserves(uint256)": {
        "notice": "The sender adds to reserves."
      },
      "_reduceReserves(uint256)": {
        "notice": "Accrues interest and reduces reserves by transferring to admin"
      },
      "_setComptroller(address)": {
        "notice": "Sets a new comptroller for the market"
      },
      "_setInterestRateModel(address)": {
        "notice": "accrues interest and updates the interest rate model using _setInterestRateModelFresh"
      },
      "_setPendingAdmin(address)": {
        "notice": "Begins transfer of admin rights. The newPendingAdmin must call `_acceptAdmin` to finalize the transfer."
      },
      "_setReserveFactor(uint256)": {
        "notice": "accrues interest and sets a new reserve factor for the protocol using _setReserveFactorFresh"
      },
      "accrueInterest()": {
        "notice": "Applies accrued interest to total borrows and reserves"
      },
      "allowance(address,address)": {
        "notice": "Get the current allowance from `owner` for `spender`"
      },
      "approve(address,uint256)": {
        "notice": "Approve `spender` to transfer up to `amount` from `src`"
      },
      "balanceOf(address)": {
        "notice": "Get the token balance of the `owner`"
      },
      "balanceOfUnderlying(address)": {
        "notice": "Get the underlying balance of the `owner`"
      },
      "borrow(uint256)": {
        "notice": "Sender borrows assets from the protocol to their own address"
      },
      "borrowBalanceCurrent(address)": {
        "notice": "Accrue interest to updated borrowIndex and then calculate account's borrow balance using the updated borrowIndex"
      },
      "borrowBalanceStored(address)": {
        "notice": "Return the borrow balance of account based on stored data"
      },
      "borrowRatePerBlock()": {
        "notice": "Returns the current per-block borrow interest rate for this cToken"
      },
      "constructor": "Construct a new money market",
      "exchangeRateCurrent()": {
        "notice": "Accrue interest then return the up-to-date exchange rate"
      },
      "exchangeRateStored()": {
        "notice": "Calculates the exchange rate from the underlying to the CToken"
      },
      "getAccountSnapshot(address)": {
        "notice": "Get a snapshot of the account's balances, and the cached exchange rate"
      },
      "getCash()": {
        "notice": "Get cash balance of this cToken in the underlying asset"
      },
      "initialize(address,address,address,uint256,string,string,uint8)": {
        "notice": "Initialize the new money market"
      },
      "initialize(address,address,uint256,string,string,uint8)": {
        "notice": "Initialize the money market"
      },
      "liquidateBorrow(address,uint256,address)": {
        "notice": "The sender liquidates the borrowers collateral. The collateral seized is transferred to the liquidator."
      },
      "mint(uint256)": {
        "notice": "Sender supplies assets into the market and receives cTokens in exchange"
      },
      "redeem(uint256)": {
        "notice": "Sender redeems cTokens in exchange for the underlying asset"
      },
      "redeemUnderlying(uint256)": {
        "notice": "Sender redeems cTokens in exchange for a specified amount of underlying asset"
      },
      "repayBorrow(uint256)": {
        "notice": "Sender repays their own borrow"
      },
      "repayBorrowBehalf(address,uint256)": {
        "notice": "Sender repays a borrow belonging to borrower"
      },
      "seize(address,address,uint256)": {
        "notice": "Transfers collateral tokens (this market) to the liquidator."
      },
      "supplyRatePerBlock()": {
        "notice": "Returns the current per-block supply interest rate for this cToken"
      },
      "totalBorrowsCurrent()": {
        "notice": "Returns the current total borrows plus accrued interest"
      },
      "transfer(address,uint256)": {
        "notice": "Transfer `amount` tokens from `msg.sender` to `dst`"
      },
      "transferFrom(address,address,uint256)": {
        "notice": "Transfer `amount` tokens from `src` to `dst`"
      }
    },
    "notice": "CTokens which wrap an EIP-20 underlying and are immutable"
  }
}