{
  "contractName": "CErc20DelegateScenario",
  "abi": [
    {
      "inputs": [],
      "payable": false,
      "stateMutability": "nonpayable",
      "type": "constructor"
    },
    {
      "anonymous": false,
      "inputs": [
        {
          "indexed": false,
          "internalType": "uint256",
          "name": "cashPrior",
          "type": "uint256"
        },
        {
          "indexed": false,
          "internalType": "uint256",
          "name": "interestAccumulated",
          "type": "uint256"
        },
        {
          "indexed": false,
          "internalType": "uint256",
          "name": "borrowIndex",
          "type": "uint256"
        },
        {
          "indexed": false,
          "internalType": "uint256",
          "name": "totalBorrows",
          "type": "uint256"
        }
      ],
      "name": "AccrueInterest",
      "type": "event"
    },
    {
      "anonymous": false,
      "inputs": [
        {
          "indexed": true,
          "internalType": "address",
          "name": "owner",
          "type": "address"
        },
        {
          "indexed": true,
          "internalType": "address",
          "name": "spender",
          "type": "address"
        },
        {
          "indexed": false,
          "internalType": "uint256",
          "name": "amount",
          "type": "uint256"
        }
      ],
      "name": "Approval",
      "type": "event"
    },
    {
      "anonymous": false,
      "inputs": [
        {
          "indexed": false,
          "internalType": "address",
          "name": "borrower",
          "type": "address"
        },
        {
          "indexed": false,
          "internalType": "uint256",
          "name": "borrowAmount",
          "type": "uint256"
        },
        {
          "indexed": false,
          "internalType": "uint256",
          "name": "accountBorrows",
          "type": "uint256"
        },
        {
          "indexed": false,
          "internalType": "uint256",
          "name": "totalBorrows",
          "type": "uint256"
        }
      ],
      "name": "Borrow",
      "type": "event"
    },
    {
      "anonymous": false,
      "inputs": [
        {
          "indexed": false,
          "internalType": "uint256",
          "name": "error",
          "type": "uint256"
        },
        {
          "indexed": false,
          "internalType": "uint256",
          "name": "info",
          "type": "uint256"
        },
        {
          "indexed": false,
          "internalType": "uint256",
          "name": "detail",
          "type": "uint256"
        }
      ],
      "name": "Failure",
      "type": "event"
    },
    {
      "anonymous": false,
      "inputs": [
        {
          "indexed": false,
          "internalType": "address",
          "name": "liquidator",
          "type": "address"
        },
        {
          "indexed": false,
          "internalType": "address",
          "name": "borrower",
          "type": "address"
        },
        {
          "indexed": false,
          "internalType": "uint256",
          "name": "repayAmount",
          "type": "uint256"
        },
        {
          "indexed": false,
          "internalType": "address",
          "name": "cTokenCollateral",
          "type": "address"
        },
        {
          "indexed": false,
          "internalType": "uint256",
          "name": "seizeTokens",
          "type": "uint256"
        }
      ],
      "name": "LiquidateBorrow",
      "type": "event"
    },
    {
      "anonymous": false,
      "inputs": [
        {
          "indexed": false,
          "internalType": "address",
          "name": "minter",
          "type": "address"
        },
        {
          "indexed": false,
          "internalType": "uint256",
          "name": "mintAmount",
          "type": "uint256"
        },
        {
          "indexed": false,
          "internalType": "uint256",
          "name": "mintTokens",
          "type": "uint256"
        }
      ],
      "name": "Mint",
      "type": "event"
    },
    {
      "anonymous": false,
      "inputs": [
        {
          "indexed": false,
          "internalType": "address",
          "name": "oldAdmin",
          "type": "address"
        },
        {
          "indexed": false,
          "internalType": "address",
          "name": "newAdmin",
          "type": "address"
        }
      ],
      "name": "NewAdmin",
      "type": "event"
    },
    {
      "anonymous": false,
      "inputs": [
        {
          "indexed": false,
          "internalType": "contract ComptrollerInterface",
          "name": "oldComptroller",
          "type": "address"
        },
        {
          "indexed": false,
          "internalType": "contract ComptrollerInterface",
          "name": "newComptroller",
          "type": "address"
        }
      ],
      "name": "NewComptroller",
      "type": "event"
    },
    {
      "anonymous": false,
      "inputs": [
        {
          "indexed": false,
          "internalType": "contract InterestRateModel",
          "name": "oldInterestRateModel",
          "type": "address"
        },
        {
          "indexed": false,
          "internalType": "contract InterestRateModel",
          "name": "newInterestRateModel",
          "type": "address"
        }
      ],
      "name": "NewMarketInterestRateModel",
      "type": "event"
    },
    {
      "anonymous": false,
      "inputs": [
        {
          "indexed": false,
          "internalType": "address",
          "name": "oldPendingAdmin",
          "type": "address"
        },
        {
          "indexed": false,
          "internalType": "address",
          "name": "newPendingAdmin",
          "type": "address"
        }
      ],
      "name": "NewPendingAdmin",
      "type": "event"
    },
    {
      "anonymous": false,
      "inputs": [
        {
          "indexed": false,
          "internalType": "uint256",
          "name": "oldReserveFactorMantissa",
          "type": "uint256"
        },
        {
          "indexed": false,
          "internalType": "uint256",
          "name": "newReserveFactorMantissa",
          "type": "uint256"
        }
      ],
      "name": "NewReserveFactor",
      "type": "event"
    },
    {
      "anonymous": false,
      "inputs": [
        {
          "indexed": false,
          "internalType": "address",
          "name": "redeemer",
          "type": "address"
        },
        {
          "indexed": false,
          "internalType": "uint256",
          "name": "redeemAmount",
          "type": "uint256"
        },
        {
          "indexed": false,
          "internalType": "uint256",
          "name": "redeemTokens",
          "type": "uint256"
        }
      ],
      "name": "Redeem",
      "type": "event"
    },
    {
      "anonymous": false,
      "inputs": [
        {
          "indexed": false,
          "internalType": "address",
          "name": "payer",
          "type": "address"
        },
        {
          "indexed": false,
          "internalType": "address",
          "name": "borrower",
          "type": "address"
        },
        {
          "indexed": false,
          "internalType": "uint256",
          "name": "repayAmount",
          "type": "uint256"
        },
        {
          "indexed": false,
          "internalType": "uint256",
          "name": "accountBorrows",
          "type": "uint256"
        },
        {
          "indexed": false,
          "internalType": "uint256",
          "name": "totalBorrows",
          "type": "uint256"
        }
      ],
      "name": "RepayBorrow",
      "type": "event"
    },
    {
      "anonymous": false,
      "inputs": [
        {
          "indexed": false,
          "internalType": "address",
          "name": "benefactor",
          "type": "address"
        },
        {
          "indexed": false,
          "internalType": "uint256",
          "name": "addAmount",
          "type": "uint256"
        },
        {
          "indexed": false,
          "internalType": "uint256",
          "name": "newTotalReserves",
          "type": "uint256"
        }
      ],
      "name": "ReservesAdded",
      "type": "event"
    },
    {
      "anonymous": false,
      "inputs": [
        {
          "indexed": false,
          "internalType": "address",
          "name": "admin",
          "type": "address"
        },
        {
          "indexed": false,
          "internalType": "uint256",
          "name": "reduceAmount",
          "type": "uint256"
        },
        {
          "indexed": false,
          "internalType": "uint256",
          "name": "newTotalReserves",
          "type": "uint256"
        }
      ],
      "name": "ReservesReduced",
      "type": "event"
    },
    {
      "anonymous": false,
      "inputs": [
        {
          "indexed": true,
          "internalType": "address",
          "name": "from",
          "type": "address"
        },
        {
          "indexed": true,
          "internalType": "address",
          "name": "to",
          "type": "address"
        },
        {
          "indexed": false,
          "internalType": "uint256",
          "name": "amount",
          "type": "uint256"
        }
      ],
      "name": "Transfer",
      "type": "event"
    },
    {
      "constant": false,
      "inputs": [],
      "name": "_acceptAdmin",
      "outputs": [
        {
          "internalType": "uint256",
          "name": "",
          "type": "uint256"
        }
      ],
      "payable": false,
      "stateMutability": "nonpayable",
      "type": "function"
    },
    {
      "constant": false,
      "inputs": [
        {
          "internalType": "uint256",
          "name": "addAmount",
          "type": "uint256"
        }
      ],
      "name": "_addReserves",
      "outputs": [
        {
          "internalType": "uint256",
          "name": "",
          "type": "uint256"
        }
      ],
      "payable": false,
      "stateMutability": "nonpayable",
      "type": "function"
    },
    {
      "constant": false,
      "inputs": [
        {
          "internalType": "bytes",
          "name": "data",
          "type": "bytes"
        }
      ],
      "name": "_becomeImplementation",
      "outputs": [],
      "payable": false,
      "stateMutability": "nonpayable",
      "type": "function"
    },
    {
      "constant": false,
      "inputs": [
        {
          "internalType": "uint256",
          "name": "reduceAmount",
          "type": "uint256"
        }
      ],
      "name": "_reduceReserves",
      "outputs": [
        {
          "internalType": "uint256",
          "name": "",
          "type": "uint256"
        }
      ],
      "payable": false,
      "stateMutability": "nonpayable",
      "type": "function"
    },
    {
      "constant": false,
      "inputs": [],
      "name": "_resignImplementation",
      "outputs": [],
      "payable": false,
      "stateMutability": "nonpayable",
      "type": "function"
    },
    {
      "constant": false,
      "inputs": [
        {
          "internalType": "contract ComptrollerInterface",
          "name": "newComptroller",
          "type": "address"
        }
      ],
      "name": "_setComptroller",
      "outputs": [
        {
          "internalType": "uint256",
          "name": "",
          "type": "uint256"
        }
      ],
      "payable": false,
      "stateMutability": "nonpayable",
      "type": "function"
    },
    {
      "constant": false,
      "inputs": [
        {
          "internalType": "contract InterestRateModel",
          "name": "newInterestRateModel",
          "type": "address"
        }
      ],
      "name": "_setInterestRateModel",
      "outputs": [
        {
          "internalType": "uint256",
          "name": "",
          "type": "uint256"
        }
      ],
      "payable": false,
      "stateMutability": "nonpayable",
      "type": "function"
    },
    {
      "constant": false,
      "inputs": [
        {
          "internalType": "address payable",
          "name": "newPendingAdmin",
          "type": "address"
        }
      ],
      "name": "_setPendingAdmin",
      "outputs": [
        {
          "internalType": "uint256",
          "name": "",
          "type": "uint256"
        }
      ],
      "payable": false,
      "stateMutability": "nonpayable",
      "type": "function"
    },
    {
      "constant": false,
      "inputs": [
        {
          "internalType": "uint256",
          "name": "newReserveFactorMantissa",
          "type": "uint256"
        }
      ],
      "name": "_setReserveFactor",
      "outputs": [
        {
          "internalType": "uint256",
          "name": "",
          "type": "uint256"
        }
      ],
      "payable": false,
      "stateMutability": "nonpayable",
      "type": "function"
    },
    {
      "constant": true,
      "inputs": [],
      "name": "accrualBlockNumber",
      "outputs": [
        {
          "internalType": "uint256",
          "name": "",
          "type": "uint256"
        }
      ],
      "payable": false,
      "stateMutability": "view",
      "type": "function"
    },
    {
      "constant": false,
      "inputs": [],
      "name": "accrueInterest",
      "outputs": [
        {
          "internalType": "uint256",
          "name": "",
          "type": "uint256"
        }
      ],
      "payable": false,
      "stateMutability": "nonpayable",
      "type": "function"
    },
    {
      "constant": true,
      "inputs": [],
      "name": "admin",
      "outputs": [
        {
          "internalType": "address payable",
          "name": "",
          "type": "address"
        }
      ],
      "payable": false,
      "stateMutability": "view",
      "type": "function"
    },
    {
      "constant": true,
      "inputs": [
        {
          "internalType": "address",
          "name": "owner",
          "type": "address"
        },
        {
          "internalType": "address",
          "name": "spender",
          "type": "address"
        }
      ],
      "name": "allowance",
      "outputs": [
        {
          "internalType": "uint256",
          "name": "",
          "type": "uint256"
        }
      ],
      "payable": false,
      "stateMutability": "view",
      "type": "function"
    },
    {
      "constant": false,
      "inputs": [
        {
          "internalType": "address",
          "name": "spender",
          "type": "address"
        },
        {
          "internalType": "uint256",
          "name": "amount",
          "type": "uint256"
        }
      ],
      "name": "approve",
      "outputs": [
        {
          "internalType": "bool",
          "name": "",
          "type": "bool"
        }
      ],
      "payable": false,
      "stateMutability": "nonpayable",
      "type": "function"
    },
    {
      "constant": true,
      "inputs": [
        {
          "internalType": "address",
          "name": "owner",
          "type": "address"
        }
      ],
      "name": "balanceOf",
      "outputs": [
        {
          "internalType": "uint256",
          "name": "",
          "type": "uint256"
        }
      ],
      "payable": false,
      "stateMutability": "view",
      "type": "function"
    },
    {
      "constant": false,
      "inputs": [
        {
          "internalType": "address",
          "name": "owner",
          "type": "address"
        }
      ],
      "name": "balanceOfUnderlying",
      "outputs": [
        {
          "internalType": "uint256",
          "name": "",
          "type": "uint256"
        }
      ],
      "payable": false,
      "stateMutability": "nonpayable",
      "type": "function"
    },
    {
      "constant": false,
      "inputs": [
        {
          "internalType": "uint256",
          "name": "borrowAmount",
          "type": "uint256"
        }
      ],
      "name": "borrow",
      "outputs": [
        {
          "internalType": "uint256",
          "name": "",
          "type": "uint256"
        }
      ],
      "payable": false,
      "stateMutability": "nonpayable",
      "type": "function"
    },
    {
      "constant": false,
      "inputs": [
        {
          "internalType": "address",
          "name": "account",
          "type": "address"
        }
      ],
      "name": "borrowBalanceCurrent",
      "outputs": [
        {
          "internalType": "uint256",
          "name": "",
          "type": "uint256"
        }
      ],
      "payable": false,
      "stateMutability": "nonpayable",
      "type": "function"
    },
    {
      "constant": true,
      "inputs": [
        {
          "internalType": "address",
          "name": "account",
          "type": "address"
        }
      ],
      "name": "borrowBalanceStored",
      "outputs": [
        {
          "internalType": "uint256",
          "name": "",
          "type": "uint256"
        }
      ],
      "payable": false,
      "stateMutability": "view",
      "type": "function"
    },
    {
      "constant": true,
      "inputs": [],
      "name": "borrowIndex",
      "outputs": [
        {
          "internalType": "uint256",
          "name": "",
          "type": "uint256"
        }
      ],
      "payable": false,
      "stateMutability": "view",
      "type": "function"
    },
    {
      "constant": true,
      "inputs": [],
      "name": "borrowRatePerBlock",
      "outputs": [
        {
          "internalType": "uint256",
          "name": "",
          "type": "uint256"
        }
      ],
      "payable": false,
      "stateMutability": "view",
      "type": "function"
    },
    {
      "constant": true,
      "inputs": [],
      "name": "comptroller",
      "outputs": [
        {
          "internalType": "contract ComptrollerInterface",
          "name": "",
          "type": "address"
        }
      ],
      "payable": false,
      "stateMutability": "view",
      "type": "function"
    },
    {
      "constant": true,
      "inputs": [],
      "name": "decimals",
      "outputs": [
        {
          "internalType": "uint8",
          "name": "",
          "type": "uint8"
        }
      ],
      "payable": false,
      "stateMutability": "view",
      "type": "function"
    },
    {
      "constant": false,
      "inputs": [],
      "name": "exchangeRateCurrent",
      "outputs": [
        {
          "internalType": "uint256",
          "name": "",
          "type": "uint256"
        }
      ],
      "payable": false,
      "stateMutability": "nonpayable",
      "type": "function"
    },
    {
      "constant": true,
      "inputs": [],
      "name": "exchangeRateStored",
      "outputs": [
        {
          "internalType": "uint256",
          "name": "",
          "type": "uint256"
        }
      ],
      "payable": false,
      "stateMutability": "view",
      "type": "function"
    },
    {
      "constant": true,
      "inputs": [
        {
          "internalType": "address",
          "name": "account",
          "type": "address"
        }
      ],
      "name": "getAccountSnapshot",
      "outputs": [
        {
          "internalType": "uint256",
          "name": "",
          "type": "uint256"
        },
        {
          "internalType": "uint256",
          "name": "",
          "type": "uint256"
        },
        {
          "internalType": "uint256",
          "name": "",
          "type": "uint256"
        },
        {
          "internalType": "uint256",
          "name": "",
          "type": "uint256"
        }
      ],
      "payable": false,
      "stateMutability": "view",
      "type": "function"
    },
    {
      "constant": true,
      "inputs": [],
      "name": "getCash",
      "outputs": [
        {
          "internalType": "uint256",
          "name": "",
          "type": "uint256"
        }
      ],
      "payable": false,
      "stateMutability": "view",
      "type": "function"
    },
    {
      "constant": true,
      "inputs": [],
      "name": "implementation",
      "outputs": [
        {
          "internalType": "address",
          "name": "",
          "type": "address"
        }
      ],
      "payable": false,
      "stateMutability": "view",
      "type": "function"
    },
    {
      "constant": false,
      "inputs": [
        {
          "internalType": "address",
          "name": "underlying_",
          "type": "address"
        },
        {
          "internalType": "contract ComptrollerInterface",
          "name": "comptroller_",
          "type": "address"
        },
        {
          "internalType": "contract InterestRateModel",
          "name": "interestRateModel_",
          "type": "address"
        },
        {
          "internalType": "uint256",
          "name": "initialExchangeRateMantissa_",
          "type": "uint256"
        },
        {
          "internalType": "string",
          "name": "name_",
          "type": "string"
        },
        {
          "internalType": "string",
          "name": "symbol_",
          "type": "string"
        },
        {
          "internalType": "uint8",
          "name": "decimals_",
          "type": "uint8"
        }
      ],
      "name": "initialize",
      "outputs": [],
      "payable": false,
      "stateMutability": "nonpayable",
      "type": "function"
    },
    {
      "constant": false,
      "inputs": [
        {
          "internalType": "contract ComptrollerInterface",
          "name": "comptroller_",
          "type": "address"
        },
        {
          "internalType": "contract InterestRateModel",
          "name": "interestRateModel_",
          "type": "address"
        },
        {
          "internalType": "uint256",
          "name": "initialExchangeRateMantissa_",
          "type": "uint256"
        },
        {
          "internalType": "string",
          "name": "name_",
          "type": "string"
        },
        {
          "internalType": "string",
          "name": "symbol_",
          "type": "string"
        },
        {
          "internalType": "uint8",
          "name": "decimals_",
          "type": "uint8"
        }
      ],
      "name": "initialize",
      "outputs": [],
      "payable": false,
      "stateMutability": "nonpayable",
      "type": "function"
    },
    {
      "constant": true,
      "inputs": [],
      "name": "interestRateModel",
      "outputs": [
        {
          "internalType": "contract InterestRateModel",
          "name": "",
          "type": "address"
        }
      ],
      "payable": false,
      "stateMutability": "view",
      "type": "function"
    },
    {
      "constant": true,
      "inputs": [],
      "name": "isCToken",
      "outputs": [
        {
          "internalType": "bool",
          "name": "",
          "type": "bool"
        }
      ],
      "payable": false,
      "stateMutability": "view",
      "type": "function"
    },
    {
      "constant": false,
      "inputs": [
        {
          "internalType": "address",
          "name": "borrower",
          "type": "address"
        },
        {
          "internalType": "uint256",
          "name": "repayAmount",
          "type": "uint256"
        },
        {
          "internalType": "contract CTokenInterface",
          "name": "cTokenCollateral",
          "type": "address"
        }
      ],
      "name": "liquidateBorrow",
      "outputs": [
        {
          "internalType": "uint256",
          "name": "",
          "type": "uint256"
        }
      ],
      "payable": false,
      "stateMutability": "nonpayable",
      "type": "function"
    },
    {
      "constant": false,
      "inputs": [
        {
          "internalType": "uint256",
          "name": "mintAmount",
          "type": "uint256"
        }
      ],
      "name": "mint",
      "outputs": [
        {
          "internalType": "uint256",
          "name": "",
          "type": "uint256"
        }
      ],
      "payable": false,
      "stateMutability": "nonpayable",
      "type": "function"
    },
    {
      "constant": true,
      "inputs": [],
      "name": "name",
      "outputs": [
        {
          "internalType": "string",
          "name": "",
          "type": "string"
        }
      ],
      "payable": false,
      "stateMutability": "view",
      "type": "function"
    },
    {
      "constant": true,
      "inputs": [],
      "name": "pendingAdmin",
      "outputs": [
        {
          "internalType": "address payable",
          "name": "",
          "type": "address"
        }
      ],
      "payable": false,
      "stateMutability": "view",
      "type": "function"
    },
    {
      "constant": false,
      "inputs": [
        {
          "internalType": "uint256",
          "name": "redeemTokens",
          "type": "uint256"
        }
      ],
      "name": "redeem",
      "outputs": [
        {
          "internalType": "uint256",
          "name": "",
          "type": "uint256"
        }
      ],
      "payable": false,
      "stateMutability": "nonpayable",
      "type": "function"
    },
    {
      "constant": false,
      "inputs": [
        {
          "internalType": "uint256",
          "name": "redeemAmount",
          "type": "uint256"
        }
      ],
      "name": "redeemUnderlying",
      "outputs": [
        {
          "internalType": "uint256",
          "name": "",
          "type": "uint256"
        }
      ],
      "payable": false,
      "stateMutability": "nonpayable",
      "type": "function"
    },
    {
      "constant": false,
      "inputs": [
        {
          "internalType": "uint256",
          "name": "repayAmount",
          "type": "uint256"
        }
      ],
      "name": "repayBorrow",
      "outputs": [
        {
          "internalType": "uint256",
          "name": "",
          "type": "uint256"
        }
      ],
      "payable": false,
      "stateMutability": "nonpayable",
      "type": "function"
    },
    {
      "constant": false,
      "inputs": [
        {
          "internalType": "address",
          "name": "borrower",
          "type": "address"
        },
        {
          "internalType": "uint256",
          "name": "repayAmount",
          "type": "uint256"
        }
      ],
      "name": "repayBorrowBehalf",
      "outputs": [
        {
          "internalType": "uint256",
          "name": "",
          "type": "uint256"
        }
      ],
      "payable": false,
      "stateMutability": "nonpayable",
      "type": "function"
    },
    {
      "constant": true,
      "inputs": [],
      "name": "reserveFactorMantissa",
      "outputs": [
        {
          "internalType": "uint256",
          "name": "",
          "type": "uint256"
        }
      ],
      "payable": false,
      "stateMutability": "view",
      "type": "function"
    },
    {
      "constant": false,
      "inputs": [
        {
          "internalType": "address",
          "name": "liquidator",
          "type": "address"
        },
        {
          "internalType": "address",
          "name": "borrower",
          "type": "address"
        },
        {
          "internalType": "uint256",
          "name": "seizeTokens",
          "type": "uint256"
        }
      ],
      "name": "seize",
      "outputs": [
        {
          "internalType": "uint256",
          "name": "",
          "type": "uint256"
        }
      ],
      "payable": false,
      "stateMutability": "nonpayable",
      "type": "function"
    },
    {
      "constant": true,
      "inputs": [],
      "name": "supplyRatePerBlock",
      "outputs": [
        {
          "internalType": "uint256",
          "name": "",
          "type": "uint256"
        }
      ],
      "payable": false,
      "stateMutability": "view",
      "type": "function"
    },
    {
      "constant": true,
      "inputs": [],
      "name": "symbol",
      "outputs": [
        {
          "internalType": "string",
          "name": "",
          "type": "string"
        }
      ],
      "payable": false,
      "stateMutability": "view",
      "type": "function"
    },
    {
      "constant": true,
      "inputs": [],
      "name": "totalBorrows",
      "outputs": [
        {
          "internalType": "uint256",
          "name": "",
          "type": "uint256"
        }
      ],
      "payable": false,
      "stateMutability": "view",
      "type": "function"
    },
    {
      "constant": false,
      "inputs": [],
      "name": "totalBorrowsCurrent",
      "outputs": [
        {
          "internalType": "uint256",
          "name": "",
          "type": "uint256"
        }
      ],
      "payable": false,
      "stateMutability": "nonpayable",
      "type": "function"
    },
    {
      "constant": true,
      "inputs": [],
      "name": "totalReserves",
      "outputs": [
        {
          "internalType": "uint256",
          "name": "",
          "type": "uint256"
        }
      ],
      "payable": false,
      "stateMutability": "view",
      "type": "function"
    },
    {
      "constant": true,
      "inputs": [],
      "name": "totalSupply",
      "outputs": [
        {
          "internalType": "uint256",
          "name": "",
          "type": "uint256"
        }
      ],
      "payable": false,
      "stateMutability": "view",
      "type": "function"
    },
    {
      "constant": false,
      "inputs": [
        {
          "internalType": "address",
          "name": "dst",
          "type": "address"
        },
        {
          "internalType": "uint256",
          "name": "amount",
          "type": "uint256"
        }
      ],
      "name": "transfer",
      "outputs": [
        {
          "internalType": "bool",
          "name": "",
          "type": "bool"
        }
      ],
      "payable": false,
      "stateMutability": "nonpayable",
      "type": "function"
    },
    {
      "constant": false,
      "inputs": [
        {
          "internalType": "address",
          "name": "src",
          "type": "address"
        },
        {
          "internalType": "address",
          "name": "dst",
          "type": "address"
        },
        {
          "internalType": "uint256",
          "name": "amount",
          "type": "uint256"
        }
      ],
      "name": "transferFrom",
      "outputs": [
        {
          "internalType": "bool",
          "name": "",
          "type": "bool"
        }
      ],
      "payable": false,
      "stateMutability": "nonpayable",
      "type": "function"
    },
    {
      "constant": true,
      "inputs": [],
      "name": "underlying",
      "outputs": [
        {
          "internalType": "address",
          "name": "",
          "type": "address"
        }
      ],
      "payable": false,
      "stateMutability": "view",
      "type": "function"
    },
    {
      "constant": false,
      "inputs": [
        {
          "internalType": "uint256",
          "name": "totalBorrows_",
          "type": "uint256"
        }
      ],
      "name": "setTotalBorrows",
      "outputs": [],
      "payable": false,
      "stateMutability": "nonpayable",
      "type": "function"
    },
    {
      "constant": false,
      "inputs": [
        {
          "internalType": "uint256",
          "name": "totalReserves_",
          "type": "uint256"
        }
      ],
      "name": "setTotalReserves",
      "outputs": [],
      "payable": false,
      "stateMutability": "nonpayable",
      "type": "function"
    },
    {
      "constant": true,
      "inputs": [
        {
          "internalType": "address",
          "name": "account",
          "type": "address"
        }
      ],
      "name": "toString",
      "outputs": [
        {
          "internalType": "string",
          "name": "",
          "type": "string"
        }
      ],
      "payable": false,
      "stateMutability": "pure",
      "type": "function"
    },
    {
      "constant": true,
      "inputs": [
        {
          "internalType": "uint256",
          "name": "value",
          "type": "uint256"
        }
      ],
      "name": "toString",
      "outputs": [
        {
          "internalType": "string",
          "name": "",
          "type": "string"
        }
      ],
      "payable": false,
      "stateMutability": "pure",
      "type": "function"
    },
    {
      "constant": true,
      "inputs": [
        {
          "internalType": "bytes",
          "name": "data",
          "type": "bytes"
        }
      ],
      "name": "toString",
      "outputs": [
        {
          "internalType": "string",
          "name": "",
          "type": "string"
        }
      ],
      "payable": false,
      "stateMutability": "pure",
      "type": "function"
    },
    {
      "constant": true,
      "inputs": [
        {
          "internalType": "bytes32",
          "name": "value",
          "type": "bytes32"
        }
      ],
      "name": "toString",
      "outputs": [
        {
          "internalType": "string",
          "name": "",
          "type": "string"
        }
      ],
      "payable": false,
      "stateMutability": "pure",
      "type": "function"
    }
  ],
  "bytecode": "0x608060405234801561001057600080fd5b50615539806100206000396000f3fe608060405234801561001057600080fd5b50600436106103835760003560e01c806373acee98116101de578063b2a02ff11161010f578063e9c714f2116100ad578063f851a4401161007c578063f851a44014610ce5578063f8f9da2814610ced578063fca7820b14610cf5578063fe9c44ae14610d1257610383565b8063e9c714f214610c79578063f2b3abbd14610c81578063f3fdb15a14610ca7578063f5e3c46214610caf57610383565b8063c37f68e2116100e9578063c37f68e214610bc5578063c5ebeaec14610c11578063db006a7514610c2e578063dd62ed3e14610c4b57610383565b8063b2a02ff114610b61578063b71d1a0c14610b97578063bd6d894d14610bbd57610383565b8063a0712d681161017c578063aa5af0fd11610156578063aa5af0fd14610b34578063ae9d70b014610b3c578063b0e0bf2a14610b44578063b11a19e81461082657610383565b8063a0712d6814610ae3578063a6afed9514610b00578063a9059cbb14610b0857610383565b806395d89b41116101b857806395d89b411461094a57806395dd919314610952578063977e19e91461097857806399d8c1b41461099557610383565b806373acee981461091d578063852a12e3146109255780638f840ddd1461094257610383565b80633b1d21a2116102b85780635fe3b567116102565780636c540baf116102305780636c540baf146108435780636f307dc31461084b57806370a082311461085357806371aad10d1461087957610383565b80635fe3b56714610801578063601a0bf1146108095780636900a3ae1461082657610383565b806347bd37181161029257806347bd37181461072757806356ca623e1461072f57806356e67728146107555780635c60da1b146107f957610383565b80633b1d21a2146106dc5780633e941010146106e45780634576b5db1461070157610383565b8063182df0f5116103255780632608f818116102ff5780632608f818146106485780632678224714610674578063313ce567146106985780633af9e669146106b657610383565b8063182df0f5146104b45780631a31d465146104bc57806323b872dd1461061257610383565b8063153ab50511610361578063153ab50514610474578063173b99041461047e57806317bfdfbc1461048657806318160ddd146104ac57610383565b806306fdde0314610388578063095ea7b3146104055780630e75270214610445575b600080fd5b610390610d1a565b6040805160208082528351818301528351919283929083019185019080838360005b838110156103ca5781810151838201526020016103b2565b50505050905090810190601f1680156103f75780820380516001836020036101000a031916815260200191505b509250505060405180910390f35b6104316004803603604081101561041b57600080fd5b506001600160a01b038135169060200135610da7565b604080519115158252519081900360200190f35b6104626004803603602081101561045b57600080fd5b5035610e14565b60408051918252519081900360200190f35b61047c610e2a565b005b610462610e7a565b6104626004803603602081101561049c57600080fd5b50356001600160a01b0316610e80565b610462610f40565b610462610f46565b61047c600480360360e08110156104d257600080fd5b6001600160a01b03823581169260208101358216926040820135909216916060820135919081019060a081016080820135600160201b81111561051457600080fd5b82018360208201111561052657600080fd5b803590602001918460018302840111600160201b8311171561054757600080fd5b91908080601f0160208091040260200160405190810160405280939291908181526020018383808284376000920191909152509295949360208101935035915050600160201b81111561059957600080fd5b8201836020820111156105ab57600080fd5b803590602001918460018302840111600160201b831117156105cc57600080fd5b91908080601f0160208091040260200160405190810160405280939291908181526020018383808284376000920191909152509295505050903560ff169150610fa99050565b6104316004803603606081101561062857600080fd5b506001600160a01b03813581169160208101359091169060400135611048565b6104626004803603604081101561065e57600080fd5b506001600160a01b0381351690602001356110ba565b61067c6110d0565b604080516001600160a01b039092168252519081900360200190f35b6106a06110df565b6040805160ff9092168252519081900360200190f35b610462600480360360208110156106cc57600080fd5b50356001600160a01b03166110e8565b61046261119e565b610462600480360360208110156106fa57600080fd5b50356111ad565b6104626004803603602081101561071757600080fd5b50356001600160a01b03166111b8565b61046261130d565b6103906004803603602081101561074557600080fd5b50356001600160a01b0316611313565b61047c6004803603602081101561076b57600080fd5b810190602081018135600160201b81111561078557600080fd5b82018360208201111561079757600080fd5b803590602001918460018302840111600160201b831117156107b857600080fd5b91908080601f016020809104026020016040519081016040528093929190818152602001838380828437600092019190915250929550611352945050505050565b61067c6113a3565b61067c6113b2565b6104626004803603602081101561081f57600080fd5b50356113c1565b6103906004803603602081101561083c57600080fd5b503561145c565b610462611486565b61067c61148c565b6104626004803603602081101561086957600080fd5b50356001600160a01b031661149b565b6103906004803603602081101561088f57600080fd5b810190602081018135600160201b8111156108a957600080fd5b8201836020820111156108bb57600080fd5b803590602001918460018302840111600160201b831117156108dc57600080fd5b91908080601f0160208091040260200160405190810160405280939291908181526020018383808284376000920191909152509295506114b6945050505050565b610462611641565b6104626004803603602081101561093b57600080fd5b50356116f7565b610462611702565b610390611708565b6104626004803603602081101561096857600080fd5b50356001600160a01b0316611760565b61047c6004803603602081101561098e57600080fd5b50356117bd565b61047c600480360360c08110156109ab57600080fd5b6001600160a01b03823581169260208101359091169160408201359190810190608081016060820135600160201b8111156109e557600080fd5b8201836020820111156109f757600080fd5b803590602001918460018302840111600160201b83111715610a1857600080fd5b91908080601f0160208091040260200160405190810160405280939291908181526020018383808284376000920191909152509295949360208101935035915050600160201b811115610a6a57600080fd5b820183602082011115610a7c57600080fd5b803590602001918460018302840111600160201b83111715610a9d57600080fd5b91908080601f0160208091040260200160405190810160405280939291908181526020018383808284376000920191909152509295505050903560ff1691506117c29050565b61046260048036036020811015610af957600080fd5b50356119a9565b6104626119b5565b61043160048036036040811015610b1e57600080fd5b506001600160a01b038135169060200135611d0d565b610462611d7e565b610462611d84565b61047c60048036036020811015610b5a57600080fd5b5035611e23565b61046260048036036060811015610b7757600080fd5b506001600160a01b03813581169160208101359091169060400135611e28565b61046260048036036020811015610bad57600080fd5b50356001600160a01b0316611e99565b610462611f25565b610beb60048036036020811015610bdb57600080fd5b50356001600160a01b0316611fe1565b604080519485526020850193909352838301919091526060830152519081900360800190f35b61046260048036036020811015610c2757600080fd5b5035612076565b61046260048036036020811015610c4457600080fd5b5035612081565b61046260048036036040811015610c6157600080fd5b506001600160a01b038135811691602001351661208c565b6104626120b7565b61046260048036036020811015610c9757600080fd5b50356001600160a01b03166121ba565b61067c6121f4565b61046260048036036060811015610cc557600080fd5b506001600160a01b03813581169160208101359160409091013516612203565b61067c61221b565b61046261222f565b61046260048036036020811015610d0b57600080fd5b5035612293565b610431612311565b60018054604080516020600284861615610100026000190190941693909304601f81018490048402820184019092528181529291830182828015610d9f5780601f10610d7457610100808354040283529160200191610d9f565b820191906000526020600020905b815481529060010190602001808311610d8257829003601f168201915b505050505081565b336000818152600f602090815260408083206001600160a01b03871680855290835281842086905581518681529151939493909284927f8c5be1e5ebec7d5bd14f71427d1e84f3dd0314c0f7b2291e5b200ac8c7c3b925929081900390910190a360019150505b92915050565b600080610e2083612316565b509150505b919050565b60035461010090046001600160a01b03163314610e785760405162461bcd60e51b815260040180806020018281038252602d8152602001806152d6602d913960400191505060405180910390fd5b565b60085481565b6000805460ff16610ec5576040805162461bcd60e51b815260206004820152600a6024820152691c994b595b9d195c995960b21b604482015290519081900360640190fd5b6000805460ff19168155610ed76119b5565b14610f22576040805162461bcd60e51b81526020600482015260166024820152751858d8dc9d59481a5b9d195c995cdd0819985a5b195960521b604482015290519081900360640190fd5b610f2b82611760565b90505b6000805460ff19166001179055919050565b600d5481565b6000806000610f536123bf565b90925090506000826003811115610f6657fe5b14610fa25760405162461bcd60e51b81526004018080602001828103825260358152602001806154236035913960400191505060405180910390fd5b9150505b90565b610fb78686868686866117c2565b601180546001600160a01b0319166001600160a01b038981169190911791829055604080516318160ddd60e01b8152905192909116916318160ddd91600480820192602092909190829003018186803b15801561101357600080fd5b505afa158015611027573d6000803e3d6000fd5b505050506040513d602081101561103d57600080fd5b505050505050505050565b6000805460ff1661108d576040805162461bcd60e51b815260206004820152600a6024820152691c994b595b9d195c995960b21b604482015290519081900360640190fd5b6000805460ff191681556110a33386868661246e565b1490506000805460ff191660011790559392505050565b6000806110c7848461277c565b50949350505050565b6004546001600160a01b031681565b60035460ff1681565b60006110f26150e4565b6040518060200160405280611105611f25565b90526001600160a01b0384166000908152600e6020526040812054919250908190611131908490612827565b9092509050600082600381111561114457fe5b14611196576040805162461bcd60e51b815260206004820152601f60248201527f62616c616e636520636f756c64206e6f742062652063616c63756c6174656400604482015290519081900360640190fd5b949350505050565b60006111a861287b565b905090565b6000610e0e826128fb565b60035460009061010090046001600160a01b031633146111e5576111de6001603f61298f565b9050610e25565b60055460408051623f1ee960e11b815290516001600160a01b0392831692851691627e3dd2916004808301926020929190829003018186803b15801561122a57600080fd5b505afa15801561123e573d6000803e3d6000fd5b505050506040513d602081101561125457600080fd5b50516112a7576040805162461bcd60e51b815260206004820152601c60248201527f6d61726b6572206d6574686f642072657475726e65642066616c736500000000604482015290519081900360640190fd5b600580546001600160a01b0319166001600160a01b03858116918217909255604080519284168352602083019190915280517f7ac369dbd14fa5ea3f473ed67cc9d598964a77501540ba6751eb0b3decf5870d9281900390910190a160005b9392505050565b600b5481565b6060610e0e8260405160200180826001600160a01b03166001600160a01b031660601b81526014019150506040516020818303038152906040526114b6565b60035461010090046001600160a01b031633146113a05760405162461bcd60e51b815260040180806020018281038252602d8152602001806154d8602d913960400191505060405180910390fd5b50565b6012546001600160a01b031681565b6005546001600160a01b031681565b6000805460ff16611406576040805162461bcd60e51b815260206004820152600a6024820152691c994b595b9d195c995960b21b604482015290519081900360640190fd5b6000805460ff191681556114186119b5565b9050801561143e5761143681601081111561142f57fe5b603061298f565b915050610f2e565b611447836129f5565b9150506000805460ff19166001179055919050565b6060610e0e82604051602001808281526020019150506040516020818303038152906040526114b6565b60095481565b6011546001600160a01b031681565b6001600160a01b03166000908152600e602052604090205490565b6060806040518060400160405280601081526020016f181899199a1a9b1b9c1cb0b131b232b360811b8152509050606083516002026002016040519080825280601f01601f191660200182016040528015611518576020820181803883390190505b509050600360fc1b8160008151811061152d57fe5b60200101906001600160f81b031916908160001a905350600f60fb1b8160018151811061155657fe5b60200101906001600160f81b031916908160001a90535060005b8451811015610e205782600486838151811061158857fe5b016020015182516001600160f81b031990911690911c60f81c9081106115aa57fe5b602001015160f81c60f81b8282600202600201815181106115c757fe5b60200101906001600160f81b031916908160001a905350828582815181106115eb57fe5b602091010151815160f89190911c600f1690811061160557fe5b602001015160f81c60f81b82826002026003018151811061162257fe5b60200101906001600160f81b031916908160001a905350600101611570565b6000805460ff16611686576040805162461bcd60e51b815260206004820152600a6024820152691c994b595b9d195c995960b21b604482015290519081900360640190fd5b6000805460ff191681556116986119b5565b146116e3576040805162461bcd60e51b81526020600482015260166024820152751858d8dc9d59481a5b9d195c995cdd0819985a5b195960521b604482015290519081900360640190fd5b50600b546000805460ff1916600117905590565b6000610e0e82612b28565b600c5481565b6002805460408051602060018416156101000260001901909316849004601f81018490048402820184019092528181529291830182828015610d9f5780601f10610d7457610100808354040283529160200191610d9f565b600080600061176e84612ba9565b9092509050600082600381111561178157fe5b146113065760405162461bcd60e51b815260040180806020018281038252603781526020018061532e6037913960400191505060405180910390fd5b600b55565b60035461010090046001600160a01b031633146118105760405162461bcd60e51b815260040180806020018281038252602481526020018061523d6024913960400191505060405180910390fd5b6009541580156118205750600a54155b61185b5760405162461bcd60e51b81526004018080602001828103825260238152602001806152616023913960400191505060405180910390fd5b60078490558361189c5760405162461bcd60e51b81526004018080602001828103825260308152602001806152846030913960400191505060405180910390fd5b60006118a7876111b8565b905080156118fc576040805162461bcd60e51b815260206004820152601a60248201527f73657474696e6720636f6d7074726f6c6c6572206661696c6564000000000000604482015290519081900360640190fd5b611904612c5d565b600955670de0b6b3a7640000600a5561191c86612ca5565b9050801561195b5760405162461bcd60e51b81526004018080602001828103825260228152602001806152b46022913960400191505060405180910390fd5b835161196e9060019060208701906150f7565b5082516119829060029060208601906150f7565b50506003805460ff90921660ff199283161790556000805490911660011790555050505050565b600080610e2083612e1a565b6000806119c0612c5d565b600954909150808214156119d957600092505050610fa6565b60006119e361287b565b600b54600c54600a54600654604080516315f2405360e01b815260048101879052602481018690526044810185905290519596509394929391926000926001600160a01b03909216916315f24053916064808301926020929190829003018186803b158015611a5157600080fd5b505afa158015611a65573d6000803e3d6000fd5b505050506040513d6020811015611a7b57600080fd5b5051905065048c27395000811115611ada576040805162461bcd60e51b815260206004820152601c60248201527f626f72726f772072617465206973206162737572646c79206869676800000000604482015290519081900360640190fd5b600080611ae78989612e9b565b90925090506000826003811115611afa57fe5b14611b4c576040805162461bcd60e51b815260206004820152601f60248201527f636f756c64206e6f742063616c63756c61746520626c6f636b2064656c746100604482015290519081900360640190fd5b611b546150e4565b600080600080611b7260405180602001604052808a81525087612ebe565b90975094506000876003811115611b8557fe5b14611bb757611ba260096006896003811115611b9d57fe5b612f26565b9e505050505050505050505050505050610fa6565b611bc1858c612827565b90975093506000876003811115611bd457fe5b14611bec57611ba260096001896003811115611b9d57fe5b611bf6848c612f8c565b90975092506000876003811115611c0957fe5b14611c2157611ba260096004896003811115611b9d57fe5b611c3c6040518060200160405280600854815250858c612fb2565b90975091506000876003811115611c4f57fe5b14611c6757611ba260096005896003811115611b9d57fe5b611c72858a8b612fb2565b90975090506000876003811115611c8557fe5b14611c9d57611ba260096003896003811115611b9d57fe5b60098e9055600a819055600b839055600c829055604080518d8152602081018690528082018390526060810185905290517f4dec04e750ca11537cabcd8a9eab06494de08da3735bc8871cd41250e190bc049181900360800190a160009e50505050505050505050505050505090565b6000805460ff16611d52576040805162461bcd60e51b815260206004820152600a6024820152691c994b595b9d195c995960b21b604482015290519081900360640190fd5b6000805460ff19168155611d683333868661246e565b1490506000805460ff1916600117905592915050565b600a5481565b6006546000906001600160a01b031663b8168816611da061287b565b600b54600c546008546040518563ffffffff1660e01b81526004018085815260200184815260200183815260200182815260200194505050505060206040518083038186803b158015611df257600080fd5b505afa158015611e06573d6000803e3d6000fd5b505050506040513d6020811015611e1c57600080fd5b5051905090565b600c55565b6000805460ff16611e6d576040805162461bcd60e51b815260206004820152600a6024820152691c994b595b9d195c995960b21b604482015290519081900360640190fd5b6000805460ff19169055611e833385858561300e565b90506000805460ff191660011790559392505050565b60035460009061010090046001600160a01b03163314611ebf576111de6001604561298f565b600480546001600160a01b038481166001600160a01b0319831681179093556040805191909216808252602082019390935281517fca4f2f25d0898edd99413412fb94012f9e54ec8142f9b093e7720646a95b16a9929181900390910190a16000611306565b6000805460ff16611f6a576040805162461bcd60e51b815260206004820152600a6024820152691c994b595b9d195c995960b21b604482015290519081900360640190fd5b6000805460ff19168155611f7c6119b5565b14611fc7576040805162461bcd60e51b81526020600482015260166024820152751858d8dc9d59481a5b9d195c995cdd0819985a5b195960521b604482015290519081900360640190fd5b611fcf610f46565b90506000805460ff1916600117905590565b6001600160a01b0381166000908152600e602052604081205481908190819081808061200c89612ba9565b93509050600081600381111561201e57fe5b1461203c5760095b97506000965086955085945061206f9350505050565b6120446123bf565b92509050600081600381111561205657fe5b14612062576009612026565b5060009650919450925090505b9193509193565b6000610e0e82613274565b6000610e0e826132f3565b6001600160a01b039182166000908152600f6020908152604080832093909416825291909152205490565b6004546000906001600160a01b0316331415806120d2575033155b156120ea576120e36001600061298f565b9050610fa6565b60038054600480546001600160a01b03818116610100818102610100600160a81b0319871617968790556001600160a01b031990931690935560408051948390048216808652929095041660208401528351909391927ff9ffabca9c8276e99321725bcb43fb076a6c66a54b7f21c4e8146d8519b417dc92908290030190a1600454604080516001600160a01b038085168252909216602083015280517fca4f2f25d0898edd99413412fb94012f9e54ec8142f9b093e7720646a95b16a99281900390910190a160009250505090565b6000806121c56119b5565b905080156121eb576121e38160108111156121dc57fe5b604061298f565b915050610e25565b61130683612ca5565b6006546001600160a01b031681565b60008061221185858561336d565b5095945050505050565b60035461010090046001600160a01b031681565b6006546000906001600160a01b03166315f2405361224b61287b565b600b54600c546040518463ffffffff1660e01b815260040180848152602001838152602001828152602001935050505060206040518083038186803b158015611df257600080fd5b6000805460ff166122d8576040805162461bcd60e51b815260206004820152600a6024820152691c994b595b9d195c995960b21b604482015290519081900360640190fd5b6000805460ff191681556122ea6119b5565b905080156123085761143681601081111561230157fe5b604661298f565b6114478361349f565b600181565b60008054819060ff1661235d576040805162461bcd60e51b815260206004820152600a6024820152691c994b595b9d195c995960b21b604482015290519081900360640190fd5b6000805460ff1916815561236f6119b5565b9050801561239a5761238d81601081111561238657fe5b603661298f565b9250600091506123ab9050565b6123a5333386613547565b92509250505b6000805460ff191660011790559092909150565b600d546000908190806123da5750506007546000915061246a565b60006123e461287b565b905060006123f06150e4565b600061240184600b54600c5461392c565b93509050600081600381111561241357fe5b146124285795506000945061246a9350505050565b612432838661396a565b92509050600081600381111561244457fe5b146124595795506000945061246a9350505050565b505160009550935061246a92505050565b9091565b600554604080516317b9b84b60e31b81523060048201526001600160a01b03868116602483015285811660448301526064820185905291516000938493169163bdcdc25891608480830192602092919082900301818787803b1580156124d357600080fd5b505af11580156124e7573d6000803e3d6000fd5b505050506040513d60208110156124fd57600080fd5b50519050801561251c576125146003604a83612f26565b915050611196565b836001600160a01b0316856001600160a01b03161415612542576125146002604b61298f565b60006001600160a01b0387811690871614156125615750600019612589565b506001600160a01b038086166000908152600f60209081526040808320938a16835292905220545b6000806000806125998589612e9b565b909450925060008460038111156125ac57fe5b146125ca576125bd6009604b61298f565b9650505050505050611196565b6001600160a01b038a166000908152600e60205260409020546125ed9089612e9b565b9094509150600084600381111561260057fe5b14612611576125bd6009604c61298f565b6001600160a01b0389166000908152600e60205260409020546126349089612f8c565b9094509050600084600381111561264757fe5b14612658576125bd6009604d61298f565b6001600160a01b03808b166000908152600e6020526040808220859055918b1681522081905560001985146126b0576001600160a01b03808b166000908152600f60209081526040808320938f168352929052208390555b886001600160a01b03168a6001600160a01b031660008051602061539f8339815191528a6040518082815260200191505060405180910390a36005546040805163352b4a3f60e11b81523060048201526001600160a01b038d811660248301528c81166044830152606482018c905291519190921691636a56947e91608480830192600092919082900301818387803b15801561274c57600080fd5b505af1158015612760573d6000803e3d6000fd5b506000925061276d915050565b9b9a5050505050505050505050565b60008054819060ff166127c3576040805162461bcd60e51b815260206004820152600a6024820152691c994b595b9d195c995960b21b604482015290519081900360640190fd5b6000805460ff191681556127d56119b5565b90508015612800576127f38160108111156127ec57fe5b603561298f565b9250600091506128119050565b61280b338686613547565b92509250505b6000805460ff1916600117905590939092509050565b60008060006128346150e4565b61283e8686612ebe565b9092509050600082600381111561285157fe5b146128625750915060009050612874565b600061286d82613a1a565b9350935050505b9250929050565b601154604080516370a0823160e01b815230600482015290516000926001600160a01b03169182916370a0823191602480820192602092909190829003018186803b1580156128c957600080fd5b505afa1580156128dd573d6000803e3d6000fd5b505050506040513d60208110156128f357600080fd5b505191505090565b6000805460ff16612940576040805162461bcd60e51b815260206004820152600a6024820152691c994b595b9d195c995960b21b604482015290519081900360640190fd5b6000805460ff191681556129526119b5565b905080156129705761143681601081111561296957fe5b604e61298f565b61297983613a29565b509150506000805460ff19166001179055919050565b60007f45b96fe442630264581b197e84bbada861235052c5a1aadfff9ea4e40a969aa08360108111156129be57fe5b8360508111156129ca57fe5b604080519283526020830191909152600082820152519081900360600190a182601081111561130657fe5b600354600090819061010090046001600160a01b03163314612a1d576121e36001603161298f565b612a25612c5d565b60095414612a39576121e3600a603361298f565b82612a4261287b565b1015612a54576121e3600e603261298f565b600c54831115612a6a576121e36002603461298f565b50600c5482810390811115612ab05760405162461bcd60e51b81526004018080602001828103825260248152602001806154b46024913960400191505060405180910390fd5b600c819055600354612ad09061010090046001600160a01b031684613b11565b600354604080516101009092046001600160a01b0316825260208201859052818101839052517f3bad0c59cf2f06e7314077049f48a93578cd16f5ef92329f1dab1420a99c177e916060908290030190a16000611306565b6000805460ff16612b6d576040805162461bcd60e51b815260206004820152600a6024820152691c994b595b9d195c995960b21b604482015290519081900360640190fd5b6000805460ff19168155612b7f6119b5565b90508015612b9d57611436816010811115612b9657fe5b602761298f565b61144733600085613c08565b6001600160a01b038116600090815260106020526040812080548291829182918291612be0575060009450849350612c5892505050565b612bf08160000154600a546140cf565b90945092506000846003811115612c0357fe5b14612c18575091935060009250612c58915050565b612c2683826001015461410e565b90945091506000846003811115612c3957fe5b14612c4e575091935060009250612c58915050565b5060009450925050505b915091565b600554604080516357e871e760e01b815290516000926001600160a01b03169182916357e871e791600480820192602092909190829003018186803b1580156128c957600080fd5b600354600090819061010090046001600160a01b03163314612ccd576121e36001604261298f565b612cd5612c5d565b60095414612ce9576121e3600a604161298f565b600660009054906101000a90046001600160a01b03169050826001600160a01b0316632191f92a6040518163ffffffff1660e01b815260040160206040518083038186803b158015612d3a57600080fd5b505afa158015612d4e573d6000803e3d6000fd5b505050506040513d6020811015612d6457600080fd5b5051612db7576040805162461bcd60e51b815260206004820152601c60248201527f6d61726b6572206d6574686f642072657475726e65642066616c736500000000604482015290519081900360640190fd5b600680546001600160a01b0319166001600160a01b03858116918217909255604080519284168352602083019190915280517fedffc32e068c7c95dfd4bdfd5c4d939a084d6b11c4199eac8436ed234d72f9269281900390910190a16000611306565b60008054819060ff16612e61576040805162461bcd60e51b815260206004820152600a6024820152691c994b595b9d195c995960b21b604482015290519081900360640190fd5b6000805460ff19168155612e736119b5565b90508015612e915761238d816010811115612e8a57fe5b601e61298f565b6123a53385614139565b600080838311612eb2575060009050818303612874565b50600390506000612874565b6000612ec86150e4565b600080612ed98660000151866140cf565b90925090506000826003811115612eec57fe5b14612f0b57506040805160208101909152600081529092509050612874565b60408051602081019091529081526000969095509350505050565b60007f45b96fe442630264581b197e84bbada861235052c5a1aadfff9ea4e40a969aa0846010811115612f5557fe5b846050811115612f6157fe5b604080519283526020830191909152818101859052519081900360600190a183601081111561119657fe5b600080838301848110612fa457600092509050612874565b506002915060009050612874565b6000806000612fbf6150e4565b612fc98787612ebe565b90925090506000826003811115612fdc57fe5b14612fed5750915060009050613006565b612fff612ff982613a1a565b86612f8c565b9350935050505b935093915050565b6005546040805163d02f735160e01b81523060048201526001600160a01b038781166024830152868116604483015285811660648301526084820185905291516000938493169163d02f73519160a480830192602092919082900301818787803b15801561307b57600080fd5b505af115801561308f573d6000803e3d6000fd5b505050506040513d60208110156130a557600080fd5b5051905080156130bc576125146003601b83612f26565b846001600160a01b0316846001600160a01b031614156130e2576125146006601c61298f565b6001600160a01b0384166000908152600e6020526040812054819081906131099087612e9b565b9093509150600083600381111561311c57fe5b1461313f576131346009601a856003811115611b9d57fe5b945050505050611196565b6001600160a01b0388166000908152600e60205260409020546131629087612f8c565b9093509050600083600381111561317557fe5b1461318d5761313460096019856003811115611b9d57fe5b6001600160a01b038088166000818152600e60209081526040808320879055938c168083529184902085905583518a81529351919360008051602061539f833981519152929081900390910190a360055460408051636d35bf9160e01b81523060048201526001600160a01b038c811660248301528b811660448301528a81166064830152608482018a905291519190921691636d35bf919160a480830192600092919082900301818387803b15801561324657600080fd5b505af115801561325a573d6000803e3d6000fd5b5060009250613267915050565b9998505050505050505050565b6000805460ff166132b9576040805162461bcd60e51b815260206004820152600a6024820152691c994b595b9d195c995960b21b604482015290519081900360640190fd5b6000805460ff191681556132cb6119b5565b905080156132e9576114368160108111156132e257fe5b600861298f565b6114473384614598565b6000805460ff16613338576040805162461bcd60e51b815260206004820152600a6024820152691c994b595b9d195c995960b21b604482015290519081900360640190fd5b6000805460ff1916815561334a6119b5565b9050801561336157611436816010811115612b9657fe5b61144733846000613c08565b60008054819060ff166133b4576040805162461bcd60e51b815260206004820152600a6024820152691c994b595b9d195c995960b21b604482015290519081900360640190fd5b6000805460ff191681556133c66119b5565b905080156133f1576133e48160108111156133dd57fe5b600f61298f565b9250600091506134889050565b836001600160a01b031663a6afed956040518163ffffffff1660e01b8152600401602060405180830381600087803b15801561342c57600080fd5b505af1158015613440573d6000803e3d6000fd5b505050506040513d602081101561345657600080fd5b505190508015613476576133e481601081111561346f57fe5b601061298f565b613482338787876148a6565b92509250505b6000805460ff191660011790559094909350915050565b60035460009061010090046001600160a01b031633146134c5576111de6001604761298f565b6134cd612c5d565b600954146134e1576111de600a604861298f565b670de0b6b3a76400008211156134fd576111de6002604961298f565b6008805490839055604080518281526020810185905281517faaa68312e2ea9d50e16af5068410ab56e1a1fd06037b1a35664812c30f821460929181900390910190a16000611306565b60055460408051631200453160e11b81523060048201526001600160a01b0386811660248301528581166044830152606482018590529151600093849384939116916324008a629160848082019260209290919082900301818787803b1580156135b057600080fd5b505af11580156135c4573d6000803e3d6000fd5b505050506040513d60208110156135da57600080fd5b5051905080156135fe576135f16003603883612f26565b9250600091506130069050565b613606612c5d565b6009541461361a576135f1600a603961298f565b613622615175565b6001600160a01b038616600090815260106020526040902060010154606082015261364c86612ba9565b608083018190526020830182600381111561366357fe5b600381111561366e57fe5b905250600090508160200151600381111561368557fe5b146136af576136a16009603783602001516003811115611b9d57fe5b935060009250613006915050565b6000198514156136c857608081015160408201526136d0565b604081018590525b6136de878260400151614e29565b60e0820181905260808201516136f391612e9b565b60a083018190526020830182600381111561370a57fe5b600381111561371557fe5b905250600090508160200151600381111561372c57fe5b146137685760405162461bcd60e51b815260040180806020018281038252603a815260200180615365603a913960400191505060405180910390fd5b613778600b548260e00151612e9b565b60c083018190526020830182600381111561378f57fe5b600381111561379a57fe5b90525060009050816020015160038111156137b157fe5b146137ed5760405162461bcd60e51b81526004018080602001828103825260318152602001806153bf6031913960400191505060405180910390fd5b60a080820180516001600160a01b03808a16600081815260106020908152604091829020948555600a5460019095019490945560c0870151600b81905560e088015195518251948f16855294840192909252828101949094526060820192909252608081019190915290517f1a2a22cb034d26d1854bdc6666a5b91fe25efbbb5dcad3b0355478d6f5c362a1929181900390910190a160055460e0820151606083015160408051631ededc9160e01b81523060048201526001600160a01b038c811660248301528b8116604483015260648201949094526084810192909252519190921691631ededc919160a480830192600092919082900301818387803b1580156138f857600080fd5b505af115801561390c573d6000803e3d6000fd5b5060009250613919915050565b8160e00151935093505050935093915050565b60008060008061393c8787612f8c565b9092509050600082600381111561394f57fe5b146139605750915060009050613006565b612fff8186612e9b565b60006139746150e4565b60008061398986670de0b6b3a76400006140cf565b9092509050600082600381111561399c57fe5b146139bb57506040805160208101909152600081529092509050612874565b6000806139c8838861410e565b909250905060008260038111156139db57fe5b146139fd57506040805160208101909152600081529094509250612874915050565b604080516020810190915290815260009890975095505050505050565b51670de0b6b3a7640000900490565b600080600080613a37612c5d565b60095414613a5657613a4b600a604f61298f565b93509150612c589050565b613a603386614e29565b905080600c54019150600c54821015613ac0576040805162461bcd60e51b815260206004820181905260248201527f61646420726573657276657320756e6578706563746564206f766572666c6f77604482015290519081900360640190fd5b600c829055604080513381526020810183905280820184905290517fa91e67c5ea634cd43a12c5a482724b03de01e85ca68702a53d0c2f45cb7c1dc59181900360600190a160009350915050915091565b6011546040805163a9059cbb60e01b81526001600160a01b0385811660048301526024820185905291519190921691829163a9059cbb9160448082019260009290919082900301818387803b158015613b6957600080fd5b505af1158015613b7d573d6000803e3d6000fd5b5050505060003d60008114613b995760208114613ba357600080fd5b6000199150613baf565b60206000803e60005191505b5080613c02576040805162461bcd60e51b815260206004820152601960248201527f544f4b454e5f5452414e534645525f4f55545f4641494c454400000000000000604482015290519081900360640190fd5b50505050565b6000821580613c15575081155b613c505760405162461bcd60e51b81526004018080602001828103825260348152602001806154806034913960400191505060405180910390fd5b613c586151bb565b613c606123bf565b6040830181905260208301826003811115613c7757fe5b6003811115613c8257fe5b9052506000905081602001516003811115613c9957fe5b14613cbd57613cb56009602b83602001516003811115611b9d57fe5b915050611306565b8315613d3e576060810184905260408051602081018252908201518152613ce49085612827565b6080830181905260208301826003811115613cfb57fe5b6003811115613d0657fe5b9052506000905081602001516003811115613d1d57fe5b14613d3957613cb56009602983602001516003811115611b9d57fe5b613db7565b613d5a8360405180602001604052808460400151815250615073565b6060830181905260208301826003811115613d7157fe5b6003811115613d7c57fe5b9052506000905081602001516003811115613d9357fe5b14613daf57613cb56009602a83602001516003811115611b9d57fe5b608081018390525b60055460608201516040805163eabe7d9160e01b81523060048201526001600160a01b03898116602483015260448201939093529051600093929092169163eabe7d919160648082019260209290919082900301818787803b158015613e1c57600080fd5b505af1158015613e30573d6000803e3d6000fd5b505050506040513d6020811015613e4657600080fd5b505190508015613e6657613e5d6003602883612f26565b92505050611306565b613e6e612c5d565b60095414613e8257613e5d600a602c61298f565b613e92600d548360600151612e9b565b60a0840181905260208401826003811115613ea957fe5b6003811115613eb457fe5b9052506000905082602001516003811115613ecb57fe5b14613ee757613e5d6009602e84602001516003811115611b9d57fe5b6001600160a01b0386166000908152600e60205260409020546060830151613f0f9190612e9b565b60c0840181905260208401826003811115613f2657fe5b6003811115613f3157fe5b9052506000905082602001516003811115613f4857fe5b14613f6457613e5d6009602d84602001516003811115611b9d57fe5b8160800151613f7161287b565b1015613f8357613e5d600e602f61298f565b613f91868360800151613b11565b60a0820151600d5560c08201516001600160a01b0387166000818152600e602090815260409182902093909355606085015181519081529051309360008051602061539f833981519152928290030190a36080820151606080840151604080516001600160a01b038b168152602081019490945283810191909152517fe5b754fb1abb7f01b499791d0b820ae3b6af3424ac1c59768edb53f4ec31a9299281900390910190a160055460808301516060840151604080516351dff98960e01b81523060048201526001600160a01b038b81166024830152604482019490945260648101929092525191909216916351dff98991608480830192600092919082900301818387803b1580156140a457600080fd5b505af11580156140b8573d6000803e3d6000fd5b50600092506140c5915050565b9695505050505050565b600080836140e257506000905080612874565b838302838582816140ef57fe5b041461410357506002915060009050612874565b600092509050612874565b600080826141225750600190506000612874565b600083858161412d57fe5b04915091509250929050565b60055460408051634ef4c3e160e01b81523060048201526001600160a01b03858116602483015260448201859052915160009384938493911691634ef4c3e19160648082019260209290919082900301818787803b15801561419a57600080fd5b505af11580156141ae573d6000803e3d6000fd5b505050506040513d60208110156141c457600080fd5b5051905080156141e8576141db6003601f83612f26565b9250600091506128749050565b6141f0612c5d565b60095414614204576141db600a602261298f565b61420c6151bb565b6142146123bf565b604083018190526020830182600381111561422b57fe5b600381111561423657fe5b905250600090508160200151600381111561424d57fe5b14614277576142696009602183602001516003811115611b9d57fe5b935060009250612874915050565b6142818686614e29565b60c08201819052604080516020810182529083015181526142a29190615073565b60608301819052602083018260038111156142b957fe5b60038111156142c457fe5b90525060009050816020015160038111156142db57fe5b1461432d576040805162461bcd60e51b815260206004820181905260248201527f4d494e545f45584348414e47455f43414c43554c4154494f4e5f4641494c4544604482015290519081900360640190fd5b61433d600d548260600151612f8c565b608083018190526020830182600381111561435457fe5b600381111561435f57fe5b905250600090508160200151600381111561437657fe5b146143b25760405162461bcd60e51b81526004018080602001828103825260288152602001806154586028913960400191505060405180910390fd5b6001600160a01b0386166000908152600e602052604090205460608201516143da9190612f8c565b60a08301819052602083018260038111156143f157fe5b60038111156143fc57fe5b905250600090508160200151600381111561441357fe5b1461444f5760405162461bcd60e51b815260040180806020018281038252602b815260200180615303602b913960400191505060405180910390fd5b6080810151600d5560a08101516001600160a01b0387166000818152600e60209081526040918290209390935560c084015160608086015183519485529484019190915282820193909352517f4c209b5fc8ad50758f13e2e1088ba56a560dff690a1c6fef26394f4c03821c4f929181900390910190a1606081015160408051918252516001600160a01b03881691309160008051602061539f8339815191529181900360200190a360055460c08201516060830151604080516341c728b960e01b81523060048201526001600160a01b038b81166024830152604482019490945260648101929092525191909216916341c728b991608480830192600092919082900301818387803b15801561456557600080fd5b505af1158015614579573d6000803e3d6000fd5b5060009250614586915050565b8160c001519350935050509250929050565b6005546040805163368f515360e21b81523060048201526001600160a01b0385811660248301526044820185905291516000938493169163da3d454c91606480830192602092919082900301818787803b1580156145f557600080fd5b505af1158015614609573d6000803e3d6000fd5b505050506040513d602081101561461f57600080fd5b50519050801561463e576146366003600e83612f26565b915050610e0e565b614646612c5d565b6009541461465957614636600a8061298f565b8261466261287b565b101561467457614636600e600961298f565b61467c6151f9565b61468585612ba9565b602083018190528282600381111561469957fe5b60038111156146a457fe5b90525060009050815160038111156146b857fe5b146146dd576146d46009600783600001516003811115611b9d57fe5b92505050610e0e565b6146eb816020015185612f8c565b60408301819052828260038111156146ff57fe5b600381111561470a57fe5b905250600090508151600381111561471e57fe5b1461473a576146d46009600c83600001516003811115611b9d57fe5b614746600b5485612f8c565b606083018190528282600381111561475a57fe5b600381111561476557fe5b905250600090508151600381111561477957fe5b14614795576146d46009600b83600001516003811115611b9d57fe5b61479f8585613b11565b604080820180516001600160a01b03881660008181526010602090815290859020928355600a54600190930192909255606080860151600b81905593518551928352928201899052818501929092529081019190915290517f13ed6866d4e1ee6da46f845c46d7e54120883d75c5ea9a2dacc1c4ca8984ab809181900360800190a160055460408051635c77860560e01b81523060048201526001600160a01b0388811660248301526044820188905291519190921691635c77860591606480830192600092919082900301818387803b15801561487c57600080fd5b505af1158015614890573d6000803e3d6000fd5b506000925061489d915050565b95945050505050565b60055460408051632fe3f38f60e11b81523060048201526001600160a01b0384811660248301528781166044830152868116606483015260848201869052915160009384938493911691635fc7e71e9160a48082019260209290919082900301818787803b15801561491757600080fd5b505af115801561492b573d6000803e3d6000fd5b505050506040513d602081101561494157600080fd5b505190508015614965576149586003601283612f26565b925060009150614e209050565b61496d612c5d565b6009541461498157614958600a601661298f565b614989612c5d565b846001600160a01b0316636c540baf6040518163ffffffff1660e01b815260040160206040518083038186803b1580156149c257600080fd5b505afa1580156149d6573d6000803e3d6000fd5b505050506040513d60208110156149ec57600080fd5b5051146149ff57614958600a601161298f565b866001600160a01b0316866001600160a01b03161415614a25576149586006601761298f565b84614a36576149586007601561298f565b600019851415614a4c576149586007601461298f565b600080614a5a898989613547565b90925090508115614a8a57614a7b826010811115614a7457fe5b601861298f565b945060009350614e2092505050565b6005546040805163c488847b60e01b81523060048201526001600160a01b038981166024830152604482018590528251600094859492169263c488847b926064808301939192829003018186803b158015614ae457600080fd5b505afa158015614af8573d6000803e3d6000fd5b505050506040513d6040811015614b0e57600080fd5b50805160209091015190925090508115614b595760405162461bcd60e51b81526004018080602001828103825260338152602001806153f06033913960400191505060405180910390fd5b80886001600160a01b03166370a082318c6040518263ffffffff1660e01b815260040180826001600160a01b03166001600160a01b0316815260200191505060206040518083038186803b158015614bb057600080fd5b505afa158015614bc4573d6000803e3d6000fd5b505050506040513d6020811015614bda57600080fd5b50511015614c2f576040805162461bcd60e51b815260206004820152601860248201527f4c49515549444154455f5345495a455f544f4f5f4d5543480000000000000000604482015290519081900360640190fd5b60006001600160a01b038916301415614c5557614c4e308d8d8561300e565b9050614cdf565b6040805163b2a02ff160e01b81526001600160a01b038e811660048301528d81166024830152604482018590529151918b169163b2a02ff1916064808201926020929091908290030181600087803b158015614cb057600080fd5b505af1158015614cc4573d6000803e3d6000fd5b505050506040513d6020811015614cda57600080fd5b505190505b8015614d29576040805162461bcd60e51b81526020600482015260146024820152731d1bdad95b881cd95a5e9d5c994819985a5b195960621b604482015290519081900360640190fd5b604080516001600160a01b03808f168252808e1660208301528183018790528b1660608201526080810184905290517f298637f684da70674f26509b10f07ec2fbc77a335ab1e7d6215a4b2484d8bb529181900360a00190a1600554604080516347ef3b3b60e01b81523060048201526001600160a01b038c811660248301528f811660448301528e811660648301526084820188905260a48201869052915191909216916347ef3b3b9160c480830192600092919082900301818387803b158015614df457600080fd5b505af1158015614e08573d6000803e3d6000fd5b5060009250614e15915050565b975092955050505050505b94509492505050565b601154604080516370a0823160e01b815230600482015290516000926001600160a01b031691839183916370a08231916024808301926020929190829003018186803b158015614e7857600080fd5b505afa158015614e8c573d6000803e3d6000fd5b505050506040513d6020811015614ea257600080fd5b5051604080516323b872dd60e01b81526001600160a01b038881166004830152306024830152604482018890529151929350908416916323b872dd9160648082019260009290919082900301818387803b158015614eff57600080fd5b505af1158015614f13573d6000803e3d6000fd5b5050505060003d60008114614f2f5760208114614f3957600080fd5b6000199150614f45565b60206000803e60005191505b5080614f98576040805162461bcd60e51b815260206004820152601860248201527f544f4b454e5f5452414e534645525f494e5f4641494c45440000000000000000604482015290519081900360640190fd5b601154604080516370a0823160e01b815230600482015290516000926001600160a01b0316916370a08231916024808301926020929190829003018186803b158015614fe357600080fd5b505afa158015614ff7573d6000803e3d6000fd5b505050506040513d602081101561500d57600080fd5b5051905082811015615066576040805162461bcd60e51b815260206004820152601a60248201527f544f4b454e5f5452414e534645525f494e5f4f564552464c4f57000000000000604482015290519081900360640190fd5b9190910395945050505050565b60008060006150806150e4565b61283e8686600061508f6150e4565b6000806150a4670de0b6b3a7640000876140cf565b909250905060008260038111156150b757fe5b146150d657506040805160208101909152600081529092509050612874565b61286d81866000015161396a565b6040518060200160405280600081525090565b828054600181600116156101000203166002900490600052602060002090601f016020900481019282601f1061513857805160ff1916838001178555615165565b82800160010185558215615165579182015b8281111561516557825182559160200191906001019061514a565b50615171929150615222565b5090565b6040805161010081019091528060008152602001600081526020016000815260200160008152602001600081526020016000815260200160008152602001600081525090565b6040805160e0810190915280600081526020016000815260200160008152602001600081526020016000815260200160008152602001600081525090565b604080516080810190915280600081526020016000815260200160008152602001600081525090565b610fa691905b80821115615171576000815560010161522856fe6f6e6c792061646d696e206d617920696e697469616c697a6520746865206d61726b65746d61726b6574206d6179206f6e6c7920626520696e697469616c697a6564206f6e6365696e697469616c2065786368616e67652072617465206d7573742062652067726561746572207468616e207a65726f2e73657474696e6720696e7465726573742072617465206d6f64656c206661696c65646f6e6c79207468652061646d696e206d61792063616c6c205f72657369676e496d706c656d656e746174696f6e4d494e545f4e45575f4143434f554e545f42414c414e43455f43414c43554c4154494f4e5f4641494c4544626f72726f7742616c616e636553746f7265643a20626f72726f7742616c616e636553746f726564496e7465726e616c206661696c656452455041595f424f52524f575f4e45575f4143434f554e545f424f52524f575f42414c414e43455f43414c43554c4154494f4e5f4641494c4544ddf252ad1be2c89b69c2b068fc378daa952ba7f163c4a11628f55a4df523b3ef52455041595f424f52524f575f4e45575f544f54414c5f42414c414e43455f43414c43554c4154494f4e5f4641494c45444c49515549444154455f434f4d5054524f4c4c45525f43414c43554c4154455f414d4f554e545f5345495a455f4641494c454465786368616e67655261746553746f7265643a2065786368616e67655261746553746f726564496e7465726e616c206661696c65644d494e545f4e45575f544f54414c5f535550504c595f43414c43554c4154494f4e5f4641494c45446f6e65206f662072656465656d546f6b656e73496e206f722072656465656d416d6f756e74496e206d757374206265207a65726f72656475636520726573657276657320756e657870656374656420756e646572666c6f776f6e6c79207468652061646d696e206d61792063616c6c205f6265636f6d65496d706c656d656e746174696f6ea265627a7a72315820242b3195d664c7812ed24069b31eeb69109593e775c213df5434160f3ce1d3d264736f6c634300050e0032",
  "source": "pragma solidity ^0.5.14;\n\nimport \"../../contracts/CErc20Immutable.sol\";\nimport \"../../contracts/CErc20Delegator.sol\";\nimport \"../../contracts/CErc20Delegate.sol\";\nimport \"../../contracts/CDaiDelegate.sol\";\nimport \"./ComptrollerHarness.sol\";\n\ncontract CErc20Harness is CErc20Immutable {\n    uint blockNumber = 100000;\n    uint harnessExchangeRate;\n    bool harnessExchangeRateStored;\n\n    mapping (address => bool) public failTransferToAddresses;\n\n    constructor(address underlying_,\n                ComptrollerInterface comptroller_,\n                InterestRateModel interestRateModel_,\n                uint initialExchangeRateMantissa_,\n                string memory name_,\n                string memory symbol_,\n                uint8 decimals_,\n                address payable admin_)\n    CErc20Immutable(\n    underlying_,\n    comptroller_,\n    interestRateModel_,\n    initialExchangeRateMantissa_,\n    name_,\n    symbol_,\n    decimals_,\n    admin_) public {}\n\n    function doTransferOut(address payable to, uint amount) internal {\n        require(failTransferToAddresses[to] == false, \"TOKEN_TRANSFER_OUT_FAILED\");\n        return super.doTransferOut(to, amount);\n    }\n\n    function exchangeRateStoredInternal() internal view returns (MathError, uint) {\n        if (harnessExchangeRateStored) {\n            return (MathError.NO_ERROR, harnessExchangeRate);\n        }\n        return super.exchangeRateStoredInternal();\n    }\n\n    function getBlockNumber() internal view returns (uint) {\n        return blockNumber;\n    }\n\n    function getBorrowRateMaxMantissa() public pure returns (uint) {\n        return borrowRateMaxMantissa;\n    }\n\n    function harnessSetAccrualBlockNumber(uint _accrualblockNumber) public {\n        accrualBlockNumber = _accrualblockNumber;\n    }\n\n    function harnessSetBlockNumber(uint newBlockNumber) public {\n        blockNumber = newBlockNumber;\n    }\n\n    function harnessFastForward(uint blocks) public {\n        blockNumber += blocks;\n    }\n\n    function harnessSetBalance(address account, uint amount) external {\n        accountTokens[account] = amount;\n    }\n\n    function harnessSetTotalSupply(uint totalSupply_) public {\n        totalSupply = totalSupply_;\n    }\n\n    function harnessSetTotalBorrows(uint totalBorrows_) public {\n        totalBorrows = totalBorrows_;\n    }\n\n    function harnessSetTotalReserves(uint totalReserves_) public {\n        totalReserves = totalReserves_;\n    }\n\n    function harnessExchangeRateDetails(uint totalSupply_, uint totalBorrows_, uint totalReserves_) public {\n        totalSupply = totalSupply_;\n        totalBorrows = totalBorrows_;\n        totalReserves = totalReserves_;\n    }\n\n    function harnessSetExchangeRate(uint exchangeRate) public {\n        harnessExchangeRate = exchangeRate;\n        harnessExchangeRateStored = true;\n    }\n\n    function harnessSetFailTransferToAddress(address _to, bool _fail) public {\n        failTransferToAddresses[_to] = _fail;\n    }\n\n    function harnessMintFresh(address account, uint mintAmount) public returns (uint) {\n        (uint err,) = super.mintFresh(account, mintAmount);\n        return err;\n    }\n\n    function harnessRedeemFresh(address payable account, uint cTokenAmount, uint underlyingAmount) public returns (uint) {\n        return super.redeemFresh(account, cTokenAmount, underlyingAmount);\n    }\n\n    function harnessAccountBorrows(address account) public view returns (uint principal, uint interestIndex) {\n        BorrowSnapshot memory snapshot = accountBorrows[account];\n        return (snapshot.principal, snapshot.interestIndex);\n    }\n\n    function harnessSetAccountBorrows(address account, uint principal, uint interestIndex) public {\n        accountBorrows[account] = BorrowSnapshot({principal: principal, interestIndex: interestIndex});\n    }\n\n    function harnessSetBorrowIndex(uint borrowIndex_) public {\n        borrowIndex = borrowIndex_;\n    }\n\n    function harnessBorrowFresh(address payable account, uint borrowAmount) public returns (uint) {\n        return borrowFresh(account, borrowAmount);\n    }\n\n    function harnessRepayBorrowFresh(address payer, address account, uint repayAmount) public returns (uint) {\n        (uint err,) = repayBorrowFresh(payer, account, repayAmount);\n        return err;\n    }\n\n    function harnessLiquidateBorrowFresh(address liquidator, address borrower, uint repayAmount, CToken cTokenCollateral) public returns (uint) {\n        (uint err,) = liquidateBorrowFresh(liquidator, borrower, repayAmount, cTokenCollateral);\n        return err;\n    }\n\n    function harnessReduceReservesFresh(uint amount) public returns (uint) {\n        return _reduceReservesFresh(amount);\n    }\n\n    function harnessSetReserveFactorFresh(uint newReserveFactorMantissa) public returns (uint) {\n        return _setReserveFactorFresh(newReserveFactorMantissa);\n    }\n\n    function harnessSetInterestRateModelFresh(InterestRateModel newInterestRateModel) public returns (uint) {\n        return _setInterestRateModelFresh(newInterestRateModel);\n    }\n\n    function harnessSetInterestRateModel(address newInterestRateModelAddress) public {\n        interestRateModel = InterestRateModel(newInterestRateModelAddress);\n    }\n\n    function harnessCallBorrowAllowed(uint amount) public returns (uint) {\n        return comptroller.borrowAllowed(address(this), msg.sender, amount);\n    }\n}\n\ncontract CErc20Scenario is CErc20Immutable {\n    constructor(address underlying_,\n                ComptrollerInterface comptroller_,\n                InterestRateModel interestRateModel_,\n                uint initialExchangeRateMantissa_,\n                string memory name_,\n                string memory symbol_,\n                uint8 decimals_,\n                address payable admin_)\n    CErc20Immutable(\n    underlying_,\n    comptroller_,\n    interestRateModel_,\n    initialExchangeRateMantissa_,\n    name_,\n    symbol_,\n    decimals_,\n    admin_) public {}\n\n    function setTotalBorrows(uint totalBorrows_) public {\n        totalBorrows = totalBorrows_;\n    }\n\n    function setTotalReserves(uint totalReserves_) public {\n        totalReserves = totalReserves_;\n    }\n\n    function getBlockNumber() internal view returns (uint) {\n        ComptrollerScenario comptrollerScenario = ComptrollerScenario(address(comptroller));\n        return comptrollerScenario.blockNumber();\n    }\n}\n\ncontract CEvil is CErc20Scenario {\n    constructor(address underlying_,\n                ComptrollerInterface comptroller_,\n                InterestRateModel interestRateModel_,\n                uint initialExchangeRateMantissa_,\n                string memory name_,\n                string memory symbol_,\n                uint8 decimals_,\n                address payable admin_)\n    CErc20Scenario(\n    underlying_,\n    comptroller_,\n    interestRateModel_,\n    initialExchangeRateMantissa_,\n    name_,\n    symbol_,\n    decimals_,\n    admin_) public {}\n\n    function evilSeize(CToken treasure, address liquidator, address borrower, uint seizeTokens) public returns (uint) {\n        return treasure.seize(liquidator, borrower, seizeTokens);\n    }\n}\n\ncontract CErc20DelegatorScenario is CErc20Delegator {\n    constructor(address underlying_,\n                ComptrollerInterface comptroller_,\n                InterestRateModel interestRateModel_,\n                uint initialExchangeRateMantissa_,\n                string memory name_,\n                string memory symbol_,\n                uint8 decimals_,\n                address payable admin_,\n                address implementation_,\n                bytes memory becomeImplementationData)\n    CErc20Delegator(\n    underlying_,\n    comptroller_,\n    interestRateModel_,\n    initialExchangeRateMantissa_,\n    name_,\n    symbol_,\n    decimals_,\n    admin_,\n    implementation_,\n    becomeImplementationData) public {}\n\n    function setTotalBorrows(uint totalBorrows_) public {\n        totalBorrows = totalBorrows_;\n    }\n\n    function setTotalReserves(uint totalReserves_) public {\n        totalReserves = totalReserves_;\n    }\n}\n\ncontract CErc20DelegateHarness is CErc20Delegate {\n    event Log(string x, address y);\n    event Log(string x, uint y);\n\n    uint blockNumber = 100000;\n    uint harnessExchangeRate;\n    bool harnessExchangeRateStored;\n\n    mapping (address => bool) public failTransferToAddresses;\n\n    function exchangeRateStoredInternal() internal view returns (MathError, uint) {\n        if (harnessExchangeRateStored) {\n            return (MathError.NO_ERROR, harnessExchangeRate);\n        }\n        return super.exchangeRateStoredInternal();\n    }\n\n    function doTransferOut(address payable to, uint amount) internal {\n        require(failTransferToAddresses[to] == false, \"TOKEN_TRANSFER_OUT_FAILED\");\n        return super.doTransferOut(to, amount);\n    }\n\n    function getBlockNumber() internal view returns (uint) {\n        return blockNumber;\n    }\n\n    function getBorrowRateMaxMantissa() public pure returns (uint) {\n        return borrowRateMaxMantissa;\n    }\n\n    function harnessSetBlockNumber(uint newBlockNumber) public {\n        blockNumber = newBlockNumber;\n    }\n\n    function harnessFastForward(uint blocks) public {\n        blockNumber += blocks;\n    }\n\n    function harnessSetBalance(address account, uint amount) external {\n        accountTokens[account] = amount;\n    }\n\n    function harnessSetAccrualBlockNumber(uint _accrualblockNumber) public {\n        accrualBlockNumber = _accrualblockNumber;\n    }\n\n    function harnessSetTotalSupply(uint totalSupply_) public {\n        totalSupply = totalSupply_;\n    }\n\n    function harnessSetTotalBorrows(uint totalBorrows_) public {\n        totalBorrows = totalBorrows_;\n    }\n\n    function harnessIncrementTotalBorrows(uint addtlBorrow_) public {\n        totalBorrows = totalBorrows + addtlBorrow_;\n    }\n\n    function harnessSetTotalReserves(uint totalReserves_) public {\n        totalReserves = totalReserves_;\n    }\n\n    function harnessExchangeRateDetails(uint totalSupply_, uint totalBorrows_, uint totalReserves_) public {\n        totalSupply = totalSupply_;\n        totalBorrows = totalBorrows_;\n        totalReserves = totalReserves_;\n    }\n\n    function harnessSetExchangeRate(uint exchangeRate) public {\n        harnessExchangeRate = exchangeRate;\n        harnessExchangeRateStored = true;\n    }\n\n    function harnessSetFailTransferToAddress(address _to, bool _fail) public {\n        failTransferToAddresses[_to] = _fail;\n    }\n\n    function harnessMintFresh(address account, uint mintAmount) public returns (uint) {\n        (uint err,) = super.mintFresh(account, mintAmount);\n        return err;\n    }\n\n    function harnessRedeemFresh(address payable account, uint cTokenAmount, uint underlyingAmount) public returns (uint) {\n        return super.redeemFresh(account, cTokenAmount, underlyingAmount);\n    }\n\n    function harnessAccountBorrows(address account) public view returns (uint principal, uint interestIndex) {\n        BorrowSnapshot memory snapshot = accountBorrows[account];\n        return (snapshot.principal, snapshot.interestIndex);\n    }\n\n    function harnessSetAccountBorrows(address account, uint principal, uint interestIndex) public {\n        accountBorrows[account] = BorrowSnapshot({principal: principal, interestIndex: interestIndex});\n    }\n\n    function harnessSetBorrowIndex(uint borrowIndex_) public {\n        borrowIndex = borrowIndex_;\n    }\n\n    function harnessBorrowFresh(address payable account, uint borrowAmount) public returns (uint) {\n        return borrowFresh(account, borrowAmount);\n    }\n\n    function harnessRepayBorrowFresh(address payer, address account, uint repayAmount) public returns (uint) {\n        (uint err,) = repayBorrowFresh(payer, account, repayAmount);\n        return err;\n    }\n\n    function harnessLiquidateBorrowFresh(address liquidator, address borrower, uint repayAmount, CToken cTokenCollateral) public returns (uint) {\n        (uint err,) = liquidateBorrowFresh(liquidator, borrower, repayAmount, cTokenCollateral);\n        return err;\n    }\n\n    function harnessReduceReservesFresh(uint amount) public returns (uint) {\n        return _reduceReservesFresh(amount);\n    }\n\n    function harnessSetReserveFactorFresh(uint newReserveFactorMantissa) public returns (uint) {\n        return _setReserveFactorFresh(newReserveFactorMantissa);\n    }\n\n    function harnessSetInterestRateModelFresh(InterestRateModel newInterestRateModel) public returns (uint) {\n        return _setInterestRateModelFresh(newInterestRateModel);\n    }\n\n    function harnessSetInterestRateModel(address newInterestRateModelAddress) public {\n        interestRateModel = InterestRateModel(newInterestRateModelAddress);\n    }\n\n    function harnessCallBorrowAllowed(uint amount) public returns (uint) {\n        return comptroller.borrowAllowed(address(this), msg.sender, amount);\n    }\n}\n\ncontract CErc20DelegateScenario is CErc20Delegate {\n    constructor() public {}\n\n    function setTotalBorrows(uint totalBorrows_) public {\n        totalBorrows = totalBorrows_;\n    }\n\n    function setTotalReserves(uint totalReserves_) public {\n        totalReserves = totalReserves_;\n    }\n\n    function getBlockNumber() internal view returns (uint) {\n        ComptrollerScenario comptrollerScenario = ComptrollerScenario(address(comptroller));\n        return comptrollerScenario.blockNumber();\n    }\n}\n\ncontract CErc20DelegateScenarioExtra is CErc20DelegateScenario {\n    function iHaveSpoken() public pure returns (string memory) {\n      return \"i have spoken\";\n    }\n\n    function itIsTheWay() public {\n      admin = address(1); // make a change to test effect\n    }\n\n    function babyYoda() public pure {\n      revert(\"protect the baby\");\n    }\n}\n\ncontract CDaiDelegateHarness is CDaiDelegate {\n    uint blockNumber = 100000;\n    uint harnessExchangeRate;\n    bool harnessExchangeRateStored;\n\n    function harnessFastForward(uint blocks) public {\n        blockNumber += blocks;\n    }\n\n    function harnessSetAccrualBlockNumber(uint _accrualblockNumber) public {\n        accrualBlockNumber = _accrualblockNumber;\n    }\n\n    function harnessSetBalance(address account, uint amount) external {\n        accountTokens[account] = amount;\n    }\n\n    function harnessSetBlockNumber(uint newBlockNumber) public {\n        blockNumber = newBlockNumber;\n    }\n\n    function harnessSetExchangeRate(uint exchangeRate) public {\n        harnessExchangeRate = exchangeRate;\n        harnessExchangeRateStored = true;\n    }\n\n    function harnessSetTotalSupply(uint totalSupply_) public {\n        totalSupply = totalSupply_;\n    }\n\n    function getBlockNumber() internal view returns (uint) {\n        return blockNumber;\n    }\n}\n\ncontract CDaiDelegateScenario is CDaiDelegate {\n    function setTotalBorrows(uint totalBorrows_) public {\n        totalBorrows = totalBorrows_;\n    }\n\n    function setTotalReserves(uint totalReserves_) public {\n        totalReserves = totalReserves_;\n    }\n\n    function getBlockNumber() internal view returns (uint) {\n        ComptrollerScenario comptrollerScenario = ComptrollerScenario(address(comptroller));\n        return comptrollerScenario.blockNumber();\n    }\n}\n\ncontract CDaiDelegateMakerHarness is PotLike, VatLike, GemLike, DaiJoinLike {\n    /* Pot */\n\n    // exchangeRate\n    function chi() external view returns (uint) { return 1; }\n\n    // totalSupply\n    function pie(address) external view returns (uint) { return 0; }\n\n    // accrueInterest -> new exchangeRate\n    function drip() external returns (uint) { return 0; }\n\n    // mint\n    function join(uint) external {}\n\n    // redeem\n    function exit(uint) external {}\n\n    /* Vat */\n\n    // internal dai balance\n    function dai(address) external view returns (uint) { return 0; }\n\n    // approve pot transfer\n    function hope(address) external {}\n\n    /* Gem (Dai) */\n\n    uint public totalSupply;\n    mapping (address => mapping (address => uint)) public allowance;\n    mapping (address => uint) public balanceOf;\n    function approve(address, uint) external {}\n    function transferFrom(address src, address dst, uint amount) external returns (bool) {\n        balanceOf[src] -= amount;\n        balanceOf[dst] += amount;\n        return true;\n    }\n\n    function harnessSetBalance(address account, uint amount) external {\n        balanceOf[account] = amount;\n    }\n\n    /* DaiJoin */\n\n    // vat contract\n    function vat() external returns (VatLike) { return this; }\n\n    // dai contract\n    function dai() external returns (GemLike) { return this; }\n\n    // dai -> internal dai\n    function join(address, uint) external payable {}\n\n    // internal dai transfer out\n    function exit(address, uint) external {}\n}\n",
  "sourcePath": "/Users/yanyichun/project/Savings/contracts/compound/test/Contracts/CErc20Harness.sol",
  "compiler": {
    "name": "solc",
    "version": "0.5.14+commit.01f1aaa4.Emscripten.clang"
  },
  "schemaVersion": "3.2.3",
  "updatedAt": "2021-02-25T05:55:40.808Z",
  "devdoc": {
    "methods": {
      "_acceptAdmin()": {
        "details": "Admin function for pending admin to accept role and update admin",
        "return": "uint 0=success, otherwise a failure (see ErrorReporter.sol for details)"
      },
      "_addReserves(uint256)": {
        "params": {
          "addAmount": "The amount fo underlying token to add as reserves"
        },
        "return": "uint 0=success, otherwise a failure (see ErrorReporter.sol for details)"
      },
      "_becomeImplementation(bytes)": {
        "params": {
          "data": "The encoded bytes data for any initialization"
        }
      },
      "_reduceReserves(uint256)": {
        "params": {
          "reduceAmount": "Amount of reduction to reserves"
        },
        "return": "uint 0=success, otherwise a failure (see ErrorReporter.sol for details)"
      },
      "_setComptroller(address)": {
        "details": "Admin function to set a new comptroller",
        "return": "uint 0=success, otherwise a failure (see ErrorReporter.sol for details)"
      },
      "_setInterestRateModel(address)": {
        "details": "Admin function to accrue interest and update the interest rate model",
        "params": {
          "newInterestRateModel": "the new interest rate model to use"
        },
        "return": "uint 0=success, otherwise a failure (see ErrorReporter.sol for details)"
      },
      "_setPendingAdmin(address)": {
        "details": "Admin function to begin change of admin. The newPendingAdmin must call `_acceptAdmin` to finalize the transfer.",
        "params": {
          "newPendingAdmin": "New pending admin."
        },
        "return": "uint 0=success, otherwise a failure (see ErrorReporter.sol for details)"
      },
      "_setReserveFactor(uint256)": {
        "details": "Admin function to accrue interest and set a new reserve factor",
        "return": "uint 0=success, otherwise a failure (see ErrorReporter.sol for details)"
      },
      "accrueInterest()": {
        "details": "This calculates interest accrued from the last checkpointed block  up to the current block and writes new checkpoint to storage."
      },
      "allowance(address,address)": {
        "params": {
          "owner": "The address of the account which owns the tokens to be spent",
          "spender": "The address of the account which may transfer tokens"
        },
        "return": "The number of tokens allowed to be spent (-1 means infinite)"
      },
      "approve(address,uint256)": {
        "details": "This will overwrite the approval amount for `spender` and is subject to issues noted [here](https://eips.ethereum.org/EIPS/eip-20#approve)",
        "params": {
          "amount": "The number of tokens that are approved (-1 means infinite)",
          "spender": "The address of the account which may transfer tokens"
        },
        "return": "Whether or not the approval succeeded"
      },
      "balanceOf(address)": {
        "params": {
          "owner": "The address of the account to query"
        },
        "return": "The number of tokens owned by `owner`"
      },
      "balanceOfUnderlying(address)": {
        "details": "This also accrues interest in a transaction",
        "params": {
          "owner": "The address of the account to query"
        },
        "return": "The amount of underlying owned by `owner`"
      },
      "borrow(uint256)": {
        "params": {
          "borrowAmount": "The amount of the underlying asset to borrow"
        },
        "return": "uint 0=success, otherwise a failure (see ErrorReporter.sol for details)"
      },
      "borrowBalanceCurrent(address)": {
        "params": {
          "account": "The address whose balance should be calculated after updating borrowIndex"
        },
        "return": "The calculated balance"
      },
      "borrowBalanceStored(address)": {
        "params": {
          "account": "The address whose balance should be calculated"
        },
        "return": "The calculated balance"
      },
      "borrowRatePerBlock()": {
        "return": "The borrow interest rate per block, scaled by 1e18"
      },
      "exchangeRateCurrent()": {
        "return": "Calculated exchange rate scaled by 1e18"
      },
      "exchangeRateStored()": {
        "details": "This function does not accrue interest before calculating the exchange rate",
        "return": "Calculated exchange rate scaled by 1e18"
      },
      "getAccountSnapshot(address)": {
        "details": "This is used by comptroller to more efficiently perform liquidity checks.",
        "params": {
          "account": "Address of the account to snapshot"
        },
        "return": "(possible error, token balance, borrow balance, exchange rate mantissa)"
      },
      "getCash()": {
        "return": "The quantity of underlying asset owned by this contract"
      },
      "initialize(address,address,address,uint256,string,string,uint8)": {
        "params": {
          "comptroller_": "The address of the Comptroller",
          "decimals_": "ERC-20 decimal precision of this token",
          "initialExchangeRateMantissa_": "The initial exchange rate, scaled by 1e18",
          "interestRateModel_": "The address of the interest rate model",
          "name_": "ERC-20 name of this token",
          "symbol_": "ERC-20 symbol of this token",
          "underlying_": "The address of the underlying asset"
        }
      },
      "initialize(address,address,uint256,string,string,uint8)": {
        "params": {
          "comptroller_": "The address of the Comptroller",
          "decimals_": "EIP-20 decimal precision of this token",
          "initialExchangeRateMantissa_": "The initial exchange rate, scaled by 1e18",
          "interestRateModel_": "The address of the interest rate model",
          "name_": "EIP-20 name of this token",
          "symbol_": "EIP-20 symbol of this token"
        }
      },
      "liquidateBorrow(address,uint256,address)": {
        "params": {
          "borrower": "The borrower of this cToken to be liquidated",
          "cTokenCollateral": "The market in which to seize collateral from the borrower",
          "repayAmount": "The amount of the underlying borrowed asset to repay"
        },
        "return": "uint 0=success, otherwise a failure (see ErrorReporter.sol for details)"
      },
      "mint(uint256)": {
        "details": "Accrues interest whether or not the operation succeeds, unless reverted",
        "params": {
          "mintAmount": "The amount of the underlying asset to supply"
        },
        "return": "uint 0=success, otherwise a failure (see ErrorReporter.sol for details)"
      },
      "redeem(uint256)": {
        "details": "Accrues interest whether or not the operation succeeds, unless reverted",
        "params": {
          "redeemTokens": "The number of cTokens to redeem into underlying"
        },
        "return": "uint 0=success, otherwise a failure (see ErrorReporter.sol for details)"
      },
      "redeemUnderlying(uint256)": {
        "details": "Accrues interest whether or not the operation succeeds, unless reverted",
        "params": {
          "redeemAmount": "The amount of underlying to redeem"
        },
        "return": "uint 0=success, otherwise a failure (see ErrorReporter.sol for details)"
      },
      "repayBorrow(uint256)": {
        "params": {
          "repayAmount": "The amount to repay"
        },
        "return": "uint 0=success, otherwise a failure (see ErrorReporter.sol for details)"
      },
      "repayBorrowBehalf(address,uint256)": {
        "params": {
          "borrower": "the account with the debt being payed off",
          "repayAmount": "The amount to repay"
        },
        "return": "uint 0=success, otherwise a failure (see ErrorReporter.sol for details)"
      },
      "seize(address,address,uint256)": {
        "details": "Will fail unless called by another cToken during the process of liquidation. Its absolutely critical to use msg.sender as the borrowed cToken and not a parameter.",
        "params": {
          "borrower": "The account having collateral seized",
          "liquidator": "The account receiving seized collateral",
          "seizeTokens": "The number of cTokens to seize"
        },
        "return": "uint 0=success, otherwise a failure (see ErrorReporter.sol for details)"
      },
      "supplyRatePerBlock()": {
        "return": "The supply interest rate per block, scaled by 1e18"
      },
      "totalBorrowsCurrent()": {
        "return": "The total borrows with interest"
      },
      "transfer(address,uint256)": {
        "params": {
          "amount": "The number of tokens to transfer",
          "dst": "The address of the destination account"
        },
        "return": "Whether or not the transfer succeeded"
      },
      "transferFrom(address,address,uint256)": {
        "params": {
          "amount": "The number of tokens to transfer",
          "dst": "The address of the destination account",
          "src": "The address of the source account"
        },
        "return": "Whether or not the transfer succeeded"
      }
    }
  },
  "userdoc": {
    "methods": {
      "_acceptAdmin()": {
        "notice": "Accepts transfer of admin rights. msg.sender must be pendingAdmin"
      },
      "_addReserves(uint256)": {
        "notice": "The sender adds to reserves."
      },
      "_becomeImplementation(bytes)": {
        "notice": "Called by the delegator on a delegate to initialize it for duty"
      },
      "_reduceReserves(uint256)": {
        "notice": "Accrues interest and reduces reserves by transferring to admin"
      },
      "_resignImplementation()": {
        "notice": "Called by the delegator on a delegate to forfeit its responsibility"
      },
      "_setComptroller(address)": {
        "notice": "Sets a new comptroller for the market"
      },
      "_setInterestRateModel(address)": {
        "notice": "accrues interest and updates the interest rate model using _setInterestRateModelFresh"
      },
      "_setPendingAdmin(address)": {
        "notice": "Begins transfer of admin rights. The newPendingAdmin must call `_acceptAdmin` to finalize the transfer."
      },
      "_setReserveFactor(uint256)": {
        "notice": "accrues interest and sets a new reserve factor for the protocol using _setReserveFactorFresh"
      },
      "accrueInterest()": {
        "notice": "Applies accrued interest to total borrows and reserves"
      },
      "allowance(address,address)": {
        "notice": "Get the current allowance from `owner` for `spender`"
      },
      "approve(address,uint256)": {
        "notice": "Approve `spender` to transfer up to `amount` from `src`"
      },
      "balanceOf(address)": {
        "notice": "Get the token balance of the `owner`"
      },
      "balanceOfUnderlying(address)": {
        "notice": "Get the underlying balance of the `owner`"
      },
      "borrow(uint256)": {
        "notice": "Sender borrows assets from the protocol to their own address"
      },
      "borrowBalanceCurrent(address)": {
        "notice": "Accrue interest to updated borrowIndex and then calculate account's borrow balance using the updated borrowIndex"
      },
      "borrowBalanceStored(address)": {
        "notice": "Return the borrow balance of account based on stored data"
      },
      "borrowRatePerBlock()": {
        "notice": "Returns the current per-block borrow interest rate for this cToken"
      },
      "exchangeRateCurrent()": {
        "notice": "Accrue interest then return the up-to-date exchange rate"
      },
      "exchangeRateStored()": {
        "notice": "Calculates the exchange rate from the underlying to the CToken"
      },
      "getAccountSnapshot(address)": {
        "notice": "Get a snapshot of the account's balances, and the cached exchange rate"
      },
      "getCash()": {
        "notice": "Get cash balance of this cToken in the underlying asset"
      },
      "initialize(address,address,address,uint256,string,string,uint8)": {
        "notice": "Initialize the new money market"
      },
      "initialize(address,address,uint256,string,string,uint8)": {
        "notice": "Initialize the money market"
      },
      "liquidateBorrow(address,uint256,address)": {
        "notice": "The sender liquidates the borrowers collateral. The collateral seized is transferred to the liquidator."
      },
      "mint(uint256)": {
        "notice": "Sender supplies assets into the market and receives cTokens in exchange"
      },
      "redeem(uint256)": {
        "notice": "Sender redeems cTokens in exchange for the underlying asset"
      },
      "redeemUnderlying(uint256)": {
        "notice": "Sender redeems cTokens in exchange for a specified amount of underlying asset"
      },
      "repayBorrow(uint256)": {
        "notice": "Sender repays their own borrow"
      },
      "repayBorrowBehalf(address,uint256)": {
        "notice": "Sender repays a borrow belonging to borrower"
      },
      "seize(address,address,uint256)": {
        "notice": "Transfers collateral tokens (this market) to the liquidator."
      },
      "supplyRatePerBlock()": {
        "notice": "Returns the current per-block supply interest rate for this cToken"
      },
      "totalBorrowsCurrent()": {
        "notice": "Returns the current total borrows plus accrued interest"
      },
      "transfer(address,uint256)": {
        "notice": "Transfer `amount` tokens from `msg.sender` to `dst`"
      },
      "transferFrom(address,address,uint256)": {
        "notice": "Transfer `amount` tokens from `src` to `dst`"
      }
    }
  }
}