{
  "contractName": "CEtherScenario",
  "abi": [
    {
      "inputs": [
        {
          "internalType": "string",
          "name": "name_",
          "type": "string"
        },
        {
          "internalType": "string",
          "name": "symbol_",
          "type": "string"
        },
        {
          "internalType": "uint8",
          "name": "decimals_",
          "type": "uint8"
        },
        {
          "internalType": "address payable",
          "name": "admin_",
          "type": "address"
        },
        {
          "internalType": "contract ComptrollerInterface",
          "name": "comptroller_",
          "type": "address"
        },
        {
          "internalType": "contract InterestRateModel",
          "name": "interestRateModel_",
          "type": "address"
        },
        {
          "internalType": "uint256",
          "name": "initialExchangeRateMantissa",
          "type": "uint256"
        }
      ],
      "payable": false,
      "stateMutability": "nonpayable",
      "type": "constructor"
    },
    {
      "anonymous": false,
      "inputs": [
        {
          "indexed": false,
          "internalType": "uint256",
          "name": "cashPrior",
          "type": "uint256"
        },
        {
          "indexed": false,
          "internalType": "uint256",
          "name": "interestAccumulated",
          "type": "uint256"
        },
        {
          "indexed": false,
          "internalType": "uint256",
          "name": "borrowIndex",
          "type": "uint256"
        },
        {
          "indexed": false,
          "internalType": "uint256",
          "name": "totalBorrows",
          "type": "uint256"
        }
      ],
      "name": "AccrueInterest",
      "type": "event"
    },
    {
      "anonymous": false,
      "inputs": [
        {
          "indexed": true,
          "internalType": "address",
          "name": "owner",
          "type": "address"
        },
        {
          "indexed": true,
          "internalType": "address",
          "name": "spender",
          "type": "address"
        },
        {
          "indexed": false,
          "internalType": "uint256",
          "name": "amount",
          "type": "uint256"
        }
      ],
      "name": "Approval",
      "type": "event"
    },
    {
      "anonymous": false,
      "inputs": [
        {
          "indexed": false,
          "internalType": "address",
          "name": "borrower",
          "type": "address"
        },
        {
          "indexed": false,
          "internalType": "uint256",
          "name": "borrowAmount",
          "type": "uint256"
        },
        {
          "indexed": false,
          "internalType": "uint256",
          "name": "accountBorrows",
          "type": "uint256"
        },
        {
          "indexed": false,
          "internalType": "uint256",
          "name": "totalBorrows",
          "type": "uint256"
        }
      ],
      "name": "Borrow",
      "type": "event"
    },
    {
      "anonymous": false,
      "inputs": [
        {
          "indexed": false,
          "internalType": "uint256",
          "name": "error",
          "type": "uint256"
        },
        {
          "indexed": false,
          "internalType": "uint256",
          "name": "info",
          "type": "uint256"
        },
        {
          "indexed": false,
          "internalType": "uint256",
          "name": "detail",
          "type": "uint256"
        }
      ],
      "name": "Failure",
      "type": "event"
    },
    {
      "anonymous": false,
      "inputs": [
        {
          "indexed": false,
          "internalType": "address",
          "name": "liquidator",
          "type": "address"
        },
        {
          "indexed": false,
          "internalType": "address",
          "name": "borrower",
          "type": "address"
        },
        {
          "indexed": false,
          "internalType": "uint256",
          "name": "repayAmount",
          "type": "uint256"
        },
        {
          "indexed": false,
          "internalType": "address",
          "name": "cTokenCollateral",
          "type": "address"
        },
        {
          "indexed": false,
          "internalType": "uint256",
          "name": "seizeTokens",
          "type": "uint256"
        }
      ],
      "name": "LiquidateBorrow",
      "type": "event"
    },
    {
      "anonymous": false,
      "inputs": [
        {
          "indexed": false,
          "internalType": "address",
          "name": "minter",
          "type": "address"
        },
        {
          "indexed": false,
          "internalType": "uint256",
          "name": "mintAmount",
          "type": "uint256"
        },
        {
          "indexed": false,
          "internalType": "uint256",
          "name": "mintTokens",
          "type": "uint256"
        }
      ],
      "name": "Mint",
      "type": "event"
    },
    {
      "anonymous": false,
      "inputs": [
        {
          "indexed": false,
          "internalType": "address",
          "name": "oldAdmin",
          "type": "address"
        },
        {
          "indexed": false,
          "internalType": "address",
          "name": "newAdmin",
          "type": "address"
        }
      ],
      "name": "NewAdmin",
      "type": "event"
    },
    {
      "anonymous": false,
      "inputs": [
        {
          "indexed": false,
          "internalType": "contract ComptrollerInterface",
          "name": "oldComptroller",
          "type": "address"
        },
        {
          "indexed": false,
          "internalType": "contract ComptrollerInterface",
          "name": "newComptroller",
          "type": "address"
        }
      ],
      "name": "NewComptroller",
      "type": "event"
    },
    {
      "anonymous": false,
      "inputs": [
        {
          "indexed": false,
          "internalType": "contract InterestRateModel",
          "name": "oldInterestRateModel",
          "type": "address"
        },
        {
          "indexed": false,
          "internalType": "contract InterestRateModel",
          "name": "newInterestRateModel",
          "type": "address"
        }
      ],
      "name": "NewMarketInterestRateModel",
      "type": "event"
    },
    {
      "anonymous": false,
      "inputs": [
        {
          "indexed": false,
          "internalType": "address",
          "name": "oldPendingAdmin",
          "type": "address"
        },
        {
          "indexed": false,
          "internalType": "address",
          "name": "newPendingAdmin",
          "type": "address"
        }
      ],
      "name": "NewPendingAdmin",
      "type": "event"
    },
    {
      "anonymous": false,
      "inputs": [
        {
          "indexed": false,
          "internalType": "uint256",
          "name": "oldReserveFactorMantissa",
          "type": "uint256"
        },
        {
          "indexed": false,
          "internalType": "uint256",
          "name": "newReserveFactorMantissa",
          "type": "uint256"
        }
      ],
      "name": "NewReserveFactor",
      "type": "event"
    },
    {
      "anonymous": false,
      "inputs": [
        {
          "indexed": false,
          "internalType": "address",
          "name": "redeemer",
          "type": "address"
        },
        {
          "indexed": false,
          "internalType": "uint256",
          "name": "redeemAmount",
          "type": "uint256"
        },
        {
          "indexed": false,
          "internalType": "uint256",
          "name": "redeemTokens",
          "type": "uint256"
        }
      ],
      "name": "Redeem",
      "type": "event"
    },
    {
      "anonymous": false,
      "inputs": [
        {
          "indexed": false,
          "internalType": "address",
          "name": "payer",
          "type": "address"
        },
        {
          "indexed": false,
          "internalType": "address",
          "name": "borrower",
          "type": "address"
        },
        {
          "indexed": false,
          "internalType": "uint256",
          "name": "repayAmount",
          "type": "uint256"
        },
        {
          "indexed": false,
          "internalType": "uint256",
          "name": "accountBorrows",
          "type": "uint256"
        },
        {
          "indexed": false,
          "internalType": "uint256",
          "name": "totalBorrows",
          "type": "uint256"
        }
      ],
      "name": "RepayBorrow",
      "type": "event"
    },
    {
      "anonymous": false,
      "inputs": [
        {
          "indexed": false,
          "internalType": "address",
          "name": "benefactor",
          "type": "address"
        },
        {
          "indexed": false,
          "internalType": "uint256",
          "name": "addAmount",
          "type": "uint256"
        },
        {
          "indexed": false,
          "internalType": "uint256",
          "name": "newTotalReserves",
          "type": "uint256"
        }
      ],
      "name": "ReservesAdded",
      "type": "event"
    },
    {
      "anonymous": false,
      "inputs": [
        {
          "indexed": false,
          "internalType": "address",
          "name": "admin",
          "type": "address"
        },
        {
          "indexed": false,
          "internalType": "uint256",
          "name": "reduceAmount",
          "type": "uint256"
        },
        {
          "indexed": false,
          "internalType": "uint256",
          "name": "newTotalReserves",
          "type": "uint256"
        }
      ],
      "name": "ReservesReduced",
      "type": "event"
    },
    {
      "anonymous": false,
      "inputs": [
        {
          "indexed": true,
          "internalType": "address",
          "name": "from",
          "type": "address"
        },
        {
          "indexed": true,
          "internalType": "address",
          "name": "to",
          "type": "address"
        },
        {
          "indexed": false,
          "internalType": "uint256",
          "name": "amount",
          "type": "uint256"
        }
      ],
      "name": "Transfer",
      "type": "event"
    },
    {
      "payable": true,
      "stateMutability": "payable",
      "type": "fallback"
    },
    {
      "constant": false,
      "inputs": [],
      "name": "_acceptAdmin",
      "outputs": [
        {
          "internalType": "uint256",
          "name": "",
          "type": "uint256"
        }
      ],
      "payable": false,
      "stateMutability": "nonpayable",
      "type": "function"
    },
    {
      "constant": false,
      "inputs": [
        {
          "internalType": "uint256",
          "name": "reduceAmount",
          "type": "uint256"
        }
      ],
      "name": "_reduceReserves",
      "outputs": [
        {
          "internalType": "uint256",
          "name": "",
          "type": "uint256"
        }
      ],
      "payable": false,
      "stateMutability": "nonpayable",
      "type": "function"
    },
    {
      "constant": false,
      "inputs": [
        {
          "internalType": "contract ComptrollerInterface",
          "name": "newComptroller",
          "type": "address"
        }
      ],
      "name": "_setComptroller",
      "outputs": [
        {
          "internalType": "uint256",
          "name": "",
          "type": "uint256"
        }
      ],
      "payable": false,
      "stateMutability": "nonpayable",
      "type": "function"
    },
    {
      "constant": false,
      "inputs": [
        {
          "internalType": "contract InterestRateModel",
          "name": "newInterestRateModel",
          "type": "address"
        }
      ],
      "name": "_setInterestRateModel",
      "outputs": [
        {
          "internalType": "uint256",
          "name": "",
          "type": "uint256"
        }
      ],
      "payable": false,
      "stateMutability": "nonpayable",
      "type": "function"
    },
    {
      "constant": false,
      "inputs": [
        {
          "internalType": "address payable",
          "name": "newPendingAdmin",
          "type": "address"
        }
      ],
      "name": "_setPendingAdmin",
      "outputs": [
        {
          "internalType": "uint256",
          "name": "",
          "type": "uint256"
        }
      ],
      "payable": false,
      "stateMutability": "nonpayable",
      "type": "function"
    },
    {
      "constant": false,
      "inputs": [
        {
          "internalType": "uint256",
          "name": "newReserveFactorMantissa",
          "type": "uint256"
        }
      ],
      "name": "_setReserveFactor",
      "outputs": [
        {
          "internalType": "uint256",
          "name": "",
          "type": "uint256"
        }
      ],
      "payable": false,
      "stateMutability": "nonpayable",
      "type": "function"
    },
    {
      "constant": true,
      "inputs": [],
      "name": "accrualBlockNumber",
      "outputs": [
        {
          "internalType": "uint256",
          "name": "",
          "type": "uint256"
        }
      ],
      "payable": false,
      "stateMutability": "view",
      "type": "function"
    },
    {
      "constant": false,
      "inputs": [],
      "name": "accrueInterest",
      "outputs": [
        {
          "internalType": "uint256",
          "name": "",
          "type": "uint256"
        }
      ],
      "payable": false,
      "stateMutability": "nonpayable",
      "type": "function"
    },
    {
      "constant": true,
      "inputs": [],
      "name": "admin",
      "outputs": [
        {
          "internalType": "address payable",
          "name": "",
          "type": "address"
        }
      ],
      "payable": false,
      "stateMutability": "view",
      "type": "function"
    },
    {
      "constant": true,
      "inputs": [
        {
          "internalType": "address",
          "name": "owner",
          "type": "address"
        },
        {
          "internalType": "address",
          "name": "spender",
          "type": "address"
        }
      ],
      "name": "allowance",
      "outputs": [
        {
          "internalType": "uint256",
          "name": "",
          "type": "uint256"
        }
      ],
      "payable": false,
      "stateMutability": "view",
      "type": "function"
    },
    {
      "constant": false,
      "inputs": [
        {
          "internalType": "address",
          "name": "spender",
          "type": "address"
        },
        {
          "internalType": "uint256",
          "name": "amount",
          "type": "uint256"
        }
      ],
      "name": "approve",
      "outputs": [
        {
          "internalType": "bool",
          "name": "",
          "type": "bool"
        }
      ],
      "payable": false,
      "stateMutability": "nonpayable",
      "type": "function"
    },
    {
      "constant": true,
      "inputs": [
        {
          "internalType": "address",
          "name": "owner",
          "type": "address"
        }
      ],
      "name": "balanceOf",
      "outputs": [
        {
          "internalType": "uint256",
          "name": "",
          "type": "uint256"
        }
      ],
      "payable": false,
      "stateMutability": "view",
      "type": "function"
    },
    {
      "constant": false,
      "inputs": [
        {
          "internalType": "address",
          "name": "owner",
          "type": "address"
        }
      ],
      "name": "balanceOfUnderlying",
      "outputs": [
        {
          "internalType": "uint256",
          "name": "",
          "type": "uint256"
        }
      ],
      "payable": false,
      "stateMutability": "nonpayable",
      "type": "function"
    },
    {
      "constant": false,
      "inputs": [
        {
          "internalType": "uint256",
          "name": "borrowAmount",
          "type": "uint256"
        }
      ],
      "name": "borrow",
      "outputs": [
        {
          "internalType": "uint256",
          "name": "",
          "type": "uint256"
        }
      ],
      "payable": false,
      "stateMutability": "nonpayable",
      "type": "function"
    },
    {
      "constant": false,
      "inputs": [
        {
          "internalType": "address",
          "name": "account",
          "type": "address"
        }
      ],
      "name": "borrowBalanceCurrent",
      "outputs": [
        {
          "internalType": "uint256",
          "name": "",
          "type": "uint256"
        }
      ],
      "payable": false,
      "stateMutability": "nonpayable",
      "type": "function"
    },
    {
      "constant": true,
      "inputs": [
        {
          "internalType": "address",
          "name": "account",
          "type": "address"
        }
      ],
      "name": "borrowBalanceStored",
      "outputs": [
        {
          "internalType": "uint256",
          "name": "",
          "type": "uint256"
        }
      ],
      "payable": false,
      "stateMutability": "view",
      "type": "function"
    },
    {
      "constant": true,
      "inputs": [],
      "name": "borrowIndex",
      "outputs": [
        {
          "internalType": "uint256",
          "name": "",
          "type": "uint256"
        }
      ],
      "payable": false,
      "stateMutability": "view",
      "type": "function"
    },
    {
      "constant": true,
      "inputs": [],
      "name": "borrowRatePerBlock",
      "outputs": [
        {
          "internalType": "uint256",
          "name": "",
          "type": "uint256"
        }
      ],
      "payable": false,
      "stateMutability": "view",
      "type": "function"
    },
    {
      "constant": true,
      "inputs": [],
      "name": "comptroller",
      "outputs": [
        {
          "internalType": "contract ComptrollerInterface",
          "name": "",
          "type": "address"
        }
      ],
      "payable": false,
      "stateMutability": "view",
      "type": "function"
    },
    {
      "constant": true,
      "inputs": [],
      "name": "decimals",
      "outputs": [
        {
          "internalType": "uint8",
          "name": "",
          "type": "uint8"
        }
      ],
      "payable": false,
      "stateMutability": "view",
      "type": "function"
    },
    {
      "constant": false,
      "inputs": [],
      "name": "exchangeRateCurrent",
      "outputs": [
        {
          "internalType": "uint256",
          "name": "",
          "type": "uint256"
        }
      ],
      "payable": false,
      "stateMutability": "nonpayable",
      "type": "function"
    },
    {
      "constant": true,
      "inputs": [],
      "name": "exchangeRateStored",
      "outputs": [
        {
          "internalType": "uint256",
          "name": "",
          "type": "uint256"
        }
      ],
      "payable": false,
      "stateMutability": "view",
      "type": "function"
    },
    {
      "constant": true,
      "inputs": [
        {
          "internalType": "address",
          "name": "account",
          "type": "address"
        }
      ],
      "name": "getAccountSnapshot",
      "outputs": [
        {
          "internalType": "uint256",
          "name": "",
          "type": "uint256"
        },
        {
          "internalType": "uint256",
          "name": "",
          "type": "uint256"
        },
        {
          "internalType": "uint256",
          "name": "",
          "type": "uint256"
        },
        {
          "internalType": "uint256",
          "name": "",
          "type": "uint256"
        }
      ],
      "payable": false,
      "stateMutability": "view",
      "type": "function"
    },
    {
      "constant": true,
      "inputs": [],
      "name": "getCash",
      "outputs": [
        {
          "internalType": "uint256",
          "name": "",
          "type": "uint256"
        }
      ],
      "payable": false,
      "stateMutability": "view",
      "type": "function"
    },
    {
      "constant": false,
      "inputs": [
        {
          "internalType": "contract ComptrollerInterface",
          "name": "comptroller_",
          "type": "address"
        },
        {
          "internalType": "contract InterestRateModel",
          "name": "interestRateModel_",
          "type": "address"
        },
        {
          "internalType": "uint256",
          "name": "initialExchangeRateMantissa_",
          "type": "uint256"
        },
        {
          "internalType": "string",
          "name": "name_",
          "type": "string"
        },
        {
          "internalType": "string",
          "name": "symbol_",
          "type": "string"
        },
        {
          "internalType": "uint8",
          "name": "decimals_",
          "type": "uint8"
        }
      ],
      "name": "initialize",
      "outputs": [],
      "payable": false,
      "stateMutability": "nonpayable",
      "type": "function"
    },
    {
      "constant": true,
      "inputs": [],
      "name": "interestRateModel",
      "outputs": [
        {
          "internalType": "contract InterestRateModel",
          "name": "",
          "type": "address"
        }
      ],
      "payable": false,
      "stateMutability": "view",
      "type": "function"
    },
    {
      "constant": true,
      "inputs": [],
      "name": "isCToken",
      "outputs": [
        {
          "internalType": "bool",
          "name": "",
          "type": "bool"
        }
      ],
      "payable": false,
      "stateMutability": "view",
      "type": "function"
    },
    {
      "constant": false,
      "inputs": [
        {
          "internalType": "address",
          "name": "borrower",
          "type": "address"
        },
        {
          "internalType": "contract CToken",
          "name": "cTokenCollateral",
          "type": "address"
        }
      ],
      "name": "liquidateBorrow",
      "outputs": [],
      "payable": true,
      "stateMutability": "payable",
      "type": "function"
    },
    {
      "constant": false,
      "inputs": [],
      "name": "mint",
      "outputs": [],
      "payable": true,
      "stateMutability": "payable",
      "type": "function"
    },
    {
      "constant": true,
      "inputs": [],
      "name": "name",
      "outputs": [
        {
          "internalType": "string",
          "name": "",
          "type": "string"
        }
      ],
      "payable": false,
      "stateMutability": "view",
      "type": "function"
    },
    {
      "constant": true,
      "inputs": [],
      "name": "pendingAdmin",
      "outputs": [
        {
          "internalType": "address payable",
          "name": "",
          "type": "address"
        }
      ],
      "payable": false,
      "stateMutability": "view",
      "type": "function"
    },
    {
      "constant": false,
      "inputs": [
        {
          "internalType": "uint256",
          "name": "redeemTokens",
          "type": "uint256"
        }
      ],
      "name": "redeem",
      "outputs": [
        {
          "internalType": "uint256",
          "name": "",
          "type": "uint256"
        }
      ],
      "payable": false,
      "stateMutability": "nonpayable",
      "type": "function"
    },
    {
      "constant": false,
      "inputs": [
        {
          "internalType": "uint256",
          "name": "redeemAmount",
          "type": "uint256"
        }
      ],
      "name": "redeemUnderlying",
      "outputs": [
        {
          "internalType": "uint256",
          "name": "",
          "type": "uint256"
        }
      ],
      "payable": false,
      "stateMutability": "nonpayable",
      "type": "function"
    },
    {
      "constant": false,
      "inputs": [],
      "name": "repayBorrow",
      "outputs": [],
      "payable": true,
      "stateMutability": "payable",
      "type": "function"
    },
    {
      "constant": false,
      "inputs": [
        {
          "internalType": "address",
          "name": "borrower",
          "type": "address"
        }
      ],
      "name": "repayBorrowBehalf",
      "outputs": [],
      "payable": true,
      "stateMutability": "payable",
      "type": "function"
    },
    {
      "constant": true,
      "inputs": [],
      "name": "reserveFactorMantissa",
      "outputs": [
        {
          "internalType": "uint256",
          "name": "",
          "type": "uint256"
        }
      ],
      "payable": false,
      "stateMutability": "view",
      "type": "function"
    },
    {
      "constant": false,
      "inputs": [
        {
          "internalType": "address",
          "name": "liquidator",
          "type": "address"
        },
        {
          "internalType": "address",
          "name": "borrower",
          "type": "address"
        },
        {
          "internalType": "uint256",
          "name": "seizeTokens",
          "type": "uint256"
        }
      ],
      "name": "seize",
      "outputs": [
        {
          "internalType": "uint256",
          "name": "",
          "type": "uint256"
        }
      ],
      "payable": false,
      "stateMutability": "nonpayable",
      "type": "function"
    },
    {
      "constant": true,
      "inputs": [],
      "name": "supplyRatePerBlock",
      "outputs": [
        {
          "internalType": "uint256",
          "name": "",
          "type": "uint256"
        }
      ],
      "payable": false,
      "stateMutability": "view",
      "type": "function"
    },
    {
      "constant": true,
      "inputs": [],
      "name": "symbol",
      "outputs": [
        {
          "internalType": "string",
          "name": "",
          "type": "string"
        }
      ],
      "payable": false,
      "stateMutability": "view",
      "type": "function"
    },
    {
      "constant": true,
      "inputs": [],
      "name": "totalBorrows",
      "outputs": [
        {
          "internalType": "uint256",
          "name": "",
          "type": "uint256"
        }
      ],
      "payable": false,
      "stateMutability": "view",
      "type": "function"
    },
    {
      "constant": false,
      "inputs": [],
      "name": "totalBorrowsCurrent",
      "outputs": [
        {
          "internalType": "uint256",
          "name": "",
          "type": "uint256"
        }
      ],
      "payable": false,
      "stateMutability": "nonpayable",
      "type": "function"
    },
    {
      "constant": true,
      "inputs": [],
      "name": "totalReserves",
      "outputs": [
        {
          "internalType": "uint256",
          "name": "",
          "type": "uint256"
        }
      ],
      "payable": false,
      "stateMutability": "view",
      "type": "function"
    },
    {
      "constant": true,
      "inputs": [],
      "name": "totalSupply",
      "outputs": [
        {
          "internalType": "uint256",
          "name": "",
          "type": "uint256"
        }
      ],
      "payable": false,
      "stateMutability": "view",
      "type": "function"
    },
    {
      "constant": false,
      "inputs": [
        {
          "internalType": "address",
          "name": "dst",
          "type": "address"
        },
        {
          "internalType": "uint256",
          "name": "amount",
          "type": "uint256"
        }
      ],
      "name": "transfer",
      "outputs": [
        {
          "internalType": "bool",
          "name": "",
          "type": "bool"
        }
      ],
      "payable": false,
      "stateMutability": "nonpayable",
      "type": "function"
    },
    {
      "constant": false,
      "inputs": [
        {
          "internalType": "address",
          "name": "src",
          "type": "address"
        },
        {
          "internalType": "address",
          "name": "dst",
          "type": "address"
        },
        {
          "internalType": "uint256",
          "name": "amount",
          "type": "uint256"
        }
      ],
      "name": "transferFrom",
      "outputs": [
        {
          "internalType": "bool",
          "name": "",
          "type": "bool"
        }
      ],
      "payable": false,
      "stateMutability": "nonpayable",
      "type": "function"
    },
    {
      "constant": false,
      "inputs": [
        {
          "internalType": "uint256",
          "name": "totalBorrows_",
          "type": "uint256"
        }
      ],
      "name": "setTotalBorrows",
      "outputs": [],
      "payable": false,
      "stateMutability": "nonpayable",
      "type": "function"
    },
    {
      "constant": false,
      "inputs": [
        {
          "internalType": "uint256",
          "name": "totalReserves_",
          "type": "uint256"
        }
      ],
      "name": "setTotalReserves",
      "outputs": [],
      "payable": false,
      "stateMutability": "nonpayable",
      "type": "function"
    },
    {
      "constant": false,
      "inputs": [],
      "name": "donate",
      "outputs": [],
      "payable": true,
      "stateMutability": "payable",
      "type": "function"
    },
    {
      "constant": true,
      "inputs": [
        {
          "internalType": "address",
          "name": "account",
          "type": "address"
        }
      ],
      "name": "toString",
      "outputs": [
        {
          "internalType": "string",
          "name": "",
          "type": "string"
        }
      ],
      "payable": false,
      "stateMutability": "pure",
      "type": "function"
    },
    {
      "constant": true,
      "inputs": [
        {
          "internalType": "uint256",
          "name": "value",
          "type": "uint256"
        }
      ],
      "name": "toString",
      "outputs": [
        {
          "internalType": "string",
          "name": "",
          "type": "string"
        }
      ],
      "payable": false,
      "stateMutability": "pure",
      "type": "function"
    },
    {
      "constant": true,
      "inputs": [
        {
          "internalType": "bytes",
          "name": "data",
          "type": "bytes"
        }
      ],
      "name": "toString",
      "outputs": [
        {
          "internalType": "string",
          "name": "",
          "type": "string"
        }
      ],
      "payable": false,
      "stateMutability": "pure",
      "type": "function"
    },
    {
      "constant": true,
      "inputs": [
        {
          "internalType": "bytes32",
          "name": "value",
          "type": "bytes32"
        }
      ],
      "name": "toString",
      "outputs": [
        {
          "internalType": "string",
          "name": "",
          "type": "string"
        }
      ],
      "payable": false,
      "stateMutability": "pure",
      "type": "function"
    }
  ],
  "bytecode": "0x60806040523480156200001157600080fd5b5060405162005b7d38038062005b7d833981810160405260e08110156200003757600080fd5b81019080805160405193929190846401000000008211156200005857600080fd5b9083019060208201858111156200006e57600080fd5b82516401000000008111828201881017156200008957600080fd5b82525081516020918201929091019080838360005b83811015620000b85781810151838201526020016200009e565b50505050905090810190601f168015620000e65780820380516001836020036101000a031916815260200191505b50604052602001805160405193929190846401000000008211156200010a57600080fd5b9083019060208201858111156200012057600080fd5b82516401000000008111828201881017156200013b57600080fd5b82525081516020918201929091019080838360005b838110156200016a57818101518382015260200162000150565b50505050905090810190601f168015620001985780820380516001836020036101000a031916815260200191505b5060409081526020820151908201516060830151608084015160a09094015160038054610100600160a81b0319163361010002179055929550909350919082828289898989620001ed87878787878762000227565b600380546001600160a01b0390921661010002610100600160a81b031990921691909117905550620008db9b505050505050505050505050565b60035461010090046001600160a01b03163314620002775760405162461bcd60e51b815260040180806020018281038252602481526020018062005ae46024913960400191505060405180910390fd5b600954158015620002885750600a54155b620002c55760405162461bcd60e51b815260040180806020018281038252602381526020018062005b086023913960400191505060405180910390fd5b600784905583620003085760405162461bcd60e51b815260040180806020018281038252603081526020018062005b2b6030913960400191505060405180910390fd5b60006200031e876001600160e01b036200043d16565b9050801562000374576040805162461bcd60e51b815260206004820152601a60248201527f73657474696e6720636f6d7074726f6c6c6572206661696c6564000000000000604482015290519081900360640190fd5b620003876001600160e01b03620005a516565b600955670de0b6b3a7640000600a55620003aa866001600160e01b036200062316565b90508015620003eb5760405162461bcd60e51b815260040180806020018281038252602281526020018062005b5b6022913960400191505060405180910390fd5b83516200040090600190602087019062000839565b5082516200041690600290602086019062000839565b50506003805460ff90921660ff199283161790556000805490911660011790555050505050565b60035460009061010090046001600160a01b0316331462000477576200046f6001603f6001600160e01b03620007c916565b9050620005a0565b60055460408051623f1ee960e11b815290516001600160a01b0392831692851691627e3dd2916004808301926020929190829003018186803b158015620004bd57600080fd5b505afa158015620004d2573d6000803e3d6000fd5b505050506040513d6020811015620004e957600080fd5b50516200053d576040805162461bcd60e51b815260206004820152601c60248201527f6d61726b6572206d6574686f642072657475726e65642066616c736500000000604482015290519081900360640190fd5b600580546001600160a01b0319166001600160a01b03858116918217909255604080519284168352602083019190915280517f7ac369dbd14fa5ea3f473ed67cc9d598964a77501540ba6751eb0b3decf5870d9281900390910190a160005b9150505b919050565b600554604080516357e871e760e01b815290516000926001600160a01b03169182916357e871e791600480820192602092909190829003018186803b158015620005ee57600080fd5b505afa15801562000603573d6000803e3d6000fd5b505050506040513d60208110156200061a57600080fd5b50519150505b90565b600354600090819061010090046001600160a01b03163314620006605762000657600160426001600160e01b03620007c916565b915050620005a0565b620006736001600160e01b03620005a516565b60095414620006935762000657600a60416001600160e01b03620007c916565b600660009054906101000a90046001600160a01b03169050826001600160a01b0316632191f92a6040518163ffffffff1660e01b815260040160206040518083038186803b158015620006e557600080fd5b505afa158015620006fa573d6000803e3d6000fd5b505050506040513d60208110156200071157600080fd5b505162000765576040805162461bcd60e51b815260206004820152601c60248201527f6d61726b6572206d6574686f642072657475726e65642066616c736500000000604482015290519081900360640190fd5b600680546001600160a01b0319166001600160a01b03858116918217909255604080519284168352602083019190915280517fedffc32e068c7c95dfd4bdfd5c4d939a084d6b11c4199eac8436ed234d72f9269281900390910190a160006200059c565b60007f45b96fe442630264581b197e84bbada861235052c5a1aadfff9ea4e40a969aa0836010811115620007f957fe5b8360508111156200080657fe5b604080519283526020830191909152600082820152519081900360600190a18260108111156200083257fe5b9392505050565b828054600181600116156101000203166002900490600052602060002090601f016020900481019282601f106200087c57805160ff1916838001178555620008ac565b82800160010185558215620008ac579182015b82811115620008ac5782518255916020019190600101906200088f565b50620008ba929150620008be565b5090565b6200062091905b80821115620008ba5760008155600101620008c5565b6151f980620008eb6000396000f3fe6080604052600436106102ff5760003560e01c806395dd919311610190578063c37f68e2116100dc578063ed88c68e11610095578063f851a4401161006f578063f851a44014610c63578063f8f9da2814610c78578063fca7820b14610c8d578063fe9c44ae14610cb7576102ff565b8063ed88c68e14610c13578063f2b3abbd14610c1b578063f3fdb15a14610c4e576102ff565b8063c37f68e214610af0578063c5ebeaec14610b49578063db006a7514610b73578063dd62ed3e14610b9d578063e597461914610bd8578063e9c714f214610bfe576102ff565b8063aae40a2a11610149578063b11a19e811610123578063b11a19e81461064b578063b2a02ff114610a65578063b71d1a0c14610aa8578063bd6d894d14610adb576102ff565b8063aae40a2a146109f8578063ae9d70b014610a26578063b0e0bf2a14610a3b576102ff565b806395dd9193146107d9578063977e19e91461080c57806399d8c1b414610836578063a6afed9514610995578063a9059cbb146109aa578063aa5af0fd146109e3576102ff565b806347bd37181161024f5780636c540baf1161020857806373acee98116101e257806373acee9814610770578063852a12e3146107855780638f840ddd146107af57806395d89b41146107c4576102ff565b80636c540baf1461067557806370a082311461068a57806371aad10d146106bd576102ff565b806347bd3718146105bc5780634e4d9fea146105d157806356ca623e146105d95780635fe3b5671461060c578063601a0bf1146106215780636900a3ae1461064b576102ff565b8063182df0f5116102bc578063313ce56711610296578063313ce567146105165780633af9e669146105415780633b1d21a2146105745780634576b5db14610589576102ff565b8063182df0f51461048d57806323b872dd146104a257806326782247146104e5576102ff565b806306fdde031461033d578063095ea7b3146103c75780631249c58b14610414578063173b99041461041e57806317bfdfbc1461044557806318160ddd14610478575b600061030a34610ccc565b50905061033a816040518060400160405280600b81526020016a1b5a5b9d0819985a5b195960aa1b815250610d74565b50005b34801561034957600080fd5b50610352610f74565b6040805160208082528351818301528351919283929083019185019080838360005b8381101561038c578181015183820152602001610374565b50505050905090810190601f1680156103b95780820380516001836020036101000a031916815260200191505b509250505060405180910390f35b3480156103d357600080fd5b50610400600480360360408110156103ea57600080fd5b506001600160a01b038135169060200135611001565b604080519115158252519081900360200190f35b61041c61106e565b005b34801561042a57600080fd5b506104336110ac565b60408051918252519081900360200190f35b34801561045157600080fd5b506104336004803603602081101561046857600080fd5b50356001600160a01b03166110b2565b34801561048457600080fd5b50610433611172565b34801561049957600080fd5b50610433611178565b3480156104ae57600080fd5b50610400600480360360608110156104c557600080fd5b506001600160a01b038135811691602081013590911690604001356111db565b3480156104f157600080fd5b506104fa61124d565b604080516001600160a01b039092168252519081900360200190f35b34801561052257600080fd5b5061052b61125c565b6040805160ff9092168252519081900360200190f35b34801561054d57600080fd5b506104336004803603602081101561056457600080fd5b50356001600160a01b0316611265565b34801561058057600080fd5b5061043361131d565b34801561059557600080fd5b50610433600480360360208110156105ac57600080fd5b50356001600160a01b031661132c565b3480156105c857600080fd5b50610433611481565b61041c611487565b3480156105e557600080fd5b50610352600480360360208110156105fc57600080fd5b50356001600160a01b03166114c9565b34801561061857600080fd5b506104fa611508565b34801561062d57600080fd5b506104336004803603602081101561064457600080fd5b5035611517565b34801561065757600080fd5b506103526004803603602081101561066e57600080fd5b50356115b2565b34801561068157600080fd5b506104336115dc565b34801561069657600080fd5b50610433600480360360208110156106ad57600080fd5b50356001600160a01b03166115e2565b3480156106c957600080fd5b50610352600480360360208110156106e057600080fd5b8101906020810181356401000000008111156106fb57600080fd5b82018360208201111561070d57600080fd5b8035906020019184600183028401116401000000008311171561072f57600080fd5b91908080601f0160208091040260200160405190810160405280939291908181526020018383808284376000920191909152509295506115fd945050505050565b34801561077c57600080fd5b50610433611790565b34801561079157600080fd5b50610433600480360360208110156107a857600080fd5b5035611846565b3480156107bb57600080fd5b50610433611851565b3480156107d057600080fd5b50610352611857565b3480156107e557600080fd5b50610433600480360360208110156107fc57600080fd5b50356001600160a01b03166118af565b34801561081857600080fd5b5061041c6004803603602081101561082f57600080fd5b503561190c565b34801561084257600080fd5b5061041c600480360360c081101561085957600080fd5b6001600160a01b0382358116926020810135909116916040820135919081019060808101606082013564010000000081111561089457600080fd5b8201836020820111156108a657600080fd5b803590602001918460018302840111640100000000831117156108c857600080fd5b91908080601f016020809104026020016040519081016040528093929190818152602001838380828437600092019190915250929594936020810193503591505064010000000081111561091b57600080fd5b82018360208201111561092d57600080fd5b8035906020019184600183028401116401000000008311171561094f57600080fd5b91908080601f0160208091040260200160405190810160405280939291908181526020018383808284376000920191909152509295505050903560ff1691506119119050565b3480156109a157600080fd5b50610433611af8565b3480156109b657600080fd5b50610400600480360360408110156109cd57600080fd5b506001600160a01b038135169060200135611e50565b3480156109ef57600080fd5b50610433611ec1565b61041c60048036036040811015610a0e57600080fd5b506001600160a01b0381358116916020013516611ec7565b348015610a3257600080fd5b50610433611f14565b348015610a4757600080fd5b5061041c60048036036020811015610a5e57600080fd5b5035611fb3565b348015610a7157600080fd5b5061043360048036036060811015610a8857600080fd5b506001600160a01b03813581169160208101359091169060400135611fb8565b348015610ab457600080fd5b5061043360048036036020811015610acb57600080fd5b50356001600160a01b0316612029565b348015610ae757600080fd5b506104336120b5565b348015610afc57600080fd5b50610b2360048036036020811015610b1357600080fd5b50356001600160a01b0316612171565b604080519485526020850193909352838301919091526060830152519081900360800190f35b348015610b5557600080fd5b5061043360048036036020811015610b6c57600080fd5b5035612206565b348015610b7f57600080fd5b5061043360048036036020811015610b9657600080fd5b5035612211565b348015610ba957600080fd5b5061043360048036036040811015610bc057600080fd5b506001600160a01b038135811691602001351661221c565b61041c60048036036020811015610bee57600080fd5b50356001600160a01b0316612247565b348015610c0a57600080fd5b50610433612295565b61041c612398565b348015610c2757600080fd5b5061043360048036036020811015610c3e57600080fd5b50356001600160a01b031661239a565b348015610c5a57600080fd5b506104fa6123d4565b348015610c6f57600080fd5b506104fa6123e3565b348015610c8457600080fd5b506104336123f7565b348015610c9957600080fd5b5061043360048036036020811015610cb057600080fd5b503561245b565b348015610cc357600080fd5b506104006124d9565b60008054819060ff16610d13576040805162461bcd60e51b815260206004820152600a6024820152691c994b595b9d195c995960b21b604482015290519081900360640190fd5b6000805460ff19168155610d25611af8565b90508015610d5057610d43816010811115610d3c57fe5b601e6124de565b925060009150610d609050565b610d5a3385612544565b92509250505b6000805460ff191660011790559092909150565b81610d7e57610f70565b606081516005016040519080825280601f01601f191660200182016040528015610daf576020820181803883390190505b50905060005b8251811015610e0057828181518110610dca57fe5b602001015160f81c60f81b828281518110610de157fe5b60200101906001600160f81b031916908160001a905350600101610db5565b8151600160fd1b90839083908110610e1457fe5b60200101906001600160f81b031916908160001a905350602860f81b828260010181518110610e3f57fe5b60200101906001600160f81b031916908160001a905350600a840460300160f81b828260020181518110610e6f57fe5b60200101906001600160f81b031916908160001a905350600a840660300160f81b828260030181518110610e9f57fe5b60200101906001600160f81b031916908160001a905350602960f81b828260040181518110610eca57fe5b60200101906001600160f81b031916908160001a905350818415610f6c5760405162461bcd60e51b81526004018080602001828103825283818151815260200191508051906020019080838360005b83811015610f31578181015183820152602001610f19565b50505050905090810190601f168015610f5e5780820380516001836020036101000a031916815260200191505b509250505060405180910390fd5b5050505b5050565b60018054604080516020600284861615610100026000190190941693909304601f81018490048402820184019092528181529291830182828015610ff95780601f10610fce57610100808354040283529160200191610ff9565b820191906000526020600020905b815481529060010190602001808311610fdc57829003601f168201915b505050505081565b336000818152600f602090815260408083206001600160a01b03871680855290835281842086905581518681529151939493909284927f8c5be1e5ebec7d5bd14f71427d1e84f3dd0314c0f7b2291e5b200ac8c7c3b925929081900390910190a360019150505b92915050565b600061107934610ccc565b5090506110a9816040518060400160405280600b81526020016a1b5a5b9d0819985a5b195960aa1b815250610d74565b50565b60085481565b6000805460ff166110f7576040805162461bcd60e51b815260206004820152600a6024820152691c994b595b9d195c995960b21b604482015290519081900360640190fd5b6000805460ff19168155611109611af8565b14611154576040805162461bcd60e51b81526020600482015260166024820152751858d8dc9d59481a5b9d195c995cdd0819985a5b195960521b604482015290519081900360640190fd5b61115d826118af565b90505b6000805460ff19166001179055919050565b600d5481565b60008060006111856129a4565b9092509050600082600381111561119857fe5b146111d45760405162461bcd60e51b81526004018080602001828103825260358152602001806151106035913960400191505060405180910390fd5b9150505b90565b6000805460ff16611220576040805162461bcd60e51b815260206004820152600a6024820152691c994b595b9d195c995960b21b604482015290519081900360640190fd5b6000805460ff1916815561123633868686612a53565b1490506000805460ff191660011790559392505050565b6004546001600160a01b031681565b60035460ff1681565b600061126f614dfe565b60405180602001604052806112826120b5565b90526001600160a01b0384166000908152600e60205260408120549192509081906112ae908490612d63565b909250905060008260038111156112c157fe5b14611313576040805162461bcd60e51b815260206004820152601f60248201527f62616c616e636520636f756c64206e6f742062652063616c63756c6174656400604482015290519081900360640190fd5b925050505b919050565b6000611327612db6565b905090565b60035460009061010090046001600160a01b03163314611359576113526001603f6124de565b9050611318565b60055460408051623f1ee960e11b815290516001600160a01b0392831692851691627e3dd2916004808301926020929190829003018186803b15801561139e57600080fd5b505afa1580156113b2573d6000803e3d6000fd5b505050506040513d60208110156113c857600080fd5b505161141b576040805162461bcd60e51b815260206004820152601c60248201527f6d61726b6572206d6574686f642072657475726e65642066616c736500000000604482015290519081900360640190fd5b600580546001600160a01b0319166001600160a01b03858116918217909255604080519284168352602083019190915280517f7ac369dbd14fa5ea3f473ed67cc9d598964a77501540ba6751eb0b3decf5870d9281900390910190a160005b9392505050565b600b5481565b600061149234612de2565b5090506110a981604051806040016040528060128152602001711c995c185e509bdc9c9bddc819985a5b195960721b815250610d74565b60606110688260405160200180826001600160a01b03166001600160a01b031660601b81526014019150506040516020818303038152906040526115fd565b6005546001600160a01b031681565b6000805460ff1661155c576040805162461bcd60e51b815260206004820152600a6024820152691c994b595b9d195c995960b21b604482015290519081900360640190fd5b6000805460ff1916815561156e611af8565b905080156115945761158c81601081111561158557fe5b60306124de565b915050611160565b61159d83612e64565b9150506000805460ff19166001179055919050565b606061106882604051602001808281526020019150506040516020818303038152906040526115fd565b60095481565b6001600160a01b03166000908152600e602052604090205490565b6060806040518060400160405280601081526020016f181899199a1a9b1b9c1cb0b131b232b360811b8152509050606083516002026002016040519080825280601f01601f19166020018201604052801561165f576020820181803883390190505b509050600360fc1b8160008151811061167457fe5b60200101906001600160f81b031916908160001a905350600f60fb1b8160018151811061169d57fe5b60200101906001600160f81b031916908160001a90535060005b8451811015611788578260048683815181106116cf57fe5b016020015182516001600160f81b031990911690911c60f81c9081106116f157fe5b602001015160f81c60f81b82826002026002018151811061170e57fe5b60200101906001600160f81b031916908160001a9053508285828151811061173257fe5b602091010151815160f89190911c600f1690811061174c57fe5b602001015160f81c60f81b82826002026003018151811061176957fe5b60200101906001600160f81b031916908160001a9053506001016116b7565b509392505050565b6000805460ff166117d5576040805162461bcd60e51b815260206004820152600a6024820152691c994b595b9d195c995960b21b604482015290519081900360640190fd5b6000805460ff191681556117e7611af8565b14611832576040805162461bcd60e51b81526020600482015260166024820152751858d8dc9d59481a5b9d195c995cdd0819985a5b195960521b604482015290519081900360640190fd5b50600b546000805460ff1916600117905590565b600061106882612f97565b600c5481565b6002805460408051602060018416156101000260001901909316849004601f81018490048402820184019092528181529291830182828015610ff95780601f10610fce57610100808354040283529160200191610ff9565b60008060006118bd84613018565b909250905060008260038111156118d057fe5b1461147a5760405162461bcd60e51b815260040180806020018281038252603781526020018061501b6037913960400191505060405180910390fd5b600b55565b60035461010090046001600160a01b0316331461195f5760405162461bcd60e51b8152600401808060200182810382526024815260200180614f576024913960400191505060405180910390fd5b60095415801561196f5750600a54155b6119aa5760405162461bcd60e51b8152600401808060200182810382526023815260200180614f7b6023913960400191505060405180910390fd5b6007849055836119eb5760405162461bcd60e51b8152600401808060200182810382526030815260200180614f9e6030913960400191505060405180910390fd5b60006119f68761132c565b90508015611a4b576040805162461bcd60e51b815260206004820152601a60248201527f73657474696e6720636f6d7074726f6c6c6572206661696c6564000000000000604482015290519081900360640190fd5b611a536130cc565b600955670de0b6b3a7640000600a55611a6b86613146565b90508015611aaa5760405162461bcd60e51b8152600401808060200182810382526022815260200180614fce6022913960400191505060405180910390fd5b8351611abd906001906020870190614e11565b508251611ad1906002906020860190614e11565b50506003805460ff90921660ff199283161790556000805490911660011790555050505050565b600080611b036130cc565b60095490915080821415611b1c576000925050506111d8565b6000611b26612db6565b600b54600c54600a54600654604080516315f2405360e01b815260048101879052602481018690526044810185905290519596509394929391926000926001600160a01b03909216916315f24053916064808301926020929190829003018186803b158015611b9457600080fd5b505afa158015611ba8573d6000803e3d6000fd5b505050506040513d6020811015611bbe57600080fd5b5051905065048c27395000811115611c1d576040805162461bcd60e51b815260206004820152601c60248201527f626f72726f772072617465206973206162737572646c79206869676800000000604482015290519081900360640190fd5b600080611c2a89896132bb565b90925090506000826003811115611c3d57fe5b14611c8f576040805162461bcd60e51b815260206004820152601f60248201527f636f756c64206e6f742063616c63756c61746520626c6f636b2064656c746100604482015290519081900360640190fd5b611c97614dfe565b600080600080611cb560405180602001604052808a815250876132de565b90975094506000876003811115611cc857fe5b14611cfa57611ce560096006896003811115611ce057fe5b613346565b9e5050505050505050505050505050506111d8565b611d04858c612d63565b90975093506000876003811115611d1757fe5b14611d2f57611ce560096001896003811115611ce057fe5b611d39848c6133ac565b90975092506000876003811115611d4c57fe5b14611d6457611ce560096004896003811115611ce057fe5b611d7f6040518060200160405280600854815250858c6133d2565b90975091506000876003811115611d9257fe5b14611daa57611ce560096005896003811115611ce057fe5b611db5858a8b6133d2565b90975090506000876003811115611dc857fe5b14611de057611ce560096003896003811115611ce057fe5b60098e9055600a819055600b839055600c829055604080518d8152602081018690528082018390526060810185905290517f4dec04e750ca11537cabcd8a9eab06494de08da3735bc8871cd41250e190bc049181900360800190a160009e50505050505050505050505050505090565b6000805460ff16611e95576040805162461bcd60e51b815260206004820152600a6024820152691c994b595b9d195c995960b21b604482015290519081900360640190fd5b6000805460ff19168155611eab33338686612a53565b1490506000805460ff1916600117905592915050565b600a5481565b6000611ed483348461342e565b509050611f0f81604051806040016040528060168152602001751b1a5c5d5a59185d19509bdc9c9bddc819985a5b195960521b815250610d74565b505050565b6006546000906001600160a01b031663b8168816611f30612db6565b600b54600c546008546040518563ffffffff1660e01b81526004018085815260200184815260200183815260200182815260200194505050505060206040518083038186803b158015611f8257600080fd5b505afa158015611f96573d6000803e3d6000fd5b505050506040513d6020811015611fac57600080fd5b5051905090565b600c55565b6000805460ff16611ffd576040805162461bcd60e51b815260206004820152600a6024820152691c994b595b9d195c995960b21b604482015290519081900360640190fd5b6000805460ff1916905561201333858585613560565b90506000805460ff191660011790559392505050565b60035460009061010090046001600160a01b0316331461204f57611352600160456124de565b600480546001600160a01b038481166001600160a01b0319831681179093556040805191909216808252602082019390935281517fca4f2f25d0898edd99413412fb94012f9e54ec8142f9b093e7720646a95b16a9929181900390910190a1600061147a565b6000805460ff166120fa576040805162461bcd60e51b815260206004820152600a6024820152691c994b595b9d195c995960b21b604482015290519081900360640190fd5b6000805460ff1916815561210c611af8565b14612157576040805162461bcd60e51b81526020600482015260166024820152751858d8dc9d59481a5b9d195c995cdd0819985a5b195960521b604482015290519081900360640190fd5b61215f611178565b90506000805460ff1916600117905590565b6001600160a01b0381166000908152600e602052604081205481908190819081808061219c89613018565b9350905060008160038111156121ae57fe5b146121cc5760095b9750600096508695508594506121ff9350505050565b6121d46129a4565b9250905060008160038111156121e657fe5b146121f25760096121b6565b5060009650919450925090505b9193509193565b6000611068826137c6565b600061106882613845565b6001600160a01b039182166000908152600f6020908152604080832093909416825291909152205490565b600061225382346138bf565b509050610f70816040518060400160405280601881526020017f7265706179426f72726f77426568616c66206661696c65640000000000000000815250610d74565b6004546000906001600160a01b0316331415806122b0575033155b156122c8576122c1600160006124de565b90506111d8565b60038054600480546001600160a01b03818116610100818102610100600160a81b0319871617968790556001600160a01b031990931690935560408051948390048216808652929095041660208401528351909391927ff9ffabca9c8276e99321725bcb43fb076a6c66a54b7f21c4e8146d8519b417dc92908290030190a1600454604080516001600160a01b038085168252909216602083015280517fca4f2f25d0898edd99413412fb94012f9e54ec8142f9b093e7720646a95b16a99281900390910190a160009250505090565b565b6000806123a5611af8565b905080156123cb576123c38160108111156123bc57fe5b60406124de565b915050611318565b61147a83613146565b6006546001600160a01b031681565b60035461010090046001600160a01b031681565b6006546000906001600160a01b03166315f24053612413612db6565b600b54600c546040518463ffffffff1660e01b815260040180848152602001838152602001828152602001935050505060206040518083038186803b158015611f8257600080fd5b6000805460ff166124a0576040805162461bcd60e51b815260206004820152600a6024820152691c994b595b9d195c995960b21b604482015290519081900360640190fd5b6000805460ff191681556124b2611af8565b905080156124d05761158c8160108111156124c957fe5b60466124de565b61159d8361396a565b600181565b60007f45b96fe442630264581b197e84bbada861235052c5a1aadfff9ea4e40a969aa083601081111561250d57fe5b83605081111561251957fe5b604080519283526020830191909152600082820152519081900360600190a182601081111561147a57fe5b60055460408051634ef4c3e160e01b81523060048201526001600160a01b03858116602483015260448201859052915160009384938493911691634ef4c3e19160648082019260209290919082900301818787803b1580156125a557600080fd5b505af11580156125b9573d6000803e3d6000fd5b505050506040513d60208110156125cf57600080fd5b5051905080156125f3576125e66003601f83613346565b92506000915061299d9050565b6125fb6130cc565b6009541461260f576125e6600a60226124de565b612617614e8f565b61261f6129a4565b604083018190526020830182600381111561263657fe5b600381111561264157fe5b905250600090508160200151600381111561265857fe5b14612682576126746009602183602001516003811115611ce057fe5b93506000925061299d915050565b61268c8686613a12565b60c08201819052604080516020810182529083015181526126ad9190613aae565b60608301819052602083018260038111156126c457fe5b60038111156126cf57fe5b90525060009050816020015160038111156126e657fe5b14612738576040805162461bcd60e51b815260206004820181905260248201527f4d494e545f45584348414e47455f43414c43554c4154494f4e5f4641494c4544604482015290519081900360640190fd5b612748600d5482606001516133ac565b608083018190526020830182600381111561275f57fe5b600381111561276a57fe5b905250600090508160200151600381111561278157fe5b146127bd5760405162461bcd60e51b81526004018080602001828103825260288152602001806151456028913960400191505060405180910390fd5b6001600160a01b0386166000908152600e602052604090205460608201516127e591906133ac565b60a08301819052602083018260038111156127fc57fe5b600381111561280757fe5b905250600090508160200151600381111561281e57fe5b1461285a5760405162461bcd60e51b815260040180806020018281038252602b815260200180614ff0602b913960400191505060405180910390fd5b6080810151600d5560a08101516001600160a01b0387166000818152600e60209081526040918290209390935560c084015160608086015183519485529484019190915282820193909352517f4c209b5fc8ad50758f13e2e1088ba56a560dff690a1c6fef26394f4c03821c4f929181900390910190a1606081015160408051918252516001600160a01b03881691309160008051602061508c8339815191529181900360200190a360055460c08201516060830151604080516341c728b960e01b81523060048201526001600160a01b038b81166024830152604482019490945260648101929092525191909216916341c728b991608480830192600092919082900301818387803b15801561297057600080fd5b505af1158015612984573d6000803e3d6000fd5b5060009250612991915050565b8160c001519350935050505b9250929050565b600d546000908190806129bf57505060075460009150612a4f565b60006129c9612db6565b905060006129d5614dfe565b60006129e684600b54600c54613ac5565b9350905060008160038111156129f857fe5b14612a0d57955060009450612a4f9350505050565b612a178386613b03565b925090506000816003811115612a2957fe5b14612a3e57955060009450612a4f9350505050565b5051600095509350612a4f92505050565b9091565b600554604080516317b9b84b60e31b81523060048201526001600160a01b03868116602483015285811660448301526064820185905291516000938493169163bdcdc25891608480830192602092919082900301818787803b158015612ab857600080fd5b505af1158015612acc573d6000803e3d6000fd5b505050506040513d6020811015612ae257600080fd5b505190508015612b0157612af96003604a83613346565b915050612d5b565b836001600160a01b0316856001600160a01b03161415612b2757612af96002604b6124de565b60006001600160a01b038781169087161415612b465750600019612b6e565b506001600160a01b038086166000908152600f60209081526040808320938a16835292905220545b600080600080612b7e85896132bb565b90945092506000846003811115612b9157fe5b14612baf57612ba26009604b6124de565b9650505050505050612d5b565b6001600160a01b038a166000908152600e6020526040902054612bd290896132bb565b90945091506000846003811115612be557fe5b14612bf657612ba26009604c6124de565b6001600160a01b0389166000908152600e6020526040902054612c1990896133ac565b90945090506000846003811115612c2c57fe5b14612c3d57612ba26009604d6124de565b6001600160a01b03808b166000908152600e6020526040808220859055918b168152208190556000198514612c95576001600160a01b03808b166000908152600f60209081526040808320938f168352929052208390555b886001600160a01b03168a6001600160a01b031660008051602061508c8339815191528a6040518082815260200191505060405180910390a36005546040805163352b4a3f60e11b81523060048201526001600160a01b038d811660248301528c81166044830152606482018c905291519190921691636a56947e91608480830192600092919082900301818387803b158015612d3157600080fd5b505af1158015612d45573d6000803e3d6000fd5b5060009250612d52915050565b96505050505050505b949350505050565b6000806000612d70614dfe565b612d7a86866132de565b90925090506000826003811115612d8d57fe5b14612d9e575091506000905061299d565b6000612da982613bb3565b9350935050509250929050565b6000806000612dc547346132bb565b90925090506000826003811115612dd857fe5b146111d457600080fd5b60008054819060ff16612e29576040805162461bcd60e51b815260206004820152600a6024820152691c994b595b9d195c995960b21b604482015290519081900360640190fd5b6000805460ff19168155612e3b611af8565b90508015612e5957610d43816010811115612e5257fe5b60366124de565b610d5a333386613bc2565b600354600090819061010090046001600160a01b03163314612e8c576123c3600160316124de565b612e946130cc565b60095414612ea8576123c3600a60336124de565b82612eb1612db6565b1015612ec3576123c3600e60326124de565b600c54831115612ed9576123c3600260346124de565b50600c5482810390811115612f1f5760405162461bcd60e51b81526004018080602001828103825260248152602001806151a16024913960400191505060405180910390fd5b600c819055600354612f3f9061010090046001600160a01b031684613fa7565b600354604080516101009092046001600160a01b0316825260208201859052818101839052517f3bad0c59cf2f06e7314077049f48a93578cd16f5ef92329f1dab1420a99c177e916060908290030190a1600061147a565b6000805460ff16612fdc576040805162461bcd60e51b815260206004820152600a6024820152691c994b595b9d195c995960b21b604482015290519081900360640190fd5b6000805460ff19168155612fee611af8565b9050801561300c5761158c81601081111561300557fe5b60276124de565b61159d33600085613fdd565b6001600160a01b03811660009081526010602052604081208054829182918291829161304f5750600094508493506130c792505050565b61305f8160000154600a546144a4565b9094509250600084600381111561307257fe5b146130875750919350600092506130c7915050565b6130958382600101546144e3565b909450915060008460038111156130a857fe5b146130bd5750919350600092506130c7915050565b5060009450925050505b915091565b600554604080516357e871e760e01b815290516000926001600160a01b03169182916357e871e791600480820192602092909190829003018186803b15801561311457600080fd5b505afa158015613128573d6000803e3d6000fd5b505050506040513d602081101561313e57600080fd5b505191505090565b600354600090819061010090046001600160a01b0316331461316e576123c3600160426124de565b6131766130cc565b6009541461318a576123c3600a60416124de565b600660009054906101000a90046001600160a01b03169050826001600160a01b0316632191f92a6040518163ffffffff1660e01b815260040160206040518083038186803b1580156131db57600080fd5b505afa1580156131ef573d6000803e3d6000fd5b505050506040513d602081101561320557600080fd5b5051613258576040805162461bcd60e51b815260206004820152601c60248201527f6d61726b6572206d6574686f642072657475726e65642066616c736500000000604482015290519081900360640190fd5b600680546001600160a01b0319166001600160a01b03858116918217909255604080519284168352602083019190915280517fedffc32e068c7c95dfd4bdfd5c4d939a084d6b11c4199eac8436ed234d72f9269281900390910190a1600061147a565b6000808383116132d257506000905081830361299d565b5060039050600061299d565b60006132e8614dfe565b6000806132f98660000151866144a4565b9092509050600082600381111561330c57fe5b1461332b5750604080516020810190915260008152909250905061299d565b60408051602081019091529081526000969095509350505050565b60007f45b96fe442630264581b197e84bbada861235052c5a1aadfff9ea4e40a969aa084601081111561337557fe5b84605081111561338157fe5b604080519283526020830191909152818101859052519081900360600190a1836010811115612d5b57fe5b6000808383018481106133c45760009250905061299d565b50600291506000905061299d565b60008060006133df614dfe565b6133e987876132de565b909250905060008260038111156133fc57fe5b1461340d5750915060009050613426565b61341f61341982613bb3565b866133ac565b9350935050505b935093915050565b60008054819060ff16613475576040805162461bcd60e51b815260206004820152600a6024820152691c994b595b9d195c995960b21b604482015290519081900360640190fd5b6000805460ff19168155613487611af8565b905080156134b2576134a581601081111561349e57fe5b600f6124de565b9250600091506135499050565b836001600160a01b031663a6afed956040518163ffffffff1660e01b8152600401602060405180830381600087803b1580156134ed57600080fd5b505af1158015613501573d6000803e3d6000fd5b505050506040513d602081101561351757600080fd5b505190508015613537576134a581601081111561353057fe5b60106124de565b6135433387878761450e565b92509250505b6000805460ff191660011790559094909350915050565b6005546040805163d02f735160e01b81523060048201526001600160a01b038781166024830152868116604483015285811660648301526084820185905291516000938493169163d02f73519160a480830192602092919082900301818787803b1580156135cd57600080fd5b505af11580156135e1573d6000803e3d6000fd5b505050506040513d60208110156135f757600080fd5b50519050801561360e57612af96003601b83613346565b846001600160a01b0316846001600160a01b0316141561363457612af96006601c6124de565b6001600160a01b0384166000908152600e60205260408120548190819061365b90876132bb565b9093509150600083600381111561366e57fe5b14613691576136866009601a856003811115611ce057fe5b945050505050612d5b565b6001600160a01b0388166000908152600e60205260409020546136b490876133ac565b909350905060008360038111156136c757fe5b146136df5761368660096019856003811115611ce057fe5b6001600160a01b038088166000818152600e60209081526040808320879055938c168083529184902085905583518a81529351919360008051602061508c833981519152929081900390910190a360055460408051636d35bf9160e01b81523060048201526001600160a01b038c811660248301528b811660448301528a81166064830152608482018a905291519190921691636d35bf919160a480830192600092919082900301818387803b15801561379857600080fd5b505af11580156137ac573d6000803e3d6000fd5b50600092506137b9915050565b9998505050505050505050565b6000805460ff1661380b576040805162461bcd60e51b815260206004820152600a6024820152691c994b595b9d195c995960b21b604482015290519081900360640190fd5b6000805460ff1916815561381d611af8565b9050801561383b5761158c81601081111561383457fe5b60086124de565b61159d3384614a91565b6000805460ff1661388a576040805162461bcd60e51b815260206004820152600a6024820152691c994b595b9d195c995960b21b604482015290519081900360640190fd5b6000805460ff1916815561389c611af8565b905080156138b35761158c81601081111561300557fe5b61159d33846000613fdd565b60008054819060ff16613906576040805162461bcd60e51b815260206004820152600a6024820152691c994b595b9d195c995960b21b604482015290519081900360640190fd5b6000805460ff19168155613918611af8565b905080156139435761393681601081111561392f57fe5b60356124de565b9250600091506139549050565b61394e338686613bc2565b92509250505b6000805460ff1916600117905590939092509050565b60035460009061010090046001600160a01b0316331461399057611352600160476124de565b6139986130cc565b600954146139ac57611352600a60486124de565b670de0b6b3a76400008211156139c857611352600260496124de565b6008805490839055604080518281526020810185905281517faaa68312e2ea9d50e16af5068410ab56e1a1fd06037b1a35664812c30f821460929181900390910190a1600061147a565b6000336001600160a01b03841614613a63576040805162461bcd60e51b815260206004820152600f60248201526e0e6cadcc8cae440dad2e6dac2e8c6d608b1b604482015290519081900360640190fd5b813414613aa8576040805162461bcd60e51b815260206004820152600e60248201526d0ecc2d8eaca40dad2e6dac2e8c6d60931b604482015290519081900360640190fd5b50919050565b6000806000613abb614dfe565b612d7a8686614d9f565b600080600080613ad587876133ac565b90925090506000826003811115613ae857fe5b14613af95750915060009050613426565b61341f81866132bb565b6000613b0d614dfe565b600080613b2286670de0b6b3a76400006144a4565b90925090506000826003811115613b3557fe5b14613b545750604080516020810190915260008152909250905061299d565b600080613b6183886144e3565b90925090506000826003811115613b7457fe5b14613b965750604080516020810190915260008152909450925061299d915050565b604080516020810190915290815260009890975095505050505050565b51670de0b6b3a7640000900490565b60055460408051631200453160e11b81523060048201526001600160a01b0386811660248301528581166044830152606482018590529151600093849384939116916324008a629160848082019260209290919082900301818787803b158015613c2b57600080fd5b505af1158015613c3f573d6000803e3d6000fd5b505050506040513d6020811015613c5557600080fd5b505190508015613c7957613c6c6003603883613346565b9250600091506134269050565b613c816130cc565b60095414613c9557613c6c600a60396124de565b613c9d614ecd565b6001600160a01b0386166000908152601060205260409020600101546060820152613cc786613018565b6080830181905260208301826003811115613cde57fe5b6003811115613ce957fe5b9052506000905081602001516003811115613d0057fe5b14613d2a57613d1c6009603783602001516003811115611ce057fe5b935060009250613426915050565b600019851415613d435760808101516040820152613d4b565b604081018590525b613d59878260400151613a12565b60e082018190526080820151613d6e916132bb565b60a0830181905260208301826003811115613d8557fe5b6003811115613d9057fe5b9052506000905081602001516003811115613da757fe5b14613de35760405162461bcd60e51b815260040180806020018281038252603a815260200180615052603a913960400191505060405180910390fd5b613df3600b548260e001516132bb565b60c0830181905260208301826003811115613e0a57fe5b6003811115613e1557fe5b9052506000905081602001516003811115613e2c57fe5b14613e685760405162461bcd60e51b81526004018080602001828103825260318152602001806150ac6031913960400191505060405180910390fd5b60a080820180516001600160a01b03808a16600081815260106020908152604091829020948555600a5460019095019490945560c0870151600b81905560e088015195518251948f16855294840192909252828101949094526060820192909252608081019190915290517f1a2a22cb034d26d1854bdc6666a5b91fe25efbbb5dcad3b0355478d6f5c362a1929181900390910190a160055460e0820151606083015160408051631ededc9160e01b81523060048201526001600160a01b038c811660248301528b8116604483015260648201949094526084810192909252519190921691631ededc919160a480830192600092919082900301818387803b158015613f7357600080fd5b505af1158015613f87573d6000803e3d6000fd5b5060009250613f94915050565b8160e00151935093505050935093915050565b6040516001600160a01b0383169082156108fc029083906000818181858888f19350505050158015611f0f573d6000803e3d6000fd5b6000821580613fea575081155b6140255760405162461bcd60e51b815260040180806020018281038252603481526020018061516d6034913960400191505060405180910390fd5b61402d614e8f565b6140356129a4565b604083018190526020830182600381111561404c57fe5b600381111561405757fe5b905250600090508160200151600381111561406e57fe5b146140925761408a6009602b83602001516003811115611ce057fe5b91505061147a565b83156141135760608101849052604080516020810182529082015181526140b99085612d63565b60808301819052602083018260038111156140d057fe5b60038111156140db57fe5b90525060009050816020015160038111156140f257fe5b1461410e5761408a6009602983602001516003811115611ce057fe5b61418c565b61412f8360405180602001604052808460400151815250613aae565b606083018190526020830182600381111561414657fe5b600381111561415157fe5b905250600090508160200151600381111561416857fe5b146141845761408a6009602a83602001516003811115611ce057fe5b608081018390525b60055460608201516040805163eabe7d9160e01b81523060048201526001600160a01b03898116602483015260448201939093529051600093929092169163eabe7d919160648082019260209290919082900301818787803b1580156141f157600080fd5b505af1158015614205573d6000803e3d6000fd5b505050506040513d602081101561421b57600080fd5b50519050801561423b576142326003602883613346565b9250505061147a565b6142436130cc565b6009541461425757614232600a602c6124de565b614267600d5483606001516132bb565b60a084018190526020840182600381111561427e57fe5b600381111561428957fe5b90525060009050826020015160038111156142a057fe5b146142bc576142326009602e84602001516003811115611ce057fe5b6001600160a01b0386166000908152600e602052604090205460608301516142e491906132bb565b60c08401819052602084018260038111156142fb57fe5b600381111561430657fe5b905250600090508260200151600381111561431d57fe5b14614339576142326009602d84602001516003811115611ce057fe5b8160800151614346612db6565b101561435857614232600e602f6124de565b614366868360800151613fa7565b60a0820151600d5560c08201516001600160a01b0387166000818152600e602090815260409182902093909355606085015181519081529051309360008051602061508c833981519152928290030190a36080820151606080840151604080516001600160a01b038b168152602081019490945283810191909152517fe5b754fb1abb7f01b499791d0b820ae3b6af3424ac1c59768edb53f4ec31a9299281900390910190a160055460808301516060840151604080516351dff98960e01b81523060048201526001600160a01b038b81166024830152604482019490945260648101929092525191909216916351dff98991608480830192600092919082900301818387803b15801561447957600080fd5b505af115801561448d573d6000803e3d6000fd5b506000925061449a915050565b9695505050505050565b600080836144b75750600090508061299d565b838302838582816144c457fe5b04146144d85750600291506000905061299d565b60009250905061299d565b600080826144f7575060019050600061299d565b600083858161450257fe5b04915091509250929050565b60055460408051632fe3f38f60e11b81523060048201526001600160a01b0384811660248301528781166044830152868116606483015260848201869052915160009384938493911691635fc7e71e9160a48082019260209290919082900301818787803b15801561457f57600080fd5b505af1158015614593573d6000803e3d6000fd5b505050506040513d60208110156145a957600080fd5b5051905080156145cd576145c06003601283613346565b925060009150614a889050565b6145d56130cc565b600954146145e9576145c0600a60166124de565b6145f16130cc565b846001600160a01b0316636c540baf6040518163ffffffff1660e01b815260040160206040518083038186803b15801561462a57600080fd5b505afa15801561463e573d6000803e3d6000fd5b505050506040513d602081101561465457600080fd5b505114614667576145c0600a60116124de565b866001600160a01b0316866001600160a01b0316141561468d576145c0600660176124de565b8461469e576145c0600760156124de565b6000198514156146b4576145c0600760146124de565b6000806146c2898989613bc2565b909250905081156146f2576146e38260108111156146dc57fe5b60186124de565b945060009350614a8892505050565b6005546040805163c488847b60e01b81523060048201526001600160a01b038981166024830152604482018590528251600094859492169263c488847b926064808301939192829003018186803b15801561474c57600080fd5b505afa158015614760573d6000803e3d6000fd5b505050506040513d604081101561477657600080fd5b508051602090910151909250905081156147c15760405162461bcd60e51b81526004018080602001828103825260338152602001806150dd6033913960400191505060405180910390fd5b80886001600160a01b03166370a082318c6040518263ffffffff1660e01b815260040180826001600160a01b03166001600160a01b0316815260200191505060206040518083038186803b15801561481857600080fd5b505afa15801561482c573d6000803e3d6000fd5b505050506040513d602081101561484257600080fd5b50511015614897576040805162461bcd60e51b815260206004820152601860248201527f4c49515549444154455f5345495a455f544f4f5f4d5543480000000000000000604482015290519081900360640190fd5b60006001600160a01b0389163014156148bd576148b6308d8d85613560565b9050614947565b6040805163b2a02ff160e01b81526001600160a01b038e811660048301528d81166024830152604482018590529151918b169163b2a02ff1916064808201926020929091908290030181600087803b15801561491857600080fd5b505af115801561492c573d6000803e3d6000fd5b505050506040513d602081101561494257600080fd5b505190505b8015614991576040805162461bcd60e51b81526020600482015260146024820152731d1bdad95b881cd95a5e9d5c994819985a5b195960621b604482015290519081900360640190fd5b604080516001600160a01b03808f168252808e1660208301528183018790528b1660608201526080810184905290517f298637f684da70674f26509b10f07ec2fbc77a335ab1e7d6215a4b2484d8bb529181900360a00190a1600554604080516347ef3b3b60e01b81523060048201526001600160a01b038c811660248301528f811660448301528e811660648301526084820188905260a48201869052915191909216916347ef3b3b9160c480830192600092919082900301818387803b158015614a5c57600080fd5b505af1158015614a70573d6000803e3d6000fd5b5060009250614a7d915050565b975092955050505050505b94509492505050565b6005546040805163368f515360e21b81523060048201526001600160a01b0385811660248301526044820185905291516000938493169163da3d454c91606480830192602092919082900301818787803b158015614aee57600080fd5b505af1158015614b02573d6000803e3d6000fd5b505050506040513d6020811015614b1857600080fd5b505190508015614b3757614b2f6003600e83613346565b915050611068565b614b3f6130cc565b60095414614b5257614b2f600a806124de565b82614b5b612db6565b1015614b6d57614b2f600e60096124de565b614b75614f13565b614b7e85613018565b6020830181905282826003811115614b9257fe5b6003811115614b9d57fe5b9052506000905081516003811115614bb157fe5b14614bd657614bcd6009600783600001516003811115611ce057fe5b92505050611068565b614be48160200151856133ac565b6040830181905282826003811115614bf857fe5b6003811115614c0357fe5b9052506000905081516003811115614c1757fe5b14614c3357614bcd6009600c83600001516003811115611ce057fe5b614c3f600b54856133ac565b6060830181905282826003811115614c5357fe5b6003811115614c5e57fe5b9052506000905081516003811115614c7257fe5b14614c8e57614bcd6009600b83600001516003811115611ce057fe5b614c988585613fa7565b604080820180516001600160a01b03881660008181526010602090815290859020928355600a54600190930192909255606080860151600b81905593518551928352928201899052818501929092529081019190915290517f13ed6866d4e1ee6da46f845c46d7e54120883d75c5ea9a2dacc1c4ca8984ab809181900360800190a160055460408051635c77860560e01b81523060048201526001600160a01b0388811660248301526044820188905291519190921691635c77860591606480830192600092919082900301818387803b158015614d7557600080fd5b505af1158015614d89573d6000803e3d6000fd5b5060009250614d96915050565b95945050505050565b6000614da9614dfe565b600080614dbe670de0b6b3a7640000876144a4565b90925090506000826003811115614dd157fe5b14614df05750604080516020810190915260008152909250905061299d565b612da9818660000151613b03565b6040518060200160405280600081525090565b828054600181600116156101000203166002900490600052602060002090601f016020900481019282601f10614e5257805160ff1916838001178555614e7f565b82800160010185558215614e7f579182015b82811115614e7f578251825591602001919060010190614e64565b50614e8b929150614f3c565b5090565b6040805160e0810190915280600081526020016000815260200160008152602001600081526020016000815260200160008152602001600081525090565b6040805161010081019091528060008152602001600081526020016000815260200160008152602001600081526020016000815260200160008152602001600081525090565b604080516080810190915280600081526020016000815260200160008152602001600081525090565b6111d891905b80821115614e8b5760008155600101614f4256fe6f6e6c792061646d696e206d617920696e697469616c697a6520746865206d61726b65746d61726b6574206d6179206f6e6c7920626520696e697469616c697a6564206f6e6365696e697469616c2065786368616e67652072617465206d7573742062652067726561746572207468616e207a65726f2e73657474696e6720696e7465726573742072617465206d6f64656c206661696c65644d494e545f4e45575f4143434f554e545f42414c414e43455f43414c43554c4154494f4e5f4641494c4544626f72726f7742616c616e636553746f7265643a20626f72726f7742616c616e636553746f726564496e7465726e616c206661696c656452455041595f424f52524f575f4e45575f4143434f554e545f424f52524f575f42414c414e43455f43414c43554c4154494f4e5f4641494c4544ddf252ad1be2c89b69c2b068fc378daa952ba7f163c4a11628f55a4df523b3ef52455041595f424f52524f575f4e45575f544f54414c5f42414c414e43455f43414c43554c4154494f4e5f4641494c45444c49515549444154455f434f4d5054524f4c4c45525f43414c43554c4154455f414d4f554e545f5345495a455f4641494c454465786368616e67655261746553746f7265643a2065786368616e67655261746553746f726564496e7465726e616c206661696c65644d494e545f4e45575f544f54414c5f535550504c595f43414c43554c4154494f4e5f4641494c45446f6e65206f662072656465656d546f6b656e73496e206f722072656465656d416d6f756e74496e206d757374206265207a65726f72656475636520726573657276657320756e657870656374656420756e646572666c6f77a265627a7a72315820001ab94676efeae1d1be99840094b70843ab418c92af6ef715c8d2539a3736cc64736f6c634300050e00326f6e6c792061646d696e206d617920696e697469616c697a6520746865206d61726b65746d61726b6574206d6179206f6e6c7920626520696e697469616c697a6564206f6e6365696e697469616c2065786368616e67652072617465206d7573742062652067726561746572207468616e207a65726f2e73657474696e6720696e7465726573742072617465206d6f64656c206661696c6564",
  "source": "pragma solidity 0.5.14;\n\nimport \"../../contracts/CEther.sol\";\nimport \"./ComptrollerHarness.sol\";\n\ncontract CEtherHarness is CEther {\n    uint harnessExchangeRate;\n    uint public blockNumber = 100000;\n\n    mapping (address => bool) public failTransferToAddresses;\n\n    constructor(ComptrollerInterface comptroller_,\n                InterestRateModel interestRateModel_,\n                uint initialExchangeRateMantissa,\n                string memory name_,\n                string memory symbol_,\n                uint8 decimals_,\n                address payable admin_)\n    CEther(\n    comptroller_,\n    interestRateModel_,\n    initialExchangeRateMantissa,\n    name_,\n    symbol_,\n    decimals_,\n    admin_) public {}\n\n    function doTransferOut(address payable to, uint amount) internal {\n        require(failTransferToAddresses[to] == false, \"TOKEN_TRANSFER_OUT_FAILED\");\n        return super.doTransferOut(to, amount);\n    }\n\n    function exchangeRateStoredInternal() internal view returns (MathError, uint) {\n        if (harnessExchangeRate != 0) {\n            return (MathError.NO_ERROR, harnessExchangeRate);\n        }\n        return super.exchangeRateStoredInternal();\n    }\n\n    function getBlockNumber() internal view returns (uint) {\n        return blockNumber;\n    }\n\n    function harnessSetBlockNumber(uint newBlockNumber) public {\n        blockNumber = newBlockNumber;\n    }\n\n    function harnessFastForward(uint blocks) public {\n        blockNumber += blocks;\n    }\n\n    function harnessSetBalance(address account, uint amount) external {\n        accountTokens[account] = amount;\n    }\n\n    function harnessSetAccrualBlockNumber(uint _accrualblockNumber) public {\n        accrualBlockNumber = _accrualblockNumber;\n    }\n\n    function harnessSetTotalSupply(uint totalSupply_) public {\n        totalSupply = totalSupply_;\n    }\n\n    function harnessSetTotalBorrows(uint totalBorrows_) public {\n        totalBorrows = totalBorrows_;\n    }\n\n    function harnessSetTotalReserves(uint totalReserves_) public {\n        totalReserves = totalReserves_;\n    }\n\n    function harnessExchangeRateDetails(uint _totalSupply, uint _totalBorrows, uint _totalReserves) public {\n        totalSupply = _totalSupply;\n        totalBorrows = _totalBorrows;\n        totalReserves = _totalReserves;\n    }\n\n    function harnessSetExchangeRate(uint exchangeRate) public {\n        harnessExchangeRate = exchangeRate;\n    }\n\n    function harnessSetFailTransferToAddress(address _to, bool _fail) public {\n        failTransferToAddresses[_to] = _fail;\n    }\n\n    function harnessMintFresh(address account, uint mintAmount) public returns (uint) {\n        (uint err,) = super.mintFresh(account, mintAmount);\n        return err;\n    }\n\n    function harnessRedeemFresh(address payable account, uint cTokenAmount, uint underlyingAmount) public returns (uint) {\n        return super.redeemFresh(account, cTokenAmount, underlyingAmount);\n    }\n\n    function harnessAccountBorrows(address account) public view returns (uint principal, uint interestIndex) {\n        BorrowSnapshot memory snapshot = accountBorrows[account];\n        return (snapshot.principal, snapshot.interestIndex);\n    }\n\n    function harnessSetAccountBorrows(address account, uint principal, uint interestIndex) public {\n        accountBorrows[account] = BorrowSnapshot({principal: principal, interestIndex: interestIndex});\n    }\n\n    function harnessSetBorrowIndex(uint borrowIndex_) public {\n        borrowIndex = borrowIndex_;\n    }\n\n    function harnessBorrowFresh(address payable account, uint borrowAmount) public returns (uint) {\n        return borrowFresh(account, borrowAmount);\n    }\n\n    function harnessRepayBorrowFresh(address payer, address account, uint repayBorrowAmount) public payable returns (uint) {\n        (uint err,) = repayBorrowFresh(payer, account, repayBorrowAmount);\n        return err;\n    }\n\n    function harnessLiquidateBorrowFresh(address liquidator, address borrower, uint repayAmount, CToken cTokenCollateral) public returns (uint) {\n        (uint err,) = liquidateBorrowFresh(liquidator, borrower, repayAmount, cTokenCollateral);\n        return err;\n    }\n\n    function harnessReduceReservesFresh(uint amount) public returns (uint) {\n        return _reduceReservesFresh(amount);\n    }\n\n    function harnessSetReserves(uint amount) public {\n        totalReserves = amount;\n    }\n\n    function harnessSetReserveFactorFresh(uint newReserveFactorMantissa) public returns (uint) {\n        return _setReserveFactorFresh(newReserveFactorMantissa);\n    }\n\n    function harnessSetInterestRateModelFresh(InterestRateModel newInterestRateModel) public returns (uint) {\n        return _setInterestRateModelFresh(newInterestRateModel);\n    }\n\n    function harnessSetInterestRateModel(address newInterestRateModelAddress) public {\n        interestRateModel = InterestRateModel(newInterestRateModelAddress);\n    }\n\n    function harnessGetCashPrior() public payable returns (uint) {\n        return getCashPrior();\n    }\n\n    function harnessDoTransferIn(address from, uint amount) public payable returns (uint) {\n        return doTransferIn(from, amount);\n    }\n\n    function harnessDoTransferOut(address payable to, uint amount) public payable {\n        return doTransferOut(to, amount);\n    }\n\n    function harnessRequireNoError(uint error, string calldata message) external pure {\n        requireNoError(error, message);\n    }\n}\n\ncontract CEtherScenario is CEther {\n    uint reserveFactor;\n\n    constructor(string memory name_,\n                string memory symbol_,\n                uint8 decimals_,\n                address payable admin_,\n                ComptrollerInterface comptroller_,\n                InterestRateModel interestRateModel_,\n                uint initialExchangeRateMantissa)\n        CEther(comptroller_,\n               interestRateModel_,\n               initialExchangeRateMantissa,\n               name_,\n               symbol_,\n               decimals_,\n               admin_) public {\n    }\n\n    function setTotalBorrows(uint totalBorrows_) public {\n        totalBorrows = totalBorrows_;\n    }\n\n    function setTotalReserves(uint totalReserves_) public {\n        totalReserves = totalReserves_;\n    }\n\n    function donate() public payable {\n        // no-op\n    }\n\n    function getBlockNumber() internal view returns (uint) {\n        ComptrollerScenario comptrollerScenario = ComptrollerScenario(address(comptroller));\n        return comptrollerScenario.blockNumber();\n    }\n}\n",
  "sourcePath": "/Users/yanyichun/project/Savings/contracts/compound/test/Contracts/CEtherHarness.sol",
  "compiler": {
    "name": "solc",
    "version": "0.5.14+commit.01f1aaa4.Emscripten.clang"
  },
  "schemaVersion": "3.2.3",
  "updatedAt": "2021-02-25T05:55:40.897Z",
  "devdoc": {
    "methods": {
      "_acceptAdmin()": {
        "details": "Admin function for pending admin to accept role and update admin",
        "return": "uint 0=success, otherwise a failure (see ErrorReporter.sol for details)"
      },
      "_reduceReserves(uint256)": {
        "params": {
          "reduceAmount": "Amount of reduction to reserves"
        },
        "return": "uint 0=success, otherwise a failure (see ErrorReporter.sol for details)"
      },
      "_setComptroller(address)": {
        "details": "Admin function to set a new comptroller",
        "return": "uint 0=success, otherwise a failure (see ErrorReporter.sol for details)"
      },
      "_setInterestRateModel(address)": {
        "details": "Admin function to accrue interest and update the interest rate model",
        "params": {
          "newInterestRateModel": "the new interest rate model to use"
        },
        "return": "uint 0=success, otherwise a failure (see ErrorReporter.sol for details)"
      },
      "_setPendingAdmin(address)": {
        "details": "Admin function to begin change of admin. The newPendingAdmin must call `_acceptAdmin` to finalize the transfer.",
        "params": {
          "newPendingAdmin": "New pending admin."
        },
        "return": "uint 0=success, otherwise a failure (see ErrorReporter.sol for details)"
      },
      "_setReserveFactor(uint256)": {
        "details": "Admin function to accrue interest and set a new reserve factor",
        "return": "uint 0=success, otherwise a failure (see ErrorReporter.sol for details)"
      },
      "accrueInterest()": {
        "details": "This calculates interest accrued from the last checkpointed block  up to the current block and writes new checkpoint to storage."
      },
      "allowance(address,address)": {
        "params": {
          "owner": "The address of the account which owns the tokens to be spent",
          "spender": "The address of the account which may transfer tokens"
        },
        "return": "The number of tokens allowed to be spent (-1 means infinite)"
      },
      "approve(address,uint256)": {
        "details": "This will overwrite the approval amount for `spender` and is subject to issues noted [here](https://eips.ethereum.org/EIPS/eip-20#approve)",
        "params": {
          "amount": "The number of tokens that are approved (-1 means infinite)",
          "spender": "The address of the account which may transfer tokens"
        },
        "return": "Whether or not the approval succeeded"
      },
      "balanceOf(address)": {
        "params": {
          "owner": "The address of the account to query"
        },
        "return": "The number of tokens owned by `owner`"
      },
      "balanceOfUnderlying(address)": {
        "details": "This also accrues interest in a transaction",
        "params": {
          "owner": "The address of the account to query"
        },
        "return": "The amount of underlying owned by `owner`"
      },
      "borrow(uint256)": {
        "params": {
          "borrowAmount": "The amount of the underlying asset to borrow"
        },
        "return": "uint 0=success, otherwise a failure (see ErrorReporter.sol for details)"
      },
      "borrowBalanceCurrent(address)": {
        "params": {
          "account": "The address whose balance should be calculated after updating borrowIndex"
        },
        "return": "The calculated balance"
      },
      "borrowBalanceStored(address)": {
        "params": {
          "account": "The address whose balance should be calculated"
        },
        "return": "The calculated balance"
      },
      "borrowRatePerBlock()": {
        "return": "The borrow interest rate per block, scaled by 1e18"
      },
      "exchangeRateCurrent()": {
        "return": "Calculated exchange rate scaled by 1e18"
      },
      "exchangeRateStored()": {
        "details": "This function does not accrue interest before calculating the exchange rate",
        "return": "Calculated exchange rate scaled by 1e18"
      },
      "getAccountSnapshot(address)": {
        "details": "This is used by comptroller to more efficiently perform liquidity checks.",
        "params": {
          "account": "Address of the account to snapshot"
        },
        "return": "(possible error, token balance, borrow balance, exchange rate mantissa)"
      },
      "getCash()": {
        "return": "The quantity of underlying asset owned by this contract"
      },
      "initialize(address,address,uint256,string,string,uint8)": {
        "params": {
          "comptroller_": "The address of the Comptroller",
          "decimals_": "EIP-20 decimal precision of this token",
          "initialExchangeRateMantissa_": "The initial exchange rate, scaled by 1e18",
          "interestRateModel_": "The address of the interest rate model",
          "name_": "EIP-20 name of this token",
          "symbol_": "EIP-20 symbol of this token"
        }
      },
      "liquidateBorrow(address,address)": {
        "details": "Reverts upon any failure",
        "params": {
          "borrower": "The borrower of this cToken to be liquidated",
          "cTokenCollateral": "The market in which to seize collateral from the borrower"
        }
      },
      "mint()": {
        "details": "Reverts upon any failure"
      },
      "redeem(uint256)": {
        "details": "Accrues interest whether or not the operation succeeds, unless reverted",
        "params": {
          "redeemTokens": "The number of cTokens to redeem into underlying"
        },
        "return": "uint 0=success, otherwise a failure (see ErrorReporter.sol for details)"
      },
      "redeemUnderlying(uint256)": {
        "details": "Accrues interest whether or not the operation succeeds, unless reverted",
        "params": {
          "redeemAmount": "The amount of underlying to redeem"
        },
        "return": "uint 0=success, otherwise a failure (see ErrorReporter.sol for details)"
      },
      "repayBorrow()": {
        "details": "Reverts upon any failure"
      },
      "repayBorrowBehalf(address)": {
        "details": "Reverts upon any failure",
        "params": {
          "borrower": "the account with the debt being payed off"
        }
      },
      "seize(address,address,uint256)": {
        "details": "Will fail unless called by another cToken during the process of liquidation. Its absolutely critical to use msg.sender as the borrowed cToken and not a parameter.",
        "params": {
          "borrower": "The account having collateral seized",
          "liquidator": "The account receiving seized collateral",
          "seizeTokens": "The number of cTokens to seize"
        },
        "return": "uint 0=success, otherwise a failure (see ErrorReporter.sol for details)"
      },
      "supplyRatePerBlock()": {
        "return": "The supply interest rate per block, scaled by 1e18"
      },
      "totalBorrowsCurrent()": {
        "return": "The total borrows with interest"
      },
      "transfer(address,uint256)": {
        "params": {
          "amount": "The number of tokens to transfer",
          "dst": "The address of the destination account"
        },
        "return": "Whether or not the transfer succeeded"
      },
      "transferFrom(address,address,uint256)": {
        "params": {
          "amount": "The number of tokens to transfer",
          "dst": "The address of the destination account",
          "src": "The address of the source account"
        },
        "return": "Whether or not the transfer succeeded"
      }
    }
  },
  "userdoc": {
    "methods": {
      "_acceptAdmin()": {
        "notice": "Accepts transfer of admin rights. msg.sender must be pendingAdmin"
      },
      "_reduceReserves(uint256)": {
        "notice": "Accrues interest and reduces reserves by transferring to admin"
      },
      "_setComptroller(address)": {
        "notice": "Sets a new comptroller for the market"
      },
      "_setInterestRateModel(address)": {
        "notice": "accrues interest and updates the interest rate model using _setInterestRateModelFresh"
      },
      "_setPendingAdmin(address)": {
        "notice": "Begins transfer of admin rights. The newPendingAdmin must call `_acceptAdmin` to finalize the transfer."
      },
      "_setReserveFactor(uint256)": {
        "notice": "accrues interest and sets a new reserve factor for the protocol using _setReserveFactorFresh"
      },
      "accrueInterest()": {
        "notice": "Applies accrued interest to total borrows and reserves"
      },
      "allowance(address,address)": {
        "notice": "Get the current allowance from `owner` for `spender`"
      },
      "approve(address,uint256)": {
        "notice": "Approve `spender` to transfer up to `amount` from `src`"
      },
      "balanceOf(address)": {
        "notice": "Get the token balance of the `owner`"
      },
      "balanceOfUnderlying(address)": {
        "notice": "Get the underlying balance of the `owner`"
      },
      "borrow(uint256)": {
        "notice": "Sender borrows assets from the protocol to their own address"
      },
      "borrowBalanceCurrent(address)": {
        "notice": "Accrue interest to updated borrowIndex and then calculate account's borrow balance using the updated borrowIndex"
      },
      "borrowBalanceStored(address)": {
        "notice": "Return the borrow balance of account based on stored data"
      },
      "borrowRatePerBlock()": {
        "notice": "Returns the current per-block borrow interest rate for this cToken"
      },
      "exchangeRateCurrent()": {
        "notice": "Accrue interest then return the up-to-date exchange rate"
      },
      "exchangeRateStored()": {
        "notice": "Calculates the exchange rate from the underlying to the CToken"
      },
      "getAccountSnapshot(address)": {
        "notice": "Get a snapshot of the account's balances, and the cached exchange rate"
      },
      "getCash()": {
        "notice": "Get cash balance of this cToken in the underlying asset"
      },
      "initialize(address,address,uint256,string,string,uint8)": {
        "notice": "Initialize the money market"
      },
      "liquidateBorrow(address,address)": {
        "notice": "The sender liquidates the borrowers collateral. The collateral seized is transferred to the liquidator."
      },
      "mint()": {
        "notice": "Sender supplies assets into the market and receives cTokens in exchange"
      },
      "redeem(uint256)": {
        "notice": "Sender redeems cTokens in exchange for the underlying asset"
      },
      "redeemUnderlying(uint256)": {
        "notice": "Sender redeems cTokens in exchange for a specified amount of underlying asset"
      },
      "repayBorrow()": {
        "notice": "Sender repays their own borrow"
      },
      "repayBorrowBehalf(address)": {
        "notice": "Sender repays a borrow belonging to borrower"
      },
      "seize(address,address,uint256)": {
        "notice": "Transfers collateral tokens (this market) to the liquidator."
      },
      "supplyRatePerBlock()": {
        "notice": "Returns the current per-block supply interest rate for this cToken"
      },
      "totalBorrowsCurrent()": {
        "notice": "Returns the current total borrows plus accrued interest"
      },
      "transfer(address,uint256)": {
        "notice": "Transfer `amount` tokens from `msg.sender` to `dst`"
      },
      "transferFrom(address,address,uint256)": {
        "notice": "Transfer `amount` tokens from `src` to `dst`"
      }
    }
  }
}