{
  "contractName": "CEtherHarness",
  "abi": [
    {
      "inputs": [
        {
          "internalType": "contract ComptrollerInterface",
          "name": "comptroller_",
          "type": "address"
        },
        {
          "internalType": "contract InterestRateModel",
          "name": "interestRateModel_",
          "type": "address"
        },
        {
          "internalType": "uint256",
          "name": "initialExchangeRateMantissa",
          "type": "uint256"
        },
        {
          "internalType": "string",
          "name": "name_",
          "type": "string"
        },
        {
          "internalType": "string",
          "name": "symbol_",
          "type": "string"
        },
        {
          "internalType": "uint8",
          "name": "decimals_",
          "type": "uint8"
        },
        {
          "internalType": "address payable",
          "name": "admin_",
          "type": "address"
        }
      ],
      "payable": false,
      "stateMutability": "nonpayable",
      "type": "constructor"
    },
    {
      "anonymous": false,
      "inputs": [
        {
          "indexed": false,
          "internalType": "uint256",
          "name": "cashPrior",
          "type": "uint256"
        },
        {
          "indexed": false,
          "internalType": "uint256",
          "name": "interestAccumulated",
          "type": "uint256"
        },
        {
          "indexed": false,
          "internalType": "uint256",
          "name": "borrowIndex",
          "type": "uint256"
        },
        {
          "indexed": false,
          "internalType": "uint256",
          "name": "totalBorrows",
          "type": "uint256"
        }
      ],
      "name": "AccrueInterest",
      "type": "event"
    },
    {
      "anonymous": false,
      "inputs": [
        {
          "indexed": true,
          "internalType": "address",
          "name": "owner",
          "type": "address"
        },
        {
          "indexed": true,
          "internalType": "address",
          "name": "spender",
          "type": "address"
        },
        {
          "indexed": false,
          "internalType": "uint256",
          "name": "amount",
          "type": "uint256"
        }
      ],
      "name": "Approval",
      "type": "event"
    },
    {
      "anonymous": false,
      "inputs": [
        {
          "indexed": false,
          "internalType": "address",
          "name": "borrower",
          "type": "address"
        },
        {
          "indexed": false,
          "internalType": "uint256",
          "name": "borrowAmount",
          "type": "uint256"
        },
        {
          "indexed": false,
          "internalType": "uint256",
          "name": "accountBorrows",
          "type": "uint256"
        },
        {
          "indexed": false,
          "internalType": "uint256",
          "name": "totalBorrows",
          "type": "uint256"
        }
      ],
      "name": "Borrow",
      "type": "event"
    },
    {
      "anonymous": false,
      "inputs": [
        {
          "indexed": false,
          "internalType": "uint256",
          "name": "error",
          "type": "uint256"
        },
        {
          "indexed": false,
          "internalType": "uint256",
          "name": "info",
          "type": "uint256"
        },
        {
          "indexed": false,
          "internalType": "uint256",
          "name": "detail",
          "type": "uint256"
        }
      ],
      "name": "Failure",
      "type": "event"
    },
    {
      "anonymous": false,
      "inputs": [
        {
          "indexed": false,
          "internalType": "address",
          "name": "liquidator",
          "type": "address"
        },
        {
          "indexed": false,
          "internalType": "address",
          "name": "borrower",
          "type": "address"
        },
        {
          "indexed": false,
          "internalType": "uint256",
          "name": "repayAmount",
          "type": "uint256"
        },
        {
          "indexed": false,
          "internalType": "address",
          "name": "cTokenCollateral",
          "type": "address"
        },
        {
          "indexed": false,
          "internalType": "uint256",
          "name": "seizeTokens",
          "type": "uint256"
        }
      ],
      "name": "LiquidateBorrow",
      "type": "event"
    },
    {
      "anonymous": false,
      "inputs": [
        {
          "indexed": false,
          "internalType": "address",
          "name": "minter",
          "type": "address"
        },
        {
          "indexed": false,
          "internalType": "uint256",
          "name": "mintAmount",
          "type": "uint256"
        },
        {
          "indexed": false,
          "internalType": "uint256",
          "name": "mintTokens",
          "type": "uint256"
        }
      ],
      "name": "Mint",
      "type": "event"
    },
    {
      "anonymous": false,
      "inputs": [
        {
          "indexed": false,
          "internalType": "address",
          "name": "oldAdmin",
          "type": "address"
        },
        {
          "indexed": false,
          "internalType": "address",
          "name": "newAdmin",
          "type": "address"
        }
      ],
      "name": "NewAdmin",
      "type": "event"
    },
    {
      "anonymous": false,
      "inputs": [
        {
          "indexed": false,
          "internalType": "contract ComptrollerInterface",
          "name": "oldComptroller",
          "type": "address"
        },
        {
          "indexed": false,
          "internalType": "contract ComptrollerInterface",
          "name": "newComptroller",
          "type": "address"
        }
      ],
      "name": "NewComptroller",
      "type": "event"
    },
    {
      "anonymous": false,
      "inputs": [
        {
          "indexed": false,
          "internalType": "contract InterestRateModel",
          "name": "oldInterestRateModel",
          "type": "address"
        },
        {
          "indexed": false,
          "internalType": "contract InterestRateModel",
          "name": "newInterestRateModel",
          "type": "address"
        }
      ],
      "name": "NewMarketInterestRateModel",
      "type": "event"
    },
    {
      "anonymous": false,
      "inputs": [
        {
          "indexed": false,
          "internalType": "address",
          "name": "oldPendingAdmin",
          "type": "address"
        },
        {
          "indexed": false,
          "internalType": "address",
          "name": "newPendingAdmin",
          "type": "address"
        }
      ],
      "name": "NewPendingAdmin",
      "type": "event"
    },
    {
      "anonymous": false,
      "inputs": [
        {
          "indexed": false,
          "internalType": "uint256",
          "name": "oldReserveFactorMantissa",
          "type": "uint256"
        },
        {
          "indexed": false,
          "internalType": "uint256",
          "name": "newReserveFactorMantissa",
          "type": "uint256"
        }
      ],
      "name": "NewReserveFactor",
      "type": "event"
    },
    {
      "anonymous": false,
      "inputs": [
        {
          "indexed": false,
          "internalType": "address",
          "name": "redeemer",
          "type": "address"
        },
        {
          "indexed": false,
          "internalType": "uint256",
          "name": "redeemAmount",
          "type": "uint256"
        },
        {
          "indexed": false,
          "internalType": "uint256",
          "name": "redeemTokens",
          "type": "uint256"
        }
      ],
      "name": "Redeem",
      "type": "event"
    },
    {
      "anonymous": false,
      "inputs": [
        {
          "indexed": false,
          "internalType": "address",
          "name": "payer",
          "type": "address"
        },
        {
          "indexed": false,
          "internalType": "address",
          "name": "borrower",
          "type": "address"
        },
        {
          "indexed": false,
          "internalType": "uint256",
          "name": "repayAmount",
          "type": "uint256"
        },
        {
          "indexed": false,
          "internalType": "uint256",
          "name": "accountBorrows",
          "type": "uint256"
        },
        {
          "indexed": false,
          "internalType": "uint256",
          "name": "totalBorrows",
          "type": "uint256"
        }
      ],
      "name": "RepayBorrow",
      "type": "event"
    },
    {
      "anonymous": false,
      "inputs": [
        {
          "indexed": false,
          "internalType": "address",
          "name": "benefactor",
          "type": "address"
        },
        {
          "indexed": false,
          "internalType": "uint256",
          "name": "addAmount",
          "type": "uint256"
        },
        {
          "indexed": false,
          "internalType": "uint256",
          "name": "newTotalReserves",
          "type": "uint256"
        }
      ],
      "name": "ReservesAdded",
      "type": "event"
    },
    {
      "anonymous": false,
      "inputs": [
        {
          "indexed": false,
          "internalType": "address",
          "name": "admin",
          "type": "address"
        },
        {
          "indexed": false,
          "internalType": "uint256",
          "name": "reduceAmount",
          "type": "uint256"
        },
        {
          "indexed": false,
          "internalType": "uint256",
          "name": "newTotalReserves",
          "type": "uint256"
        }
      ],
      "name": "ReservesReduced",
      "type": "event"
    },
    {
      "anonymous": false,
      "inputs": [
        {
          "indexed": true,
          "internalType": "address",
          "name": "from",
          "type": "address"
        },
        {
          "indexed": true,
          "internalType": "address",
          "name": "to",
          "type": "address"
        },
        {
          "indexed": false,
          "internalType": "uint256",
          "name": "amount",
          "type": "uint256"
        }
      ],
      "name": "Transfer",
      "type": "event"
    },
    {
      "payable": true,
      "stateMutability": "payable",
      "type": "fallback"
    },
    {
      "constant": false,
      "inputs": [],
      "name": "_acceptAdmin",
      "outputs": [
        {
          "internalType": "uint256",
          "name": "",
          "type": "uint256"
        }
      ],
      "payable": false,
      "stateMutability": "nonpayable",
      "type": "function"
    },
    {
      "constant": false,
      "inputs": [
        {
          "internalType": "uint256",
          "name": "reduceAmount",
          "type": "uint256"
        }
      ],
      "name": "_reduceReserves",
      "outputs": [
        {
          "internalType": "uint256",
          "name": "",
          "type": "uint256"
        }
      ],
      "payable": false,
      "stateMutability": "nonpayable",
      "type": "function"
    },
    {
      "constant": false,
      "inputs": [
        {
          "internalType": "contract ComptrollerInterface",
          "name": "newComptroller",
          "type": "address"
        }
      ],
      "name": "_setComptroller",
      "outputs": [
        {
          "internalType": "uint256",
          "name": "",
          "type": "uint256"
        }
      ],
      "payable": false,
      "stateMutability": "nonpayable",
      "type": "function"
    },
    {
      "constant": false,
      "inputs": [
        {
          "internalType": "contract InterestRateModel",
          "name": "newInterestRateModel",
          "type": "address"
        }
      ],
      "name": "_setInterestRateModel",
      "outputs": [
        {
          "internalType": "uint256",
          "name": "",
          "type": "uint256"
        }
      ],
      "payable": false,
      "stateMutability": "nonpayable",
      "type": "function"
    },
    {
      "constant": false,
      "inputs": [
        {
          "internalType": "address payable",
          "name": "newPendingAdmin",
          "type": "address"
        }
      ],
      "name": "_setPendingAdmin",
      "outputs": [
        {
          "internalType": "uint256",
          "name": "",
          "type": "uint256"
        }
      ],
      "payable": false,
      "stateMutability": "nonpayable",
      "type": "function"
    },
    {
      "constant": false,
      "inputs": [
        {
          "internalType": "uint256",
          "name": "newReserveFactorMantissa",
          "type": "uint256"
        }
      ],
      "name": "_setReserveFactor",
      "outputs": [
        {
          "internalType": "uint256",
          "name": "",
          "type": "uint256"
        }
      ],
      "payable": false,
      "stateMutability": "nonpayable",
      "type": "function"
    },
    {
      "constant": true,
      "inputs": [],
      "name": "accrualBlockNumber",
      "outputs": [
        {
          "internalType": "uint256",
          "name": "",
          "type": "uint256"
        }
      ],
      "payable": false,
      "stateMutability": "view",
      "type": "function"
    },
    {
      "constant": false,
      "inputs": [],
      "name": "accrueInterest",
      "outputs": [
        {
          "internalType": "uint256",
          "name": "",
          "type": "uint256"
        }
      ],
      "payable": false,
      "stateMutability": "nonpayable",
      "type": "function"
    },
    {
      "constant": true,
      "inputs": [],
      "name": "admin",
      "outputs": [
        {
          "internalType": "address payable",
          "name": "",
          "type": "address"
        }
      ],
      "payable": false,
      "stateMutability": "view",
      "type": "function"
    },
    {
      "constant": true,
      "inputs": [
        {
          "internalType": "address",
          "name": "owner",
          "type": "address"
        },
        {
          "internalType": "address",
          "name": "spender",
          "type": "address"
        }
      ],
      "name": "allowance",
      "outputs": [
        {
          "internalType": "uint256",
          "name": "",
          "type": "uint256"
        }
      ],
      "payable": false,
      "stateMutability": "view",
      "type": "function"
    },
    {
      "constant": false,
      "inputs": [
        {
          "internalType": "address",
          "name": "spender",
          "type": "address"
        },
        {
          "internalType": "uint256",
          "name": "amount",
          "type": "uint256"
        }
      ],
      "name": "approve",
      "outputs": [
        {
          "internalType": "bool",
          "name": "",
          "type": "bool"
        }
      ],
      "payable": false,
      "stateMutability": "nonpayable",
      "type": "function"
    },
    {
      "constant": true,
      "inputs": [
        {
          "internalType": "address",
          "name": "owner",
          "type": "address"
        }
      ],
      "name": "balanceOf",
      "outputs": [
        {
          "internalType": "uint256",
          "name": "",
          "type": "uint256"
        }
      ],
      "payable": false,
      "stateMutability": "view",
      "type": "function"
    },
    {
      "constant": false,
      "inputs": [
        {
          "internalType": "address",
          "name": "owner",
          "type": "address"
        }
      ],
      "name": "balanceOfUnderlying",
      "outputs": [
        {
          "internalType": "uint256",
          "name": "",
          "type": "uint256"
        }
      ],
      "payable": false,
      "stateMutability": "nonpayable",
      "type": "function"
    },
    {
      "constant": true,
      "inputs": [],
      "name": "blockNumber",
      "outputs": [
        {
          "internalType": "uint256",
          "name": "",
          "type": "uint256"
        }
      ],
      "payable": false,
      "stateMutability": "view",
      "type": "function"
    },
    {
      "constant": false,
      "inputs": [
        {
          "internalType": "uint256",
          "name": "borrowAmount",
          "type": "uint256"
        }
      ],
      "name": "borrow",
      "outputs": [
        {
          "internalType": "uint256",
          "name": "",
          "type": "uint256"
        }
      ],
      "payable": false,
      "stateMutability": "nonpayable",
      "type": "function"
    },
    {
      "constant": false,
      "inputs": [
        {
          "internalType": "address",
          "name": "account",
          "type": "address"
        }
      ],
      "name": "borrowBalanceCurrent",
      "outputs": [
        {
          "internalType": "uint256",
          "name": "",
          "type": "uint256"
        }
      ],
      "payable": false,
      "stateMutability": "nonpayable",
      "type": "function"
    },
    {
      "constant": true,
      "inputs": [
        {
          "internalType": "address",
          "name": "account",
          "type": "address"
        }
      ],
      "name": "borrowBalanceStored",
      "outputs": [
        {
          "internalType": "uint256",
          "name": "",
          "type": "uint256"
        }
      ],
      "payable": false,
      "stateMutability": "view",
      "type": "function"
    },
    {
      "constant": true,
      "inputs": [],
      "name": "borrowIndex",
      "outputs": [
        {
          "internalType": "uint256",
          "name": "",
          "type": "uint256"
        }
      ],
      "payable": false,
      "stateMutability": "view",
      "type": "function"
    },
    {
      "constant": true,
      "inputs": [],
      "name": "borrowRatePerBlock",
      "outputs": [
        {
          "internalType": "uint256",
          "name": "",
          "type": "uint256"
        }
      ],
      "payable": false,
      "stateMutability": "view",
      "type": "function"
    },
    {
      "constant": true,
      "inputs": [],
      "name": "comptroller",
      "outputs": [
        {
          "internalType": "contract ComptrollerInterface",
          "name": "",
          "type": "address"
        }
      ],
      "payable": false,
      "stateMutability": "view",
      "type": "function"
    },
    {
      "constant": true,
      "inputs": [],
      "name": "decimals",
      "outputs": [
        {
          "internalType": "uint8",
          "name": "",
          "type": "uint8"
        }
      ],
      "payable": false,
      "stateMutability": "view",
      "type": "function"
    },
    {
      "constant": false,
      "inputs": [],
      "name": "exchangeRateCurrent",
      "outputs": [
        {
          "internalType": "uint256",
          "name": "",
          "type": "uint256"
        }
      ],
      "payable": false,
      "stateMutability": "nonpayable",
      "type": "function"
    },
    {
      "constant": true,
      "inputs": [],
      "name": "exchangeRateStored",
      "outputs": [
        {
          "internalType": "uint256",
          "name": "",
          "type": "uint256"
        }
      ],
      "payable": false,
      "stateMutability": "view",
      "type": "function"
    },
    {
      "constant": true,
      "inputs": [
        {
          "internalType": "address",
          "name": "",
          "type": "address"
        }
      ],
      "name": "failTransferToAddresses",
      "outputs": [
        {
          "internalType": "bool",
          "name": "",
          "type": "bool"
        }
      ],
      "payable": false,
      "stateMutability": "view",
      "type": "function"
    },
    {
      "constant": true,
      "inputs": [
        {
          "internalType": "address",
          "name": "account",
          "type": "address"
        }
      ],
      "name": "getAccountSnapshot",
      "outputs": [
        {
          "internalType": "uint256",
          "name": "",
          "type": "uint256"
        },
        {
          "internalType": "uint256",
          "name": "",
          "type": "uint256"
        },
        {
          "internalType": "uint256",
          "name": "",
          "type": "uint256"
        },
        {
          "internalType": "uint256",
          "name": "",
          "type": "uint256"
        }
      ],
      "payable": false,
      "stateMutability": "view",
      "type": "function"
    },
    {
      "constant": true,
      "inputs": [],
      "name": "getCash",
      "outputs": [
        {
          "internalType": "uint256",
          "name": "",
          "type": "uint256"
        }
      ],
      "payable": false,
      "stateMutability": "view",
      "type": "function"
    },
    {
      "constant": false,
      "inputs": [
        {
          "internalType": "contract ComptrollerInterface",
          "name": "comptroller_",
          "type": "address"
        },
        {
          "internalType": "contract InterestRateModel",
          "name": "interestRateModel_",
          "type": "address"
        },
        {
          "internalType": "uint256",
          "name": "initialExchangeRateMantissa_",
          "type": "uint256"
        },
        {
          "internalType": "string",
          "name": "name_",
          "type": "string"
        },
        {
          "internalType": "string",
          "name": "symbol_",
          "type": "string"
        },
        {
          "internalType": "uint8",
          "name": "decimals_",
          "type": "uint8"
        }
      ],
      "name": "initialize",
      "outputs": [],
      "payable": false,
      "stateMutability": "nonpayable",
      "type": "function"
    },
    {
      "constant": true,
      "inputs": [],
      "name": "interestRateModel",
      "outputs": [
        {
          "internalType": "contract InterestRateModel",
          "name": "",
          "type": "address"
        }
      ],
      "payable": false,
      "stateMutability": "view",
      "type": "function"
    },
    {
      "constant": true,
      "inputs": [],
      "name": "isCToken",
      "outputs": [
        {
          "internalType": "bool",
          "name": "",
          "type": "bool"
        }
      ],
      "payable": false,
      "stateMutability": "view",
      "type": "function"
    },
    {
      "constant": false,
      "inputs": [
        {
          "internalType": "address",
          "name": "borrower",
          "type": "address"
        },
        {
          "internalType": "contract CToken",
          "name": "cTokenCollateral",
          "type": "address"
        }
      ],
      "name": "liquidateBorrow",
      "outputs": [],
      "payable": true,
      "stateMutability": "payable",
      "type": "function"
    },
    {
      "constant": false,
      "inputs": [],
      "name": "mint",
      "outputs": [],
      "payable": true,
      "stateMutability": "payable",
      "type": "function"
    },
    {
      "constant": true,
      "inputs": [],
      "name": "name",
      "outputs": [
        {
          "internalType": "string",
          "name": "",
          "type": "string"
        }
      ],
      "payable": false,
      "stateMutability": "view",
      "type": "function"
    },
    {
      "constant": true,
      "inputs": [],
      "name": "pendingAdmin",
      "outputs": [
        {
          "internalType": "address payable",
          "name": "",
          "type": "address"
        }
      ],
      "payable": false,
      "stateMutability": "view",
      "type": "function"
    },
    {
      "constant": false,
      "inputs": [
        {
          "internalType": "uint256",
          "name": "redeemTokens",
          "type": "uint256"
        }
      ],
      "name": "redeem",
      "outputs": [
        {
          "internalType": "uint256",
          "name": "",
          "type": "uint256"
        }
      ],
      "payable": false,
      "stateMutability": "nonpayable",
      "type": "function"
    },
    {
      "constant": false,
      "inputs": [
        {
          "internalType": "uint256",
          "name": "redeemAmount",
          "type": "uint256"
        }
      ],
      "name": "redeemUnderlying",
      "outputs": [
        {
          "internalType": "uint256",
          "name": "",
          "type": "uint256"
        }
      ],
      "payable": false,
      "stateMutability": "nonpayable",
      "type": "function"
    },
    {
      "constant": false,
      "inputs": [],
      "name": "repayBorrow",
      "outputs": [],
      "payable": true,
      "stateMutability": "payable",
      "type": "function"
    },
    {
      "constant": false,
      "inputs": [
        {
          "internalType": "address",
          "name": "borrower",
          "type": "address"
        }
      ],
      "name": "repayBorrowBehalf",
      "outputs": [],
      "payable": true,
      "stateMutability": "payable",
      "type": "function"
    },
    {
      "constant": true,
      "inputs": [],
      "name": "reserveFactorMantissa",
      "outputs": [
        {
          "internalType": "uint256",
          "name": "",
          "type": "uint256"
        }
      ],
      "payable": false,
      "stateMutability": "view",
      "type": "function"
    },
    {
      "constant": false,
      "inputs": [
        {
          "internalType": "address",
          "name": "liquidator",
          "type": "address"
        },
        {
          "internalType": "address",
          "name": "borrower",
          "type": "address"
        },
        {
          "internalType": "uint256",
          "name": "seizeTokens",
          "type": "uint256"
        }
      ],
      "name": "seize",
      "outputs": [
        {
          "internalType": "uint256",
          "name": "",
          "type": "uint256"
        }
      ],
      "payable": false,
      "stateMutability": "nonpayable",
      "type": "function"
    },
    {
      "constant": true,
      "inputs": [],
      "name": "supplyRatePerBlock",
      "outputs": [
        {
          "internalType": "uint256",
          "name": "",
          "type": "uint256"
        }
      ],
      "payable": false,
      "stateMutability": "view",
      "type": "function"
    },
    {
      "constant": true,
      "inputs": [],
      "name": "symbol",
      "outputs": [
        {
          "internalType": "string",
          "name": "",
          "type": "string"
        }
      ],
      "payable": false,
      "stateMutability": "view",
      "type": "function"
    },
    {
      "constant": true,
      "inputs": [],
      "name": "totalBorrows",
      "outputs": [
        {
          "internalType": "uint256",
          "name": "",
          "type": "uint256"
        }
      ],
      "payable": false,
      "stateMutability": "view",
      "type": "function"
    },
    {
      "constant": false,
      "inputs": [],
      "name": "totalBorrowsCurrent",
      "outputs": [
        {
          "internalType": "uint256",
          "name": "",
          "type": "uint256"
        }
      ],
      "payable": false,
      "stateMutability": "nonpayable",
      "type": "function"
    },
    {
      "constant": true,
      "inputs": [],
      "name": "totalReserves",
      "outputs": [
        {
          "internalType": "uint256",
          "name": "",
          "type": "uint256"
        }
      ],
      "payable": false,
      "stateMutability": "view",
      "type": "function"
    },
    {
      "constant": true,
      "inputs": [],
      "name": "totalSupply",
      "outputs": [
        {
          "internalType": "uint256",
          "name": "",
          "type": "uint256"
        }
      ],
      "payable": false,
      "stateMutability": "view",
      "type": "function"
    },
    {
      "constant": false,
      "inputs": [
        {
          "internalType": "address",
          "name": "dst",
          "type": "address"
        },
        {
          "internalType": "uint256",
          "name": "amount",
          "type": "uint256"
        }
      ],
      "name": "transfer",
      "outputs": [
        {
          "internalType": "bool",
          "name": "",
          "type": "bool"
        }
      ],
      "payable": false,
      "stateMutability": "nonpayable",
      "type": "function"
    },
    {
      "constant": false,
      "inputs": [
        {
          "internalType": "address",
          "name": "src",
          "type": "address"
        },
        {
          "internalType": "address",
          "name": "dst",
          "type": "address"
        },
        {
          "internalType": "uint256",
          "name": "amount",
          "type": "uint256"
        }
      ],
      "name": "transferFrom",
      "outputs": [
        {
          "internalType": "bool",
          "name": "",
          "type": "bool"
        }
      ],
      "payable": false,
      "stateMutability": "nonpayable",
      "type": "function"
    },
    {
      "constant": false,
      "inputs": [
        {
          "internalType": "uint256",
          "name": "newBlockNumber",
          "type": "uint256"
        }
      ],
      "name": "harnessSetBlockNumber",
      "outputs": [],
      "payable": false,
      "stateMutability": "nonpayable",
      "type": "function"
    },
    {
      "constant": false,
      "inputs": [
        {
          "internalType": "uint256",
          "name": "blocks",
          "type": "uint256"
        }
      ],
      "name": "harnessFastForward",
      "outputs": [],
      "payable": false,
      "stateMutability": "nonpayable",
      "type": "function"
    },
    {
      "constant": false,
      "inputs": [
        {
          "internalType": "address",
          "name": "account",
          "type": "address"
        },
        {
          "internalType": "uint256",
          "name": "amount",
          "type": "uint256"
        }
      ],
      "name": "harnessSetBalance",
      "outputs": [],
      "payable": false,
      "stateMutability": "nonpayable",
      "type": "function"
    },
    {
      "constant": false,
      "inputs": [
        {
          "internalType": "uint256",
          "name": "_accrualblockNumber",
          "type": "uint256"
        }
      ],
      "name": "harnessSetAccrualBlockNumber",
      "outputs": [],
      "payable": false,
      "stateMutability": "nonpayable",
      "type": "function"
    },
    {
      "constant": false,
      "inputs": [
        {
          "internalType": "uint256",
          "name": "totalSupply_",
          "type": "uint256"
        }
      ],
      "name": "harnessSetTotalSupply",
      "outputs": [],
      "payable": false,
      "stateMutability": "nonpayable",
      "type": "function"
    },
    {
      "constant": false,
      "inputs": [
        {
          "internalType": "uint256",
          "name": "totalBorrows_",
          "type": "uint256"
        }
      ],
      "name": "harnessSetTotalBorrows",
      "outputs": [],
      "payable": false,
      "stateMutability": "nonpayable",
      "type": "function"
    },
    {
      "constant": false,
      "inputs": [
        {
          "internalType": "uint256",
          "name": "totalReserves_",
          "type": "uint256"
        }
      ],
      "name": "harnessSetTotalReserves",
      "outputs": [],
      "payable": false,
      "stateMutability": "nonpayable",
      "type": "function"
    },
    {
      "constant": false,
      "inputs": [
        {
          "internalType": "uint256",
          "name": "_totalSupply",
          "type": "uint256"
        },
        {
          "internalType": "uint256",
          "name": "_totalBorrows",
          "type": "uint256"
        },
        {
          "internalType": "uint256",
          "name": "_totalReserves",
          "type": "uint256"
        }
      ],
      "name": "harnessExchangeRateDetails",
      "outputs": [],
      "payable": false,
      "stateMutability": "nonpayable",
      "type": "function"
    },
    {
      "constant": false,
      "inputs": [
        {
          "internalType": "uint256",
          "name": "exchangeRate",
          "type": "uint256"
        }
      ],
      "name": "harnessSetExchangeRate",
      "outputs": [],
      "payable": false,
      "stateMutability": "nonpayable",
      "type": "function"
    },
    {
      "constant": false,
      "inputs": [
        {
          "internalType": "address",
          "name": "_to",
          "type": "address"
        },
        {
          "internalType": "bool",
          "name": "_fail",
          "type": "bool"
        }
      ],
      "name": "harnessSetFailTransferToAddress",
      "outputs": [],
      "payable": false,
      "stateMutability": "nonpayable",
      "type": "function"
    },
    {
      "constant": false,
      "inputs": [
        {
          "internalType": "address",
          "name": "account",
          "type": "address"
        },
        {
          "internalType": "uint256",
          "name": "mintAmount",
          "type": "uint256"
        }
      ],
      "name": "harnessMintFresh",
      "outputs": [
        {
          "internalType": "uint256",
          "name": "",
          "type": "uint256"
        }
      ],
      "payable": false,
      "stateMutability": "nonpayable",
      "type": "function"
    },
    {
      "constant": false,
      "inputs": [
        {
          "internalType": "address payable",
          "name": "account",
          "type": "address"
        },
        {
          "internalType": "uint256",
          "name": "cTokenAmount",
          "type": "uint256"
        },
        {
          "internalType": "uint256",
          "name": "underlyingAmount",
          "type": "uint256"
        }
      ],
      "name": "harnessRedeemFresh",
      "outputs": [
        {
          "internalType": "uint256",
          "name": "",
          "type": "uint256"
        }
      ],
      "payable": false,
      "stateMutability": "nonpayable",
      "type": "function"
    },
    {
      "constant": true,
      "inputs": [
        {
          "internalType": "address",
          "name": "account",
          "type": "address"
        }
      ],
      "name": "harnessAccountBorrows",
      "outputs": [
        {
          "internalType": "uint256",
          "name": "principal",
          "type": "uint256"
        },
        {
          "internalType": "uint256",
          "name": "interestIndex",
          "type": "uint256"
        }
      ],
      "payable": false,
      "stateMutability": "view",
      "type": "function"
    },
    {
      "constant": true,
      "inputs": [
        {
          "internalType": "bytes",
          "name": "data",
          "type": "bytes"
        }
      ],
      "name": "toString",
      "outputs": [
        {
          "internalType": "string",
          "name": "",
          "type": "string"
        }
      ],
      "payable": false,
      "stateMutability": "pure",
      "type": "function"
    },
    {
      "constant": true,
      "inputs": [
        {
          "internalType": "address",
          "name": "account",
          "type": "address"
        }
      ],
      "name": "toString",
      "outputs": [
        {
          "internalType": "string",
          "name": "",
          "type": "string"
        }
      ],
      "payable": false,
      "stateMutability": "pure",
      "type": "function"
    },
    {
      "constant": true,
      "inputs": [
        {
          "internalType": "uint256",
          "name": "value",
          "type": "uint256"
        }
      ],
      "name": "toString",
      "outputs": [
        {
          "internalType": "string",
          "name": "",
          "type": "string"
        }
      ],
      "payable": false,
      "stateMutability": "pure",
      "type": "function"
    },
    {
      "constant": false,
      "inputs": [
        {
          "internalType": "address payable",
          "name": "account",
          "type": "address"
        },
        {
          "internalType": "uint256",
          "name": "borrowAmount",
          "type": "uint256"
        }
      ],
      "name": "harnessBorrowFresh",
      "outputs": [
        {
          "internalType": "uint256",
          "name": "",
          "type": "uint256"
        }
      ],
      "payable": false,
      "stateMutability": "nonpayable",
      "type": "function"
    },
    {
      "constant": true,
      "inputs": [
        {
          "internalType": "bytes32",
          "name": "value",
          "type": "bytes32"
        }
      ],
      "name": "toString",
      "outputs": [
        {
          "internalType": "string",
          "name": "",
          "type": "string"
        }
      ],
      "payable": false,
      "stateMutability": "pure",
      "type": "function"
    },
    {
      "constant": false,
      "inputs": [
        {
          "internalType": "address",
          "name": "account",
          "type": "address"
        },
        {
          "internalType": "uint256",
          "name": "principal",
          "type": "uint256"
        },
        {
          "internalType": "uint256",
          "name": "interestIndex",
          "type": "uint256"
        }
      ],
      "name": "harnessSetAccountBorrows",
      "outputs": [],
      "payable": false,
      "stateMutability": "nonpayable",
      "type": "function"
    },
    {
      "constant": true,
      "inputs": [
        {
          "internalType": "uint256",
          "name": "error",
          "type": "uint256"
        },
        {
          "internalType": "string",
          "name": "message",
          "type": "string"
        }
      ],
      "name": "harnessRequireNoError",
      "outputs": [],
      "payable": false,
      "stateMutability": "pure",
      "type": "function"
    },
    {
      "constant": false,
      "inputs": [
        {
          "internalType": "address",
          "name": "newInterestRateModelAddress",
          "type": "address"
        }
      ],
      "name": "harnessSetInterestRateModel",
      "outputs": [],
      "payable": false,
      "stateMutability": "nonpayable",
      "type": "function"
    },
    {
      "constant": false,
      "inputs": [
        {
          "internalType": "contract InterestRateModel",
          "name": "newInterestRateModel",
          "type": "address"
        }
      ],
      "name": "harnessSetInterestRateModelFresh",
      "outputs": [
        {
          "internalType": "uint256",
          "name": "",
          "type": "uint256"
        }
      ],
      "payable": false,
      "stateMutability": "nonpayable",
      "type": "function"
    },
    {
      "constant": false,
      "inputs": [
        {
          "internalType": "uint256",
          "name": "newReserveFactorMantissa",
          "type": "uint256"
        }
      ],
      "name": "harnessSetReserveFactorFresh",
      "outputs": [
        {
          "internalType": "uint256",
          "name": "",
          "type": "uint256"
        }
      ],
      "payable": false,
      "stateMutability": "nonpayable",
      "type": "function"
    },
    {
      "constant": false,
      "inputs": [
        {
          "internalType": "uint256",
          "name": "borrowIndex_",
          "type": "uint256"
        }
      ],
      "name": "harnessSetBorrowIndex",
      "outputs": [],
      "payable": false,
      "stateMutability": "nonpayable",
      "type": "function"
    },
    {
      "constant": false,
      "inputs": [
        {
          "internalType": "address",
          "name": "payer",
          "type": "address"
        },
        {
          "internalType": "address",
          "name": "account",
          "type": "address"
        },
        {
          "internalType": "uint256",
          "name": "repayBorrowAmount",
          "type": "uint256"
        }
      ],
      "name": "harnessRepayBorrowFresh",
      "outputs": [
        {
          "internalType": "uint256",
          "name": "",
          "type": "uint256"
        }
      ],
      "payable": true,
      "stateMutability": "payable",
      "type": "function"
    },
    {
      "constant": false,
      "inputs": [
        {
          "internalType": "uint256",
          "name": "amount",
          "type": "uint256"
        }
      ],
      "name": "harnessReduceReservesFresh",
      "outputs": [
        {
          "internalType": "uint256",
          "name": "",
          "type": "uint256"
        }
      ],
      "payable": false,
      "stateMutability": "nonpayable",
      "type": "function"
    },
    {
      "constant": false,
      "inputs": [
        {
          "internalType": "address",
          "name": "liquidator",
          "type": "address"
        },
        {
          "internalType": "address",
          "name": "borrower",
          "type": "address"
        },
        {
          "internalType": "uint256",
          "name": "repayAmount",
          "type": "uint256"
        },
        {
          "internalType": "contract CToken",
          "name": "cTokenCollateral",
          "type": "address"
        }
      ],
      "name": "harnessLiquidateBorrowFresh",
      "outputs": [
        {
          "internalType": "uint256",
          "name": "",
          "type": "uint256"
        }
      ],
      "payable": false,
      "stateMutability": "nonpayable",
      "type": "function"
    },
    {
      "constant": false,
      "inputs": [],
      "name": "harnessGetCashPrior",
      "outputs": [
        {
          "internalType": "uint256",
          "name": "",
          "type": "uint256"
        }
      ],
      "payable": true,
      "stateMutability": "payable",
      "type": "function"
    },
    {
      "constant": false,
      "inputs": [
        {
          "internalType": "address payable",
          "name": "to",
          "type": "address"
        },
        {
          "internalType": "uint256",
          "name": "amount",
          "type": "uint256"
        }
      ],
      "name": "harnessDoTransferOut",
      "outputs": [],
      "payable": true,
      "stateMutability": "payable",
      "type": "function"
    },
    {
      "constant": false,
      "inputs": [
        {
          "internalType": "address",
          "name": "from",
          "type": "address"
        },
        {
          "internalType": "uint256",
          "name": "amount",
          "type": "uint256"
        }
      ],
      "name": "harnessDoTransferIn",
      "outputs": [
        {
          "internalType": "uint256",
          "name": "",
          "type": "uint256"
        }
      ],
      "payable": true,
      "stateMutability": "payable",
      "type": "function"
    },
    {
      "constant": false,
      "inputs": [
        {
          "internalType": "uint256",
          "name": "amount",
          "type": "uint256"
        }
      ],
      "name": "harnessSetReserves",
      "outputs": [],
      "payable": false,
      "stateMutability": "nonpayable",
      "type": "function"
    }
  ],
  "bytecode": "0x6080604052620186a06012553480156200001857600080fd5b50604051620063fb380380620063fb833981810160405260e08110156200003e57600080fd5b8151602083015160408085015160608601805192519496939591949391820192846401000000008211156200007257600080fd5b9083019060208201858111156200008857600080fd5b8251640100000000811182820188101715620000a357600080fd5b82525081516020918201929091019080838360005b83811015620000d2578181015183820152602001620000b8565b50505050905090810190601f168015620001005780820380516001836020036101000a031916815260200191505b50604052602001805160405193929190846401000000008211156200012457600080fd5b9083019060208201858111156200013a57600080fd5b82516401000000008111828201881017156200015557600080fd5b82525081516020918201929091019080838360005b83811015620001845781810151838201526020016200016a565b50505050905090810190601f168015620001b25780820380516001836020036101000a031916815260200191505b506040908152602082015191015160038054610100600160a81b0319163361010002179055909250905086868686868686620001f38787878787876200022d565b600380546001600160a01b0390921661010002610100600160a81b0319909216919091179055506200086a9b505050505050505050505050565b60035461010090046001600160a01b031633146200027d5760405162461bcd60e51b8152600401808060200182810382526024815260200180620063626024913960400191505060405180910390fd5b6009541580156200028e5750600a54155b620002cb5760405162461bcd60e51b8152600401808060200182810382526023815260200180620063866023913960400191505060405180910390fd5b6007849055836200030e5760405162461bcd60e51b8152600401808060200182810382526030815260200180620063a96030913960400191505060405180910390fd5b600062000324876001600160e01b036200044316565b905080156200037a576040805162461bcd60e51b815260206004820152601a60248201527f73657474696e6720636f6d7074726f6c6c6572206661696c6564000000000000604482015290519081900360640190fd5b6200038d6001600160e01b03620005ab16565b600955670de0b6b3a7640000600a55620003b0866001600160e01b03620005b216565b90508015620003f15760405162461bcd60e51b8152600401808060200182810382526022815260200180620063d96022913960400191505060405180910390fd5b835162000406906001906020870190620007c8565b5082516200041c906002906020860190620007c8565b50506003805460ff90921660ff199283161790556000805490911660011790555050505050565b60035460009061010090046001600160a01b031633146200047d57620004756001603f6001600160e01b036200075816565b9050620005a6565b60055460408051623f1ee960e11b815290516001600160a01b0392831692851691627e3dd2916004808301926020929190829003018186803b158015620004c357600080fd5b505afa158015620004d8573d6000803e3d6000fd5b505050506040513d6020811015620004ef57600080fd5b505162000543576040805162461bcd60e51b815260206004820152601c60248201527f6d61726b6572206d6574686f642072657475726e65642066616c736500000000604482015290519081900360640190fd5b600580546001600160a01b0319166001600160a01b03858116918217909255604080519284168352602083019190915280517f7ac369dbd14fa5ea3f473ed67cc9d598964a77501540ba6751eb0b3decf5870d9281900390910190a160005b9150505b919050565b6012545b90565b600354600090819061010090046001600160a01b03163314620005ef57620005e6600160426001600160e01b036200075816565b915050620005a6565b620006026001600160e01b03620005ab16565b600954146200062257620005e6600a60416001600160e01b036200075816565b600660009054906101000a90046001600160a01b03169050826001600160a01b0316632191f92a6040518163ffffffff1660e01b815260040160206040518083038186803b1580156200067457600080fd5b505afa15801562000689573d6000803e3d6000fd5b505050506040513d6020811015620006a057600080fd5b5051620006f4576040805162461bcd60e51b815260206004820152601c60248201527f6d61726b6572206d6574686f642072657475726e65642066616c736500000000604482015290519081900360640190fd5b600680546001600160a01b0319166001600160a01b03858116918217909255604080519284168352602083019190915280517fedffc32e068c7c95dfd4bdfd5c4d939a084d6b11c4199eac8436ed234d72f9269281900390910190a16000620005a2565b60007f45b96fe442630264581b197e84bbada861235052c5a1aadfff9ea4e40a969aa08360108111156200078857fe5b8360508111156200079557fe5b604080519283526020830191909152600082820152519081900360600190a1826010811115620007c157fe5b9392505050565b828054600181600116156101000203166002900490600052602060002090601f016020900481019282601f106200080b57805160ff19168380011785556200083b565b828001600101855582156200083b579182015b828111156200083b5782518255916020019190600101906200081e565b50620008499291506200084d565b5090565b620005af91905b8082111562000849576000815560010162000854565b615ae8806200087a6000396000f3fe60806040526004361061045c5760003560e01c80638f840ddd1161023f578063cd781bec11610139578063e5974619116100b6578063f851a4401161007a578063f851a44014611275578063f8f9da281461128a578063fab869901461129f578063fca7820b14611321578063fe9c44ae1461134b5761045c565b8063e5974619146111ea578063e9c714f214611210578063f2b3abbd14611225578063f3fdb15a14611258578063f4b474501461126d5761045c565b8063da9378f5116100fd578063da9378f514611131578063db006a751461115b578063dc334fc414611185578063dd62ed3e146111af578063e4187d1a14610dc85761045c565b8063cd781bec1461100f578063d0f7c21a14611048578063d3ec23401461107e578063d401c293146110bd578063d9a7eb70146110f85761045c565b8063aae40a2a116101c7578063bcbef6f31161018b578063bcbef6f314610f0e578063bd6d894d14610f38578063c37f68e214610f4d578063c439eee014610fa6578063c5ebeaec14610fe55761045c565b8063aae40a2a14610e55578063ae9d70b014610e83578063b11a19e8146109ee578063b2a02ff114610e98578063b71d1a0c14610edb5761045c565b80639aae902b1161020e5780639aae902b14610d95578063a3309d9d14610dc8578063a6afed9514610df2578063a9059cbb14610e07578063aa5af0fd14610e405761045c565b80638f840ddd14610bdd57806395d89b4114610bf257806395dd919314610c0757806399d8c1b414610c3a5761045c565b806347bd37181161035b578063632dbca7116102d857806373acee981161029c57806373acee9814610b1157806374f4021e14610b2657806383a0622c14610b50578063852a12e314610b895780638869737e14610bb35761045c565b8063632dbca7146109a55780636900a3ae146109ee5780636c540baf14610a1857806370a0823114610a2d57806371aad10d14610a605761045c565b806356ca623e1161031f57806356ca623e146108f457806357e871e7146109275780635a518ba81461093c5780635fe3b56714610966578063601a0bf11461097b5761045c565b806347bd3718146108445780634e4d9fea1461085957806353651484146108615780635521ade2146108975780635640a5ac146108ca5761045c565b80632111b73e116103e9578063313ce567116103ad578063313ce5671461077457806331c2480b1461079f5780633af9e669146107c95780633b1d21a2146107fc5780634576b5db146108115761045c565b80632111b73e1461067e57806323b872dd146106aa578063240150ca146106ed578063246acab11461071957806326782247146107435761045c565b8063173b990411610430578063173b9904146105ae57806317bfdfbc146105d55780631815c0111461060857806318160ddd14610654578063182df0f5146106695761045c565b80629db1e21461049a57806306fdde03146104cf578063095ea7b3146105595780631249c58b146105a6575b600061046734611360565b509050610497816040518060400160405280600b81526020016a1b5a5b9d0819985a5b195960aa1b815250611408565b50005b3480156104a657600080fd5b506104cd600480360360208110156104bd57600080fd5b50356001600160a01b0316611608565b005b3480156104db57600080fd5b506104e461162a565b6040805160208082528351818301528351919283929083019185019080838360005b8381101561051e578181015183820152602001610506565b50505050905090810190601f16801561054b5780820380516001836020036101000a031916815260200191505b509250505060405180910390f35b34801561056557600080fd5b506105926004803603604081101561057c57600080fd5b506001600160a01b0381351690602001356116b7565b604080519115158252519081900360200190f35b6104cd611724565b3480156105ba57600080fd5b506105c3611762565b60408051918252519081900360200190f35b3480156105e157600080fd5b506105c3600480360360208110156105f857600080fd5b50356001600160a01b0316611768565b34801561061457600080fd5b5061063b6004803603602081101561062b57600080fd5b50356001600160a01b0316611828565b6040805192835260208301919091528051918290030190f35b34801561066057600080fd5b506105c3611873565b34801561067557600080fd5b506105c3611879565b6105c36004803603604081101561069457600080fd5b506001600160a01b0381351690602001356118dc565b3480156106b657600080fd5b50610592600480360360608110156106cd57600080fd5b506001600160a01b038135811691602081013590911690604001356118ef565b6104cd6004803603604081101561070357600080fd5b506001600160a01b038135169060200135611961565b34801561072557600080fd5b506104cd6004803603602081101561073c57600080fd5b503561196b565b34801561074f57600080fd5b50610758611976565b604080516001600160a01b039092168252519081900360200190f35b34801561078057600080fd5b50610789611985565b6040805160ff9092168252519081900360200190f35b3480156107ab57600080fd5b506104cd600480360360208110156107c257600080fd5b503561198e565b3480156107d557600080fd5b506105c3600480360360208110156107ec57600080fd5b50356001600160a01b0316611993565b34801561080857600080fd5b506105c3611a4b565b34801561081d57600080fd5b506105c36004803603602081101561083457600080fd5b50356001600160a01b0316611a5a565b34801561085057600080fd5b506105c3611bae565b6104cd611bb4565b34801561086d57600080fd5b506104cd6004803603606081101561088457600080fd5b5080359060208101359060400135611bf6565b3480156108a357600080fd5b50610592600480360360208110156108ba57600080fd5b50356001600160a01b0316611c04565b3480156108d657600080fd5b506104cd600480360360208110156108ed57600080fd5b5035611c19565b34801561090057600080fd5b506104e46004803603602081101561091757600080fd5b50356001600160a01b0316611c1e565b34801561093357600080fd5b506105c3611c5d565b34801561094857600080fd5b506104cd6004803603602081101561095f57600080fd5b5035611c63565b34801561097257600080fd5b50610758611c68565b34801561098757600080fd5b506105c36004803603602081101561099e57600080fd5b5035611c77565b3480156109b157600080fd5b506105c3600480360360808110156109c857600080fd5b506001600160a01b03813581169160208101358216916040820135916060013516611d12565b3480156109fa57600080fd5b506104e460048036036020811015610a1157600080fd5b5035611d2e565b348015610a2457600080fd5b506105c3611d58565b348015610a3957600080fd5b506105c360048036036020811015610a5057600080fd5b50356001600160a01b0316611d5e565b348015610a6c57600080fd5b506104e460048036036020811015610a8357600080fd5b810190602081018135600160201b811115610a9d57600080fd5b820183602082011115610aaf57600080fd5b803590602001918460018302840111600160201b83111715610ad057600080fd5b91908080601f016020809104026020016040519081016040528093929190818152602001838380828437600092019190915250929550611d79945050505050565b348015610b1d57600080fd5b506105c3611f0c565b348015610b3257600080fd5b506105c360048036036020811015610b4957600080fd5b5035611fc2565b348015610b5c57600080fd5b506105c360048036036040811015610b7357600080fd5b506001600160a01b038135169060200135611fcd565b348015610b9557600080fd5b506105c360048036036020811015610bac57600080fd5b5035611fd9565b348015610bbf57600080fd5b506104cd60048036036020811015610bd657600080fd5b5035611fe4565b348015610be957600080fd5b506105c3611fe9565b348015610bfe57600080fd5b506104e4611fef565b348015610c1357600080fd5b506105c360048036036020811015610c2a57600080fd5b50356001600160a01b0316612047565b348015610c4657600080fd5b506104cd600480360360c0811015610c5d57600080fd5b6001600160a01b03823581169260208101359091169160408201359190810190608081016060820135600160201b811115610c9757600080fd5b820183602082011115610ca957600080fd5b803590602001918460018302840111600160201b83111715610cca57600080fd5b91908080601f0160208091040260200160405190810160405280939291908181526020018383808284376000920191909152509295949360208101935035915050600160201b811115610d1c57600080fd5b820183602082011115610d2e57600080fd5b803590602001918460018302840111600160201b83111715610d4f57600080fd5b91908080601f0160208091040260200160405190810160405280939291908181526020018383808284376000920191909152509295505050903560ff1691506120a49050565b348015610da157600080fd5b506105c360048036036020811015610db857600080fd5b50356001600160a01b031661228b565b348015610dd457600080fd5b506104cd60048036036020811015610deb57600080fd5b5035612296565b348015610dfe57600080fd5b506105c361229b565b348015610e1357600080fd5b5061059260048036036040811015610e2a57600080fd5b506001600160a01b0381351690602001356125f3565b348015610e4c57600080fd5b506105c3612664565b6104cd60048036036040811015610e6b57600080fd5b506001600160a01b038135811691602001351661266a565b348015610e8f57600080fd5b506105c36126b7565b348015610ea457600080fd5b506105c360048036036060811015610ebb57600080fd5b506001600160a01b03813581169160208101359091169060400135612756565b348015610ee757600080fd5b506105c360048036036020811015610efe57600080fd5b50356001600160a01b03166127c7565b348015610f1a57600080fd5b506104cd60048036036020811015610f3157600080fd5b5035612853565b348015610f4457600080fd5b506105c3612858565b348015610f5957600080fd5b50610f8060048036036020811015610f7057600080fd5b50356001600160a01b0316612914565b604080519485526020850193909352838301919091526060830152519081900360800190f35b348015610fb257600080fd5b506104cd60048036036060811015610fc957600080fd5b506001600160a01b0381351690602081013590604001356129a9565b348015610ff157600080fd5b506105c36004803603602081101561100857600080fd5b50356129e3565b34801561101b57600080fd5b506105c36004803603604081101561103257600080fd5b506001600160a01b0381351690602001356129ee565b6105c36004803603606081101561105e57600080fd5b506001600160a01b03813581169160208101359091169060400135612a04565b34801561108a57600080fd5b506105c3600480360360608110156110a157600080fd5b506001600160a01b038135169060208101359060400135612a1c565b3480156110c957600080fd5b506104cd600480360360408110156110e057600080fd5b506001600160a01b0381351690602001351515612a29565b34801561110457600080fd5b506104cd6004803603604081101561111b57600080fd5b506001600160a01b038135169060200135612a54565b34801561113d57600080fd5b506105c36004803603602081101561115457600080fd5b5035612a70565b34801561116757600080fd5b506105c36004803603602081101561117e57600080fd5b5035612a7b565b34801561119157600080fd5b506104cd600480360360208110156111a857600080fd5b5035612a86565b3480156111bb57600080fd5b506105c3600480360360408110156111d257600080fd5b506001600160a01b0381358116916020013516612a8b565b6104cd6004803603602081101561120057600080fd5b50356001600160a01b0316612ab6565b34801561121c57600080fd5b506105c3612b04565b34801561123157600080fd5b506105c36004803603602081101561124857600080fd5b50356001600160a01b0316612c07565b34801561126457600080fd5b50610758612c41565b6105c3611a4b565b34801561128157600080fd5b50610758612c50565b34801561129657600080fd5b506105c3612c64565b3480156112ab57600080fd5b506104cd600480360360408110156112c257600080fd5b81359190810190604081016020820135600160201b8111156112e357600080fd5b8201836020820111156112f557600080fd5b803590602001918460018302840111600160201b8311171561131657600080fd5b509092509050612cc8565b34801561132d57600080fd5b506105c36004803603602081101561134457600080fd5b5035612d08565b34801561135757600080fd5b50610592612d86565b60008054819060ff166113a7576040805162461bcd60e51b815260206004820152600a6024820152691c994b595b9d195c995960b21b604482015290519081900360640190fd5b6000805460ff191681556113b961229b565b905080156113e4576113d78160108111156113d057fe5b601e612d8b565b9250600091506113f49050565b6113ee3385612df1565b92509250505b6000805460ff191660011790559092909150565b8161141257611604565b606081516005016040519080825280601f01601f191660200182016040528015611443576020820181803883390190505b50905060005b82518110156114945782818151811061145e57fe5b602001015160f81c60f81b82828151811061147557fe5b60200101906001600160f81b031916908160001a905350600101611449565b8151600160fd1b908390839081106114a857fe5b60200101906001600160f81b031916908160001a905350602860f81b8282600101815181106114d357fe5b60200101906001600160f81b031916908160001a905350600a840460300160f81b82826002018151811061150357fe5b60200101906001600160f81b031916908160001a905350600a840660300160f81b82826003018151811061153357fe5b60200101906001600160f81b031916908160001a905350602960f81b82826004018151811061155e57fe5b60200101906001600160f81b031916908160001a9053508184156116005760405162461bcd60e51b81526004018080602001828103825283818151815260200191508051906020019080838360005b838110156115c55781810151838201526020016115ad565b50505050905090810190601f1680156115f25780820380516001836020036101000a031916815260200191505b509250505060405180910390fd5b5050505b5050565b600680546001600160a01b0319166001600160a01b0392909216919091179055565b60018054604080516020600284861615610100026000190190941693909304601f810184900484028201840190925281815292918301828280156116af5780601f10611684576101008083540402835291602001916116af565b820191906000526020600020905b81548152906001019060200180831161169257829003601f168201915b505050505081565b336000818152600f602090815260408083206001600160a01b03871680855290835281842086905581518681529151939493909284927f8c5be1e5ebec7d5bd14f71427d1e84f3dd0314c0f7b2291e5b200ac8c7c3b925929081900390910190a360019150505b92915050565b600061172f34611360565b50905061175f816040518060400160405280600b81526020016a1b5a5b9d0819985a5b195960aa1b815250611408565b50565b60085481565b6000805460ff166117ad576040805162461bcd60e51b815260206004820152600a6024820152691c994b595b9d195c995960b21b604482015290519081900360640190fd5b6000805460ff191681556117bf61229b565b1461180a576040805162461bcd60e51b81526020600482015260166024820152751858d8dc9d59481a5b9d195c995cdd0819985a5b195960521b604482015290519081900360640190fd5b61181382612047565b90505b6000805460ff19166001179055919050565b6000806118336156d3565b5050506001600160a01b0381166000908152601060209081526040918290208251808401909352805480845260019091015492909101829052905b915091565b600d5481565b6000806000611886613251565b9092509050600082600381111561189957fe5b146118d55760405162461bcd60e51b81526004018080602001828103825260358152602001806159ff6035913960400191505060405180910390fd5b9150505b90565b60006118e8838361327c565b9392505050565b6000805460ff16611934576040805162461bcd60e51b815260206004820152600a6024820152691c994b595b9d195c995960b21b604482015290519081900360640190fd5b6000805460ff1916815561194a33868686613318565b1490506000805460ff191660011790559392505050565b6116048282613626565b601280549091019055565b6004546001600160a01b031681565b60035460ff1681565b600d55565b600061199d6156ed565b60405180602001604052806119b0612858565b90526001600160a01b0384166000908152600e60205260408120549192509081906119dc90849061369e565b909250905060008260038111156119ef57fe5b14611a41576040805162461bcd60e51b815260206004820152601f60248201527f62616c616e636520636f756c64206e6f742062652063616c63756c6174656400604482015290519081900360640190fd5b925050505b919050565b6000611a556136f1565b905090565b60035460009061010090046001600160a01b03163314611a8757611a806001603f612d8b565b9050611a46565b60055460408051623f1ee960e11b815290516001600160a01b0392831692851691627e3dd2916004808301926020929190829003018186803b158015611acc57600080fd5b505afa158015611ae0573d6000803e3d6000fd5b505050506040513d6020811015611af657600080fd5b5051611b49576040805162461bcd60e51b815260206004820152601c60248201527f6d61726b6572206d6574686f642072657475726e65642066616c736500000000604482015290519081900360640190fd5b600580546001600160a01b0319166001600160a01b03858116918217909255604080519284168352602083019190915280517f7ac369dbd14fa5ea3f473ed67cc9d598964a77501540ba6751eb0b3decf5870d9281900390910190a160009392505050565b600b5481565b6000611bbf3461371d565b50905061175f81604051806040016040528060128152602001711c995c185e509bdc9c9bddc819985a5b195960721b815250611408565b600d92909255600b55600c55565b60136020526000908152604090205460ff1681565b600a55565b606061171e8260405160200180826001600160a01b03166001600160a01b031660601b8152601401915050604051602081830303815290604052611d79565b60125481565b600955565b6005546001600160a01b031681565b6000805460ff16611cbc576040805162461bcd60e51b815260206004820152600a6024820152691c994b595b9d195c995960b21b604482015290519081900360640190fd5b6000805460ff19168155611cce61229b565b90508015611cf457611cec816010811115611ce557fe5b6030612d8b565b915050611816565b611cfd8361379f565b9150506000805460ff19166001179055919050565b600080611d21868686866138d2565b509150505b949350505050565b606061171e8260405160200180828152602001915050604051602081830303815290604052611d79565b60095481565b6001600160a01b03166000908152600e602052604090205490565b6060806040518060400160405280601081526020016f181899199a1a9b1b9c1cb0b131b232b360811b8152509050606083516002026002016040519080825280601f01601f191660200182016040528015611ddb576020820181803883390190505b509050600360fc1b81600081518110611df057fe5b60200101906001600160f81b031916908160001a905350600f60fb1b81600181518110611e1957fe5b60200101906001600160f81b031916908160001a90535060005b8451811015611f0457826004868381518110611e4b57fe5b016020015182516001600160f81b031990911690911c60f81c908110611e6d57fe5b602001015160f81c60f81b828260020260020181518110611e8a57fe5b60200101906001600160f81b031916908160001a90535082858281518110611eae57fe5b602091010151815160f89190911c600f16908110611ec857fe5b602001015160f81c60f81b828260020260030181518110611ee557fe5b60200101906001600160f81b031916908160001a905350600101611e33565b509392505050565b6000805460ff16611f51576040805162461bcd60e51b815260206004820152600a6024820152691c994b595b9d195c995960b21b604482015290519081900360640190fd5b6000805460ff19168155611f6361229b565b14611fae576040805162461bcd60e51b81526020600482015260166024820152751858d8dc9d59481a5b9d195c995cdd0819985a5b195960521b604482015290519081900360640190fd5b50600b546000805460ff1916600117905590565b600061171e8261379f565b60006118e88383613e55565b600061171e82614163565b601255565b600c5481565b6002805460408051602060018416156101000260001901909316849004601f810184900484028201840190925281815292918301828280156116af5780601f10611684576101008083540402835291602001916116af565b6000806000612055846141e4565b9092509050600082600381111561206857fe5b146118e85760405162461bcd60e51b815260040180806020018281038252603781526020018061590a6037913960400191505060405180910390fd5b60035461010090046001600160a01b031633146120f25760405162461bcd60e51b81526004018080602001828103825260248152602001806158466024913960400191505060405180910390fd5b6009541580156121025750600a54155b61213d5760405162461bcd60e51b815260040180806020018281038252602381526020018061586a6023913960400191505060405180910390fd5b60078490558361217e5760405162461bcd60e51b815260040180806020018281038252603081526020018061588d6030913960400191505060405180910390fd5b600061218987611a5a565b905080156121de576040805162461bcd60e51b815260206004820152601a60248201527f73657474696e6720636f6d7074726f6c6c6572206661696c6564000000000000604482015290519081900360640190fd5b6121e6614297565b600955670de0b6b3a7640000600a556121fe8661429d565b9050801561223d5760405162461bcd60e51b81526004018080602001828103825260228152602001806158bd6022913960400191505060405180910390fd5b8351612250906001906020870190615700565b508251612264906002906020860190615700565b50506003805460ff90921660ff199283161790556000805490911660011790555050505050565b600061171e8261429d565b600c55565b6000806122a6614297565b600954909150808214156122bf576000925050506118d9565b60006122c96136f1565b600b54600c54600a54600654604080516315f2405360e01b815260048101879052602481018690526044810185905290519596509394929391926000926001600160a01b03909216916315f24053916064808301926020929190829003018186803b15801561233757600080fd5b505afa15801561234b573d6000803e3d6000fd5b505050506040513d602081101561236157600080fd5b5051905065048c273950008111156123c0576040805162461bcd60e51b815260206004820152601c60248201527f626f72726f772072617465206973206162737572646c79206869676800000000604482015290519081900360640190fd5b6000806123cd8989614412565b909250905060008260038111156123e057fe5b14612432576040805162461bcd60e51b815260206004820152601f60248201527f636f756c64206e6f742063616c63756c61746520626c6f636b2064656c746100604482015290519081900360640190fd5b61243a6156ed565b60008060008061245860405180602001604052808a81525087614435565b9097509450600087600381111561246b57fe5b1461249d576124886009600689600381111561248357fe5b61449d565b9e5050505050505050505050505050506118d9565b6124a7858c61369e565b909750935060008760038111156124ba57fe5b146124d2576124886009600189600381111561248357fe5b6124dc848c614503565b909750925060008760038111156124ef57fe5b14612507576124886009600489600381111561248357fe5b6125226040518060200160405280600854815250858c614529565b9097509150600087600381111561253557fe5b1461254d576124886009600589600381111561248357fe5b612558858a8b614529565b9097509050600087600381111561256b57fe5b14612583576124886009600389600381111561248357fe5b60098e9055600a819055600b839055600c829055604080518d8152602081018690528082018390526060810185905290517f4dec04e750ca11537cabcd8a9eab06494de08da3735bc8871cd41250e190bc049181900360800190a160009e50505050505050505050505050505090565b6000805460ff16612638576040805162461bcd60e51b815260206004820152600a6024820152691c994b595b9d195c995960b21b604482015290519081900360640190fd5b6000805460ff1916815561264e33338686613318565b1490506000805460ff1916600117905592915050565b600a5481565b6000612677833484614585565b5090506126b281604051806040016040528060168152602001751b1a5c5d5a59185d19509bdc9c9bddc819985a5b195960521b815250611408565b505050565b6006546000906001600160a01b031663b81688166126d36136f1565b600b54600c546008546040518563ffffffff1660e01b81526004018085815260200184815260200183815260200182815260200194505050505060206040518083038186803b15801561272557600080fd5b505afa158015612739573d6000803e3d6000fd5b505050506040513d602081101561274f57600080fd5b5051905090565b6000805460ff1661279b576040805162461bcd60e51b815260206004820152600a6024820152691c994b595b9d195c995960b21b604482015290519081900360640190fd5b6000805460ff191690556127b1338585856146b7565b90506000805460ff191660011790559392505050565b60035460009061010090046001600160a01b031633146127ed57611a8060016045612d8b565b600480546001600160a01b038481166001600160a01b0319831681179093556040805191909216808252602082019390935281517fca4f2f25d0898edd99413412fb94012f9e54ec8142f9b093e7720646a95b16a9929181900390910190a160006118e8565b601155565b6000805460ff1661289d576040805162461bcd60e51b815260206004820152600a6024820152691c994b595b9d195c995960b21b604482015290519081900360640190fd5b6000805460ff191681556128af61229b565b146128fa576040805162461bcd60e51b81526020600482015260166024820152751858d8dc9d59481a5b9d195c995cdd0819985a5b195960521b604482015290519081900360640190fd5b612902611879565b90506000805460ff1916600117905590565b6001600160a01b0381166000908152600e602052604081205481908190819081808061293f896141e4565b93509050600081600381111561295157fe5b1461296f5760095b9750600096508695508594506129a29350505050565b612977613251565b92509050600081600381111561298957fe5b14612995576009612959565b5060009650919450925090505b9193509193565b60408051808201825292835260208084019283526001600160a01b0390941660009081526010909452909220905181559051600190910155565b600061171e8261491d565b6000806129fb8484612df1565b50949350505050565b600080612a1285858561499c565b5095945050505050565b6000611d26848484614d81565b6001600160a01b03919091166000908152601360205260409020805460ff1916911515919091179055565b6001600160a01b039091166000908152600e6020526040902055565b600061171e82615248565b600061171e826152f0565b600b55565b6001600160a01b039182166000908152600f6020908152604080832093909416825291909152205490565b6000612ac2823461536a565b509050611604816040518060400160405280601881526020017f7265706179426f72726f77426568616c66206661696c65640000000000000000815250611408565b6004546000906001600160a01b031633141580612b1f575033155b15612b3757612b3060016000612d8b565b90506118d9565b60038054600480546001600160a01b03818116610100818102610100600160a81b0319871617968790556001600160a01b031990931690935560408051948390048216808652929095041660208401528351909391927ff9ffabca9c8276e99321725bcb43fb076a6c66a54b7f21c4e8146d8519b417dc92908290030190a1600454604080516001600160a01b038085168252909216602083015280517fca4f2f25d0898edd99413412fb94012f9e54ec8142f9b093e7720646a95b16a99281900390910190a160009250505090565b600080612c1261229b565b90508015612c3857612c30816010811115612c2957fe5b6040612d8b565b915050611a46565b6118e88361429d565b6006546001600160a01b031681565b60035461010090046001600160a01b031681565b6006546000906001600160a01b03166315f24053612c806136f1565b600b54600c546040518463ffffffff1660e01b815260040180848152602001838152602001828152602001935050505060206040518083038186803b15801561272557600080fd5b6126b28383838080601f01602080910402602001604051908101604052809392919081815260200183838082843760009201919091525061140892505050565b6000805460ff16612d4d576040805162461bcd60e51b815260206004820152600a6024820152691c994b595b9d195c995960b21b604482015290519081900360640190fd5b6000805460ff19168155612d5f61229b565b90508015612d7d57611cec816010811115612d7657fe5b6046612d8b565b611cfd83615248565b600181565b60007f45b96fe442630264581b197e84bbada861235052c5a1aadfff9ea4e40a969aa0836010811115612dba57fe5b836050811115612dc657fe5b604080519283526020830191909152600082820152519081900360600190a18260108111156118e857fe5b60055460408051634ef4c3e160e01b81523060048201526001600160a01b03858116602483015260448201859052915160009384938493911691634ef4c3e19160648082019260209290919082900301818787803b158015612e5257600080fd5b505af1158015612e66573d6000803e3d6000fd5b505050506040513d6020811015612e7c57600080fd5b505190508015612ea057612e936003601f8361449d565b92506000915061324a9050565b612ea8614297565b60095414612ebc57612e93600a6022612d8b565b612ec461577e565b612ecc613251565b6040830181905260208301826003811115612ee357fe5b6003811115612eee57fe5b9052506000905081602001516003811115612f0557fe5b14612f2f57612f21600960218360200151600381111561248357fe5b93506000925061324a915050565b612f39868661327c565b60c0820181905260408051602081018252908301518152612f5a9190615415565b6060830181905260208301826003811115612f7157fe5b6003811115612f7c57fe5b9052506000905081602001516003811115612f9357fe5b14612fe5576040805162461bcd60e51b815260206004820181905260248201527f4d494e545f45584348414e47455f43414c43554c4154494f4e5f4641494c4544604482015290519081900360640190fd5b612ff5600d548260600151614503565b608083018190526020830182600381111561300c57fe5b600381111561301757fe5b905250600090508160200151600381111561302e57fe5b1461306a5760405162461bcd60e51b8152600401808060200182810382526028815260200180615a346028913960400191505060405180910390fd5b6001600160a01b0386166000908152600e602052604090205460608201516130929190614503565b60a08301819052602083018260038111156130a957fe5b60038111156130b457fe5b90525060009050816020015160038111156130cb57fe5b146131075760405162461bcd60e51b815260040180806020018281038252602b8152602001806158df602b913960400191505060405180910390fd5b6080810151600d5560a08101516001600160a01b0387166000818152600e60209081526040918290209390935560c084015160608086015183519485529484019190915282820193909352517f4c209b5fc8ad50758f13e2e1088ba56a560dff690a1c6fef26394f4c03821c4f929181900390910190a1606081015160408051918252516001600160a01b03881691309160008051602061597b8339815191529181900360200190a360055460c08201516060830151604080516341c728b960e01b81523060048201526001600160a01b038b81166024830152604482019490945260648101929092525191909216916341c728b991608480830192600092919082900301818387803b15801561321d57600080fd5b505af1158015613231573d6000803e3d6000fd5b506000925061323e915050565b8160c001519350935050505b9250929050565b60008060115460001461326b575050601154600090613278565b61327361542c565b915091505b9091565b6000336001600160a01b038416146132cd576040805162461bcd60e51b815260206004820152600f60248201526e0e6cadcc8cae440dad2e6dac2e8c6d608b1b604482015290519081900360640190fd5b813414613312576040805162461bcd60e51b815260206004820152600e60248201526d0ecc2d8eaca40dad2e6dac2e8c6d60931b604482015290519081900360640190fd5b50919050565b600554604080516317b9b84b60e31b81523060048201526001600160a01b03868116602483015285811660448301526064820185905291516000938493169163bdcdc25891608480830192602092919082900301818787803b15801561337d57600080fd5b505af1158015613391573d6000803e3d6000fd5b505050506040513d60208110156133a757600080fd5b5051905080156133c6576133be6003604a8361449d565b915050611d26565b836001600160a01b0316856001600160a01b031614156133ec576133be6002604b612d8b565b60006001600160a01b03878116908716141561340b5750600019613433565b506001600160a01b038086166000908152600f60209081526040808320938a16835292905220545b6000806000806134438589614412565b9094509250600084600381111561345657fe5b14613474576134676009604b612d8b565b9650505050505050611d26565b6001600160a01b038a166000908152600e60205260409020546134979089614412565b909450915060008460038111156134aa57fe5b146134bb576134676009604c612d8b565b6001600160a01b0389166000908152600e60205260409020546134de9089614503565b909450905060008460038111156134f157fe5b14613502576134676009604d612d8b565b6001600160a01b03808b166000908152600e6020526040808220859055918b16815220819055600019851461355a576001600160a01b03808b166000908152600f60209081526040808320938f168352929052208390555b886001600160a01b03168a6001600160a01b031660008051602061597b8339815191528a6040518082815260200191505060405180910390a36005546040805163352b4a3f60e11b81523060048201526001600160a01b038d811660248301528c81166044830152606482018c905291519190921691636a56947e91608480830192600092919082900301818387803b1580156135f657600080fd5b505af115801561360a573d6000803e3d6000fd5b5060009250613617915050565b9b9a5050505050505050505050565b6001600160a01b03821660009081526013602052604090205460ff1615613694576040805162461bcd60e51b815260206004820152601960248201527f544f4b454e5f5452414e534645525f4f55545f4641494c454400000000000000604482015290519081900360640190fd5b61160482826154d7565b60008060006136ab6156ed565b6136b58686614435565b909250905060008260038111156136c857fe5b146136d9575091506000905061324a565b60006136e48261550d565b9350935050509250929050565b60008060006137004734614412565b9092509050600082600381111561371357fe5b146118d557600080fd5b60008054819060ff16613764576040805162461bcd60e51b815260206004820152600a6024820152691c994b595b9d195c995960b21b604482015290519081900360640190fd5b6000805460ff1916815561377661229b565b90508015613794576113d781601081111561378d57fe5b6036612d8b565b6113ee33338661499c565b600354600090819061010090046001600160a01b031633146137c757612c3060016031612d8b565b6137cf614297565b600954146137e357612c30600a6033612d8b565b826137ec6136f1565b10156137fe57612c30600e6032612d8b565b600c5483111561381457612c3060026034612d8b565b50600c548281039081111561385a5760405162461bcd60e51b8152600401808060200182810382526024815260200180615a906024913960400191505060405180910390fd5b600c81905560035461387a9061010090046001600160a01b031684613626565b600354604080516101009092046001600160a01b0316825260208201859052818101839052517f3bad0c59cf2f06e7314077049f48a93578cd16f5ef92329f1dab1420a99c177e916060908290030190a160006118e8565b60055460408051632fe3f38f60e11b81523060048201526001600160a01b0384811660248301528781166044830152868116606483015260848201869052915160009384938493911691635fc7e71e9160a48082019260209290919082900301818787803b15801561394357600080fd5b505af1158015613957573d6000803e3d6000fd5b505050506040513d602081101561396d57600080fd5b50519050801561399157613984600360128361449d565b925060009150613e4c9050565b613999614297565b600954146139ad57613984600a6016612d8b565b6139b5614297565b846001600160a01b0316636c540baf6040518163ffffffff1660e01b815260040160206040518083038186803b1580156139ee57600080fd5b505afa158015613a02573d6000803e3d6000fd5b505050506040513d6020811015613a1857600080fd5b505114613a2b57613984600a6011612d8b565b866001600160a01b0316866001600160a01b03161415613a515761398460066017612d8b565b84613a625761398460076015612d8b565b600019851415613a785761398460076014612d8b565b600080613a8689898961499c565b90925090508115613ab657613aa7826010811115613aa057fe5b6018612d8b565b945060009350613e4c92505050565b6005546040805163c488847b60e01b81523060048201526001600160a01b038981166024830152604482018590528251600094859492169263c488847b926064808301939192829003018186803b158015613b1057600080fd5b505afa158015613b24573d6000803e3d6000fd5b505050506040513d6040811015613b3a57600080fd5b50805160209091015190925090508115613b855760405162461bcd60e51b81526004018080602001828103825260338152602001806159cc6033913960400191505060405180910390fd5b80886001600160a01b03166370a082318c6040518263ffffffff1660e01b815260040180826001600160a01b03166001600160a01b0316815260200191505060206040518083038186803b158015613bdc57600080fd5b505afa158015613bf0573d6000803e3d6000fd5b505050506040513d6020811015613c0657600080fd5b50511015613c5b576040805162461bcd60e51b815260206004820152601860248201527f4c49515549444154455f5345495a455f544f4f5f4d5543480000000000000000604482015290519081900360640190fd5b60006001600160a01b038916301415613c8157613c7a308d8d856146b7565b9050613d0b565b6040805163b2a02ff160e01b81526001600160a01b038e811660048301528d81166024830152604482018590529151918b169163b2a02ff1916064808201926020929091908290030181600087803b158015613cdc57600080fd5b505af1158015613cf0573d6000803e3d6000fd5b505050506040513d6020811015613d0657600080fd5b505190505b8015613d55576040805162461bcd60e51b81526020600482015260146024820152731d1bdad95b881cd95a5e9d5c994819985a5b195960621b604482015290519081900360640190fd5b604080516001600160a01b03808f168252808e1660208301528183018790528b1660608201526080810184905290517f298637f684da70674f26509b10f07ec2fbc77a335ab1e7d6215a4b2484d8bb529181900360a00190a1600554604080516347ef3b3b60e01b81523060048201526001600160a01b038c811660248301528f811660448301528e811660648301526084820188905260a48201869052915191909216916347ef3b3b9160c480830192600092919082900301818387803b158015613e2057600080fd5b505af1158015613e34573d6000803e3d6000fd5b5060009250613e41915050565b975092955050505050505b94509492505050565b6005546040805163368f515360e21b81523060048201526001600160a01b0385811660248301526044820185905291516000938493169163da3d454c91606480830192602092919082900301818787803b158015613eb257600080fd5b505af1158015613ec6573d6000803e3d6000fd5b505050506040513d6020811015613edc57600080fd5b505190508015613efb57613ef36003600e8361449d565b91505061171e565b613f03614297565b60095414613f1657613ef3600a80612d8b565b82613f1f6136f1565b1015613f3157613ef3600e6009612d8b565b613f396157bc565b613f42856141e4565b6020830181905282826003811115613f5657fe5b6003811115613f6157fe5b9052506000905081516003811115613f7557fe5b14613f9a57613f91600960078360000151600381111561248357fe5b9250505061171e565b613fa8816020015185614503565b6040830181905282826003811115613fbc57fe5b6003811115613fc757fe5b9052506000905081516003811115613fdb57fe5b14613ff757613f916009600c8360000151600381111561248357fe5b614003600b5485614503565b606083018190528282600381111561401757fe5b600381111561402257fe5b905250600090508151600381111561403657fe5b1461405257613f916009600b8360000151600381111561248357fe5b61405c8585613626565b604080820180516001600160a01b03881660008181526010602090815290859020928355600a54600190930192909255606080860151600b81905593518551928352928201899052818501929092529081019190915290517f13ed6866d4e1ee6da46f845c46d7e54120883d75c5ea9a2dacc1c4ca8984ab809181900360800190a160055460408051635c77860560e01b81523060048201526001600160a01b0388811660248301526044820188905291519190921691635c77860591606480830192600092919082900301818387803b15801561413957600080fd5b505af115801561414d573d6000803e3d6000fd5b506000925061415a915050565b95945050505050565b6000805460ff166141a8576040805162461bcd60e51b815260206004820152600a6024820152691c994b595b9d195c995960b21b604482015290519081900360640190fd5b6000805460ff191681556141ba61229b565b905080156141d857611cec8160108111156141d157fe5b6027612d8b565b611cfd33600085614d81565b6001600160a01b03811660009081526010602052604081208054829182918291829161421b57506000945084935061186e92505050565b61422b8160000154600a5461551c565b9094509250600084600381111561423e57fe5b1461425357509193506000925061186e915050565b61426183826001015461555b565b9094509150600084600381111561427457fe5b1461428957509193506000925061186e915050565b506000945092505050915091565b60125490565b600354600090819061010090046001600160a01b031633146142c557612c3060016042612d8b565b6142cd614297565b600954146142e157612c30600a6041612d8b565b600660009054906101000a90046001600160a01b03169050826001600160a01b0316632191f92a6040518163ffffffff1660e01b815260040160206040518083038186803b15801561433257600080fd5b505afa158015614346573d6000803e3d6000fd5b505050506040513d602081101561435c57600080fd5b50516143af576040805162461bcd60e51b815260206004820152601c60248201527f6d61726b6572206d6574686f642072657475726e65642066616c736500000000604482015290519081900360640190fd5b600680546001600160a01b0319166001600160a01b03858116918217909255604080519284168352602083019190915280517fedffc32e068c7c95dfd4bdfd5c4d939a084d6b11c4199eac8436ed234d72f9269281900390910190a160006118e8565b60008083831161442957506000905081830361324a565b5060039050600061324a565b600061443f6156ed565b60008061445086600001518661551c565b9092509050600082600381111561446357fe5b146144825750604080516020810190915260008152909250905061324a565b60408051602081019091529081526000969095509350505050565b60007f45b96fe442630264581b197e84bbada861235052c5a1aadfff9ea4e40a969aa08460108111156144cc57fe5b8460508111156144d857fe5b604080519283526020830191909152818101859052519081900360600190a1836010811115611d2657fe5b60008083830184811061451b5760009250905061324a565b50600291506000905061324a565b60008060006145366156ed565b6145408787614435565b9092509050600082600381111561455357fe5b14614564575091506000905061457d565b6145766145708261550d565b86614503565b9350935050505b935093915050565b60008054819060ff166145cc576040805162461bcd60e51b815260206004820152600a6024820152691c994b595b9d195c995960b21b604482015290519081900360640190fd5b6000805460ff191681556145de61229b565b90508015614609576145fc8160108111156145f557fe5b600f612d8b565b9250600091506146a09050565b836001600160a01b031663a6afed956040518163ffffffff1660e01b8152600401602060405180830381600087803b15801561464457600080fd5b505af1158015614658573d6000803e3d6000fd5b505050506040513d602081101561466e57600080fd5b50519050801561468e576145fc81601081111561468757fe5b6010612d8b565b61469a338787876138d2565b92509250505b6000805460ff191660011790559094909350915050565b6005546040805163d02f735160e01b81523060048201526001600160a01b038781166024830152868116604483015285811660648301526084820185905291516000938493169163d02f73519160a480830192602092919082900301818787803b15801561472457600080fd5b505af1158015614738573d6000803e3d6000fd5b505050506040513d602081101561474e57600080fd5b505190508015614765576133be6003601b8361449d565b846001600160a01b0316846001600160a01b0316141561478b576133be6006601c612d8b565b6001600160a01b0384166000908152600e6020526040812054819081906147b29087614412565b909350915060008360038111156147c557fe5b146147e8576147dd6009601a85600381111561248357fe5b945050505050611d26565b6001600160a01b0388166000908152600e602052604090205461480b9087614503565b9093509050600083600381111561481e57fe5b14614836576147dd6009601985600381111561248357fe5b6001600160a01b038088166000818152600e60209081526040808320879055938c168083529184902085905583518a81529351919360008051602061597b833981519152929081900390910190a360055460408051636d35bf9160e01b81523060048201526001600160a01b038c811660248301528b811660448301528a81166064830152608482018a905291519190921691636d35bf919160a480830192600092919082900301818387803b1580156148ef57600080fd5b505af1158015614903573d6000803e3d6000fd5b5060009250614910915050565b9998505050505050505050565b6000805460ff16614962576040805162461bcd60e51b815260206004820152600a6024820152691c994b595b9d195c995960b21b604482015290519081900360640190fd5b6000805460ff1916815561497461229b565b9050801561499257611cec81601081111561498b57fe5b6008612d8b565b611cfd3384613e55565b60055460408051631200453160e11b81523060048201526001600160a01b0386811660248301528581166044830152606482018590529151600093849384939116916324008a629160848082019260209290919082900301818787803b158015614a0557600080fd5b505af1158015614a19573d6000803e3d6000fd5b505050506040513d6020811015614a2f57600080fd5b505190508015614a5357614a46600360388361449d565b92506000915061457d9050565b614a5b614297565b60095414614a6f57614a46600a6039612d8b565b614a776157e5565b6001600160a01b0386166000908152601060205260409020600101546060820152614aa1866141e4565b6080830181905260208301826003811115614ab857fe5b6003811115614ac357fe5b9052506000905081602001516003811115614ada57fe5b14614b0457614af6600960378360200151600381111561248357fe5b93506000925061457d915050565b600019851415614b1d5760808101516040820152614b25565b604081018590525b614b3387826040015161327c565b60e082018190526080820151614b4891614412565b60a0830181905260208301826003811115614b5f57fe5b6003811115614b6a57fe5b9052506000905081602001516003811115614b8157fe5b14614bbd5760405162461bcd60e51b815260040180806020018281038252603a815260200180615941603a913960400191505060405180910390fd5b614bcd600b548260e00151614412565b60c0830181905260208301826003811115614be457fe5b6003811115614bef57fe5b9052506000905081602001516003811115614c0657fe5b14614c425760405162461bcd60e51b815260040180806020018281038252603181526020018061599b6031913960400191505060405180910390fd5b60a080820180516001600160a01b03808a16600081815260106020908152604091829020948555600a5460019095019490945560c0870151600b81905560e088015195518251948f16855294840192909252828101949094526060820192909252608081019190915290517f1a2a22cb034d26d1854bdc6666a5b91fe25efbbb5dcad3b0355478d6f5c362a1929181900390910190a160055460e0820151606083015160408051631ededc9160e01b81523060048201526001600160a01b038c811660248301528b8116604483015260648201949094526084810192909252519190921691631ededc919160a480830192600092919082900301818387803b158015614d4d57600080fd5b505af1158015614d61573d6000803e3d6000fd5b5060009250614d6e915050565b8160e00151935093505050935093915050565b6000821580614d8e575081155b614dc95760405162461bcd60e51b8152600401808060200182810382526034815260200180615a5c6034913960400191505060405180910390fd5b614dd161577e565b614dd9613251565b6040830181905260208301826003811115614df057fe5b6003811115614dfb57fe5b9052506000905081602001516003811115614e1257fe5b14614e3657614e2e6009602b8360200151600381111561248357fe5b9150506118e8565b8315614eb7576060810184905260408051602081018252908201518152614e5d908561369e565b6080830181905260208301826003811115614e7457fe5b6003811115614e7f57fe5b9052506000905081602001516003811115614e9657fe5b14614eb257614e2e600960298360200151600381111561248357fe5b614f30565b614ed38360405180602001604052808460400151815250615415565b6060830181905260208301826003811115614eea57fe5b6003811115614ef557fe5b9052506000905081602001516003811115614f0c57fe5b14614f2857614e2e6009602a8360200151600381111561248357fe5b608081018390525b60055460608201516040805163eabe7d9160e01b81523060048201526001600160a01b03898116602483015260448201939093529051600093929092169163eabe7d919160648082019260209290919082900301818787803b158015614f9557600080fd5b505af1158015614fa9573d6000803e3d6000fd5b505050506040513d6020811015614fbf57600080fd5b505190508015614fdf57614fd6600360288361449d565b925050506118e8565b614fe7614297565b60095414614ffb57614fd6600a602c612d8b565b61500b600d548360600151614412565b60a084018190526020840182600381111561502257fe5b600381111561502d57fe5b905250600090508260200151600381111561504457fe5b1461506057614fd66009602e8460200151600381111561248357fe5b6001600160a01b0386166000908152600e602052604090205460608301516150889190614412565b60c084018190526020840182600381111561509f57fe5b60038111156150aa57fe5b90525060009050826020015160038111156150c157fe5b146150dd57614fd66009602d8460200151600381111561248357fe5b81608001516150ea6136f1565b10156150fc57614fd6600e602f612d8b565b61510a868360800151613626565b60a0820151600d5560c08201516001600160a01b0387166000818152600e602090815260409182902093909355606085015181519081529051309360008051602061597b833981519152928290030190a36080820151606080840151604080516001600160a01b038b168152602081019490945283810191909152517fe5b754fb1abb7f01b499791d0b820ae3b6af3424ac1c59768edb53f4ec31a9299281900390910190a160055460808301516060840151604080516351dff98960e01b81523060048201526001600160a01b038b81166024830152604482019490945260648101929092525191909216916351dff98991608480830192600092919082900301818387803b15801561521d57600080fd5b505af1158015615231573d6000803e3d6000fd5b506000925061523e915050565b9695505050505050565b60035460009061010090046001600160a01b0316331461526e57611a8060016047612d8b565b615276614297565b6009541461528a57611a80600a6048612d8b565b670de0b6b3a76400008211156152a657611a8060026049612d8b565b6008805490839055604080518281526020810185905281517faaa68312e2ea9d50e16af5068410ab56e1a1fd06037b1a35664812c30f821460929181900390910190a160006118e8565b6000805460ff16615335576040805162461bcd60e51b815260206004820152600a6024820152691c994b595b9d195c995960b21b604482015290519081900360640190fd5b6000805460ff1916815561534761229b565b9050801561535e57611cec8160108111156141d157fe5b611cfd33846000614d81565b60008054819060ff166153b1576040805162461bcd60e51b815260206004820152600a6024820152691c994b595b9d195c995960b21b604482015290519081900360640190fd5b6000805460ff191681556153c361229b565b905080156153ee576153e18160108111156153da57fe5b6035612d8b565b9250600091506153ff9050565b6153f933868661499c565b92509250505b6000805460ff1916600117905590939092509050565b60008060006154226156ed565b6136b58686615586565b600d5460009081908061544757505060075460009150613278565b60006154516136f1565b9050600061545d6156ed565b600061546e84600b54600c546155e5565b93509050600081600381111561548057fe5b14615495579550600094506132789350505050565b61549f8386615623565b9250905060008160038111156154b157fe5b146154c6579550600094506132789350505050565b505160009550935061327892505050565b6040516001600160a01b0383169082156108fc029083906000818181858888f193505050501580156126b2573d6000803e3d6000fd5b51670de0b6b3a7640000900490565b6000808361552f5750600090508061324a565b8383028385828161553c57fe5b04146155505750600291506000905061324a565b60009250905061324a565b6000808261556f575060019050600061324a565b600083858161557a57fe5b04915091509250929050565b60006155906156ed565b6000806155a5670de0b6b3a76400008761551c565b909250905060008260038111156155b857fe5b146155d75750604080516020810190915260008152909250905061324a565b6136e4818660000151615623565b6000806000806155f58787614503565b9092509050600082600381111561560857fe5b14615619575091506000905061457d565b6145768186614412565b600061562d6156ed565b60008061564286670de0b6b3a764000061551c565b9092509050600082600381111561565557fe5b146156745750604080516020810190915260008152909250905061324a565b600080615681838861555b565b9092509050600082600381111561569457fe5b146156b65750604080516020810190915260008152909450925061324a915050565b604080516020810190915290815260009890975095505050505050565b604051806040016040528060008152602001600081525090565b6040518060200160405280600081525090565b828054600181600116156101000203166002900490600052602060002090601f016020900481019282601f1061574157805160ff191683800117855561576e565b8280016001018555821561576e579182015b8281111561576e578251825591602001919060010190615753565b5061577a92915061582b565b5090565b6040805160e0810190915280600081526020016000815260200160008152602001600081526020016000815260200160008152602001600081525090565b604080516080810190915280600081526020016000815260200160008152602001600081525090565b6040805161010081019091528060008152602001600081526020016000815260200160008152602001600081526020016000815260200160008152602001600081525090565b6118d991905b8082111561577a576000815560010161583156fe6f6e6c792061646d696e206d617920696e697469616c697a6520746865206d61726b65746d61726b6574206d6179206f6e6c7920626520696e697469616c697a6564206f6e6365696e697469616c2065786368616e67652072617465206d7573742062652067726561746572207468616e207a65726f2e73657474696e6720696e7465726573742072617465206d6f64656c206661696c65644d494e545f4e45575f4143434f554e545f42414c414e43455f43414c43554c4154494f4e5f4641494c4544626f72726f7742616c616e636553746f7265643a20626f72726f7742616c616e636553746f726564496e7465726e616c206661696c656452455041595f424f52524f575f4e45575f4143434f554e545f424f52524f575f42414c414e43455f43414c43554c4154494f4e5f4641494c4544ddf252ad1be2c89b69c2b068fc378daa952ba7f163c4a11628f55a4df523b3ef52455041595f424f52524f575f4e45575f544f54414c5f42414c414e43455f43414c43554c4154494f4e5f4641494c45444c49515549444154455f434f4d5054524f4c4c45525f43414c43554c4154455f414d4f554e545f5345495a455f4641494c454465786368616e67655261746553746f7265643a2065786368616e67655261746553746f726564496e7465726e616c206661696c65644d494e545f4e45575f544f54414c5f535550504c595f43414c43554c4154494f4e5f4641494c45446f6e65206f662072656465656d546f6b656e73496e206f722072656465656d416d6f756e74496e206d757374206265207a65726f72656475636520726573657276657320756e657870656374656420756e646572666c6f77a265627a7a723158202e510af64e424f7cc23545875ec8b60588cc60d1ec25187bfbc8672151d265d064736f6c634300050e00326f6e6c792061646d696e206d617920696e697469616c697a6520746865206d61726b65746d61726b6574206d6179206f6e6c7920626520696e697469616c697a6564206f6e6365696e697469616c2065786368616e67652072617465206d7573742062652067726561746572207468616e207a65726f2e73657474696e6720696e7465726573742072617465206d6f64656c206661696c6564",
  "source": "pragma solidity 0.5.14;\n\nimport \"../../contracts/CEther.sol\";\nimport \"./ComptrollerHarness.sol\";\n\ncontract CEtherHarness is CEther {\n    uint harnessExchangeRate;\n    uint public blockNumber = 100000;\n\n    mapping (address => bool) public failTransferToAddresses;\n\n    constructor(ComptrollerInterface comptroller_,\n                InterestRateModel interestRateModel_,\n                uint initialExchangeRateMantissa,\n                string memory name_,\n                string memory symbol_,\n                uint8 decimals_,\n                address payable admin_)\n    CEther(\n    comptroller_,\n    interestRateModel_,\n    initialExchangeRateMantissa,\n    name_,\n    symbol_,\n    decimals_,\n    admin_) public {}\n\n    function doTransferOut(address payable to, uint amount) internal {\n        require(failTransferToAddresses[to] == false, \"TOKEN_TRANSFER_OUT_FAILED\");\n        return super.doTransferOut(to, amount);\n    }\n\n    function exchangeRateStoredInternal() internal view returns (MathError, uint) {\n        if (harnessExchangeRate != 0) {\n            return (MathError.NO_ERROR, harnessExchangeRate);\n        }\n        return super.exchangeRateStoredInternal();\n    }\n\n    function getBlockNumber() internal view returns (uint) {\n        return blockNumber;\n    }\n\n    function harnessSetBlockNumber(uint newBlockNumber) public {\n        blockNumber = newBlockNumber;\n    }\n\n    function harnessFastForward(uint blocks) public {\n        blockNumber += blocks;\n    }\n\n    function harnessSetBalance(address account, uint amount) external {\n        accountTokens[account] = amount;\n    }\n\n    function harnessSetAccrualBlockNumber(uint _accrualblockNumber) public {\n        accrualBlockNumber = _accrualblockNumber;\n    }\n\n    function harnessSetTotalSupply(uint totalSupply_) public {\n        totalSupply = totalSupply_;\n    }\n\n    function harnessSetTotalBorrows(uint totalBorrows_) public {\n        totalBorrows = totalBorrows_;\n    }\n\n    function harnessSetTotalReserves(uint totalReserves_) public {\n        totalReserves = totalReserves_;\n    }\n\n    function harnessExchangeRateDetails(uint _totalSupply, uint _totalBorrows, uint _totalReserves) public {\n        totalSupply = _totalSupply;\n        totalBorrows = _totalBorrows;\n        totalReserves = _totalReserves;\n    }\n\n    function harnessSetExchangeRate(uint exchangeRate) public {\n        harnessExchangeRate = exchangeRate;\n    }\n\n    function harnessSetFailTransferToAddress(address _to, bool _fail) public {\n        failTransferToAddresses[_to] = _fail;\n    }\n\n    function harnessMintFresh(address account, uint mintAmount) public returns (uint) {\n        (uint err,) = super.mintFresh(account, mintAmount);\n        return err;\n    }\n\n    function harnessRedeemFresh(address payable account, uint cTokenAmount, uint underlyingAmount) public returns (uint) {\n        return super.redeemFresh(account, cTokenAmount, underlyingAmount);\n    }\n\n    function harnessAccountBorrows(address account) public view returns (uint principal, uint interestIndex) {\n        BorrowSnapshot memory snapshot = accountBorrows[account];\n        return (snapshot.principal, snapshot.interestIndex);\n    }\n\n    function harnessSetAccountBorrows(address account, uint principal, uint interestIndex) public {\n        accountBorrows[account] = BorrowSnapshot({principal: principal, interestIndex: interestIndex});\n    }\n\n    function harnessSetBorrowIndex(uint borrowIndex_) public {\n        borrowIndex = borrowIndex_;\n    }\n\n    function harnessBorrowFresh(address payable account, uint borrowAmount) public returns (uint) {\n        return borrowFresh(account, borrowAmount);\n    }\n\n    function harnessRepayBorrowFresh(address payer, address account, uint repayBorrowAmount) public payable returns (uint) {\n        (uint err,) = repayBorrowFresh(payer, account, repayBorrowAmount);\n        return err;\n    }\n\n    function harnessLiquidateBorrowFresh(address liquidator, address borrower, uint repayAmount, CToken cTokenCollateral) public returns (uint) {\n        (uint err,) = liquidateBorrowFresh(liquidator, borrower, repayAmount, cTokenCollateral);\n        return err;\n    }\n\n    function harnessReduceReservesFresh(uint amount) public returns (uint) {\n        return _reduceReservesFresh(amount);\n    }\n\n    function harnessSetReserves(uint amount) public {\n        totalReserves = amount;\n    }\n\n    function harnessSetReserveFactorFresh(uint newReserveFactorMantissa) public returns (uint) {\n        return _setReserveFactorFresh(newReserveFactorMantissa);\n    }\n\n    function harnessSetInterestRateModelFresh(InterestRateModel newInterestRateModel) public returns (uint) {\n        return _setInterestRateModelFresh(newInterestRateModel);\n    }\n\n    function harnessSetInterestRateModel(address newInterestRateModelAddress) public {\n        interestRateModel = InterestRateModel(newInterestRateModelAddress);\n    }\n\n    function harnessGetCashPrior() public payable returns (uint) {\n        return getCashPrior();\n    }\n\n    function harnessDoTransferIn(address from, uint amount) public payable returns (uint) {\n        return doTransferIn(from, amount);\n    }\n\n    function harnessDoTransferOut(address payable to, uint amount) public payable {\n        return doTransferOut(to, amount);\n    }\n\n    function harnessRequireNoError(uint error, string calldata message) external pure {\n        requireNoError(error, message);\n    }\n}\n\ncontract CEtherScenario is CEther {\n    uint reserveFactor;\n\n    constructor(string memory name_,\n                string memory symbol_,\n                uint8 decimals_,\n                address payable admin_,\n                ComptrollerInterface comptroller_,\n                InterestRateModel interestRateModel_,\n                uint initialExchangeRateMantissa)\n        CEther(comptroller_,\n               interestRateModel_,\n               initialExchangeRateMantissa,\n               name_,\n               symbol_,\n               decimals_,\n               admin_) public {\n    }\n\n    function setTotalBorrows(uint totalBorrows_) public {\n        totalBorrows = totalBorrows_;\n    }\n\n    function setTotalReserves(uint totalReserves_) public {\n        totalReserves = totalReserves_;\n    }\n\n    function donate() public payable {\n        // no-op\n    }\n\n    function getBlockNumber() internal view returns (uint) {\n        ComptrollerScenario comptrollerScenario = ComptrollerScenario(address(comptroller));\n        return comptrollerScenario.blockNumber();\n    }\n}\n",
  "sourcePath": "/Users/yanyichun/project/Savings/contracts/compound/test/Contracts/CEtherHarness.sol",
  "compiler": {
    "name": "solc",
    "version": "0.5.14+commit.01f1aaa4.Emscripten.clang"
  },
  "schemaVersion": "3.2.3",
  "updatedAt": "2021-02-25T05:55:40.889Z",
  "devdoc": {
    "methods": {
      "_acceptAdmin()": {
        "details": "Admin function for pending admin to accept role and update admin",
        "return": "uint 0=success, otherwise a failure (see ErrorReporter.sol for details)"
      },
      "_reduceReserves(uint256)": {
        "params": {
          "reduceAmount": "Amount of reduction to reserves"
        },
        "return": "uint 0=success, otherwise a failure (see ErrorReporter.sol for details)"
      },
      "_setComptroller(address)": {
        "details": "Admin function to set a new comptroller",
        "return": "uint 0=success, otherwise a failure (see ErrorReporter.sol for details)"
      },
      "_setInterestRateModel(address)": {
        "details": "Admin function to accrue interest and update the interest rate model",
        "params": {
          "newInterestRateModel": "the new interest rate model to use"
        },
        "return": "uint 0=success, otherwise a failure (see ErrorReporter.sol for details)"
      },
      "_setPendingAdmin(address)": {
        "details": "Admin function to begin change of admin. The newPendingAdmin must call `_acceptAdmin` to finalize the transfer.",
        "params": {
          "newPendingAdmin": "New pending admin."
        },
        "return": "uint 0=success, otherwise a failure (see ErrorReporter.sol for details)"
      },
      "_setReserveFactor(uint256)": {
        "details": "Admin function to accrue interest and set a new reserve factor",
        "return": "uint 0=success, otherwise a failure (see ErrorReporter.sol for details)"
      },
      "accrueInterest()": {
        "details": "This calculates interest accrued from the last checkpointed block  up to the current block and writes new checkpoint to storage."
      },
      "allowance(address,address)": {
        "params": {
          "owner": "The address of the account which owns the tokens to be spent",
          "spender": "The address of the account which may transfer tokens"
        },
        "return": "The number of tokens allowed to be spent (-1 means infinite)"
      },
      "approve(address,uint256)": {
        "details": "This will overwrite the approval amount for `spender` and is subject to issues noted [here](https://eips.ethereum.org/EIPS/eip-20#approve)",
        "params": {
          "amount": "The number of tokens that are approved (-1 means infinite)",
          "spender": "The address of the account which may transfer tokens"
        },
        "return": "Whether or not the approval succeeded"
      },
      "balanceOf(address)": {
        "params": {
          "owner": "The address of the account to query"
        },
        "return": "The number of tokens owned by `owner`"
      },
      "balanceOfUnderlying(address)": {
        "details": "This also accrues interest in a transaction",
        "params": {
          "owner": "The address of the account to query"
        },
        "return": "The amount of underlying owned by `owner`"
      },
      "borrow(uint256)": {
        "params": {
          "borrowAmount": "The amount of the underlying asset to borrow"
        },
        "return": "uint 0=success, otherwise a failure (see ErrorReporter.sol for details)"
      },
      "borrowBalanceCurrent(address)": {
        "params": {
          "account": "The address whose balance should be calculated after updating borrowIndex"
        },
        "return": "The calculated balance"
      },
      "borrowBalanceStored(address)": {
        "params": {
          "account": "The address whose balance should be calculated"
        },
        "return": "The calculated balance"
      },
      "borrowRatePerBlock()": {
        "return": "The borrow interest rate per block, scaled by 1e18"
      },
      "exchangeRateCurrent()": {
        "return": "Calculated exchange rate scaled by 1e18"
      },
      "exchangeRateStored()": {
        "details": "This function does not accrue interest before calculating the exchange rate",
        "return": "Calculated exchange rate scaled by 1e18"
      },
      "getAccountSnapshot(address)": {
        "details": "This is used by comptroller to more efficiently perform liquidity checks.",
        "params": {
          "account": "Address of the account to snapshot"
        },
        "return": "(possible error, token balance, borrow balance, exchange rate mantissa)"
      },
      "getCash()": {
        "return": "The quantity of underlying asset owned by this contract"
      },
      "initialize(address,address,uint256,string,string,uint8)": {
        "params": {
          "comptroller_": "The address of the Comptroller",
          "decimals_": "EIP-20 decimal precision of this token",
          "initialExchangeRateMantissa_": "The initial exchange rate, scaled by 1e18",
          "interestRateModel_": "The address of the interest rate model",
          "name_": "EIP-20 name of this token",
          "symbol_": "EIP-20 symbol of this token"
        }
      },
      "liquidateBorrow(address,address)": {
        "details": "Reverts upon any failure",
        "params": {
          "borrower": "The borrower of this cToken to be liquidated",
          "cTokenCollateral": "The market in which to seize collateral from the borrower"
        }
      },
      "mint()": {
        "details": "Reverts upon any failure"
      },
      "redeem(uint256)": {
        "details": "Accrues interest whether or not the operation succeeds, unless reverted",
        "params": {
          "redeemTokens": "The number of cTokens to redeem into underlying"
        },
        "return": "uint 0=success, otherwise a failure (see ErrorReporter.sol for details)"
      },
      "redeemUnderlying(uint256)": {
        "details": "Accrues interest whether or not the operation succeeds, unless reverted",
        "params": {
          "redeemAmount": "The amount of underlying to redeem"
        },
        "return": "uint 0=success, otherwise a failure (see ErrorReporter.sol for details)"
      },
      "repayBorrow()": {
        "details": "Reverts upon any failure"
      },
      "repayBorrowBehalf(address)": {
        "details": "Reverts upon any failure",
        "params": {
          "borrower": "the account with the debt being payed off"
        }
      },
      "seize(address,address,uint256)": {
        "details": "Will fail unless called by another cToken during the process of liquidation. Its absolutely critical to use msg.sender as the borrowed cToken and not a parameter.",
        "params": {
          "borrower": "The account having collateral seized",
          "liquidator": "The account receiving seized collateral",
          "seizeTokens": "The number of cTokens to seize"
        },
        "return": "uint 0=success, otherwise a failure (see ErrorReporter.sol for details)"
      },
      "supplyRatePerBlock()": {
        "return": "The supply interest rate per block, scaled by 1e18"
      },
      "totalBorrowsCurrent()": {
        "return": "The total borrows with interest"
      },
      "transfer(address,uint256)": {
        "params": {
          "amount": "The number of tokens to transfer",
          "dst": "The address of the destination account"
        },
        "return": "Whether or not the transfer succeeded"
      },
      "transferFrom(address,address,uint256)": {
        "params": {
          "amount": "The number of tokens to transfer",
          "dst": "The address of the destination account",
          "src": "The address of the source account"
        },
        "return": "Whether or not the transfer succeeded"
      }
    }
  },
  "userdoc": {
    "methods": {
      "_acceptAdmin()": {
        "notice": "Accepts transfer of admin rights. msg.sender must be pendingAdmin"
      },
      "_reduceReserves(uint256)": {
        "notice": "Accrues interest and reduces reserves by transferring to admin"
      },
      "_setComptroller(address)": {
        "notice": "Sets a new comptroller for the market"
      },
      "_setInterestRateModel(address)": {
        "notice": "accrues interest and updates the interest rate model using _setInterestRateModelFresh"
      },
      "_setPendingAdmin(address)": {
        "notice": "Begins transfer of admin rights. The newPendingAdmin must call `_acceptAdmin` to finalize the transfer."
      },
      "_setReserveFactor(uint256)": {
        "notice": "accrues interest and sets a new reserve factor for the protocol using _setReserveFactorFresh"
      },
      "accrueInterest()": {
        "notice": "Applies accrued interest to total borrows and reserves"
      },
      "allowance(address,address)": {
        "notice": "Get the current allowance from `owner` for `spender`"
      },
      "approve(address,uint256)": {
        "notice": "Approve `spender` to transfer up to `amount` from `src`"
      },
      "balanceOf(address)": {
        "notice": "Get the token balance of the `owner`"
      },
      "balanceOfUnderlying(address)": {
        "notice": "Get the underlying balance of the `owner`"
      },
      "borrow(uint256)": {
        "notice": "Sender borrows assets from the protocol to their own address"
      },
      "borrowBalanceCurrent(address)": {
        "notice": "Accrue interest to updated borrowIndex and then calculate account's borrow balance using the updated borrowIndex"
      },
      "borrowBalanceStored(address)": {
        "notice": "Return the borrow balance of account based on stored data"
      },
      "borrowRatePerBlock()": {
        "notice": "Returns the current per-block borrow interest rate for this cToken"
      },
      "exchangeRateCurrent()": {
        "notice": "Accrue interest then return the up-to-date exchange rate"
      },
      "exchangeRateStored()": {
        "notice": "Calculates the exchange rate from the underlying to the CToken"
      },
      "getAccountSnapshot(address)": {
        "notice": "Get a snapshot of the account's balances, and the cached exchange rate"
      },
      "getCash()": {
        "notice": "Get cash balance of this cToken in the underlying asset"
      },
      "initialize(address,address,uint256,string,string,uint8)": {
        "notice": "Initialize the money market"
      },
      "liquidateBorrow(address,address)": {
        "notice": "The sender liquidates the borrowers collateral. The collateral seized is transferred to the liquidator."
      },
      "mint()": {
        "notice": "Sender supplies assets into the market and receives cTokens in exchange"
      },
      "redeem(uint256)": {
        "notice": "Sender redeems cTokens in exchange for the underlying asset"
      },
      "redeemUnderlying(uint256)": {
        "notice": "Sender redeems cTokens in exchange for a specified amount of underlying asset"
      },
      "repayBorrow()": {
        "notice": "Sender repays their own borrow"
      },
      "repayBorrowBehalf(address)": {
        "notice": "Sender repays a borrow belonging to borrower"
      },
      "seize(address,address,uint256)": {
        "notice": "Transfers collateral tokens (this market) to the liquidator."
      },
      "supplyRatePerBlock()": {
        "notice": "Returns the current per-block supply interest rate for this cToken"
      },
      "totalBorrowsCurrent()": {
        "notice": "Returns the current total borrows plus accrued interest"
      },
      "transfer(address,uint256)": {
        "notice": "Transfer `amount` tokens from `msg.sender` to `dst`"
      },
      "transferFrom(address,address,uint256)": {
        "notice": "Transfer `amount` tokens from `src` to `dst`"
      }
    }
  }
}