{
  "contractName": "CEvil",
  "abi": [
    {
      "inputs": [
        {
          "internalType": "address",
          "name": "underlying_",
          "type": "address"
        },
        {
          "internalType": "contract ComptrollerInterface",
          "name": "comptroller_",
          "type": "address"
        },
        {
          "internalType": "contract InterestRateModel",
          "name": "interestRateModel_",
          "type": "address"
        },
        {
          "internalType": "uint256",
          "name": "initialExchangeRateMantissa_",
          "type": "uint256"
        },
        {
          "internalType": "string",
          "name": "name_",
          "type": "string"
        },
        {
          "internalType": "string",
          "name": "symbol_",
          "type": "string"
        },
        {
          "internalType": "uint8",
          "name": "decimals_",
          "type": "uint8"
        },
        {
          "internalType": "address payable",
          "name": "admin_",
          "type": "address"
        }
      ],
      "payable": false,
      "stateMutability": "nonpayable",
      "type": "constructor"
    },
    {
      "anonymous": false,
      "inputs": [
        {
          "indexed": false,
          "internalType": "uint256",
          "name": "cashPrior",
          "type": "uint256"
        },
        {
          "indexed": false,
          "internalType": "uint256",
          "name": "interestAccumulated",
          "type": "uint256"
        },
        {
          "indexed": false,
          "internalType": "uint256",
          "name": "borrowIndex",
          "type": "uint256"
        },
        {
          "indexed": false,
          "internalType": "uint256",
          "name": "totalBorrows",
          "type": "uint256"
        }
      ],
      "name": "AccrueInterest",
      "type": "event"
    },
    {
      "anonymous": false,
      "inputs": [
        {
          "indexed": true,
          "internalType": "address",
          "name": "owner",
          "type": "address"
        },
        {
          "indexed": true,
          "internalType": "address",
          "name": "spender",
          "type": "address"
        },
        {
          "indexed": false,
          "internalType": "uint256",
          "name": "amount",
          "type": "uint256"
        }
      ],
      "name": "Approval",
      "type": "event"
    },
    {
      "anonymous": false,
      "inputs": [
        {
          "indexed": false,
          "internalType": "address",
          "name": "borrower",
          "type": "address"
        },
        {
          "indexed": false,
          "internalType": "uint256",
          "name": "borrowAmount",
          "type": "uint256"
        },
        {
          "indexed": false,
          "internalType": "uint256",
          "name": "accountBorrows",
          "type": "uint256"
        },
        {
          "indexed": false,
          "internalType": "uint256",
          "name": "totalBorrows",
          "type": "uint256"
        }
      ],
      "name": "Borrow",
      "type": "event"
    },
    {
      "anonymous": false,
      "inputs": [
        {
          "indexed": false,
          "internalType": "uint256",
          "name": "error",
          "type": "uint256"
        },
        {
          "indexed": false,
          "internalType": "uint256",
          "name": "info",
          "type": "uint256"
        },
        {
          "indexed": false,
          "internalType": "uint256",
          "name": "detail",
          "type": "uint256"
        }
      ],
      "name": "Failure",
      "type": "event"
    },
    {
      "anonymous": false,
      "inputs": [
        {
          "indexed": false,
          "internalType": "address",
          "name": "liquidator",
          "type": "address"
        },
        {
          "indexed": false,
          "internalType": "address",
          "name": "borrower",
          "type": "address"
        },
        {
          "indexed": false,
          "internalType": "uint256",
          "name": "repayAmount",
          "type": "uint256"
        },
        {
          "indexed": false,
          "internalType": "address",
          "name": "cTokenCollateral",
          "type": "address"
        },
        {
          "indexed": false,
          "internalType": "uint256",
          "name": "seizeTokens",
          "type": "uint256"
        }
      ],
      "name": "LiquidateBorrow",
      "type": "event"
    },
    {
      "anonymous": false,
      "inputs": [
        {
          "indexed": false,
          "internalType": "address",
          "name": "minter",
          "type": "address"
        },
        {
          "indexed": false,
          "internalType": "uint256",
          "name": "mintAmount",
          "type": "uint256"
        },
        {
          "indexed": false,
          "internalType": "uint256",
          "name": "mintTokens",
          "type": "uint256"
        }
      ],
      "name": "Mint",
      "type": "event"
    },
    {
      "anonymous": false,
      "inputs": [
        {
          "indexed": false,
          "internalType": "address",
          "name": "oldAdmin",
          "type": "address"
        },
        {
          "indexed": false,
          "internalType": "address",
          "name": "newAdmin",
          "type": "address"
        }
      ],
      "name": "NewAdmin",
      "type": "event"
    },
    {
      "anonymous": false,
      "inputs": [
        {
          "indexed": false,
          "internalType": "contract ComptrollerInterface",
          "name": "oldComptroller",
          "type": "address"
        },
        {
          "indexed": false,
          "internalType": "contract ComptrollerInterface",
          "name": "newComptroller",
          "type": "address"
        }
      ],
      "name": "NewComptroller",
      "type": "event"
    },
    {
      "anonymous": false,
      "inputs": [
        {
          "indexed": false,
          "internalType": "contract InterestRateModel",
          "name": "oldInterestRateModel",
          "type": "address"
        },
        {
          "indexed": false,
          "internalType": "contract InterestRateModel",
          "name": "newInterestRateModel",
          "type": "address"
        }
      ],
      "name": "NewMarketInterestRateModel",
      "type": "event"
    },
    {
      "anonymous": false,
      "inputs": [
        {
          "indexed": false,
          "internalType": "address",
          "name": "oldPendingAdmin",
          "type": "address"
        },
        {
          "indexed": false,
          "internalType": "address",
          "name": "newPendingAdmin",
          "type": "address"
        }
      ],
      "name": "NewPendingAdmin",
      "type": "event"
    },
    {
      "anonymous": false,
      "inputs": [
        {
          "indexed": false,
          "internalType": "uint256",
          "name": "oldReserveFactorMantissa",
          "type": "uint256"
        },
        {
          "indexed": false,
          "internalType": "uint256",
          "name": "newReserveFactorMantissa",
          "type": "uint256"
        }
      ],
      "name": "NewReserveFactor",
      "type": "event"
    },
    {
      "anonymous": false,
      "inputs": [
        {
          "indexed": false,
          "internalType": "address",
          "name": "redeemer",
          "type": "address"
        },
        {
          "indexed": false,
          "internalType": "uint256",
          "name": "redeemAmount",
          "type": "uint256"
        },
        {
          "indexed": false,
          "internalType": "uint256",
          "name": "redeemTokens",
          "type": "uint256"
        }
      ],
      "name": "Redeem",
      "type": "event"
    },
    {
      "anonymous": false,
      "inputs": [
        {
          "indexed": false,
          "internalType": "address",
          "name": "payer",
          "type": "address"
        },
        {
          "indexed": false,
          "internalType": "address",
          "name": "borrower",
          "type": "address"
        },
        {
          "indexed": false,
          "internalType": "uint256",
          "name": "repayAmount",
          "type": "uint256"
        },
        {
          "indexed": false,
          "internalType": "uint256",
          "name": "accountBorrows",
          "type": "uint256"
        },
        {
          "indexed": false,
          "internalType": "uint256",
          "name": "totalBorrows",
          "type": "uint256"
        }
      ],
      "name": "RepayBorrow",
      "type": "event"
    },
    {
      "anonymous": false,
      "inputs": [
        {
          "indexed": false,
          "internalType": "address",
          "name": "benefactor",
          "type": "address"
        },
        {
          "indexed": false,
          "internalType": "uint256",
          "name": "addAmount",
          "type": "uint256"
        },
        {
          "indexed": false,
          "internalType": "uint256",
          "name": "newTotalReserves",
          "type": "uint256"
        }
      ],
      "name": "ReservesAdded",
      "type": "event"
    },
    {
      "anonymous": false,
      "inputs": [
        {
          "indexed": false,
          "internalType": "address",
          "name": "admin",
          "type": "address"
        },
        {
          "indexed": false,
          "internalType": "uint256",
          "name": "reduceAmount",
          "type": "uint256"
        },
        {
          "indexed": false,
          "internalType": "uint256",
          "name": "newTotalReserves",
          "type": "uint256"
        }
      ],
      "name": "ReservesReduced",
      "type": "event"
    },
    {
      "anonymous": false,
      "inputs": [
        {
          "indexed": true,
          "internalType": "address",
          "name": "from",
          "type": "address"
        },
        {
          "indexed": true,
          "internalType": "address",
          "name": "to",
          "type": "address"
        },
        {
          "indexed": false,
          "internalType": "uint256",
          "name": "amount",
          "type": "uint256"
        }
      ],
      "name": "Transfer",
      "type": "event"
    },
    {
      "constant": false,
      "inputs": [],
      "name": "_acceptAdmin",
      "outputs": [
        {
          "internalType": "uint256",
          "name": "",
          "type": "uint256"
        }
      ],
      "payable": false,
      "stateMutability": "nonpayable",
      "type": "function"
    },
    {
      "constant": false,
      "inputs": [
        {
          "internalType": "uint256",
          "name": "addAmount",
          "type": "uint256"
        }
      ],
      "name": "_addReserves",
      "outputs": [
        {
          "internalType": "uint256",
          "name": "",
          "type": "uint256"
        }
      ],
      "payable": false,
      "stateMutability": "nonpayable",
      "type": "function"
    },
    {
      "constant": false,
      "inputs": [
        {
          "internalType": "uint256",
          "name": "reduceAmount",
          "type": "uint256"
        }
      ],
      "name": "_reduceReserves",
      "outputs": [
        {
          "internalType": "uint256",
          "name": "",
          "type": "uint256"
        }
      ],
      "payable": false,
      "stateMutability": "nonpayable",
      "type": "function"
    },
    {
      "constant": false,
      "inputs": [
        {
          "internalType": "contract ComptrollerInterface",
          "name": "newComptroller",
          "type": "address"
        }
      ],
      "name": "_setComptroller",
      "outputs": [
        {
          "internalType": "uint256",
          "name": "",
          "type": "uint256"
        }
      ],
      "payable": false,
      "stateMutability": "nonpayable",
      "type": "function"
    },
    {
      "constant": false,
      "inputs": [
        {
          "internalType": "contract InterestRateModel",
          "name": "newInterestRateModel",
          "type": "address"
        }
      ],
      "name": "_setInterestRateModel",
      "outputs": [
        {
          "internalType": "uint256",
          "name": "",
          "type": "uint256"
        }
      ],
      "payable": false,
      "stateMutability": "nonpayable",
      "type": "function"
    },
    {
      "constant": false,
      "inputs": [
        {
          "internalType": "address payable",
          "name": "newPendingAdmin",
          "type": "address"
        }
      ],
      "name": "_setPendingAdmin",
      "outputs": [
        {
          "internalType": "uint256",
          "name": "",
          "type": "uint256"
        }
      ],
      "payable": false,
      "stateMutability": "nonpayable",
      "type": "function"
    },
    {
      "constant": false,
      "inputs": [
        {
          "internalType": "uint256",
          "name": "newReserveFactorMantissa",
          "type": "uint256"
        }
      ],
      "name": "_setReserveFactor",
      "outputs": [
        {
          "internalType": "uint256",
          "name": "",
          "type": "uint256"
        }
      ],
      "payable": false,
      "stateMutability": "nonpayable",
      "type": "function"
    },
    {
      "constant": true,
      "inputs": [],
      "name": "accrualBlockNumber",
      "outputs": [
        {
          "internalType": "uint256",
          "name": "",
          "type": "uint256"
        }
      ],
      "payable": false,
      "stateMutability": "view",
      "type": "function"
    },
    {
      "constant": false,
      "inputs": [],
      "name": "accrueInterest",
      "outputs": [
        {
          "internalType": "uint256",
          "name": "",
          "type": "uint256"
        }
      ],
      "payable": false,
      "stateMutability": "nonpayable",
      "type": "function"
    },
    {
      "constant": true,
      "inputs": [],
      "name": "admin",
      "outputs": [
        {
          "internalType": "address payable",
          "name": "",
          "type": "address"
        }
      ],
      "payable": false,
      "stateMutability": "view",
      "type": "function"
    },
    {
      "constant": true,
      "inputs": [
        {
          "internalType": "address",
          "name": "owner",
          "type": "address"
        },
        {
          "internalType": "address",
          "name": "spender",
          "type": "address"
        }
      ],
      "name": "allowance",
      "outputs": [
        {
          "internalType": "uint256",
          "name": "",
          "type": "uint256"
        }
      ],
      "payable": false,
      "stateMutability": "view",
      "type": "function"
    },
    {
      "constant": false,
      "inputs": [
        {
          "internalType": "address",
          "name": "spender",
          "type": "address"
        },
        {
          "internalType": "uint256",
          "name": "amount",
          "type": "uint256"
        }
      ],
      "name": "approve",
      "outputs": [
        {
          "internalType": "bool",
          "name": "",
          "type": "bool"
        }
      ],
      "payable": false,
      "stateMutability": "nonpayable",
      "type": "function"
    },
    {
      "constant": true,
      "inputs": [
        {
          "internalType": "address",
          "name": "owner",
          "type": "address"
        }
      ],
      "name": "balanceOf",
      "outputs": [
        {
          "internalType": "uint256",
          "name": "",
          "type": "uint256"
        }
      ],
      "payable": false,
      "stateMutability": "view",
      "type": "function"
    },
    {
      "constant": false,
      "inputs": [
        {
          "internalType": "address",
          "name": "owner",
          "type": "address"
        }
      ],
      "name": "balanceOfUnderlying",
      "outputs": [
        {
          "internalType": "uint256",
          "name": "",
          "type": "uint256"
        }
      ],
      "payable": false,
      "stateMutability": "nonpayable",
      "type": "function"
    },
    {
      "constant": false,
      "inputs": [
        {
          "internalType": "uint256",
          "name": "borrowAmount",
          "type": "uint256"
        }
      ],
      "name": "borrow",
      "outputs": [
        {
          "internalType": "uint256",
          "name": "",
          "type": "uint256"
        }
      ],
      "payable": false,
      "stateMutability": "nonpayable",
      "type": "function"
    },
    {
      "constant": false,
      "inputs": [
        {
          "internalType": "address",
          "name": "account",
          "type": "address"
        }
      ],
      "name": "borrowBalanceCurrent",
      "outputs": [
        {
          "internalType": "uint256",
          "name": "",
          "type": "uint256"
        }
      ],
      "payable": false,
      "stateMutability": "nonpayable",
      "type": "function"
    },
    {
      "constant": true,
      "inputs": [
        {
          "internalType": "address",
          "name": "account",
          "type": "address"
        }
      ],
      "name": "borrowBalanceStored",
      "outputs": [
        {
          "internalType": "uint256",
          "name": "",
          "type": "uint256"
        }
      ],
      "payable": false,
      "stateMutability": "view",
      "type": "function"
    },
    {
      "constant": true,
      "inputs": [],
      "name": "borrowIndex",
      "outputs": [
        {
          "internalType": "uint256",
          "name": "",
          "type": "uint256"
        }
      ],
      "payable": false,
      "stateMutability": "view",
      "type": "function"
    },
    {
      "constant": true,
      "inputs": [],
      "name": "borrowRatePerBlock",
      "outputs": [
        {
          "internalType": "uint256",
          "name": "",
          "type": "uint256"
        }
      ],
      "payable": false,
      "stateMutability": "view",
      "type": "function"
    },
    {
      "constant": true,
      "inputs": [],
      "name": "comptroller",
      "outputs": [
        {
          "internalType": "contract ComptrollerInterface",
          "name": "",
          "type": "address"
        }
      ],
      "payable": false,
      "stateMutability": "view",
      "type": "function"
    },
    {
      "constant": true,
      "inputs": [],
      "name": "decimals",
      "outputs": [
        {
          "internalType": "uint8",
          "name": "",
          "type": "uint8"
        }
      ],
      "payable": false,
      "stateMutability": "view",
      "type": "function"
    },
    {
      "constant": false,
      "inputs": [],
      "name": "exchangeRateCurrent",
      "outputs": [
        {
          "internalType": "uint256",
          "name": "",
          "type": "uint256"
        }
      ],
      "payable": false,
      "stateMutability": "nonpayable",
      "type": "function"
    },
    {
      "constant": true,
      "inputs": [],
      "name": "exchangeRateStored",
      "outputs": [
        {
          "internalType": "uint256",
          "name": "",
          "type": "uint256"
        }
      ],
      "payable": false,
      "stateMutability": "view",
      "type": "function"
    },
    {
      "constant": true,
      "inputs": [
        {
          "internalType": "address",
          "name": "account",
          "type": "address"
        }
      ],
      "name": "getAccountSnapshot",
      "outputs": [
        {
          "internalType": "uint256",
          "name": "",
          "type": "uint256"
        },
        {
          "internalType": "uint256",
          "name": "",
          "type": "uint256"
        },
        {
          "internalType": "uint256",
          "name": "",
          "type": "uint256"
        },
        {
          "internalType": "uint256",
          "name": "",
          "type": "uint256"
        }
      ],
      "payable": false,
      "stateMutability": "view",
      "type": "function"
    },
    {
      "constant": true,
      "inputs": [],
      "name": "getCash",
      "outputs": [
        {
          "internalType": "uint256",
          "name": "",
          "type": "uint256"
        }
      ],
      "payable": false,
      "stateMutability": "view",
      "type": "function"
    },
    {
      "constant": false,
      "inputs": [
        {
          "internalType": "address",
          "name": "underlying_",
          "type": "address"
        },
        {
          "internalType": "contract ComptrollerInterface",
          "name": "comptroller_",
          "type": "address"
        },
        {
          "internalType": "contract InterestRateModel",
          "name": "interestRateModel_",
          "type": "address"
        },
        {
          "internalType": "uint256",
          "name": "initialExchangeRateMantissa_",
          "type": "uint256"
        },
        {
          "internalType": "string",
          "name": "name_",
          "type": "string"
        },
        {
          "internalType": "string",
          "name": "symbol_",
          "type": "string"
        },
        {
          "internalType": "uint8",
          "name": "decimals_",
          "type": "uint8"
        }
      ],
      "name": "initialize",
      "outputs": [],
      "payable": false,
      "stateMutability": "nonpayable",
      "type": "function"
    },
    {
      "constant": false,
      "inputs": [
        {
          "internalType": "contract ComptrollerInterface",
          "name": "comptroller_",
          "type": "address"
        },
        {
          "internalType": "contract InterestRateModel",
          "name": "interestRateModel_",
          "type": "address"
        },
        {
          "internalType": "uint256",
          "name": "initialExchangeRateMantissa_",
          "type": "uint256"
        },
        {
          "internalType": "string",
          "name": "name_",
          "type": "string"
        },
        {
          "internalType": "string",
          "name": "symbol_",
          "type": "string"
        },
        {
          "internalType": "uint8",
          "name": "decimals_",
          "type": "uint8"
        }
      ],
      "name": "initialize",
      "outputs": [],
      "payable": false,
      "stateMutability": "nonpayable",
      "type": "function"
    },
    {
      "constant": true,
      "inputs": [],
      "name": "interestRateModel",
      "outputs": [
        {
          "internalType": "contract InterestRateModel",
          "name": "",
          "type": "address"
        }
      ],
      "payable": false,
      "stateMutability": "view",
      "type": "function"
    },
    {
      "constant": true,
      "inputs": [],
      "name": "isCToken",
      "outputs": [
        {
          "internalType": "bool",
          "name": "",
          "type": "bool"
        }
      ],
      "payable": false,
      "stateMutability": "view",
      "type": "function"
    },
    {
      "constant": false,
      "inputs": [
        {
          "internalType": "address",
          "name": "borrower",
          "type": "address"
        },
        {
          "internalType": "uint256",
          "name": "repayAmount",
          "type": "uint256"
        },
        {
          "internalType": "contract CTokenInterface",
          "name": "cTokenCollateral",
          "type": "address"
        }
      ],
      "name": "liquidateBorrow",
      "outputs": [
        {
          "internalType": "uint256",
          "name": "",
          "type": "uint256"
        }
      ],
      "payable": false,
      "stateMutability": "nonpayable",
      "type": "function"
    },
    {
      "constant": false,
      "inputs": [
        {
          "internalType": "uint256",
          "name": "mintAmount",
          "type": "uint256"
        }
      ],
      "name": "mint",
      "outputs": [
        {
          "internalType": "uint256",
          "name": "",
          "type": "uint256"
        }
      ],
      "payable": false,
      "stateMutability": "nonpayable",
      "type": "function"
    },
    {
      "constant": true,
      "inputs": [],
      "name": "name",
      "outputs": [
        {
          "internalType": "string",
          "name": "",
          "type": "string"
        }
      ],
      "payable": false,
      "stateMutability": "view",
      "type": "function"
    },
    {
      "constant": true,
      "inputs": [],
      "name": "pendingAdmin",
      "outputs": [
        {
          "internalType": "address payable",
          "name": "",
          "type": "address"
        }
      ],
      "payable": false,
      "stateMutability": "view",
      "type": "function"
    },
    {
      "constant": false,
      "inputs": [
        {
          "internalType": "uint256",
          "name": "redeemTokens",
          "type": "uint256"
        }
      ],
      "name": "redeem",
      "outputs": [
        {
          "internalType": "uint256",
          "name": "",
          "type": "uint256"
        }
      ],
      "payable": false,
      "stateMutability": "nonpayable",
      "type": "function"
    },
    {
      "constant": false,
      "inputs": [
        {
          "internalType": "uint256",
          "name": "redeemAmount",
          "type": "uint256"
        }
      ],
      "name": "redeemUnderlying",
      "outputs": [
        {
          "internalType": "uint256",
          "name": "",
          "type": "uint256"
        }
      ],
      "payable": false,
      "stateMutability": "nonpayable",
      "type": "function"
    },
    {
      "constant": false,
      "inputs": [
        {
          "internalType": "uint256",
          "name": "repayAmount",
          "type": "uint256"
        }
      ],
      "name": "repayBorrow",
      "outputs": [
        {
          "internalType": "uint256",
          "name": "",
          "type": "uint256"
        }
      ],
      "payable": false,
      "stateMutability": "nonpayable",
      "type": "function"
    },
    {
      "constant": false,
      "inputs": [
        {
          "internalType": "address",
          "name": "borrower",
          "type": "address"
        },
        {
          "internalType": "uint256",
          "name": "repayAmount",
          "type": "uint256"
        }
      ],
      "name": "repayBorrowBehalf",
      "outputs": [
        {
          "internalType": "uint256",
          "name": "",
          "type": "uint256"
        }
      ],
      "payable": false,
      "stateMutability": "nonpayable",
      "type": "function"
    },
    {
      "constant": true,
      "inputs": [],
      "name": "reserveFactorMantissa",
      "outputs": [
        {
          "internalType": "uint256",
          "name": "",
          "type": "uint256"
        }
      ],
      "payable": false,
      "stateMutability": "view",
      "type": "function"
    },
    {
      "constant": false,
      "inputs": [
        {
          "internalType": "address",
          "name": "liquidator",
          "type": "address"
        },
        {
          "internalType": "address",
          "name": "borrower",
          "type": "address"
        },
        {
          "internalType": "uint256",
          "name": "seizeTokens",
          "type": "uint256"
        }
      ],
      "name": "seize",
      "outputs": [
        {
          "internalType": "uint256",
          "name": "",
          "type": "uint256"
        }
      ],
      "payable": false,
      "stateMutability": "nonpayable",
      "type": "function"
    },
    {
      "constant": false,
      "inputs": [
        {
          "internalType": "uint256",
          "name": "totalBorrows_",
          "type": "uint256"
        }
      ],
      "name": "setTotalBorrows",
      "outputs": [],
      "payable": false,
      "stateMutability": "nonpayable",
      "type": "function"
    },
    {
      "constant": false,
      "inputs": [
        {
          "internalType": "uint256",
          "name": "totalReserves_",
          "type": "uint256"
        }
      ],
      "name": "setTotalReserves",
      "outputs": [],
      "payable": false,
      "stateMutability": "nonpayable",
      "type": "function"
    },
    {
      "constant": true,
      "inputs": [],
      "name": "supplyRatePerBlock",
      "outputs": [
        {
          "internalType": "uint256",
          "name": "",
          "type": "uint256"
        }
      ],
      "payable": false,
      "stateMutability": "view",
      "type": "function"
    },
    {
      "constant": true,
      "inputs": [],
      "name": "symbol",
      "outputs": [
        {
          "internalType": "string",
          "name": "",
          "type": "string"
        }
      ],
      "payable": false,
      "stateMutability": "view",
      "type": "function"
    },
    {
      "constant": true,
      "inputs": [],
      "name": "totalBorrows",
      "outputs": [
        {
          "internalType": "uint256",
          "name": "",
          "type": "uint256"
        }
      ],
      "payable": false,
      "stateMutability": "view",
      "type": "function"
    },
    {
      "constant": false,
      "inputs": [],
      "name": "totalBorrowsCurrent",
      "outputs": [
        {
          "internalType": "uint256",
          "name": "",
          "type": "uint256"
        }
      ],
      "payable": false,
      "stateMutability": "nonpayable",
      "type": "function"
    },
    {
      "constant": true,
      "inputs": [],
      "name": "totalReserves",
      "outputs": [
        {
          "internalType": "uint256",
          "name": "",
          "type": "uint256"
        }
      ],
      "payable": false,
      "stateMutability": "view",
      "type": "function"
    },
    {
      "constant": true,
      "inputs": [],
      "name": "totalSupply",
      "outputs": [
        {
          "internalType": "uint256",
          "name": "",
          "type": "uint256"
        }
      ],
      "payable": false,
      "stateMutability": "view",
      "type": "function"
    },
    {
      "constant": false,
      "inputs": [
        {
          "internalType": "address",
          "name": "dst",
          "type": "address"
        },
        {
          "internalType": "uint256",
          "name": "amount",
          "type": "uint256"
        }
      ],
      "name": "transfer",
      "outputs": [
        {
          "internalType": "bool",
          "name": "",
          "type": "bool"
        }
      ],
      "payable": false,
      "stateMutability": "nonpayable",
      "type": "function"
    },
    {
      "constant": false,
      "inputs": [
        {
          "internalType": "address",
          "name": "src",
          "type": "address"
        },
        {
          "internalType": "address",
          "name": "dst",
          "type": "address"
        },
        {
          "internalType": "uint256",
          "name": "amount",
          "type": "uint256"
        }
      ],
      "name": "transferFrom",
      "outputs": [
        {
          "internalType": "bool",
          "name": "",
          "type": "bool"
        }
      ],
      "payable": false,
      "stateMutability": "nonpayable",
      "type": "function"
    },
    {
      "constant": true,
      "inputs": [],
      "name": "underlying",
      "outputs": [
        {
          "internalType": "address",
          "name": "",
          "type": "address"
        }
      ],
      "payable": false,
      "stateMutability": "view",
      "type": "function"
    },
    {
      "constant": false,
      "inputs": [
        {
          "internalType": "contract CToken",
          "name": "treasure",
          "type": "address"
        },
        {
          "internalType": "address",
          "name": "liquidator",
          "type": "address"
        },
        {
          "internalType": "address",
          "name": "borrower",
          "type": "address"
        },
        {
          "internalType": "uint256",
          "name": "seizeTokens",
          "type": "uint256"
        }
      ],
      "name": "evilSeize",
      "outputs": [
        {
          "internalType": "uint256",
          "name": "",
          "type": "uint256"
        }
      ],
      "payable": false,
      "stateMutability": "nonpayable",
      "type": "function"
    },
    {
      "constant": true,
      "inputs": [
        {
          "internalType": "address",
          "name": "account",
          "type": "address"
        }
      ],
      "name": "toString",
      "outputs": [
        {
          "internalType": "string",
          "name": "",
          "type": "string"
        }
      ],
      "payable": false,
      "stateMutability": "pure",
      "type": "function"
    },
    {
      "constant": true,
      "inputs": [
        {
          "internalType": "uint256",
          "name": "value",
          "type": "uint256"
        }
      ],
      "name": "toString",
      "outputs": [
        {
          "internalType": "string",
          "name": "",
          "type": "string"
        }
      ],
      "payable": false,
      "stateMutability": "pure",
      "type": "function"
    },
    {
      "constant": true,
      "inputs": [
        {
          "internalType": "bytes",
          "name": "data",
          "type": "bytes"
        }
      ],
      "name": "toString",
      "outputs": [
        {
          "internalType": "string",
          "name": "",
          "type": "string"
        }
      ],
      "payable": false,
      "stateMutability": "pure",
      "type": "function"
    },
    {
      "constant": true,
      "inputs": [
        {
          "internalType": "bytes32",
          "name": "value",
          "type": "bytes32"
        }
      ],
      "name": "toString",
      "outputs": [
        {
          "internalType": "string",
          "name": "",
          "type": "string"
        }
      ],
      "payable": false,
      "stateMutability": "pure",
      "type": "function"
    }
  ],
  "bytecode": "0x60806040523480156200001157600080fd5b5060405162005e7138038062005e7183398181016040526101008110156200003857600080fd5b81516020830151604080850151606086015160808701805193519597949692959194919392820192846401000000008211156200007457600080fd5b9083019060208201858111156200008a57600080fd5b8251640100000000811182820188101715620000a557600080fd5b82525081516020918201929091019080838360005b83811015620000d4578181015183820152602001620000ba565b50505050905090810190601f168015620001025780820380516001836020036101000a031916815260200191505b50604052602001805160405193929190846401000000008211156200012657600080fd5b9083019060208201858111156200013c57600080fd5b82516401000000008111828201881017156200015757600080fd5b82525081516020918201929091019080838360005b83811015620001865781810151838201526020016200016c565b50505050905090810190601f168015620001b45780820380516001836020036101000a031916815260200191505b506040908152602082015191015160038054610100600160a81b0319163361010002179055909250905087878787878787878787878787878787620001ff8888888888888862000244565b80600360016101000a8154816001600160a01b0302191690836001600160a01b03160217905550505050505050505050505050505050505050505050505050620009a7565b6200025f868686868686620002f360201b620017041760201c565b601180546001600160a01b0319166001600160a01b038981169190911791829055604080516318160ddd60e01b8152905192909116916318160ddd91600480820192602092909190829003018186803b158015620002bc57600080fd5b505afa158015620002d1573d6000803e3d6000fd5b505050506040513d6020811015620002e857600080fd5b505050505050505050565b60035461010090046001600160a01b03163314620003435760405162461bcd60e51b815260040180806020018281038252602481526020018062005dd86024913960400191505060405180910390fd5b600954158015620003545750600a54155b620003915760405162461bcd60e51b815260040180806020018281038252602381526020018062005dfc6023913960400191505060405180910390fd5b600784905583620003d45760405162461bcd60e51b815260040180806020018281038252603081526020018062005e1f6030913960400191505060405180910390fd5b6000620003ea876001600160e01b036200050916565b9050801562000440576040805162461bcd60e51b815260206004820152601a60248201527f73657474696e6720636f6d7074726f6c6c6572206661696c6564000000000000604482015290519081900360640190fd5b620004536001600160e01b036200067116565b600955670de0b6b3a7640000600a5562000476866001600160e01b03620006ef16565b90508015620004b75760405162461bcd60e51b815260040180806020018281038252602281526020018062005e4f6022913960400191505060405180910390fd5b8351620004cc90600190602087019062000905565b508251620004e290600290602086019062000905565b50506003805460ff90921660ff199283161790556000805490911660011790555050505050565b60035460009061010090046001600160a01b0316331462000543576200053b6001603f6001600160e01b036200089516565b90506200066c565b60055460408051623f1ee960e11b815290516001600160a01b0392831692851691627e3dd2916004808301926020929190829003018186803b1580156200058957600080fd5b505afa1580156200059e573d6000803e3d6000fd5b505050506040513d6020811015620005b557600080fd5b505162000609576040805162461bcd60e51b815260206004820152601c60248201527f6d61726b6572206d6574686f642072657475726e65642066616c736500000000604482015290519081900360640190fd5b600580546001600160a01b0319166001600160a01b03858116918217909255604080519284168352602083019190915280517f7ac369dbd14fa5ea3f473ed67cc9d598964a77501540ba6751eb0b3decf5870d9281900390910190a160005b9150505b919050565b600554604080516357e871e760e01b815290516000926001600160a01b03169182916357e871e791600480820192602092909190829003018186803b158015620006ba57600080fd5b505afa158015620006cf573d6000803e3d6000fd5b505050506040513d6020811015620006e657600080fd5b50519150505b90565b600354600090819061010090046001600160a01b031633146200072c5762000723600160426001600160e01b036200089516565b9150506200066c565b6200073f6001600160e01b036200067116565b600954146200075f5762000723600a60416001600160e01b036200089516565b600660009054906101000a90046001600160a01b03169050826001600160a01b0316632191f92a6040518163ffffffff1660e01b815260040160206040518083038186803b158015620007b157600080fd5b505afa158015620007c6573d6000803e3d6000fd5b505050506040513d6020811015620007dd57600080fd5b505162000831576040805162461bcd60e51b815260206004820152601c60248201527f6d61726b6572206d6574686f642072657475726e65642066616c736500000000604482015290519081900360640190fd5b600680546001600160a01b0319166001600160a01b03858116918217909255604080519284168352602083019190915280517fedffc32e068c7c95dfd4bdfd5c4d939a084d6b11c4199eac8436ed234d72f9269281900390910190a1600062000668565b60007f45b96fe442630264581b197e84bbada861235052c5a1aadfff9ea4e40a969aa0836010811115620008c557fe5b836050811115620008d257fe5b604080519283526020830191909152600082820152519081900360600190a1826010811115620008fe57fe5b9392505050565b828054600181600116156101000203166002900490600052602060002090601f016020900481019282601f106200094857805160ff191683800117855562000978565b8280016001018555821562000978579182015b82811115620009785782518255916020019190600101906200095b565b50620009869291506200098a565b5090565b620006ec91905b8082111562000986576000815560010162000991565b61542180620009b76000396000f3fe608060405234801561001057600080fd5b506004361061035d5760003560e01c80638f840ddd116101d3578063b71d1a0c11610104578063f2b3abbd116100a2578063f851a4401161007c578063f851a44014610c47578063f8f9da2814610c4f578063fca7820b14610c57578063fe9c44ae14610c745761035d565b8063f2b3abbd14610be3578063f3fdb15a14610c09578063f5e3c46214610c115761035d565b8063c5ebeaec116100de578063c5ebeaec14610b73578063db006a7514610b90578063dd62ed3e14610bad578063e9c714f214610bdb5761035d565b8063b71d1a0c14610af9578063bd6d894d14610b1f578063c37f68e214610b275761035d565b8063a6afed9511610171578063ae9d70b01161014b578063ae9d70b014610a9e578063b0e0bf2a14610aa6578063b11a19e81461074c578063b2a02ff114610ac35761035d565b8063a6afed9514610a62578063a9059cbb14610a6a578063aa5af0fd14610a965761035d565b806395dd9193116101ad57806395dd9193146108b4578063977e19e9146108da57806399d8c1b4146108f7578063a0712d6814610a455761035d565b80638f840ddd146108685780639342692d1461087057806395d89b41146108ac5761035d565b80633b1d21a2116102ad5780636900a3ae1161024b57806370a082311161022557806370a082311461077957806371aad10d1461079f57806373acee9814610843578063852a12e31461084b5761035d565b80636900a3ae1461074c5780636c540baf146107695780636f307dc3146107715761035d565b806347bd37181161028757806347bd3718146106f957806356ca623e146107015780635fe3b56714610727578063601a0bf11461072f5761035d565b80633b1d21a2146106ae5780633e941010146106b65780634576b5db146106d35761035d565b8063182df0f51161031a5780632608f818116102f45780632608f8181461061a5780632678224714610646578063313ce5671461066a5780633af9e669146106885761035d565b8063182df0f5146104845780631a31d4651461048c57806323b872dd146105e45761035d565b806306fdde0314610362578063095ea7b3146103df5780630e7527021461041f578063173b99041461044e57806317bfdfbc1461045657806318160ddd1461047c575b600080fd5b61036a610c7c565b6040805160208082528351818301528351919283929083019185019080838360005b838110156103a457818101518382015260200161038c565b50505050905090810190601f1680156103d15780820380516001836020036101000a031916815260200191505b509250505060405180910390f35b61040b600480360360408110156103f557600080fd5b506001600160a01b038135169060200135610d09565b604080519115158252519081900360200190f35b61043c6004803603602081101561043557600080fd5b5035610d76565b60408051918252519081900360200190f35b61043c610d8c565b61043c6004803603602081101561046c57600080fd5b50356001600160a01b0316610d92565b61043c610e52565b61043c610e58565b6105e2600480360360e08110156104a257600080fd5b6001600160a01b03823581169260208101358216926040820135909216916060820135919081019060a081016080820135600160201b8111156104e457600080fd5b8201836020820111156104f657600080fd5b803590602001918460018302840111600160201b8311171561051757600080fd5b91908080601f0160208091040260200160405190810160405280939291908181526020018383808284376000920191909152509295949360208101935035915050600160201b81111561056957600080fd5b82018360208201111561057b57600080fd5b803590602001918460018302840111600160201b8311171561059c57600080fd5b91908080601f0160208091040260200160405190810160405280939291908181526020018383808284376000920191909152509295505050903560ff169150610ebb9050565b005b61040b600480360360608110156105fa57600080fd5b506001600160a01b03813581169160208101359091169060400135610f5a565b61043c6004803603604081101561063057600080fd5b506001600160a01b038135169060200135610fcc565b61064e610fe2565b604080516001600160a01b039092168252519081900360200190f35b610672610ff1565b6040805160ff9092168252519081900360200190f35b61043c6004803603602081101561069e57600080fd5b50356001600160a01b0316610ffa565b61043c6110b0565b61043c600480360360208110156106cc57600080fd5b50356110bf565b61043c600480360360208110156106e957600080fd5b50356001600160a01b03166110ca565b61043c61121f565b61036a6004803603602081101561071757600080fd5b50356001600160a01b0316611225565b61064e611264565b61043c6004803603602081101561074557600080fd5b5035611273565b61036a6004803603602081101561076257600080fd5b503561130e565b61043c611338565b61064e61133e565b61043c6004803603602081101561078f57600080fd5b50356001600160a01b031661134d565b61036a600480360360208110156107b557600080fd5b810190602081018135600160201b8111156107cf57600080fd5b8201836020820111156107e157600080fd5b803590602001918460018302840111600160201b8311171561080257600080fd5b91908080601f016020809104026020016040519081016040528093929190818152602001838380828437600092019190915250929550611368945050505050565b61043c6114f3565b61043c6004803603602081101561086157600080fd5b50356115a9565b61043c6115b4565b61043c6004803603608081101561088657600080fd5b506001600160a01b038135811691602081013582169160408201351690606001356115ba565b61036a61164a565b61043c600480360360208110156108ca57600080fd5b50356001600160a01b03166116a2565b6105e2600480360360208110156108f057600080fd5b50356116ff565b6105e2600480360360c081101561090d57600080fd5b6001600160a01b03823581169260208101359091169160408201359190810190608081016060820135600160201b81111561094757600080fd5b82018360208201111561095957600080fd5b803590602001918460018302840111600160201b8311171561097a57600080fd5b91908080601f0160208091040260200160405190810160405280939291908181526020018383808284376000920191909152509295949360208101935035915050600160201b8111156109cc57600080fd5b8201836020820111156109de57600080fd5b803590602001918460018302840111600160201b831117156109ff57600080fd5b91908080601f0160208091040260200160405190810160405280939291908181526020018383808284376000920191909152509295505050903560ff1691506117049050565b61043c60048036036020811015610a5b57600080fd5b50356118eb565b61043c6118f7565b61040b60048036036040811015610a8057600080fd5b506001600160a01b038135169060200135611c4f565b61043c611cc0565b61043c611cc6565b6105e260048036036020811015610abc57600080fd5b5035611d65565b61043c60048036036060811015610ad957600080fd5b506001600160a01b03813581169160208101359091169060400135611d6a565b61043c60048036036020811015610b0f57600080fd5b50356001600160a01b0316611ddb565b61043c611e67565b610b4d60048036036020811015610b3d57600080fd5b50356001600160a01b0316611f23565b604080519485526020850193909352838301919091526060830152519081900360800190f35b61043c60048036036020811015610b8957600080fd5b5035611fb8565b61043c60048036036020811015610ba657600080fd5b5035611fc3565b61043c60048036036040811015610bc357600080fd5b506001600160a01b0381358116916020013516611fce565b61043c611ff9565b61043c60048036036020811015610bf957600080fd5b50356001600160a01b03166120fc565b61064e612136565b61043c60048036036060811015610c2757600080fd5b506001600160a01b03813581169160208101359160409091013516612145565b61064e61215d565b61043c612171565b61043c60048036036020811015610c6d57600080fd5b50356121d5565b61040b612253565b60018054604080516020600284861615610100026000190190941693909304601f81018490048402820184019092528181529291830182828015610d015780601f10610cd657610100808354040283529160200191610d01565b820191906000526020600020905b815481529060010190602001808311610ce457829003601f168201915b505050505081565b336000818152600f602090815260408083206001600160a01b03871680855290835281842086905581518681529151939493909284927f8c5be1e5ebec7d5bd14f71427d1e84f3dd0314c0f7b2291e5b200ac8c7c3b925929081900390910190a360019150505b92915050565b600080610d8283612258565b509150505b919050565b60085481565b6000805460ff16610dd7576040805162461bcd60e51b815260206004820152600a6024820152691c994b595b9d195c995960b21b604482015290519081900360640190fd5b6000805460ff19168155610de96118f7565b14610e34576040805162461bcd60e51b81526020600482015260166024820152751858d8dc9d59481a5b9d195c995cdd0819985a5b195960521b604482015290519081900360640190fd5b610e3d826116a2565b90505b6000805460ff19166001179055919050565b600d5481565b6000806000610e65612301565b90925090506000826003811115610e7857fe5b14610eb45760405162461bcd60e51b81526004018080602001828103825260358152602001806153386035913960400191505060405180910390fd5b9150505b90565b610ec9868686868686611704565b601180546001600160a01b0319166001600160a01b038981169190911791829055604080516318160ddd60e01b8152905192909116916318160ddd91600480820192602092909190829003018186803b158015610f2557600080fd5b505afa158015610f39573d6000803e3d6000fd5b505050506040513d6020811015610f4f57600080fd5b505050505050505050565b6000805460ff16610f9f576040805162461bcd60e51b815260206004820152600a6024820152691c994b595b9d195c995960b21b604482015290519081900360640190fd5b6000805460ff19168155610fb5338686866123b0565b1490506000805460ff191660011790559392505050565b600080610fd984846126be565b50949350505050565b6004546001600160a01b031681565b60035460ff1681565b6000611004615026565b6040518060200160405280611017611e67565b90526001600160a01b0384166000908152600e6020526040812054919250908190611043908490612769565b9092509050600082600381111561105657fe5b146110a8576040805162461bcd60e51b815260206004820152601f60248201527f62616c616e636520636f756c64206e6f742062652063616c63756c6174656400604482015290519081900360640190fd5b949350505050565b60006110ba6127bd565b905090565b6000610d708261283d565b60035460009061010090046001600160a01b031633146110f7576110f06001603f6128d1565b9050610d87565b60055460408051623f1ee960e11b815290516001600160a01b0392831692851691627e3dd2916004808301926020929190829003018186803b15801561113c57600080fd5b505afa158015611150573d6000803e3d6000fd5b505050506040513d602081101561116657600080fd5b50516111b9576040805162461bcd60e51b815260206004820152601c60248201527f6d61726b6572206d6574686f642072657475726e65642066616c736500000000604482015290519081900360640190fd5b600580546001600160a01b0319166001600160a01b03858116918217909255604080519284168352602083019190915280517f7ac369dbd14fa5ea3f473ed67cc9d598964a77501540ba6751eb0b3decf5870d9281900390910190a160005b9392505050565b600b5481565b6060610d708260405160200180826001600160a01b03166001600160a01b031660601b8152601401915050604051602081830303815290604052611368565b6005546001600160a01b031681565b6000805460ff166112b8576040805162461bcd60e51b815260206004820152600a6024820152691c994b595b9d195c995960b21b604482015290519081900360640190fd5b6000805460ff191681556112ca6118f7565b905080156112f0576112e88160108111156112e157fe5b60306128d1565b915050610e40565b6112f983612937565b9150506000805460ff19166001179055919050565b6060610d708260405160200180828152602001915050604051602081830303815290604052611368565b60095481565b6011546001600160a01b031681565b6001600160a01b03166000908152600e602052604090205490565b6060806040518060400160405280601081526020016f181899199a1a9b1b9c1cb0b131b232b360811b8152509050606083516002026002016040519080825280601f01601f1916602001820160405280156113ca576020820181803883390190505b509050600360fc1b816000815181106113df57fe5b60200101906001600160f81b031916908160001a905350600f60fb1b8160018151811061140857fe5b60200101906001600160f81b031916908160001a90535060005b8451811015610d825782600486838151811061143a57fe5b016020015182516001600160f81b031990911690911c60f81c90811061145c57fe5b602001015160f81c60f81b82826002026002018151811061147957fe5b60200101906001600160f81b031916908160001a9053508285828151811061149d57fe5b602091010151815160f89190911c600f169081106114b757fe5b602001015160f81c60f81b8282600202600301815181106114d457fe5b60200101906001600160f81b031916908160001a905350600101611422565b6000805460ff16611538576040805162461bcd60e51b815260206004820152600a6024820152691c994b595b9d195c995960b21b604482015290519081900360640190fd5b6000805460ff1916815561154a6118f7565b14611595576040805162461bcd60e51b81526020600482015260166024820152751858d8dc9d59481a5b9d195c995cdd0819985a5b195960521b604482015290519081900360640190fd5b50600b546000805460ff1916600117905590565b6000610d7082612a6a565b600c5481565b6040805163b2a02ff160e01b81526001600160a01b038581166004830152848116602483015260448201849052915160009287169163b2a02ff191606480830192602092919082900301818787803b15801561161557600080fd5b505af1158015611629573d6000803e3d6000fd5b505050506040513d602081101561163f57600080fd5b505195945050505050565b6002805460408051602060018416156101000260001901909316849004601f81018490048402820184019092528181529291830182828015610d015780601f10610cd657610100808354040283529160200191610d01565b60008060006116b084612aeb565b909250905060008260038111156116c357fe5b146112185760405162461bcd60e51b81526004018080602001828103825260378152602001806152436037913960400191505060405180910390fd5b600b55565b60035461010090046001600160a01b031633146117525760405162461bcd60e51b815260040180806020018281038252602481526020018061517f6024913960400191505060405180910390fd5b6009541580156117625750600a54155b61179d5760405162461bcd60e51b81526004018080602001828103825260238152602001806151a36023913960400191505060405180910390fd5b6007849055836117de5760405162461bcd60e51b81526004018080602001828103825260308152602001806151c66030913960400191505060405180910390fd5b60006117e9876110ca565b9050801561183e576040805162461bcd60e51b815260206004820152601a60248201527f73657474696e6720636f6d7074726f6c6c6572206661696c6564000000000000604482015290519081900360640190fd5b611846612b9f565b600955670de0b6b3a7640000600a5561185e86612be7565b9050801561189d5760405162461bcd60e51b81526004018080602001828103825260228152602001806151f66022913960400191505060405180910390fd5b83516118b0906001906020870190615039565b5082516118c4906002906020860190615039565b50506003805460ff90921660ff199283161790556000805490911660011790555050505050565b600080610d8283612d5c565b600080611902612b9f565b6009549091508082141561191b57600092505050610eb8565b60006119256127bd565b600b54600c54600a54600654604080516315f2405360e01b815260048101879052602481018690526044810185905290519596509394929391926000926001600160a01b03909216916315f24053916064808301926020929190829003018186803b15801561199357600080fd5b505afa1580156119a7573d6000803e3d6000fd5b505050506040513d60208110156119bd57600080fd5b5051905065048c27395000811115611a1c576040805162461bcd60e51b815260206004820152601c60248201527f626f72726f772072617465206973206162737572646c79206869676800000000604482015290519081900360640190fd5b600080611a298989612ddd565b90925090506000826003811115611a3c57fe5b14611a8e576040805162461bcd60e51b815260206004820152601f60248201527f636f756c64206e6f742063616c63756c61746520626c6f636b2064656c746100604482015290519081900360640190fd5b611a96615026565b600080600080611ab460405180602001604052808a81525087612e00565b90975094506000876003811115611ac757fe5b14611af957611ae460096006896003811115611adf57fe5b612e68565b9e505050505050505050505050505050610eb8565b611b03858c612769565b90975093506000876003811115611b1657fe5b14611b2e57611ae460096001896003811115611adf57fe5b611b38848c612ece565b90975092506000876003811115611b4b57fe5b14611b6357611ae460096004896003811115611adf57fe5b611b7e6040518060200160405280600854815250858c612ef4565b90975091506000876003811115611b9157fe5b14611ba957611ae460096005896003811115611adf57fe5b611bb4858a8b612ef4565b90975090506000876003811115611bc757fe5b14611bdf57611ae460096003896003811115611adf57fe5b60098e9055600a819055600b839055600c829055604080518d8152602081018690528082018390526060810185905290517f4dec04e750ca11537cabcd8a9eab06494de08da3735bc8871cd41250e190bc049181900360800190a160009e50505050505050505050505050505090565b6000805460ff16611c94576040805162461bcd60e51b815260206004820152600a6024820152691c994b595b9d195c995960b21b604482015290519081900360640190fd5b6000805460ff19168155611caa333386866123b0565b1490506000805460ff1916600117905592915050565b600a5481565b6006546000906001600160a01b031663b8168816611ce26127bd565b600b54600c546008546040518563ffffffff1660e01b81526004018085815260200184815260200183815260200182815260200194505050505060206040518083038186803b158015611d3457600080fd5b505afa158015611d48573d6000803e3d6000fd5b505050506040513d6020811015611d5e57600080fd5b5051905090565b600c55565b6000805460ff16611daf576040805162461bcd60e51b815260206004820152600a6024820152691c994b595b9d195c995960b21b604482015290519081900360640190fd5b6000805460ff19169055611dc533858585612f50565b90506000805460ff191660011790559392505050565b60035460009061010090046001600160a01b03163314611e01576110f0600160456128d1565b600480546001600160a01b038481166001600160a01b0319831681179093556040805191909216808252602082019390935281517fca4f2f25d0898edd99413412fb94012f9e54ec8142f9b093e7720646a95b16a9929181900390910190a16000611218565b6000805460ff16611eac576040805162461bcd60e51b815260206004820152600a6024820152691c994b595b9d195c995960b21b604482015290519081900360640190fd5b6000805460ff19168155611ebe6118f7565b14611f09576040805162461bcd60e51b81526020600482015260166024820152751858d8dc9d59481a5b9d195c995cdd0819985a5b195960521b604482015290519081900360640190fd5b611f11610e58565b90506000805460ff1916600117905590565b6001600160a01b0381166000908152600e6020526040812054819081908190818080611f4e89612aeb565b935090506000816003811115611f6057fe5b14611f7e5760095b975060009650869550859450611fb19350505050565b611f86612301565b925090506000816003811115611f9857fe5b14611fa4576009611f68565b5060009650919450925090505b9193509193565b6000610d70826131b6565b6000610d7082613235565b6001600160a01b039182166000908152600f6020908152604080832093909416825291909152205490565b6004546000906001600160a01b031633141580612014575033155b1561202c57612025600160006128d1565b9050610eb8565b60038054600480546001600160a01b03818116610100818102610100600160a81b0319871617968790556001600160a01b031990931690935560408051948390048216808652929095041660208401528351909391927ff9ffabca9c8276e99321725bcb43fb076a6c66a54b7f21c4e8146d8519b417dc92908290030190a1600454604080516001600160a01b038085168252909216602083015280517fca4f2f25d0898edd99413412fb94012f9e54ec8142f9b093e7720646a95b16a99281900390910190a160009250505090565b6000806121076118f7565b9050801561212d5761212581601081111561211e57fe5b60406128d1565b915050610d87565b61121883612be7565b6006546001600160a01b031681565b6000806121538585856132af565b5095945050505050565b60035461010090046001600160a01b031681565b6006546000906001600160a01b03166315f2405361218d6127bd565b600b54600c546040518463ffffffff1660e01b815260040180848152602001838152602001828152602001935050505060206040518083038186803b158015611d3457600080fd5b6000805460ff1661221a576040805162461bcd60e51b815260206004820152600a6024820152691c994b595b9d195c995960b21b604482015290519081900360640190fd5b6000805460ff1916815561222c6118f7565b9050801561224a576112e881601081111561224357fe5b60466128d1565b6112f9836133e1565b600181565b60008054819060ff1661229f576040805162461bcd60e51b815260206004820152600a6024820152691c994b595b9d195c995960b21b604482015290519081900360640190fd5b6000805460ff191681556122b16118f7565b905080156122dc576122cf8160108111156122c857fe5b60366128d1565b9250600091506122ed9050565b6122e7333386613489565b92509250505b6000805460ff191660011790559092909150565b600d5460009081908061231c575050600754600091506123ac565b60006123266127bd565b90506000612332615026565b600061234384600b54600c5461386e565b93509050600081600381111561235557fe5b1461236a579550600094506123ac9350505050565b61237483866138ac565b92509050600081600381111561238657fe5b1461239b579550600094506123ac9350505050565b50516000955093506123ac92505050565b9091565b600554604080516317b9b84b60e31b81523060048201526001600160a01b03868116602483015285811660448301526064820185905291516000938493169163bdcdc25891608480830192602092919082900301818787803b15801561241557600080fd5b505af1158015612429573d6000803e3d6000fd5b505050506040513d602081101561243f57600080fd5b50519050801561245e576124566003604a83612e68565b9150506110a8565b836001600160a01b0316856001600160a01b03161415612484576124566002604b6128d1565b60006001600160a01b0387811690871614156124a357506000196124cb565b506001600160a01b038086166000908152600f60209081526040808320938a16835292905220545b6000806000806124db8589612ddd565b909450925060008460038111156124ee57fe5b1461250c576124ff6009604b6128d1565b96505050505050506110a8565b6001600160a01b038a166000908152600e602052604090205461252f9089612ddd565b9094509150600084600381111561254257fe5b14612553576124ff6009604c6128d1565b6001600160a01b0389166000908152600e60205260409020546125769089612ece565b9094509050600084600381111561258957fe5b1461259a576124ff6009604d6128d1565b6001600160a01b03808b166000908152600e6020526040808220859055918b1681522081905560001985146125f2576001600160a01b03808b166000908152600f60209081526040808320938f168352929052208390555b886001600160a01b03168a6001600160a01b03166000805160206152b48339815191528a6040518082815260200191505060405180910390a36005546040805163352b4a3f60e11b81523060048201526001600160a01b038d811660248301528c81166044830152606482018c905291519190921691636a56947e91608480830192600092919082900301818387803b15801561268e57600080fd5b505af11580156126a2573d6000803e3d6000fd5b50600092506126af915050565b9b9a5050505050505050505050565b60008054819060ff16612705576040805162461bcd60e51b815260206004820152600a6024820152691c994b595b9d195c995960b21b604482015290519081900360640190fd5b6000805460ff191681556127176118f7565b905080156127425761273581601081111561272e57fe5b60356128d1565b9250600091506127539050565b61274d338686613489565b92509250505b6000805460ff1916600117905590939092509050565b6000806000612776615026565b6127808686612e00565b9092509050600082600381111561279357fe5b146127a457509150600090506127b6565b60006127af8261395c565b9350935050505b9250929050565b601154604080516370a0823160e01b815230600482015290516000926001600160a01b03169182916370a0823191602480820192602092909190829003018186803b15801561280b57600080fd5b505afa15801561281f573d6000803e3d6000fd5b505050506040513d602081101561283557600080fd5b505191505090565b6000805460ff16612882576040805162461bcd60e51b815260206004820152600a6024820152691c994b595b9d195c995960b21b604482015290519081900360640190fd5b6000805460ff191681556128946118f7565b905080156128b2576112e88160108111156128ab57fe5b604e6128d1565b6128bb8361396b565b509150506000805460ff19166001179055919050565b60007f45b96fe442630264581b197e84bbada861235052c5a1aadfff9ea4e40a969aa083601081111561290057fe5b83605081111561290c57fe5b604080519283526020830191909152600082820152519081900360600190a182601081111561121857fe5b600354600090819061010090046001600160a01b0316331461295f57612125600160316128d1565b612967612b9f565b6009541461297b57612125600a60336128d1565b826129846127bd565b101561299657612125600e60326128d1565b600c548311156129ac57612125600260346128d1565b50600c54828103908111156129f25760405162461bcd60e51b81526004018080602001828103825260248152602001806153c96024913960400191505060405180910390fd5b600c819055600354612a129061010090046001600160a01b031684613a53565b600354604080516101009092046001600160a01b0316825260208201859052818101839052517f3bad0c59cf2f06e7314077049f48a93578cd16f5ef92329f1dab1420a99c177e916060908290030190a16000611218565b6000805460ff16612aaf576040805162461bcd60e51b815260206004820152600a6024820152691c994b595b9d195c995960b21b604482015290519081900360640190fd5b6000805460ff19168155612ac16118f7565b90508015612adf576112e8816010811115612ad857fe5b60276128d1565b6112f933600085613b4a565b6001600160a01b038116600090815260106020526040812080548291829182918291612b22575060009450849350612b9a92505050565b612b328160000154600a54614011565b90945092506000846003811115612b4557fe5b14612b5a575091935060009250612b9a915050565b612b68838260010154614050565b90945091506000846003811115612b7b57fe5b14612b90575091935060009250612b9a915050565b5060009450925050505b915091565b600554604080516357e871e760e01b815290516000926001600160a01b03169182916357e871e791600480820192602092909190829003018186803b15801561280b57600080fd5b600354600090819061010090046001600160a01b03163314612c0f57612125600160426128d1565b612c17612b9f565b60095414612c2b57612125600a60416128d1565b600660009054906101000a90046001600160a01b03169050826001600160a01b0316632191f92a6040518163ffffffff1660e01b815260040160206040518083038186803b158015612c7c57600080fd5b505afa158015612c90573d6000803e3d6000fd5b505050506040513d6020811015612ca657600080fd5b5051612cf9576040805162461bcd60e51b815260206004820152601c60248201527f6d61726b6572206d6574686f642072657475726e65642066616c736500000000604482015290519081900360640190fd5b600680546001600160a01b0319166001600160a01b03858116918217909255604080519284168352602083019190915280517fedffc32e068c7c95dfd4bdfd5c4d939a084d6b11c4199eac8436ed234d72f9269281900390910190a16000611218565b60008054819060ff16612da3576040805162461bcd60e51b815260206004820152600a6024820152691c994b595b9d195c995960b21b604482015290519081900360640190fd5b6000805460ff19168155612db56118f7565b90508015612dd3576122cf816010811115612dcc57fe5b601e6128d1565b6122e7338561407b565b600080838311612df45750600090508183036127b6565b506003905060006127b6565b6000612e0a615026565b600080612e1b866000015186614011565b90925090506000826003811115612e2e57fe5b14612e4d575060408051602081019091526000815290925090506127b6565b60408051602081019091529081526000969095509350505050565b60007f45b96fe442630264581b197e84bbada861235052c5a1aadfff9ea4e40a969aa0846010811115612e9757fe5b846050811115612ea357fe5b604080519283526020830191909152818101859052519081900360600190a18360108111156110a857fe5b600080838301848110612ee6576000925090506127b6565b5060029150600090506127b6565b6000806000612f01615026565b612f0b8787612e00565b90925090506000826003811115612f1e57fe5b14612f2f5750915060009050612f48565b612f41612f3b8261395c565b86612ece565b9350935050505b935093915050565b6005546040805163d02f735160e01b81523060048201526001600160a01b038781166024830152868116604483015285811660648301526084820185905291516000938493169163d02f73519160a480830192602092919082900301818787803b158015612fbd57600080fd5b505af1158015612fd1573d6000803e3d6000fd5b505050506040513d6020811015612fe757600080fd5b505190508015612ffe576124566003601b83612e68565b846001600160a01b0316846001600160a01b03161415613024576124566006601c6128d1565b6001600160a01b0384166000908152600e60205260408120548190819061304b9087612ddd565b9093509150600083600381111561305e57fe5b14613081576130766009601a856003811115611adf57fe5b9450505050506110a8565b6001600160a01b0388166000908152600e60205260409020546130a49087612ece565b909350905060008360038111156130b757fe5b146130cf5761307660096019856003811115611adf57fe5b6001600160a01b038088166000818152600e60209081526040808320879055938c168083529184902085905583518a8152935191936000805160206152b4833981519152929081900390910190a360055460408051636d35bf9160e01b81523060048201526001600160a01b038c811660248301528b811660448301528a81166064830152608482018a905291519190921691636d35bf919160a480830192600092919082900301818387803b15801561318857600080fd5b505af115801561319c573d6000803e3d6000fd5b50600092506131a9915050565b9998505050505050505050565b6000805460ff166131fb576040805162461bcd60e51b815260206004820152600a6024820152691c994b595b9d195c995960b21b604482015290519081900360640190fd5b6000805460ff1916815561320d6118f7565b9050801561322b576112e881601081111561322457fe5b60086128d1565b6112f933846144da565b6000805460ff1661327a576040805162461bcd60e51b815260206004820152600a6024820152691c994b595b9d195c995960b21b604482015290519081900360640190fd5b6000805460ff1916815561328c6118f7565b905080156132a3576112e8816010811115612ad857fe5b6112f933846000613b4a565b60008054819060ff166132f6576040805162461bcd60e51b815260206004820152600a6024820152691c994b595b9d195c995960b21b604482015290519081900360640190fd5b6000805460ff191681556133086118f7565b905080156133335761332681601081111561331f57fe5b600f6128d1565b9250600091506133ca9050565b836001600160a01b031663a6afed956040518163ffffffff1660e01b8152600401602060405180830381600087803b15801561336e57600080fd5b505af1158015613382573d6000803e3d6000fd5b505050506040513d602081101561339857600080fd5b5051905080156133b8576133268160108111156133b157fe5b60106128d1565b6133c4338787876147e8565b92509250505b6000805460ff191660011790559094909350915050565b60035460009061010090046001600160a01b03163314613407576110f0600160476128d1565b61340f612b9f565b60095414613423576110f0600a60486128d1565b670de0b6b3a764000082111561343f576110f0600260496128d1565b6008805490839055604080518281526020810185905281517faaa68312e2ea9d50e16af5068410ab56e1a1fd06037b1a35664812c30f821460929181900390910190a16000611218565b60055460408051631200453160e11b81523060048201526001600160a01b0386811660248301528581166044830152606482018590529151600093849384939116916324008a629160848082019260209290919082900301818787803b1580156134f257600080fd5b505af1158015613506573d6000803e3d6000fd5b505050506040513d602081101561351c57600080fd5b505190508015613540576135336003603883612e68565b925060009150612f489050565b613548612b9f565b6009541461355c57613533600a60396128d1565b6135646150b7565b6001600160a01b038616600090815260106020526040902060010154606082015261358e86612aeb565b60808301819052602083018260038111156135a557fe5b60038111156135b057fe5b90525060009050816020015160038111156135c757fe5b146135f1576135e36009603783602001516003811115611adf57fe5b935060009250612f48915050565b60001985141561360a5760808101516040820152613612565b604081018590525b613620878260400151614d6b565b60e08201819052608082015161363591612ddd565b60a083018190526020830182600381111561364c57fe5b600381111561365757fe5b905250600090508160200151600381111561366e57fe5b146136aa5760405162461bcd60e51b815260040180806020018281038252603a81526020018061527a603a913960400191505060405180910390fd5b6136ba600b548260e00151612ddd565b60c08301819052602083018260038111156136d157fe5b60038111156136dc57fe5b90525060009050816020015160038111156136f357fe5b1461372f5760405162461bcd60e51b81526004018080602001828103825260318152602001806152d46031913960400191505060405180910390fd5b60a080820180516001600160a01b03808a16600081815260106020908152604091829020948555600a5460019095019490945560c0870151600b81905560e088015195518251948f16855294840192909252828101949094526060820192909252608081019190915290517f1a2a22cb034d26d1854bdc6666a5b91fe25efbbb5dcad3b0355478d6f5c362a1929181900390910190a160055460e0820151606083015160408051631ededc9160e01b81523060048201526001600160a01b038c811660248301528b8116604483015260648201949094526084810192909252519190921691631ededc919160a480830192600092919082900301818387803b15801561383a57600080fd5b505af115801561384e573d6000803e3d6000fd5b506000925061385b915050565b8160e00151935093505050935093915050565b60008060008061387e8787612ece565b9092509050600082600381111561389157fe5b146138a25750915060009050612f48565b612f418186612ddd565b60006138b6615026565b6000806138cb86670de0b6b3a7640000614011565b909250905060008260038111156138de57fe5b146138fd575060408051602081019091526000815290925090506127b6565b60008061390a8388614050565b9092509050600082600381111561391d57fe5b1461393f575060408051602081019091526000815290945092506127b6915050565b604080516020810190915290815260009890975095505050505050565b51670de0b6b3a7640000900490565b600080600080613979612b9f565b600954146139985761398d600a604f6128d1565b93509150612b9a9050565b6139a23386614d6b565b905080600c54019150600c54821015613a02576040805162461bcd60e51b815260206004820181905260248201527f61646420726573657276657320756e6578706563746564206f766572666c6f77604482015290519081900360640190fd5b600c829055604080513381526020810183905280820184905290517fa91e67c5ea634cd43a12c5a482724b03de01e85ca68702a53d0c2f45cb7c1dc59181900360600190a160009350915050915091565b6011546040805163a9059cbb60e01b81526001600160a01b0385811660048301526024820185905291519190921691829163a9059cbb9160448082019260009290919082900301818387803b158015613aab57600080fd5b505af1158015613abf573d6000803e3d6000fd5b5050505060003d60008114613adb5760208114613ae557600080fd5b6000199150613af1565b60206000803e60005191505b5080613b44576040805162461bcd60e51b815260206004820152601960248201527f544f4b454e5f5452414e534645525f4f55545f4641494c454400000000000000604482015290519081900360640190fd5b50505050565b6000821580613b57575081155b613b925760405162461bcd60e51b81526004018080602001828103825260348152602001806153956034913960400191505060405180910390fd5b613b9a6150fd565b613ba2612301565b6040830181905260208301826003811115613bb957fe5b6003811115613bc457fe5b9052506000905081602001516003811115613bdb57fe5b14613bff57613bf76009602b83602001516003811115611adf57fe5b915050611218565b8315613c80576060810184905260408051602081018252908201518152613c269085612769565b6080830181905260208301826003811115613c3d57fe5b6003811115613c4857fe5b9052506000905081602001516003811115613c5f57fe5b14613c7b57613bf76009602983602001516003811115611adf57fe5b613cf9565b613c9c8360405180602001604052808460400151815250614fb5565b6060830181905260208301826003811115613cb357fe5b6003811115613cbe57fe5b9052506000905081602001516003811115613cd557fe5b14613cf157613bf76009602a83602001516003811115611adf57fe5b608081018390525b60055460608201516040805163eabe7d9160e01b81523060048201526001600160a01b03898116602483015260448201939093529051600093929092169163eabe7d919160648082019260209290919082900301818787803b158015613d5e57600080fd5b505af1158015613d72573d6000803e3d6000fd5b505050506040513d6020811015613d8857600080fd5b505190508015613da857613d9f6003602883612e68565b92505050611218565b613db0612b9f565b60095414613dc457613d9f600a602c6128d1565b613dd4600d548360600151612ddd565b60a0840181905260208401826003811115613deb57fe5b6003811115613df657fe5b9052506000905082602001516003811115613e0d57fe5b14613e2957613d9f6009602e84602001516003811115611adf57fe5b6001600160a01b0386166000908152600e60205260409020546060830151613e519190612ddd565b60c0840181905260208401826003811115613e6857fe5b6003811115613e7357fe5b9052506000905082602001516003811115613e8a57fe5b14613ea657613d9f6009602d84602001516003811115611adf57fe5b8160800151613eb36127bd565b1015613ec557613d9f600e602f6128d1565b613ed3868360800151613a53565b60a0820151600d5560c08201516001600160a01b0387166000818152600e60209081526040918290209390935560608501518151908152905130936000805160206152b4833981519152928290030190a36080820151606080840151604080516001600160a01b038b168152602081019490945283810191909152517fe5b754fb1abb7f01b499791d0b820ae3b6af3424ac1c59768edb53f4ec31a9299281900390910190a160055460808301516060840151604080516351dff98960e01b81523060048201526001600160a01b038b81166024830152604482019490945260648101929092525191909216916351dff98991608480830192600092919082900301818387803b158015613fe657600080fd5b505af1158015613ffa573d6000803e3d6000fd5b5060009250614007915050565b9695505050505050565b60008083614024575060009050806127b6565b8383028385828161403157fe5b0414614045575060029150600090506127b6565b6000925090506127b6565b6000808261406457506001905060006127b6565b600083858161406f57fe5b04915091509250929050565b60055460408051634ef4c3e160e01b81523060048201526001600160a01b03858116602483015260448201859052915160009384938493911691634ef4c3e19160648082019260209290919082900301818787803b1580156140dc57600080fd5b505af11580156140f0573d6000803e3d6000fd5b505050506040513d602081101561410657600080fd5b50519050801561412a5761411d6003601f83612e68565b9250600091506127b69050565b614132612b9f565b600954146141465761411d600a60226128d1565b61414e6150fd565b614156612301565b604083018190526020830182600381111561416d57fe5b600381111561417857fe5b905250600090508160200151600381111561418f57fe5b146141b9576141ab6009602183602001516003811115611adf57fe5b9350600092506127b6915050565b6141c38686614d6b565b60c08201819052604080516020810182529083015181526141e49190614fb5565b60608301819052602083018260038111156141fb57fe5b600381111561420657fe5b905250600090508160200151600381111561421d57fe5b1461426f576040805162461bcd60e51b815260206004820181905260248201527f4d494e545f45584348414e47455f43414c43554c4154494f4e5f4641494c4544604482015290519081900360640190fd5b61427f600d548260600151612ece565b608083018190526020830182600381111561429657fe5b60038111156142a157fe5b90525060009050816020015160038111156142b857fe5b146142f45760405162461bcd60e51b815260040180806020018281038252602881526020018061536d6028913960400191505060405180910390fd5b6001600160a01b0386166000908152600e6020526040902054606082015161431c9190612ece565b60a083018190526020830182600381111561433357fe5b600381111561433e57fe5b905250600090508160200151600381111561435557fe5b146143915760405162461bcd60e51b815260040180806020018281038252602b815260200180615218602b913960400191505060405180910390fd5b6080810151600d5560a08101516001600160a01b0387166000818152600e60209081526040918290209390935560c084015160608086015183519485529484019190915282820193909352517f4c209b5fc8ad50758f13e2e1088ba56a560dff690a1c6fef26394f4c03821c4f929181900390910190a1606081015160408051918252516001600160a01b0388169130916000805160206152b48339815191529181900360200190a360055460c08201516060830151604080516341c728b960e01b81523060048201526001600160a01b038b81166024830152604482019490945260648101929092525191909216916341c728b991608480830192600092919082900301818387803b1580156144a757600080fd5b505af11580156144bb573d6000803e3d6000fd5b50600092506144c8915050565b8160c001519350935050509250929050565b6005546040805163368f515360e21b81523060048201526001600160a01b0385811660248301526044820185905291516000938493169163da3d454c91606480830192602092919082900301818787803b15801561453757600080fd5b505af115801561454b573d6000803e3d6000fd5b505050506040513d602081101561456157600080fd5b505190508015614580576145786003600e83612e68565b915050610d70565b614588612b9f565b6009541461459b57614578600a806128d1565b826145a46127bd565b10156145b657614578600e60096128d1565b6145be61513b565b6145c785612aeb565b60208301819052828260038111156145db57fe5b60038111156145e657fe5b90525060009050815160038111156145fa57fe5b1461461f576146166009600783600001516003811115611adf57fe5b92505050610d70565b61462d816020015185612ece565b604083018190528282600381111561464157fe5b600381111561464c57fe5b905250600090508151600381111561466057fe5b1461467c576146166009600c83600001516003811115611adf57fe5b614688600b5485612ece565b606083018190528282600381111561469c57fe5b60038111156146a757fe5b90525060009050815160038111156146bb57fe5b146146d7576146166009600b83600001516003811115611adf57fe5b6146e18585613a53565b604080820180516001600160a01b03881660008181526010602090815290859020928355600a54600190930192909255606080860151600b81905593518551928352928201899052818501929092529081019190915290517f13ed6866d4e1ee6da46f845c46d7e54120883d75c5ea9a2dacc1c4ca8984ab809181900360800190a160055460408051635c77860560e01b81523060048201526001600160a01b0388811660248301526044820188905291519190921691635c77860591606480830192600092919082900301818387803b1580156147be57600080fd5b505af11580156147d2573d6000803e3d6000fd5b50600092506147df915050565b95945050505050565b60055460408051632fe3f38f60e11b81523060048201526001600160a01b0384811660248301528781166044830152868116606483015260848201869052915160009384938493911691635fc7e71e9160a48082019260209290919082900301818787803b15801561485957600080fd5b505af115801561486d573d6000803e3d6000fd5b505050506040513d602081101561488357600080fd5b5051905080156148a75761489a6003601283612e68565b925060009150614d629050565b6148af612b9f565b600954146148c35761489a600a60166128d1565b6148cb612b9f565b846001600160a01b0316636c540baf6040518163ffffffff1660e01b815260040160206040518083038186803b15801561490457600080fd5b505afa158015614918573d6000803e3d6000fd5b505050506040513d602081101561492e57600080fd5b5051146149415761489a600a60116128d1565b866001600160a01b0316866001600160a01b031614156149675761489a600660176128d1565b846149785761489a600760156128d1565b60001985141561498e5761489a600760146128d1565b60008061499c898989613489565b909250905081156149cc576149bd8260108111156149b657fe5b60186128d1565b945060009350614d6292505050565b6005546040805163c488847b60e01b81523060048201526001600160a01b038981166024830152604482018590528251600094859492169263c488847b926064808301939192829003018186803b158015614a2657600080fd5b505afa158015614a3a573d6000803e3d6000fd5b505050506040513d6040811015614a5057600080fd5b50805160209091015190925090508115614a9b5760405162461bcd60e51b81526004018080602001828103825260338152602001806153056033913960400191505060405180910390fd5b80886001600160a01b03166370a082318c6040518263ffffffff1660e01b815260040180826001600160a01b03166001600160a01b0316815260200191505060206040518083038186803b158015614af257600080fd5b505afa158015614b06573d6000803e3d6000fd5b505050506040513d6020811015614b1c57600080fd5b50511015614b71576040805162461bcd60e51b815260206004820152601860248201527f4c49515549444154455f5345495a455f544f4f5f4d5543480000000000000000604482015290519081900360640190fd5b60006001600160a01b038916301415614b9757614b90308d8d85612f50565b9050614c21565b6040805163b2a02ff160e01b81526001600160a01b038e811660048301528d81166024830152604482018590529151918b169163b2a02ff1916064808201926020929091908290030181600087803b158015614bf257600080fd5b505af1158015614c06573d6000803e3d6000fd5b505050506040513d6020811015614c1c57600080fd5b505190505b8015614c6b576040805162461bcd60e51b81526020600482015260146024820152731d1bdad95b881cd95a5e9d5c994819985a5b195960621b604482015290519081900360640190fd5b604080516001600160a01b03808f168252808e1660208301528183018790528b1660608201526080810184905290517f298637f684da70674f26509b10f07ec2fbc77a335ab1e7d6215a4b2484d8bb529181900360a00190a1600554604080516347ef3b3b60e01b81523060048201526001600160a01b038c811660248301528f811660448301528e811660648301526084820188905260a48201869052915191909216916347ef3b3b9160c480830192600092919082900301818387803b158015614d3657600080fd5b505af1158015614d4a573d6000803e3d6000fd5b5060009250614d57915050565b975092955050505050505b94509492505050565b601154604080516370a0823160e01b815230600482015290516000926001600160a01b031691839183916370a08231916024808301926020929190829003018186803b158015614dba57600080fd5b505afa158015614dce573d6000803e3d6000fd5b505050506040513d6020811015614de457600080fd5b5051604080516323b872dd60e01b81526001600160a01b038881166004830152306024830152604482018890529151929350908416916323b872dd9160648082019260009290919082900301818387803b158015614e4157600080fd5b505af1158015614e55573d6000803e3d6000fd5b5050505060003d60008114614e715760208114614e7b57600080fd5b6000199150614e87565b60206000803e60005191505b5080614eda576040805162461bcd60e51b815260206004820152601860248201527f544f4b454e5f5452414e534645525f494e5f4641494c45440000000000000000604482015290519081900360640190fd5b601154604080516370a0823160e01b815230600482015290516000926001600160a01b0316916370a08231916024808301926020929190829003018186803b158015614f2557600080fd5b505afa158015614f39573d6000803e3d6000fd5b505050506040513d6020811015614f4f57600080fd5b5051905082811015614fa8576040805162461bcd60e51b815260206004820152601a60248201527f544f4b454e5f5452414e534645525f494e5f4f564552464c4f57000000000000604482015290519081900360640190fd5b9190910395945050505050565b6000806000614fc2615026565b61278086866000614fd1615026565b600080614fe6670de0b6b3a764000087614011565b90925090506000826003811115614ff957fe5b14615018575060408051602081019091526000815290925090506127b6565b6127af8186600001516138ac565b6040518060200160405280600081525090565b828054600181600116156101000203166002900490600052602060002090601f016020900481019282601f1061507a57805160ff19168380011785556150a7565b828001600101855582156150a7579182015b828111156150a757825182559160200191906001019061508c565b506150b3929150615164565b5090565b6040805161010081019091528060008152602001600081526020016000815260200160008152602001600081526020016000815260200160008152602001600081525090565b6040805160e0810190915280600081526020016000815260200160008152602001600081526020016000815260200160008152602001600081525090565b604080516080810190915280600081526020016000815260200160008152602001600081525090565b610eb891905b808211156150b3576000815560010161516a56fe6f6e6c792061646d696e206d617920696e697469616c697a6520746865206d61726b65746d61726b6574206d6179206f6e6c7920626520696e697469616c697a6564206f6e6365696e697469616c2065786368616e67652072617465206d7573742062652067726561746572207468616e207a65726f2e73657474696e6720696e7465726573742072617465206d6f64656c206661696c65644d494e545f4e45575f4143434f554e545f42414c414e43455f43414c43554c4154494f4e5f4641494c4544626f72726f7742616c616e636553746f7265643a20626f72726f7742616c616e636553746f726564496e7465726e616c206661696c656452455041595f424f52524f575f4e45575f4143434f554e545f424f52524f575f42414c414e43455f43414c43554c4154494f4e5f4641494c4544ddf252ad1be2c89b69c2b068fc378daa952ba7f163c4a11628f55a4df523b3ef52455041595f424f52524f575f4e45575f544f54414c5f42414c414e43455f43414c43554c4154494f4e5f4641494c45444c49515549444154455f434f4d5054524f4c4c45525f43414c43554c4154455f414d4f554e545f5345495a455f4641494c454465786368616e67655261746553746f7265643a2065786368616e67655261746553746f726564496e7465726e616c206661696c65644d494e545f4e45575f544f54414c5f535550504c595f43414c43554c4154494f4e5f4641494c45446f6e65206f662072656465656d546f6b656e73496e206f722072656465656d416d6f756e74496e206d757374206265207a65726f72656475636520726573657276657320756e657870656374656420756e646572666c6f77a265627a7a723158202afeafca21ea71ccd1fb72a92a4abff0104a235b7b82d02279067db450be72fd64736f6c634300050e00326f6e6c792061646d696e206d617920696e697469616c697a6520746865206d61726b65746d61726b6574206d6179206f6e6c7920626520696e697469616c697a6564206f6e6365696e697469616c2065786368616e67652072617465206d7573742062652067726561746572207468616e207a65726f2e73657474696e6720696e7465726573742072617465206d6f64656c206661696c6564",
  "source": "pragma solidity ^0.5.14;\n\nimport \"../../contracts/CErc20Immutable.sol\";\nimport \"../../contracts/CErc20Delegator.sol\";\nimport \"../../contracts/CErc20Delegate.sol\";\nimport \"../../contracts/CDaiDelegate.sol\";\nimport \"./ComptrollerHarness.sol\";\n\ncontract CErc20Harness is CErc20Immutable {\n    uint blockNumber = 100000;\n    uint harnessExchangeRate;\n    bool harnessExchangeRateStored;\n\n    mapping (address => bool) public failTransferToAddresses;\n\n    constructor(address underlying_,\n                ComptrollerInterface comptroller_,\n                InterestRateModel interestRateModel_,\n                uint initialExchangeRateMantissa_,\n                string memory name_,\n                string memory symbol_,\n                uint8 decimals_,\n                address payable admin_)\n    CErc20Immutable(\n    underlying_,\n    comptroller_,\n    interestRateModel_,\n    initialExchangeRateMantissa_,\n    name_,\n    symbol_,\n    decimals_,\n    admin_) public {}\n\n    function doTransferOut(address payable to, uint amount) internal {\n        require(failTransferToAddresses[to] == false, \"TOKEN_TRANSFER_OUT_FAILED\");\n        return super.doTransferOut(to, amount);\n    }\n\n    function exchangeRateStoredInternal() internal view returns (MathError, uint) {\n        if (harnessExchangeRateStored) {\n            return (MathError.NO_ERROR, harnessExchangeRate);\n        }\n        return super.exchangeRateStoredInternal();\n    }\n\n    function getBlockNumber() internal view returns (uint) {\n        return blockNumber;\n    }\n\n    function getBorrowRateMaxMantissa() public pure returns (uint) {\n        return borrowRateMaxMantissa;\n    }\n\n    function harnessSetAccrualBlockNumber(uint _accrualblockNumber) public {\n        accrualBlockNumber = _accrualblockNumber;\n    }\n\n    function harnessSetBlockNumber(uint newBlockNumber) public {\n        blockNumber = newBlockNumber;\n    }\n\n    function harnessFastForward(uint blocks) public {\n        blockNumber += blocks;\n    }\n\n    function harnessSetBalance(address account, uint amount) external {\n        accountTokens[account] = amount;\n    }\n\n    function harnessSetTotalSupply(uint totalSupply_) public {\n        totalSupply = totalSupply_;\n    }\n\n    function harnessSetTotalBorrows(uint totalBorrows_) public {\n        totalBorrows = totalBorrows_;\n    }\n\n    function harnessSetTotalReserves(uint totalReserves_) public {\n        totalReserves = totalReserves_;\n    }\n\n    function harnessExchangeRateDetails(uint totalSupply_, uint totalBorrows_, uint totalReserves_) public {\n        totalSupply = totalSupply_;\n        totalBorrows = totalBorrows_;\n        totalReserves = totalReserves_;\n    }\n\n    function harnessSetExchangeRate(uint exchangeRate) public {\n        harnessExchangeRate = exchangeRate;\n        harnessExchangeRateStored = true;\n    }\n\n    function harnessSetFailTransferToAddress(address _to, bool _fail) public {\n        failTransferToAddresses[_to] = _fail;\n    }\n\n    function harnessMintFresh(address account, uint mintAmount) public returns (uint) {\n        (uint err,) = super.mintFresh(account, mintAmount);\n        return err;\n    }\n\n    function harnessRedeemFresh(address payable account, uint cTokenAmount, uint underlyingAmount) public returns (uint) {\n        return super.redeemFresh(account, cTokenAmount, underlyingAmount);\n    }\n\n    function harnessAccountBorrows(address account) public view returns (uint principal, uint interestIndex) {\n        BorrowSnapshot memory snapshot = accountBorrows[account];\n        return (snapshot.principal, snapshot.interestIndex);\n    }\n\n    function harnessSetAccountBorrows(address account, uint principal, uint interestIndex) public {\n        accountBorrows[account] = BorrowSnapshot({principal: principal, interestIndex: interestIndex});\n    }\n\n    function harnessSetBorrowIndex(uint borrowIndex_) public {\n        borrowIndex = borrowIndex_;\n    }\n\n    function harnessBorrowFresh(address payable account, uint borrowAmount) public returns (uint) {\n        return borrowFresh(account, borrowAmount);\n    }\n\n    function harnessRepayBorrowFresh(address payer, address account, uint repayAmount) public returns (uint) {\n        (uint err,) = repayBorrowFresh(payer, account, repayAmount);\n        return err;\n    }\n\n    function harnessLiquidateBorrowFresh(address liquidator, address borrower, uint repayAmount, CToken cTokenCollateral) public returns (uint) {\n        (uint err,) = liquidateBorrowFresh(liquidator, borrower, repayAmount, cTokenCollateral);\n        return err;\n    }\n\n    function harnessReduceReservesFresh(uint amount) public returns (uint) {\n        return _reduceReservesFresh(amount);\n    }\n\n    function harnessSetReserveFactorFresh(uint newReserveFactorMantissa) public returns (uint) {\n        return _setReserveFactorFresh(newReserveFactorMantissa);\n    }\n\n    function harnessSetInterestRateModelFresh(InterestRateModel newInterestRateModel) public returns (uint) {\n        return _setInterestRateModelFresh(newInterestRateModel);\n    }\n\n    function harnessSetInterestRateModel(address newInterestRateModelAddress) public {\n        interestRateModel = InterestRateModel(newInterestRateModelAddress);\n    }\n\n    function harnessCallBorrowAllowed(uint amount) public returns (uint) {\n        return comptroller.borrowAllowed(address(this), msg.sender, amount);\n    }\n}\n\ncontract CErc20Scenario is CErc20Immutable {\n    constructor(address underlying_,\n                ComptrollerInterface comptroller_,\n                InterestRateModel interestRateModel_,\n                uint initialExchangeRateMantissa_,\n                string memory name_,\n                string memory symbol_,\n                uint8 decimals_,\n                address payable admin_)\n    CErc20Immutable(\n    underlying_,\n    comptroller_,\n    interestRateModel_,\n    initialExchangeRateMantissa_,\n    name_,\n    symbol_,\n    decimals_,\n    admin_) public {}\n\n    function setTotalBorrows(uint totalBorrows_) public {\n        totalBorrows = totalBorrows_;\n    }\n\n    function setTotalReserves(uint totalReserves_) public {\n        totalReserves = totalReserves_;\n    }\n\n    function getBlockNumber() internal view returns (uint) {\n        ComptrollerScenario comptrollerScenario = ComptrollerScenario(address(comptroller));\n        return comptrollerScenario.blockNumber();\n    }\n}\n\ncontract CEvil is CErc20Scenario {\n    constructor(address underlying_,\n                ComptrollerInterface comptroller_,\n                InterestRateModel interestRateModel_,\n                uint initialExchangeRateMantissa_,\n                string memory name_,\n                string memory symbol_,\n                uint8 decimals_,\n                address payable admin_)\n    CErc20Scenario(\n    underlying_,\n    comptroller_,\n    interestRateModel_,\n    initialExchangeRateMantissa_,\n    name_,\n    symbol_,\n    decimals_,\n    admin_) public {}\n\n    function evilSeize(CToken treasure, address liquidator, address borrower, uint seizeTokens) public returns (uint) {\n        return treasure.seize(liquidator, borrower, seizeTokens);\n    }\n}\n\ncontract CErc20DelegatorScenario is CErc20Delegator {\n    constructor(address underlying_,\n                ComptrollerInterface comptroller_,\n                InterestRateModel interestRateModel_,\n                uint initialExchangeRateMantissa_,\n                string memory name_,\n                string memory symbol_,\n                uint8 decimals_,\n                address payable admin_,\n                address implementation_,\n                bytes memory becomeImplementationData)\n    CErc20Delegator(\n    underlying_,\n    comptroller_,\n    interestRateModel_,\n    initialExchangeRateMantissa_,\n    name_,\n    symbol_,\n    decimals_,\n    admin_,\n    implementation_,\n    becomeImplementationData) public {}\n\n    function setTotalBorrows(uint totalBorrows_) public {\n        totalBorrows = totalBorrows_;\n    }\n\n    function setTotalReserves(uint totalReserves_) public {\n        totalReserves = totalReserves_;\n    }\n}\n\ncontract CErc20DelegateHarness is CErc20Delegate {\n    event Log(string x, address y);\n    event Log(string x, uint y);\n\n    uint blockNumber = 100000;\n    uint harnessExchangeRate;\n    bool harnessExchangeRateStored;\n\n    mapping (address => bool) public failTransferToAddresses;\n\n    function exchangeRateStoredInternal() internal view returns (MathError, uint) {\n        if (harnessExchangeRateStored) {\n            return (MathError.NO_ERROR, harnessExchangeRate);\n        }\n        return super.exchangeRateStoredInternal();\n    }\n\n    function doTransferOut(address payable to, uint amount) internal {\n        require(failTransferToAddresses[to] == false, \"TOKEN_TRANSFER_OUT_FAILED\");\n        return super.doTransferOut(to, amount);\n    }\n\n    function getBlockNumber() internal view returns (uint) {\n        return blockNumber;\n    }\n\n    function getBorrowRateMaxMantissa() public pure returns (uint) {\n        return borrowRateMaxMantissa;\n    }\n\n    function harnessSetBlockNumber(uint newBlockNumber) public {\n        blockNumber = newBlockNumber;\n    }\n\n    function harnessFastForward(uint blocks) public {\n        blockNumber += blocks;\n    }\n\n    function harnessSetBalance(address account, uint amount) external {\n        accountTokens[account] = amount;\n    }\n\n    function harnessSetAccrualBlockNumber(uint _accrualblockNumber) public {\n        accrualBlockNumber = _accrualblockNumber;\n    }\n\n    function harnessSetTotalSupply(uint totalSupply_) public {\n        totalSupply = totalSupply_;\n    }\n\n    function harnessSetTotalBorrows(uint totalBorrows_) public {\n        totalBorrows = totalBorrows_;\n    }\n\n    function harnessIncrementTotalBorrows(uint addtlBorrow_) public {\n        totalBorrows = totalBorrows + addtlBorrow_;\n    }\n\n    function harnessSetTotalReserves(uint totalReserves_) public {\n        totalReserves = totalReserves_;\n    }\n\n    function harnessExchangeRateDetails(uint totalSupply_, uint totalBorrows_, uint totalReserves_) public {\n        totalSupply = totalSupply_;\n        totalBorrows = totalBorrows_;\n        totalReserves = totalReserves_;\n    }\n\n    function harnessSetExchangeRate(uint exchangeRate) public {\n        harnessExchangeRate = exchangeRate;\n        harnessExchangeRateStored = true;\n    }\n\n    function harnessSetFailTransferToAddress(address _to, bool _fail) public {\n        failTransferToAddresses[_to] = _fail;\n    }\n\n    function harnessMintFresh(address account, uint mintAmount) public returns (uint) {\n        (uint err,) = super.mintFresh(account, mintAmount);\n        return err;\n    }\n\n    function harnessRedeemFresh(address payable account, uint cTokenAmount, uint underlyingAmount) public returns (uint) {\n        return super.redeemFresh(account, cTokenAmount, underlyingAmount);\n    }\n\n    function harnessAccountBorrows(address account) public view returns (uint principal, uint interestIndex) {\n        BorrowSnapshot memory snapshot = accountBorrows[account];\n        return (snapshot.principal, snapshot.interestIndex);\n    }\n\n    function harnessSetAccountBorrows(address account, uint principal, uint interestIndex) public {\n        accountBorrows[account] = BorrowSnapshot({principal: principal, interestIndex: interestIndex});\n    }\n\n    function harnessSetBorrowIndex(uint borrowIndex_) public {\n        borrowIndex = borrowIndex_;\n    }\n\n    function harnessBorrowFresh(address payable account, uint borrowAmount) public returns (uint) {\n        return borrowFresh(account, borrowAmount);\n    }\n\n    function harnessRepayBorrowFresh(address payer, address account, uint repayAmount) public returns (uint) {\n        (uint err,) = repayBorrowFresh(payer, account, repayAmount);\n        return err;\n    }\n\n    function harnessLiquidateBorrowFresh(address liquidator, address borrower, uint repayAmount, CToken cTokenCollateral) public returns (uint) {\n        (uint err,) = liquidateBorrowFresh(liquidator, borrower, repayAmount, cTokenCollateral);\n        return err;\n    }\n\n    function harnessReduceReservesFresh(uint amount) public returns (uint) {\n        return _reduceReservesFresh(amount);\n    }\n\n    function harnessSetReserveFactorFresh(uint newReserveFactorMantissa) public returns (uint) {\n        return _setReserveFactorFresh(newReserveFactorMantissa);\n    }\n\n    function harnessSetInterestRateModelFresh(InterestRateModel newInterestRateModel) public returns (uint) {\n        return _setInterestRateModelFresh(newInterestRateModel);\n    }\n\n    function harnessSetInterestRateModel(address newInterestRateModelAddress) public {\n        interestRateModel = InterestRateModel(newInterestRateModelAddress);\n    }\n\n    function harnessCallBorrowAllowed(uint amount) public returns (uint) {\n        return comptroller.borrowAllowed(address(this), msg.sender, amount);\n    }\n}\n\ncontract CErc20DelegateScenario is CErc20Delegate {\n    constructor() public {}\n\n    function setTotalBorrows(uint totalBorrows_) public {\n        totalBorrows = totalBorrows_;\n    }\n\n    function setTotalReserves(uint totalReserves_) public {\n        totalReserves = totalReserves_;\n    }\n\n    function getBlockNumber() internal view returns (uint) {\n        ComptrollerScenario comptrollerScenario = ComptrollerScenario(address(comptroller));\n        return comptrollerScenario.blockNumber();\n    }\n}\n\ncontract CErc20DelegateScenarioExtra is CErc20DelegateScenario {\n    function iHaveSpoken() public pure returns (string memory) {\n      return \"i have spoken\";\n    }\n\n    function itIsTheWay() public {\n      admin = address(1); // make a change to test effect\n    }\n\n    function babyYoda() public pure {\n      revert(\"protect the baby\");\n    }\n}\n\ncontract CDaiDelegateHarness is CDaiDelegate {\n    uint blockNumber = 100000;\n    uint harnessExchangeRate;\n    bool harnessExchangeRateStored;\n\n    function harnessFastForward(uint blocks) public {\n        blockNumber += blocks;\n    }\n\n    function harnessSetAccrualBlockNumber(uint _accrualblockNumber) public {\n        accrualBlockNumber = _accrualblockNumber;\n    }\n\n    function harnessSetBalance(address account, uint amount) external {\n        accountTokens[account] = amount;\n    }\n\n    function harnessSetBlockNumber(uint newBlockNumber) public {\n        blockNumber = newBlockNumber;\n    }\n\n    function harnessSetExchangeRate(uint exchangeRate) public {\n        harnessExchangeRate = exchangeRate;\n        harnessExchangeRateStored = true;\n    }\n\n    function harnessSetTotalSupply(uint totalSupply_) public {\n        totalSupply = totalSupply_;\n    }\n\n    function getBlockNumber() internal view returns (uint) {\n        return blockNumber;\n    }\n}\n\ncontract CDaiDelegateScenario is CDaiDelegate {\n    function setTotalBorrows(uint totalBorrows_) public {\n        totalBorrows = totalBorrows_;\n    }\n\n    function setTotalReserves(uint totalReserves_) public {\n        totalReserves = totalReserves_;\n    }\n\n    function getBlockNumber() internal view returns (uint) {\n        ComptrollerScenario comptrollerScenario = ComptrollerScenario(address(comptroller));\n        return comptrollerScenario.blockNumber();\n    }\n}\n\ncontract CDaiDelegateMakerHarness is PotLike, VatLike, GemLike, DaiJoinLike {\n    /* Pot */\n\n    // exchangeRate\n    function chi() external view returns (uint) { return 1; }\n\n    // totalSupply\n    function pie(address) external view returns (uint) { return 0; }\n\n    // accrueInterest -> new exchangeRate\n    function drip() external returns (uint) { return 0; }\n\n    // mint\n    function join(uint) external {}\n\n    // redeem\n    function exit(uint) external {}\n\n    /* Vat */\n\n    // internal dai balance\n    function dai(address) external view returns (uint) { return 0; }\n\n    // approve pot transfer\n    function hope(address) external {}\n\n    /* Gem (Dai) */\n\n    uint public totalSupply;\n    mapping (address => mapping (address => uint)) public allowance;\n    mapping (address => uint) public balanceOf;\n    function approve(address, uint) external {}\n    function transferFrom(address src, address dst, uint amount) external returns (bool) {\n        balanceOf[src] -= amount;\n        balanceOf[dst] += amount;\n        return true;\n    }\n\n    function harnessSetBalance(address account, uint amount) external {\n        balanceOf[account] = amount;\n    }\n\n    /* DaiJoin */\n\n    // vat contract\n    function vat() external returns (VatLike) { return this; }\n\n    // dai contract\n    function dai() external returns (GemLike) { return this; }\n\n    // dai -> internal dai\n    function join(address, uint) external payable {}\n\n    // internal dai transfer out\n    function exit(address, uint) external {}\n}\n",
  "sourcePath": "/Users/yanyichun/project/Savings/contracts/compound/test/Contracts/CErc20Harness.sol",
  "compiler": {
    "name": "solc",
    "version": "0.5.14+commit.01f1aaa4.Emscripten.clang"
  },
  "schemaVersion": "3.2.3",
  "updatedAt": "2021-02-25T05:30:06.362Z",
  "devdoc": {
    "methods": {
      "_acceptAdmin()": {
        "details": "Admin function for pending admin to accept role and update admin",
        "return": "uint 0=success, otherwise a failure (see ErrorReporter.sol for details)"
      },
      "_addReserves(uint256)": {
        "params": {
          "addAmount": "The amount fo underlying token to add as reserves"
        },
        "return": "uint 0=success, otherwise a failure (see ErrorReporter.sol for details)"
      },
      "_reduceReserves(uint256)": {
        "params": {
          "reduceAmount": "Amount of reduction to reserves"
        },
        "return": "uint 0=success, otherwise a failure (see ErrorReporter.sol for details)"
      },
      "_setComptroller(address)": {
        "details": "Admin function to set a new comptroller",
        "return": "uint 0=success, otherwise a failure (see ErrorReporter.sol for details)"
      },
      "_setInterestRateModel(address)": {
        "details": "Admin function to accrue interest and update the interest rate model",
        "params": {
          "newInterestRateModel": "the new interest rate model to use"
        },
        "return": "uint 0=success, otherwise a failure (see ErrorReporter.sol for details)"
      },
      "_setPendingAdmin(address)": {
        "details": "Admin function to begin change of admin. The newPendingAdmin must call `_acceptAdmin` to finalize the transfer.",
        "params": {
          "newPendingAdmin": "New pending admin."
        },
        "return": "uint 0=success, otherwise a failure (see ErrorReporter.sol for details)"
      },
      "_setReserveFactor(uint256)": {
        "details": "Admin function to accrue interest and set a new reserve factor",
        "return": "uint 0=success, otherwise a failure (see ErrorReporter.sol for details)"
      },
      "accrueInterest()": {
        "details": "This calculates interest accrued from the last checkpointed block  up to the current block and writes new checkpoint to storage."
      },
      "allowance(address,address)": {
        "params": {
          "owner": "The address of the account which owns the tokens to be spent",
          "spender": "The address of the account which may transfer tokens"
        },
        "return": "The number of tokens allowed to be spent (-1 means infinite)"
      },
      "approve(address,uint256)": {
        "details": "This will overwrite the approval amount for `spender` and is subject to issues noted [here](https://eips.ethereum.org/EIPS/eip-20#approve)",
        "params": {
          "amount": "The number of tokens that are approved (-1 means infinite)",
          "spender": "The address of the account which may transfer tokens"
        },
        "return": "Whether or not the approval succeeded"
      },
      "balanceOf(address)": {
        "params": {
          "owner": "The address of the account to query"
        },
        "return": "The number of tokens owned by `owner`"
      },
      "balanceOfUnderlying(address)": {
        "details": "This also accrues interest in a transaction",
        "params": {
          "owner": "The address of the account to query"
        },
        "return": "The amount of underlying owned by `owner`"
      },
      "borrow(uint256)": {
        "params": {
          "borrowAmount": "The amount of the underlying asset to borrow"
        },
        "return": "uint 0=success, otherwise a failure (see ErrorReporter.sol for details)"
      },
      "borrowBalanceCurrent(address)": {
        "params": {
          "account": "The address whose balance should be calculated after updating borrowIndex"
        },
        "return": "The calculated balance"
      },
      "borrowBalanceStored(address)": {
        "params": {
          "account": "The address whose balance should be calculated"
        },
        "return": "The calculated balance"
      },
      "borrowRatePerBlock()": {
        "return": "The borrow interest rate per block, scaled by 1e18"
      },
      "exchangeRateCurrent()": {
        "return": "Calculated exchange rate scaled by 1e18"
      },
      "exchangeRateStored()": {
        "details": "This function does not accrue interest before calculating the exchange rate",
        "return": "Calculated exchange rate scaled by 1e18"
      },
      "getAccountSnapshot(address)": {
        "details": "This is used by comptroller to more efficiently perform liquidity checks.",
        "params": {
          "account": "Address of the account to snapshot"
        },
        "return": "(possible error, token balance, borrow balance, exchange rate mantissa)"
      },
      "getCash()": {
        "return": "The quantity of underlying asset owned by this contract"
      },
      "initialize(address,address,address,uint256,string,string,uint8)": {
        "params": {
          "comptroller_": "The address of the Comptroller",
          "decimals_": "ERC-20 decimal precision of this token",
          "initialExchangeRateMantissa_": "The initial exchange rate, scaled by 1e18",
          "interestRateModel_": "The address of the interest rate model",
          "name_": "ERC-20 name of this token",
          "symbol_": "ERC-20 symbol of this token",
          "underlying_": "The address of the underlying asset"
        }
      },
      "initialize(address,address,uint256,string,string,uint8)": {
        "params": {
          "comptroller_": "The address of the Comptroller",
          "decimals_": "EIP-20 decimal precision of this token",
          "initialExchangeRateMantissa_": "The initial exchange rate, scaled by 1e18",
          "interestRateModel_": "The address of the interest rate model",
          "name_": "EIP-20 name of this token",
          "symbol_": "EIP-20 symbol of this token"
        }
      },
      "liquidateBorrow(address,uint256,address)": {
        "params": {
          "borrower": "The borrower of this cToken to be liquidated",
          "cTokenCollateral": "The market in which to seize collateral from the borrower",
          "repayAmount": "The amount of the underlying borrowed asset to repay"
        },
        "return": "uint 0=success, otherwise a failure (see ErrorReporter.sol for details)"
      },
      "mint(uint256)": {
        "details": "Accrues interest whether or not the operation succeeds, unless reverted",
        "params": {
          "mintAmount": "The amount of the underlying asset to supply"
        },
        "return": "uint 0=success, otherwise a failure (see ErrorReporter.sol for details)"
      },
      "redeem(uint256)": {
        "details": "Accrues interest whether or not the operation succeeds, unless reverted",
        "params": {
          "redeemTokens": "The number of cTokens to redeem into underlying"
        },
        "return": "uint 0=success, otherwise a failure (see ErrorReporter.sol for details)"
      },
      "redeemUnderlying(uint256)": {
        "details": "Accrues interest whether or not the operation succeeds, unless reverted",
        "params": {
          "redeemAmount": "The amount of underlying to redeem"
        },
        "return": "uint 0=success, otherwise a failure (see ErrorReporter.sol for details)"
      },
      "repayBorrow(uint256)": {
        "params": {
          "repayAmount": "The amount to repay"
        },
        "return": "uint 0=success, otherwise a failure (see ErrorReporter.sol for details)"
      },
      "repayBorrowBehalf(address,uint256)": {
        "params": {
          "borrower": "the account with the debt being payed off",
          "repayAmount": "The amount to repay"
        },
        "return": "uint 0=success, otherwise a failure (see ErrorReporter.sol for details)"
      },
      "seize(address,address,uint256)": {
        "details": "Will fail unless called by another cToken during the process of liquidation. Its absolutely critical to use msg.sender as the borrowed cToken and not a parameter.",
        "params": {
          "borrower": "The account having collateral seized",
          "liquidator": "The account receiving seized collateral",
          "seizeTokens": "The number of cTokens to seize"
        },
        "return": "uint 0=success, otherwise a failure (see ErrorReporter.sol for details)"
      },
      "supplyRatePerBlock()": {
        "return": "The supply interest rate per block, scaled by 1e18"
      },
      "totalBorrowsCurrent()": {
        "return": "The total borrows with interest"
      },
      "transfer(address,uint256)": {
        "params": {
          "amount": "The number of tokens to transfer",
          "dst": "The address of the destination account"
        },
        "return": "Whether or not the transfer succeeded"
      },
      "transferFrom(address,address,uint256)": {
        "params": {
          "amount": "The number of tokens to transfer",
          "dst": "The address of the destination account",
          "src": "The address of the source account"
        },
        "return": "Whether or not the transfer succeeded"
      }
    }
  },
  "userdoc": {
    "methods": {
      "_acceptAdmin()": {
        "notice": "Accepts transfer of admin rights. msg.sender must be pendingAdmin"
      },
      "_addReserves(uint256)": {
        "notice": "The sender adds to reserves."
      },
      "_reduceReserves(uint256)": {
        "notice": "Accrues interest and reduces reserves by transferring to admin"
      },
      "_setComptroller(address)": {
        "notice": "Sets a new comptroller for the market"
      },
      "_setInterestRateModel(address)": {
        "notice": "accrues interest and updates the interest rate model using _setInterestRateModelFresh"
      },
      "_setPendingAdmin(address)": {
        "notice": "Begins transfer of admin rights. The newPendingAdmin must call `_acceptAdmin` to finalize the transfer."
      },
      "_setReserveFactor(uint256)": {
        "notice": "accrues interest and sets a new reserve factor for the protocol using _setReserveFactorFresh"
      },
      "accrueInterest()": {
        "notice": "Applies accrued interest to total borrows and reserves"
      },
      "allowance(address,address)": {
        "notice": "Get the current allowance from `owner` for `spender`"
      },
      "approve(address,uint256)": {
        "notice": "Approve `spender` to transfer up to `amount` from `src`"
      },
      "balanceOf(address)": {
        "notice": "Get the token balance of the `owner`"
      },
      "balanceOfUnderlying(address)": {
        "notice": "Get the underlying balance of the `owner`"
      },
      "borrow(uint256)": {
        "notice": "Sender borrows assets from the protocol to their own address"
      },
      "borrowBalanceCurrent(address)": {
        "notice": "Accrue interest to updated borrowIndex and then calculate account's borrow balance using the updated borrowIndex"
      },
      "borrowBalanceStored(address)": {
        "notice": "Return the borrow balance of account based on stored data"
      },
      "borrowRatePerBlock()": {
        "notice": "Returns the current per-block borrow interest rate for this cToken"
      },
      "exchangeRateCurrent()": {
        "notice": "Accrue interest then return the up-to-date exchange rate"
      },
      "exchangeRateStored()": {
        "notice": "Calculates the exchange rate from the underlying to the CToken"
      },
      "getAccountSnapshot(address)": {
        "notice": "Get a snapshot of the account's balances, and the cached exchange rate"
      },
      "getCash()": {
        "notice": "Get cash balance of this cToken in the underlying asset"
      },
      "initialize(address,address,address,uint256,string,string,uint8)": {
        "notice": "Initialize the new money market"
      },
      "initialize(address,address,uint256,string,string,uint8)": {
        "notice": "Initialize the money market"
      },
      "liquidateBorrow(address,uint256,address)": {
        "notice": "The sender liquidates the borrowers collateral. The collateral seized is transferred to the liquidator."
      },
      "mint(uint256)": {
        "notice": "Sender supplies assets into the market and receives cTokens in exchange"
      },
      "redeem(uint256)": {
        "notice": "Sender redeems cTokens in exchange for the underlying asset"
      },
      "redeemUnderlying(uint256)": {
        "notice": "Sender redeems cTokens in exchange for a specified amount of underlying asset"
      },
      "repayBorrow(uint256)": {
        "notice": "Sender repays their own borrow"
      },
      "repayBorrowBehalf(address,uint256)": {
        "notice": "Sender repays a borrow belonging to borrower"
      },
      "seize(address,address,uint256)": {
        "notice": "Transfers collateral tokens (this market) to the liquidator."
      },
      "supplyRatePerBlock()": {
        "notice": "Returns the current per-block supply interest rate for this cToken"
      },
      "totalBorrowsCurrent()": {
        "notice": "Returns the current total borrows plus accrued interest"
      },
      "transfer(address,uint256)": {
        "notice": "Transfer `amount` tokens from `msg.sender` to `dst`"
      },
      "transferFrom(address,address,uint256)": {
        "notice": "Transfer `amount` tokens from `src` to `dst`"
      }
    }
  }
}