{
  "contractName": "ChainLinkAggregator",
  "abi": [
    {
      "inputs": [
        {
          "internalType": "contract TokenRegistry",
          "name": "_tokenRegistry",
          "type": "address"
        }
      ],
      "payable": false,
      "stateMutability": "nonpayable",
      "type": "constructor"
    },
    {
      "constant": true,
      "inputs": [],
      "name": "tokenRegistry",
      "outputs": [
        {
          "internalType": "contract TokenRegistry",
          "name": "",
          "type": "address"
        }
      ],
      "payable": false,
      "stateMutability": "view",
      "type": "function"
    },
    {
      "constant": true,
      "inputs": [
        {
          "internalType": "address",
          "name": "_token",
          "type": "address"
        }
      ],
      "name": "getLatestAnswer",
      "outputs": [
        {
          "internalType": "int256",
          "name": "",
          "type": "int256"
        }
      ],
      "payable": false,
      "stateMutability": "view",
      "type": "function"
    },
    {
      "constant": true,
      "inputs": [
        {
          "internalType": "address",
          "name": "_token",
          "type": "address"
        }
      ],
      "name": "getLatestTimestamp",
      "outputs": [
        {
          "internalType": "uint256",
          "name": "",
          "type": "uint256"
        }
      ],
      "payable": false,
      "stateMutability": "view",
      "type": "function"
    },
    {
      "constant": true,
      "inputs": [
        {
          "internalType": "address",
          "name": "_token",
          "type": "address"
        },
        {
          "internalType": "uint256",
          "name": "_back",
          "type": "uint256"
        }
      ],
      "name": "getPreviousAnswer",
      "outputs": [
        {
          "internalType": "int256",
          "name": "",
          "type": "int256"
        }
      ],
      "payable": false,
      "stateMutability": "view",
      "type": "function"
    },
    {
      "constant": true,
      "inputs": [
        {
          "internalType": "address",
          "name": "_token",
          "type": "address"
        },
        {
          "internalType": "uint256",
          "name": "_back",
          "type": "uint256"
        }
      ],
      "name": "getPreviousTimestamp",
      "outputs": [
        {
          "internalType": "uint256",
          "name": "",
          "type": "uint256"
        }
      ],
      "payable": false,
      "stateMutability": "view",
      "type": "function"
    }
  ],
  "bytecode": "0x608060405234801561001057600080fd5b5060405161059d38038061059d8339818101604052602081101561003357600080fd5b50516001600160a01b0381166100aa57604080517f08c379a000000000000000000000000000000000000000000000000000000000815260206004820152601d60248201527f546f6b656e52656769737472792061646472657373206973207a65726f000000604482015290519081900360640190fd5b600080546001600160a01b039092166001600160a01b03199092169190911790556104c3806100da6000396000f3fe608060405234801561001057600080fd5b50600436106100575760003560e01c806341a6990f1461005c5780636849a3ba146100945780639d23c4c7146100ba578063bb9d9ef5146100de578063d84f885a1461010a575b600080fd5b6100826004803603602081101561007257600080fd5b50356001600160a01b0316610136565b60408051918252519081900360200190f35b610082600480360360208110156100aa57600080fd5b50356001600160a01b03166101ab565b6100c26101ee565b604080516001600160a01b039092168252519081900360200190f35b610082600480360360408110156100f457600080fd5b506001600160a01b0381351690602001356101fd565b6100826004803603604081101561012057600080fd5b506001600160a01b038135169060200135610339565b600061014182610440565b6001600160a01b0316638205bf6a6040518163ffffffff1660e01b815260040160206040518083038186803b15801561017957600080fd5b505afa15801561018d573d6000803e3d6000fd5b505050506040513d60208110156101a357600080fd5b505192915050565b60006101b682610440565b6001600160a01b03166350d25bcd6040518163ffffffff1660e01b815260040160206040518083038186803b15801561017957600080fd5b6000546001600160a01b031681565b60008061020984610440565b90506000816001600160a01b031663668a0f026040518163ffffffff1660e01b815260040160206040518083038186803b15801561024657600080fd5b505afa15801561025a573d6000803e3d6000fd5b505050506040513d602081101561027057600080fd5b50519050808411156102be576040805162461bcd60e51b81526020600482015260126024820152714e6f7420656e6f75676820686973746f727960701b604482015290519081900360640190fd5b816001600160a01b031663b5ab58dc8583036040518263ffffffff1660e01b81526004018082815260200191505060206040518083038186803b15801561030457600080fd5b505afa158015610318573d6000803e3d6000fd5b505050506040513d602081101561032e57600080fd5b505195945050505050565b60008061034584610440565b90506000816001600160a01b031663668a0f026040518163ffffffff1660e01b815260040160206040518083038186803b15801561038257600080fd5b505afa158015610396573d6000803e3d6000fd5b505050506040513d60208110156103ac57600080fd5b50519050808411156103fa576040805162461bcd60e51b81526020600482015260126024820152714e6f7420656e6f75676820686973746f727960701b604482015290519081900360640190fd5b816001600160a01b031663b633620c8583036040518263ffffffff1660e01b81526004018082815260200191505060206040518083038186803b15801561030457600080fd5b6000805460408051633991394d60e21b81526001600160a01b0385811660048301529151919092169163e644e534916024808301926020929190829003018186803b15801561017957600080fdfea265627a7a723158200289e219135af4a36c2ace5b86c5b3d9ebe90c6af299876582c638d1f23d787864736f6c634300050e0032",
  "source": "pragma solidity 0.5.14;\n\nimport \"@chainlink/contracts/src/v0.5/dev/AggregatorInterface.sol\";\nimport \"../registry/TokenRegistry.sol\";\n\n/**\n */\ncontract ChainLinkAggregator {\n\n    TokenRegistry public tokenRegistry;\n\n    /**\n     * Constructor\n     */\n    constructor(TokenRegistry _tokenRegistry) public {\n        require(address(_tokenRegistry) != address(0), \"TokenRegistry address is zero\");\n        tokenRegistry = _tokenRegistry;\n    }\n\n    /**\n     * Get latest update from the aggregator\n     * @param _token token address\n     */\n    function getLatestAnswer(address _token) public view returns (int256) {\n        return getAggregator(_token).latestAnswer();\n    }\n\n    /**\n     * Get the timestamp of the latest update\n     * @param _token token address\n     */\n    function getLatestTimestamp(address _token) public view returns (uint256) {\n        return getAggregator(_token).latestTimestamp();\n    }\n\n    /**\n     * Get the previous update\n     * @param _token token address\n     * @param _back the position of the answer if counting back from the latest\n     */\n    function getPreviousAnswer(address _token, uint256 _back) public view returns (int256) {\n        AggregatorInterface aggregator = getAggregator(_token);\n        uint256 latest = aggregator.latestRound();\n        require(_back <= latest, \"Not enough history\");\n        return aggregator.getAnswer(latest - _back);\n    }\n\n    /**\n     * Get the timestamp of the previous update\n     * @param _token token address\n     * @param _back the position of the answer if counting back from the latest\n     */\n    function getPreviousTimestamp(address _token, uint256 _back) public view returns (uint256) {\n        AggregatorInterface aggregator = getAggregator(_token);\n        uint256 latest = aggregator.latestRound();\n        require(_back <= latest, \"Not enough history\");\n        return aggregator.getTimestamp(latest - _back);\n    }\n\n    /**\n     * Get the aggregator address\n     * @param _token token address\n     */\n    function getAggregator(address _token) internal view returns (AggregatorInterface) {\n        return AggregatorInterface(tokenRegistry.getChainLinkAggregator(_token));\n    }\n}\n",
  "sourcePath": "/home/ntlabs/Workspace/src/github.com/DeFinerOrg/Savings/contracts/oracle/ChainLinkAggregator.sol",
  "compiler": {
    "name": "solc",
    "version": "0.5.14+commit.01f1aaa4.Emscripten.clang"
  },
  "schemaVersion": "3.2.4",
  "updatedAt": "2020-09-08T07:08:14.519Z",
  "networkType": "ethereum",
  "devdoc": {
    "methods": {
      "getLatestAnswer(address)": {
        "params": {
          "_token": "token address"
        }
      },
      "getLatestTimestamp(address)": {
        "params": {
          "_token": "token address"
        }
      },
      "getPreviousAnswer(address,uint256)": {
        "params": {
          "_back": "the position of the answer if counting back from the latest",
          "_token": "token address"
        }
      },
      "getPreviousTimestamp(address,uint256)": {
        "params": {
          "_back": "the position of the answer if counting back from the latest",
          "_token": "token address"
        }
      }
    }
  },
  "userdoc": {
    "methods": {
      "constructor": "Constructor",
      "getLatestAnswer(address)": {
        "notice": "Get latest update from the aggregator"
      },
      "getLatestTimestamp(address)": {
        "notice": "Get the timestamp of the latest update"
      },
      "getPreviousAnswer(address,uint256)": {
        "notice": "Get the previous update"
      },
      "getPreviousTimestamp(address,uint256)": {
        "notice": "Get the timestamp of the previous update"
      }
    }
  }
}