{
  "contractName": "ComptrollerScenarioG1",
  "abi": [
    {
      "inputs": [],
      "payable": false,
      "stateMutability": "nonpayable",
      "type": "constructor"
    },
    {
      "anonymous": false,
      "inputs": [
        {
          "indexed": false,
          "internalType": "uint256",
          "name": "error",
          "type": "uint256"
        },
        {
          "indexed": false,
          "internalType": "uint256",
          "name": "info",
          "type": "uint256"
        },
        {
          "indexed": false,
          "internalType": "uint256",
          "name": "detail",
          "type": "uint256"
        }
      ],
      "name": "Failure",
      "type": "event"
    },
    {
      "anonymous": false,
      "inputs": [
        {
          "indexed": false,
          "internalType": "contract CToken",
          "name": "cToken",
          "type": "address"
        },
        {
          "indexed": false,
          "internalType": "address",
          "name": "account",
          "type": "address"
        }
      ],
      "name": "MarketEntered",
      "type": "event"
    },
    {
      "anonymous": false,
      "inputs": [
        {
          "indexed": false,
          "internalType": "contract CToken",
          "name": "cToken",
          "type": "address"
        },
        {
          "indexed": false,
          "internalType": "address",
          "name": "account",
          "type": "address"
        }
      ],
      "name": "MarketExited",
      "type": "event"
    },
    {
      "anonymous": false,
      "inputs": [
        {
          "indexed": false,
          "internalType": "contract CToken",
          "name": "cToken",
          "type": "address"
        }
      ],
      "name": "MarketListed",
      "type": "event"
    },
    {
      "anonymous": false,
      "inputs": [
        {
          "indexed": false,
          "internalType": "uint256",
          "name": "oldCloseFactorMantissa",
          "type": "uint256"
        },
        {
          "indexed": false,
          "internalType": "uint256",
          "name": "newCloseFactorMantissa",
          "type": "uint256"
        }
      ],
      "name": "NewCloseFactor",
      "type": "event"
    },
    {
      "anonymous": false,
      "inputs": [
        {
          "indexed": false,
          "internalType": "contract CToken",
          "name": "cToken",
          "type": "address"
        },
        {
          "indexed": false,
          "internalType": "uint256",
          "name": "oldCollateralFactorMantissa",
          "type": "uint256"
        },
        {
          "indexed": false,
          "internalType": "uint256",
          "name": "newCollateralFactorMantissa",
          "type": "uint256"
        }
      ],
      "name": "NewCollateralFactor",
      "type": "event"
    },
    {
      "anonymous": false,
      "inputs": [
        {
          "indexed": false,
          "internalType": "uint256",
          "name": "oldLiquidationIncentiveMantissa",
          "type": "uint256"
        },
        {
          "indexed": false,
          "internalType": "uint256",
          "name": "newLiquidationIncentiveMantissa",
          "type": "uint256"
        }
      ],
      "name": "NewLiquidationIncentive",
      "type": "event"
    },
    {
      "anonymous": false,
      "inputs": [
        {
          "indexed": false,
          "internalType": "uint256",
          "name": "oldMaxAssets",
          "type": "uint256"
        },
        {
          "indexed": false,
          "internalType": "uint256",
          "name": "newMaxAssets",
          "type": "uint256"
        }
      ],
      "name": "NewMaxAssets",
      "type": "event"
    },
    {
      "anonymous": false,
      "inputs": [
        {
          "indexed": false,
          "internalType": "contract PriceOracle",
          "name": "oldPriceOracle",
          "type": "address"
        },
        {
          "indexed": false,
          "internalType": "contract PriceOracle",
          "name": "newPriceOracle",
          "type": "address"
        }
      ],
      "name": "NewPriceOracle",
      "type": "event"
    },
    {
      "constant": false,
      "inputs": [
        {
          "internalType": "uint256",
          "name": "newCloseFactorMantissa",
          "type": "uint256"
        }
      ],
      "name": "_setCloseFactor",
      "outputs": [
        {
          "internalType": "uint256",
          "name": "",
          "type": "uint256"
        }
      ],
      "payable": false,
      "stateMutability": "nonpayable",
      "type": "function"
    },
    {
      "constant": false,
      "inputs": [
        {
          "internalType": "contract CToken",
          "name": "cToken",
          "type": "address"
        },
        {
          "internalType": "uint256",
          "name": "newCollateralFactorMantissa",
          "type": "uint256"
        }
      ],
      "name": "_setCollateralFactor",
      "outputs": [
        {
          "internalType": "uint256",
          "name": "",
          "type": "uint256"
        }
      ],
      "payable": false,
      "stateMutability": "nonpayable",
      "type": "function"
    },
    {
      "constant": false,
      "inputs": [
        {
          "internalType": "uint256",
          "name": "newLiquidationIncentiveMantissa",
          "type": "uint256"
        }
      ],
      "name": "_setLiquidationIncentive",
      "outputs": [
        {
          "internalType": "uint256",
          "name": "",
          "type": "uint256"
        }
      ],
      "payable": false,
      "stateMutability": "nonpayable",
      "type": "function"
    },
    {
      "constant": false,
      "inputs": [
        {
          "internalType": "uint256",
          "name": "newMaxAssets",
          "type": "uint256"
        }
      ],
      "name": "_setMaxAssets",
      "outputs": [
        {
          "internalType": "uint256",
          "name": "",
          "type": "uint256"
        }
      ],
      "payable": false,
      "stateMutability": "nonpayable",
      "type": "function"
    },
    {
      "constant": false,
      "inputs": [
        {
          "internalType": "contract PriceOracle",
          "name": "newOracle",
          "type": "address"
        }
      ],
      "name": "_setPriceOracle",
      "outputs": [
        {
          "internalType": "uint256",
          "name": "",
          "type": "uint256"
        }
      ],
      "payable": false,
      "stateMutability": "nonpayable",
      "type": "function"
    },
    {
      "constant": false,
      "inputs": [
        {
          "internalType": "contract CToken",
          "name": "cToken",
          "type": "address"
        }
      ],
      "name": "_supportMarket",
      "outputs": [
        {
          "internalType": "uint256",
          "name": "",
          "type": "uint256"
        }
      ],
      "payable": false,
      "stateMutability": "nonpayable",
      "type": "function"
    },
    {
      "constant": true,
      "inputs": [
        {
          "internalType": "address",
          "name": "",
          "type": "address"
        },
        {
          "internalType": "uint256",
          "name": "",
          "type": "uint256"
        }
      ],
      "name": "accountAssets",
      "outputs": [
        {
          "internalType": "contract CToken",
          "name": "",
          "type": "address"
        }
      ],
      "payable": false,
      "stateMutability": "view",
      "type": "function"
    },
    {
      "constant": true,
      "inputs": [],
      "name": "admin",
      "outputs": [
        {
          "internalType": "address",
          "name": "",
          "type": "address"
        }
      ],
      "payable": false,
      "stateMutability": "view",
      "type": "function"
    },
    {
      "constant": true,
      "inputs": [],
      "name": "blockNumber",
      "outputs": [
        {
          "internalType": "uint256",
          "name": "",
          "type": "uint256"
        }
      ],
      "payable": false,
      "stateMutability": "view",
      "type": "function"
    },
    {
      "constant": false,
      "inputs": [
        {
          "internalType": "address",
          "name": "cToken",
          "type": "address"
        },
        {
          "internalType": "address",
          "name": "borrower",
          "type": "address"
        },
        {
          "internalType": "uint256",
          "name": "borrowAmount",
          "type": "uint256"
        }
      ],
      "name": "borrowAllowed",
      "outputs": [
        {
          "internalType": "uint256",
          "name": "",
          "type": "uint256"
        }
      ],
      "payable": false,
      "stateMutability": "nonpayable",
      "type": "function"
    },
    {
      "constant": false,
      "inputs": [
        {
          "internalType": "address",
          "name": "cToken",
          "type": "address"
        },
        {
          "internalType": "address",
          "name": "borrower",
          "type": "address"
        },
        {
          "internalType": "uint256",
          "name": "borrowAmount",
          "type": "uint256"
        }
      ],
      "name": "borrowVerify",
      "outputs": [],
      "payable": false,
      "stateMutability": "nonpayable",
      "type": "function"
    },
    {
      "constant": true,
      "inputs": [
        {
          "internalType": "address",
          "name": "account",
          "type": "address"
        },
        {
          "internalType": "contract CToken",
          "name": "cToken",
          "type": "address"
        }
      ],
      "name": "checkMembership",
      "outputs": [
        {
          "internalType": "bool",
          "name": "",
          "type": "bool"
        }
      ],
      "payable": false,
      "stateMutability": "view",
      "type": "function"
    },
    {
      "constant": true,
      "inputs": [],
      "name": "closeFactorMantissa",
      "outputs": [
        {
          "internalType": "uint256",
          "name": "",
          "type": "uint256"
        }
      ],
      "payable": false,
      "stateMutability": "view",
      "type": "function"
    },
    {
      "constant": true,
      "inputs": [],
      "name": "comptrollerImplementation",
      "outputs": [
        {
          "internalType": "address",
          "name": "",
          "type": "address"
        }
      ],
      "payable": false,
      "stateMutability": "view",
      "type": "function"
    },
    {
      "constant": false,
      "inputs": [
        {
          "internalType": "address[]",
          "name": "cTokens",
          "type": "address[]"
        }
      ],
      "name": "enterMarkets",
      "outputs": [
        {
          "internalType": "uint256[]",
          "name": "",
          "type": "uint256[]"
        }
      ],
      "payable": false,
      "stateMutability": "nonpayable",
      "type": "function"
    },
    {
      "constant": false,
      "inputs": [
        {
          "internalType": "address",
          "name": "cTokenAddress",
          "type": "address"
        }
      ],
      "name": "exitMarket",
      "outputs": [
        {
          "internalType": "uint256",
          "name": "",
          "type": "uint256"
        }
      ],
      "payable": false,
      "stateMutability": "nonpayable",
      "type": "function"
    },
    {
      "constant": true,
      "inputs": [
        {
          "internalType": "address",
          "name": "account",
          "type": "address"
        }
      ],
      "name": "getAccountLiquidity",
      "outputs": [
        {
          "internalType": "uint256",
          "name": "",
          "type": "uint256"
        },
        {
          "internalType": "uint256",
          "name": "",
          "type": "uint256"
        },
        {
          "internalType": "uint256",
          "name": "",
          "type": "uint256"
        }
      ],
      "payable": false,
      "stateMutability": "view",
      "type": "function"
    },
    {
      "constant": true,
      "inputs": [
        {
          "internalType": "address",
          "name": "account",
          "type": "address"
        }
      ],
      "name": "getAssetsIn",
      "outputs": [
        {
          "internalType": "contract CToken[]",
          "name": "",
          "type": "address[]"
        }
      ],
      "payable": false,
      "stateMutability": "view",
      "type": "function"
    },
    {
      "constant": true,
      "inputs": [],
      "name": "isComptroller",
      "outputs": [
        {
          "internalType": "bool",
          "name": "",
          "type": "bool"
        }
      ],
      "payable": false,
      "stateMutability": "view",
      "type": "function"
    },
    {
      "constant": false,
      "inputs": [
        {
          "internalType": "address",
          "name": "cTokenBorrowed",
          "type": "address"
        },
        {
          "internalType": "address",
          "name": "cTokenCollateral",
          "type": "address"
        },
        {
          "internalType": "address",
          "name": "liquidator",
          "type": "address"
        },
        {
          "internalType": "address",
          "name": "borrower",
          "type": "address"
        },
        {
          "internalType": "uint256",
          "name": "repayAmount",
          "type": "uint256"
        }
      ],
      "name": "liquidateBorrowAllowed",
      "outputs": [
        {
          "internalType": "uint256",
          "name": "",
          "type": "uint256"
        }
      ],
      "payable": false,
      "stateMutability": "nonpayable",
      "type": "function"
    },
    {
      "constant": false,
      "inputs": [
        {
          "internalType": "address",
          "name": "cTokenBorrowed",
          "type": "address"
        },
        {
          "internalType": "address",
          "name": "cTokenCollateral",
          "type": "address"
        },
        {
          "internalType": "address",
          "name": "liquidator",
          "type": "address"
        },
        {
          "internalType": "address",
          "name": "borrower",
          "type": "address"
        },
        {
          "internalType": "uint256",
          "name": "repayAmount",
          "type": "uint256"
        },
        {
          "internalType": "uint256",
          "name": "seizeTokens",
          "type": "uint256"
        }
      ],
      "name": "liquidateBorrowVerify",
      "outputs": [],
      "payable": false,
      "stateMutability": "nonpayable",
      "type": "function"
    },
    {
      "constant": true,
      "inputs": [
        {
          "internalType": "address",
          "name": "cTokenBorrowed",
          "type": "address"
        },
        {
          "internalType": "address",
          "name": "cTokenCollateral",
          "type": "address"
        },
        {
          "internalType": "uint256",
          "name": "repayAmount",
          "type": "uint256"
        }
      ],
      "name": "liquidateCalculateSeizeTokens",
      "outputs": [
        {
          "internalType": "uint256",
          "name": "",
          "type": "uint256"
        },
        {
          "internalType": "uint256",
          "name": "",
          "type": "uint256"
        }
      ],
      "payable": false,
      "stateMutability": "view",
      "type": "function"
    },
    {
      "constant": true,
      "inputs": [],
      "name": "liquidationIncentiveMantissa",
      "outputs": [
        {
          "internalType": "uint256",
          "name": "",
          "type": "uint256"
        }
      ],
      "payable": false,
      "stateMutability": "view",
      "type": "function"
    },
    {
      "constant": true,
      "inputs": [
        {
          "internalType": "address",
          "name": "",
          "type": "address"
        }
      ],
      "name": "markets",
      "outputs": [
        {
          "internalType": "bool",
          "name": "isListed",
          "type": "bool"
        },
        {
          "internalType": "uint256",
          "name": "collateralFactorMantissa",
          "type": "uint256"
        }
      ],
      "payable": false,
      "stateMutability": "view",
      "type": "function"
    },
    {
      "constant": true,
      "inputs": [],
      "name": "maxAssets",
      "outputs": [
        {
          "internalType": "uint256",
          "name": "",
          "type": "uint256"
        }
      ],
      "payable": false,
      "stateMutability": "view",
      "type": "function"
    },
    {
      "constant": false,
      "inputs": [
        {
          "internalType": "address",
          "name": "cToken",
          "type": "address"
        },
        {
          "internalType": "address",
          "name": "minter",
          "type": "address"
        },
        {
          "internalType": "uint256",
          "name": "mintAmount",
          "type": "uint256"
        }
      ],
      "name": "mintAllowed",
      "outputs": [
        {
          "internalType": "uint256",
          "name": "",
          "type": "uint256"
        }
      ],
      "payable": false,
      "stateMutability": "nonpayable",
      "type": "function"
    },
    {
      "constant": false,
      "inputs": [
        {
          "internalType": "address",
          "name": "cToken",
          "type": "address"
        },
        {
          "internalType": "address",
          "name": "minter",
          "type": "address"
        },
        {
          "internalType": "uint256",
          "name": "mintAmount",
          "type": "uint256"
        },
        {
          "internalType": "uint256",
          "name": "mintTokens",
          "type": "uint256"
        }
      ],
      "name": "mintVerify",
      "outputs": [],
      "payable": false,
      "stateMutability": "nonpayable",
      "type": "function"
    },
    {
      "constant": true,
      "inputs": [],
      "name": "oracle",
      "outputs": [
        {
          "internalType": "contract PriceOracle",
          "name": "",
          "type": "address"
        }
      ],
      "payable": false,
      "stateMutability": "view",
      "type": "function"
    },
    {
      "constant": true,
      "inputs": [],
      "name": "pendingAdmin",
      "outputs": [
        {
          "internalType": "address",
          "name": "",
          "type": "address"
        }
      ],
      "payable": false,
      "stateMutability": "view",
      "type": "function"
    },
    {
      "constant": true,
      "inputs": [],
      "name": "pendingComptrollerImplementation",
      "outputs": [
        {
          "internalType": "address",
          "name": "",
          "type": "address"
        }
      ],
      "payable": false,
      "stateMutability": "view",
      "type": "function"
    },
    {
      "constant": false,
      "inputs": [
        {
          "internalType": "address",
          "name": "cToken",
          "type": "address"
        },
        {
          "internalType": "address",
          "name": "redeemer",
          "type": "address"
        },
        {
          "internalType": "uint256",
          "name": "redeemTokens",
          "type": "uint256"
        }
      ],
      "name": "redeemAllowed",
      "outputs": [
        {
          "internalType": "uint256",
          "name": "",
          "type": "uint256"
        }
      ],
      "payable": false,
      "stateMutability": "nonpayable",
      "type": "function"
    },
    {
      "constant": false,
      "inputs": [
        {
          "internalType": "address",
          "name": "cToken",
          "type": "address"
        },
        {
          "internalType": "address",
          "name": "redeemer",
          "type": "address"
        },
        {
          "internalType": "uint256",
          "name": "redeemAmount",
          "type": "uint256"
        },
        {
          "internalType": "uint256",
          "name": "redeemTokens",
          "type": "uint256"
        }
      ],
      "name": "redeemVerify",
      "outputs": [],
      "payable": false,
      "stateMutability": "nonpayable",
      "type": "function"
    },
    {
      "constant": false,
      "inputs": [
        {
          "internalType": "address",
          "name": "cToken",
          "type": "address"
        },
        {
          "internalType": "address",
          "name": "payer",
          "type": "address"
        },
        {
          "internalType": "address",
          "name": "borrower",
          "type": "address"
        },
        {
          "internalType": "uint256",
          "name": "repayAmount",
          "type": "uint256"
        }
      ],
      "name": "repayBorrowAllowed",
      "outputs": [
        {
          "internalType": "uint256",
          "name": "",
          "type": "uint256"
        }
      ],
      "payable": false,
      "stateMutability": "nonpayable",
      "type": "function"
    },
    {
      "constant": false,
      "inputs": [
        {
          "internalType": "address",
          "name": "cToken",
          "type": "address"
        },
        {
          "internalType": "address",
          "name": "payer",
          "type": "address"
        },
        {
          "internalType": "address",
          "name": "borrower",
          "type": "address"
        },
        {
          "internalType": "uint256",
          "name": "repayAmount",
          "type": "uint256"
        },
        {
          "internalType": "uint256",
          "name": "borrowerIndex",
          "type": "uint256"
        }
      ],
      "name": "repayBorrowVerify",
      "outputs": [],
      "payable": false,
      "stateMutability": "nonpayable",
      "type": "function"
    },
    {
      "constant": false,
      "inputs": [
        {
          "internalType": "address",
          "name": "cTokenCollateral",
          "type": "address"
        },
        {
          "internalType": "address",
          "name": "cTokenBorrowed",
          "type": "address"
        },
        {
          "internalType": "address",
          "name": "liquidator",
          "type": "address"
        },
        {
          "internalType": "address",
          "name": "borrower",
          "type": "address"
        },
        {
          "internalType": "uint256",
          "name": "seizeTokens",
          "type": "uint256"
        }
      ],
      "name": "seizeAllowed",
      "outputs": [
        {
          "internalType": "uint256",
          "name": "",
          "type": "uint256"
        }
      ],
      "payable": false,
      "stateMutability": "nonpayable",
      "type": "function"
    },
    {
      "constant": false,
      "inputs": [
        {
          "internalType": "address",
          "name": "cTokenCollateral",
          "type": "address"
        },
        {
          "internalType": "address",
          "name": "cTokenBorrowed",
          "type": "address"
        },
        {
          "internalType": "address",
          "name": "liquidator",
          "type": "address"
        },
        {
          "internalType": "address",
          "name": "borrower",
          "type": "address"
        },
        {
          "internalType": "uint256",
          "name": "seizeTokens",
          "type": "uint256"
        }
      ],
      "name": "seizeVerify",
      "outputs": [],
      "payable": false,
      "stateMutability": "nonpayable",
      "type": "function"
    },
    {
      "constant": false,
      "inputs": [
        {
          "internalType": "address",
          "name": "cToken",
          "type": "address"
        },
        {
          "internalType": "address",
          "name": "src",
          "type": "address"
        },
        {
          "internalType": "address",
          "name": "dst",
          "type": "address"
        },
        {
          "internalType": "uint256",
          "name": "transferTokens",
          "type": "uint256"
        }
      ],
      "name": "transferAllowed",
      "outputs": [
        {
          "internalType": "uint256",
          "name": "",
          "type": "uint256"
        }
      ],
      "payable": false,
      "stateMutability": "nonpayable",
      "type": "function"
    },
    {
      "constant": false,
      "inputs": [
        {
          "internalType": "address",
          "name": "cToken",
          "type": "address"
        },
        {
          "internalType": "address",
          "name": "src",
          "type": "address"
        },
        {
          "internalType": "address",
          "name": "dst",
          "type": "address"
        },
        {
          "internalType": "uint256",
          "name": "transferTokens",
          "type": "uint256"
        }
      ],
      "name": "transferVerify",
      "outputs": [],
      "payable": false,
      "stateMutability": "nonpayable",
      "type": "function"
    },
    {
      "constant": true,
      "inputs": [
        {
          "internalType": "contract CToken",
          "name": "cToken",
          "type": "address"
        }
      ],
      "name": "membershipLength",
      "outputs": [
        {
          "internalType": "uint256",
          "name": "",
          "type": "uint256"
        }
      ],
      "payable": false,
      "stateMutability": "view",
      "type": "function"
    },
    {
      "constant": false,
      "inputs": [
        {
          "internalType": "uint256",
          "name": "blocks",
          "type": "uint256"
        }
      ],
      "name": "fastForward",
      "outputs": [
        {
          "internalType": "uint256",
          "name": "",
          "type": "uint256"
        }
      ],
      "payable": false,
      "stateMutability": "nonpayable",
      "type": "function"
    },
    {
      "constant": false,
      "inputs": [
        {
          "internalType": "uint256",
          "name": "number",
          "type": "uint256"
        }
      ],
      "name": "setBlockNumber",
      "outputs": [],
      "payable": false,
      "stateMutability": "nonpayable",
      "type": "function"
    },
    {
      "constant": false,
      "inputs": [
        {
          "internalType": "contract Unitroller",
          "name": "unitroller",
          "type": "address"
        },
        {
          "internalType": "contract PriceOracle",
          "name": "_oracle",
          "type": "address"
        },
        {
          "internalType": "uint256",
          "name": "_closeFactorMantissa",
          "type": "uint256"
        },
        {
          "internalType": "uint256",
          "name": "_maxAssets",
          "type": "uint256"
        },
        {
          "internalType": "bool",
          "name": "reinitializing",
          "type": "bool"
        }
      ],
      "name": "_become",
      "outputs": [],
      "payable": false,
      "stateMutability": "nonpayable",
      "type": "function"
    },
    {
      "constant": true,
      "inputs": [
        {
          "internalType": "address",
          "name": "account",
          "type": "address"
        },
        {
          "internalType": "address",
          "name": "cTokenModify",
          "type": "address"
        },
        {
          "internalType": "uint256",
          "name": "redeemTokens",
          "type": "uint256"
        },
        {
          "internalType": "uint256",
          "name": "borrowAmount",
          "type": "uint256"
        }
      ],
      "name": "getHypotheticalAccountLiquidity",
      "outputs": [
        {
          "internalType": "uint256",
          "name": "",
          "type": "uint256"
        },
        {
          "internalType": "uint256",
          "name": "",
          "type": "uint256"
        },
        {
          "internalType": "uint256",
          "name": "",
          "type": "uint256"
        }
      ],
      "payable": false,
      "stateMutability": "view",
      "type": "function"
    },
    {
      "constant": false,
      "inputs": [
        {
          "internalType": "contract CToken",
          "name": "cToken",
          "type": "address"
        }
      ],
      "name": "unlist",
      "outputs": [],
      "payable": false,
      "stateMutability": "nonpayable",
      "type": "function"
    }
  ],
  "bytecode": "0x608060405234801561001057600080fd5b50600080546001600160a01b03191633179055612e6b806100326000396000f3fe608060405234801561001057600080fd5b50600436106102735760003560e01c80638e8f294b11610151578063d02f7351116100c3578063e4028eee11610087578063e4028eee146109fd578063e875544614610a29578063eabe7d9114610a31578063ede4edd014610a67578063f851a44014610a8d578063fccbe7f614610a9557610273565b8063d02f735114610930578063d9226ced14610976578063da3d454c14610993578063dce15449146109c9578063dcfbc0c7146109f557610273565b8063abfceffc11610115578063abfceffc1461075e578063bb82aa5e146107d4578063bdcdc258146107dc578063bde3672d14610818578063c29982381461083e578063c488847b146108e157610273565b80638e8f294b146106a4578063929fe9a1146106e557806394b2294b14610713578063a76b3fda1461071b578063a8c3c8501461074157610273565b80634ef4c3e1116101ea5780635c778605116101ae5780635c778605146105785780635ec88c79146105ae5780635fc7e71e146105d45780636a56947e1461061a5780636d35bf91146106565780637dc0d1d01461069c57610273565b80634ef4c3e1146104bb5780634fd42e17146104f157806351dff9891461050e57806355ee1fe11461054a57806357e871e71461057057610273565b806332000e001161023c57806332000e001461036757806341c728b9146103ab57806347ef3b3b146103e75780634ada90af146104335780634bca0d8c1461043b5780634e79238f1461046157610273565b80627e3dd2146102785780631ededc911461029457806324008a62146102d85780632678224714610326578063317b0b771461034a575b600080fd5b610280610ab2565b604080519115158252519081900360200190f35b6102d6600480360360a08110156102aa57600080fd5b506001600160a01b03813581169160208101358216916040820135169060608101359060800135610ab7565b005b610314600480360360808110156102ee57600080fd5b506001600160a01b03813581169160208101358216916040820135169060600135610abe565b60408051918252519081900360200190f35b61032e610af4565b604080516001600160a01b039092168252519081900360200190f35b6103146004803603602081101561036057600080fd5b5035610b03565b6102d6600480360360a081101561037d57600080fd5b506001600160a01b038135811691602081013590911690604081013590606081013590608001351515610c11565b6102d6600480360360808110156103c157600080fd5b506001600160a01b03813581169160208101359091169060408101359060600135610c1e565b6102d6600480360360c08110156103fd57600080fd5b506001600160a01b0381358116916020810135821691604082013581169160608101359091169060808101359060a00135610c24565b610314610c2c565b6103146004803603602081101561045157600080fd5b50356001600160a01b0316610c32565b61049d6004803603608081101561047757600080fd5b506001600160a01b03813581169160208101359091169060408101359060600135610c4d565b60408051938452602084019290925282820152519081900360600190f35b610314600480360360608110156104d157600080fd5b506001600160a01b03813581169160208101359091169060400135610c87565b6103146004803603602081101561050757600080fd5b5035610cbe565b6102d66004803603608081101561052457600080fd5b506001600160a01b03813581169160208101359091169060408101359060600135610dad565b6103146004803603602081101561056057600080fd5b50356001600160a01b0316610e01565b610314610e83565b6102d66004803603606081101561058e57600080fd5b506001600160a01b03813581169160208101359091169060400135610e89565b61049d600480360360208110156105c457600080fd5b50356001600160a01b0316610e8e565b610314600480360360a08110156105ea57600080fd5b506001600160a01b0381358116916020810135821691604082013581169160608101359091169060800135610ec3565b6102d66004803603608081101561063057600080fd5b506001600160a01b03813581169160208101358216916040820135169060600135610c1e565b6102d6600480360360a081101561066c57600080fd5b506001600160a01b0381358116916020810135821691604082013581169160608101359091169060800135610ab7565b61032e61104a565b6106ca600480360360208110156106ba57600080fd5b50356001600160a01b0316611059565b60408051921515835260208301919091528051918290030190f35b610280600480360360408110156106fb57600080fd5b506001600160a01b0381358116916020013516611078565b6103146110ac565b6103146004803603602081101561073157600080fd5b50356001600160a01b03166110b2565b6102d66004803603602081101561075757600080fd5b50356111e1565b6107846004803603602081101561077457600080fd5b50356001600160a01b03166111e6565b60408051602080825283518183015283519192839290830191858101910280838360005b838110156107c05781810151838201526020016107a8565b505050509050019250505060405180910390f35b61032e61126f565b610314600480360360808110156107f257600080fd5b506001600160a01b0381358116916020810135821691604082013516906060013561127e565b6102d66004803603602081101561082e57600080fd5b50356001600160a01b031661128b565b6107846004803603602081101561085457600080fd5b81019060208101813564010000000081111561086f57600080fd5b82018360208201111561088157600080fd5b803590602001918460208302840111640100000000831117156108a357600080fd5b9190808060200260200160405190810160405280939291908181526020018383602002808284376000920191909152509295506112ac945050505050565b610917600480360360608110156108f757600080fd5b506001600160a01b03813581169160208101359091169060400135611450565b6040805192835260208301919091528051918290030190f35b610314600480360360a081101561094657600080fd5b506001600160a01b03813581169160208101358216916040820135811691606081013590911690608001356116c5565b6103146004803603602081101561098c57600080fd5b5035611808565b610314600480360360608110156109a957600080fd5b506001600160a01b0381358116916020810135909116906040013561186c565b61032e600480360360408110156109df57600080fd5b506001600160a01b0381351690602001356119a0565b61032e6119d5565b61031460048036036040811015610a1357600080fd5b506001600160a01b0381351690602001356119e4565b610314611b94565b61031460048036036060811015610a4757600080fd5b506001600160a01b03813581169160208101359091169060400135611b9a565b61031460048036036020811015610a7d57600080fd5b50356001600160a01b0316611ba7565b61032e611eba565b61031460048036036020811015610aab57600080fd5b5035611ec9565b600181565b5050505050565b6001600160a01b03841660009081526009602052604081205460ff16610ae657506009610aec565b60005b90505b949350505050565b6001546001600160a01b031681565b6000610b0d611ed8565b610b2457610b1d60016004611f23565b9050610c0c565b610b2c612d2b565b506040805160208101909152828152610b43612d2b565b50604080516020810190915266b1a2bc2ec500008152610b638282611f89565b15610b7c57610b73600580611f23565b92505050610c0c565b610b84612d2b565b506040805160208101909152670c7d713b49da00008152610ba58184611f91565b15610bbf57610bb5600580611f23565b9350505050610c0c565b6005805490869055604080518281526020810188905281517f3b9670cf975d26958e754b57098eaa2ac914d8d2a31b83257997b9f346110fd9929181900390910190a160005b9450505050505b919050565b610ab78585858585611f98565b50505050565b505050505050565b60065481565b6001600160a01b031660009081526008602052604090205490565b600080600080600080610c628a8a8a8a61242f565b925092509250826011811115610c7457fe5b95509093509150505b9450945094915050565b6001600160a01b03831660009081526009602052604081205460ff16610cb15760095b9050610cb7565b60005b90505b9392505050565b6000610cc8611ed8565b610cd857610b1d6001600b611f23565b610ce0612d2b565b506040805160208101909152828152610cf7612d2b565b506040805160208101909152670de0b6b3a76400008152610d188282611f91565b15610d2957610b736007600c611f23565b610d31612d2b565b5060408051602081019091526714d1120d7b1600008152610d528184611f91565b15610d6357610bb56007600c611f23565b6006805490869055604080518281526020810188905281517faeba5a6c40a8ac138134bff1aaa65debf25971188a58804bad717f82f0ec1316929181900390910190a16000610c05565b80158015610dbb5750600082115b15610c1e576040805162461bcd60e51b815260206004820152601160248201527072656465656d546f6b656e73207a65726f60781b604482015290519081900360640190fd5b6000610e0b611ed8565b610e1b57610b1d60016010611f23565b600480546001600160a01b038481166001600160a01b0319831681179093556040805191909216808252602082019390935281517fd52b2b9b7e9ee655fcb95d2e5b9e0c9f69e7ef2b8e9d2d0ea78402d576d22e22929181900390910190a160009392505050565b600a5481565b505050565b600080600080600080610ea587600080600061242f565b925092509250826011811115610eb757fe5b97919650945092505050565b6001600160a01b03851660009081526009602052604081205460ff161580610f0457506001600160a01b03851660009081526009602052604090205460ff16155b15610f135760095b9050611041565b600080610f1f8561284a565b91935090915060009050826011811115610f3557fe5b14610f4f57816011811115610f4657fe5b92505050611041565b80610f5b576003610f46565b6000886001600160a01b03166395dd9193876040518263ffffffff1660e01b815260040180826001600160a01b03166001600160a01b0316815260200191505060206040518083038186803b158015610fb357600080fd5b505afa158015610fc7573d6000803e3d6000fd5b505050506040513d6020811015610fdd57600080fd5b5051604080516020810190915260055481529091506000908190611001908461286a565b9092509050600082600381111561101457fe5b1461102857600b5b95505050505050611041565b8087111561103757601161101c565b6000955050505050505b95945050505050565b6004546001600160a01b031681565b6009602052600090815260409020805460019091015460ff9091169082565b6001600160a01b038082166000908152600960209081526040808320938616835260029093019052205460ff165b92915050565b60075481565b600080546001600160a01b031633146110d157610b1d60016012611f23565b6001600160a01b03821660009081526009602052604090205460ff16156110fe57610b1d600a6011611f23565b816001600160a01b031663fe9c44ae6040518163ffffffff1660e01b815260040160206040518083038186803b15801561113757600080fd5b505afa15801561114b573d6000803e3d6000fd5b505050506040513d602081101561116157600080fd5b50506040805180820182526001808252600060208084018281526001600160a01b03881680845260098352928690209451855460ff1916901515178555519390920192909255825191825291517fcf583bb0c569eb967f806b11601c4cb93c10310485c67add5f8362c2f212321f929181900390910190a1600092915050565b600a55565b60608060086000846001600160a01b03166001600160a01b0316815260200190815260200160002080548060200260200160405190810160405280929190818152602001828054801561126257602002820191906000526020600020905b81546001600160a01b03168152600190910190602001808311611244575b5093979650505050505050565b6002546001600160a01b031681565b6000610ae98585846128be565b6001600160a01b03166000908152600960205260409020805460ff19169055565b60606000825190506060816040519080825280602002602001820160405280156112e0578160200160208202803883390190505b50905060005b828110156114485760008582815181106112fc57fe5b6020908102919091018101516001600160a01b03811660009081526009909252604090912080549192509060ff166113505760095b84848151811061133d57fe5b6020026020010181815250505050611440565b33600090815260028201602052604090205460ff16151560011415611376576000611331565b6007543360009081526008602052604090205410611395576010611331565b3360008181526002830160209081526040808320805460ff19166001908117909155600883528184208054918201815584529282902090920180546001600160a01b0387166001600160a01b0319909116811790915582519081529081019290925280517f3ab23ab0d51cccc0c3085aec51f99228625aa1a922b3a8ca89a26b0f2027a1a59281900390910190a1600084848151811061143157fe5b60200260200101818152505050505b6001016112e6565b509392505050565b600480546040805163fc57d4df60e01b81526001600160a01b038781169482019490945290516000938493849391169163fc57d4df91602480820192602092909190829003018186803b1580156114a657600080fd5b505afa1580156114ba573d6000803e3d6000fd5b505050506040513d60208110156114d057600080fd5b5051600480546040805163fc57d4df60e01b81526001600160a01b038a8116948201949094529051939450600093929091169163fc57d4df91602480820192602092909190829003018186803b15801561152957600080fd5b505afa15801561153d573d6000803e3d6000fd5b505050506040513d602081101561155357600080fd5b50519050811580611562575080155b1561157757600d9350600092506116bd915050565b6000866001600160a01b031663182df0f56040518163ffffffff1660e01b815260040160206040518083038186803b1580156115b257600080fd5b505afa1580156115c6573d6000803e3d6000fd5b505050506040513d60208110156115dc57600080fd5b5051905060006115ea612d2b565b6115f2612d2b565b6115fa612d2b565b60006116086006548961292d565b94509050600081600381111561161a57fe5b1461163657600b5b9950600098506116bd975050505050505050565b611640878761292d565b93509050600081600381111561165257fe5b1461165e57600b611622565b6116688484612968565b92509050600081600381111561167a57fe5b1461168657600b611622565b611690828c61286a565b9550905060008160038111156116a257fe5b146116ae57600b611622565b60009950939750505050505050505b935093915050565b6001600160a01b03851660009081526009602052604081205460ff16158061170657506001600160a01b03851660009081526009602052604090205460ff16155b15611712576009610f0c565b846001600160a01b0316635fe3b5676040518163ffffffff1660e01b815260040160206040518083038186803b15801561174b57600080fd5b505afa15801561175f573d6000803e3d6000fd5b505050506040513d602081101561177557600080fd5b505160408051635fe3b56760e01b815290516001600160a01b0392831692891691635fe3b567916004808301926020929190829003018186803b1580156117bb57600080fd5b505afa1580156117cf573d6000803e3d6000fd5b505050506040513d60208110156117e557600080fd5b50516001600160a01b0316146117fc576002610f0c565b60009695505050505050565b6000611812611ed8565b61182257610b1d6001600d611f23565b6007805490839055604080518281526020810185905281517f7093cf1eb653f749c3ff531d6df7f92764536a7fa0d13530cd26e070780c32ea929181900390910190a16000610cb7565b6001600160a01b03831660009081526009602052604081205460ff16611893576009610caa565b6001600160a01b038085166000908152600960209081526040808320938716835260029093019052205460ff166118cb576008610caa565b600480546040805163fc57d4df60e01b81526001600160a01b03888116948201949094529051929091169163fc57d4df91602480820192602092909190829003018186803b15801561191c57600080fd5b505afa158015611930573d6000803e3d6000fd5b505050506040513d602081101561194657600080fd5b505161195357600d610caa565b600080611963858760008761242f565b9193509091506000905082601181111561197957fe5b146119935781601181111561198a57fe5b92505050610cb7565b80156117fc57600461198a565b600860205281600052604060002081815481106119b957fe5b6000918252602090912001546001600160a01b03169150829050565b6003546001600160a01b031681565b600080546001600160a01b03163314611a0a57611a0360016006611f23565b90506110a6565b6001600160a01b0383166000908152600960205260409020805460ff16611a3f57611a3760096007611f23565b9150506110a6565b611a47612d2b565b506040805160208101909152838152611a5e612d2b565b506040805160208101909152670c7d713b49da00008152611a7f8183611f91565b15611a9a57611a9060066008611f23565b93505050506110a6565b8415801590611b235750600480546040805163fc57d4df60e01b81526001600160a01b038a8116948201949094529051929091169163fc57d4df91602480820192602092909190829003018186803b158015611af557600080fd5b505afa158015611b09573d6000803e3d6000fd5b505050506040513d6020811015611b1f57600080fd5b5051155b15611b3457611a90600d6009611f23565b60018301805490869055604080516001600160a01b03891681526020810183905280820188905290517f70483e6592cd5182d45ac970e05bc62cdcc90e9d8ef2c2dbe686cf383bcd7fc59181900360600190a16000979650505050505050565b60055481565b6000610cb48484846128be565b6000808290506000806000836001600160a01b031663c37f68e2336040518263ffffffff1660e01b815260040180826001600160a01b03166001600160a01b0316815260200191505060806040518083038186803b158015611c0857600080fd5b505afa158015611c1c573d6000803e3d6000fd5b505050506040513d6080811015611c3257600080fd5b508051602082015160409092015190945090925090508215611c855760405162461bcd60e51b8152600401808060200182810382526025815260200180612deb6025913960400191505060405180910390fd5b8015611ca257611c97600c6002611f23565b945050505050610c0c565b6000611caf8733856128be565b90508015611cd057611cc4600e600383612980565b95505050505050610c0c565b6001600160a01b0385166000908152600960209081526040808320338452600281019092529091205460ff16611d0f5760009650505050505050610c0c565b3360009081526002820160209081526040808320805460ff191690556008825291829020805483518184028101840190945280845260609392830182828015611d8157602002820191906000526020600020905b81546001600160a01b03168152600190910190602001808311611d63575b5050835193945083925060009150505b82811015611dd657896001600160a01b0316848281518110611daf57fe5b60200260200101516001600160a01b03161415611dce57809150611dd6565b600101611d91565b50818110611de057fe5b336000908152600860205260409020805481906000198101908110611e0157fe5b9060005260206000200160009054906101000a90046001600160a01b0316818381548110611e2b57fe5b600091825260209091200180546001600160a01b0319166001600160a01b03929092169190911790558054611e64826000198301612d3e565b50604080516001600160a01b038c16815233602082015281517fe699a64c18b07ac5b7301aa273f36a2287239eb9501d81950672794afba29a0d929181900390910190a160009c9b505050505050505050505050565b6000546001600160a01b031681565b600a8054820190819055919050565b60025460009081906001600160a01b031633148015611f0157506000546001600160a01b031632145b6000549091506001600160a01b031633148080611f1b5750815b925050505b90565b60007f45b96fe442630264581b197e84bbada861235052c5a1aadfff9ea4e40a969aa0836011811115611f5257fe5b836013811115611f5e57fe5b604080519283526020830191909152600082820152519081900360600190a1826011811115610cb757fe5b519051111590565b5190511090565b846001600160a01b031663f851a4406040518163ffffffff1660e01b815260040160206040518083038186803b158015611fd157600080fd5b505afa158015611fe5573d6000803e3d6000fd5b505050506040513d6020811015611ffb57600080fd5b50516001600160a01b031633146120435760405162461bcd60e51b8152600401808060200182810382526027815260200180612e106027913960400191505060405180910390fd5b6000856001600160a01b031663c1e803346040518163ffffffff1660e01b8152600401602060405180830381600087803b15801561208057600080fd5b505af1158015612094573d6000803e3d6000fd5b505050506040513d60208110156120aa57600080fd5b5051905080156120f9576040805162461bcd60e51b815260206004820152601560248201527418da185b99d9481b9bdd08185d5d1a1bdc9a5e9959605a1b604482015290519081900360640190fd5b81610c245760008690506000816001600160a01b03166355ee1fe1886040518263ffffffff1660e01b815260040180826001600160a01b03166001600160a01b03168152602001915050602060405180830381600087803b15801561215d57600080fd5b505af1158015612171573d6000803e3d6000fd5b505050506040513d602081101561218757600080fd5b5051905080156121d7576040805162461bcd60e51b815260206004820152601660248201527539b2ba10383934b1b29037b930b1b6329032b93937b960511b604482015290519081900360640190fd5b816001600160a01b031663317b0b77876040518263ffffffff1660e01b815260040180828152602001915050602060405180830381600087803b15801561221d57600080fd5b505af1158015612231573d6000803e3d6000fd5b505050506040513d602081101561224757600080fd5b505190508015612297576040805162461bcd60e51b815260206004820152601660248201527539b2ba1031b637b9b2903330b1ba37b91032b93937b960511b604482015290519081900360640190fd5b816001600160a01b031663d9226ced866040518263ffffffff1660e01b815260040180828152602001915050602060405180830381600087803b1580156122dd57600080fd5b505af11580156122f1573d6000803e3d6000fd5b505050506040513d602081101561230757600080fd5b505190508015612356576040805162461bcd60e51b815260206004820152601560248201527439b2ba1036b0bc1030b9b9b9b2ba399032b93937b960591b604482015290519081900360640190fd5b816001600160a01b0316634fd42e17670de0b6b3a76400006040518263ffffffff1660e01b815260040180828152602001915050602060405180830381600087803b1580156123a457600080fd5b505af11580156123b8573d6000803e3d6000fd5b505050506040513d60208110156123ce57600080fd5b505190508015612425576040805162461bcd60e51b815260206004820152601f60248201527f736574206c69717569646174696f6e20696e63656e74697665206572726f7200604482015290519081900360640190fd5b5050505050505050565b600080600061243c612d62565b6001600160a01b0388166000908152600860209081526040808320805482518185028101850190935280835284936060939291908301828280156124a957602002820191906000526020600020905b81546001600160a01b0316815260019091019060200180831161248b575b50939450600093505050505b81518110156128055760008282815181106124cc57fe5b60200260200101519050806001600160a01b031663c37f68e28e6040518263ffffffff1660e01b815260040180826001600160a01b03166001600160a01b0316815260200191505060806040518083038186803b15801561252c57600080fd5b505afa158015612540573d6000803e3d6000fd5b505050506040513d608081101561255657600080fd5b508051602082015160408084015160609485015160808c0152938a0193909352918801919091529450841561259c5750600f975060009650869550610c7d945050505050565b60408051602080820183526001600160a01b0380851660008181526009845285902060010154845260c08b01939093528351808301855260808b0151815260e08b015260048054855163fc57d4df60e01b815291820194909452935192169263fc57d4df9260248083019392829003018186803b15801561261c57600080fd5b505afa158015612630573d6000803e3d6000fd5b505050506040513d602081101561264657600080fd5b505160a0870181905261266a5750600d975060009650869550610c7d945050505050565b604080516020810190915260a08701518152610100870181905260c087015160e0880151612697926129e6565b610120880152935060008460038111156126ad57fe5b146126c95750600b975060009650869550610c7d945050505050565b6126e186610120015187604001518860000151612a3e565b8752935060008460038111156126f357fe5b1461270f5750600b975060009650869550610c7d945050505050565b61272786610100015187606001518860200151612a3e565b60208801529350600084600381111561273c57fe5b146127585750600b975060009650869550610c7d945050505050565b8b6001600160a01b0316816001600160a01b031614156127fc576127868661012001518c8860200151612a3e565b60208801529350600084600381111561279b57fe5b146127b75750600b975060009650869550610c7d945050505050565b6127cb8661010001518b8860200151612a3e565b6020880152935060008460038111156127e057fe5b146127fc5750600b975060009650869550610c7d945050505050565b506001016124b5565b5060208401518451111561282c575050506020810151905160009450039150829050610c7d565b5050815160209092015160009550859450919091039150610c7d9050565b600080600061285d84600080600061242f565b9250925092509193909250565b6000806000612877612d2b565b6128818686612a8b565b9092509050600082600381111561289457fe5b146128a557509150600090506128b7565b60006128b082612af3565b9350935050505b9250929050565b6001600160a01b03831660009081526009602052604081205460ff166128e5576009610caa565b6001600160a01b038085166000908152600960209081526040808320938716835260029093019052205460ff1661291d576000610caa565b600080611963858786600061242f565b6000612937612d2b565b61295d604051806020016040528086815250604051806020016040528086815250612b02565b915091509250929050565b6000612972612d2b565b8351835161295d9190612beb565b60007f45b96fe442630264581b197e84bbada861235052c5a1aadfff9ea4e40a969aa08460118111156129af57fe5b8460138111156129bb57fe5b604080519283526020830191909152818101859052519081900360600190a1836011811115610cb457fe5b60006129f0612d2b565b60006129fa612d2b565b612a048787612b02565b90925090506000826003811115612a1757fe5b14612a265790925090506116bd565b612a308186612b02565b935093505050935093915050565b6000806000612a4b612d2b565b612a558787612a8b565b90925090506000826003811115612a6857fe5b14612a7957509150600090506116bd565b612a30612a8582612af3565b86612c9b565b6000612a95612d2b565b600080612aa6866000015186612cc1565b90925090506000826003811115612ab957fe5b14612ad8575060408051602081019091526000815290925090506128b7565b60408051602081019091529081526000969095509350505050565b51670de0b6b3a7640000900490565b6000612b0c612d2b565b600080612b2186600001518660000151612cc1565b90925090506000826003811115612b3457fe5b14612b53575060408051602081019091526000815290925090506128b7565b600080612b686706f05b59d3b2000084612c9b565b90925090506000826003811115612b7b57fe5b14612b9d575060408051602081019091526000815290945092506128b7915050565b600080612bb283670de0b6b3a7640000612d00565b90925090506000826003811115612bc557fe5b14612bcc57fe5b604080516020810190915290815260009a909950975050505050505050565b6000612bf5612d2b565b600080612c0a86670de0b6b3a7640000612cc1565b90925090506000826003811115612c1d57fe5b14612c3c575060408051602081019091526000815290925090506128b7565b600080612c498388612d00565b90925090506000826003811115612c5c57fe5b14612c7e575060408051602081019091526000815290945092506128b7915050565b604080516020810190915290815260009890975095505050505050565b600080838301848110612cb3576000925090506128b7565b5060029150600090506128b7565b60008083612cd4575060009050806128b7565b83830283858281612ce157fe5b0414612cf5575060029150600090506128b7565b6000925090506128b7565b60008082612d1457506001905060006128b7565b6000838581612d1f57fe5b04915091509250929050565b6040518060200160405280600081525090565b815481835581811115610e8957600083815260209020610e89918101908301612dcc565b604051806101400160405280600081526020016000815260200160008152602001600081526020016000815260200160008152602001612da0612d2b565b8152602001612dad612d2b565b8152602001612dba612d2b565b8152602001612dc7612d2b565b905290565b611f2091905b80821115612de65760008155600101612dd2565b509056fe657869744d61726b65743a206765744163636f756e74536e617073686f74206661696c65646f6e6c7920756e6974726f6c6c65722061646d696e2063616e206368616e676520627261696e73a265627a7a7231582024eaeeb8c8581cda30380bc9dacfb381b8c39a400691cb2dee2b0c8b52be4a8864736f6c634300050e0032",
  "source": "pragma solidity ^0.5.14;\n\nimport \"../../contracts/ComptrollerG1.sol\";\nimport \"../../contracts/PriceOracle.sol\";\n\n// XXX we should delete G1 everything...\n//  requires fork/deploy bytecode tests\n\ncontract ComptrollerScenarioG1 is ComptrollerG1 {\n    uint public blockNumber;\n\n    constructor() ComptrollerG1() public {}\n\n    function membershipLength(CToken cToken) public view returns (uint) {\n        return accountAssets[address(cToken)].length;\n    }\n\n    function fastForward(uint blocks) public returns (uint) {\n        blockNumber += blocks;\n\n        return blockNumber;\n    }\n\n    function setBlockNumber(uint number) public {\n        blockNumber = number;\n    }\n\n    function _become(\n        Unitroller unitroller,\n        PriceOracle _oracle,\n        uint _closeFactorMantissa,\n        uint _maxAssets,\n        bool reinitializing) public {\n        super._become(unitroller, _oracle, _closeFactorMantissa, _maxAssets, reinitializing);\n    }\n\n    function getHypotheticalAccountLiquidity(\n        address account,\n        address cTokenModify,\n        uint redeemTokens,\n        uint borrowAmount) public view returns (uint, uint, uint) {\n        (Error err, uint liquidity, uint shortfall) =\n            super.getHypotheticalAccountLiquidityInternal(account, CToken(cTokenModify), redeemTokens, borrowAmount);\n        return (uint(err), liquidity, shortfall);\n    }\n\n    function unlist(CToken cToken) public {\n        markets[address(cToken)].isListed = false;\n    }\n}\n",
  "sourcePath": "/Users/yanyichun/project/Savings/contracts/compound/test/Contracts/ComptrollerScenarioG1.sol",
  "compiler": {
    "name": "solc",
    "version": "0.5.14+commit.01f1aaa4.Emscripten.clang"
  },
  "schemaVersion": "3.2.3",
  "updatedAt": "2021-02-25T05:30:06.439Z",
  "devdoc": {
    "methods": {
      "_setCloseFactor(uint256)": {
        "details": "Admin function to set closeFactor",
        "params": {
          "newCloseFactorMantissa": "New close factor, scaled by 1e18"
        },
        "return": "uint 0=success, otherwise a failure. (See ErrorReporter for details)"
      },
      "_setCollateralFactor(address,uint256)": {
        "details": "Admin function to set per-market collateralFactor",
        "params": {
          "cToken": "The market to set the factor on",
          "newCollateralFactorMantissa": "The new collateral factor, scaled by 1e18"
        },
        "return": "uint 0=success, otherwise a failure. (See ErrorReporter for details)"
      },
      "_setLiquidationIncentive(uint256)": {
        "details": "Admin function to set liquidationIncentive",
        "params": {
          "newLiquidationIncentiveMantissa": "New liquidationIncentive scaled by 1e18"
        },
        "return": "uint 0=success, otherwise a failure. (See ErrorReporter for details)"
      },
      "_setMaxAssets(uint256)": {
        "details": "Admin function to set maxAssets",
        "params": {
          "newMaxAssets": "New max assets"
        },
        "return": "uint 0=success, otherwise a failure. (See ErrorReporter for details)"
      },
      "_setPriceOracle(address)": {
        "details": "Admin function to set a new price oracle",
        "return": "uint 0=success, otherwise a failure (see ErrorReporter.sol for details)"
      },
      "_supportMarket(address)": {
        "details": "Admin function to set isListed and add support for the market",
        "params": {
          "cToken": "The address of the market (token) to list"
        },
        "return": "uint 0=success, otherwise a failure. (See enum Error for details)"
      },
      "borrowAllowed(address,address,uint256)": {
        "params": {
          "borrowAmount": "The amount of underlying the account would borrow",
          "borrower": "The account which would borrow the asset",
          "cToken": "The market to verify the borrow against"
        },
        "return": "0 if the borrow is allowed, otherwise a semi-opaque error code (See ErrorReporter.sol)"
      },
      "borrowVerify(address,address,uint256)": {
        "params": {
          "borrowAmount": "The amount of the underlying asset requested to borrow",
          "borrower": "The address borrowing the underlying",
          "cToken": "Asset whose underlying is being borrowed"
        }
      },
      "checkMembership(address,address)": {
        "params": {
          "account": "The address of the account to check",
          "cToken": "The cToken to check"
        },
        "return": "True if the account is in the asset, otherwise false."
      },
      "enterMarkets(address[])": {
        "params": {
          "cTokens": "The list of addresses of the cToken markets to be enabled"
        },
        "return": "Success indicator for whether each corresponding market was entered"
      },
      "exitMarket(address)": {
        "details": "Sender must not have an outstanding borrow balance in the asset, or be providing neccessary collateral for an outstanding borrow.",
        "params": {
          "cTokenAddress": "The address of the asset to be removed"
        },
        "return": "Whether or not the account successfully exited the market"
      },
      "getAccountLiquidity(address)": {
        "return": "(possible error code (semi-opaque), account liquidity in excess of collateral requirements,         account shortfall below collateral requirements)"
      },
      "getAssetsIn(address)": {
        "params": {
          "account": "The address of the account to pull assets for"
        },
        "return": "A dynamic list with the assets the account has entered"
      },
      "liquidateBorrowAllowed(address,address,address,address,uint256)": {
        "params": {
          "borrower": "The address of the borrower",
          "cTokenBorrowed": "Asset which was borrowed by the borrower",
          "cTokenCollateral": "Asset which was used as collateral and will be seized",
          "liquidator": "The address repaying the borrow and seizing the collateral",
          "repayAmount": "The amount of underlying being repaid"
        }
      },
      "liquidateBorrowVerify(address,address,address,address,uint256,uint256)": {
        "params": {
          "borrower": "The address of the borrower",
          "cTokenBorrowed": "Asset which was borrowed by the borrower",
          "cTokenCollateral": "Asset which was used as collateral and will be seized",
          "liquidator": "The address repaying the borrow and seizing the collateral",
          "repayAmount": "The amount of underlying being repaid"
        }
      },
      "liquidateCalculateSeizeTokens(address,address,uint256)": {
        "details": "Used in liquidation (called in cToken.liquidateBorrowFresh)",
        "params": {
          "cTokenBorrowed": "The address of the borrowed cToken",
          "cTokenCollateral": "The address of the collateral cToken",
          "repayAmount": "The amount of cTokenBorrowed underlying to convert into cTokenCollateral tokens"
        },
        "return": "(errorCode, number of cTokenCollateral tokens to be seized in a liquidation)"
      },
      "mintAllowed(address,address,uint256)": {
        "params": {
          "cToken": "The market to verify the mint against",
          "mintAmount": "The amount of underlying being supplied to the market in exchange for tokens",
          "minter": "The account which would get the minted tokens"
        },
        "return": "0 if the mint is allowed, otherwise a semi-opaque error code (See ErrorReporter.sol)"
      },
      "mintVerify(address,address,uint256,uint256)": {
        "params": {
          "cToken": "Asset being minted",
          "mintAmount": "The amount of the underlying asset being minted",
          "mintTokens": "The number of tokens being minted",
          "minter": "The address minting the tokens"
        }
      },
      "redeemAllowed(address,address,uint256)": {
        "params": {
          "cToken": "The market to verify the redeem against",
          "redeemTokens": "The number of cTokens to exchange for the underlying asset in the market",
          "redeemer": "The account which would redeem the tokens"
        },
        "return": "0 if the redeem is allowed, otherwise a semi-opaque error code (See ErrorReporter.sol)"
      },
      "redeemVerify(address,address,uint256,uint256)": {
        "params": {
          "cToken": "Asset being redeemed",
          "redeemAmount": "The amount of the underlying asset being redeemed",
          "redeemTokens": "The number of tokens being redeemed",
          "redeemer": "The address redeeming the tokens"
        }
      },
      "repayBorrowAllowed(address,address,address,uint256)": {
        "params": {
          "borrower": "The account which would borrowed the asset",
          "cToken": "The market to verify the repay against",
          "payer": "The account which would repay the asset",
          "repayAmount": "The amount of the underlying asset the account would repay"
        },
        "return": "0 if the repay is allowed, otherwise a semi-opaque error code (See ErrorReporter.sol)"
      },
      "repayBorrowVerify(address,address,address,uint256,uint256)": {
        "params": {
          "borrower": "The address of the borrower",
          "cToken": "Asset being repaid",
          "payer": "The address repaying the borrow",
          "repayAmount": "The amount of underlying being repaid"
        }
      },
      "seizeAllowed(address,address,address,address,uint256)": {
        "params": {
          "borrower": "The address of the borrower",
          "cTokenBorrowed": "Asset which was borrowed by the borrower",
          "cTokenCollateral": "Asset which was used as collateral and will be seized",
          "liquidator": "The address repaying the borrow and seizing the collateral",
          "seizeTokens": "The number of collateral tokens to seize"
        }
      },
      "seizeVerify(address,address,address,address,uint256)": {
        "params": {
          "borrower": "The address of the borrower",
          "cTokenBorrowed": "Asset which was borrowed by the borrower",
          "cTokenCollateral": "Asset which was used as collateral and will be seized",
          "liquidator": "The address repaying the borrow and seizing the collateral",
          "seizeTokens": "The number of collateral tokens to seize"
        }
      },
      "transferAllowed(address,address,address,uint256)": {
        "params": {
          "cToken": "The market to verify the transfer against",
          "dst": "The account which receives the tokens",
          "src": "The account which sources the tokens",
          "transferTokens": "The number of cTokens to transfer"
        },
        "return": "0 if the transfer is allowed, otherwise a semi-opaque error code (See ErrorReporter.sol)"
      },
      "transferVerify(address,address,address,uint256)": {
        "params": {
          "cToken": "Asset being transferred",
          "dst": "The account which receives the tokens",
          "src": "The account which sources the tokens",
          "transferTokens": "The number of cTokens to transfer"
        }
      }
    }
  },
  "userdoc": {
    "methods": {
      "_setCloseFactor(uint256)": {
        "notice": "Sets the closeFactor used when liquidating borrows"
      },
      "_setCollateralFactor(address,uint256)": {
        "notice": "Sets the collateralFactor for a market"
      },
      "_setLiquidationIncentive(uint256)": {
        "notice": "Sets liquidationIncentive"
      },
      "_setMaxAssets(uint256)": {
        "notice": "Sets maxAssets which controls how many markets can be entered"
      },
      "_setPriceOracle(address)": {
        "notice": "Sets a new price oracle for the comptroller"
      },
      "_supportMarket(address)": {
        "notice": "Add the market to the markets mapping and set it as listed"
      },
      "borrowAllowed(address,address,uint256)": {
        "notice": "Checks if the account should be allowed to borrow the underlying asset of the given market"
      },
      "borrowVerify(address,address,uint256)": {
        "notice": "Validates borrow and reverts on rejection. May emit logs."
      },
      "checkMembership(address,address)": {
        "notice": "Returns whether the given account is entered in the given asset"
      },
      "enterMarkets(address[])": {
        "notice": "Add assets to be included in account liquidity calculation"
      },
      "exitMarket(address)": {
        "notice": "Removes asset from sender's account liquidity calculation"
      },
      "getAccountLiquidity(address)": {
        "notice": "Determine the current account liquidity wrt collateral requirements"
      },
      "getAssetsIn(address)": {
        "notice": "Returns the assets an account has entered"
      },
      "liquidateBorrowAllowed(address,address,address,address,uint256)": {
        "notice": "Checks if the liquidation should be allowed to occur"
      },
      "liquidateBorrowVerify(address,address,address,address,uint256,uint256)": {
        "notice": "Validates liquidateBorrow and reverts on rejection. May emit logs."
      },
      "liquidateCalculateSeizeTokens(address,address,uint256)": {
        "notice": "Calculate number of tokens of collateral asset to seize given an underlying amount"
      },
      "mintAllowed(address,address,uint256)": {
        "notice": "Checks if the account should be allowed to mint tokens in the given market"
      },
      "mintVerify(address,address,uint256,uint256)": {
        "notice": "Validates mint and reverts on rejection. May emit logs."
      },
      "redeemAllowed(address,address,uint256)": {
        "notice": "Checks if the account should be allowed to redeem tokens in the given market"
      },
      "redeemVerify(address,address,uint256,uint256)": {
        "notice": "Validates redeem and reverts on rejection. May emit logs."
      },
      "repayBorrowAllowed(address,address,address,uint256)": {
        "notice": "Checks if the account should be allowed to repay a borrow in the given market"
      },
      "repayBorrowVerify(address,address,address,uint256,uint256)": {
        "notice": "Validates repayBorrow and reverts on rejection. May emit logs."
      },
      "seizeAllowed(address,address,address,address,uint256)": {
        "notice": "Checks if the seizing of assets should be allowed to occur"
      },
      "seizeVerify(address,address,address,address,uint256)": {
        "notice": "Validates seize and reverts on rejection. May emit logs."
      },
      "transferAllowed(address,address,address,uint256)": {
        "notice": "Checks if the account should be allowed to transfer tokens in the given market"
      },
      "transferVerify(address,address,address,uint256)": {
        "notice": "Validates transfer and reverts on rejection. May emit logs."
      }
    }
  }
}