{
  "contractName": "ComptrollerScenario2",
  "abi": [
    {
      "inputs": [],
      "payable": false,
      "stateMutability": "nonpayable",
      "type": "constructor"
    },
    {
      "anonymous": false,
      "inputs": [
        {
          "indexed": false,
          "internalType": "string",
          "name": "action",
          "type": "string"
        },
        {
          "indexed": false,
          "internalType": "bool",
          "name": "pauseState",
          "type": "bool"
        }
      ],
      "name": "ActionPaused",
      "type": "event"
    },
    {
      "anonymous": false,
      "inputs": [
        {
          "indexed": false,
          "internalType": "contract CToken",
          "name": "cToken",
          "type": "address"
        },
        {
          "indexed": false,
          "internalType": "string",
          "name": "action",
          "type": "string"
        },
        {
          "indexed": false,
          "internalType": "bool",
          "name": "pauseState",
          "type": "bool"
        }
      ],
      "name": "ActionPaused",
      "type": "event"
    },
    {
      "anonymous": false,
      "inputs": [
        {
          "indexed": true,
          "internalType": "contract CToken",
          "name": "cToken",
          "type": "address"
        },
        {
          "indexed": false,
          "internalType": "uint256",
          "name": "newSpeed",
          "type": "uint256"
        }
      ],
      "name": "CompSpeedUpdated",
      "type": "event"
    },
    {
      "anonymous": false,
      "inputs": [
        {
          "indexed": true,
          "internalType": "contract CToken",
          "name": "cToken",
          "type": "address"
        },
        {
          "indexed": true,
          "internalType": "address",
          "name": "borrower",
          "type": "address"
        },
        {
          "indexed": false,
          "internalType": "uint256",
          "name": "compDelta",
          "type": "uint256"
        },
        {
          "indexed": false,
          "internalType": "uint256",
          "name": "compBorrowIndex",
          "type": "uint256"
        }
      ],
      "name": "DistributedBorrowerComp",
      "type": "event"
    },
    {
      "anonymous": false,
      "inputs": [
        {
          "indexed": true,
          "internalType": "contract CToken",
          "name": "cToken",
          "type": "address"
        },
        {
          "indexed": true,
          "internalType": "address",
          "name": "supplier",
          "type": "address"
        },
        {
          "indexed": false,
          "internalType": "uint256",
          "name": "compDelta",
          "type": "uint256"
        },
        {
          "indexed": false,
          "internalType": "uint256",
          "name": "compSupplyIndex",
          "type": "uint256"
        }
      ],
      "name": "DistributedSupplierComp",
      "type": "event"
    },
    {
      "anonymous": false,
      "inputs": [
        {
          "indexed": false,
          "internalType": "uint256",
          "name": "error",
          "type": "uint256"
        },
        {
          "indexed": false,
          "internalType": "uint256",
          "name": "info",
          "type": "uint256"
        },
        {
          "indexed": false,
          "internalType": "uint256",
          "name": "detail",
          "type": "uint256"
        }
      ],
      "name": "Failure",
      "type": "event"
    },
    {
      "anonymous": false,
      "inputs": [
        {
          "indexed": false,
          "internalType": "contract CToken",
          "name": "cToken",
          "type": "address"
        },
        {
          "indexed": false,
          "internalType": "bool",
          "name": "isComped",
          "type": "bool"
        }
      ],
      "name": "MarketComped",
      "type": "event"
    },
    {
      "anonymous": false,
      "inputs": [
        {
          "indexed": false,
          "internalType": "contract CToken",
          "name": "cToken",
          "type": "address"
        },
        {
          "indexed": false,
          "internalType": "address",
          "name": "account",
          "type": "address"
        }
      ],
      "name": "MarketEntered",
      "type": "event"
    },
    {
      "anonymous": false,
      "inputs": [
        {
          "indexed": false,
          "internalType": "contract CToken",
          "name": "cToken",
          "type": "address"
        },
        {
          "indexed": false,
          "internalType": "address",
          "name": "account",
          "type": "address"
        }
      ],
      "name": "MarketExited",
      "type": "event"
    },
    {
      "anonymous": false,
      "inputs": [
        {
          "indexed": false,
          "internalType": "contract CToken",
          "name": "cToken",
          "type": "address"
        }
      ],
      "name": "MarketListed",
      "type": "event"
    },
    {
      "anonymous": false,
      "inputs": [
        {
          "indexed": false,
          "internalType": "uint256",
          "name": "oldCloseFactorMantissa",
          "type": "uint256"
        },
        {
          "indexed": false,
          "internalType": "uint256",
          "name": "newCloseFactorMantissa",
          "type": "uint256"
        }
      ],
      "name": "NewCloseFactor",
      "type": "event"
    },
    {
      "anonymous": false,
      "inputs": [
        {
          "indexed": false,
          "internalType": "contract CToken",
          "name": "cToken",
          "type": "address"
        },
        {
          "indexed": false,
          "internalType": "uint256",
          "name": "oldCollateralFactorMantissa",
          "type": "uint256"
        },
        {
          "indexed": false,
          "internalType": "uint256",
          "name": "newCollateralFactorMantissa",
          "type": "uint256"
        }
      ],
      "name": "NewCollateralFactor",
      "type": "event"
    },
    {
      "anonymous": false,
      "inputs": [
        {
          "indexed": false,
          "internalType": "uint256",
          "name": "oldCompRate",
          "type": "uint256"
        },
        {
          "indexed": false,
          "internalType": "uint256",
          "name": "newCompRate",
          "type": "uint256"
        }
      ],
      "name": "NewCompRate",
      "type": "event"
    },
    {
      "anonymous": false,
      "inputs": [
        {
          "indexed": false,
          "internalType": "uint256",
          "name": "oldLiquidationIncentiveMantissa",
          "type": "uint256"
        },
        {
          "indexed": false,
          "internalType": "uint256",
          "name": "newLiquidationIncentiveMantissa",
          "type": "uint256"
        }
      ],
      "name": "NewLiquidationIncentive",
      "type": "event"
    },
    {
      "anonymous": false,
      "inputs": [
        {
          "indexed": false,
          "internalType": "uint256",
          "name": "oldMaxAssets",
          "type": "uint256"
        },
        {
          "indexed": false,
          "internalType": "uint256",
          "name": "newMaxAssets",
          "type": "uint256"
        }
      ],
      "name": "NewMaxAssets",
      "type": "event"
    },
    {
      "anonymous": false,
      "inputs": [
        {
          "indexed": false,
          "internalType": "address",
          "name": "oldPauseGuardian",
          "type": "address"
        },
        {
          "indexed": false,
          "internalType": "address",
          "name": "newPauseGuardian",
          "type": "address"
        }
      ],
      "name": "NewPauseGuardian",
      "type": "event"
    },
    {
      "anonymous": false,
      "inputs": [
        {
          "indexed": false,
          "internalType": "contract PriceOracle",
          "name": "oldPriceOracle",
          "type": "address"
        },
        {
          "indexed": false,
          "internalType": "contract PriceOracle",
          "name": "newPriceOracle",
          "type": "address"
        }
      ],
      "name": "NewPriceOracle",
      "type": "event"
    },
    {
      "constant": false,
      "inputs": [
        {
          "internalType": "address[]",
          "name": "cTokens",
          "type": "address[]"
        }
      ],
      "name": "_addCompMarkets",
      "outputs": [],
      "payable": false,
      "stateMutability": "nonpayable",
      "type": "function"
    },
    {
      "constant": false,
      "inputs": [
        {
          "internalType": "contract Unitroller",
          "name": "unitroller",
          "type": "address"
        },
        {
          "internalType": "uint256",
          "name": "compRate_",
          "type": "uint256"
        },
        {
          "internalType": "address[]",
          "name": "compMarketsToAdd",
          "type": "address[]"
        },
        {
          "internalType": "address[]",
          "name": "otherMarketsToAdd",
          "type": "address[]"
        }
      ],
      "name": "_become",
      "outputs": [],
      "payable": false,
      "stateMutability": "nonpayable",
      "type": "function"
    },
    {
      "constant": false,
      "inputs": [
        {
          "internalType": "uint256",
          "name": "compRate_",
          "type": "uint256"
        },
        {
          "internalType": "address[]",
          "name": "compMarketsToAdd",
          "type": "address[]"
        },
        {
          "internalType": "address[]",
          "name": "otherMarketsToAdd",
          "type": "address[]"
        }
      ],
      "name": "_becomeG3",
      "outputs": [],
      "payable": false,
      "stateMutability": "nonpayable",
      "type": "function"
    },
    {
      "constant": true,
      "inputs": [],
      "name": "_borrowGuardianPaused",
      "outputs": [
        {
          "internalType": "bool",
          "name": "",
          "type": "bool"
        }
      ],
      "payable": false,
      "stateMutability": "view",
      "type": "function"
    },
    {
      "constant": false,
      "inputs": [
        {
          "internalType": "address",
          "name": "cToken",
          "type": "address"
        }
      ],
      "name": "_dropCompMarket",
      "outputs": [],
      "payable": false,
      "stateMutability": "nonpayable",
      "type": "function"
    },
    {
      "constant": true,
      "inputs": [],
      "name": "_mintGuardianPaused",
      "outputs": [
        {
          "internalType": "bool",
          "name": "",
          "type": "bool"
        }
      ],
      "payable": false,
      "stateMutability": "view",
      "type": "function"
    },
    {
      "constant": false,
      "inputs": [
        {
          "internalType": "contract CToken",
          "name": "cToken",
          "type": "address"
        },
        {
          "internalType": "bool",
          "name": "state",
          "type": "bool"
        }
      ],
      "name": "_setBorrowPaused",
      "outputs": [
        {
          "internalType": "bool",
          "name": "",
          "type": "bool"
        }
      ],
      "payable": false,
      "stateMutability": "nonpayable",
      "type": "function"
    },
    {
      "constant": false,
      "inputs": [
        {
          "internalType": "uint256",
          "name": "newCloseFactorMantissa",
          "type": "uint256"
        }
      ],
      "name": "_setCloseFactor",
      "outputs": [
        {
          "internalType": "uint256",
          "name": "",
          "type": "uint256"
        }
      ],
      "payable": false,
      "stateMutability": "nonpayable",
      "type": "function"
    },
    {
      "constant": false,
      "inputs": [
        {
          "internalType": "contract CToken",
          "name": "cToken",
          "type": "address"
        },
        {
          "internalType": "uint256",
          "name": "newCollateralFactorMantissa",
          "type": "uint256"
        }
      ],
      "name": "_setCollateralFactor",
      "outputs": [
        {
          "internalType": "uint256",
          "name": "",
          "type": "uint256"
        }
      ],
      "payable": false,
      "stateMutability": "nonpayable",
      "type": "function"
    },
    {
      "constant": false,
      "inputs": [
        {
          "internalType": "uint256",
          "name": "compRate_",
          "type": "uint256"
        }
      ],
      "name": "_setCompRate",
      "outputs": [],
      "payable": false,
      "stateMutability": "nonpayable",
      "type": "function"
    },
    {
      "constant": false,
      "inputs": [
        {
          "internalType": "uint256",
          "name": "newLiquidationIncentiveMantissa",
          "type": "uint256"
        }
      ],
      "name": "_setLiquidationIncentive",
      "outputs": [
        {
          "internalType": "uint256",
          "name": "",
          "type": "uint256"
        }
      ],
      "payable": false,
      "stateMutability": "nonpayable",
      "type": "function"
    },
    {
      "constant": false,
      "inputs": [
        {
          "internalType": "uint256",
          "name": "newMaxAssets",
          "type": "uint256"
        }
      ],
      "name": "_setMaxAssets",
      "outputs": [
        {
          "internalType": "uint256",
          "name": "",
          "type": "uint256"
        }
      ],
      "payable": false,
      "stateMutability": "nonpayable",
      "type": "function"
    },
    {
      "constant": false,
      "inputs": [
        {
          "internalType": "contract CToken",
          "name": "cToken",
          "type": "address"
        },
        {
          "internalType": "bool",
          "name": "state",
          "type": "bool"
        }
      ],
      "name": "_setMintPaused",
      "outputs": [
        {
          "internalType": "bool",
          "name": "",
          "type": "bool"
        }
      ],
      "payable": false,
      "stateMutability": "nonpayable",
      "type": "function"
    },
    {
      "constant": false,
      "inputs": [
        {
          "internalType": "address",
          "name": "newPauseGuardian",
          "type": "address"
        }
      ],
      "name": "_setPauseGuardian",
      "outputs": [
        {
          "internalType": "uint256",
          "name": "",
          "type": "uint256"
        }
      ],
      "payable": false,
      "stateMutability": "nonpayable",
      "type": "function"
    },
    {
      "constant": false,
      "inputs": [
        {
          "internalType": "contract PriceOracle",
          "name": "newOracle",
          "type": "address"
        }
      ],
      "name": "_setPriceOracle",
      "outputs": [
        {
          "internalType": "uint256",
          "name": "",
          "type": "uint256"
        }
      ],
      "payable": false,
      "stateMutability": "nonpayable",
      "type": "function"
    },
    {
      "constant": false,
      "inputs": [
        {
          "internalType": "bool",
          "name": "state",
          "type": "bool"
        }
      ],
      "name": "_setSeizePaused",
      "outputs": [
        {
          "internalType": "bool",
          "name": "",
          "type": "bool"
        }
      ],
      "payable": false,
      "stateMutability": "nonpayable",
      "type": "function"
    },
    {
      "constant": false,
      "inputs": [
        {
          "internalType": "bool",
          "name": "state",
          "type": "bool"
        }
      ],
      "name": "_setTransferPaused",
      "outputs": [
        {
          "internalType": "bool",
          "name": "",
          "type": "bool"
        }
      ],
      "payable": false,
      "stateMutability": "nonpayable",
      "type": "function"
    },
    {
      "constant": false,
      "inputs": [
        {
          "internalType": "contract CToken",
          "name": "cToken",
          "type": "address"
        }
      ],
      "name": "_supportMarket",
      "outputs": [
        {
          "internalType": "uint256",
          "name": "",
          "type": "uint256"
        }
      ],
      "payable": false,
      "stateMutability": "nonpayable",
      "type": "function"
    },
    {
      "constant": true,
      "inputs": [
        {
          "internalType": "address",
          "name": "",
          "type": "address"
        },
        {
          "internalType": "uint256",
          "name": "",
          "type": "uint256"
        }
      ],
      "name": "accountAssets",
      "outputs": [
        {
          "internalType": "contract CToken",
          "name": "",
          "type": "address"
        }
      ],
      "payable": false,
      "stateMutability": "view",
      "type": "function"
    },
    {
      "constant": true,
      "inputs": [],
      "name": "admin",
      "outputs": [
        {
          "internalType": "address",
          "name": "",
          "type": "address"
        }
      ],
      "payable": false,
      "stateMutability": "view",
      "type": "function"
    },
    {
      "constant": true,
      "inputs": [
        {
          "internalType": "uint256",
          "name": "",
          "type": "uint256"
        }
      ],
      "name": "allMarkets",
      "outputs": [
        {
          "internalType": "contract CToken",
          "name": "",
          "type": "address"
        }
      ],
      "payable": false,
      "stateMutability": "view",
      "type": "function"
    },
    {
      "constant": true,
      "inputs": [],
      "name": "blockNumber",
      "outputs": [
        {
          "internalType": "uint256",
          "name": "",
          "type": "uint256"
        }
      ],
      "payable": false,
      "stateMutability": "view",
      "type": "function"
    },
    {
      "constant": false,
      "inputs": [
        {
          "internalType": "address",
          "name": "cToken",
          "type": "address"
        },
        {
          "internalType": "address",
          "name": "borrower",
          "type": "address"
        },
        {
          "internalType": "uint256",
          "name": "borrowAmount",
          "type": "uint256"
        }
      ],
      "name": "borrowAllowed",
      "outputs": [
        {
          "internalType": "uint256",
          "name": "",
          "type": "uint256"
        }
      ],
      "payable": false,
      "stateMutability": "nonpayable",
      "type": "function"
    },
    {
      "constant": true,
      "inputs": [
        {
          "internalType": "address",
          "name": "",
          "type": "address"
        }
      ],
      "name": "borrowGuardianPaused",
      "outputs": [
        {
          "internalType": "bool",
          "name": "",
          "type": "bool"
        }
      ],
      "payable": false,
      "stateMutability": "view",
      "type": "function"
    },
    {
      "constant": false,
      "inputs": [
        {
          "internalType": "address",
          "name": "cToken",
          "type": "address"
        },
        {
          "internalType": "address",
          "name": "borrower",
          "type": "address"
        },
        {
          "internalType": "uint256",
          "name": "borrowAmount",
          "type": "uint256"
        }
      ],
      "name": "borrowVerify",
      "outputs": [],
      "payable": false,
      "stateMutability": "nonpayable",
      "type": "function"
    },
    {
      "constant": true,
      "inputs": [
        {
          "internalType": "address",
          "name": "account",
          "type": "address"
        },
        {
          "internalType": "contract CToken",
          "name": "cToken",
          "type": "address"
        }
      ],
      "name": "checkMembership",
      "outputs": [
        {
          "internalType": "bool",
          "name": "",
          "type": "bool"
        }
      ],
      "payable": false,
      "stateMutability": "view",
      "type": "function"
    },
    {
      "constant": false,
      "inputs": [
        {
          "internalType": "address",
          "name": "holder",
          "type": "address"
        },
        {
          "internalType": "contract CToken[]",
          "name": "cTokens",
          "type": "address[]"
        }
      ],
      "name": "claimComp",
      "outputs": [],
      "payable": false,
      "stateMutability": "nonpayable",
      "type": "function"
    },
    {
      "constant": false,
      "inputs": [
        {
          "internalType": "address[]",
          "name": "holders",
          "type": "address[]"
        },
        {
          "internalType": "contract CToken[]",
          "name": "cTokens",
          "type": "address[]"
        },
        {
          "internalType": "bool",
          "name": "borrowers",
          "type": "bool"
        },
        {
          "internalType": "bool",
          "name": "suppliers",
          "type": "bool"
        }
      ],
      "name": "claimComp",
      "outputs": [],
      "payable": false,
      "stateMutability": "nonpayable",
      "type": "function"
    },
    {
      "constant": false,
      "inputs": [
        {
          "internalType": "address",
          "name": "holder",
          "type": "address"
        }
      ],
      "name": "claimComp",
      "outputs": [],
      "payable": false,
      "stateMutability": "nonpayable",
      "type": "function"
    },
    {
      "constant": true,
      "inputs": [],
      "name": "closeFactorMantissa",
      "outputs": [
        {
          "internalType": "uint256",
          "name": "",
          "type": "uint256"
        }
      ],
      "payable": false,
      "stateMutability": "view",
      "type": "function"
    },
    {
      "constant": true,
      "inputs": [
        {
          "internalType": "address",
          "name": "",
          "type": "address"
        }
      ],
      "name": "compAccrued",
      "outputs": [
        {
          "internalType": "uint256",
          "name": "",
          "type": "uint256"
        }
      ],
      "payable": false,
      "stateMutability": "view",
      "type": "function"
    },
    {
      "constant": true,
      "inputs": [
        {
          "internalType": "address",
          "name": "",
          "type": "address"
        }
      ],
      "name": "compBorrowState",
      "outputs": [
        {
          "internalType": "uint224",
          "name": "index",
          "type": "uint224"
        },
        {
          "internalType": "uint32",
          "name": "block",
          "type": "uint32"
        }
      ],
      "payable": false,
      "stateMutability": "view",
      "type": "function"
    },
    {
      "constant": true,
      "inputs": [
        {
          "internalType": "address",
          "name": "",
          "type": "address"
        },
        {
          "internalType": "address",
          "name": "",
          "type": "address"
        }
      ],
      "name": "compBorrowerIndex",
      "outputs": [
        {
          "internalType": "uint256",
          "name": "",
          "type": "uint256"
        }
      ],
      "payable": false,
      "stateMutability": "view",
      "type": "function"
    },
    {
      "constant": true,
      "inputs": [],
      "name": "compClaimThreshold",
      "outputs": [
        {
          "internalType": "uint256",
          "name": "",
          "type": "uint256"
        }
      ],
      "payable": false,
      "stateMutability": "view",
      "type": "function"
    },
    {
      "constant": true,
      "inputs": [],
      "name": "compInitialIndex",
      "outputs": [
        {
          "internalType": "uint224",
          "name": "",
          "type": "uint224"
        }
      ],
      "payable": false,
      "stateMutability": "view",
      "type": "function"
    },
    {
      "constant": true,
      "inputs": [],
      "name": "compRate",
      "outputs": [
        {
          "internalType": "uint256",
          "name": "",
          "type": "uint256"
        }
      ],
      "payable": false,
      "stateMutability": "view",
      "type": "function"
    },
    {
      "constant": true,
      "inputs": [
        {
          "internalType": "address",
          "name": "",
          "type": "address"
        }
      ],
      "name": "compSpeeds",
      "outputs": [
        {
          "internalType": "uint256",
          "name": "",
          "type": "uint256"
        }
      ],
      "payable": false,
      "stateMutability": "view",
      "type": "function"
    },
    {
      "constant": true,
      "inputs": [
        {
          "internalType": "address",
          "name": "",
          "type": "address"
        },
        {
          "internalType": "address",
          "name": "",
          "type": "address"
        }
      ],
      "name": "compSupplierIndex",
      "outputs": [
        {
          "internalType": "uint256",
          "name": "",
          "type": "uint256"
        }
      ],
      "payable": false,
      "stateMutability": "view",
      "type": "function"
    },
    {
      "constant": true,
      "inputs": [
        {
          "internalType": "address",
          "name": "",
          "type": "address"
        }
      ],
      "name": "compSupplyState",
      "outputs": [
        {
          "internalType": "uint224",
          "name": "index",
          "type": "uint224"
        },
        {
          "internalType": "uint32",
          "name": "block",
          "type": "uint32"
        }
      ],
      "payable": false,
      "stateMutability": "view",
      "type": "function"
    },
    {
      "constant": true,
      "inputs": [],
      "name": "comptrollerImplementation",
      "outputs": [
        {
          "internalType": "address",
          "name": "",
          "type": "address"
        }
      ],
      "payable": false,
      "stateMutability": "view",
      "type": "function"
    },
    {
      "constant": false,
      "inputs": [
        {
          "internalType": "address[]",
          "name": "cTokens",
          "type": "address[]"
        }
      ],
      "name": "enterMarkets",
      "outputs": [
        {
          "internalType": "uint256[]",
          "name": "",
          "type": "uint256[]"
        }
      ],
      "payable": false,
      "stateMutability": "nonpayable",
      "type": "function"
    },
    {
      "constant": false,
      "inputs": [
        {
          "internalType": "address",
          "name": "cTokenAddress",
          "type": "address"
        }
      ],
      "name": "exitMarket",
      "outputs": [
        {
          "internalType": "uint256",
          "name": "",
          "type": "uint256"
        }
      ],
      "payable": false,
      "stateMutability": "nonpayable",
      "type": "function"
    },
    {
      "constant": true,
      "inputs": [
        {
          "internalType": "address",
          "name": "account",
          "type": "address"
        }
      ],
      "name": "getAccountLiquidity",
      "outputs": [
        {
          "internalType": "uint256",
          "name": "",
          "type": "uint256"
        },
        {
          "internalType": "uint256",
          "name": "",
          "type": "uint256"
        },
        {
          "internalType": "uint256",
          "name": "",
          "type": "uint256"
        }
      ],
      "payable": false,
      "stateMutability": "view",
      "type": "function"
    },
    {
      "constant": true,
      "inputs": [],
      "name": "getAllMarkets",
      "outputs": [
        {
          "internalType": "contract CToken[]",
          "name": "",
          "type": "address[]"
        }
      ],
      "payable": false,
      "stateMutability": "view",
      "type": "function"
    },
    {
      "constant": true,
      "inputs": [
        {
          "internalType": "address",
          "name": "account",
          "type": "address"
        }
      ],
      "name": "getAssetsIn",
      "outputs": [
        {
          "internalType": "contract CToken[]",
          "name": "",
          "type": "address[]"
        }
      ],
      "payable": false,
      "stateMutability": "view",
      "type": "function"
    },
    {
      "constant": true,
      "inputs": [],
      "name": "getBlockNumber",
      "outputs": [
        {
          "internalType": "uint256",
          "name": "",
          "type": "uint256"
        }
      ],
      "payable": false,
      "stateMutability": "view",
      "type": "function"
    },
    {
      "constant": true,
      "inputs": [],
      "name": "getCompAddress",
      "outputs": [
        {
          "internalType": "address",
          "name": "",
          "type": "address"
        }
      ],
      "payable": false,
      "stateMutability": "view",
      "type": "function"
    },
    {
      "constant": true,
      "inputs": [
        {
          "internalType": "address",
          "name": "account",
          "type": "address"
        },
        {
          "internalType": "address",
          "name": "cTokenModify",
          "type": "address"
        },
        {
          "internalType": "uint256",
          "name": "redeemTokens",
          "type": "uint256"
        },
        {
          "internalType": "uint256",
          "name": "borrowAmount",
          "type": "uint256"
        }
      ],
      "name": "getHypotheticalAccountLiquidity",
      "outputs": [
        {
          "internalType": "uint256",
          "name": "",
          "type": "uint256"
        },
        {
          "internalType": "uint256",
          "name": "",
          "type": "uint256"
        },
        {
          "internalType": "uint256",
          "name": "",
          "type": "uint256"
        }
      ],
      "payable": false,
      "stateMutability": "view",
      "type": "function"
    },
    {
      "constant": true,
      "inputs": [],
      "name": "isComptroller",
      "outputs": [
        {
          "internalType": "bool",
          "name": "",
          "type": "bool"
        }
      ],
      "payable": false,
      "stateMutability": "view",
      "type": "function"
    },
    {
      "constant": false,
      "inputs": [
        {
          "internalType": "address",
          "name": "cTokenBorrowed",
          "type": "address"
        },
        {
          "internalType": "address",
          "name": "cTokenCollateral",
          "type": "address"
        },
        {
          "internalType": "address",
          "name": "liquidator",
          "type": "address"
        },
        {
          "internalType": "address",
          "name": "borrower",
          "type": "address"
        },
        {
          "internalType": "uint256",
          "name": "repayAmount",
          "type": "uint256"
        }
      ],
      "name": "liquidateBorrowAllowed",
      "outputs": [
        {
          "internalType": "uint256",
          "name": "",
          "type": "uint256"
        }
      ],
      "payable": false,
      "stateMutability": "nonpayable",
      "type": "function"
    },
    {
      "constant": false,
      "inputs": [
        {
          "internalType": "address",
          "name": "cTokenBorrowed",
          "type": "address"
        },
        {
          "internalType": "address",
          "name": "cTokenCollateral",
          "type": "address"
        },
        {
          "internalType": "address",
          "name": "liquidator",
          "type": "address"
        },
        {
          "internalType": "address",
          "name": "borrower",
          "type": "address"
        },
        {
          "internalType": "uint256",
          "name": "actualRepayAmount",
          "type": "uint256"
        },
        {
          "internalType": "uint256",
          "name": "seizeTokens",
          "type": "uint256"
        }
      ],
      "name": "liquidateBorrowVerify",
      "outputs": [],
      "payable": false,
      "stateMutability": "nonpayable",
      "type": "function"
    },
    {
      "constant": true,
      "inputs": [
        {
          "internalType": "address",
          "name": "cTokenBorrowed",
          "type": "address"
        },
        {
          "internalType": "address",
          "name": "cTokenCollateral",
          "type": "address"
        },
        {
          "internalType": "uint256",
          "name": "actualRepayAmount",
          "type": "uint256"
        }
      ],
      "name": "liquidateCalculateSeizeTokens",
      "outputs": [
        {
          "internalType": "uint256",
          "name": "",
          "type": "uint256"
        },
        {
          "internalType": "uint256",
          "name": "",
          "type": "uint256"
        }
      ],
      "payable": false,
      "stateMutability": "view",
      "type": "function"
    },
    {
      "constant": true,
      "inputs": [],
      "name": "liquidationIncentiveMantissa",
      "outputs": [
        {
          "internalType": "uint256",
          "name": "",
          "type": "uint256"
        }
      ],
      "payable": false,
      "stateMutability": "view",
      "type": "function"
    },
    {
      "constant": true,
      "inputs": [
        {
          "internalType": "address",
          "name": "",
          "type": "address"
        }
      ],
      "name": "markets",
      "outputs": [
        {
          "internalType": "bool",
          "name": "isListed",
          "type": "bool"
        },
        {
          "internalType": "uint256",
          "name": "collateralFactorMantissa",
          "type": "uint256"
        },
        {
          "internalType": "bool",
          "name": "isComped",
          "type": "bool"
        }
      ],
      "payable": false,
      "stateMutability": "view",
      "type": "function"
    },
    {
      "constant": true,
      "inputs": [],
      "name": "maxAssets",
      "outputs": [
        {
          "internalType": "uint256",
          "name": "",
          "type": "uint256"
        }
      ],
      "payable": false,
      "stateMutability": "view",
      "type": "function"
    },
    {
      "constant": false,
      "inputs": [
        {
          "internalType": "address",
          "name": "cToken",
          "type": "address"
        },
        {
          "internalType": "address",
          "name": "minter",
          "type": "address"
        },
        {
          "internalType": "uint256",
          "name": "mintAmount",
          "type": "uint256"
        }
      ],
      "name": "mintAllowed",
      "outputs": [
        {
          "internalType": "uint256",
          "name": "",
          "type": "uint256"
        }
      ],
      "payable": false,
      "stateMutability": "nonpayable",
      "type": "function"
    },
    {
      "constant": true,
      "inputs": [
        {
          "internalType": "address",
          "name": "",
          "type": "address"
        }
      ],
      "name": "mintGuardianPaused",
      "outputs": [
        {
          "internalType": "bool",
          "name": "",
          "type": "bool"
        }
      ],
      "payable": false,
      "stateMutability": "view",
      "type": "function"
    },
    {
      "constant": false,
      "inputs": [
        {
          "internalType": "address",
          "name": "cToken",
          "type": "address"
        },
        {
          "internalType": "address",
          "name": "minter",
          "type": "address"
        },
        {
          "internalType": "uint256",
          "name": "actualMintAmount",
          "type": "uint256"
        },
        {
          "internalType": "uint256",
          "name": "mintTokens",
          "type": "uint256"
        }
      ],
      "name": "mintVerify",
      "outputs": [],
      "payable": false,
      "stateMutability": "nonpayable",
      "type": "function"
    },
    {
      "constant": true,
      "inputs": [],
      "name": "oracle",
      "outputs": [
        {
          "internalType": "contract PriceOracle",
          "name": "",
          "type": "address"
        }
      ],
      "payable": false,
      "stateMutability": "view",
      "type": "function"
    },
    {
      "constant": true,
      "inputs": [],
      "name": "pauseGuardian",
      "outputs": [
        {
          "internalType": "address",
          "name": "",
          "type": "address"
        }
      ],
      "payable": false,
      "stateMutability": "view",
      "type": "function"
    },
    {
      "constant": true,
      "inputs": [],
      "name": "pendingAdmin",
      "outputs": [
        {
          "internalType": "address",
          "name": "",
          "type": "address"
        }
      ],
      "payable": false,
      "stateMutability": "view",
      "type": "function"
    },
    {
      "constant": true,
      "inputs": [],
      "name": "pendingComptrollerImplementation",
      "outputs": [
        {
          "internalType": "address",
          "name": "",
          "type": "address"
        }
      ],
      "payable": false,
      "stateMutability": "view",
      "type": "function"
    },
    {
      "constant": false,
      "inputs": [
        {
          "internalType": "address",
          "name": "cToken",
          "type": "address"
        },
        {
          "internalType": "address",
          "name": "redeemer",
          "type": "address"
        },
        {
          "internalType": "uint256",
          "name": "redeemTokens",
          "type": "uint256"
        }
      ],
      "name": "redeemAllowed",
      "outputs": [
        {
          "internalType": "uint256",
          "name": "",
          "type": "uint256"
        }
      ],
      "payable": false,
      "stateMutability": "nonpayable",
      "type": "function"
    },
    {
      "constant": false,
      "inputs": [
        {
          "internalType": "address",
          "name": "cToken",
          "type": "address"
        },
        {
          "internalType": "address",
          "name": "redeemer",
          "type": "address"
        },
        {
          "internalType": "uint256",
          "name": "redeemAmount",
          "type": "uint256"
        },
        {
          "internalType": "uint256",
          "name": "redeemTokens",
          "type": "uint256"
        }
      ],
      "name": "redeemVerify",
      "outputs": [],
      "payable": false,
      "stateMutability": "nonpayable",
      "type": "function"
    },
    {
      "constant": false,
      "inputs": [],
      "name": "refreshCompSpeeds",
      "outputs": [],
      "payable": false,
      "stateMutability": "nonpayable",
      "type": "function"
    },
    {
      "constant": false,
      "inputs": [
        {
          "internalType": "address",
          "name": "cToken",
          "type": "address"
        },
        {
          "internalType": "address",
          "name": "payer",
          "type": "address"
        },
        {
          "internalType": "address",
          "name": "borrower",
          "type": "address"
        },
        {
          "internalType": "uint256",
          "name": "repayAmount",
          "type": "uint256"
        }
      ],
      "name": "repayBorrowAllowed",
      "outputs": [
        {
          "internalType": "uint256",
          "name": "",
          "type": "uint256"
        }
      ],
      "payable": false,
      "stateMutability": "nonpayable",
      "type": "function"
    },
    {
      "constant": false,
      "inputs": [
        {
          "internalType": "address",
          "name": "cToken",
          "type": "address"
        },
        {
          "internalType": "address",
          "name": "payer",
          "type": "address"
        },
        {
          "internalType": "address",
          "name": "borrower",
          "type": "address"
        },
        {
          "internalType": "uint256",
          "name": "actualRepayAmount",
          "type": "uint256"
        },
        {
          "internalType": "uint256",
          "name": "borrowerIndex",
          "type": "uint256"
        }
      ],
      "name": "repayBorrowVerify",
      "outputs": [],
      "payable": false,
      "stateMutability": "nonpayable",
      "type": "function"
    },
    {
      "constant": false,
      "inputs": [
        {
          "internalType": "address",
          "name": "cTokenCollateral",
          "type": "address"
        },
        {
          "internalType": "address",
          "name": "cTokenBorrowed",
          "type": "address"
        },
        {
          "internalType": "address",
          "name": "liquidator",
          "type": "address"
        },
        {
          "internalType": "address",
          "name": "borrower",
          "type": "address"
        },
        {
          "internalType": "uint256",
          "name": "seizeTokens",
          "type": "uint256"
        }
      ],
      "name": "seizeAllowed",
      "outputs": [
        {
          "internalType": "uint256",
          "name": "",
          "type": "uint256"
        }
      ],
      "payable": false,
      "stateMutability": "nonpayable",
      "type": "function"
    },
    {
      "constant": true,
      "inputs": [],
      "name": "seizeGuardianPaused",
      "outputs": [
        {
          "internalType": "bool",
          "name": "",
          "type": "bool"
        }
      ],
      "payable": false,
      "stateMutability": "view",
      "type": "function"
    },
    {
      "constant": false,
      "inputs": [
        {
          "internalType": "address",
          "name": "cTokenCollateral",
          "type": "address"
        },
        {
          "internalType": "address",
          "name": "cTokenBorrowed",
          "type": "address"
        },
        {
          "internalType": "address",
          "name": "liquidator",
          "type": "address"
        },
        {
          "internalType": "address",
          "name": "borrower",
          "type": "address"
        },
        {
          "internalType": "uint256",
          "name": "seizeTokens",
          "type": "uint256"
        }
      ],
      "name": "seizeVerify",
      "outputs": [],
      "payable": false,
      "stateMutability": "nonpayable",
      "type": "function"
    },
    {
      "constant": false,
      "inputs": [
        {
          "internalType": "address",
          "name": "cToken",
          "type": "address"
        },
        {
          "internalType": "address",
          "name": "src",
          "type": "address"
        },
        {
          "internalType": "address",
          "name": "dst",
          "type": "address"
        },
        {
          "internalType": "uint256",
          "name": "transferTokens",
          "type": "uint256"
        }
      ],
      "name": "transferAllowed",
      "outputs": [
        {
          "internalType": "uint256",
          "name": "",
          "type": "uint256"
        }
      ],
      "payable": false,
      "stateMutability": "nonpayable",
      "type": "function"
    },
    {
      "constant": true,
      "inputs": [],
      "name": "transferGuardianPaused",
      "outputs": [
        {
          "internalType": "bool",
          "name": "",
          "type": "bool"
        }
      ],
      "payable": false,
      "stateMutability": "view",
      "type": "function"
    },
    {
      "constant": false,
      "inputs": [
        {
          "internalType": "address",
          "name": "cToken",
          "type": "address"
        },
        {
          "internalType": "address",
          "name": "src",
          "type": "address"
        },
        {
          "internalType": "address",
          "name": "dst",
          "type": "address"
        },
        {
          "internalType": "uint256",
          "name": "transferTokens",
          "type": "uint256"
        }
      ],
      "name": "transferVerify",
      "outputs": [],
      "payable": false,
      "stateMutability": "nonpayable",
      "type": "function"
    },
    {
      "constant": false,
      "inputs": [
        {
          "internalType": "uint256",
          "name": "blocks",
          "type": "uint256"
        }
      ],
      "name": "fastForward",
      "outputs": [
        {
          "internalType": "uint256",
          "name": "",
          "type": "uint256"
        }
      ],
      "payable": false,
      "stateMutability": "nonpayable",
      "type": "function"
    },
    {
      "constant": false,
      "inputs": [
        {
          "internalType": "uint256",
          "name": "number",
          "type": "uint256"
        }
      ],
      "name": "setBlockNumber",
      "outputs": [],
      "payable": false,
      "stateMutability": "nonpayable",
      "type": "function"
    },
    {
      "constant": true,
      "inputs": [
        {
          "internalType": "contract CToken",
          "name": "cToken",
          "type": "address"
        }
      ],
      "name": "membershipLength",
      "outputs": [
        {
          "internalType": "uint256",
          "name": "",
          "type": "uint256"
        }
      ],
      "payable": false,
      "stateMutability": "view",
      "type": "function"
    },
    {
      "constant": false,
      "inputs": [
        {
          "internalType": "contract CToken",
          "name": "cToken",
          "type": "address"
        }
      ],
      "name": "unlist",
      "outputs": [],
      "payable": false,
      "stateMutability": "nonpayable",
      "type": "function"
    }
  ],
  "bytecode": "0x608060405234801561001057600080fd5b50600080546001600160a01b03191633179055615fb480620000336000396000f3fe608060405234801561001057600080fd5b506004361061045e5760003560e01c8063747026c91161024c578063bdcdc25811610146578063dce15449116100c3578063e9af029211610087578063e9af0292146113c1578063eabe7d91146113e7578063ede4edd01461141d578063f851a44014611443578063fccbe7f61461144b5761045e565b8063dce1544914611351578063dcfbc0c71461137d578063e4028eee14611385578063e6653f3d146113b1578063e8755446146113b95761045e565b8063cc7ebdc41161010a578063cc7ebdc4146111f1578063ce485c5e14611217578063d02f7351146112b8578063d9226ced146112fe578063da3d454c1461131b5761045e565b8063bdcdc25814611071578063bde3672d146110ad578063c2998238146110d3578063c488847b14611174578063ca0af043146111c35761045e565b80639d1b5a0a116101d4578063abfceffc11610198578063abfceffc14610fb5578063ac0b0bb71461102b578063b0772d0b14611033578063b21be7fd1461103b578063bb82aa5e146110695761045e565b80639d1b5a0a14610f3e578063a76b3fda14610f46578063a7f0e23114610f6c578063a8c3c85014610f90578063aa90075414610fad5761045e565b80638e8f294b1161021b5780638e8f294b14610d695780638ebf636414610db1578063929fe9a114610dd057806394b2294b14610dfe578063992c529414610e065761045e565b8063747026c914610d2b5780637dc0d1d014610d3357806387f7630314610d3b5780638c57804e14610d435761045e565b80634d8e50371161035d5780635ec88c79116102e55780636a56947e116102a95780636a56947e14610c0f5780636b79c38d14610c4b5780636d154ea514610c995780636d35bf9114610cbf578063731f0c2b14610d055761045e565b80635ec88c7914610a345780635f5af1aa14610a5a5780635fc7e71e14610a805780636810dfa614610ac65780636a49111214610bf25761045e565b806351dff9891161032c57806351dff9891461097757806352d84d1e146109b357806355ee1fe1146109d057806357e871e7146109f65780635c778605146109fe5761045e565b80634d8e5037146108c25780634e79238f146108ca5780634ef4c3e1146109245780634fd42e171461095a5761045e565b80632d70db78116103eb57806341c728b9116103af57806341c728b91461080457806342cbb15c1461084057806347ef3b3b146108485780634ada90af146108945780634bca0d8c1461089c5761045e565b80632d70db781461076c578063317b0b771461078b5780633aa729b4146107a85780633bcf7ec1146107ce5780633c94786f146107fc5761045e565b80631ededc91116104325780631ededc91146105985780632327c7df146105da57806324008a621461070457806324a3d6221461074057806326782247146107645761045e565b80627e3dd21461046357806318c882a51461047f5780631c3db2e0146104ad5780631d7b33d714610560575b600080fd5b61046b611468565b604080519115158252519081900360200190f35b61046b6004803603604081101561049557600080fd5b506001600160a01b038135169060200135151561146d565b61055e600480360360408110156104c357600080fd5b6001600160a01b038235169190810190604081016020820135600160201b8111156104ed57600080fd5b8201836020820111156104ff57600080fd5b803590602001918460208302840111600160201b8311171561052057600080fd5b91908080602002602001604051908101604052809392919081815260200183836020028082843760009201919091525092955061160d945050505050565b005b6105866004803603602081101561057657600080fd5b50356001600160a01b031661166f565b60408051918252519081900360200190f35b61055e600480360360a08110156105ae57600080fd5b506001600160a01b03813581169160208101358216916040820135169060608101359060800135611681565b61055e600480360360608110156105f057600080fd5b81359190810190604081016020820135600160201b81111561061157600080fd5b82018360208201111561062357600080fd5b803590602001918460208302840111600160201b8311171561064457600080fd5b9190808060200260200160405190810160405280939291908181526020018383602002808284376000920191909152509295949360208101935035915050600160201b81111561069357600080fd5b8201836020820111156106a557600080fd5b803590602001918460208302840111600160201b831117156106c657600080fd5b919080806020026020016040519081016040528093929190818152602001838360200280828437600092019190915250929550611688945050505050565b6105866004803603608081101561071a57600080fd5b506001600160a01b0381358116916020810135821691604082013516906060013561174e565b610748611817565b604080516001600160a01b039092168252519081900360200190f35b610748611826565b61046b6004803603602081101561078257600080fd5b50351515611835565b610586600480360360208110156107a157600080fd5b503561196f565b61055e600480360360208110156107be57600080fd5b50356001600160a01b0316611a80565b61046b600480360360408110156107e457600080fd5b506001600160a01b0381351690602001351515611bb1565b61046b611d4c565b61055e6004803603608081101561081a57600080fd5b506001600160a01b03813581169160208101359091169060408101359060600135611d5c565b610586611d62565b61055e600480360360c081101561085e57600080fd5b506001600160a01b0381358116916020810135821691604082013581169160608101359091169060808101359060a00135611d67565b610586611d6f565b610586600480360360208110156108b257600080fd5b50356001600160a01b0316611d75565b61055e611d90565b610906600480360360808110156108e057600080fd5b506001600160a01b038135811691602081013590911690604081013590606001356121e2565b60408051938452602084019290925282820152519081900360600190f35b6105866004803603606081101561093a57600080fd5b506001600160a01b0381358116916020810135909116906040013561221c565b6105866004803603602081101561097057600080fd5b50356122c7565b61055e6004803603608081101561098d57600080fd5b506001600160a01b038135811691602081013590911690604081013590606001356123bb565b610748600480360360208110156109c957600080fd5b503561240f565b610586600480360360208110156109e657600080fd5b50356001600160a01b0316612436565b6105866124bd565b61055e60048036036060811015610a1457600080fd5b506001600160a01b038135811691602081013590911690604001356124c3565b61090660048036036020811015610a4a57600080fd5b50356001600160a01b03166124c8565b61058660048036036020811015610a7057600080fd5b50356001600160a01b03166124fd565b610586600480360360a0811015610a9657600080fd5b506001600160a01b0381358116916020810135821691604082013581169160608101359091169060800135612581565b61055e60048036036080811015610adc57600080fd5b810190602081018135600160201b811115610af657600080fd5b820183602082011115610b0857600080fd5b803590602001918460208302840111600160201b83111715610b2957600080fd5b9190808060200260200160405190810160405280939291908181526020018383602002808284376000920191909152509295949360208101935035915050600160201b811115610b7857600080fd5b820183602082011115610b8a57600080fd5b803590602001918460208302840111600160201b83111715610bab57600080fd5b919080806020026020016040519081016040528093929190818152602001838360200280828437600092019190915250929550505050803515159150602001351515612708565b61055e60048036036020811015610c0857600080fd5b50356128b1565b61055e60048036036080811015610c2557600080fd5b506001600160a01b03813581169160208101358216916040820135169060600135611d5c565b610c7160048036036020811015610c6157600080fd5b50356001600160a01b0316612955565b604080516001600160e01b03909316835263ffffffff90911660208301528051918290030190f35b61046b60048036036020811015610caf57600080fd5b50356001600160a01b031661297f565b61055e600480360360a0811015610cd557600080fd5b506001600160a01b0381358116916020810135821691604082013581169160608101359091169060800135611681565b61046b60048036036020811015610d1b57600080fd5b50356001600160a01b0316612994565b6105866129a9565b6107486129b4565b61046b6129c3565b610c7160048036036020811015610d5957600080fd5b50356001600160a01b03166129d3565b610d8f60048036036020811015610d7f57600080fd5b50356001600160a01b03166129fd565b6040805193151584526020840192909252151582820152519081900360600190f35b61046b60048036036020811015610dc757600080fd5b50351515612a23565b61046b60048036036040811015610de657600080fd5b506001600160a01b0381358116916020013516612b5c565b610586612b8f565b61055e60048036036080811015610e1c57600080fd5b6001600160a01b0382351691602081013591810190606081016040820135600160201b811115610e4b57600080fd5b820183602082011115610e5d57600080fd5b803590602001918460208302840111600160201b83111715610e7e57600080fd5b9190808060200260200160405190810160405280939291908181526020018383602002808284376000920191909152509295949360208101935035915050600160201b811115610ecd57600080fd5b820183602082011115610edf57600080fd5b803590602001918460208302840111600160201b83111715610f0057600080fd5b919080806020026020016040519081016040528093929190818152602001838360200280828437600092019190915250929550612b95945050505050565b610748612de1565b61058660048036036020811015610f5c57600080fd5b50356001600160a01b0316612df9565b610f74612f56565b604080516001600160e01b039092168252519081900360200190f35b61055e60048036036020811015610fa657600080fd5b5035612f69565b610586612f6e565b610fdb60048036036020811015610fcb57600080fd5b50356001600160a01b0316612f74565b60408051602080825283518183015283519192839290830191858101910280838360005b83811015611017578181015183820152602001610fff565b505050509050019250505060405180910390f35b61046b612ffd565b610fdb61300d565b6105866004803603604081101561105157600080fd5b506001600160a01b038135811691602001351661306f565b61074861308c565b6105866004803603608081101561108757600080fd5b506001600160a01b0381358116916020810135821691604082013516906060013561309b565b61055e600480360360208110156110c357600080fd5b50356001600160a01b031661312f565b610fdb600480360360208110156110e957600080fd5b810190602081018135600160201b81111561110357600080fd5b82018360208201111561111557600080fd5b803590602001918460208302840111600160201b8311171561113657600080fd5b919080806020026020016040519081016040528093929190818152602001838360200280828437600092019190915250929550613150945050505050565b6111aa6004803603606081101561118a57600080fd5b506001600160a01b038135811691602081013590911690604001356131e7565b6040805192835260208301919091528051918290030190f35b610586600480360360408110156111d957600080fd5b506001600160a01b038135811691602001351661345c565b6105866004803603602081101561120757600080fd5b50356001600160a01b0316613479565b61055e6004803603602081101561122d57600080fd5b810190602081018135600160201b81111561124757600080fd5b82018360208201111561125957600080fd5b803590602001918460208302840111600160201b8311171561127a57600080fd5b91908080602002602001604051908101604052809392919081815260200183836020028082843760009201919091525092955061348b945050505050565b610586600480360360a08110156112ce57600080fd5b506001600160a01b0381358116916020810135821691604082013581169160608101359091169060800135613520565b6105866004803603602081101561131457600080fd5b50356136d8565b6105866004803603606081101561133157600080fd5b506001600160a01b03813581169160208101359091169060400135613741565b6107486004803603604081101561136757600080fd5b506001600160a01b038135169060200135613a2e565b610748613a63565b6105866004803603604081101561139b57600080fd5b506001600160a01b038135169060200135613a72565b61046b613c22565b610586613c32565b61055e600480360360208110156113d757600080fd5b50356001600160a01b0316613c38565b610586600480360360608110156113fd57600080fd5b506001600160a01b03813581169160208101359091169060400135613c9c565b6105866004803603602081101561143357600080fd5b50356001600160a01b0316613cd9565b610748613fec565b6105866004803603602081101561146157600080fd5b5035613ffb565b600181565b6001600160a01b03821660009081526009602052604081205460ff166114c45760405162461bcd60e51b8152600401808060200182810382526028815260200180615ec56028913960400191505060405180910390fd5b600a546001600160a01b03163314806114e757506000546001600160a01b031633145b6115225760405162461bcd60e51b8152600401808060200182810382526027815260200180615eed6027913960400191505060405180910390fd5b6000546001600160a01b031633148061153d57506001821515145b611587576040805162461bcd60e51b81526020600482015260166024820152756f6e6c792061646d696e2063616e20756e706175736560501b604482015290519081900360640190fd5b6001600160a01b0383166000818152600c6020908152604091829020805486151560ff199091168117909155825193845283830152606090830181905260069083015265426f72726f7760d01b6080830152517f71aec636243f9709bb0007ae15e9afb8150ab01716d75fd7573be5cc096e03b09181900360a00190a150805b92915050565b60408051600180825281830190925260609160208083019080388339019050509050828160008151811061163d57fe5b60200260200101906001600160a01b031690816001600160a01b03168152505061166a8183600180612708565b505050565b600f6020526000908152604090205481565b5050505050565b6002546001600160a01b031633146116e7576040805162461bcd60e51b815260206004820152601d60248201527f6f6e6c7920627261696e732063616e206265636f6d6520697473656c66000000604482015290519081900360640190fd5b60005b82518110156117175761170f83828151811061170257fe5b602002602001015161400a565b6001016116ea565b5060005b815181101561173b5761173382828151811061170257fe5b60010161171b565b50611745836128b1565b61166a8261348b565b6001600160a01b03841660009081526009602052604081205460ff166117765750600961180f565b61177e615e05565b6040518060200160405280876001600160a01b031663aa5af0fd6040518163ffffffff1660e01b815260040160206040518083038186803b1580156117c257600080fd5b505afa1580156117d6573d6000803e3d6000fd5b505050506040513d60208110156117ec57600080fd5b5051905290506117fc86826140e8565b6118098685836000614370565b60009150505b949350505050565b600a546001600160a01b031681565b6001546001600160a01b031681565b600a546000906001600160a01b031633148061185b57506000546001600160a01b031633145b6118965760405162461bcd60e51b8152600401808060200182810382526027815260200180615eed6027913960400191505060405180910390fd5b6000546001600160a01b03163314806118b157506001821515145b6118fb576040805162461bcd60e51b81526020600482015260166024820152756f6e6c792061646d696e2063616e20756e706175736560501b604482015290519081900360640190fd5b600a8054831515600160b81b810260ff60b81b1990921691909117909155604080516020810192909252808252600582820152645365697a6560d81b6060830152517fef159d9a32b2472e32b098f954f3ce62d232939f1c207070b584df1814de2de09181900360800190a150805b919050565b600080546001600160a01b031633146119955761198e6001600461455b565b905061196a565b61199d615e05565b5060408051602081019091528281526119b4615e05565b50604080516020810190915266b1a2bc2ec5000081526119d482826145c1565b156119ed576119e460058061455b565b9250505061196a565b6119f5615e05565b506040805160208101909152670c7d713b49da00008152611a1681846145c9565b15611a3057611a2660058061455b565b935050505061196a565b6005805490869055604080518281526020810188905281517f3b9670cf975d26958e754b57098eaa2ac914d8d2a31b83257997b9f346110fd9929181900390910190a160005b9695505050505050565b6000546001600160a01b03163314611adf576040805162461bcd60e51b815260206004820152601f60248201527f6f6e6c792061646d696e2063616e2064726f7020636f6d70206d61726b657400604482015290519081900360640190fd5b6001600160a01b0381166000908152600960205260409020600381015460ff161515600114611b55576040805162461bcd60e51b815260206004820152601b60248201527f6d61726b6574206973206e6f74206120636f6d70206d61726b65740000000000604482015290519081900360640190fd5b60038101805460ff19169055604080516001600160a01b03841681526000602082015281517f93c1f3e36ed71139f466a4ce8c9751790e2e33f5afb2df0dcfb3aeabe55d5aa2929181900390910190a1611bad611d90565b5050565b6001600160a01b03821660009081526009602052604081205460ff16611c085760405162461bcd60e51b8152600401808060200182810382526028815260200180615ec56028913960400191505060405180910390fd5b600a546001600160a01b0316331480611c2b57506000546001600160a01b031633145b611c665760405162461bcd60e51b8152600401808060200182810382526027815260200180615eed6027913960400191505060405180910390fd5b6000546001600160a01b0316331480611c8157506001821515145b611ccb576040805162461bcd60e51b81526020600482015260166024820152756f6e6c792061646d696e2063616e20756e706175736560501b604482015290519081900360640190fd5b6001600160a01b0383166000818152600b6020908152604091829020805486151560ff199091168117909155825193845283830152606090830181905260049083015263135a5b9d60e21b6080830152517f71aec636243f9709bb0007ae15e9afb8150ab01716d75fd7573be5cc096e03b09181900360a00190a150919050565b600a54600160a01b900460ff1681565b50505050565b435b90565b505050505050565b60065481565b6001600160a01b031660009081526008602052604090205490565b6060600d805480602002602001604051908101604052809291908181526020018280548015611de857602002820191906000526020600020905b81546001600160a01b03168152600190910190602001808311611dca575b50939450600093505050505b8151811015611eae576000828281518110611e0b57fe5b60200260200101519050611e1d615e05565b6040518060200160405280836001600160a01b031663aa5af0fd6040518163ffffffff1660e01b815260040160206040518083038186803b158015611e6157600080fd5b505afa158015611e75573d6000803e3d6000fd5b505050506040513d6020811015611e8b57600080fd5b505190529050611e9a826145d0565b611ea482826140e8565b5050600101611df4565b50611eb7615e05565b60405180602001604052806000815250905060608251604051908082528060200260200182016040528015611f0657816020015b611ef3615e05565b815260200190600190039081611eeb5790505b50905060005b8351811015612119576000848281518110611f2357fe5b6020908102919091018101516001600160a01b0381166000908152600990925260409091206003015490915060ff161561211057611f5f615e05565b60408051602080820180845260045463fc57d4df60e01b9091526001600160a01b03868116602485015293519293849391169163fc57d4df916044808601929190818703018186803b158015611fb457600080fd5b505afa158015611fc8573d6000803e3d6000fd5b505050506040513d6020811015611fde57600080fd5b505190529050611fec615e05565b6120d26040518060200160405280856001600160a01b031663f8f9da286040518163ffffffff1660e01b815260040160206040518083038186803b15801561203357600080fd5b505afa158015612047573d6000803e3d6000fd5b505050506040513d602081101561205d57600080fd5b50519052604080516308f7a6e360e31b815290516001600160a01b038716916347bd3718916004808301926020929190829003018186803b1580156120a157600080fd5b505afa1580156120b5573d6000803e3d6000fd5b505050506040513d60208110156120cb57600080fd5b505161484e565b90506120dc615e05565b6120e68284614878565b9050808686815181106120f557fe5b602002602001018190525061210a87826148b7565b96505050505b50600101611f0c565b5060005b8351811015611d5c576000600d828154811061213557fe5b600091825260208220015485516001600160a01b03909116925061215a576000612182565b612182600e5461217d86868151811061216f57fe5b6020026020010151886148dc565b61490f565b6001600160a01b0383166000818152600f60209081526040918290208490558151848152915193945091927f2ab93f65628379309f36cb125e90d7c902454a545c4f8b8cb0794af75c24b807929181900390910190a2505060010161211d565b6000806000806000806121f78a8a8a8a614937565b92509250925082601181111561220957fe5b95509093509150505b9450945094915050565b6001600160a01b0383166000908152600b602052604081205460ff161561227b576040805162461bcd60e51b815260206004820152600e60248201526d1b5a5b9d081a5cc81c185d5cd95960921b604482015290519081900360640190fd5b6001600160a01b03841660009081526009602052604090205460ff166122a55760095b90506122c0565b6122ae846145d0565b6122ba84846000614d52565b60005b90505b9392505050565b600080546001600160a01b031633146122e65761198e6001600b61455b565b6122ee615e05565b506040805160208101909152828152612305615e05565b506040805160208101909152670de0b6b3a7640000815261232682826145c9565b15612337576119e46007600c61455b565b61233f615e05565b5060408051602081019091526714d1120d7b160000815261236081846145c9565b1561237157611a266007600c61455b565b6006805490869055604080518281526020810188905281517faeba5a6c40a8ac138134bff1aaa65debf25971188a58804bad717f82f0ec1316929181900390910190a16000611a76565b801580156123c95750600082115b15611d5c576040805162461bcd60e51b815260206004820152601160248201527072656465656d546f6b656e73207a65726f60781b604482015290519081900360640190fd5b600d818154811061241c57fe5b6000918252602090912001546001600160a01b0316905081565b600080546001600160a01b031633146124555761198e6001601061455b565b600480546001600160a01b038481166001600160a01b0319831681179093556040805191909216808252602082019390935281517fd52b2b9b7e9ee655fcb95d2e5b9e0c9f69e7ef2b8e9d2d0ea78402d576d22e22929181900390910190a160009392505050565b60155481565b61166a565b6000806000806000806124df876000806000614937565b9250925092508260118111156124f157fe5b97919650945092505050565b600080546001600160a01b0316331461251c5761198e6001601361455b565b600a80546001600160a01b038481166001600160a01b0319831617928390556040805192821680845293909116602083015280517f0613b6ee6a04f0d09f390e4d9318894b9f6ac7fd83897cd8d18896ba579c401e9281900390910190a160006122c0565b6001600160a01b03851660009081526009602052604081205460ff1615806125c257506001600160a01b03851660009081526009602052604090205460ff16155b156125d15760095b90506126ff565b6000806125dd85614f4a565b919350909150600090508260118111156125f357fe5b1461260d5781601181111561260457fe5b925050506126ff565b80612619576003612604565b6000886001600160a01b03166395dd9193876040518263ffffffff1660e01b815260040180826001600160a01b03166001600160a01b0316815260200191505060206040518083038186803b15801561267157600080fd5b505afa158015612685573d6000803e3d6000fd5b505050506040513d602081101561269b57600080fd5b50516040805160208101909152600554815290915060009081906126bf9084614f6a565b909250905060008260038111156126d257fe5b146126e657600b5b955050505050506126ff565b808711156126f55760116126da565b6000955050505050505b95945050505050565b60005b835181101561168157600084828151811061272257fe5b6020908102919091018101516001600160a01b0381166000908152600990925260409091205490915060ff16612797576040805162461bcd60e51b81526020600482015260156024820152741b585c9ad95d081b5d5cdd081899481b1a5cdd1959605a1b604482015290519081900360640190fd5b6001841515141561285f576127aa615e05565b6040518060200160405280836001600160a01b031663aa5af0fd6040518163ffffffff1660e01b815260040160206040518083038186803b1580156127ee57600080fd5b505afa158015612802573d6000803e3d6000fd5b505050506040513d602081101561281857600080fd5b50519052905061282882826140e8565b60005b875181101561285c576128548389838151811061284457fe5b6020026020010151846001614370565b60010161282b565b50505b600183151514156128a857612873816145d0565b60005b86518110156128a65761289e8288838151811061288f57fe5b60200260200101516001614d52565b600101612876565b505b5060010161270b565b6128b9614fbe565b61290a576040805162461bcd60e51b815260206004820152601f60248201527f6f6e6c792061646d696e2063616e206368616e676520636f6d70207261746500604482015290519081900360640190fd5b600e805490829055604080518281526020810184905281517fc227c9272633c3a307d9845bf2bc2509cefb20d655b5f3c1002d8e1e3f22c8b0929181900390910190a1611bad611d90565b6010602052600090815260409020546001600160e01b03811690600160e01b900463ffffffff1682565b600c6020526000908152604090205460ff1681565b600b6020526000908152604090205460ff1681565b66038d7ea4c6800081565b6004546001600160a01b031681565b600a54600160b01b900460ff1681565b6011602052600090815260409020546001600160e01b03811690600160e01b900463ffffffff1682565b60096020526000908152604090208054600182015460039092015460ff91821692911683565b600a546000906001600160a01b0316331480612a4957506000546001600160a01b031633145b612a845760405162461bcd60e51b8152600401808060200182810382526027815260200180615eed6027913960400191505060405180910390fd5b6000546001600160a01b0316331480612a9f57506001821515145b612ae9576040805162461bcd60e51b81526020600482015260166024820152756f6e6c792061646d696e2063616e20756e706175736560501b604482015290519081900360640190fd5b600a8054831515600160b01b810260ff60b01b1990921691909117909155604080516020810192909252808252600882820152672a3930b739b332b960c11b6060830152517fef159d9a32b2472e32b098f954f3ce62d232939f1c207070b584df1814de2de09181900360800190a15090565b6001600160a01b038082166000908152600960209081526040808320938616835260029093019052205460ff1692915050565b60075481565b836001600160a01b031663f851a4406040518163ffffffff1660e01b815260040160206040518083038186803b158015612bce57600080fd5b505afa158015612be2573d6000803e3d6000fd5b505050506040513d6020811015612bf857600080fd5b50516001600160a01b03163314612c405760405162461bcd60e51b8152600401808060200182810382526027815260200180615f596027913960400191505060405180910390fd5b836001600160a01b031663c1e803346040518163ffffffff1660e01b8152600401602060405180830381600087803b158015612c7b57600080fd5b505af1158015612c8f573d6000803e3d6000fd5b505050506040513d6020811015612ca557600080fd5b505115612cf1576040805162461bcd60e51b815260206004820152601560248201527418da185b99d9481b9bdd08185d5d1a1bdc9a5e9959605a1b604482015290519081900360640190fd5b836001600160a01b0316632327c7df8484846040518463ffffffff1660e01b8152600401808481526020018060200180602001838103835285818151815260200191508051906020019060200280838360005b83811015612d5c578181015183820152602001612d44565b50505050905001838103825284818151815260200191508051906020019060200280838360005b83811015612d9b578181015183820152602001612d83565b5050505090500195505050505050600060405180830381600087803b158015612dc357600080fd5b505af1158015612dd7573d6000803e3d6000fd5b5050505050505050565b73c00e94cb662c3520282e6f5717214004a7f2688890565b600080546001600160a01b03163314612e185761198e6001601261455b565b6001600160a01b03821660009081526009602052604090205460ff1615612e455761198e600a601161455b565b816001600160a01b031663fe9c44ae6040518163ffffffff1660e01b815260040160206040518083038186803b158015612e7e57600080fd5b505afa158015612e92573d6000803e3d6000fd5b505050506040513d6020811015612ea857600080fd5b5050604080516060810182526001808252600060208381018281528486018381526001600160a01b03891684526009909252949091209251835490151560ff19918216178455935191830191909155516003909101805491151591909216179055612f128261400a565b604080516001600160a01b038416815290517fcf583bb0c569eb967f806b11601c4cb93c10310485c67add5f8362c2f212321f9181900360200190a1600092915050565b6ec097ce7bc90715b34b9f100000000081565b601555565b600e5481565b60608060086000846001600160a01b03166001600160a01b03168152602001908152602001600020805480602002602001604051908101604052809291908181526020018280548015612ff057602002820191906000526020600020905b81546001600160a01b03168152600190910190602001808311612fd2575b5093979650505050505050565b600a54600160b81b900460ff1681565b6060600d80548060200260200160405190810160405280929190818152602001828054801561306557602002820191906000526020600020905b81546001600160a01b03168152600190910190602001808311613047575b5050505050905090565b601260209081526000928352604080842090915290825290205481565b6002546001600160a01b031681565b600a54600090600160b01b900460ff16156130f2576040805162461bcd60e51b81526020600482015260126024820152711d1c985b9cd9995c881a5cc81c185d5cd95960721b604482015290519081900360640190fd5b60006130ff868685614fe7565b9050801561310e57905061180f565b613117866145d0565b61312386866000614d52565b61180986856000614d52565b6001600160a01b03166000908152600960205260409020805460ff19169055565b6060600082519050606081604051908082528060200260200182016040528015613184578160200160208202803883390190505b50905060005b828110156131df5760008582815181106131a057fe5b602002602001015190506131b4813361508a565b60118111156131bf57fe5b8383815181106131cb57fe5b60209081029190910101525060010161318a565b509392505050565b600480546040805163fc57d4df60e01b81526001600160a01b038781169482019490945290516000938493849391169163fc57d4df91602480820192602092909190829003018186803b15801561323d57600080fd5b505afa158015613251573d6000803e3d6000fd5b505050506040513d602081101561326757600080fd5b5051600480546040805163fc57d4df60e01b81526001600160a01b038a8116948201949094529051939450600093929091169163fc57d4df91602480820192602092909190829003018186803b1580156132c057600080fd5b505afa1580156132d4573d6000803e3d6000fd5b505050506040513d60208110156132ea57600080fd5b505190508115806132f9575080155b1561330e57600d935060009250613454915050565b6000866001600160a01b031663182df0f56040518163ffffffff1660e01b815260040160206040518083038186803b15801561334957600080fd5b505afa15801561335d573d6000803e3d6000fd5b505050506040513d602081101561337357600080fd5b505190506000613381615e05565b613389615e05565b613391615e05565b600061339f600654896151ab565b9450905060008160038111156133b157fe5b146133cd57600b5b995060009850613454975050505050505050565b6133d787876151ab565b9350905060008160038111156133e957fe5b146133f557600b6133b9565b6133ff84846151e6565b92509050600081600381111561341157fe5b1461341d57600b6133b9565b613427828c614f6a565b95509050600081600381111561343957fe5b1461344557600b6133b9565b60009950939750505050505050505b935093915050565b601360209081526000928352604080842090915290825290205481565b60146020526000908152604090205481565b613493614fbe565b6134e4576040805162461bcd60e51b815260206004820152601e60248201527f6f6e6c792061646d696e2063616e2061646420636f6d70206d61726b65740000604482015290519081900360640190fd5b60005b81518110156135145761350c8282815181106134ff57fe5b60200260200101516151fe565b6001016134e7565b5061351d611d90565b50565b600a54600090600160b81b900460ff1615613574576040805162461bcd60e51b815260206004820152600f60248201526e1cd95a5e99481a5cc81c185d5cd959608a1b604482015290519081900360640190fd5b6001600160a01b03861660009081526009602052604090205460ff1615806135b557506001600160a01b03851660009081526009602052604090205460ff16155b156135c15760096125ca565b846001600160a01b0316635fe3b5676040518163ffffffff1660e01b815260040160206040518083038186803b1580156135fa57600080fd5b505afa15801561360e573d6000803e3d6000fd5b505050506040513d602081101561362457600080fd5b505160408051635fe3b56760e01b815290516001600160a01b0392831692891691635fe3b567916004808301926020929190829003018186803b15801561366a57600080fd5b505afa15801561367e573d6000803e3d6000fd5b505050506040513d602081101561369457600080fd5b50516001600160a01b0316146136ab5760026125ca565b6136b4866145d0565b6136c086846000614d52565b6136cc86856000614d52565b60009695505050505050565b600080546001600160a01b031633146136f75761198e6001600d61455b565b6007805490839055604080518281526020810185905281517f7093cf1eb653f749c3ff531d6df7f92764536a7fa0d13530cd26e070780c32ea929181900390910190a160006122c0565b6001600160a01b0383166000908152600c602052604081205460ff16156137a2576040805162461bcd60e51b815260206004820152601060248201526f189bdc9c9bddc81a5cc81c185d5cd95960821b604482015290519081900360640190fd5b6001600160a01b03841660009081526009602052604090205460ff166137c957600961229e565b6001600160a01b038085166000908152600960209081526040808320938716835260029093019052205460ff166138b957336001600160a01b0385161461384f576040805162461bcd60e51b815260206004820152601560248201527439b2b73232b91036bab9ba1031329031aa37b5b2b760591b604482015290519081900360640190fd5b600061385b338561508a565b9050600081601181111561386b57fe5b146138845780601181111561387c57fe5b9150506122c0565b6001600160a01b038086166000908152600960209081526040808320938816835260029093019052205460ff166138b757fe5b505b600480546040805163fc57d4df60e01b81526001600160a01b03888116948201949094529051929091169163fc57d4df91602480820192602092909190829003018186803b15801561390a57600080fd5b505afa15801561391e573d6000803e3d6000fd5b505050506040513d602081101561393457600080fd5b505161394157600d61229e565b6000806139518587600087614937565b9193509091506000905082601181111561396757fe5b146139815781601181111561397857fe5b925050506122c0565b801561398e576004613978565b613996615e05565b6040518060200160405280886001600160a01b031663aa5af0fd6040518163ffffffff1660e01b815260040160206040518083038186803b1580156139da57600080fd5b505afa1580156139ee573d6000803e3d6000fd5b505050506040513d6020811015613a0457600080fd5b505190529050613a1487826140e8565b613a218787836000614370565b6000979650505050505050565b60086020528160005260406000208181548110613a4757fe5b6000918252602090912001546001600160a01b03169150829050565b6003546001600160a01b031681565b600080546001600160a01b03163314613a9857613a916001600661455b565b9050611607565b6001600160a01b0383166000908152600960205260409020805460ff16613acd57613ac56009600761455b565b915050611607565b613ad5615e05565b506040805160208101909152838152613aec615e05565b506040805160208101909152670c7d713b49da00008152613b0d81836145c9565b15613b2857613b1e6006600861455b565b9350505050611607565b8415801590613bb15750600480546040805163fc57d4df60e01b81526001600160a01b038a8116948201949094529051929091169163fc57d4df91602480820192602092909190829003018186803b158015613b8357600080fd5b505afa158015613b97573d6000803e3d6000fd5b505050506040513d6020811015613bad57600080fd5b5051155b15613bc257613b1e600d600961455b565b60018301805490869055604080516001600160a01b03891681526020810183905280820188905290517f70483e6592cd5182d45ac970e05bc62cdcc90e9d8ef2c2dbe686cf383bcd7fc59181900360600190a16000979650505050505050565b600a54600160a81b900460ff1681565b60055481565b61351d81600d805480602002602001604051908101604052809291908181526020018280548015613c9257602002820191906000526020600020905b81546001600160a01b03168152600190910190602001808311613c74575b505050505061160d565b600080613caa858585614fe7565b90508015613cb95790506122c0565b613cc2856145d0565b613cce85856000614d52565b600095945050505050565b6000808290506000806000836001600160a01b031663c37f68e2336040518263ffffffff1660e01b815260040180826001600160a01b03166001600160a01b0316815260200191505060806040518083038186803b158015613d3a57600080fd5b505afa158015613d4e573d6000803e3d6000fd5b505050506040513d6080811015613d6457600080fd5b508051602082015160409092015190945090925090508215613db75760405162461bcd60e51b8152600401808060200182810382526025815260200180615f146025913960400191505060405180910390fd5b8015613dd457613dc9600c600261455b565b94505050505061196a565b6000613de1873385614fe7565b90508015613e0257613df6600e600383615519565b9550505050505061196a565b6001600160a01b0385166000908152600960209081526040808320338452600281019092529091205460ff16613e41576000965050505050505061196a565b3360009081526002820160209081526040808320805460ff191690556008825291829020805483518184028101840190945280845260609392830182828015613eb357602002820191906000526020600020905b81546001600160a01b03168152600190910190602001808311613e95575b5050835193945083925060009150505b82811015613f0857896001600160a01b0316848281518110613ee157fe5b60200260200101516001600160a01b03161415613f0057809150613f08565b600101613ec3565b50818110613f1257fe5b336000908152600860205260409020805481906000198101908110613f3357fe5b9060005260206000200160009054906101000a90046001600160a01b0316818381548110613f5d57fe5b600091825260209091200180546001600160a01b0319166001600160a01b03929092169190911790558054613f96826000198301615e18565b50604080516001600160a01b038c16815233602082015281517fe699a64c18b07ac5b7301aa273f36a2287239eb9501d81950672794afba29a0d929181900390910190a160009c9b505050505050505050505050565b6000546001600160a01b031681565b60158054820190819055919050565b60005b600d5481101561409557816001600160a01b0316600d828154811061402e57fe5b6000918252602090912001546001600160a01b0316141561408d576040805162461bcd60e51b81526020600482015260146024820152731b585c9ad95d08185b1c9958591e48185919195960621b604482015290519081900360640190fd5b60010161400d565b50600d80546001810182556000919091527fd7b6990105719101dabeb77144f2a3385c8033acd3af97e9423a695e81ad1eb50180546001600160a01b0319166001600160a01b0392909216919091179055565b6001600160a01b0382166000908152601160209081526040808320600f9092528220549091614115611d62565b8354909150600090614135908390600160e01b900463ffffffff1661557f565b90506000811180156141475750600083115b156143165760006141bc876001600160a01b03166347bd37186040518163ffffffff1660e01b815260040160206040518083038186803b15801561418a57600080fd5b505afa15801561419e573d6000803e3d6000fd5b505050506040513d60208110156141b457600080fd5b5051876155b9565b905060006141ca83866155d7565b90506141d4615e05565b600083116141f157604051806020016040528060008152506141fb565b6141fb8284615619565b9050614205615e05565b604080516020810190915288546001600160e01b0316815261422790836148b7565b9050604051806040016040528061427783600001516040518060400160405280601a81526020017f6e657720696e646578206578636565647320323234206269747300000000000081525061564e565b6001600160e01b031681526020016142b2886040518060400160405280601c8152602001600080516020615f398339815191528152506156e8565b63ffffffff9081169091526001600160a01b038c166000908152601160209081526040909120835181549490920151909216600160e01b026001600160e01b039182166001600160e01b0319909416939093171691909117905550611d6792505050565b8015611d6757614349826040518060400160405280601c8152602001600080516020615f398339815191528152506156e8565b845463ffffffff91909116600160e01b026001600160e01b03909116178455505050505050565b6001600160a01b0384166000908152601160205260409020614390615e05565b50604080516020810190915281546001600160e01b031681526143b1615e05565b5060408051602080820183526001600160a01b03808a16600090815260138352848120918a1680825282845294812080548552865195909152915291909155805115614552576143ff615e05565b614409838361573d565b90506000614498896001600160a01b03166395dd91938a6040518263ffffffff1660e01b815260040180826001600160a01b03166001600160a01b0316815260200191505060206040518083038186803b15801561446657600080fd5b505afa15801561447a573d6000803e3d6000fd5b505050506040513d602081101561449057600080fd5b5051886155b9565b905060006144a68284615762565b6001600160a01b038a16600090815260146020526040812054919250906144cd9083615782565b90506144ee8a828a6144e65766038d7ea4c680006144e9565b60005b6157b8565b6001600160a01b03808c1660008181526014602090815260409182902094909455895181518781529485015280519193928f16927f1fc3ecc087d8d2d15e23d0032af5a47059c3892d003d8e139fdcb6bb327c99a6929081900390910190a3505050505b50505050505050565b60007f45b96fe442630264581b197e84bbada861235052c5a1aadfff9ea4e40a969aa083601181111561458a57fe5b83601381111561459657fe5b604080519283526020830191909152600082820152519081900360600190a18260118111156122c057fe5b519051111590565b5190511090565b6001600160a01b0381166000908152601060209081526040808320600f90925282205490916145fd611d62565b835490915060009061461d908390600160e01b900463ffffffff1661557f565b905060008111801561462f5750600083115b156147f5576000856001600160a01b03166318160ddd6040518163ffffffff1660e01b815260040160206040518083038186803b15801561466f57600080fd5b505afa158015614683573d6000803e3d6000fd5b505050506040513d602081101561469957600080fd5b5051905060006146a983866155d7565b90506146b3615e05565b600083116146d057604051806020016040528060008152506146da565b6146da8284615619565b90506146e4615e05565b604080516020810190915288546001600160e01b0316815261470690836148b7565b9050604051806040016040528061475683600001516040518060400160405280601a81526020017f6e657720696e646578206578636565647320323234206269747300000000000081525061564e565b6001600160e01b03168152602001614791886040518060400160405280601c8152602001600080516020615f398339815191528152506156e8565b63ffffffff9081169091526001600160a01b038b166000908152601060209081526040909120835181549490920151909216600160e01b026001600160e01b039182166001600160e01b031990941693909317169190911790555061168192505050565b801561168157614828826040518060400160405280601c8152602001600080516020615f398339815191528152506156e8565b845463ffffffff91909116600160e01b026001600160e01b039091161784555050505050565b614856615e05565b604051806020016040528061486f8560000151856155d7565b90529392505050565b614880615e05565b6040518060200160405280670de0b6b3a76400006148a6866000015186600001516155d7565b816148ad57fe5b0490529392505050565b6148bf615e05565b604051806020016040528061486f85600001518560000151615782565b6148e4615e05565b604051806020016040528061486f6149088660000151670de0b6b3a76400006155d7565b85516158fd565b6000670de0b6b3a76400006149288484600001516155d7565b8161492f57fe5b049392505050565b6000806000614944615e3c565b6001600160a01b0388166000908152600860209081526040808320805482518185028101850190935280835284936060939291908301828280156149b157602002820191906000526020600020905b81546001600160a01b03168152600190910190602001808311614993575b50939450600093505050505b8151811015614d0d5760008282815181106149d457fe5b60200260200101519050806001600160a01b031663c37f68e28e6040518263ffffffff1660e01b815260040180826001600160a01b03166001600160a01b0316815260200191505060806040518083038186803b158015614a3457600080fd5b505afa158015614a48573d6000803e3d6000fd5b505050506040513d6080811015614a5e57600080fd5b508051602082015160408084015160609485015160808c0152938a01939093529188019190915294508415614aa45750600f975060009650869550612212945050505050565b60408051602080820183526001600160a01b0380851660008181526009845285902060010154845260c08b01939093528351808301855260808b0151815260e08b015260048054855163fc57d4df60e01b815291820194909452935192169263fc57d4df9260248083019392829003018186803b158015614b2457600080fd5b505afa158015614b38573d6000803e3d6000fd5b505050506040513d6020811015614b4e57600080fd5b505160a08701819052614b725750600d975060009650869550612212945050505050565b604080516020810190915260a08701518152610100870181905260c087015160e0880151614b9f92615930565b61012088015293506000846003811115614bb557fe5b14614bd15750600b975060009650869550612212945050505050565b614be986610120015187604001518860000151615988565b875293506000846003811115614bfb57fe5b14614c175750600b975060009650869550612212945050505050565b614c2f86610100015187606001518860200151615988565b602088015293506000846003811115614c4457fe5b14614c605750600b975060009650869550612212945050505050565b8b6001600160a01b0316816001600160a01b03161415614d0457614c8e8661012001518c8860200151615988565b602088015293506000846003811115614ca357fe5b14614cbf5750600b975060009650869550612212945050505050565b614cd38661010001518b8860200151615988565b602088015293506000846003811115614ce857fe5b14614d045750600b975060009650869550612212945050505050565b506001016149bd565b50602084015184511115614d34575050506020810151905160009450039150829050612212565b50508151602090920151600095508594509190910391506122129050565b6001600160a01b0383166000908152601060205260409020614d72615e05565b50604080516020810190915281546001600160e01b03168152614d93615e05565b5060408051602080820183526001600160a01b03808916600090815260128352848120918916808252828452948120805485528651959091529152919091558051158015614de15750815115155b15614df9576ec097ce7bc90715b34b9f100000000081525b614e01615e05565b614e0b838361573d565b90506000876001600160a01b03166370a08231886040518263ffffffff1660e01b815260040180826001600160a01b03166001600160a01b0316815260200191505060206040518083038186803b158015614e6557600080fd5b505afa158015614e79573d6000803e3d6000fd5b505050506040513d6020811015614e8f57600080fd5b505190506000614e9f8284615762565b6001600160a01b03891660009081526014602052604081205491925090614ec69083615782565b9050614edf89828a6144e65766038d7ea4c680006144e9565b6001600160a01b03808b1660008181526014602090815260409182902094909455895181518781529485015280519193928e16927f2caecd17d02f56fa897705dcc740da2d237c373f70686f4e0d9bd3bf0400ea7a929081900390910190a350505050505050505050565b6000806000614f5d846000806000614937565b9250925092509193909250565b6000806000614f77615e05565b614f8186866159d5565b90925090506000826003811115614f9457fe5b14614fa55750915060009050614fb7565b6000614fb082615a3d565b9350935050505b9250929050565b600080546001600160a01b0316331480614fe257506002546001600160a01b031633145b905090565b6001600160a01b03831660009081526009602052604081205460ff1661500e57600961229e565b6001600160a01b038085166000908152600960209081526040808320938716835260029093019052205460ff1661504657600061229e565b6000806150568587866000614937565b9193509091506000905082601181111561506c57fe5b1461507d5781601181111561397857fe5b80156136cc576004613978565b6001600160a01b0382166000908152600960205260408120805460ff166150b5576009915050611607565b6001600160a01b038316600090815260028201602052604090205460ff161515600114156150e7576000915050611607565b6007546001600160a01b03841660009081526008602052604090205410615112576010915050611607565b6001600160a01b0380841660008181526002840160209081526040808320805460ff19166001908117909155600883528184208054918201815584529282902090920180549489166001600160a01b031990951685179055815193845283019190915280517f3ab23ab0d51cccc0c3085aec51f99228625aa1a922b3a8ca89a26b0f2027a1a59281900390910190a15060009392505050565b60006151b5615e05565b6151db604051806020016040528086815250604051806020016040528086815250615a4c565b915091509250929050565b60006151f0615e05565b835183516151db9190615b35565b6001600160a01b0381166000908152600960205260409020805460ff161515600114615271576040805162461bcd60e51b815260206004820152601960248201527f636f6d70206d61726b6574206973206e6f74206c697374656400000000000000604482015290519081900360640190fd5b600381015460ff16156152cb576040805162461bcd60e51b815260206004820152601960248201527f636f6d70206d61726b657420616c726561647920616464656400000000000000604482015290519081900360640190fd5b60038101805460ff19166001908117909155604080516001600160a01b0385168152602081019290925280517f93c1f3e36ed71139f466a4ce8c9751790e2e33f5afb2df0dcfb3aeabe55d5aa29281900390910190a16001600160a01b0382166000908152601060205260409020546001600160e01b031615801561537357506001600160a01b038216600090815260106020526040902054600160e01b900463ffffffff16155b156154305760405180604001604052806ec097ce7bc90715b34b9f10000000006001600160e01b031681526020016153d56153ac611d62565b6040518060400160405280601c8152602001600080516020615f398339815191528152506156e8565b63ffffffff9081169091526001600160a01b0384166000908152601060209081526040909120835181549490920151909216600160e01b026001600160e01b039182166001600160e01b031990941693909317169190911790555b6001600160a01b0382166000908152601160205260409020546001600160e01b031615801561548257506001600160a01b038216600090815260116020526040902054600160e01b900463ffffffff16155b15611bad5760405180604001604052806ec097ce7bc90715b34b9f10000000006001600160e01b031681526020016154bb6153ac611d62565b63ffffffff9081169091526001600160a01b0384166000908152601160209081526040909120835181549490920151909216600160e01b026001600160e01b039182166001600160e01b031990941693909317169190911790555050565b60007f45b96fe442630264581b197e84bbada861235052c5a1aadfff9ea4e40a969aa084601181111561554857fe5b84601381111561555457fe5b604080519283526020830191909152818101859052519081900360600190a18360118111156122bd57fe5b60006122c08383604051806040016040528060158152602001747375627472616374696f6e20756e646572666c6f7760581b815250615be5565b60006122c06155d084670de0b6b3a76400006155d7565b83516158fd565b60006122c083836040518060400160405280601781526020017f6d756c7469706c69636174696f6e206f766572666c6f77000000000000000000815250615c3f565b615621615e05565b604051806020016040528061486f615648866ec097ce7bc90715b34b9f10000000006155d7565b856158fd565b600081600160e01b84106156e05760405162461bcd60e51b81526004018080602001828103825283818151815260200191508051906020019080838360005b838110156156a557818101518382015260200161568d565b50505050905090810190601f1680156156d25780820380516001836020036101000a031916815260200191505b509250505060405180910390fd5b509192915050565b600081600160201b84106156e05760405162461bcd60e51b81526020600482018181528351602484015283519092839260449091019190850190808383600083156156a557818101518382015260200161568d565b615745615e05565b604051806020016040528061486f8560000151856000015161557f565b60006ec097ce7bc90715b34b9f10000000006149288484600001516155d7565b60006122c08383604051806040016040528060118152602001706164646974696f6e206f766572666c6f7760781b815250615cbe565b60008183101580156157ca5750600083115b156158f55760006157d9612de1565b604080516370a0823160e01b815230600482015290519192506000916001600160a01b038416916370a08231916024808301926020929190829003018186803b15801561582557600080fd5b505afa158015615839573d6000803e3d6000fd5b505050506040513d602081101561584f57600080fd5b505190508085116158f257816001600160a01b031663a9059cbb87876040518363ffffffff1660e01b815260040180836001600160a01b03166001600160a01b0316815260200182815260200192505050602060405180830381600087803b1580156158ba57600080fd5b505af11580156158ce573d6000803e3d6000fd5b505050506040513d60208110156158e457600080fd5b50600093506122c092505050565b50505b509092915050565b60006122c083836040518060400160405280600e81526020016d646976696465206279207a65726f60901b815250615d13565b600061593a615e05565b6000615944615e05565b61594e8787615a4c565b9092509050600082600381111561596157fe5b14615970579092509050613454565b61597a8186615a4c565b935093505050935093915050565b6000806000615995615e05565b61599f87876159d5565b909250905060008260038111156159b257fe5b146159c35750915060009050613454565b61597a6159cf82615a3d565b86615d75565b60006159df615e05565b6000806159f0866000015186615d9b565b90925090506000826003811115615a0357fe5b14615a2257506040805160208101909152600081529092509050614fb7565b60408051602081019091529081526000969095509350505050565b51670de0b6b3a7640000900490565b6000615a56615e05565b600080615a6b86600001518660000151615d9b565b90925090506000826003811115615a7e57fe5b14615a9d57506040805160208101909152600081529092509050614fb7565b600080615ab26706f05b59d3b2000084615d75565b90925090506000826003811115615ac557fe5b14615ae757506040805160208101909152600081529094509250614fb7915050565b600080615afc83670de0b6b3a7640000615dda565b90925090506000826003811115615b0f57fe5b14615b1657fe5b604080516020810190915290815260009a909950975050505050505050565b6000615b3f615e05565b600080615b5486670de0b6b3a7640000615d9b565b90925090506000826003811115615b6757fe5b14615b8657506040805160208101909152600081529092509050614fb7565b600080615b938388615dda565b90925090506000826003811115615ba657fe5b14615bc857506040805160208101909152600081529094509250614fb7915050565b604080516020810190915290815260009890975095505050505050565b60008184841115615c375760405162461bcd60e51b81526020600482018181528351602484015283519092839260449091019190850190808383600083156156a557818101518382015260200161568d565b505050900390565b6000831580615c4c575082155b15615c59575060006122c0565b83830283858281615c6657fe5b04148390615cb55760405162461bcd60e51b81526020600482018181528351602484015283519092839260449091019190850190808383600083156156a557818101518382015260200161568d565b50949350505050565b60008383018285821015615cb55760405162461bcd60e51b81526020600482018181528351602484015283519092839260449091019190850190808383600083156156a557818101518382015260200161568d565b60008183615d625760405162461bcd60e51b81526020600482018181528351602484015283519092839260449091019190850190808383600083156156a557818101518382015260200161568d565b50828481615d6c57fe5b04949350505050565b600080838301848110615d8d57600092509050614fb7565b506002915060009050614fb7565b60008083615dae57506000905080614fb7565b83830283858281615dbb57fe5b0414615dcf57506002915060009050614fb7565b600092509050614fb7565b60008082615dee5750600190506000614fb7565b6000838581615df957fe5b04915091509250929050565b6040518060200160405280600081525090565b81548183558181111561166a5760008381526020902061166a918101908301615ea6565b604051806101400160405280600081526020016000815260200160008152602001600081526020016000815260200160008152602001615e7a615e05565b8152602001615e87615e05565b8152602001615e94615e05565b8152602001615ea1615e05565b905290565b611d6491905b80821115615ec05760008155600101615eac565b509056fe63616e6e6f742070617573652061206d61726b65742074686174206973206e6f74206c69737465646f6e6c7920706175736520677561726469616e20616e642061646d696e2063616e207061757365657869744d61726b65743a206765744163636f756e74536e617073686f74206661696c6564626c6f636b206e756d62657220657863656564732033322062697473000000006f6e6c7920756e6974726f6c6c65722061646d696e2063616e206368616e676520627261696e73a265627a7a72315820ef39113d597441a2e89c09584d9eca9043168546bbf1cb34f6222fda5de430d164736f6c634300050e0032",
  "source": "pragma solidity ^0.5.14;\n\nimport \"../../contracts/Comptroller.sol\";\n\ncontract ComptrollerScenario2 is Comptroller {\n    uint public blockNumber;\n\n    constructor() Comptroller() public {}\n\n    function fastForward(uint blocks) public returns (uint) {\n        blockNumber += blocks;\n        return blockNumber;\n    }\n\n    function setBlockNumber(uint number) public {\n        blockNumber = number;\n    }\n\n    function membershipLength(CToken cToken) public view returns (uint) {\n        return accountAssets[address(cToken)].length;\n    }\n\n    function unlist(CToken cToken) public {\n        markets[address(cToken)].isListed = false;\n    }\n}\n",
  "sourcePath": "/Users/yanyichun/project/Savings/contracts/compound/test/Contracts/ComptrollerScenario.sol",
  "compiler": {
    "name": "solc",
    "version": "0.5.14+commit.01f1aaa4.Emscripten.clang"
  },
  "schemaVersion": "3.2.3",
  "updatedAt": "2021-02-25T05:55:40.991Z",
  "devdoc": {
    "methods": {
      "_addCompMarkets(address[])": {
        "params": {
          "cTokens": "The addresses of the markets to add"
        }
      },
      "_dropCompMarket(address)": {
        "params": {
          "cToken": "The address of the market to drop"
        }
      },
      "_setCloseFactor(uint256)": {
        "details": "Admin function to set closeFactor",
        "params": {
          "newCloseFactorMantissa": "New close factor, scaled by 1e18"
        },
        "return": "uint 0=success, otherwise a failure. (See ErrorReporter for details)"
      },
      "_setCollateralFactor(address,uint256)": {
        "details": "Admin function to set per-market collateralFactor",
        "params": {
          "cToken": "The market to set the factor on",
          "newCollateralFactorMantissa": "The new collateral factor, scaled by 1e18"
        },
        "return": "uint 0=success, otherwise a failure. (See ErrorReporter for details)"
      },
      "_setCompRate(uint256)": {
        "params": {
          "compRate_": "The amount of COMP wei per block to distribute"
        }
      },
      "_setLiquidationIncentive(uint256)": {
        "details": "Admin function to set liquidationIncentive",
        "params": {
          "newLiquidationIncentiveMantissa": "New liquidationIncentive scaled by 1e18"
        },
        "return": "uint 0=success, otherwise a failure. (See ErrorReporter for details)"
      },
      "_setMaxAssets(uint256)": {
        "details": "Admin function to set maxAssets",
        "params": {
          "newMaxAssets": "New max assets"
        },
        "return": "uint 0=success, otherwise a failure. (See ErrorReporter for details)"
      },
      "_setPauseGuardian(address)": {
        "params": {
          "newPauseGuardian": "The address of the new Pause Guardian"
        },
        "return": "uint 0=success, otherwise a failure. (See enum Error for details)"
      },
      "_setPriceOracle(address)": {
        "details": "Admin function to set a new price oracle",
        "return": "uint 0=success, otherwise a failure (see ErrorReporter.sol for details)"
      },
      "_supportMarket(address)": {
        "details": "Admin function to set isListed and add support for the market",
        "params": {
          "cToken": "The address of the market (token) to list"
        },
        "return": "uint 0=success, otherwise a failure. (See enum Error for details)"
      },
      "borrowAllowed(address,address,uint256)": {
        "params": {
          "borrowAmount": "The amount of underlying the account would borrow",
          "borrower": "The account which would borrow the asset",
          "cToken": "The market to verify the borrow against"
        },
        "return": "0 if the borrow is allowed, otherwise a semi-opaque error code (See ErrorReporter.sol)"
      },
      "borrowVerify(address,address,uint256)": {
        "params": {
          "borrowAmount": "The amount of the underlying asset requested to borrow",
          "borrower": "The address borrowing the underlying",
          "cToken": "Asset whose underlying is being borrowed"
        }
      },
      "checkMembership(address,address)": {
        "params": {
          "account": "The address of the account to check",
          "cToken": "The cToken to check"
        },
        "return": "True if the account is in the asset, otherwise false."
      },
      "claimComp(address)": {
        "params": {
          "holder": "The address to claim COMP for"
        }
      },
      "claimComp(address,address[])": {
        "params": {
          "cTokens": "The list of markets to claim COMP in",
          "holder": "The address to claim COMP for"
        }
      },
      "claimComp(address[],address[],bool,bool)": {
        "params": {
          "borrowers": "Whether or not to claim COMP earned by borrowing",
          "cTokens": "The list of markets to claim COMP in",
          "holders": "The addresses to claim COMP for",
          "suppliers": "Whether or not to claim COMP earned by supplying"
        }
      },
      "enterMarkets(address[])": {
        "params": {
          "cTokens": "The list of addresses of the cToken markets to be enabled"
        },
        "return": "Success indicator for whether each corresponding market was entered"
      },
      "exitMarket(address)": {
        "details": "Sender must not have an outstanding borrow balance in the asset, or be providing neccessary collateral for an outstanding borrow.",
        "params": {
          "cTokenAddress": "The address of the asset to be removed"
        },
        "return": "Whether or not the account successfully exited the market"
      },
      "getAccountLiquidity(address)": {
        "return": "(possible error code (semi-opaque), account liquidity in excess of collateral requirements,         account shortfall below collateral requirements)"
      },
      "getAllMarkets()": {
        "details": "The automatic getter may be used to access an individual market.",
        "return": "The list of market addresses"
      },
      "getAssetsIn(address)": {
        "params": {
          "account": "The address of the account to pull assets for"
        },
        "return": "A dynamic list with the assets the account has entered"
      },
      "getCompAddress()": {
        "return": "The address of COMP"
      },
      "getHypotheticalAccountLiquidity(address,address,uint256,uint256)": {
        "params": {
          "account": "The account to determine liquidity for",
          "borrowAmount": "The amount of underlying to hypothetically borrow",
          "cTokenModify": "The market to hypothetically redeem/borrow in",
          "redeemTokens": "The number of tokens to hypothetically redeem"
        },
        "return": "(possible error code (semi-opaque), hypothetical account liquidity in excess of collateral requirements,         hypothetical account shortfall below collateral requirements)"
      },
      "liquidateBorrowAllowed(address,address,address,address,uint256)": {
        "params": {
          "borrower": "The address of the borrower",
          "cTokenBorrowed": "Asset which was borrowed by the borrower",
          "cTokenCollateral": "Asset which was used as collateral and will be seized",
          "liquidator": "The address repaying the borrow and seizing the collateral",
          "repayAmount": "The amount of underlying being repaid"
        }
      },
      "liquidateBorrowVerify(address,address,address,address,uint256,uint256)": {
        "params": {
          "actualRepayAmount": "The amount of underlying being repaid",
          "borrower": "The address of the borrower",
          "cTokenBorrowed": "Asset which was borrowed by the borrower",
          "cTokenCollateral": "Asset which was used as collateral and will be seized",
          "liquidator": "The address repaying the borrow and seizing the collateral"
        }
      },
      "liquidateCalculateSeizeTokens(address,address,uint256)": {
        "details": "Used in liquidation (called in cToken.liquidateBorrowFresh)",
        "params": {
          "actualRepayAmount": "The amount of cTokenBorrowed underlying to convert into cTokenCollateral tokens",
          "cTokenBorrowed": "The address of the borrowed cToken",
          "cTokenCollateral": "The address of the collateral cToken"
        },
        "return": "(errorCode, number of cTokenCollateral tokens to be seized in a liquidation)"
      },
      "mintAllowed(address,address,uint256)": {
        "params": {
          "cToken": "The market to verify the mint against",
          "mintAmount": "The amount of underlying being supplied to the market in exchange for tokens",
          "minter": "The account which would get the minted tokens"
        },
        "return": "0 if the mint is allowed, otherwise a semi-opaque error code (See ErrorReporter.sol)"
      },
      "mintVerify(address,address,uint256,uint256)": {
        "params": {
          "actualMintAmount": "The amount of the underlying asset being minted",
          "cToken": "Asset being minted",
          "mintTokens": "The number of tokens being minted",
          "minter": "The address minting the tokens"
        }
      },
      "redeemAllowed(address,address,uint256)": {
        "params": {
          "cToken": "The market to verify the redeem against",
          "redeemTokens": "The number of cTokens to exchange for the underlying asset in the market",
          "redeemer": "The account which would redeem the tokens"
        },
        "return": "0 if the redeem is allowed, otherwise a semi-opaque error code (See ErrorReporter.sol)"
      },
      "redeemVerify(address,address,uint256,uint256)": {
        "params": {
          "cToken": "Asset being redeemed",
          "redeemAmount": "The amount of the underlying asset being redeemed",
          "redeemTokens": "The number of tokens being redeemed",
          "redeemer": "The address redeeming the tokens"
        }
      },
      "repayBorrowAllowed(address,address,address,uint256)": {
        "params": {
          "borrower": "The account which would borrowed the asset",
          "cToken": "The market to verify the repay against",
          "payer": "The account which would repay the asset",
          "repayAmount": "The amount of the underlying asset the account would repay"
        },
        "return": "0 if the repay is allowed, otherwise a semi-opaque error code (See ErrorReporter.sol)"
      },
      "repayBorrowVerify(address,address,address,uint256,uint256)": {
        "params": {
          "actualRepayAmount": "The amount of underlying being repaid",
          "borrower": "The address of the borrower",
          "cToken": "Asset being repaid",
          "payer": "The address repaying the borrow"
        }
      },
      "seizeAllowed(address,address,address,address,uint256)": {
        "params": {
          "borrower": "The address of the borrower",
          "cTokenBorrowed": "Asset which was borrowed by the borrower",
          "cTokenCollateral": "Asset which was used as collateral and will be seized",
          "liquidator": "The address repaying the borrow and seizing the collateral",
          "seizeTokens": "The number of collateral tokens to seize"
        }
      },
      "seizeVerify(address,address,address,address,uint256)": {
        "params": {
          "borrower": "The address of the borrower",
          "cTokenBorrowed": "Asset which was borrowed by the borrower",
          "cTokenCollateral": "Asset which was used as collateral and will be seized",
          "liquidator": "The address repaying the borrow and seizing the collateral",
          "seizeTokens": "The number of collateral tokens to seize"
        }
      },
      "transferAllowed(address,address,address,uint256)": {
        "params": {
          "cToken": "The market to verify the transfer against",
          "dst": "The account which receives the tokens",
          "src": "The account which sources the tokens",
          "transferTokens": "The number of cTokens to transfer"
        },
        "return": "0 if the transfer is allowed, otherwise a semi-opaque error code (See ErrorReporter.sol)"
      },
      "transferVerify(address,address,address,uint256)": {
        "params": {
          "cToken": "Asset being transferred",
          "dst": "The account which receives the tokens",
          "src": "The account which sources the tokens",
          "transferTokens": "The number of cTokens to transfer"
        }
      }
    }
  },
  "userdoc": {
    "methods": {
      "_addCompMarkets(address[])": {
        "notice": "Add markets to compMarkets, allowing them to earn COMP in the flywheel"
      },
      "_dropCompMarket(address)": {
        "notice": "Remove a market from compMarkets, preventing it from earning COMP in the flywheel"
      },
      "_setCloseFactor(uint256)": {
        "notice": "Sets the closeFactor used when liquidating borrows"
      },
      "_setCollateralFactor(address,uint256)": {
        "notice": "Sets the collateralFactor for a market"
      },
      "_setCompRate(uint256)": {
        "notice": "Set the amount of COMP distributed per block"
      },
      "_setLiquidationIncentive(uint256)": {
        "notice": "Sets liquidationIncentive"
      },
      "_setMaxAssets(uint256)": {
        "notice": "Sets maxAssets which controls how many markets can be entered"
      },
      "_setPauseGuardian(address)": {
        "notice": "Admin function to change the Pause Guardian"
      },
      "_setPriceOracle(address)": {
        "notice": "Sets a new price oracle for the comptroller"
      },
      "_supportMarket(address)": {
        "notice": "Add the market to the markets mapping and set it as listed"
      },
      "borrowAllowed(address,address,uint256)": {
        "notice": "Checks if the account should be allowed to borrow the underlying asset of the given market"
      },
      "borrowVerify(address,address,uint256)": {
        "notice": "Validates borrow and reverts on rejection. May emit logs."
      },
      "checkMembership(address,address)": {
        "notice": "Returns whether the given account is entered in the given asset"
      },
      "claimComp(address)": {
        "notice": "Claim all the comp accrued by holder in all markets"
      },
      "claimComp(address,address[])": {
        "notice": "Claim all the comp accrued by holder in the specified markets"
      },
      "claimComp(address[],address[],bool,bool)": {
        "notice": "Claim all comp accrued by the holders"
      },
      "enterMarkets(address[])": {
        "notice": "Add assets to be included in account liquidity calculation"
      },
      "exitMarket(address)": {
        "notice": "Removes asset from sender's account liquidity calculation"
      },
      "getAccountLiquidity(address)": {
        "notice": "Determine the current account liquidity wrt collateral requirements"
      },
      "getAllMarkets()": {
        "notice": "Return all of the markets"
      },
      "getAssetsIn(address)": {
        "notice": "Returns the assets an account has entered"
      },
      "getCompAddress()": {
        "notice": "Return the address of the COMP token"
      },
      "getHypotheticalAccountLiquidity(address,address,uint256,uint256)": {
        "notice": "Determine what the account liquidity would be if the given amounts were redeemed/borrowed"
      },
      "liquidateBorrowAllowed(address,address,address,address,uint256)": {
        "notice": "Checks if the liquidation should be allowed to occur"
      },
      "liquidateBorrowVerify(address,address,address,address,uint256,uint256)": {
        "notice": "Validates liquidateBorrow and reverts on rejection. May emit logs."
      },
      "liquidateCalculateSeizeTokens(address,address,uint256)": {
        "notice": "Calculate number of tokens of collateral asset to seize given an underlying amount"
      },
      "mintAllowed(address,address,uint256)": {
        "notice": "Checks if the account should be allowed to mint tokens in the given market"
      },
      "mintVerify(address,address,uint256,uint256)": {
        "notice": "Validates mint and reverts on rejection. May emit logs."
      },
      "redeemAllowed(address,address,uint256)": {
        "notice": "Checks if the account should be allowed to redeem tokens in the given market"
      },
      "redeemVerify(address,address,uint256,uint256)": {
        "notice": "Validates redeem and reverts on rejection. May emit logs."
      },
      "refreshCompSpeeds()": {
        "notice": "Recalculate and update COMP speeds for all COMP markets"
      },
      "repayBorrowAllowed(address,address,address,uint256)": {
        "notice": "Checks if the account should be allowed to repay a borrow in the given market"
      },
      "repayBorrowVerify(address,address,address,uint256,uint256)": {
        "notice": "Validates repayBorrow and reverts on rejection. May emit logs."
      },
      "seizeAllowed(address,address,address,address,uint256)": {
        "notice": "Checks if the seizing of assets should be allowed to occur"
      },
      "seizeVerify(address,address,address,address,uint256)": {
        "notice": "Validates seize and reverts on rejection. May emit logs."
      },
      "transferAllowed(address,address,address,uint256)": {
        "notice": "Checks if the account should be allowed to transfer tokens in the given market"
      },
      "transferVerify(address,address,address,uint256)": {
        "notice": "Validates transfer and reverts on rejection. May emit logs."
      }
    }
  }
}