{
  "contractName": "ComptrollerKovan",
  "abi": [
    {
      "anonymous": false,
      "inputs": [
        {
          "indexed": false,
          "internalType": "string",
          "name": "action",
          "type": "string"
        },
        {
          "indexed": false,
          "internalType": "bool",
          "name": "pauseState",
          "type": "bool"
        }
      ],
      "name": "ActionPaused",
      "type": "event"
    },
    {
      "anonymous": false,
      "inputs": [
        {
          "indexed": false,
          "internalType": "contract CToken",
          "name": "cToken",
          "type": "address"
        },
        {
          "indexed": false,
          "internalType": "string",
          "name": "action",
          "type": "string"
        },
        {
          "indexed": false,
          "internalType": "bool",
          "name": "pauseState",
          "type": "bool"
        }
      ],
      "name": "ActionPaused",
      "type": "event"
    },
    {
      "anonymous": false,
      "inputs": [
        {
          "indexed": true,
          "internalType": "contract CToken",
          "name": "cToken",
          "type": "address"
        },
        {
          "indexed": false,
          "internalType": "uint256",
          "name": "newSpeed",
          "type": "uint256"
        }
      ],
      "name": "CompSpeedUpdated",
      "type": "event"
    },
    {
      "anonymous": false,
      "inputs": [
        {
          "indexed": true,
          "internalType": "contract CToken",
          "name": "cToken",
          "type": "address"
        },
        {
          "indexed": true,
          "internalType": "address",
          "name": "borrower",
          "type": "address"
        },
        {
          "indexed": false,
          "internalType": "uint256",
          "name": "compDelta",
          "type": "uint256"
        },
        {
          "indexed": false,
          "internalType": "uint256",
          "name": "compBorrowIndex",
          "type": "uint256"
        }
      ],
      "name": "DistributedBorrowerComp",
      "type": "event"
    },
    {
      "anonymous": false,
      "inputs": [
        {
          "indexed": true,
          "internalType": "contract CToken",
          "name": "cToken",
          "type": "address"
        },
        {
          "indexed": true,
          "internalType": "address",
          "name": "supplier",
          "type": "address"
        },
        {
          "indexed": false,
          "internalType": "uint256",
          "name": "compDelta",
          "type": "uint256"
        },
        {
          "indexed": false,
          "internalType": "uint256",
          "name": "compSupplyIndex",
          "type": "uint256"
        }
      ],
      "name": "DistributedSupplierComp",
      "type": "event"
    },
    {
      "anonymous": false,
      "inputs": [
        {
          "indexed": false,
          "internalType": "uint256",
          "name": "error",
          "type": "uint256"
        },
        {
          "indexed": false,
          "internalType": "uint256",
          "name": "info",
          "type": "uint256"
        },
        {
          "indexed": false,
          "internalType": "uint256",
          "name": "detail",
          "type": "uint256"
        }
      ],
      "name": "Failure",
      "type": "event"
    },
    {
      "anonymous": false,
      "inputs": [
        {
          "indexed": false,
          "internalType": "contract CToken",
          "name": "cToken",
          "type": "address"
        },
        {
          "indexed": false,
          "internalType": "bool",
          "name": "isComped",
          "type": "bool"
        }
      ],
      "name": "MarketComped",
      "type": "event"
    },
    {
      "anonymous": false,
      "inputs": [
        {
          "indexed": false,
          "internalType": "contract CToken",
          "name": "cToken",
          "type": "address"
        },
        {
          "indexed": false,
          "internalType": "address",
          "name": "account",
          "type": "address"
        }
      ],
      "name": "MarketEntered",
      "type": "event"
    },
    {
      "anonymous": false,
      "inputs": [
        {
          "indexed": false,
          "internalType": "contract CToken",
          "name": "cToken",
          "type": "address"
        },
        {
          "indexed": false,
          "internalType": "address",
          "name": "account",
          "type": "address"
        }
      ],
      "name": "MarketExited",
      "type": "event"
    },
    {
      "anonymous": false,
      "inputs": [
        {
          "indexed": false,
          "internalType": "contract CToken",
          "name": "cToken",
          "type": "address"
        }
      ],
      "name": "MarketListed",
      "type": "event"
    },
    {
      "anonymous": false,
      "inputs": [
        {
          "indexed": false,
          "internalType": "uint256",
          "name": "oldCloseFactorMantissa",
          "type": "uint256"
        },
        {
          "indexed": false,
          "internalType": "uint256",
          "name": "newCloseFactorMantissa",
          "type": "uint256"
        }
      ],
      "name": "NewCloseFactor",
      "type": "event"
    },
    {
      "anonymous": false,
      "inputs": [
        {
          "indexed": false,
          "internalType": "contract CToken",
          "name": "cToken",
          "type": "address"
        },
        {
          "indexed": false,
          "internalType": "uint256",
          "name": "oldCollateralFactorMantissa",
          "type": "uint256"
        },
        {
          "indexed": false,
          "internalType": "uint256",
          "name": "newCollateralFactorMantissa",
          "type": "uint256"
        }
      ],
      "name": "NewCollateralFactor",
      "type": "event"
    },
    {
      "anonymous": false,
      "inputs": [
        {
          "indexed": false,
          "internalType": "uint256",
          "name": "oldCompRate",
          "type": "uint256"
        },
        {
          "indexed": false,
          "internalType": "uint256",
          "name": "newCompRate",
          "type": "uint256"
        }
      ],
      "name": "NewCompRate",
      "type": "event"
    },
    {
      "anonymous": false,
      "inputs": [
        {
          "indexed": false,
          "internalType": "uint256",
          "name": "oldLiquidationIncentiveMantissa",
          "type": "uint256"
        },
        {
          "indexed": false,
          "internalType": "uint256",
          "name": "newLiquidationIncentiveMantissa",
          "type": "uint256"
        }
      ],
      "name": "NewLiquidationIncentive",
      "type": "event"
    },
    {
      "anonymous": false,
      "inputs": [
        {
          "indexed": false,
          "internalType": "uint256",
          "name": "oldMaxAssets",
          "type": "uint256"
        },
        {
          "indexed": false,
          "internalType": "uint256",
          "name": "newMaxAssets",
          "type": "uint256"
        }
      ],
      "name": "NewMaxAssets",
      "type": "event"
    },
    {
      "anonymous": false,
      "inputs": [
        {
          "indexed": false,
          "internalType": "address",
          "name": "oldPauseGuardian",
          "type": "address"
        },
        {
          "indexed": false,
          "internalType": "address",
          "name": "newPauseGuardian",
          "type": "address"
        }
      ],
      "name": "NewPauseGuardian",
      "type": "event"
    },
    {
      "anonymous": false,
      "inputs": [
        {
          "indexed": false,
          "internalType": "contract PriceOracle",
          "name": "oldPriceOracle",
          "type": "address"
        },
        {
          "indexed": false,
          "internalType": "contract PriceOracle",
          "name": "newPriceOracle",
          "type": "address"
        }
      ],
      "name": "NewPriceOracle",
      "type": "event"
    },
    {
      "constant": false,
      "inputs": [
        {
          "internalType": "address[]",
          "name": "cTokens",
          "type": "address[]"
        }
      ],
      "name": "_addCompMarkets",
      "outputs": [],
      "payable": false,
      "stateMutability": "nonpayable",
      "type": "function"
    },
    {
      "constant": false,
      "inputs": [
        {
          "internalType": "contract Unitroller",
          "name": "unitroller",
          "type": "address"
        },
        {
          "internalType": "uint256",
          "name": "compRate_",
          "type": "uint256"
        },
        {
          "internalType": "address[]",
          "name": "compMarketsToAdd",
          "type": "address[]"
        },
        {
          "internalType": "address[]",
          "name": "otherMarketsToAdd",
          "type": "address[]"
        }
      ],
      "name": "_become",
      "outputs": [],
      "payable": false,
      "stateMutability": "nonpayable",
      "type": "function"
    },
    {
      "constant": false,
      "inputs": [
        {
          "internalType": "uint256",
          "name": "compRate_",
          "type": "uint256"
        },
        {
          "internalType": "address[]",
          "name": "compMarketsToAdd",
          "type": "address[]"
        },
        {
          "internalType": "address[]",
          "name": "otherMarketsToAdd",
          "type": "address[]"
        }
      ],
      "name": "_becomeG3",
      "outputs": [],
      "payable": false,
      "stateMutability": "nonpayable",
      "type": "function"
    },
    {
      "constant": true,
      "inputs": [],
      "name": "_borrowGuardianPaused",
      "outputs": [
        {
          "internalType": "bool",
          "name": "",
          "type": "bool"
        }
      ],
      "payable": false,
      "stateMutability": "view",
      "type": "function"
    },
    {
      "constant": false,
      "inputs": [
        {
          "internalType": "address",
          "name": "cToken",
          "type": "address"
        }
      ],
      "name": "_dropCompMarket",
      "outputs": [],
      "payable": false,
      "stateMutability": "nonpayable",
      "type": "function"
    },
    {
      "constant": true,
      "inputs": [],
      "name": "_mintGuardianPaused",
      "outputs": [
        {
          "internalType": "bool",
          "name": "",
          "type": "bool"
        }
      ],
      "payable": false,
      "stateMutability": "view",
      "type": "function"
    },
    {
      "constant": false,
      "inputs": [
        {
          "internalType": "contract CToken",
          "name": "cToken",
          "type": "address"
        },
        {
          "internalType": "bool",
          "name": "state",
          "type": "bool"
        }
      ],
      "name": "_setBorrowPaused",
      "outputs": [
        {
          "internalType": "bool",
          "name": "",
          "type": "bool"
        }
      ],
      "payable": false,
      "stateMutability": "nonpayable",
      "type": "function"
    },
    {
      "constant": false,
      "inputs": [
        {
          "internalType": "uint256",
          "name": "newCloseFactorMantissa",
          "type": "uint256"
        }
      ],
      "name": "_setCloseFactor",
      "outputs": [
        {
          "internalType": "uint256",
          "name": "",
          "type": "uint256"
        }
      ],
      "payable": false,
      "stateMutability": "nonpayable",
      "type": "function"
    },
    {
      "constant": false,
      "inputs": [
        {
          "internalType": "contract CToken",
          "name": "cToken",
          "type": "address"
        },
        {
          "internalType": "uint256",
          "name": "newCollateralFactorMantissa",
          "type": "uint256"
        }
      ],
      "name": "_setCollateralFactor",
      "outputs": [
        {
          "internalType": "uint256",
          "name": "",
          "type": "uint256"
        }
      ],
      "payable": false,
      "stateMutability": "nonpayable",
      "type": "function"
    },
    {
      "constant": false,
      "inputs": [
        {
          "internalType": "uint256",
          "name": "compRate_",
          "type": "uint256"
        }
      ],
      "name": "_setCompRate",
      "outputs": [],
      "payable": false,
      "stateMutability": "nonpayable",
      "type": "function"
    },
    {
      "constant": false,
      "inputs": [
        {
          "internalType": "uint256",
          "name": "newLiquidationIncentiveMantissa",
          "type": "uint256"
        }
      ],
      "name": "_setLiquidationIncentive",
      "outputs": [
        {
          "internalType": "uint256",
          "name": "",
          "type": "uint256"
        }
      ],
      "payable": false,
      "stateMutability": "nonpayable",
      "type": "function"
    },
    {
      "constant": false,
      "inputs": [
        {
          "internalType": "uint256",
          "name": "newMaxAssets",
          "type": "uint256"
        }
      ],
      "name": "_setMaxAssets",
      "outputs": [
        {
          "internalType": "uint256",
          "name": "",
          "type": "uint256"
        }
      ],
      "payable": false,
      "stateMutability": "nonpayable",
      "type": "function"
    },
    {
      "constant": false,
      "inputs": [
        {
          "internalType": "contract CToken",
          "name": "cToken",
          "type": "address"
        },
        {
          "internalType": "bool",
          "name": "state",
          "type": "bool"
        }
      ],
      "name": "_setMintPaused",
      "outputs": [
        {
          "internalType": "bool",
          "name": "",
          "type": "bool"
        }
      ],
      "payable": false,
      "stateMutability": "nonpayable",
      "type": "function"
    },
    {
      "constant": false,
      "inputs": [
        {
          "internalType": "address",
          "name": "newPauseGuardian",
          "type": "address"
        }
      ],
      "name": "_setPauseGuardian",
      "outputs": [
        {
          "internalType": "uint256",
          "name": "",
          "type": "uint256"
        }
      ],
      "payable": false,
      "stateMutability": "nonpayable",
      "type": "function"
    },
    {
      "constant": false,
      "inputs": [
        {
          "internalType": "contract PriceOracle",
          "name": "newOracle",
          "type": "address"
        }
      ],
      "name": "_setPriceOracle",
      "outputs": [
        {
          "internalType": "uint256",
          "name": "",
          "type": "uint256"
        }
      ],
      "payable": false,
      "stateMutability": "nonpayable",
      "type": "function"
    },
    {
      "constant": false,
      "inputs": [
        {
          "internalType": "bool",
          "name": "state",
          "type": "bool"
        }
      ],
      "name": "_setSeizePaused",
      "outputs": [
        {
          "internalType": "bool",
          "name": "",
          "type": "bool"
        }
      ],
      "payable": false,
      "stateMutability": "nonpayable",
      "type": "function"
    },
    {
      "constant": false,
      "inputs": [
        {
          "internalType": "bool",
          "name": "state",
          "type": "bool"
        }
      ],
      "name": "_setTransferPaused",
      "outputs": [
        {
          "internalType": "bool",
          "name": "",
          "type": "bool"
        }
      ],
      "payable": false,
      "stateMutability": "nonpayable",
      "type": "function"
    },
    {
      "constant": false,
      "inputs": [
        {
          "internalType": "contract CToken",
          "name": "cToken",
          "type": "address"
        }
      ],
      "name": "_supportMarket",
      "outputs": [
        {
          "internalType": "uint256",
          "name": "",
          "type": "uint256"
        }
      ],
      "payable": false,
      "stateMutability": "nonpayable",
      "type": "function"
    },
    {
      "constant": true,
      "inputs": [
        {
          "internalType": "address",
          "name": "",
          "type": "address"
        },
        {
          "internalType": "uint256",
          "name": "",
          "type": "uint256"
        }
      ],
      "name": "accountAssets",
      "outputs": [
        {
          "internalType": "contract CToken",
          "name": "",
          "type": "address"
        }
      ],
      "payable": false,
      "stateMutability": "view",
      "type": "function"
    },
    {
      "constant": true,
      "inputs": [],
      "name": "admin",
      "outputs": [
        {
          "internalType": "address",
          "name": "",
          "type": "address"
        }
      ],
      "payable": false,
      "stateMutability": "view",
      "type": "function"
    },
    {
      "constant": true,
      "inputs": [
        {
          "internalType": "uint256",
          "name": "",
          "type": "uint256"
        }
      ],
      "name": "allMarkets",
      "outputs": [
        {
          "internalType": "contract CToken",
          "name": "",
          "type": "address"
        }
      ],
      "payable": false,
      "stateMutability": "view",
      "type": "function"
    },
    {
      "constant": false,
      "inputs": [
        {
          "internalType": "address",
          "name": "cToken",
          "type": "address"
        },
        {
          "internalType": "address",
          "name": "borrower",
          "type": "address"
        },
        {
          "internalType": "uint256",
          "name": "borrowAmount",
          "type": "uint256"
        }
      ],
      "name": "borrowAllowed",
      "outputs": [
        {
          "internalType": "uint256",
          "name": "",
          "type": "uint256"
        }
      ],
      "payable": false,
      "stateMutability": "nonpayable",
      "type": "function"
    },
    {
      "constant": true,
      "inputs": [
        {
          "internalType": "address",
          "name": "",
          "type": "address"
        }
      ],
      "name": "borrowGuardianPaused",
      "outputs": [
        {
          "internalType": "bool",
          "name": "",
          "type": "bool"
        }
      ],
      "payable": false,
      "stateMutability": "view",
      "type": "function"
    },
    {
      "constant": false,
      "inputs": [
        {
          "internalType": "address",
          "name": "cToken",
          "type": "address"
        },
        {
          "internalType": "address",
          "name": "borrower",
          "type": "address"
        },
        {
          "internalType": "uint256",
          "name": "borrowAmount",
          "type": "uint256"
        }
      ],
      "name": "borrowVerify",
      "outputs": [],
      "payable": false,
      "stateMutability": "nonpayable",
      "type": "function"
    },
    {
      "constant": true,
      "inputs": [
        {
          "internalType": "address",
          "name": "account",
          "type": "address"
        },
        {
          "internalType": "contract CToken",
          "name": "cToken",
          "type": "address"
        }
      ],
      "name": "checkMembership",
      "outputs": [
        {
          "internalType": "bool",
          "name": "",
          "type": "bool"
        }
      ],
      "payable": false,
      "stateMutability": "view",
      "type": "function"
    },
    {
      "constant": false,
      "inputs": [
        {
          "internalType": "address",
          "name": "holder",
          "type": "address"
        },
        {
          "internalType": "contract CToken[]",
          "name": "cTokens",
          "type": "address[]"
        }
      ],
      "name": "claimComp",
      "outputs": [],
      "payable": false,
      "stateMutability": "nonpayable",
      "type": "function"
    },
    {
      "constant": false,
      "inputs": [
        {
          "internalType": "address[]",
          "name": "holders",
          "type": "address[]"
        },
        {
          "internalType": "contract CToken[]",
          "name": "cTokens",
          "type": "address[]"
        },
        {
          "internalType": "bool",
          "name": "borrowers",
          "type": "bool"
        },
        {
          "internalType": "bool",
          "name": "suppliers",
          "type": "bool"
        }
      ],
      "name": "claimComp",
      "outputs": [],
      "payable": false,
      "stateMutability": "nonpayable",
      "type": "function"
    },
    {
      "constant": false,
      "inputs": [
        {
          "internalType": "address",
          "name": "holder",
          "type": "address"
        }
      ],
      "name": "claimComp",
      "outputs": [],
      "payable": false,
      "stateMutability": "nonpayable",
      "type": "function"
    },
    {
      "constant": true,
      "inputs": [],
      "name": "closeFactorMantissa",
      "outputs": [
        {
          "internalType": "uint256",
          "name": "",
          "type": "uint256"
        }
      ],
      "payable": false,
      "stateMutability": "view",
      "type": "function"
    },
    {
      "constant": true,
      "inputs": [
        {
          "internalType": "address",
          "name": "",
          "type": "address"
        }
      ],
      "name": "compAccrued",
      "outputs": [
        {
          "internalType": "uint256",
          "name": "",
          "type": "uint256"
        }
      ],
      "payable": false,
      "stateMutability": "view",
      "type": "function"
    },
    {
      "constant": true,
      "inputs": [
        {
          "internalType": "address",
          "name": "",
          "type": "address"
        }
      ],
      "name": "compBorrowState",
      "outputs": [
        {
          "internalType": "uint224",
          "name": "index",
          "type": "uint224"
        },
        {
          "internalType": "uint32",
          "name": "block",
          "type": "uint32"
        }
      ],
      "payable": false,
      "stateMutability": "view",
      "type": "function"
    },
    {
      "constant": true,
      "inputs": [
        {
          "internalType": "address",
          "name": "",
          "type": "address"
        },
        {
          "internalType": "address",
          "name": "",
          "type": "address"
        }
      ],
      "name": "compBorrowerIndex",
      "outputs": [
        {
          "internalType": "uint256",
          "name": "",
          "type": "uint256"
        }
      ],
      "payable": false,
      "stateMutability": "view",
      "type": "function"
    },
    {
      "constant": true,
      "inputs": [],
      "name": "compClaimThreshold",
      "outputs": [
        {
          "internalType": "uint256",
          "name": "",
          "type": "uint256"
        }
      ],
      "payable": false,
      "stateMutability": "view",
      "type": "function"
    },
    {
      "constant": true,
      "inputs": [],
      "name": "compInitialIndex",
      "outputs": [
        {
          "internalType": "uint224",
          "name": "",
          "type": "uint224"
        }
      ],
      "payable": false,
      "stateMutability": "view",
      "type": "function"
    },
    {
      "constant": true,
      "inputs": [],
      "name": "compRate",
      "outputs": [
        {
          "internalType": "uint256",
          "name": "",
          "type": "uint256"
        }
      ],
      "payable": false,
      "stateMutability": "view",
      "type": "function"
    },
    {
      "constant": true,
      "inputs": [
        {
          "internalType": "address",
          "name": "",
          "type": "address"
        }
      ],
      "name": "compSpeeds",
      "outputs": [
        {
          "internalType": "uint256",
          "name": "",
          "type": "uint256"
        }
      ],
      "payable": false,
      "stateMutability": "view",
      "type": "function"
    },
    {
      "constant": true,
      "inputs": [
        {
          "internalType": "address",
          "name": "",
          "type": "address"
        },
        {
          "internalType": "address",
          "name": "",
          "type": "address"
        }
      ],
      "name": "compSupplierIndex",
      "outputs": [
        {
          "internalType": "uint256",
          "name": "",
          "type": "uint256"
        }
      ],
      "payable": false,
      "stateMutability": "view",
      "type": "function"
    },
    {
      "constant": true,
      "inputs": [
        {
          "internalType": "address",
          "name": "",
          "type": "address"
        }
      ],
      "name": "compSupplyState",
      "outputs": [
        {
          "internalType": "uint224",
          "name": "index",
          "type": "uint224"
        },
        {
          "internalType": "uint32",
          "name": "block",
          "type": "uint32"
        }
      ],
      "payable": false,
      "stateMutability": "view",
      "type": "function"
    },
    {
      "constant": true,
      "inputs": [],
      "name": "comptrollerImplementation",
      "outputs": [
        {
          "internalType": "address",
          "name": "",
          "type": "address"
        }
      ],
      "payable": false,
      "stateMutability": "view",
      "type": "function"
    },
    {
      "constant": false,
      "inputs": [
        {
          "internalType": "address[]",
          "name": "cTokens",
          "type": "address[]"
        }
      ],
      "name": "enterMarkets",
      "outputs": [
        {
          "internalType": "uint256[]",
          "name": "",
          "type": "uint256[]"
        }
      ],
      "payable": false,
      "stateMutability": "nonpayable",
      "type": "function"
    },
    {
      "constant": false,
      "inputs": [
        {
          "internalType": "address",
          "name": "cTokenAddress",
          "type": "address"
        }
      ],
      "name": "exitMarket",
      "outputs": [
        {
          "internalType": "uint256",
          "name": "",
          "type": "uint256"
        }
      ],
      "payable": false,
      "stateMutability": "nonpayable",
      "type": "function"
    },
    {
      "constant": true,
      "inputs": [
        {
          "internalType": "address",
          "name": "account",
          "type": "address"
        }
      ],
      "name": "getAccountLiquidity",
      "outputs": [
        {
          "internalType": "uint256",
          "name": "",
          "type": "uint256"
        },
        {
          "internalType": "uint256",
          "name": "",
          "type": "uint256"
        },
        {
          "internalType": "uint256",
          "name": "",
          "type": "uint256"
        }
      ],
      "payable": false,
      "stateMutability": "view",
      "type": "function"
    },
    {
      "constant": true,
      "inputs": [],
      "name": "getAllMarkets",
      "outputs": [
        {
          "internalType": "contract CToken[]",
          "name": "",
          "type": "address[]"
        }
      ],
      "payable": false,
      "stateMutability": "view",
      "type": "function"
    },
    {
      "constant": true,
      "inputs": [
        {
          "internalType": "address",
          "name": "account",
          "type": "address"
        }
      ],
      "name": "getAssetsIn",
      "outputs": [
        {
          "internalType": "contract CToken[]",
          "name": "",
          "type": "address[]"
        }
      ],
      "payable": false,
      "stateMutability": "view",
      "type": "function"
    },
    {
      "constant": true,
      "inputs": [],
      "name": "getBlockNumber",
      "outputs": [
        {
          "internalType": "uint256",
          "name": "",
          "type": "uint256"
        }
      ],
      "payable": false,
      "stateMutability": "view",
      "type": "function"
    },
    {
      "constant": true,
      "inputs": [
        {
          "internalType": "address",
          "name": "account",
          "type": "address"
        },
        {
          "internalType": "address",
          "name": "cTokenModify",
          "type": "address"
        },
        {
          "internalType": "uint256",
          "name": "redeemTokens",
          "type": "uint256"
        },
        {
          "internalType": "uint256",
          "name": "borrowAmount",
          "type": "uint256"
        }
      ],
      "name": "getHypotheticalAccountLiquidity",
      "outputs": [
        {
          "internalType": "uint256",
          "name": "",
          "type": "uint256"
        },
        {
          "internalType": "uint256",
          "name": "",
          "type": "uint256"
        },
        {
          "internalType": "uint256",
          "name": "",
          "type": "uint256"
        }
      ],
      "payable": false,
      "stateMutability": "view",
      "type": "function"
    },
    {
      "constant": true,
      "inputs": [],
      "name": "isComptroller",
      "outputs": [
        {
          "internalType": "bool",
          "name": "",
          "type": "bool"
        }
      ],
      "payable": false,
      "stateMutability": "view",
      "type": "function"
    },
    {
      "constant": false,
      "inputs": [
        {
          "internalType": "address",
          "name": "cTokenBorrowed",
          "type": "address"
        },
        {
          "internalType": "address",
          "name": "cTokenCollateral",
          "type": "address"
        },
        {
          "internalType": "address",
          "name": "liquidator",
          "type": "address"
        },
        {
          "internalType": "address",
          "name": "borrower",
          "type": "address"
        },
        {
          "internalType": "uint256",
          "name": "repayAmount",
          "type": "uint256"
        }
      ],
      "name": "liquidateBorrowAllowed",
      "outputs": [
        {
          "internalType": "uint256",
          "name": "",
          "type": "uint256"
        }
      ],
      "payable": false,
      "stateMutability": "nonpayable",
      "type": "function"
    },
    {
      "constant": false,
      "inputs": [
        {
          "internalType": "address",
          "name": "cTokenBorrowed",
          "type": "address"
        },
        {
          "internalType": "address",
          "name": "cTokenCollateral",
          "type": "address"
        },
        {
          "internalType": "address",
          "name": "liquidator",
          "type": "address"
        },
        {
          "internalType": "address",
          "name": "borrower",
          "type": "address"
        },
        {
          "internalType": "uint256",
          "name": "actualRepayAmount",
          "type": "uint256"
        },
        {
          "internalType": "uint256",
          "name": "seizeTokens",
          "type": "uint256"
        }
      ],
      "name": "liquidateBorrowVerify",
      "outputs": [],
      "payable": false,
      "stateMutability": "nonpayable",
      "type": "function"
    },
    {
      "constant": true,
      "inputs": [
        {
          "internalType": "address",
          "name": "cTokenBorrowed",
          "type": "address"
        },
        {
          "internalType": "address",
          "name": "cTokenCollateral",
          "type": "address"
        },
        {
          "internalType": "uint256",
          "name": "actualRepayAmount",
          "type": "uint256"
        }
      ],
      "name": "liquidateCalculateSeizeTokens",
      "outputs": [
        {
          "internalType": "uint256",
          "name": "",
          "type": "uint256"
        },
        {
          "internalType": "uint256",
          "name": "",
          "type": "uint256"
        }
      ],
      "payable": false,
      "stateMutability": "view",
      "type": "function"
    },
    {
      "constant": true,
      "inputs": [],
      "name": "liquidationIncentiveMantissa",
      "outputs": [
        {
          "internalType": "uint256",
          "name": "",
          "type": "uint256"
        }
      ],
      "payable": false,
      "stateMutability": "view",
      "type": "function"
    },
    {
      "constant": true,
      "inputs": [
        {
          "internalType": "address",
          "name": "",
          "type": "address"
        }
      ],
      "name": "markets",
      "outputs": [
        {
          "internalType": "bool",
          "name": "isListed",
          "type": "bool"
        },
        {
          "internalType": "uint256",
          "name": "collateralFactorMantissa",
          "type": "uint256"
        },
        {
          "internalType": "bool",
          "name": "isComped",
          "type": "bool"
        }
      ],
      "payable": false,
      "stateMutability": "view",
      "type": "function"
    },
    {
      "constant": true,
      "inputs": [],
      "name": "maxAssets",
      "outputs": [
        {
          "internalType": "uint256",
          "name": "",
          "type": "uint256"
        }
      ],
      "payable": false,
      "stateMutability": "view",
      "type": "function"
    },
    {
      "constant": false,
      "inputs": [
        {
          "internalType": "address",
          "name": "cToken",
          "type": "address"
        },
        {
          "internalType": "address",
          "name": "minter",
          "type": "address"
        },
        {
          "internalType": "uint256",
          "name": "mintAmount",
          "type": "uint256"
        }
      ],
      "name": "mintAllowed",
      "outputs": [
        {
          "internalType": "uint256",
          "name": "",
          "type": "uint256"
        }
      ],
      "payable": false,
      "stateMutability": "nonpayable",
      "type": "function"
    },
    {
      "constant": true,
      "inputs": [
        {
          "internalType": "address",
          "name": "",
          "type": "address"
        }
      ],
      "name": "mintGuardianPaused",
      "outputs": [
        {
          "internalType": "bool",
          "name": "",
          "type": "bool"
        }
      ],
      "payable": false,
      "stateMutability": "view",
      "type": "function"
    },
    {
      "constant": false,
      "inputs": [
        {
          "internalType": "address",
          "name": "cToken",
          "type": "address"
        },
        {
          "internalType": "address",
          "name": "minter",
          "type": "address"
        },
        {
          "internalType": "uint256",
          "name": "actualMintAmount",
          "type": "uint256"
        },
        {
          "internalType": "uint256",
          "name": "mintTokens",
          "type": "uint256"
        }
      ],
      "name": "mintVerify",
      "outputs": [],
      "payable": false,
      "stateMutability": "nonpayable",
      "type": "function"
    },
    {
      "constant": true,
      "inputs": [],
      "name": "oracle",
      "outputs": [
        {
          "internalType": "contract PriceOracle",
          "name": "",
          "type": "address"
        }
      ],
      "payable": false,
      "stateMutability": "view",
      "type": "function"
    },
    {
      "constant": true,
      "inputs": [],
      "name": "pauseGuardian",
      "outputs": [
        {
          "internalType": "address",
          "name": "",
          "type": "address"
        }
      ],
      "payable": false,
      "stateMutability": "view",
      "type": "function"
    },
    {
      "constant": true,
      "inputs": [],
      "name": "pendingAdmin",
      "outputs": [
        {
          "internalType": "address",
          "name": "",
          "type": "address"
        }
      ],
      "payable": false,
      "stateMutability": "view",
      "type": "function"
    },
    {
      "constant": true,
      "inputs": [],
      "name": "pendingComptrollerImplementation",
      "outputs": [
        {
          "internalType": "address",
          "name": "",
          "type": "address"
        }
      ],
      "payable": false,
      "stateMutability": "view",
      "type": "function"
    },
    {
      "constant": false,
      "inputs": [
        {
          "internalType": "address",
          "name": "cToken",
          "type": "address"
        },
        {
          "internalType": "address",
          "name": "redeemer",
          "type": "address"
        },
        {
          "internalType": "uint256",
          "name": "redeemTokens",
          "type": "uint256"
        }
      ],
      "name": "redeemAllowed",
      "outputs": [
        {
          "internalType": "uint256",
          "name": "",
          "type": "uint256"
        }
      ],
      "payable": false,
      "stateMutability": "nonpayable",
      "type": "function"
    },
    {
      "constant": false,
      "inputs": [
        {
          "internalType": "address",
          "name": "cToken",
          "type": "address"
        },
        {
          "internalType": "address",
          "name": "redeemer",
          "type": "address"
        },
        {
          "internalType": "uint256",
          "name": "redeemAmount",
          "type": "uint256"
        },
        {
          "internalType": "uint256",
          "name": "redeemTokens",
          "type": "uint256"
        }
      ],
      "name": "redeemVerify",
      "outputs": [],
      "payable": false,
      "stateMutability": "nonpayable",
      "type": "function"
    },
    {
      "constant": false,
      "inputs": [],
      "name": "refreshCompSpeeds",
      "outputs": [],
      "payable": false,
      "stateMutability": "nonpayable",
      "type": "function"
    },
    {
      "constant": false,
      "inputs": [
        {
          "internalType": "address",
          "name": "cToken",
          "type": "address"
        },
        {
          "internalType": "address",
          "name": "payer",
          "type": "address"
        },
        {
          "internalType": "address",
          "name": "borrower",
          "type": "address"
        },
        {
          "internalType": "uint256",
          "name": "repayAmount",
          "type": "uint256"
        }
      ],
      "name": "repayBorrowAllowed",
      "outputs": [
        {
          "internalType": "uint256",
          "name": "",
          "type": "uint256"
        }
      ],
      "payable": false,
      "stateMutability": "nonpayable",
      "type": "function"
    },
    {
      "constant": false,
      "inputs": [
        {
          "internalType": "address",
          "name": "cToken",
          "type": "address"
        },
        {
          "internalType": "address",
          "name": "payer",
          "type": "address"
        },
        {
          "internalType": "address",
          "name": "borrower",
          "type": "address"
        },
        {
          "internalType": "uint256",
          "name": "actualRepayAmount",
          "type": "uint256"
        },
        {
          "internalType": "uint256",
          "name": "borrowerIndex",
          "type": "uint256"
        }
      ],
      "name": "repayBorrowVerify",
      "outputs": [],
      "payable": false,
      "stateMutability": "nonpayable",
      "type": "function"
    },
    {
      "constant": false,
      "inputs": [
        {
          "internalType": "address",
          "name": "cTokenCollateral",
          "type": "address"
        },
        {
          "internalType": "address",
          "name": "cTokenBorrowed",
          "type": "address"
        },
        {
          "internalType": "address",
          "name": "liquidator",
          "type": "address"
        },
        {
          "internalType": "address",
          "name": "borrower",
          "type": "address"
        },
        {
          "internalType": "uint256",
          "name": "seizeTokens",
          "type": "uint256"
        }
      ],
      "name": "seizeAllowed",
      "outputs": [
        {
          "internalType": "uint256",
          "name": "",
          "type": "uint256"
        }
      ],
      "payable": false,
      "stateMutability": "nonpayable",
      "type": "function"
    },
    {
      "constant": true,
      "inputs": [],
      "name": "seizeGuardianPaused",
      "outputs": [
        {
          "internalType": "bool",
          "name": "",
          "type": "bool"
        }
      ],
      "payable": false,
      "stateMutability": "view",
      "type": "function"
    },
    {
      "constant": false,
      "inputs": [
        {
          "internalType": "address",
          "name": "cTokenCollateral",
          "type": "address"
        },
        {
          "internalType": "address",
          "name": "cTokenBorrowed",
          "type": "address"
        },
        {
          "internalType": "address",
          "name": "liquidator",
          "type": "address"
        },
        {
          "internalType": "address",
          "name": "borrower",
          "type": "address"
        },
        {
          "internalType": "uint256",
          "name": "seizeTokens",
          "type": "uint256"
        }
      ],
      "name": "seizeVerify",
      "outputs": [],
      "payable": false,
      "stateMutability": "nonpayable",
      "type": "function"
    },
    {
      "constant": false,
      "inputs": [
        {
          "internalType": "address",
          "name": "cToken",
          "type": "address"
        },
        {
          "internalType": "address",
          "name": "src",
          "type": "address"
        },
        {
          "internalType": "address",
          "name": "dst",
          "type": "address"
        },
        {
          "internalType": "uint256",
          "name": "transferTokens",
          "type": "uint256"
        }
      ],
      "name": "transferAllowed",
      "outputs": [
        {
          "internalType": "uint256",
          "name": "",
          "type": "uint256"
        }
      ],
      "payable": false,
      "stateMutability": "nonpayable",
      "type": "function"
    },
    {
      "constant": true,
      "inputs": [],
      "name": "transferGuardianPaused",
      "outputs": [
        {
          "internalType": "bool",
          "name": "",
          "type": "bool"
        }
      ],
      "payable": false,
      "stateMutability": "view",
      "type": "function"
    },
    {
      "constant": false,
      "inputs": [
        {
          "internalType": "address",
          "name": "cToken",
          "type": "address"
        },
        {
          "internalType": "address",
          "name": "src",
          "type": "address"
        },
        {
          "internalType": "address",
          "name": "dst",
          "type": "address"
        },
        {
          "internalType": "uint256",
          "name": "transferTokens",
          "type": "uint256"
        }
      ],
      "name": "transferVerify",
      "outputs": [],
      "payable": false,
      "stateMutability": "nonpayable",
      "type": "function"
    },
    {
      "constant": true,
      "inputs": [],
      "name": "getCompAddress",
      "outputs": [
        {
          "internalType": "address",
          "name": "",
          "type": "address"
        }
      ],
      "payable": false,
      "stateMutability": "view",
      "type": "function"
    }
  ],
  "bytecode": "0x6080604052600080546001600160a01b03191633179055615e99806100256000396000f3fe608060405234801561001057600080fd5b50600436106104275760003560e01c8063747026c91161022b578063bdcdc25811610130578063dce15449116100b8578063e875544611610087578063e875544614611311578063e9af029214611319578063eabe7d911461133f578063ede4edd014611375578063f851a4401461139b57610427565b8063dce15449146112a9578063dcfbc0c7146112d5578063e4028eee146112dd578063e6653f3d1461130957610427565b8063cc7ebdc4116100ff578063cc7ebdc414611149578063ce485c5e1461116f578063d02f735114611210578063d9226ced14611256578063da3d454c1461127357610427565b8063bdcdc25814610fef578063c29982381461102b578063c488847b146110cc578063ca0af0431461111b57610427565b80639d1b5a0a116101b3578063abfceffc11610182578063abfceffc14610f33578063ac0b0bb714610fa9578063b0772d0b14610fb1578063b21be7fd14610fb9578063bb82aa5e14610fe757610427565b80639d1b5a0a14610ed9578063a76b3fda14610ee1578063a7f0e23114610f07578063aa90075414610f2b57610427565b80638e8f294b116101fa5780638e8f294b14610d045780638ebf636414610d4c578063929fe9a114610d6b57806394b2294b14610d99578063992c529414610da157610427565b8063747026c914610cc65780637dc0d1d014610cce57806387f7630314610cd65780638c57804e14610cde57610427565b80634d8e5037116103315780635f5af1aa116102b95780636a56947e116102885780636a56947e14610baa5780636b79c38d14610be65780636d154ea514610c345780636d35bf9114610c5a578063731f0c2b14610ca057610427565b80635f5af1aa146109f55780635fc7e71e14610a1b5780636810dfa614610a615780636a49111214610b8d57610427565b806351dff9891161030057806351dff9891461091a57806352d84d1e1461095657806355ee1fe1146109735780635c778605146109995780635ec88c79146109cf57610427565b80634d8e5037146108655780634e79238f1461086d5780634ef4c3e1146108c75780634fd42e17146108fd57610427565b80632d70db78116103b45780633c94786f116103835780633c94786f146107c557806341c728b9146107cd57806342cbb15c1461080957806347ef3b3b146108115780634ada90af1461085d57610427565b80632d70db7814610735578063317b0b77146107545780633aa729b4146107715780633bcf7ec11461079757610427565b80631ededc91116103fb5780631ededc91146105615780632327c7df146105a357806324008a62146106cd57806324a3d62214610709578063267822471461072d57610427565b80627e3dd21461042c57806318c882a5146104485780631c3db2e0146104765780631d7b33d714610529575b600080fd5b6104346113a3565b604080519115158252519081900360200190f35b6104346004803603604081101561045e57600080fd5b506001600160a01b03813516906020013515156113a8565b6105276004803603604081101561048c57600080fd5b6001600160a01b038235169190810190604081016020820135600160201b8111156104b657600080fd5b8201836020820111156104c857600080fd5b803590602001918460208302840111600160201b831117156104e957600080fd5b919080806020026020016040519081016040528093929190818152602001838360200280828437600092019190915250929550611548945050505050565b005b61054f6004803603602081101561053f57600080fd5b50356001600160a01b03166115aa565b60408051918252519081900360200190f35b610527600480360360a081101561057757600080fd5b506001600160a01b038135811691602081013582169160408201351690606081013590608001356115bc565b610527600480360360608110156105b957600080fd5b81359190810190604081016020820135600160201b8111156105da57600080fd5b8201836020820111156105ec57600080fd5b803590602001918460208302840111600160201b8311171561060d57600080fd5b9190808060200260200160405190810160405280939291908181526020018383602002808284376000920191909152509295949360208101935035915050600160201b81111561065c57600080fd5b82018360208201111561066e57600080fd5b803590602001918460208302840111600160201b8311171561068f57600080fd5b9190808060200260200160405190810160405280939291908181526020018383602002808284376000920191909152509295506115c3945050505050565b61054f600480360360808110156106e357600080fd5b506001600160a01b03813581169160208101358216916040820135169060600135611689565b610711611752565b604080516001600160a01b039092168252519081900360200190f35b610711611761565b6104346004803603602081101561074b57600080fd5b50351515611770565b61054f6004803603602081101561076a57600080fd5b50356118aa565b6105276004803603602081101561078757600080fd5b50356001600160a01b03166119bb565b610434600480360360408110156107ad57600080fd5b506001600160a01b0381351690602001351515611aec565b610434611c87565b610527600480360360808110156107e357600080fd5b506001600160a01b03813581169160208101359091169060408101359060600135611c97565b61054f611c9d565b610527600480360360c081101561082757600080fd5b506001600160a01b0381358116916020810135821691604082013581169160608101359091169060808101359060a00135611ca2565b61054f611caa565b610527611cb0565b6108a96004803603608081101561088357600080fd5b506001600160a01b03813581169160208101359091169060408101359060600135612102565b60408051938452602084019290925282820152519081900360600190f35b61054f600480360360608110156108dd57600080fd5b506001600160a01b0381358116916020810135909116906040013561213c565b61054f6004803603602081101561091357600080fd5b50356121e7565b6105276004803603608081101561093057600080fd5b506001600160a01b038135811691602081013590911690604081013590606001356122db565b6107116004803603602081101561096c57600080fd5b503561232f565b61054f6004803603602081101561098957600080fd5b50356001600160a01b0316612356565b610527600480360360608110156109af57600080fd5b506001600160a01b038135811691602081013590911690604001356123dd565b6108a9600480360360208110156109e557600080fd5b50356001600160a01b03166123e2565b61054f60048036036020811015610a0b57600080fd5b50356001600160a01b0316612417565b61054f600480360360a0811015610a3157600080fd5b506001600160a01b038135811691602081013582169160408201358116916060810135909116906080013561249b565b61052760048036036080811015610a7757600080fd5b810190602081018135600160201b811115610a9157600080fd5b820183602082011115610aa357600080fd5b803590602001918460208302840111600160201b83111715610ac457600080fd5b9190808060200260200160405190810160405280939291908181526020018383602002808284376000920191909152509295949360208101935035915050600160201b811115610b1357600080fd5b820183602082011115610b2557600080fd5b803590602001918460208302840111600160201b83111715610b4657600080fd5b919080806020026020016040519081016040528093929190818152602001838360200280828437600092019190915250929550505050803515159150602001351515612622565b61052760048036036020811015610ba357600080fd5b50356127cb565b61052760048036036080811015610bc057600080fd5b506001600160a01b03813581169160208101358216916040820135169060600135611c97565b610c0c60048036036020811015610bfc57600080fd5b50356001600160a01b031661286f565b604080516001600160e01b03909316835263ffffffff90911660208301528051918290030190f35b61043460048036036020811015610c4a57600080fd5b50356001600160a01b0316612899565b610527600480360360a0811015610c7057600080fd5b506001600160a01b03813581169160208101358216916040820135811691606081013590911690608001356115bc565b61043460048036036020811015610cb657600080fd5b50356001600160a01b03166128ae565b61054f6128c3565b6107116128ce565b6104346128dd565b610c0c60048036036020811015610cf457600080fd5b50356001600160a01b03166128ed565b610d2a60048036036020811015610d1a57600080fd5b50356001600160a01b0316612917565b6040805193151584526020840192909252151582820152519081900360600190f35b61043460048036036020811015610d6257600080fd5b5035151561293d565b61043460048036036040811015610d8157600080fd5b506001600160a01b0381358116916020013516612a76565b61054f612aa9565b61052760048036036080811015610db757600080fd5b6001600160a01b0382351691602081013591810190606081016040820135600160201b811115610de657600080fd5b820183602082011115610df857600080fd5b803590602001918460208302840111600160201b83111715610e1957600080fd5b9190808060200260200160405190810160405280939291908181526020018383602002808284376000920191909152509295949360208101935035915050600160201b811115610e6857600080fd5b820183602082011115610e7a57600080fd5b803590602001918460208302840111600160201b83111715610e9b57600080fd5b919080806020026020016040519081016040528093929190818152602001838360200280828437600092019190915250929550612aaf945050505050565b610711612cfb565b61054f60048036036020811015610ef757600080fd5b50356001600160a01b0316612d13565b610f0f612e70565b604080516001600160e01b039092168252519081900360200190f35b61054f612e83565b610f5960048036036020811015610f4957600080fd5b50356001600160a01b0316612e89565b60408051602080825283518183015283519192839290830191858101910280838360005b83811015610f95578181015183820152602001610f7d565b505050509050019250505060405180910390f35b610434612f12565b610f59612f22565b61054f60048036036040811015610fcf57600080fd5b506001600160a01b0381358116916020013516612f84565b610711612fa1565b61054f6004803603608081101561100557600080fd5b506001600160a01b03813581169160208101358216916040820135169060600135612fb0565b610f596004803603602081101561104157600080fd5b810190602081018135600160201b81111561105b57600080fd5b82018360208201111561106d57600080fd5b803590602001918460208302840111600160201b8311171561108e57600080fd5b919080806020026020016040519081016040528093929190818152602001838360200280828437600092019190915250929550613044945050505050565b611102600480360360608110156110e257600080fd5b506001600160a01b038135811691602081013590911690604001356130db565b6040805192835260208301919091528051918290030190f35b61054f6004803603604081101561113157600080fd5b506001600160a01b0381358116916020013516613350565b61054f6004803603602081101561115f57600080fd5b50356001600160a01b031661336d565b6105276004803603602081101561118557600080fd5b810190602081018135600160201b81111561119f57600080fd5b8201836020820111156111b157600080fd5b803590602001918460208302840111600160201b831117156111d257600080fd5b91908080602002602001604051908101604052809392919081815260200183836020028082843760009201919091525092955061337f945050505050565b61054f600480360360a081101561122657600080fd5b506001600160a01b0381358116916020810135821691604082013581169160608101359091169060800135613414565b61054f6004803603602081101561126c57600080fd5b50356135cc565b61054f6004803603606081101561128957600080fd5b506001600160a01b03813581169160208101359091169060400135613635565b610711600480360360408110156112bf57600080fd5b506001600160a01b038135169060200135613922565b610711613957565b61054f600480360360408110156112f357600080fd5b506001600160a01b038135169060200135613966565b610434613b16565b61054f613b26565b6105276004803603602081101561132f57600080fd5b50356001600160a01b0316613b2c565b61054f6004803603606081101561135557600080fd5b506001600160a01b03813581169160208101359091169060400135613b90565b61054f6004803603602081101561138b57600080fd5b50356001600160a01b0316613bcd565b610711613ee0565b600181565b6001600160a01b03821660009081526009602052604081205460ff166113ff5760405162461bcd60e51b8152600401808060200182810382526028815260200180615daa6028913960400191505060405180910390fd5b600a546001600160a01b031633148061142257506000546001600160a01b031633145b61145d5760405162461bcd60e51b8152600401808060200182810382526027815260200180615dd26027913960400191505060405180910390fd5b6000546001600160a01b031633148061147857506001821515145b6114c2576040805162461bcd60e51b81526020600482015260166024820152756f6e6c792061646d696e2063616e20756e706175736560501b604482015290519081900360640190fd5b6001600160a01b0383166000818152600c6020908152604091829020805486151560ff199091168117909155825193845283830152606090830181905260069083015265426f72726f7760d01b6080830152517f71aec636243f9709bb0007ae15e9afb8150ab01716d75fd7573be5cc096e03b09181900360a00190a150805b92915050565b60408051600180825281830190925260609160208083019080388339019050509050828160008151811061157857fe5b60200260200101906001600160a01b031690816001600160a01b0316815250506115a58183600180612622565b505050565b600f6020526000908152604090205481565b5050505050565b6002546001600160a01b03163314611622576040805162461bcd60e51b815260206004820152601d60248201527f6f6e6c7920627261696e732063616e206265636f6d6520697473656c66000000604482015290519081900360640190fd5b60005b82518110156116525761164a83828151811061163d57fe5b6020026020010151613eef565b600101611625565b5060005b81518110156116765761166e82828151811061163d57fe5b600101611656565b50611680836127cb565b6115a58261337f565b6001600160a01b03841660009081526009602052604081205460ff166116b15750600961174a565b6116b9615cea565b6040518060200160405280876001600160a01b031663aa5af0fd6040518163ffffffff1660e01b815260040160206040518083038186803b1580156116fd57600080fd5b505afa158015611711573d6000803e3d6000fd5b505050506040513d602081101561172757600080fd5b5051905290506117378682613fcd565b6117448685836000614255565b60009150505b949350505050565b600a546001600160a01b031681565b6001546001600160a01b031681565b600a546000906001600160a01b031633148061179657506000546001600160a01b031633145b6117d15760405162461bcd60e51b8152600401808060200182810382526027815260200180615dd26027913960400191505060405180910390fd5b6000546001600160a01b03163314806117ec57506001821515145b611836576040805162461bcd60e51b81526020600482015260166024820152756f6e6c792061646d696e2063616e20756e706175736560501b604482015290519081900360640190fd5b600a8054831515600160b81b810260ff60b81b1990921691909117909155604080516020810192909252808252600582820152645365697a6560d81b6060830152517fef159d9a32b2472e32b098f954f3ce62d232939f1c207070b584df1814de2de09181900360800190a150805b919050565b600080546001600160a01b031633146118d0576118c960016004614440565b90506118a5565b6118d8615cea565b5060408051602081019091528281526118ef615cea565b50604080516020810190915266b1a2bc2ec50000815261190f82826144a6565b156119285761191f600580614440565b925050506118a5565b611930615cea565b506040805160208101909152670c7d713b49da0000815261195181846144ae565b1561196b57611961600580614440565b93505050506118a5565b6005805490869055604080518281526020810188905281517f3b9670cf975d26958e754b57098eaa2ac914d8d2a31b83257997b9f346110fd9929181900390910190a160005b9695505050505050565b6000546001600160a01b03163314611a1a576040805162461bcd60e51b815260206004820152601f60248201527f6f6e6c792061646d696e2063616e2064726f7020636f6d70206d61726b657400604482015290519081900360640190fd5b6001600160a01b0381166000908152600960205260409020600381015460ff161515600114611a90576040805162461bcd60e51b815260206004820152601b60248201527f6d61726b6574206973206e6f74206120636f6d70206d61726b65740000000000604482015290519081900360640190fd5b60038101805460ff19169055604080516001600160a01b03841681526000602082015281517f93c1f3e36ed71139f466a4ce8c9751790e2e33f5afb2df0dcfb3aeabe55d5aa2929181900390910190a1611ae8611cb0565b5050565b6001600160a01b03821660009081526009602052604081205460ff16611b435760405162461bcd60e51b8152600401808060200182810382526028815260200180615daa6028913960400191505060405180910390fd5b600a546001600160a01b0316331480611b6657506000546001600160a01b031633145b611ba15760405162461bcd60e51b8152600401808060200182810382526027815260200180615dd26027913960400191505060405180910390fd5b6000546001600160a01b0316331480611bbc57506001821515145b611c06576040805162461bcd60e51b81526020600482015260166024820152756f6e6c792061646d696e2063616e20756e706175736560501b604482015290519081900360640190fd5b6001600160a01b0383166000818152600b6020908152604091829020805486151560ff199091168117909155825193845283830152606090830181905260049083015263135a5b9d60e21b6080830152517f71aec636243f9709bb0007ae15e9afb8150ab01716d75fd7573be5cc096e03b09181900360a00190a150919050565b600a54600160a01b900460ff1681565b50505050565b435b90565b505050505050565b60065481565b6060600d805480602002602001604051908101604052809291908181526020018280548015611d0857602002820191906000526020600020905b81546001600160a01b03168152600190910190602001808311611cea575b50939450600093505050505b8151811015611dce576000828281518110611d2b57fe5b60200260200101519050611d3d615cea565b6040518060200160405280836001600160a01b031663aa5af0fd6040518163ffffffff1660e01b815260040160206040518083038186803b158015611d8157600080fd5b505afa158015611d95573d6000803e3d6000fd5b505050506040513d6020811015611dab57600080fd5b505190529050611dba826144b5565b611dc48282613fcd565b5050600101611d14565b50611dd7615cea565b60405180602001604052806000815250905060608251604051908082528060200260200182016040528015611e2657816020015b611e13615cea565b815260200190600190039081611e0b5790505b50905060005b8351811015612039576000848281518110611e4357fe5b6020908102919091018101516001600160a01b0381166000908152600990925260409091206003015490915060ff161561203057611e7f615cea565b60408051602080820180845260045463fc57d4df60e01b9091526001600160a01b03868116602485015293519293849391169163fc57d4df916044808601929190818703018186803b158015611ed457600080fd5b505afa158015611ee8573d6000803e3d6000fd5b505050506040513d6020811015611efe57600080fd5b505190529050611f0c615cea565b611ff26040518060200160405280856001600160a01b031663f8f9da286040518163ffffffff1660e01b815260040160206040518083038186803b158015611f5357600080fd5b505afa158015611f67573d6000803e3d6000fd5b505050506040513d6020811015611f7d57600080fd5b50519052604080516308f7a6e360e31b815290516001600160a01b038716916347bd3718916004808301926020929190829003018186803b158015611fc157600080fd5b505afa158015611fd5573d6000803e3d6000fd5b505050506040513d6020811015611feb57600080fd5b5051614733565b9050611ffc615cea565b612006828461475d565b90508086868151811061201557fe5b602002602001018190525061202a878261479c565b96505050505b50600101611e2c565b5060005b8351811015611c97576000600d828154811061205557fe5b600091825260208220015485516001600160a01b03909116925061207a5760006120a2565b6120a2600e5461209d86868151811061208f57fe5b6020026020010151886147c1565b6147f4565b6001600160a01b0383166000818152600f60209081526040918290208490558151848152915193945091927f2ab93f65628379309f36cb125e90d7c902454a545c4f8b8cb0794af75c24b807929181900390910190a2505060010161203d565b6000806000806000806121178a8a8a8a61481c565b92509250925082601181111561212957fe5b95509093509150505b9450945094915050565b6001600160a01b0383166000908152600b602052604081205460ff161561219b576040805162461bcd60e51b815260206004820152600e60248201526d1b5a5b9d081a5cc81c185d5cd95960921b604482015290519081900360640190fd5b6001600160a01b03841660009081526009602052604090205460ff166121c55760095b90506121e0565b6121ce846144b5565b6121da84846000614c37565b60005b90505b9392505050565b600080546001600160a01b03163314612206576118c96001600b614440565b61220e615cea565b506040805160208101909152828152612225615cea565b506040805160208101909152670de0b6b3a7640000815261224682826144ae565b156122575761191f6007600c614440565b61225f615cea565b5060408051602081019091526714d1120d7b160000815261228081846144ae565b15612291576119616007600c614440565b6006805490869055604080518281526020810188905281517faeba5a6c40a8ac138134bff1aaa65debf25971188a58804bad717f82f0ec1316929181900390910190a160006119b1565b801580156122e95750600082115b15611c97576040805162461bcd60e51b815260206004820152601160248201527072656465656d546f6b656e73207a65726f60781b604482015290519081900360640190fd5b600d818154811061233c57fe5b6000918252602090912001546001600160a01b0316905081565b600080546001600160a01b03163314612375576118c960016010614440565b600480546001600160a01b038481166001600160a01b0319831681179093556040805191909216808252602082019390935281517fd52b2b9b7e9ee655fcb95d2e5b9e0c9f69e7ef2b8e9d2d0ea78402d576d22e22929181900390910190a160009392505050565b6115a5565b6000806000806000806123f987600080600061481c565b92509250925082601181111561240b57fe5b97919650945092505050565b600080546001600160a01b03163314612436576118c960016013614440565b600a80546001600160a01b038481166001600160a01b0319831617928390556040805192821680845293909116602083015280517f0613b6ee6a04f0d09f390e4d9318894b9f6ac7fd83897cd8d18896ba579c401e9281900390910190a160006121e0565b6001600160a01b03851660009081526009602052604081205460ff1615806124dc57506001600160a01b03851660009081526009602052604090205460ff16155b156124eb5760095b9050612619565b6000806124f785614e2f565b9193509091506000905082601181111561250d57fe5b146125275781601181111561251e57fe5b92505050612619565b8061253357600361251e565b6000886001600160a01b03166395dd9193876040518263ffffffff1660e01b815260040180826001600160a01b03166001600160a01b0316815260200191505060206040518083038186803b15801561258b57600080fd5b505afa15801561259f573d6000803e3d6000fd5b505050506040513d60208110156125b557600080fd5b50516040805160208101909152600554815290915060009081906125d99084614e4f565b909250905060008260038111156125ec57fe5b1461260057600b5b95505050505050612619565b8087111561260f5760116125f4565b6000955050505050505b95945050505050565b60005b83518110156115bc57600084828151811061263c57fe5b6020908102919091018101516001600160a01b0381166000908152600990925260409091205490915060ff166126b1576040805162461bcd60e51b81526020600482015260156024820152741b585c9ad95d081b5d5cdd081899481b1a5cdd1959605a1b604482015290519081900360640190fd5b60018415151415612779576126c4615cea565b6040518060200160405280836001600160a01b031663aa5af0fd6040518163ffffffff1660e01b815260040160206040518083038186803b15801561270857600080fd5b505afa15801561271c573d6000803e3d6000fd5b505050506040513d602081101561273257600080fd5b5051905290506127428282613fcd565b60005b87518110156127765761276e8389838151811061275e57fe5b6020026020010151846001614255565b600101612745565b50505b600183151514156127c25761278d816144b5565b60005b86518110156127c0576127b8828883815181106127a957fe5b60200260200101516001614c37565b600101612790565b505b50600101612625565b6127d3614ea3565b612824576040805162461bcd60e51b815260206004820152601f60248201527f6f6e6c792061646d696e2063616e206368616e676520636f6d70207261746500604482015290519081900360640190fd5b600e805490829055604080518281526020810184905281517fc227c9272633c3a307d9845bf2bc2509cefb20d655b5f3c1002d8e1e3f22c8b0929181900390910190a1611ae8611cb0565b6010602052600090815260409020546001600160e01b03811690600160e01b900463ffffffff1682565b600c6020526000908152604090205460ff1681565b600b6020526000908152604090205460ff1681565b66038d7ea4c6800081565b6004546001600160a01b031681565b600a54600160b01b900460ff1681565b6011602052600090815260409020546001600160e01b03811690600160e01b900463ffffffff1682565b60096020526000908152604090208054600182015460039092015460ff91821692911683565b600a546000906001600160a01b031633148061296357506000546001600160a01b031633145b61299e5760405162461bcd60e51b8152600401808060200182810382526027815260200180615dd26027913960400191505060405180910390fd5b6000546001600160a01b03163314806129b957506001821515145b612a03576040805162461bcd60e51b81526020600482015260166024820152756f6e6c792061646d696e2063616e20756e706175736560501b604482015290519081900360640190fd5b600a8054831515600160b01b810260ff60b01b1990921691909117909155604080516020810192909252808252600882820152672a3930b739b332b960c11b6060830152517fef159d9a32b2472e32b098f954f3ce62d232939f1c207070b584df1814de2de09181900360800190a15090565b6001600160a01b038082166000908152600960209081526040808320938616835260029093019052205460ff1692915050565b60075481565b836001600160a01b031663f851a4406040518163ffffffff1660e01b815260040160206040518083038186803b158015612ae857600080fd5b505afa158015612afc573d6000803e3d6000fd5b505050506040513d6020811015612b1257600080fd5b50516001600160a01b03163314612b5a5760405162461bcd60e51b8152600401808060200182810382526027815260200180615e3e6027913960400191505060405180910390fd5b836001600160a01b031663c1e803346040518163ffffffff1660e01b8152600401602060405180830381600087803b158015612b9557600080fd5b505af1158015612ba9573d6000803e3d6000fd5b505050506040513d6020811015612bbf57600080fd5b505115612c0b576040805162461bcd60e51b815260206004820152601560248201527418da185b99d9481b9bdd08185d5d1a1bdc9a5e9959605a1b604482015290519081900360640190fd5b836001600160a01b0316632327c7df8484846040518463ffffffff1660e01b8152600401808481526020018060200180602001838103835285818151815260200191508051906020019060200280838360005b83811015612c76578181015183820152602001612c5e565b50505050905001838103825284818151815260200191508051906020019060200280838360005b83811015612cb5578181015183820152602001612c9d565b5050505090500195505050505050600060405180830381600087803b158015612cdd57600080fd5b505af1158015612cf1573d6000803e3d6000fd5b5050505050505050565b7361460874a7196d6a22d1ee4922473664b3e9527090565b600080546001600160a01b03163314612d32576118c960016012614440565b6001600160a01b03821660009081526009602052604090205460ff1615612d5f576118c9600a6011614440565b816001600160a01b031663fe9c44ae6040518163ffffffff1660e01b815260040160206040518083038186803b158015612d9857600080fd5b505afa158015612dac573d6000803e3d6000fd5b505050506040513d6020811015612dc257600080fd5b5050604080516060810182526001808252600060208381018281528486018381526001600160a01b03891684526009909252949091209251835490151560ff19918216178455935191830191909155516003909101805491151591909216179055612e2c82613eef565b604080516001600160a01b038416815290517fcf583bb0c569eb967f806b11601c4cb93c10310485c67add5f8362c2f212321f9181900360200190a1600092915050565b6ec097ce7bc90715b34b9f100000000081565b600e5481565b60608060086000846001600160a01b03166001600160a01b03168152602001908152602001600020805480602002602001604051908101604052809291908181526020018280548015612f0557602002820191906000526020600020905b81546001600160a01b03168152600190910190602001808311612ee7575b5093979650505050505050565b600a54600160b81b900460ff1681565b6060600d805480602002602001604051908101604052809291908181526020018280548015612f7a57602002820191906000526020600020905b81546001600160a01b03168152600190910190602001808311612f5c575b5050505050905090565b601260209081526000928352604080842090915290825290205481565b6002546001600160a01b031681565b600a54600090600160b01b900460ff1615613007576040805162461bcd60e51b81526020600482015260126024820152711d1c985b9cd9995c881a5cc81c185d5cd95960721b604482015290519081900360640190fd5b6000613014868685614ecc565b9050801561302357905061174a565b61302c866144b5565b61303886866000614c37565b61174486856000614c37565b6060600082519050606081604051908082528060200260200182016040528015613078578160200160208202803883390190505b50905060005b828110156130d357600085828151811061309457fe5b602002602001015190506130a88133614f6f565b60118111156130b357fe5b8383815181106130bf57fe5b60209081029190910101525060010161307e565b509392505050565b600480546040805163fc57d4df60e01b81526001600160a01b038781169482019490945290516000938493849391169163fc57d4df91602480820192602092909190829003018186803b15801561313157600080fd5b505afa158015613145573d6000803e3d6000fd5b505050506040513d602081101561315b57600080fd5b5051600480546040805163fc57d4df60e01b81526001600160a01b038a8116948201949094529051939450600093929091169163fc57d4df91602480820192602092909190829003018186803b1580156131b457600080fd5b505afa1580156131c8573d6000803e3d6000fd5b505050506040513d60208110156131de57600080fd5b505190508115806131ed575080155b1561320257600d935060009250613348915050565b6000866001600160a01b031663182df0f56040518163ffffffff1660e01b815260040160206040518083038186803b15801561323d57600080fd5b505afa158015613251573d6000803e3d6000fd5b505050506040513d602081101561326757600080fd5b505190506000613275615cea565b61327d615cea565b613285615cea565b600061329360065489615090565b9450905060008160038111156132a557fe5b146132c157600b5b995060009850613348975050505050505050565b6132cb8787615090565b9350905060008160038111156132dd57fe5b146132e957600b6132ad565b6132f384846150cb565b92509050600081600381111561330557fe5b1461331157600b6132ad565b61331b828c614e4f565b95509050600081600381111561332d57fe5b1461333957600b6132ad565b60009950939750505050505050505b935093915050565b601360209081526000928352604080842090915290825290205481565b60146020526000908152604090205481565b613387614ea3565b6133d8576040805162461bcd60e51b815260206004820152601e60248201527f6f6e6c792061646d696e2063616e2061646420636f6d70206d61726b65740000604482015290519081900360640190fd5b60005b8151811015613408576134008282815181106133f357fe5b60200260200101516150e3565b6001016133db565b50613411611cb0565b50565b600a54600090600160b81b900460ff1615613468576040805162461bcd60e51b815260206004820152600f60248201526e1cd95a5e99481a5cc81c185d5cd959608a1b604482015290519081900360640190fd5b6001600160a01b03861660009081526009602052604090205460ff1615806134a957506001600160a01b03851660009081526009602052604090205460ff16155b156134b55760096124e4565b846001600160a01b0316635fe3b5676040518163ffffffff1660e01b815260040160206040518083038186803b1580156134ee57600080fd5b505afa158015613502573d6000803e3d6000fd5b505050506040513d602081101561351857600080fd5b505160408051635fe3b56760e01b815290516001600160a01b0392831692891691635fe3b567916004808301926020929190829003018186803b15801561355e57600080fd5b505afa158015613572573d6000803e3d6000fd5b505050506040513d602081101561358857600080fd5b50516001600160a01b03161461359f5760026124e4565b6135a8866144b5565b6135b486846000614c37565b6135c086856000614c37565b60009695505050505050565b600080546001600160a01b031633146135eb576118c96001600d614440565b6007805490839055604080518281526020810185905281517f7093cf1eb653f749c3ff531d6df7f92764536a7fa0d13530cd26e070780c32ea929181900390910190a160006121e0565b6001600160a01b0383166000908152600c602052604081205460ff1615613696576040805162461bcd60e51b815260206004820152601060248201526f189bdc9c9bddc81a5cc81c185d5cd95960821b604482015290519081900360640190fd5b6001600160a01b03841660009081526009602052604090205460ff166136bd5760096121be565b6001600160a01b038085166000908152600960209081526040808320938716835260029093019052205460ff166137ad57336001600160a01b03851614613743576040805162461bcd60e51b815260206004820152601560248201527439b2b73232b91036bab9ba1031329031aa37b5b2b760591b604482015290519081900360640190fd5b600061374f3385614f6f565b9050600081601181111561375f57fe5b146137785780601181111561377057fe5b9150506121e0565b6001600160a01b038086166000908152600960209081526040808320938816835260029093019052205460ff166137ab57fe5b505b600480546040805163fc57d4df60e01b81526001600160a01b03888116948201949094529051929091169163fc57d4df91602480820192602092909190829003018186803b1580156137fe57600080fd5b505afa158015613812573d6000803e3d6000fd5b505050506040513d602081101561382857600080fd5b505161383557600d6121be565b600080613845858760008761481c565b9193509091506000905082601181111561385b57fe5b146138755781601181111561386c57fe5b925050506121e0565b801561388257600461386c565b61388a615cea565b6040518060200160405280886001600160a01b031663aa5af0fd6040518163ffffffff1660e01b815260040160206040518083038186803b1580156138ce57600080fd5b505afa1580156138e2573d6000803e3d6000fd5b505050506040513d60208110156138f857600080fd5b5051905290506139088782613fcd565b6139158787836000614255565b6000979650505050505050565b6008602052816000526040600020818154811061393b57fe5b6000918252602090912001546001600160a01b03169150829050565b6003546001600160a01b031681565b600080546001600160a01b0316331461398c5761398560016006614440565b9050611542565b6001600160a01b0383166000908152600960205260409020805460ff166139c1576139b960096007614440565b915050611542565b6139c9615cea565b5060408051602081019091528381526139e0615cea565b506040805160208101909152670c7d713b49da00008152613a0181836144ae565b15613a1c57613a1260066008614440565b9350505050611542565b8415801590613aa55750600480546040805163fc57d4df60e01b81526001600160a01b038a8116948201949094529051929091169163fc57d4df91602480820192602092909190829003018186803b158015613a7757600080fd5b505afa158015613a8b573d6000803e3d6000fd5b505050506040513d6020811015613aa157600080fd5b5051155b15613ab657613a12600d6009614440565b60018301805490869055604080516001600160a01b03891681526020810183905280820188905290517f70483e6592cd5182d45ac970e05bc62cdcc90e9d8ef2c2dbe686cf383bcd7fc59181900360600190a16000979650505050505050565b600a54600160a81b900460ff1681565b60055481565b61341181600d805480602002602001604051908101604052809291908181526020018280548015613b8657602002820191906000526020600020905b81546001600160a01b03168152600190910190602001808311613b68575b5050505050611548565b600080613b9e858585614ecc565b90508015613bad5790506121e0565b613bb6856144b5565b613bc285856000614c37565b600095945050505050565b6000808290506000806000836001600160a01b031663c37f68e2336040518263ffffffff1660e01b815260040180826001600160a01b03166001600160a01b0316815260200191505060806040518083038186803b158015613c2e57600080fd5b505afa158015613c42573d6000803e3d6000fd5b505050506040513d6080811015613c5857600080fd5b508051602082015160409092015190945090925090508215613cab5760405162461bcd60e51b8152600401808060200182810382526025815260200180615df96025913960400191505060405180910390fd5b8015613cc857613cbd600c6002614440565b9450505050506118a5565b6000613cd5873385614ecc565b90508015613cf657613cea600e6003836153fe565b955050505050506118a5565b6001600160a01b0385166000908152600960209081526040808320338452600281019092529091205460ff16613d3557600096505050505050506118a5565b3360009081526002820160209081526040808320805460ff191690556008825291829020805483518184028101840190945280845260609392830182828015613da757602002820191906000526020600020905b81546001600160a01b03168152600190910190602001808311613d89575b5050835193945083925060009150505b82811015613dfc57896001600160a01b0316848281518110613dd557fe5b60200260200101516001600160a01b03161415613df457809150613dfc565b600101613db7565b50818110613e0657fe5b336000908152600860205260409020805481906000198101908110613e2757fe5b9060005260206000200160009054906101000a90046001600160a01b0316818381548110613e5157fe5b600091825260209091200180546001600160a01b0319166001600160a01b03929092169190911790558054613e8a826000198301615cfd565b50604080516001600160a01b038c16815233602082015281517fe699a64c18b07ac5b7301aa273f36a2287239eb9501d81950672794afba29a0d929181900390910190a160009c9b505050505050505050505050565b6000546001600160a01b031681565b60005b600d54811015613f7a57816001600160a01b0316600d8281548110613f1357fe5b6000918252602090912001546001600160a01b03161415613f72576040805162461bcd60e51b81526020600482015260146024820152731b585c9ad95d08185b1c9958591e48185919195960621b604482015290519081900360640190fd5b600101613ef2565b50600d80546001810182556000919091527fd7b6990105719101dabeb77144f2a3385c8033acd3af97e9423a695e81ad1eb50180546001600160a01b0319166001600160a01b0392909216919091179055565b6001600160a01b0382166000908152601160209081526040808320600f9092528220549091613ffa611c9d565b835490915060009061401a908390600160e01b900463ffffffff16615464565b905060008111801561402c5750600083115b156141fb5760006140a1876001600160a01b03166347bd37186040518163ffffffff1660e01b815260040160206040518083038186803b15801561406f57600080fd5b505afa158015614083573d6000803e3d6000fd5b505050506040513d602081101561409957600080fd5b50518761549e565b905060006140af83866154bc565b90506140b9615cea565b600083116140d657604051806020016040528060008152506140e0565b6140e082846154fe565b90506140ea615cea565b604080516020810190915288546001600160e01b0316815261410c908361479c565b9050604051806040016040528061415c83600001516040518060400160405280601a81526020017f6e657720696e6465782065786365656473203232342062697473000000000000815250615533565b6001600160e01b03168152602001614197886040518060400160405280601c8152602001600080516020615e1e8339815191528152506155cd565b63ffffffff9081169091526001600160a01b038c166000908152601160209081526040909120835181549490920151909216600160e01b026001600160e01b039182166001600160e01b0319909416939093171691909117905550611ca292505050565b8015611ca25761422e826040518060400160405280601c8152602001600080516020615e1e8339815191528152506155cd565b845463ffffffff91909116600160e01b026001600160e01b03909116178455505050505050565b6001600160a01b0384166000908152601160205260409020614275615cea565b50604080516020810190915281546001600160e01b03168152614296615cea565b5060408051602080820183526001600160a01b03808a16600090815260138352848120918a1680825282845294812080548552865195909152915291909155805115614437576142e4615cea565b6142ee8383615622565b9050600061437d896001600160a01b03166395dd91938a6040518263ffffffff1660e01b815260040180826001600160a01b03166001600160a01b0316815260200191505060206040518083038186803b15801561434b57600080fd5b505afa15801561435f573d6000803e3d6000fd5b505050506040513d602081101561437557600080fd5b50518861549e565b9050600061438b8284615647565b6001600160a01b038a16600090815260146020526040812054919250906143b29083615667565b90506143d38a828a6143cb5766038d7ea4c680006143ce565b60005b61569d565b6001600160a01b03808c1660008181526014602090815260409182902094909455895181518781529485015280519193928f16927f1fc3ecc087d8d2d15e23d0032af5a47059c3892d003d8e139fdcb6bb327c99a6929081900390910190a3505050505b50505050505050565b60007f45b96fe442630264581b197e84bbada861235052c5a1aadfff9ea4e40a969aa083601181111561446f57fe5b83601381111561447b57fe5b604080519283526020830191909152600082820152519081900360600190a18260118111156121e057fe5b519051111590565b5190511090565b6001600160a01b0381166000908152601060209081526040808320600f90925282205490916144e2611c9d565b8354909150600090614502908390600160e01b900463ffffffff16615464565b90506000811180156145145750600083115b156146da576000856001600160a01b03166318160ddd6040518163ffffffff1660e01b815260040160206040518083038186803b15801561455457600080fd5b505afa158015614568573d6000803e3d6000fd5b505050506040513d602081101561457e57600080fd5b50519050600061458e83866154bc565b9050614598615cea565b600083116145b557604051806020016040528060008152506145bf565b6145bf82846154fe565b90506145c9615cea565b604080516020810190915288546001600160e01b031681526145eb908361479c565b9050604051806040016040528061463b83600001516040518060400160405280601a81526020017f6e657720696e6465782065786365656473203232342062697473000000000000815250615533565b6001600160e01b03168152602001614676886040518060400160405280601c8152602001600080516020615e1e8339815191528152506155cd565b63ffffffff9081169091526001600160a01b038b166000908152601060209081526040909120835181549490920151909216600160e01b026001600160e01b039182166001600160e01b03199094169390931716919091179055506115bc92505050565b80156115bc5761470d826040518060400160405280601c8152602001600080516020615e1e8339815191528152506155cd565b845463ffffffff91909116600160e01b026001600160e01b039091161784555050505050565b61473b615cea565b60405180602001604052806147548560000151856154bc565b90529392505050565b614765615cea565b6040518060200160405280670de0b6b3a764000061478b866000015186600001516154bc565b8161479257fe5b0490529392505050565b6147a4615cea565b604051806020016040528061475485600001518560000151615667565b6147c9615cea565b60405180602001604052806147546147ed8660000151670de0b6b3a76400006154bc565b85516157e2565b6000670de0b6b3a764000061480d8484600001516154bc565b8161481457fe5b049392505050565b6000806000614829615d21565b6001600160a01b03881660009081526008602090815260408083208054825181850281018501909352808352849360609392919083018282801561489657602002820191906000526020600020905b81546001600160a01b03168152600190910190602001808311614878575b50939450600093505050505b8151811015614bf25760008282815181106148b957fe5b60200260200101519050806001600160a01b031663c37f68e28e6040518263ffffffff1660e01b815260040180826001600160a01b03166001600160a01b0316815260200191505060806040518083038186803b15801561491957600080fd5b505afa15801561492d573d6000803e3d6000fd5b505050506040513d608081101561494357600080fd5b508051602082015160408084015160609485015160808c0152938a019390935291880191909152945084156149895750600f975060009650869550612132945050505050565b60408051602080820183526001600160a01b0380851660008181526009845285902060010154845260c08b01939093528351808301855260808b0151815260e08b015260048054855163fc57d4df60e01b815291820194909452935192169263fc57d4df9260248083019392829003018186803b158015614a0957600080fd5b505afa158015614a1d573d6000803e3d6000fd5b505050506040513d6020811015614a3357600080fd5b505160a08701819052614a575750600d975060009650869550612132945050505050565b604080516020810190915260a08701518152610100870181905260c087015160e0880151614a8492615815565b61012088015293506000846003811115614a9a57fe5b14614ab65750600b975060009650869550612132945050505050565b614ace8661012001518760400151886000015161586d565b875293506000846003811115614ae057fe5b14614afc5750600b975060009650869550612132945050505050565b614b148661010001518760600151886020015161586d565b602088015293506000846003811115614b2957fe5b14614b455750600b975060009650869550612132945050505050565b8b6001600160a01b0316816001600160a01b03161415614be957614b738661012001518c886020015161586d565b602088015293506000846003811115614b8857fe5b14614ba45750600b975060009650869550612132945050505050565b614bb88661010001518b886020015161586d565b602088015293506000846003811115614bcd57fe5b14614be95750600b975060009650869550612132945050505050565b506001016148a2565b50602084015184511115614c19575050506020810151905160009450039150829050612132565b50508151602090920151600095508594509190910391506121329050565b6001600160a01b0383166000908152601060205260409020614c57615cea565b50604080516020810190915281546001600160e01b03168152614c78615cea565b5060408051602080820183526001600160a01b03808916600090815260128352848120918916808252828452948120805485528651959091529152919091558051158015614cc65750815115155b15614cde576ec097ce7bc90715b34b9f100000000081525b614ce6615cea565b614cf08383615622565b90506000876001600160a01b03166370a08231886040518263ffffffff1660e01b815260040180826001600160a01b03166001600160a01b0316815260200191505060206040518083038186803b158015614d4a57600080fd5b505afa158015614d5e573d6000803e3d6000fd5b505050506040513d6020811015614d7457600080fd5b505190506000614d848284615647565b6001600160a01b03891660009081526014602052604081205491925090614dab9083615667565b9050614dc489828a6143cb5766038d7ea4c680006143ce565b6001600160a01b03808b1660008181526014602090815260409182902094909455895181518781529485015280519193928e16927f2caecd17d02f56fa897705dcc740da2d237c373f70686f4e0d9bd3bf0400ea7a929081900390910190a350505050505050505050565b6000806000614e4284600080600061481c565b9250925092509193909250565b6000806000614e5c615cea565b614e6686866158ba565b90925090506000826003811115614e7957fe5b14614e8a5750915060009050614e9c565b6000614e9582615922565b9350935050505b9250929050565b600080546001600160a01b0316331480614ec757506002546001600160a01b031633145b905090565b6001600160a01b03831660009081526009602052604081205460ff16614ef35760096121be565b6001600160a01b038085166000908152600960209081526040808320938716835260029093019052205460ff16614f2b5760006121be565b600080614f3b858786600061481c565b91935090915060009050826011811115614f5157fe5b14614f625781601181111561386c57fe5b80156135c057600461386c565b6001600160a01b0382166000908152600960205260408120805460ff16614f9a576009915050611542565b6001600160a01b038316600090815260028201602052604090205460ff16151560011415614fcc576000915050611542565b6007546001600160a01b03841660009081526008602052604090205410614ff7576010915050611542565b6001600160a01b0380841660008181526002840160209081526040808320805460ff19166001908117909155600883528184208054918201815584529282902090920180549489166001600160a01b031990951685179055815193845283019190915280517f3ab23ab0d51cccc0c3085aec51f99228625aa1a922b3a8ca89a26b0f2027a1a59281900390910190a15060009392505050565b600061509a615cea565b6150c0604051806020016040528086815250604051806020016040528086815250615931565b915091509250929050565b60006150d5615cea565b835183516150c09190615a1a565b6001600160a01b0381166000908152600960205260409020805460ff161515600114615156576040805162461bcd60e51b815260206004820152601960248201527f636f6d70206d61726b6574206973206e6f74206c697374656400000000000000604482015290519081900360640190fd5b600381015460ff16156151b0576040805162461bcd60e51b815260206004820152601960248201527f636f6d70206d61726b657420616c726561647920616464656400000000000000604482015290519081900360640190fd5b60038101805460ff19166001908117909155604080516001600160a01b0385168152602081019290925280517f93c1f3e36ed71139f466a4ce8c9751790e2e33f5afb2df0dcfb3aeabe55d5aa29281900390910190a16001600160a01b0382166000908152601060205260409020546001600160e01b031615801561525857506001600160a01b038216600090815260106020526040902054600160e01b900463ffffffff16155b156153155760405180604001604052806ec097ce7bc90715b34b9f10000000006001600160e01b031681526020016152ba615291611c9d565b6040518060400160405280601c8152602001600080516020615e1e8339815191528152506155cd565b63ffffffff9081169091526001600160a01b0384166000908152601060209081526040909120835181549490920151909216600160e01b026001600160e01b039182166001600160e01b031990941693909317169190911790555b6001600160a01b0382166000908152601160205260409020546001600160e01b031615801561536757506001600160a01b038216600090815260116020526040902054600160e01b900463ffffffff16155b15611ae85760405180604001604052806ec097ce7bc90715b34b9f10000000006001600160e01b031681526020016153a0615291611c9d565b63ffffffff9081169091526001600160a01b0384166000908152601160209081526040909120835181549490920151909216600160e01b026001600160e01b039182166001600160e01b031990941693909317169190911790555050565b60007f45b96fe442630264581b197e84bbada861235052c5a1aadfff9ea4e40a969aa084601181111561542d57fe5b84601381111561543957fe5b604080519283526020830191909152818101859052519081900360600190a18360118111156121dd57fe5b60006121e08383604051806040016040528060158152602001747375627472616374696f6e20756e646572666c6f7760581b815250615aca565b60006121e06154b584670de0b6b3a76400006154bc565b83516157e2565b60006121e083836040518060400160405280601781526020017f6d756c7469706c69636174696f6e206f766572666c6f77000000000000000000815250615b24565b615506615cea565b604051806020016040528061475461552d866ec097ce7bc90715b34b9f10000000006154bc565b856157e2565b600081600160e01b84106155c55760405162461bcd60e51b81526004018080602001828103825283818151815260200191508051906020019080838360005b8381101561558a578181015183820152602001615572565b50505050905090810190601f1680156155b75780820380516001836020036101000a031916815260200191505b509250505060405180910390fd5b509192915050565b600081600160201b84106155c55760405162461bcd60e51b815260206004820181815283516024840152835190928392604490910191908501908083836000831561558a578181015183820152602001615572565b61562a615cea565b604051806020016040528061475485600001518560000151615464565b60006ec097ce7bc90715b34b9f100000000061480d8484600001516154bc565b60006121e08383604051806040016040528060118152602001706164646974696f6e206f766572666c6f7760781b815250615ba3565b60008183101580156156af5750600083115b156157da5760006156be612cfb565b604080516370a0823160e01b815230600482015290519192506000916001600160a01b038416916370a08231916024808301926020929190829003018186803b15801561570a57600080fd5b505afa15801561571e573d6000803e3d6000fd5b505050506040513d602081101561573457600080fd5b505190508085116157d757816001600160a01b031663a9059cbb87876040518363ffffffff1660e01b815260040180836001600160a01b03166001600160a01b0316815260200182815260200192505050602060405180830381600087803b15801561579f57600080fd5b505af11580156157b3573d6000803e3d6000fd5b505050506040513d60208110156157c957600080fd5b50600093506121e092505050565b50505b509092915050565b60006121e083836040518060400160405280600e81526020016d646976696465206279207a65726f60901b815250615bf8565b600061581f615cea565b6000615829615cea565b6158338787615931565b9092509050600082600381111561584657fe5b14615855579092509050613348565b61585f8186615931565b935093505050935093915050565b600080600061587a615cea565b61588487876158ba565b9092509050600082600381111561589757fe5b146158a85750915060009050613348565b61585f6158b482615922565b86615c5a565b60006158c4615cea565b6000806158d5866000015186615c80565b909250905060008260038111156158e857fe5b1461590757506040805160208101909152600081529092509050614e9c565b60408051602081019091529081526000969095509350505050565b51670de0b6b3a7640000900490565b600061593b615cea565b60008061595086600001518660000151615c80565b9092509050600082600381111561596357fe5b1461598257506040805160208101909152600081529092509050614e9c565b6000806159976706f05b59d3b2000084615c5a565b909250905060008260038111156159aa57fe5b146159cc57506040805160208101909152600081529094509250614e9c915050565b6000806159e183670de0b6b3a7640000615cbf565b909250905060008260038111156159f457fe5b146159fb57fe5b604080516020810190915290815260009a909950975050505050505050565b6000615a24615cea565b600080615a3986670de0b6b3a7640000615c80565b90925090506000826003811115615a4c57fe5b14615a6b57506040805160208101909152600081529092509050614e9c565b600080615a788388615cbf565b90925090506000826003811115615a8b57fe5b14615aad57506040805160208101909152600081529094509250614e9c915050565b604080516020810190915290815260009890975095505050505050565b60008184841115615b1c5760405162461bcd60e51b815260206004820181815283516024840152835190928392604490910191908501908083836000831561558a578181015183820152602001615572565b505050900390565b6000831580615b31575082155b15615b3e575060006121e0565b83830283858281615b4b57fe5b04148390615b9a5760405162461bcd60e51b815260206004820181815283516024840152835190928392604490910191908501908083836000831561558a578181015183820152602001615572565b50949350505050565b60008383018285821015615b9a5760405162461bcd60e51b815260206004820181815283516024840152835190928392604490910191908501908083836000831561558a578181015183820152602001615572565b60008183615c475760405162461bcd60e51b815260206004820181815283516024840152835190928392604490910191908501908083836000831561558a578181015183820152602001615572565b50828481615c5157fe5b04949350505050565b600080838301848110615c7257600092509050614e9c565b506002915060009050614e9c565b60008083615c9357506000905080614e9c565b83830283858281615ca057fe5b0414615cb457506002915060009050614e9c565b600092509050614e9c565b60008082615cd35750600190506000614e9c565b6000838581615cde57fe5b04915091509250929050565b6040518060200160405280600081525090565b8154818355818111156115a5576000838152602090206115a5918101908301615d8b565b604051806101400160405280600081526020016000815260200160008152602001600081526020016000815260200160008152602001615d5f615cea565b8152602001615d6c615cea565b8152602001615d79615cea565b8152602001615d86615cea565b905290565b611c9f91905b80821115615da55760008155600101615d91565b509056fe63616e6e6f742070617573652061206d61726b65742074686174206973206e6f74206c69737465646f6e6c7920706175736520677561726469616e20616e642061646d696e2063616e207061757365657869744d61726b65743a206765744163636f756e74536e617073686f74206661696c6564626c6f636b206e756d62657220657863656564732033322062697473000000006f6e6c7920756e6974726f6c6c65722061646d696e2063616e206368616e676520627261696e73a265627a7a7231582049a2adc14a22c3d1418bc03ee15883bf3d8840a26f4cbea49c87a08152bb119f64736f6c634300050e0032",
  "source": "pragma solidity ^0.5.14;\n\nimport \"../../contracts/Comptroller.sol\";\nimport \"../../contracts/PriceOracle.sol\";\n\ncontract ComptrollerKovan is Comptroller {\n  function getCompAddress() public view returns (address) {\n    return 0x61460874a7196d6a22D1eE4922473664b3E95270;\n  }\n}\n\ncontract ComptrollerRopsten is Comptroller {\n  function getCompAddress() public view returns (address) {\n    return 0x1Fe16De955718CFAb7A44605458AB023838C2793;\n  }\n}\n\ncontract ComptrollerHarness is Comptroller {\n    address compAddress;\n    uint public blockNumber;\n\n    constructor() Comptroller() public {}\n\n    function setPauseGuardian(address harnessedPauseGuardian) public {\n        pauseGuardian = harnessedPauseGuardian;\n    }\n\n    function setCompSupplyState(address cToken, uint224 index, uint32 blockNumber_) public {\n        compSupplyState[cToken].index = index;\n        compSupplyState[cToken].block = blockNumber_;\n    }\n\n    function setCompBorrowState(address cToken, uint224 index, uint32 blockNumber_) public {\n        compBorrowState[cToken].index = index;\n        compBorrowState[cToken].block = blockNumber_;\n    }\n\n    function setCompAccrued(address user, uint userAccrued) public {\n        compAccrued[user] = userAccrued;\n    }\n\n    function setCompAddress(address compAddress_) public {\n        compAddress = compAddress_;\n    }\n\n    function getCompAddress() public view returns (address) {\n        return compAddress;\n    }\n\n    function setCompSpeed(address cToken, uint compSpeed) public {\n        compSpeeds[cToken] = compSpeed;\n    }\n\n    function setCompBorrowerIndex(address cToken, address borrower, uint index) public {\n        compBorrowerIndex[cToken][borrower] = index;\n    }\n\n    function setCompSupplierIndex(address cToken, address supplier, uint index) public {\n        compSupplierIndex[cToken][supplier] = index;\n    }\n\n    function harnessUpdateCompBorrowIndex(address cToken, uint marketBorrowIndexMantissa) public {\n        updateCompBorrowIndex(cToken, Exp({mantissa: marketBorrowIndexMantissa}));\n    }\n\n    function harnessUpdateCompSupplyIndex(address cToken) public {\n        updateCompSupplyIndex(cToken);\n    }\n\n    function harnessDistributeBorrowerComp(address cToken, address borrower, uint marketBorrowIndexMantissa) public {\n        distributeBorrowerComp(cToken, borrower, Exp({mantissa: marketBorrowIndexMantissa}), false);\n    }\n\n    function harnessDistributeSupplierComp(address cToken, address supplier) public {\n        distributeSupplierComp(cToken, supplier, false);\n    }\n\n    function harnessTransferComp(address user, uint userAccrued, uint threshold) public returns (uint) {\n        return transferComp(user, userAccrued, threshold);\n    }\n\n    function harnessFastForward(uint blocks) public returns (uint) {\n        blockNumber += blocks;\n        return blockNumber;\n    }\n\n    function setBlockNumber(uint number) public {\n        blockNumber = number;\n    }\n\n    function getBlockNumber() public view returns (uint) {\n        return blockNumber;\n    }\n\n    function getCompMarkets() public view returns (address[] memory) {\n        uint m = allMarkets.length;\n        uint n = 0;\n        for (uint i = 0; i < m; i++) {\n            if (markets[address(allMarkets[i])].isComped) {\n                n++;\n            }\n        }\n\n        address[] memory compMarkets = new address[](n);\n        uint k = 0;\n        for (uint i = 0; i < m; i++) {\n            if (markets[address(allMarkets[i])].isComped) {\n                compMarkets[k++] = address(allMarkets[i]);\n            }\n        }\n        return compMarkets;\n    }\n}\n\ncontract ComptrollerScenario is Comptroller {\n    uint public blockNumber;\n    address public compAddress;\n\n    constructor() Comptroller() public {}\n\n    function setCompAddress(address compAddress_) public {\n        compAddress = compAddress_;\n    }\n\n    function getCompAddress() public view returns (address) {\n        return compAddress;\n    }\n\n    function membershipLength(CToken cToken) public view returns (uint) {\n        return accountAssets[address(cToken)].length;\n    }\n\n    function fastForward(uint blocks) public returns (uint) {\n        blockNumber += blocks;\n\n        return blockNumber;\n    }\n\n    function setBlockNumber(uint number) public {\n        blockNumber = number;\n    }\n\n    function getBlockNumber() public view returns (uint) {\n        return blockNumber;\n    }\n\n    function getCompMarkets() public view returns (address[] memory) {\n        uint m = allMarkets.length;\n        uint n = 0;\n        for (uint i = 0; i < m; i++) {\n            if (markets[address(allMarkets[i])].isComped) {\n                n++;\n            }\n        }\n\n        address[] memory compMarkets = new address[](n);\n        uint k = 0;\n        for (uint i = 0; i < m; i++) {\n            if (markets[address(allMarkets[i])].isComped) {\n                compMarkets[k++] = address(allMarkets[i]);\n            }\n        }\n        return compMarkets;\n    }\n\n    function unlist(CToken cToken) public {\n        markets[address(cToken)].isListed = false;\n    }\n}\n\n\ncontract ComptrollerBorked {\n    function _become(Unitroller unitroller, PriceOracle _oracle, uint _closeFactorMantissa, uint _maxAssets, bool _reinitializing) public {\n        _oracle;\n        _closeFactorMantissa;\n        _maxAssets;\n        _reinitializing;\n\n        require(msg.sender == unitroller.admin(), \"only unitroller admin can change brains\");\n        unitroller._acceptImplementation();\n    }\n}\n\ncontract BoolComptroller is ComptrollerInterface {\n    bool allowMint = true;\n    bool allowRedeem = true;\n    bool allowBorrow = true;\n    bool allowRepayBorrow = true;\n    bool allowLiquidateBorrow = true;\n    bool allowSeize = true;\n    bool allowTransfer = true;\n\n    bool verifyMint = true;\n    bool verifyRedeem = true;\n    bool verifyBorrow = true;\n    bool verifyRepayBorrow = true;\n    bool verifyLiquidateBorrow = true;\n    bool verifySeize = true;\n    bool verifyTransfer = true;\n\n    bool failCalculateSeizeTokens;\n    uint calculatedSeizeTokens;\n\n    uint noError = 0;\n    uint opaqueError = noError + 11; // an arbitrary, opaque error code\n\n    /*** Assets You Are In ***/\n\n    function enterMarkets(address[] calldata _cTokens) external returns (uint[] memory) {\n        _cTokens;\n        uint[] memory ret;\n        return ret;\n    }\n\n    function exitMarket(address _cToken) external returns (uint) {\n        _cToken;\n        return noError;\n    }\n\n    /*** Policy Hooks ***/\n\n    function mintAllowed(address _cToken, address _minter, uint _mintAmount) public returns (uint) {\n        _cToken;\n        _minter;\n        _mintAmount;\n        return allowMint ? noError : opaqueError;\n    }\n\n    function mintVerify(address _cToken, address _minter, uint _mintAmount, uint _mintTokens) external {\n        _cToken;\n        _minter;\n        _mintAmount;\n        _mintTokens;\n        require(verifyMint, \"mintVerify rejected mint\");\n    }\n\n    function redeemAllowed(address _cToken, address _redeemer, uint _redeemTokens) public returns (uint) {\n        _cToken;\n        _redeemer;\n        _redeemTokens;\n        return allowRedeem ? noError : opaqueError;\n    }\n\n    function redeemVerify(address _cToken, address _redeemer, uint _redeemAmount, uint _redeemTokens) external {\n        _cToken;\n        _redeemer;\n        _redeemAmount;\n        _redeemTokens;\n        require(verifyRedeem, \"redeemVerify rejected redeem\");\n    }\n\n    function borrowAllowed(address _cToken, address _borrower, uint _borrowAmount) public returns (uint) {\n        _cToken;\n        _borrower;\n        _borrowAmount;\n        return allowBorrow ? noError : opaqueError;\n    }\n\n    function borrowVerify(address _cToken, address _borrower, uint _borrowAmount) external {\n        _cToken;\n        _borrower;\n        _borrowAmount;\n        require(verifyBorrow, \"borrowVerify rejected borrow\");\n    }\n\n    function repayBorrowAllowed(\n        address _cToken,\n        address _payer,\n        address _borrower,\n        uint _repayAmount) public returns (uint) {\n        _cToken;\n        _payer;\n        _borrower;\n        _repayAmount;\n        return allowRepayBorrow ? noError : opaqueError;\n    }\n\n    function repayBorrowVerify(\n        address _cToken,\n        address _payer,\n        address _borrower,\n        uint _repayAmount,\n        uint _borrowerIndex) external {\n        _cToken;\n        _payer;\n        _borrower;\n        _repayAmount;\n        _borrowerIndex;\n        require(verifyRepayBorrow, \"repayBorrowVerify rejected repayBorrow\");\n    }\n\n    function liquidateBorrowAllowed(\n        address _cTokenBorrowed,\n        address _cTokenCollateral,\n        address _liquidator,\n        address _borrower,\n        uint _repayAmount) public returns (uint) {\n        _cTokenBorrowed;\n        _cTokenCollateral;\n        _liquidator;\n        _borrower;\n        _repayAmount;\n        return allowLiquidateBorrow ? noError : opaqueError;\n    }\n\n    function liquidateBorrowVerify(\n        address _cTokenBorrowed,\n        address _cTokenCollateral,\n        address _liquidator,\n        address _borrower,\n        uint _repayAmount,\n        uint _seizeTokens) external {\n        _cTokenBorrowed;\n        _cTokenCollateral;\n        _liquidator;\n        _borrower;\n        _repayAmount;\n        _seizeTokens;\n        require(verifyLiquidateBorrow, \"liquidateBorrowVerify rejected liquidateBorrow\");\n    }\n\n    function seizeAllowed(\n        address _cTokenCollateral,\n        address _cTokenBorrowed,\n        address _borrower,\n        address _liquidator,\n        uint _seizeTokens) public returns (uint) {\n        _cTokenCollateral;\n        _cTokenBorrowed;\n        _liquidator;\n        _borrower;\n        _seizeTokens;\n        return allowSeize ? noError : opaqueError;\n    }\n\n    function seizeVerify(\n        address _cTokenCollateral,\n        address _cTokenBorrowed,\n        address _liquidator,\n        address _borrower,\n        uint _seizeTokens) external {\n        _cTokenCollateral;\n        _cTokenBorrowed;\n        _liquidator;\n        _borrower;\n        _seizeTokens;\n        require(verifySeize, \"seizeVerify rejected seize\");\n    }\n\n    function transferAllowed(\n        address _cToken,\n        address _src,\n        address _dst,\n        uint _transferTokens) public returns (uint) {\n        _cToken;\n        _src;\n        _dst;\n        _transferTokens;\n        return allowTransfer ? noError : opaqueError;\n    }\n\n    function transferVerify(\n        address _cToken,\n        address _src,\n        address _dst,\n        uint _transferTokens) external {\n        _cToken;\n        _src;\n        _dst;\n        _transferTokens;\n        require(verifyTransfer, \"transferVerify rejected transfer\");\n    }\n\n    /*** Special Liquidation Calculation ***/\n\n    function liquidateCalculateSeizeTokens(\n        address _cTokenBorrowed,\n        address _cTokenCollateral,\n        uint _repayAmount) public view returns (uint, uint) {\n        _cTokenBorrowed;\n        _cTokenCollateral;\n        _repayAmount;\n        return failCalculateSeizeTokens ? (opaqueError, 0) : (noError, calculatedSeizeTokens);\n    }\n\n    /**** Mock Settors ****/\n\n    /*** Policy Hooks ***/\n\n    function setMintAllowed(bool allowMint_) public {\n        allowMint = allowMint_;\n    }\n\n    function setMintVerify(bool verifyMint_) public {\n        verifyMint = verifyMint_;\n    }\n\n    function setRedeemAllowed(bool allowRedeem_) public {\n        allowRedeem = allowRedeem_;\n    }\n\n    function setRedeemVerify(bool verifyRedeem_) public {\n        verifyRedeem = verifyRedeem_;\n    }\n\n    function setBorrowAllowed(bool allowBorrow_) public {\n        allowBorrow = allowBorrow_;\n    }\n\n    function setBorrowVerify(bool verifyBorrow_) public {\n        verifyBorrow = verifyBorrow_;\n    }\n\n    function setRepayBorrowAllowed(bool allowRepayBorrow_) public {\n        allowRepayBorrow = allowRepayBorrow_;\n    }\n\n    function setRepayBorrowVerify(bool verifyRepayBorrow_) public {\n        verifyRepayBorrow = verifyRepayBorrow_;\n    }\n\n    function setLiquidateBorrowAllowed(bool allowLiquidateBorrow_) public {\n        allowLiquidateBorrow = allowLiquidateBorrow_;\n    }\n\n    function setLiquidateBorrowVerify(bool verifyLiquidateBorrow_) public {\n        verifyLiquidateBorrow = verifyLiquidateBorrow_;\n    }\n\n    function setSeizeAllowed(bool allowSeize_) public {\n        allowSeize = allowSeize_;\n    }\n\n    function setSeizeVerify(bool verifySeize_) public {\n        verifySeize = verifySeize_;\n    }\n\n    function setTransferAllowed(bool allowTransfer_) public {\n        allowTransfer = allowTransfer_;\n    }\n\n    function setTransferVerify(bool verifyTransfer_) public {\n        verifyTransfer = verifyTransfer_;\n    }\n\n    /*** Liquidity/Liquidation Calculations ***/\n\n    function setCalculatedSeizeTokens(uint seizeTokens_) public {\n        calculatedSeizeTokens = seizeTokens_;\n    }\n\n    function setFailCalculateSeizeTokens(bool shouldFail) public {\n        failCalculateSeizeTokens = shouldFail;\n    }\n}\n\ncontract EchoTypesComptroller is UnitrollerAdminStorage {\n    function stringy(string memory s) public pure returns(string memory) {\n        return s;\n    }\n\n    function addresses(address a) public pure returns(address) {\n        return a;\n    }\n\n    function booly(bool b) public pure returns(bool) {\n        return b;\n    }\n\n    function listOInts(uint[] memory u) public pure returns(uint[] memory) {\n        return u;\n    }\n\n    function reverty() public pure {\n        require(false, \"gotcha sucka\");\n    }\n\n    function becomeBrains(address payable unitroller) public {\n        Unitroller(unitroller)._acceptImplementation();\n    }\n}\n",
  "sourcePath": "/Users/yanyichun/project/Savings/contracts/compound/test/Contracts/ComptrollerHarness.sol",
  "compiler": {
    "name": "solc",
    "version": "0.5.14+commit.01f1aaa4.Emscripten.clang"
  },
  "schemaVersion": "3.2.3",
  "updatedAt": "2021-02-25T05:55:40.940Z",
  "devdoc": {
    "methods": {
      "_addCompMarkets(address[])": {
        "params": {
          "cTokens": "The addresses of the markets to add"
        }
      },
      "_dropCompMarket(address)": {
        "params": {
          "cToken": "The address of the market to drop"
        }
      },
      "_setCloseFactor(uint256)": {
        "details": "Admin function to set closeFactor",
        "params": {
          "newCloseFactorMantissa": "New close factor, scaled by 1e18"
        },
        "return": "uint 0=success, otherwise a failure. (See ErrorReporter for details)"
      },
      "_setCollateralFactor(address,uint256)": {
        "details": "Admin function to set per-market collateralFactor",
        "params": {
          "cToken": "The market to set the factor on",
          "newCollateralFactorMantissa": "The new collateral factor, scaled by 1e18"
        },
        "return": "uint 0=success, otherwise a failure. (See ErrorReporter for details)"
      },
      "_setCompRate(uint256)": {
        "params": {
          "compRate_": "The amount of COMP wei per block to distribute"
        }
      },
      "_setLiquidationIncentive(uint256)": {
        "details": "Admin function to set liquidationIncentive",
        "params": {
          "newLiquidationIncentiveMantissa": "New liquidationIncentive scaled by 1e18"
        },
        "return": "uint 0=success, otherwise a failure. (See ErrorReporter for details)"
      },
      "_setMaxAssets(uint256)": {
        "details": "Admin function to set maxAssets",
        "params": {
          "newMaxAssets": "New max assets"
        },
        "return": "uint 0=success, otherwise a failure. (See ErrorReporter for details)"
      },
      "_setPauseGuardian(address)": {
        "params": {
          "newPauseGuardian": "The address of the new Pause Guardian"
        },
        "return": "uint 0=success, otherwise a failure. (See enum Error for details)"
      },
      "_setPriceOracle(address)": {
        "details": "Admin function to set a new price oracle",
        "return": "uint 0=success, otherwise a failure (see ErrorReporter.sol for details)"
      },
      "_supportMarket(address)": {
        "details": "Admin function to set isListed and add support for the market",
        "params": {
          "cToken": "The address of the market (token) to list"
        },
        "return": "uint 0=success, otherwise a failure. (See enum Error for details)"
      },
      "borrowAllowed(address,address,uint256)": {
        "params": {
          "borrowAmount": "The amount of underlying the account would borrow",
          "borrower": "The account which would borrow the asset",
          "cToken": "The market to verify the borrow against"
        },
        "return": "0 if the borrow is allowed, otherwise a semi-opaque error code (See ErrorReporter.sol)"
      },
      "borrowVerify(address,address,uint256)": {
        "params": {
          "borrowAmount": "The amount of the underlying asset requested to borrow",
          "borrower": "The address borrowing the underlying",
          "cToken": "Asset whose underlying is being borrowed"
        }
      },
      "checkMembership(address,address)": {
        "params": {
          "account": "The address of the account to check",
          "cToken": "The cToken to check"
        },
        "return": "True if the account is in the asset, otherwise false."
      },
      "claimComp(address)": {
        "params": {
          "holder": "The address to claim COMP for"
        }
      },
      "claimComp(address,address[])": {
        "params": {
          "cTokens": "The list of markets to claim COMP in",
          "holder": "The address to claim COMP for"
        }
      },
      "claimComp(address[],address[],bool,bool)": {
        "params": {
          "borrowers": "Whether or not to claim COMP earned by borrowing",
          "cTokens": "The list of markets to claim COMP in",
          "holders": "The addresses to claim COMP for",
          "suppliers": "Whether or not to claim COMP earned by supplying"
        }
      },
      "enterMarkets(address[])": {
        "params": {
          "cTokens": "The list of addresses of the cToken markets to be enabled"
        },
        "return": "Success indicator for whether each corresponding market was entered"
      },
      "exitMarket(address)": {
        "details": "Sender must not have an outstanding borrow balance in the asset, or be providing neccessary collateral for an outstanding borrow.",
        "params": {
          "cTokenAddress": "The address of the asset to be removed"
        },
        "return": "Whether or not the account successfully exited the market"
      },
      "getAccountLiquidity(address)": {
        "return": "(possible error code (semi-opaque), account liquidity in excess of collateral requirements,         account shortfall below collateral requirements)"
      },
      "getAllMarkets()": {
        "details": "The automatic getter may be used to access an individual market.",
        "return": "The list of market addresses"
      },
      "getAssetsIn(address)": {
        "params": {
          "account": "The address of the account to pull assets for"
        },
        "return": "A dynamic list with the assets the account has entered"
      },
      "getHypotheticalAccountLiquidity(address,address,uint256,uint256)": {
        "params": {
          "account": "The account to determine liquidity for",
          "borrowAmount": "The amount of underlying to hypothetically borrow",
          "cTokenModify": "The market to hypothetically redeem/borrow in",
          "redeemTokens": "The number of tokens to hypothetically redeem"
        },
        "return": "(possible error code (semi-opaque), hypothetical account liquidity in excess of collateral requirements,         hypothetical account shortfall below collateral requirements)"
      },
      "liquidateBorrowAllowed(address,address,address,address,uint256)": {
        "params": {
          "borrower": "The address of the borrower",
          "cTokenBorrowed": "Asset which was borrowed by the borrower",
          "cTokenCollateral": "Asset which was used as collateral and will be seized",
          "liquidator": "The address repaying the borrow and seizing the collateral",
          "repayAmount": "The amount of underlying being repaid"
        }
      },
      "liquidateBorrowVerify(address,address,address,address,uint256,uint256)": {
        "params": {
          "actualRepayAmount": "The amount of underlying being repaid",
          "borrower": "The address of the borrower",
          "cTokenBorrowed": "Asset which was borrowed by the borrower",
          "cTokenCollateral": "Asset which was used as collateral and will be seized",
          "liquidator": "The address repaying the borrow and seizing the collateral"
        }
      },
      "liquidateCalculateSeizeTokens(address,address,uint256)": {
        "details": "Used in liquidation (called in cToken.liquidateBorrowFresh)",
        "params": {
          "actualRepayAmount": "The amount of cTokenBorrowed underlying to convert into cTokenCollateral tokens",
          "cTokenBorrowed": "The address of the borrowed cToken",
          "cTokenCollateral": "The address of the collateral cToken"
        },
        "return": "(errorCode, number of cTokenCollateral tokens to be seized in a liquidation)"
      },
      "mintAllowed(address,address,uint256)": {
        "params": {
          "cToken": "The market to verify the mint against",
          "mintAmount": "The amount of underlying being supplied to the market in exchange for tokens",
          "minter": "The account which would get the minted tokens"
        },
        "return": "0 if the mint is allowed, otherwise a semi-opaque error code (See ErrorReporter.sol)"
      },
      "mintVerify(address,address,uint256,uint256)": {
        "params": {
          "actualMintAmount": "The amount of the underlying asset being minted",
          "cToken": "Asset being minted",
          "mintTokens": "The number of tokens being minted",
          "minter": "The address minting the tokens"
        }
      },
      "redeemAllowed(address,address,uint256)": {
        "params": {
          "cToken": "The market to verify the redeem against",
          "redeemTokens": "The number of cTokens to exchange for the underlying asset in the market",
          "redeemer": "The account which would redeem the tokens"
        },
        "return": "0 if the redeem is allowed, otherwise a semi-opaque error code (See ErrorReporter.sol)"
      },
      "redeemVerify(address,address,uint256,uint256)": {
        "params": {
          "cToken": "Asset being redeemed",
          "redeemAmount": "The amount of the underlying asset being redeemed",
          "redeemTokens": "The number of tokens being redeemed",
          "redeemer": "The address redeeming the tokens"
        }
      },
      "repayBorrowAllowed(address,address,address,uint256)": {
        "params": {
          "borrower": "The account which would borrowed the asset",
          "cToken": "The market to verify the repay against",
          "payer": "The account which would repay the asset",
          "repayAmount": "The amount of the underlying asset the account would repay"
        },
        "return": "0 if the repay is allowed, otherwise a semi-opaque error code (See ErrorReporter.sol)"
      },
      "repayBorrowVerify(address,address,address,uint256,uint256)": {
        "params": {
          "actualRepayAmount": "The amount of underlying being repaid",
          "borrower": "The address of the borrower",
          "cToken": "Asset being repaid",
          "payer": "The address repaying the borrow"
        }
      },
      "seizeAllowed(address,address,address,address,uint256)": {
        "params": {
          "borrower": "The address of the borrower",
          "cTokenBorrowed": "Asset which was borrowed by the borrower",
          "cTokenCollateral": "Asset which was used as collateral and will be seized",
          "liquidator": "The address repaying the borrow and seizing the collateral",
          "seizeTokens": "The number of collateral tokens to seize"
        }
      },
      "seizeVerify(address,address,address,address,uint256)": {
        "params": {
          "borrower": "The address of the borrower",
          "cTokenBorrowed": "Asset which was borrowed by the borrower",
          "cTokenCollateral": "Asset which was used as collateral and will be seized",
          "liquidator": "The address repaying the borrow and seizing the collateral",
          "seizeTokens": "The number of collateral tokens to seize"
        }
      },
      "transferAllowed(address,address,address,uint256)": {
        "params": {
          "cToken": "The market to verify the transfer against",
          "dst": "The account which receives the tokens",
          "src": "The account which sources the tokens",
          "transferTokens": "The number of cTokens to transfer"
        },
        "return": "0 if the transfer is allowed, otherwise a semi-opaque error code (See ErrorReporter.sol)"
      },
      "transferVerify(address,address,address,uint256)": {
        "params": {
          "cToken": "Asset being transferred",
          "dst": "The account which receives the tokens",
          "src": "The account which sources the tokens",
          "transferTokens": "The number of cTokens to transfer"
        }
      }
    }
  },
  "userdoc": {
    "methods": {
      "_addCompMarkets(address[])": {
        "notice": "Add markets to compMarkets, allowing them to earn COMP in the flywheel"
      },
      "_dropCompMarket(address)": {
        "notice": "Remove a market from compMarkets, preventing it from earning COMP in the flywheel"
      },
      "_setCloseFactor(uint256)": {
        "notice": "Sets the closeFactor used when liquidating borrows"
      },
      "_setCollateralFactor(address,uint256)": {
        "notice": "Sets the collateralFactor for a market"
      },
      "_setCompRate(uint256)": {
        "notice": "Set the amount of COMP distributed per block"
      },
      "_setLiquidationIncentive(uint256)": {
        "notice": "Sets liquidationIncentive"
      },
      "_setMaxAssets(uint256)": {
        "notice": "Sets maxAssets which controls how many markets can be entered"
      },
      "_setPauseGuardian(address)": {
        "notice": "Admin function to change the Pause Guardian"
      },
      "_setPriceOracle(address)": {
        "notice": "Sets a new price oracle for the comptroller"
      },
      "_supportMarket(address)": {
        "notice": "Add the market to the markets mapping and set it as listed"
      },
      "borrowAllowed(address,address,uint256)": {
        "notice": "Checks if the account should be allowed to borrow the underlying asset of the given market"
      },
      "borrowVerify(address,address,uint256)": {
        "notice": "Validates borrow and reverts on rejection. May emit logs."
      },
      "checkMembership(address,address)": {
        "notice": "Returns whether the given account is entered in the given asset"
      },
      "claimComp(address)": {
        "notice": "Claim all the comp accrued by holder in all markets"
      },
      "claimComp(address,address[])": {
        "notice": "Claim all the comp accrued by holder in the specified markets"
      },
      "claimComp(address[],address[],bool,bool)": {
        "notice": "Claim all comp accrued by the holders"
      },
      "enterMarkets(address[])": {
        "notice": "Add assets to be included in account liquidity calculation"
      },
      "exitMarket(address)": {
        "notice": "Removes asset from sender's account liquidity calculation"
      },
      "getAccountLiquidity(address)": {
        "notice": "Determine the current account liquidity wrt collateral requirements"
      },
      "getAllMarkets()": {
        "notice": "Return all of the markets"
      },
      "getAssetsIn(address)": {
        "notice": "Returns the assets an account has entered"
      },
      "getHypotheticalAccountLiquidity(address,address,uint256,uint256)": {
        "notice": "Determine what the account liquidity would be if the given amounts were redeemed/borrowed"
      },
      "liquidateBorrowAllowed(address,address,address,address,uint256)": {
        "notice": "Checks if the liquidation should be allowed to occur"
      },
      "liquidateBorrowVerify(address,address,address,address,uint256,uint256)": {
        "notice": "Validates liquidateBorrow and reverts on rejection. May emit logs."
      },
      "liquidateCalculateSeizeTokens(address,address,uint256)": {
        "notice": "Calculate number of tokens of collateral asset to seize given an underlying amount"
      },
      "mintAllowed(address,address,uint256)": {
        "notice": "Checks if the account should be allowed to mint tokens in the given market"
      },
      "mintVerify(address,address,uint256,uint256)": {
        "notice": "Validates mint and reverts on rejection. May emit logs."
      },
      "redeemAllowed(address,address,uint256)": {
        "notice": "Checks if the account should be allowed to redeem tokens in the given market"
      },
      "redeemVerify(address,address,uint256,uint256)": {
        "notice": "Validates redeem and reverts on rejection. May emit logs."
      },
      "refreshCompSpeeds()": {
        "notice": "Recalculate and update COMP speeds for all COMP markets"
      },
      "repayBorrowAllowed(address,address,address,uint256)": {
        "notice": "Checks if the account should be allowed to repay a borrow in the given market"
      },
      "repayBorrowVerify(address,address,address,uint256,uint256)": {
        "notice": "Validates repayBorrow and reverts on rejection. May emit logs."
      },
      "seizeAllowed(address,address,address,address,uint256)": {
        "notice": "Checks if the seizing of assets should be allowed to occur"
      },
      "seizeVerify(address,address,address,address,uint256)": {
        "notice": "Validates seize and reverts on rejection. May emit logs."
      },
      "transferAllowed(address,address,address,uint256)": {
        "notice": "Checks if the account should be allowed to transfer tokens in the given market"
      },
      "transferVerify(address,address,address,uint256)": {
        "notice": "Validates transfer and reverts on rejection. May emit logs."
      }
    }
  }
}