{
  "contractName": "ComptrollerScenarioG2",
  "abi": [
    {
      "inputs": [],
      "payable": false,
      "stateMutability": "nonpayable",
      "type": "constructor"
    },
    {
      "anonymous": false,
      "inputs": [
        {
          "indexed": false,
          "internalType": "string",
          "name": "action",
          "type": "string"
        },
        {
          "indexed": false,
          "internalType": "bool",
          "name": "pauseState",
          "type": "bool"
        }
      ],
      "name": "ActionPaused",
      "type": "event"
    },
    {
      "anonymous": false,
      "inputs": [
        {
          "indexed": false,
          "internalType": "contract CToken",
          "name": "cToken",
          "type": "address"
        },
        {
          "indexed": false,
          "internalType": "string",
          "name": "action",
          "type": "string"
        },
        {
          "indexed": false,
          "internalType": "bool",
          "name": "pauseState",
          "type": "bool"
        }
      ],
      "name": "ActionPaused",
      "type": "event"
    },
    {
      "anonymous": false,
      "inputs": [
        {
          "indexed": false,
          "internalType": "uint256",
          "name": "error",
          "type": "uint256"
        },
        {
          "indexed": false,
          "internalType": "uint256",
          "name": "info",
          "type": "uint256"
        },
        {
          "indexed": false,
          "internalType": "uint256",
          "name": "detail",
          "type": "uint256"
        }
      ],
      "name": "Failure",
      "type": "event"
    },
    {
      "anonymous": false,
      "inputs": [
        {
          "indexed": false,
          "internalType": "contract CToken",
          "name": "cToken",
          "type": "address"
        },
        {
          "indexed": false,
          "internalType": "address",
          "name": "account",
          "type": "address"
        }
      ],
      "name": "MarketEntered",
      "type": "event"
    },
    {
      "anonymous": false,
      "inputs": [
        {
          "indexed": false,
          "internalType": "contract CToken",
          "name": "cToken",
          "type": "address"
        },
        {
          "indexed": false,
          "internalType": "address",
          "name": "account",
          "type": "address"
        }
      ],
      "name": "MarketExited",
      "type": "event"
    },
    {
      "anonymous": false,
      "inputs": [
        {
          "indexed": false,
          "internalType": "contract CToken",
          "name": "cToken",
          "type": "address"
        }
      ],
      "name": "MarketListed",
      "type": "event"
    },
    {
      "anonymous": false,
      "inputs": [
        {
          "indexed": false,
          "internalType": "uint256",
          "name": "oldCloseFactorMantissa",
          "type": "uint256"
        },
        {
          "indexed": false,
          "internalType": "uint256",
          "name": "newCloseFactorMantissa",
          "type": "uint256"
        }
      ],
      "name": "NewCloseFactor",
      "type": "event"
    },
    {
      "anonymous": false,
      "inputs": [
        {
          "indexed": false,
          "internalType": "contract CToken",
          "name": "cToken",
          "type": "address"
        },
        {
          "indexed": false,
          "internalType": "uint256",
          "name": "oldCollateralFactorMantissa",
          "type": "uint256"
        },
        {
          "indexed": false,
          "internalType": "uint256",
          "name": "newCollateralFactorMantissa",
          "type": "uint256"
        }
      ],
      "name": "NewCollateralFactor",
      "type": "event"
    },
    {
      "anonymous": false,
      "inputs": [
        {
          "indexed": false,
          "internalType": "uint256",
          "name": "oldLiquidationIncentiveMantissa",
          "type": "uint256"
        },
        {
          "indexed": false,
          "internalType": "uint256",
          "name": "newLiquidationIncentiveMantissa",
          "type": "uint256"
        }
      ],
      "name": "NewLiquidationIncentive",
      "type": "event"
    },
    {
      "anonymous": false,
      "inputs": [
        {
          "indexed": false,
          "internalType": "uint256",
          "name": "oldMaxAssets",
          "type": "uint256"
        },
        {
          "indexed": false,
          "internalType": "uint256",
          "name": "newMaxAssets",
          "type": "uint256"
        }
      ],
      "name": "NewMaxAssets",
      "type": "event"
    },
    {
      "anonymous": false,
      "inputs": [
        {
          "indexed": false,
          "internalType": "address",
          "name": "oldPauseGuardian",
          "type": "address"
        },
        {
          "indexed": false,
          "internalType": "address",
          "name": "newPauseGuardian",
          "type": "address"
        }
      ],
      "name": "NewPauseGuardian",
      "type": "event"
    },
    {
      "anonymous": false,
      "inputs": [
        {
          "indexed": false,
          "internalType": "contract PriceOracle",
          "name": "oldPriceOracle",
          "type": "address"
        },
        {
          "indexed": false,
          "internalType": "contract PriceOracle",
          "name": "newPriceOracle",
          "type": "address"
        }
      ],
      "name": "NewPriceOracle",
      "type": "event"
    },
    {
      "constant": false,
      "inputs": [
        {
          "internalType": "contract Unitroller",
          "name": "unitroller",
          "type": "address"
        }
      ],
      "name": "_become",
      "outputs": [],
      "payable": false,
      "stateMutability": "nonpayable",
      "type": "function"
    },
    {
      "constant": true,
      "inputs": [],
      "name": "_borrowGuardianPaused",
      "outputs": [
        {
          "internalType": "bool",
          "name": "",
          "type": "bool"
        }
      ],
      "payable": false,
      "stateMutability": "view",
      "type": "function"
    },
    {
      "constant": true,
      "inputs": [],
      "name": "_mintGuardianPaused",
      "outputs": [
        {
          "internalType": "bool",
          "name": "",
          "type": "bool"
        }
      ],
      "payable": false,
      "stateMutability": "view",
      "type": "function"
    },
    {
      "constant": false,
      "inputs": [
        {
          "internalType": "contract CToken",
          "name": "cToken",
          "type": "address"
        },
        {
          "internalType": "bool",
          "name": "state",
          "type": "bool"
        }
      ],
      "name": "_setBorrowPaused",
      "outputs": [
        {
          "internalType": "bool",
          "name": "",
          "type": "bool"
        }
      ],
      "payable": false,
      "stateMutability": "nonpayable",
      "type": "function"
    },
    {
      "constant": false,
      "inputs": [
        {
          "internalType": "uint256",
          "name": "newCloseFactorMantissa",
          "type": "uint256"
        }
      ],
      "name": "_setCloseFactor",
      "outputs": [
        {
          "internalType": "uint256",
          "name": "",
          "type": "uint256"
        }
      ],
      "payable": false,
      "stateMutability": "nonpayable",
      "type": "function"
    },
    {
      "constant": false,
      "inputs": [
        {
          "internalType": "contract CToken",
          "name": "cToken",
          "type": "address"
        },
        {
          "internalType": "uint256",
          "name": "newCollateralFactorMantissa",
          "type": "uint256"
        }
      ],
      "name": "_setCollateralFactor",
      "outputs": [
        {
          "internalType": "uint256",
          "name": "",
          "type": "uint256"
        }
      ],
      "payable": false,
      "stateMutability": "nonpayable",
      "type": "function"
    },
    {
      "constant": false,
      "inputs": [
        {
          "internalType": "uint256",
          "name": "newLiquidationIncentiveMantissa",
          "type": "uint256"
        }
      ],
      "name": "_setLiquidationIncentive",
      "outputs": [
        {
          "internalType": "uint256",
          "name": "",
          "type": "uint256"
        }
      ],
      "payable": false,
      "stateMutability": "nonpayable",
      "type": "function"
    },
    {
      "constant": false,
      "inputs": [
        {
          "internalType": "uint256",
          "name": "newMaxAssets",
          "type": "uint256"
        }
      ],
      "name": "_setMaxAssets",
      "outputs": [
        {
          "internalType": "uint256",
          "name": "",
          "type": "uint256"
        }
      ],
      "payable": false,
      "stateMutability": "nonpayable",
      "type": "function"
    },
    {
      "constant": false,
      "inputs": [
        {
          "internalType": "contract CToken",
          "name": "cToken",
          "type": "address"
        },
        {
          "internalType": "bool",
          "name": "state",
          "type": "bool"
        }
      ],
      "name": "_setMintPaused",
      "outputs": [
        {
          "internalType": "bool",
          "name": "",
          "type": "bool"
        }
      ],
      "payable": false,
      "stateMutability": "nonpayable",
      "type": "function"
    },
    {
      "constant": false,
      "inputs": [
        {
          "internalType": "address",
          "name": "newPauseGuardian",
          "type": "address"
        }
      ],
      "name": "_setPauseGuardian",
      "outputs": [
        {
          "internalType": "uint256",
          "name": "",
          "type": "uint256"
        }
      ],
      "payable": false,
      "stateMutability": "nonpayable",
      "type": "function"
    },
    {
      "constant": false,
      "inputs": [
        {
          "internalType": "contract PriceOracle",
          "name": "newOracle",
          "type": "address"
        }
      ],
      "name": "_setPriceOracle",
      "outputs": [
        {
          "internalType": "uint256",
          "name": "",
          "type": "uint256"
        }
      ],
      "payable": false,
      "stateMutability": "nonpayable",
      "type": "function"
    },
    {
      "constant": false,
      "inputs": [
        {
          "internalType": "bool",
          "name": "state",
          "type": "bool"
        }
      ],
      "name": "_setSeizePaused",
      "outputs": [
        {
          "internalType": "bool",
          "name": "",
          "type": "bool"
        }
      ],
      "payable": false,
      "stateMutability": "nonpayable",
      "type": "function"
    },
    {
      "constant": false,
      "inputs": [
        {
          "internalType": "bool",
          "name": "state",
          "type": "bool"
        }
      ],
      "name": "_setTransferPaused",
      "outputs": [
        {
          "internalType": "bool",
          "name": "",
          "type": "bool"
        }
      ],
      "payable": false,
      "stateMutability": "nonpayable",
      "type": "function"
    },
    {
      "constant": false,
      "inputs": [
        {
          "internalType": "contract CToken",
          "name": "cToken",
          "type": "address"
        }
      ],
      "name": "_supportMarket",
      "outputs": [
        {
          "internalType": "uint256",
          "name": "",
          "type": "uint256"
        }
      ],
      "payable": false,
      "stateMutability": "nonpayable",
      "type": "function"
    },
    {
      "constant": true,
      "inputs": [
        {
          "internalType": "address",
          "name": "",
          "type": "address"
        },
        {
          "internalType": "uint256",
          "name": "",
          "type": "uint256"
        }
      ],
      "name": "accountAssets",
      "outputs": [
        {
          "internalType": "contract CToken",
          "name": "",
          "type": "address"
        }
      ],
      "payable": false,
      "stateMutability": "view",
      "type": "function"
    },
    {
      "constant": true,
      "inputs": [],
      "name": "admin",
      "outputs": [
        {
          "internalType": "address",
          "name": "",
          "type": "address"
        }
      ],
      "payable": false,
      "stateMutability": "view",
      "type": "function"
    },
    {
      "constant": true,
      "inputs": [],
      "name": "blockNumber",
      "outputs": [
        {
          "internalType": "uint256",
          "name": "",
          "type": "uint256"
        }
      ],
      "payable": false,
      "stateMutability": "view",
      "type": "function"
    },
    {
      "constant": false,
      "inputs": [
        {
          "internalType": "address",
          "name": "cToken",
          "type": "address"
        },
        {
          "internalType": "address",
          "name": "borrower",
          "type": "address"
        },
        {
          "internalType": "uint256",
          "name": "borrowAmount",
          "type": "uint256"
        }
      ],
      "name": "borrowAllowed",
      "outputs": [
        {
          "internalType": "uint256",
          "name": "",
          "type": "uint256"
        }
      ],
      "payable": false,
      "stateMutability": "nonpayable",
      "type": "function"
    },
    {
      "constant": true,
      "inputs": [
        {
          "internalType": "address",
          "name": "",
          "type": "address"
        }
      ],
      "name": "borrowGuardianPaused",
      "outputs": [
        {
          "internalType": "bool",
          "name": "",
          "type": "bool"
        }
      ],
      "payable": false,
      "stateMutability": "view",
      "type": "function"
    },
    {
      "constant": false,
      "inputs": [
        {
          "internalType": "address",
          "name": "cToken",
          "type": "address"
        },
        {
          "internalType": "address",
          "name": "borrower",
          "type": "address"
        },
        {
          "internalType": "uint256",
          "name": "borrowAmount",
          "type": "uint256"
        }
      ],
      "name": "borrowVerify",
      "outputs": [],
      "payable": false,
      "stateMutability": "nonpayable",
      "type": "function"
    },
    {
      "constant": true,
      "inputs": [
        {
          "internalType": "address",
          "name": "account",
          "type": "address"
        },
        {
          "internalType": "contract CToken",
          "name": "cToken",
          "type": "address"
        }
      ],
      "name": "checkMembership",
      "outputs": [
        {
          "internalType": "bool",
          "name": "",
          "type": "bool"
        }
      ],
      "payable": false,
      "stateMutability": "view",
      "type": "function"
    },
    {
      "constant": true,
      "inputs": [],
      "name": "closeFactorMantissa",
      "outputs": [
        {
          "internalType": "uint256",
          "name": "",
          "type": "uint256"
        }
      ],
      "payable": false,
      "stateMutability": "view",
      "type": "function"
    },
    {
      "constant": true,
      "inputs": [],
      "name": "comptrollerImplementation",
      "outputs": [
        {
          "internalType": "address",
          "name": "",
          "type": "address"
        }
      ],
      "payable": false,
      "stateMutability": "view",
      "type": "function"
    },
    {
      "constant": false,
      "inputs": [
        {
          "internalType": "address[]",
          "name": "cTokens",
          "type": "address[]"
        }
      ],
      "name": "enterMarkets",
      "outputs": [
        {
          "internalType": "uint256[]",
          "name": "",
          "type": "uint256[]"
        }
      ],
      "payable": false,
      "stateMutability": "nonpayable",
      "type": "function"
    },
    {
      "constant": false,
      "inputs": [
        {
          "internalType": "address",
          "name": "cTokenAddress",
          "type": "address"
        }
      ],
      "name": "exitMarket",
      "outputs": [
        {
          "internalType": "uint256",
          "name": "",
          "type": "uint256"
        }
      ],
      "payable": false,
      "stateMutability": "nonpayable",
      "type": "function"
    },
    {
      "constant": true,
      "inputs": [
        {
          "internalType": "address",
          "name": "account",
          "type": "address"
        }
      ],
      "name": "getAccountLiquidity",
      "outputs": [
        {
          "internalType": "uint256",
          "name": "",
          "type": "uint256"
        },
        {
          "internalType": "uint256",
          "name": "",
          "type": "uint256"
        },
        {
          "internalType": "uint256",
          "name": "",
          "type": "uint256"
        }
      ],
      "payable": false,
      "stateMutability": "view",
      "type": "function"
    },
    {
      "constant": true,
      "inputs": [
        {
          "internalType": "address",
          "name": "account",
          "type": "address"
        }
      ],
      "name": "getAssetsIn",
      "outputs": [
        {
          "internalType": "contract CToken[]",
          "name": "",
          "type": "address[]"
        }
      ],
      "payable": false,
      "stateMutability": "view",
      "type": "function"
    },
    {
      "constant": true,
      "inputs": [
        {
          "internalType": "address",
          "name": "account",
          "type": "address"
        },
        {
          "internalType": "address",
          "name": "cTokenModify",
          "type": "address"
        },
        {
          "internalType": "uint256",
          "name": "redeemTokens",
          "type": "uint256"
        },
        {
          "internalType": "uint256",
          "name": "borrowAmount",
          "type": "uint256"
        }
      ],
      "name": "getHypotheticalAccountLiquidity",
      "outputs": [
        {
          "internalType": "uint256",
          "name": "",
          "type": "uint256"
        },
        {
          "internalType": "uint256",
          "name": "",
          "type": "uint256"
        },
        {
          "internalType": "uint256",
          "name": "",
          "type": "uint256"
        }
      ],
      "payable": false,
      "stateMutability": "view",
      "type": "function"
    },
    {
      "constant": true,
      "inputs": [],
      "name": "isComptroller",
      "outputs": [
        {
          "internalType": "bool",
          "name": "",
          "type": "bool"
        }
      ],
      "payable": false,
      "stateMutability": "view",
      "type": "function"
    },
    {
      "constant": false,
      "inputs": [
        {
          "internalType": "address",
          "name": "cTokenBorrowed",
          "type": "address"
        },
        {
          "internalType": "address",
          "name": "cTokenCollateral",
          "type": "address"
        },
        {
          "internalType": "address",
          "name": "liquidator",
          "type": "address"
        },
        {
          "internalType": "address",
          "name": "borrower",
          "type": "address"
        },
        {
          "internalType": "uint256",
          "name": "repayAmount",
          "type": "uint256"
        }
      ],
      "name": "liquidateBorrowAllowed",
      "outputs": [
        {
          "internalType": "uint256",
          "name": "",
          "type": "uint256"
        }
      ],
      "payable": false,
      "stateMutability": "nonpayable",
      "type": "function"
    },
    {
      "constant": false,
      "inputs": [
        {
          "internalType": "address",
          "name": "cTokenBorrowed",
          "type": "address"
        },
        {
          "internalType": "address",
          "name": "cTokenCollateral",
          "type": "address"
        },
        {
          "internalType": "address",
          "name": "liquidator",
          "type": "address"
        },
        {
          "internalType": "address",
          "name": "borrower",
          "type": "address"
        },
        {
          "internalType": "uint256",
          "name": "actualRepayAmount",
          "type": "uint256"
        },
        {
          "internalType": "uint256",
          "name": "seizeTokens",
          "type": "uint256"
        }
      ],
      "name": "liquidateBorrowVerify",
      "outputs": [],
      "payable": false,
      "stateMutability": "nonpayable",
      "type": "function"
    },
    {
      "constant": true,
      "inputs": [
        {
          "internalType": "address",
          "name": "cTokenBorrowed",
          "type": "address"
        },
        {
          "internalType": "address",
          "name": "cTokenCollateral",
          "type": "address"
        },
        {
          "internalType": "uint256",
          "name": "actualRepayAmount",
          "type": "uint256"
        }
      ],
      "name": "liquidateCalculateSeizeTokens",
      "outputs": [
        {
          "internalType": "uint256",
          "name": "",
          "type": "uint256"
        },
        {
          "internalType": "uint256",
          "name": "",
          "type": "uint256"
        }
      ],
      "payable": false,
      "stateMutability": "view",
      "type": "function"
    },
    {
      "constant": true,
      "inputs": [],
      "name": "liquidationIncentiveMantissa",
      "outputs": [
        {
          "internalType": "uint256",
          "name": "",
          "type": "uint256"
        }
      ],
      "payable": false,
      "stateMutability": "view",
      "type": "function"
    },
    {
      "constant": true,
      "inputs": [
        {
          "internalType": "address",
          "name": "",
          "type": "address"
        }
      ],
      "name": "markets",
      "outputs": [
        {
          "internalType": "bool",
          "name": "isListed",
          "type": "bool"
        },
        {
          "internalType": "uint256",
          "name": "collateralFactorMantissa",
          "type": "uint256"
        },
        {
          "internalType": "bool",
          "name": "isComped",
          "type": "bool"
        }
      ],
      "payable": false,
      "stateMutability": "view",
      "type": "function"
    },
    {
      "constant": true,
      "inputs": [],
      "name": "maxAssets",
      "outputs": [
        {
          "internalType": "uint256",
          "name": "",
          "type": "uint256"
        }
      ],
      "payable": false,
      "stateMutability": "view",
      "type": "function"
    },
    {
      "constant": false,
      "inputs": [
        {
          "internalType": "address",
          "name": "cToken",
          "type": "address"
        },
        {
          "internalType": "address",
          "name": "minter",
          "type": "address"
        },
        {
          "internalType": "uint256",
          "name": "mintAmount",
          "type": "uint256"
        }
      ],
      "name": "mintAllowed",
      "outputs": [
        {
          "internalType": "uint256",
          "name": "",
          "type": "uint256"
        }
      ],
      "payable": false,
      "stateMutability": "nonpayable",
      "type": "function"
    },
    {
      "constant": true,
      "inputs": [
        {
          "internalType": "address",
          "name": "",
          "type": "address"
        }
      ],
      "name": "mintGuardianPaused",
      "outputs": [
        {
          "internalType": "bool",
          "name": "",
          "type": "bool"
        }
      ],
      "payable": false,
      "stateMutability": "view",
      "type": "function"
    },
    {
      "constant": false,
      "inputs": [
        {
          "internalType": "address",
          "name": "cToken",
          "type": "address"
        },
        {
          "internalType": "address",
          "name": "minter",
          "type": "address"
        },
        {
          "internalType": "uint256",
          "name": "actualMintAmount",
          "type": "uint256"
        },
        {
          "internalType": "uint256",
          "name": "mintTokens",
          "type": "uint256"
        }
      ],
      "name": "mintVerify",
      "outputs": [],
      "payable": false,
      "stateMutability": "nonpayable",
      "type": "function"
    },
    {
      "constant": true,
      "inputs": [],
      "name": "oracle",
      "outputs": [
        {
          "internalType": "contract PriceOracle",
          "name": "",
          "type": "address"
        }
      ],
      "payable": false,
      "stateMutability": "view",
      "type": "function"
    },
    {
      "constant": true,
      "inputs": [],
      "name": "pauseGuardian",
      "outputs": [
        {
          "internalType": "address",
          "name": "",
          "type": "address"
        }
      ],
      "payable": false,
      "stateMutability": "view",
      "type": "function"
    },
    {
      "constant": true,
      "inputs": [],
      "name": "pendingAdmin",
      "outputs": [
        {
          "internalType": "address",
          "name": "",
          "type": "address"
        }
      ],
      "payable": false,
      "stateMutability": "view",
      "type": "function"
    },
    {
      "constant": true,
      "inputs": [],
      "name": "pendingComptrollerImplementation",
      "outputs": [
        {
          "internalType": "address",
          "name": "",
          "type": "address"
        }
      ],
      "payable": false,
      "stateMutability": "view",
      "type": "function"
    },
    {
      "constant": false,
      "inputs": [
        {
          "internalType": "address",
          "name": "cToken",
          "type": "address"
        },
        {
          "internalType": "address",
          "name": "redeemer",
          "type": "address"
        },
        {
          "internalType": "uint256",
          "name": "redeemTokens",
          "type": "uint256"
        }
      ],
      "name": "redeemAllowed",
      "outputs": [
        {
          "internalType": "uint256",
          "name": "",
          "type": "uint256"
        }
      ],
      "payable": false,
      "stateMutability": "nonpayable",
      "type": "function"
    },
    {
      "constant": false,
      "inputs": [
        {
          "internalType": "address",
          "name": "cToken",
          "type": "address"
        },
        {
          "internalType": "address",
          "name": "redeemer",
          "type": "address"
        },
        {
          "internalType": "uint256",
          "name": "redeemAmount",
          "type": "uint256"
        },
        {
          "internalType": "uint256",
          "name": "redeemTokens",
          "type": "uint256"
        }
      ],
      "name": "redeemVerify",
      "outputs": [],
      "payable": false,
      "stateMutability": "nonpayable",
      "type": "function"
    },
    {
      "constant": false,
      "inputs": [
        {
          "internalType": "address",
          "name": "cToken",
          "type": "address"
        },
        {
          "internalType": "address",
          "name": "payer",
          "type": "address"
        },
        {
          "internalType": "address",
          "name": "borrower",
          "type": "address"
        },
        {
          "internalType": "uint256",
          "name": "repayAmount",
          "type": "uint256"
        }
      ],
      "name": "repayBorrowAllowed",
      "outputs": [
        {
          "internalType": "uint256",
          "name": "",
          "type": "uint256"
        }
      ],
      "payable": false,
      "stateMutability": "nonpayable",
      "type": "function"
    },
    {
      "constant": false,
      "inputs": [
        {
          "internalType": "address",
          "name": "cToken",
          "type": "address"
        },
        {
          "internalType": "address",
          "name": "payer",
          "type": "address"
        },
        {
          "internalType": "address",
          "name": "borrower",
          "type": "address"
        },
        {
          "internalType": "uint256",
          "name": "actualRepayAmount",
          "type": "uint256"
        },
        {
          "internalType": "uint256",
          "name": "borrowerIndex",
          "type": "uint256"
        }
      ],
      "name": "repayBorrowVerify",
      "outputs": [],
      "payable": false,
      "stateMutability": "nonpayable",
      "type": "function"
    },
    {
      "constant": false,
      "inputs": [
        {
          "internalType": "address",
          "name": "cTokenCollateral",
          "type": "address"
        },
        {
          "internalType": "address",
          "name": "cTokenBorrowed",
          "type": "address"
        },
        {
          "internalType": "address",
          "name": "liquidator",
          "type": "address"
        },
        {
          "internalType": "address",
          "name": "borrower",
          "type": "address"
        },
        {
          "internalType": "uint256",
          "name": "seizeTokens",
          "type": "uint256"
        }
      ],
      "name": "seizeAllowed",
      "outputs": [
        {
          "internalType": "uint256",
          "name": "",
          "type": "uint256"
        }
      ],
      "payable": false,
      "stateMutability": "nonpayable",
      "type": "function"
    },
    {
      "constant": true,
      "inputs": [],
      "name": "seizeGuardianPaused",
      "outputs": [
        {
          "internalType": "bool",
          "name": "",
          "type": "bool"
        }
      ],
      "payable": false,
      "stateMutability": "view",
      "type": "function"
    },
    {
      "constant": false,
      "inputs": [
        {
          "internalType": "address",
          "name": "cTokenCollateral",
          "type": "address"
        },
        {
          "internalType": "address",
          "name": "cTokenBorrowed",
          "type": "address"
        },
        {
          "internalType": "address",
          "name": "liquidator",
          "type": "address"
        },
        {
          "internalType": "address",
          "name": "borrower",
          "type": "address"
        },
        {
          "internalType": "uint256",
          "name": "seizeTokens",
          "type": "uint256"
        }
      ],
      "name": "seizeVerify",
      "outputs": [],
      "payable": false,
      "stateMutability": "nonpayable",
      "type": "function"
    },
    {
      "constant": false,
      "inputs": [
        {
          "internalType": "address",
          "name": "cToken",
          "type": "address"
        },
        {
          "internalType": "address",
          "name": "src",
          "type": "address"
        },
        {
          "internalType": "address",
          "name": "dst",
          "type": "address"
        },
        {
          "internalType": "uint256",
          "name": "transferTokens",
          "type": "uint256"
        }
      ],
      "name": "transferAllowed",
      "outputs": [
        {
          "internalType": "uint256",
          "name": "",
          "type": "uint256"
        }
      ],
      "payable": false,
      "stateMutability": "nonpayable",
      "type": "function"
    },
    {
      "constant": true,
      "inputs": [],
      "name": "transferGuardianPaused",
      "outputs": [
        {
          "internalType": "bool",
          "name": "",
          "type": "bool"
        }
      ],
      "payable": false,
      "stateMutability": "view",
      "type": "function"
    },
    {
      "constant": false,
      "inputs": [
        {
          "internalType": "address",
          "name": "cToken",
          "type": "address"
        },
        {
          "internalType": "address",
          "name": "src",
          "type": "address"
        },
        {
          "internalType": "address",
          "name": "dst",
          "type": "address"
        },
        {
          "internalType": "uint256",
          "name": "transferTokens",
          "type": "uint256"
        }
      ],
      "name": "transferVerify",
      "outputs": [],
      "payable": false,
      "stateMutability": "nonpayable",
      "type": "function"
    },
    {
      "constant": false,
      "inputs": [
        {
          "internalType": "uint256",
          "name": "blocks",
          "type": "uint256"
        }
      ],
      "name": "fastForward",
      "outputs": [
        {
          "internalType": "uint256",
          "name": "",
          "type": "uint256"
        }
      ],
      "payable": false,
      "stateMutability": "nonpayable",
      "type": "function"
    },
    {
      "constant": false,
      "inputs": [
        {
          "internalType": "uint256",
          "name": "number",
          "type": "uint256"
        }
      ],
      "name": "setBlockNumber",
      "outputs": [],
      "payable": false,
      "stateMutability": "nonpayable",
      "type": "function"
    }
  ],
  "bytecode": "0x608060405234801561001057600080fd5b50600080546001600160a01b031916331790556135ad806100326000396000f3fe608060405234801561001057600080fd5b50600436106103415760003560e01c8063731f0c2b116101b8578063c299823811610104578063e4028eee116100a2578063eabe7d911161007c578063eabe7d9114610bd0578063ede4edd014610c06578063f851a44014610c2c578063fccbe7f614610c3457610341565b8063e4028eee14610b94578063e6653f3d14610bc0578063e875544614610bc857610341565b8063d9226ced116100de578063d9226ced14610b0d578063da3d454c14610b2a578063dce1544914610b60578063dcfbc0c714610b8c57610341565b8063c2998238146109d5578063c488847b14610a78578063d02f735114610ac757610341565b806394b2294b11610171578063abfceffc1161014b578063abfceffc14610913578063ac0b0bb714610989578063bb82aa5e14610991578063bdcdc2581461099957610341565b806394b2294b146108c8578063a76b3fda146108d0578063a8c3c850146108f657610341565b8063731f0c2b146107fd5780637dc0d1d01461082357806387f763031461082b5780638e8f294b146108335780638ebf63641461087b578063929fe9a11461089a57610341565b80634ada90af116102925780635c778605116102305780635fc7e71e1161020a5780635fc7e71e1461070f5780636a56947e146107555780636d154ea5146107915780636d35bf91146107b757610341565b80635c7786051461068d5780635ec88c79146106c35780635f5af1aa146106e957610341565b80634fd42e171161026c5780634fd42e171461060657806351dff9891461062357806355ee1fe11461065f57806357e871e71461068557610341565b80634ada90af1461056e5780634e79238f146105765780634ef4c3e1146105d057610341565b806326782247116102ff5780633bcf7ec1116102d95780633bcf7ec1146104b05780633c94786f146104de57806341c728b9146104e657806347ef3b3b1461052257610341565b8063267822471461046c5780632d70db7814610474578063317b0b771461049357610341565b80627e3dd21461034657806318c882a5146103625780631d504dc6146103905780631ededc91146103b857806324008a62146103fa57806324a3d62214610448575b600080fd5b61034e610c51565b604080519115158252519081900360200190f35b61034e6004803603604081101561037857600080fd5b506001600160a01b0381351690602001351515610c56565b6103b6600480360360208110156103a657600080fd5b50356001600160a01b0316610df6565b005b6103b6600480360360a08110156103ce57600080fd5b506001600160a01b03813581169160208101358216916040820135169060608101359060800135610f5b565b6104366004803603608081101561041057600080fd5b506001600160a01b03813581169160208101358216916040820135169060600135610f62565b60408051918252519081900360200190f35b610450610f98565b604080516001600160a01b039092168252519081900360200190f35b610450610fa7565b61034e6004803603602081101561048a57600080fd5b50351515610fb6565b610436600480360360208110156104a957600080fd5b50356110f0565b61034e600480360360408110156104c657600080fd5b506001600160a01b0381351690602001351515611201565b61034e61139c565b6103b6600480360360808110156104fc57600080fd5b506001600160a01b038135811691602081013590911690604081013590606001356113ac565b6103b6600480360360c081101561053857600080fd5b506001600160a01b0381358116916020810135821691604082013581169160608101359091169060808101359060a001356113b2565b6104366113ba565b6105b26004803603608081101561058c57600080fd5b506001600160a01b038135811691602081013590911690604081013590606001356113c0565b60408051938452602084019290925282820152519081900360600190f35b610436600480360360608110156105e657600080fd5b506001600160a01b038135811691602081013590911690604001356113fa565b6104366004803603602081101561061c57600080fd5b5035611490565b6103b66004803603608081101561063957600080fd5b506001600160a01b03813581169160208101359091169060408101359060600135611584565b6104366004803603602081101561067557600080fd5b50356001600160a01b03166115d8565b61043661165f565b6103b6600480360360608110156106a357600080fd5b506001600160a01b03813581169160208101359091169060400135611665565b6105b2600480360360208110156106d957600080fd5b50356001600160a01b031661166a565b610436600480360360208110156106ff57600080fd5b50356001600160a01b031661169f565b610436600480360360a081101561072557600080fd5b506001600160a01b0381358116916020810135821691604082013581169160608101359091169060800135611723565b6103b66004803603608081101561076b57600080fd5b506001600160a01b038135811691602081013582169160408201351690606001356113ac565b61034e600480360360208110156107a757600080fd5b50356001600160a01b03166118aa565b6103b6600480360360a08110156107cd57600080fd5b506001600160a01b0381358116916020810135821691604082013581169160608101359091169060800135610f5b565b61034e6004803603602081101561081357600080fd5b50356001600160a01b03166118bf565b6104506118d4565b61034e6118e3565b6108596004803603602081101561084957600080fd5b50356001600160a01b03166118f3565b6040805193151584526020840192909252151582820152519081900360600190f35b61034e6004803603602081101561089157600080fd5b50351515611919565b61034e600480360360408110156108b057600080fd5b506001600160a01b0381358116916020013516611a52565b610436611a85565b610436600480360360208110156108e657600080fd5b50356001600160a01b0316611a8b565b6103b66004803603602081101561090c57600080fd5b5035611bd9565b6109396004803603602081101561092957600080fd5b50356001600160a01b0316611bde565b60408051602080825283518183015283519192839290830191858101910280838360005b8381101561097557818101518382015260200161095d565b505050509050019250505060405180910390f35b61034e611c67565b610450611c77565b610436600480360360808110156109af57600080fd5b506001600160a01b03813581169160208101358216916040820135169060600135611c86565b610939600480360360208110156109eb57600080fd5b810190602081018135640100000000811115610a0657600080fd5b820183602082011115610a1857600080fd5b80359060200191846020830284011164010000000083111715610a3a57600080fd5b919080806020026020016040519081016040528093929190818152602001838360200280828437600092019190915250929550611ce8945050505050565b610aae60048036036060811015610a8e57600080fd5b506001600160a01b03813581169160208101359091169060400135611d7f565b6040805192835260208301919091528051918290030190f35b610436600480360360a0811015610add57600080fd5b506001600160a01b0381358116916020810135821691604082013581169160608101359091169060800135611ff4565b61043660048036036020811015610b2357600080fd5b503561218b565b61043660048036036060811015610b4057600080fd5b506001600160a01b038135811691602081013590911690604001356121f4565b61045060048036036040811015610b7657600080fd5b506001600160a01b038135169060200135612441565b610450612476565b61043660048036036040811015610baa57600080fd5b506001600160a01b038135169060200135612485565b61034e612635565b610436612645565b61043660048036036060811015610be657600080fd5b506001600160a01b0381358116916020810135909116906040013561264b565b61043660048036036020811015610c1c57600080fd5b50356001600160a01b0316612658565b61045061296b565b61043660048036036020811015610c4a57600080fd5b503561297a565b600181565b6001600160a01b03821660009081526009602052604081205460ff16610cad5760405162461bcd60e51b81526004018080602001828103825260288152602001806134de6028913960400191505060405180910390fd5b600a546001600160a01b0316331480610cd057506000546001600160a01b031633145b610d0b5760405162461bcd60e51b81526004018080602001828103825260278152602001806135066027913960400191505060405180910390fd5b6000546001600160a01b0316331480610d2657506001821515145b610d70576040805162461bcd60e51b81526020600482015260166024820152756f6e6c792061646d696e2063616e20756e706175736560501b604482015290519081900360640190fd5b6001600160a01b0383166000818152600c6020908152604091829020805486151560ff199091168117909155825193845283830152606090830181905260069083015265426f72726f7760d01b6080830152517f71aec636243f9709bb0007ae15e9afb8150ab01716d75fd7573be5cc096e03b09181900360a00190a150805b92915050565b806001600160a01b031663f851a4406040518163ffffffff1660e01b815260040160206040518083038186803b158015610e2f57600080fd5b505afa158015610e43573d6000803e3d6000fd5b505050506040513d6020811015610e5957600080fd5b50516001600160a01b03163314610ea15760405162461bcd60e51b81526004018080602001828103825260278152602001806135526027913960400191505060405180910390fd5b6000816001600160a01b031663c1e803346040518163ffffffff1660e01b8152600401602060405180830381600087803b158015610ede57600080fd5b505af1158015610ef2573d6000803e3d6000fd5b505050506040513d6020811015610f0857600080fd5b505190508015610f57576040805162461bcd60e51b815260206004820152601560248201527418da185b99d9481b9bdd08185d5d1a1bdc9a5e9959605a1b604482015290519081900360640190fd5b5050565b5050505050565b6001600160a01b03841660009081526009602052604081205460ff16610f8a57506009610f90565b60005b90505b949350505050565b600a546001600160a01b031681565b6001546001600160a01b031681565b600a546000906001600160a01b0316331480610fdc57506000546001600160a01b031633145b6110175760405162461bcd60e51b81526004018080602001828103825260278152602001806135066027913960400191505060405180910390fd5b6000546001600160a01b031633148061103257506001821515145b61107c576040805162461bcd60e51b81526020600482015260166024820152756f6e6c792061646d696e2063616e20756e706175736560501b604482015290519081900360640190fd5b600a8054831515600160b81b810260ff60b81b1990921691909117909155604080516020810192909252808252600582820152645365697a6560d81b6060830152517fef159d9a32b2472e32b098f954f3ce62d232939f1c207070b584df1814de2de09181900360800190a150805b919050565b600080546001600160a01b031633146111165761110f60016004612989565b90506110eb565b61111e61341b565b50604080516020810190915282815261113561341b565b50604080516020810190915266b1a2bc2ec50000815261115582826129ef565b1561116e57611165600580612989565b925050506110eb565b61117661341b565b506040805160208101909152670c7d713b49da0000815261119781846129f7565b156111b1576111a7600580612989565b93505050506110eb565b6005805490869055604080518281526020810188905281517f3b9670cf975d26958e754b57098eaa2ac914d8d2a31b83257997b9f346110fd9929181900390910190a160005b9695505050505050565b6001600160a01b03821660009081526009602052604081205460ff166112585760405162461bcd60e51b81526004018080602001828103825260288152602001806134de6028913960400191505060405180910390fd5b600a546001600160a01b031633148061127b57506000546001600160a01b031633145b6112b65760405162461bcd60e51b81526004018080602001828103825260278152602001806135066027913960400191505060405180910390fd5b6000546001600160a01b03163314806112d157506001821515145b61131b576040805162461bcd60e51b81526020600482015260166024820152756f6e6c792061646d696e2063616e20756e706175736560501b604482015290519081900360640190fd5b6001600160a01b0383166000818152600b6020908152604091829020805486151560ff199091168117909155825193845283830152606090830181905260049083015263135a5b9d60e21b6080830152517f71aec636243f9709bb0007ae15e9afb8150ab01716d75fd7573be5cc096e03b09181900360a00190a150919050565b600a54600160a01b900460ff1681565b50505050565b505050505050565b60065481565b6000806000806000806113d58a8a8a8a6129fe565b9250925092508260118111156113e757fe5b95509093509150505b9450945094915050565b6001600160a01b0383166000908152600b602052604081205460ff1615611459576040805162461bcd60e51b815260206004820152600e60248201526d1b5a5b9d081a5cc81c185d5cd95960921b604482015290519081900360640190fd5b6001600160a01b03841660009081526009602052604090205460ff166114835760095b9050611489565b60005b90505b9392505050565b600080546001600160a01b031633146114af5761110f6001600b612989565b6114b761341b565b5060408051602081019091528281526114ce61341b565b506040805160208101909152670de0b6b3a764000081526114ef82826129f7565b15611500576111656007600c612989565b61150861341b565b5060408051602081019091526714d1120d7b160000815261152981846129f7565b1561153a576111a76007600c612989565b6006805490869055604080518281526020810188905281517faeba5a6c40a8ac138134bff1aaa65debf25971188a58804bad717f82f0ec1316929181900390910190a160006111f7565b801580156115925750600082115b156113ac576040805162461bcd60e51b815260206004820152601160248201527072656465656d546f6b656e73207a65726f60781b604482015290519081900360640190fd5b600080546001600160a01b031633146115f75761110f60016010612989565b600480546001600160a01b038481166001600160a01b0319831681179093556040805191909216808252602082019390935281517fd52b2b9b7e9ee655fcb95d2e5b9e0c9f69e7ef2b8e9d2d0ea78402d576d22e22929181900390910190a160009392505050565b600d5481565b505050565b6000806000806000806116818760008060006129fe565b92509250925082601181111561169357fe5b97919650945092505050565b600080546001600160a01b031633146116be5761110f60016013612989565b600a80546001600160a01b038481166001600160a01b0319831617928390556040805192821680845293909116602083015280517f0613b6ee6a04f0d09f390e4d9318894b9f6ac7fd83897cd8d18896ba579c401e9281900390910190a16000611489565b6001600160a01b03851660009081526009602052604081205460ff16158061176457506001600160a01b03851660009081526009602052604090205460ff16155b156117735760095b90506118a1565b60008061177f85612e19565b9193509091506000905082601181111561179557fe5b146117af578160118111156117a657fe5b925050506118a1565b806117bb5760036117a6565b6000886001600160a01b03166395dd9193876040518263ffffffff1660e01b815260040180826001600160a01b03166001600160a01b0316815260200191505060206040518083038186803b15801561181357600080fd5b505afa158015611827573d6000803e3d6000fd5b505050506040513d602081101561183d57600080fd5b50516040805160208101909152600554815290915060009081906118619084612e39565b9092509050600082600381111561187457fe5b1461188857600b5b955050505050506118a1565b8087111561189757601161187c565b6000955050505050505b95945050505050565b600c6020526000908152604090205460ff1681565b600b6020526000908152604090205460ff1681565b6004546001600160a01b031681565b600a54600160b01b900460ff1681565b60096020526000908152604090208054600182015460039092015460ff91821692911683565b600a546000906001600160a01b031633148061193f57506000546001600160a01b031633145b61197a5760405162461bcd60e51b81526004018080602001828103825260278152602001806135066027913960400191505060405180910390fd5b6000546001600160a01b031633148061199557506001821515145b6119df576040805162461bcd60e51b81526020600482015260166024820152756f6e6c792061646d696e2063616e20756e706175736560501b604482015290519081900360640190fd5b600a8054831515600160b01b810260ff60b01b1990921691909117909155604080516020810192909252808252600882820152672a3930b739b332b960c11b6060830152517fef159d9a32b2472e32b098f954f3ce62d232939f1c207070b584df1814de2de09181900360800190a15090565b6001600160a01b038082166000908152600960209081526040808320938616835260029093019052205460ff1692915050565b60075481565b600080546001600160a01b03163314611aaa5761110f60016012612989565b6001600160a01b03821660009081526009602052604090205460ff1615611ad75761110f600a6011612989565b816001600160a01b031663fe9c44ae6040518163ffffffff1660e01b815260040160206040518083038186803b158015611b1057600080fd5b505afa158015611b24573d6000803e3d6000fd5b505050506040513d6020811015611b3a57600080fd5b5050604080516060810182526001808252600060208381018281528486018381526001600160a01b03891680855260098452938790209551865490151560ff199182161787559151948601949094559251600390940180549415159490931693909317909155825190815291517fcf583bb0c569eb967f806b11601c4cb93c10310485c67add5f8362c2f212321f9281900390910190a1600092915050565b600d55565b60608060086000846001600160a01b03166001600160a01b03168152602001908152602001600020805480602002602001604051908101604052809291908181526020018280548015611c5a57602002820191906000526020600020905b81546001600160a01b03168152600190910190602001808311611c3c575b5093979650505050505050565b600a54600160b81b900460ff1681565b6002546001600160a01b031681565b600a54600090600160b01b900460ff1615611cdd576040805162461bcd60e51b81526020600482015260126024820152711d1c985b9cd9995c881a5cc81c185d5cd95960721b604482015290519081900360640190fd5b610f8d858584612e8d565b6060600082519050606081604051908082528060200260200182016040528015611d1c578160200160208202803883390190505b50905060005b82811015611d77576000858281518110611d3857fe5b60200260200101519050611d4c8133612efc565b6011811115611d5757fe5b838381518110611d6357fe5b602090810291909101015250600101611d22565b509392505050565b600480546040805163fc57d4df60e01b81526001600160a01b038781169482019490945290516000938493849391169163fc57d4df91602480820192602092909190829003018186803b158015611dd557600080fd5b505afa158015611de9573d6000803e3d6000fd5b505050506040513d6020811015611dff57600080fd5b5051600480546040805163fc57d4df60e01b81526001600160a01b038a8116948201949094529051939450600093929091169163fc57d4df91602480820192602092909190829003018186803b158015611e5857600080fd5b505afa158015611e6c573d6000803e3d6000fd5b505050506040513d6020811015611e8257600080fd5b50519050811580611e91575080155b15611ea657600d935060009250611fec915050565b6000866001600160a01b031663182df0f56040518163ffffffff1660e01b815260040160206040518083038186803b158015611ee157600080fd5b505afa158015611ef5573d6000803e3d6000fd5b505050506040513d6020811015611f0b57600080fd5b505190506000611f1961341b565b611f2161341b565b611f2961341b565b6000611f376006548961301d565b945090506000816003811115611f4957fe5b14611f6557600b5b995060009850611fec975050505050505050565b611f6f878761301d565b935090506000816003811115611f8157fe5b14611f8d57600b611f51565b611f978484613058565b925090506000816003811115611fa957fe5b14611fb557600b611f51565b611fbf828c612e39565b955090506000816003811115611fd157fe5b14611fdd57600b611f51565b60009950939750505050505050505b935093915050565b600a54600090600160b81b900460ff1615612048576040805162461bcd60e51b815260206004820152600f60248201526e1cd95a5e99481a5cc81c185d5cd959608a1b604482015290519081900360640190fd5b6001600160a01b03861660009081526009602052604090205460ff16158061208957506001600160a01b03851660009081526009602052604090205460ff16155b1561209557600961176c565b846001600160a01b0316635fe3b5676040518163ffffffff1660e01b815260040160206040518083038186803b1580156120ce57600080fd5b505afa1580156120e2573d6000803e3d6000fd5b505050506040513d60208110156120f857600080fd5b505160408051635fe3b56760e01b815290516001600160a01b0392831692891691635fe3b567916004808301926020929190829003018186803b15801561213e57600080fd5b505afa158015612152573d6000803e3d6000fd5b505050506040513d602081101561216857600080fd5b50516001600160a01b03161461217f57600261176c565b60009695505050505050565b600080546001600160a01b031633146121aa5761110f6001600d612989565b6007805490839055604080518281526020810185905281517f7093cf1eb653f749c3ff531d6df7f92764536a7fa0d13530cd26e070780c32ea929181900390910190a16000611489565b6001600160a01b0383166000908152600c602052604081205460ff1615612255576040805162461bcd60e51b815260206004820152601060248201526f189bdc9c9bddc81a5cc81c185d5cd95960821b604482015290519081900360640190fd5b6001600160a01b03841660009081526009602052604090205460ff1661227c57600961147c565b6001600160a01b038085166000908152600960209081526040808320938716835260029093019052205460ff1661236c57336001600160a01b03851614612302576040805162461bcd60e51b815260206004820152601560248201527439b2b73232b91036bab9ba1031329031aa37b5b2b760591b604482015290519081900360640190fd5b600061230e3385612efc565b9050600081601181111561231e57fe5b146123375780601181111561232f57fe5b915050611489565b6001600160a01b038086166000908152600960209081526040808320938816835260029093019052205460ff1661236a57fe5b505b600480546040805163fc57d4df60e01b81526001600160a01b03888116948201949094529051929091169163fc57d4df91602480820192602092909190829003018186803b1580156123bd57600080fd5b505afa1580156123d1573d6000803e3d6000fd5b505050506040513d60208110156123e757600080fd5b50516123f457600d61147c565b60008061240485876000876129fe565b9193509091506000905082601181111561241a57fe5b146124345781601181111561242b57fe5b92505050611489565b801561217f57600461242b565b6008602052816000526040600020818154811061245a57fe5b6000918252602090912001546001600160a01b03169150829050565b6003546001600160a01b031681565b600080546001600160a01b031633146124ab576124a460016006612989565b9050610df0565b6001600160a01b0383166000908152600960205260409020805460ff166124e0576124d860096007612989565b915050610df0565b6124e861341b565b5060408051602081019091528381526124ff61341b565b506040805160208101909152670c7d713b49da0000815261252081836129f7565b1561253b5761253160066008612989565b9350505050610df0565b84158015906125c45750600480546040805163fc57d4df60e01b81526001600160a01b038a8116948201949094529051929091169163fc57d4df91602480820192602092909190829003018186803b15801561259657600080fd5b505afa1580156125aa573d6000803e3d6000fd5b505050506040513d60208110156125c057600080fd5b5051155b156125d557612531600d6009612989565b60018301805490869055604080516001600160a01b03891681526020810183905280820188905290517f70483e6592cd5182d45ac970e05bc62cdcc90e9d8ef2c2dbe686cf383bcd7fc59181900360600190a16000979650505050505050565b600a54600160a81b900460ff1681565b60055481565b6000611486848484612e8d565b6000808290506000806000836001600160a01b031663c37f68e2336040518263ffffffff1660e01b815260040180826001600160a01b03166001600160a01b0316815260200191505060806040518083038186803b1580156126b957600080fd5b505afa1580156126cd573d6000803e3d6000fd5b505050506040513d60808110156126e357600080fd5b5080516020820151604090920151909450909250905082156127365760405162461bcd60e51b815260040180806020018281038252602581526020018061352d6025913960400191505060405180910390fd5b801561275357612748600c6002612989565b9450505050506110eb565b6000612760873385612e8d565b9050801561278157612775600e600383613070565b955050505050506110eb565b6001600160a01b0385166000908152600960209081526040808320338452600281019092529091205460ff166127c057600096505050505050506110eb565b3360009081526002820160209081526040808320805460ff19169055600882529182902080548351818402810184019094528084526060939283018282801561283257602002820191906000526020600020905b81546001600160a01b03168152600190910190602001808311612814575b5050835193945083925060009150505b8281101561288757896001600160a01b031684828151811061286057fe5b60200260200101516001600160a01b0316141561287f57809150612887565b600101612842565b5081811061289157fe5b3360009081526008602052604090208054819060001981019081106128b257fe5b9060005260206000200160009054906101000a90046001600160a01b03168183815481106128dc57fe5b600091825260209091200180546001600160a01b0319166001600160a01b0392909216919091179055805461291582600019830161342e565b50604080516001600160a01b038c16815233602082015281517fe699a64c18b07ac5b7301aa273f36a2287239eb9501d81950672794afba29a0d929181900390910190a160009c9b505050505050505050505050565b6000546001600160a01b031681565b600d8054820190819055919050565b60007f45b96fe442630264581b197e84bbada861235052c5a1aadfff9ea4e40a969aa08360118111156129b857fe5b8360138111156129c457fe5b604080519283526020830191909152600082820152519081900360600190a182601181111561148957fe5b519051111590565b5190511090565b6000806000612a0b613452565b6001600160a01b038816600090815260086020908152604080832080548251818502810185019093528083528493606093929190830182828015612a7857602002820191906000526020600020905b81546001600160a01b03168152600190910190602001808311612a5a575b50939450600093505050505b8151811015612dd4576000828281518110612a9b57fe5b60200260200101519050806001600160a01b031663c37f68e28e6040518263ffffffff1660e01b815260040180826001600160a01b03166001600160a01b0316815260200191505060806040518083038186803b158015612afb57600080fd5b505afa158015612b0f573d6000803e3d6000fd5b505050506040513d6080811015612b2557600080fd5b508051602082015160408084015160609485015160808c0152938a01939093529188019190915294508415612b6b5750600f9750600096508695506113f0945050505050565b60408051602080820183526001600160a01b0380851660008181526009845285902060010154845260c08b01939093528351808301855260808b0151815260e08b015260048054855163fc57d4df60e01b815291820194909452935192169263fc57d4df9260248083019392829003018186803b158015612beb57600080fd5b505afa158015612bff573d6000803e3d6000fd5b505050506040513d6020811015612c1557600080fd5b505160a08701819052612c395750600d9750600096508695506113f0945050505050565b604080516020810190915260a08701518152610100870181905260c087015160e0880151612c66926130d6565b61012088015293506000846003811115612c7c57fe5b14612c985750600b9750600096508695506113f0945050505050565b612cb08661012001518760400151886000015161312e565b875293506000846003811115612cc257fe5b14612cde5750600b9750600096508695506113f0945050505050565b612cf68661010001518760600151886020015161312e565b602088015293506000846003811115612d0b57fe5b14612d275750600b9750600096508695506113f0945050505050565b8b6001600160a01b0316816001600160a01b03161415612dcb57612d558661012001518c886020015161312e565b602088015293506000846003811115612d6a57fe5b14612d865750600b9750600096508695506113f0945050505050565b612d9a8661010001518b886020015161312e565b602088015293506000846003811115612daf57fe5b14612dcb5750600b9750600096508695506113f0945050505050565b50600101612a84565b50602084015184511115612dfb5750505060208101519051600094500391508290506113f0565b50508151602090920151600095508594509190910391506113f09050565b6000806000612e2c8460008060006129fe565b9250925092509193909250565b6000806000612e4661341b565b612e50868661317b565b90925090506000826003811115612e6357fe5b14612e745750915060009050612e86565b6000612e7f826131e3565b9350935050505b9250929050565b6001600160a01b03831660009081526009602052604081205460ff16612eb457600961147c565b6001600160a01b038085166000908152600960209081526040808320938716835260029093019052205460ff16612eec57600061147c565b60008061240485878660006129fe565b6001600160a01b0382166000908152600960205260408120805460ff16612f27576009915050610df0565b6001600160a01b038316600090815260028201602052604090205460ff16151560011415612f59576000915050610df0565b6007546001600160a01b03841660009081526008602052604090205410612f84576010915050610df0565b6001600160a01b0380841660008181526002840160209081526040808320805460ff19166001908117909155600883528184208054918201815584529282902090920180549489166001600160a01b031990951685179055815193845283019190915280517f3ab23ab0d51cccc0c3085aec51f99228625aa1a922b3a8ca89a26b0f2027a1a59281900390910190a15060009392505050565b600061302761341b565b61304d6040518060200160405280868152506040518060200160405280868152506131f2565b915091509250929050565b600061306261341b565b8351835161304d91906132db565b60007f45b96fe442630264581b197e84bbada861235052c5a1aadfff9ea4e40a969aa084601181111561309f57fe5b8460138111156130ab57fe5b604080519283526020830191909152818101859052519081900360600190a183601181111561148657fe5b60006130e061341b565b60006130ea61341b565b6130f487876131f2565b9092509050600082600381111561310757fe5b14613116579092509050611fec565b61312081866131f2565b935093505050935093915050565b600080600061313b61341b565b613145878761317b565b9092509050600082600381111561315857fe5b146131695750915060009050611fec565b613120613175826131e3565b8661338b565b600061318561341b565b6000806131968660000151866133b1565b909250905060008260038111156131a957fe5b146131c857506040805160208101909152600081529092509050612e86565b60408051602081019091529081526000969095509350505050565b51670de0b6b3a7640000900490565b60006131fc61341b565b600080613211866000015186600001516133b1565b9092509050600082600381111561322457fe5b1461324357506040805160208101909152600081529092509050612e86565b6000806132586706f05b59d3b200008461338b565b9092509050600082600381111561326b57fe5b1461328d57506040805160208101909152600081529094509250612e86915050565b6000806132a283670de0b6b3a76400006133f0565b909250905060008260038111156132b557fe5b146132bc57fe5b604080516020810190915290815260009a909950975050505050505050565b60006132e561341b565b6000806132fa86670de0b6b3a76400006133b1565b9092509050600082600381111561330d57fe5b1461332c57506040805160208101909152600081529092509050612e86565b60008061333983886133f0565b9092509050600082600381111561334c57fe5b1461336e57506040805160208101909152600081529094509250612e86915050565b604080516020810190915290815260009890975095505050505050565b6000808383018481106133a357600092509050612e86565b506002915060009050612e86565b600080836133c457506000905080612e86565b838302838582816133d157fe5b04146133e557506002915060009050612e86565b600092509050612e86565b600080826134045750600190506000612e86565b600083858161340f57fe5b04915091509250929050565b6040518060200160405280600081525090565b815481835581811115611665576000838152602090206116659181019083016134bc565b60405180610140016040528060008152602001600081526020016000815260200160008152602001600081526020016000815260200161349061341b565b815260200161349d61341b565b81526020016134aa61341b565b81526020016134b761341b565b905290565b6134da91905b808211156134d657600081556001016134c2565b5090565b9056fe63616e6e6f742070617573652061206d61726b65742074686174206973206e6f74206c69737465646f6e6c7920706175736520677561726469616e20616e642061646d696e2063616e207061757365657869744d61726b65743a206765744163636f756e74536e617073686f74206661696c65646f6e6c7920756e6974726f6c6c65722061646d696e2063616e206368616e676520627261696e73a265627a7a7231582049b8d35942640b008206323ee517e3cc8380e1dde9dfae15a098a3ae3d4b0a0764736f6c634300050e0032",
  "source": "pragma solidity ^0.5.14;\n\nimport \"../../contracts/ComptrollerG2.sol\";\n\ncontract ComptrollerScenarioG2 is ComptrollerG2 {\n    uint public blockNumber;\n\n    constructor() ComptrollerG2() public {}\n\n    function fastForward(uint blocks) public returns (uint) {\n        blockNumber += blocks;\n        return blockNumber;\n    }\n\n    function setBlockNumber(uint number) public {\n        blockNumber = number;\n    }\n}\n",
  "sourcePath": "/Users/yanyichun/project/Savings/contracts/compound/test/Contracts/ComptrollerScenarioG2.sol",
  "compiler": {
    "name": "solc",
    "version": "0.5.14+commit.01f1aaa4.Emscripten.clang"
  },
  "schemaVersion": "3.2.3",
  "updatedAt": "2021-02-25T05:30:06.442Z",
  "devdoc": {
    "methods": {
      "_setCloseFactor(uint256)": {
        "details": "Admin function to set closeFactor",
        "params": {
          "newCloseFactorMantissa": "New close factor, scaled by 1e18"
        },
        "return": "uint 0=success, otherwise a failure. (See ErrorReporter for details)"
      },
      "_setCollateralFactor(address,uint256)": {
        "details": "Admin function to set per-market collateralFactor",
        "params": {
          "cToken": "The market to set the factor on",
          "newCollateralFactorMantissa": "The new collateral factor, scaled by 1e18"
        },
        "return": "uint 0=success, otherwise a failure. (See ErrorReporter for details)"
      },
      "_setLiquidationIncentive(uint256)": {
        "details": "Admin function to set liquidationIncentive",
        "params": {
          "newLiquidationIncentiveMantissa": "New liquidationIncentive scaled by 1e18"
        },
        "return": "uint 0=success, otherwise a failure. (See ErrorReporter for details)"
      },
      "_setMaxAssets(uint256)": {
        "details": "Admin function to set maxAssets",
        "params": {
          "newMaxAssets": "New max assets"
        },
        "return": "uint 0=success, otherwise a failure. (See ErrorReporter for details)"
      },
      "_setPauseGuardian(address)": {
        "params": {
          "newPauseGuardian": "The address of the new Pause Guardian"
        },
        "return": "uint 0=success, otherwise a failure. (See enum Error for details)"
      },
      "_setPriceOracle(address)": {
        "details": "Admin function to set a new price oracle",
        "return": "uint 0=success, otherwise a failure (see ErrorReporter.sol for details)"
      },
      "_supportMarket(address)": {
        "details": "Admin function to set isListed and add support for the market",
        "params": {
          "cToken": "The address of the market (token) to list"
        },
        "return": "uint 0=success, otherwise a failure. (See enum Error for details)"
      },
      "borrowAllowed(address,address,uint256)": {
        "params": {
          "borrowAmount": "The amount of underlying the account would borrow",
          "borrower": "The account which would borrow the asset",
          "cToken": "The market to verify the borrow against"
        },
        "return": "0 if the borrow is allowed, otherwise a semi-opaque error code (See ErrorReporter.sol)"
      },
      "borrowVerify(address,address,uint256)": {
        "params": {
          "borrowAmount": "The amount of the underlying asset requested to borrow",
          "borrower": "The address borrowing the underlying",
          "cToken": "Asset whose underlying is being borrowed"
        }
      },
      "checkMembership(address,address)": {
        "params": {
          "account": "The address of the account to check",
          "cToken": "The cToken to check"
        },
        "return": "True if the account is in the asset, otherwise false."
      },
      "enterMarkets(address[])": {
        "params": {
          "cTokens": "The list of addresses of the cToken markets to be enabled"
        },
        "return": "Success indicator for whether each corresponding market was entered"
      },
      "exitMarket(address)": {
        "details": "Sender must not have an outstanding borrow balance in the asset, or be providing neccessary collateral for an outstanding borrow.",
        "params": {
          "cTokenAddress": "The address of the asset to be removed"
        },
        "return": "Whether or not the account successfully exited the market"
      },
      "getAccountLiquidity(address)": {
        "return": "(possible error code (semi-opaque), account liquidity in excess of collateral requirements,         account shortfall below collateral requirements)"
      },
      "getAssetsIn(address)": {
        "params": {
          "account": "The address of the account to pull assets for"
        },
        "return": "A dynamic list with the assets the account has entered"
      },
      "getHypotheticalAccountLiquidity(address,address,uint256,uint256)": {
        "params": {
          "account": "The account to determine liquidity for",
          "borrowAmount": "The amount of underlying to hypothetically borrow",
          "cTokenModify": "The market to hypothetically redeem/borrow in",
          "redeemTokens": "The number of tokens to hypothetically redeem"
        },
        "return": "(possible error code (semi-opaque), hypothetical account liquidity in excess of collateral requirements,         hypothetical account shortfall below collateral requirements)"
      },
      "liquidateBorrowAllowed(address,address,address,address,uint256)": {
        "params": {
          "borrower": "The address of the borrower",
          "cTokenBorrowed": "Asset which was borrowed by the borrower",
          "cTokenCollateral": "Asset which was used as collateral and will be seized",
          "liquidator": "The address repaying the borrow and seizing the collateral",
          "repayAmount": "The amount of underlying being repaid"
        }
      },
      "liquidateBorrowVerify(address,address,address,address,uint256,uint256)": {
        "params": {
          "actualRepayAmount": "The amount of underlying being repaid",
          "borrower": "The address of the borrower",
          "cTokenBorrowed": "Asset which was borrowed by the borrower",
          "cTokenCollateral": "Asset which was used as collateral and will be seized",
          "liquidator": "The address repaying the borrow and seizing the collateral"
        }
      },
      "liquidateCalculateSeizeTokens(address,address,uint256)": {
        "details": "Used in liquidation (called in cToken.liquidateBorrowFresh)",
        "params": {
          "actualRepayAmount": "The amount of cTokenBorrowed underlying to convert into cTokenCollateral tokens",
          "cTokenBorrowed": "The address of the borrowed cToken",
          "cTokenCollateral": "The address of the collateral cToken"
        },
        "return": "(errorCode, number of cTokenCollateral tokens to be seized in a liquidation)"
      },
      "mintAllowed(address,address,uint256)": {
        "params": {
          "cToken": "The market to verify the mint against",
          "mintAmount": "The amount of underlying being supplied to the market in exchange for tokens",
          "minter": "The account which would get the minted tokens"
        },
        "return": "0 if the mint is allowed, otherwise a semi-opaque error code (See ErrorReporter.sol)"
      },
      "mintVerify(address,address,uint256,uint256)": {
        "params": {
          "actualMintAmount": "The amount of the underlying asset being minted",
          "cToken": "Asset being minted",
          "mintTokens": "The number of tokens being minted",
          "minter": "The address minting the tokens"
        }
      },
      "redeemAllowed(address,address,uint256)": {
        "params": {
          "cToken": "The market to verify the redeem against",
          "redeemTokens": "The number of cTokens to exchange for the underlying asset in the market",
          "redeemer": "The account which would redeem the tokens"
        },
        "return": "0 if the redeem is allowed, otherwise a semi-opaque error code (See ErrorReporter.sol)"
      },
      "redeemVerify(address,address,uint256,uint256)": {
        "params": {
          "cToken": "Asset being redeemed",
          "redeemAmount": "The amount of the underlying asset being redeemed",
          "redeemTokens": "The number of tokens being redeemed",
          "redeemer": "The address redeeming the tokens"
        }
      },
      "repayBorrowAllowed(address,address,address,uint256)": {
        "params": {
          "borrower": "The account which would borrowed the asset",
          "cToken": "The market to verify the repay against",
          "payer": "The account which would repay the asset",
          "repayAmount": "The amount of the underlying asset the account would repay"
        },
        "return": "0 if the repay is allowed, otherwise a semi-opaque error code (See ErrorReporter.sol)"
      },
      "repayBorrowVerify(address,address,address,uint256,uint256)": {
        "params": {
          "actualRepayAmount": "The amount of underlying being repaid",
          "borrower": "The address of the borrower",
          "cToken": "Asset being repaid",
          "payer": "The address repaying the borrow"
        }
      },
      "seizeAllowed(address,address,address,address,uint256)": {
        "params": {
          "borrower": "The address of the borrower",
          "cTokenBorrowed": "Asset which was borrowed by the borrower",
          "cTokenCollateral": "Asset which was used as collateral and will be seized",
          "liquidator": "The address repaying the borrow and seizing the collateral",
          "seizeTokens": "The number of collateral tokens to seize"
        }
      },
      "seizeVerify(address,address,address,address,uint256)": {
        "params": {
          "borrower": "The address of the borrower",
          "cTokenBorrowed": "Asset which was borrowed by the borrower",
          "cTokenCollateral": "Asset which was used as collateral and will be seized",
          "liquidator": "The address repaying the borrow and seizing the collateral",
          "seizeTokens": "The number of collateral tokens to seize"
        }
      },
      "transferAllowed(address,address,address,uint256)": {
        "params": {
          "cToken": "The market to verify the transfer against",
          "dst": "The account which receives the tokens",
          "src": "The account which sources the tokens",
          "transferTokens": "The number of cTokens to transfer"
        },
        "return": "0 if the transfer is allowed, otherwise a semi-opaque error code (See ErrorReporter.sol)"
      },
      "transferVerify(address,address,address,uint256)": {
        "params": {
          "cToken": "Asset being transferred",
          "dst": "The account which receives the tokens",
          "src": "The account which sources the tokens",
          "transferTokens": "The number of cTokens to transfer"
        }
      }
    }
  },
  "userdoc": {
    "methods": {
      "_setCloseFactor(uint256)": {
        "notice": "Sets the closeFactor used when liquidating borrows"
      },
      "_setCollateralFactor(address,uint256)": {
        "notice": "Sets the collateralFactor for a market"
      },
      "_setLiquidationIncentive(uint256)": {
        "notice": "Sets liquidationIncentive"
      },
      "_setMaxAssets(uint256)": {
        "notice": "Sets maxAssets which controls how many markets can be entered"
      },
      "_setPauseGuardian(address)": {
        "notice": "Admin function to change the Pause Guardian"
      },
      "_setPriceOracle(address)": {
        "notice": "Sets a new price oracle for the comptroller"
      },
      "_supportMarket(address)": {
        "notice": "Add the market to the markets mapping and set it as listed"
      },
      "borrowAllowed(address,address,uint256)": {
        "notice": "Checks if the account should be allowed to borrow the underlying asset of the given market"
      },
      "borrowVerify(address,address,uint256)": {
        "notice": "Validates borrow and reverts on rejection. May emit logs."
      },
      "checkMembership(address,address)": {
        "notice": "Returns whether the given account is entered in the given asset"
      },
      "enterMarkets(address[])": {
        "notice": "Add assets to be included in account liquidity calculation"
      },
      "exitMarket(address)": {
        "notice": "Removes asset from sender's account liquidity calculation"
      },
      "getAccountLiquidity(address)": {
        "notice": "Determine the current account liquidity wrt collateral requirements"
      },
      "getAssetsIn(address)": {
        "notice": "Returns the assets an account has entered"
      },
      "getHypotheticalAccountLiquidity(address,address,uint256,uint256)": {
        "notice": "Determine what the account liquidity would be if the given amounts were redeemed/borrowed"
      },
      "liquidateBorrowAllowed(address,address,address,address,uint256)": {
        "notice": "Checks if the liquidation should be allowed to occur"
      },
      "liquidateBorrowVerify(address,address,address,address,uint256,uint256)": {
        "notice": "Validates liquidateBorrow and reverts on rejection. May emit logs."
      },
      "liquidateCalculateSeizeTokens(address,address,uint256)": {
        "notice": "Calculate number of tokens of collateral asset to seize given an underlying amount"
      },
      "mintAllowed(address,address,uint256)": {
        "notice": "Checks if the account should be allowed to mint tokens in the given market"
      },
      "mintVerify(address,address,uint256,uint256)": {
        "notice": "Validates mint and reverts on rejection. May emit logs."
      },
      "redeemAllowed(address,address,uint256)": {
        "notice": "Checks if the account should be allowed to redeem tokens in the given market"
      },
      "redeemVerify(address,address,uint256,uint256)": {
        "notice": "Validates redeem and reverts on rejection. May emit logs."
      },
      "repayBorrowAllowed(address,address,address,uint256)": {
        "notice": "Checks if the account should be allowed to repay a borrow in the given market"
      },
      "repayBorrowVerify(address,address,address,uint256,uint256)": {
        "notice": "Validates repayBorrow and reverts on rejection. May emit logs."
      },
      "seizeAllowed(address,address,address,address,uint256)": {
        "notice": "Checks if the seizing of assets should be allowed to occur"
      },
      "seizeVerify(address,address,address,address,uint256)": {
        "notice": "Validates seize and reverts on rejection. May emit logs."
      },
      "transferAllowed(address,address,address,uint256)": {
        "notice": "Checks if the account should be allowed to transfer tokens in the given market"
      },
      "transferVerify(address,address,address,uint256)": {
        "notice": "Validates transfer and reverts on rejection. May emit logs."
      }
    }
  }
}