{
  "contractName": "ComptrollerHarness",
  "abi": [
    {
      "inputs": [],
      "payable": false,
      "stateMutability": "nonpayable",
      "type": "constructor"
    },
    {
      "anonymous": false,
      "inputs": [
        {
          "indexed": false,
          "internalType": "string",
          "name": "action",
          "type": "string"
        },
        {
          "indexed": false,
          "internalType": "bool",
          "name": "pauseState",
          "type": "bool"
        }
      ],
      "name": "ActionPaused",
      "type": "event"
    },
    {
      "anonymous": false,
      "inputs": [
        {
          "indexed": false,
          "internalType": "contract CToken",
          "name": "cToken",
          "type": "address"
        },
        {
          "indexed": false,
          "internalType": "string",
          "name": "action",
          "type": "string"
        },
        {
          "indexed": false,
          "internalType": "bool",
          "name": "pauseState",
          "type": "bool"
        }
      ],
      "name": "ActionPaused",
      "type": "event"
    },
    {
      "anonymous": false,
      "inputs": [
        {
          "indexed": true,
          "internalType": "contract CToken",
          "name": "cToken",
          "type": "address"
        },
        {
          "indexed": false,
          "internalType": "uint256",
          "name": "newSpeed",
          "type": "uint256"
        }
      ],
      "name": "CompSpeedUpdated",
      "type": "event"
    },
    {
      "anonymous": false,
      "inputs": [
        {
          "indexed": true,
          "internalType": "contract CToken",
          "name": "cToken",
          "type": "address"
        },
        {
          "indexed": true,
          "internalType": "address",
          "name": "borrower",
          "type": "address"
        },
        {
          "indexed": false,
          "internalType": "uint256",
          "name": "compDelta",
          "type": "uint256"
        },
        {
          "indexed": false,
          "internalType": "uint256",
          "name": "compBorrowIndex",
          "type": "uint256"
        }
      ],
      "name": "DistributedBorrowerComp",
      "type": "event"
    },
    {
      "anonymous": false,
      "inputs": [
        {
          "indexed": true,
          "internalType": "contract CToken",
          "name": "cToken",
          "type": "address"
        },
        {
          "indexed": true,
          "internalType": "address",
          "name": "supplier",
          "type": "address"
        },
        {
          "indexed": false,
          "internalType": "uint256",
          "name": "compDelta",
          "type": "uint256"
        },
        {
          "indexed": false,
          "internalType": "uint256",
          "name": "compSupplyIndex",
          "type": "uint256"
        }
      ],
      "name": "DistributedSupplierComp",
      "type": "event"
    },
    {
      "anonymous": false,
      "inputs": [
        {
          "indexed": false,
          "internalType": "uint256",
          "name": "error",
          "type": "uint256"
        },
        {
          "indexed": false,
          "internalType": "uint256",
          "name": "info",
          "type": "uint256"
        },
        {
          "indexed": false,
          "internalType": "uint256",
          "name": "detail",
          "type": "uint256"
        }
      ],
      "name": "Failure",
      "type": "event"
    },
    {
      "anonymous": false,
      "inputs": [
        {
          "indexed": false,
          "internalType": "contract CToken",
          "name": "cToken",
          "type": "address"
        },
        {
          "indexed": false,
          "internalType": "bool",
          "name": "isComped",
          "type": "bool"
        }
      ],
      "name": "MarketComped",
      "type": "event"
    },
    {
      "anonymous": false,
      "inputs": [
        {
          "indexed": false,
          "internalType": "contract CToken",
          "name": "cToken",
          "type": "address"
        },
        {
          "indexed": false,
          "internalType": "address",
          "name": "account",
          "type": "address"
        }
      ],
      "name": "MarketEntered",
      "type": "event"
    },
    {
      "anonymous": false,
      "inputs": [
        {
          "indexed": false,
          "internalType": "contract CToken",
          "name": "cToken",
          "type": "address"
        },
        {
          "indexed": false,
          "internalType": "address",
          "name": "account",
          "type": "address"
        }
      ],
      "name": "MarketExited",
      "type": "event"
    },
    {
      "anonymous": false,
      "inputs": [
        {
          "indexed": false,
          "internalType": "contract CToken",
          "name": "cToken",
          "type": "address"
        }
      ],
      "name": "MarketListed",
      "type": "event"
    },
    {
      "anonymous": false,
      "inputs": [
        {
          "indexed": false,
          "internalType": "uint256",
          "name": "oldCloseFactorMantissa",
          "type": "uint256"
        },
        {
          "indexed": false,
          "internalType": "uint256",
          "name": "newCloseFactorMantissa",
          "type": "uint256"
        }
      ],
      "name": "NewCloseFactor",
      "type": "event"
    },
    {
      "anonymous": false,
      "inputs": [
        {
          "indexed": false,
          "internalType": "contract CToken",
          "name": "cToken",
          "type": "address"
        },
        {
          "indexed": false,
          "internalType": "uint256",
          "name": "oldCollateralFactorMantissa",
          "type": "uint256"
        },
        {
          "indexed": false,
          "internalType": "uint256",
          "name": "newCollateralFactorMantissa",
          "type": "uint256"
        }
      ],
      "name": "NewCollateralFactor",
      "type": "event"
    },
    {
      "anonymous": false,
      "inputs": [
        {
          "indexed": false,
          "internalType": "uint256",
          "name": "oldCompRate",
          "type": "uint256"
        },
        {
          "indexed": false,
          "internalType": "uint256",
          "name": "newCompRate",
          "type": "uint256"
        }
      ],
      "name": "NewCompRate",
      "type": "event"
    },
    {
      "anonymous": false,
      "inputs": [
        {
          "indexed": false,
          "internalType": "uint256",
          "name": "oldLiquidationIncentiveMantissa",
          "type": "uint256"
        },
        {
          "indexed": false,
          "internalType": "uint256",
          "name": "newLiquidationIncentiveMantissa",
          "type": "uint256"
        }
      ],
      "name": "NewLiquidationIncentive",
      "type": "event"
    },
    {
      "anonymous": false,
      "inputs": [
        {
          "indexed": false,
          "internalType": "uint256",
          "name": "oldMaxAssets",
          "type": "uint256"
        },
        {
          "indexed": false,
          "internalType": "uint256",
          "name": "newMaxAssets",
          "type": "uint256"
        }
      ],
      "name": "NewMaxAssets",
      "type": "event"
    },
    {
      "anonymous": false,
      "inputs": [
        {
          "indexed": false,
          "internalType": "address",
          "name": "oldPauseGuardian",
          "type": "address"
        },
        {
          "indexed": false,
          "internalType": "address",
          "name": "newPauseGuardian",
          "type": "address"
        }
      ],
      "name": "NewPauseGuardian",
      "type": "event"
    },
    {
      "anonymous": false,
      "inputs": [
        {
          "indexed": false,
          "internalType": "contract PriceOracle",
          "name": "oldPriceOracle",
          "type": "address"
        },
        {
          "indexed": false,
          "internalType": "contract PriceOracle",
          "name": "newPriceOracle",
          "type": "address"
        }
      ],
      "name": "NewPriceOracle",
      "type": "event"
    },
    {
      "constant": false,
      "inputs": [
        {
          "internalType": "address[]",
          "name": "cTokens",
          "type": "address[]"
        }
      ],
      "name": "_addCompMarkets",
      "outputs": [],
      "payable": false,
      "stateMutability": "nonpayable",
      "type": "function"
    },
    {
      "constant": false,
      "inputs": [
        {
          "internalType": "contract Unitroller",
          "name": "unitroller",
          "type": "address"
        },
        {
          "internalType": "uint256",
          "name": "compRate_",
          "type": "uint256"
        },
        {
          "internalType": "address[]",
          "name": "compMarketsToAdd",
          "type": "address[]"
        },
        {
          "internalType": "address[]",
          "name": "otherMarketsToAdd",
          "type": "address[]"
        }
      ],
      "name": "_become",
      "outputs": [],
      "payable": false,
      "stateMutability": "nonpayable",
      "type": "function"
    },
    {
      "constant": false,
      "inputs": [
        {
          "internalType": "uint256",
          "name": "compRate_",
          "type": "uint256"
        },
        {
          "internalType": "address[]",
          "name": "compMarketsToAdd",
          "type": "address[]"
        },
        {
          "internalType": "address[]",
          "name": "otherMarketsToAdd",
          "type": "address[]"
        }
      ],
      "name": "_becomeG3",
      "outputs": [],
      "payable": false,
      "stateMutability": "nonpayable",
      "type": "function"
    },
    {
      "constant": true,
      "inputs": [],
      "name": "_borrowGuardianPaused",
      "outputs": [
        {
          "internalType": "bool",
          "name": "",
          "type": "bool"
        }
      ],
      "payable": false,
      "stateMutability": "view",
      "type": "function"
    },
    {
      "constant": false,
      "inputs": [
        {
          "internalType": "address",
          "name": "cToken",
          "type": "address"
        }
      ],
      "name": "_dropCompMarket",
      "outputs": [],
      "payable": false,
      "stateMutability": "nonpayable",
      "type": "function"
    },
    {
      "constant": true,
      "inputs": [],
      "name": "_mintGuardianPaused",
      "outputs": [
        {
          "internalType": "bool",
          "name": "",
          "type": "bool"
        }
      ],
      "payable": false,
      "stateMutability": "view",
      "type": "function"
    },
    {
      "constant": false,
      "inputs": [
        {
          "internalType": "contract CToken",
          "name": "cToken",
          "type": "address"
        },
        {
          "internalType": "bool",
          "name": "state",
          "type": "bool"
        }
      ],
      "name": "_setBorrowPaused",
      "outputs": [
        {
          "internalType": "bool",
          "name": "",
          "type": "bool"
        }
      ],
      "payable": false,
      "stateMutability": "nonpayable",
      "type": "function"
    },
    {
      "constant": false,
      "inputs": [
        {
          "internalType": "uint256",
          "name": "newCloseFactorMantissa",
          "type": "uint256"
        }
      ],
      "name": "_setCloseFactor",
      "outputs": [
        {
          "internalType": "uint256",
          "name": "",
          "type": "uint256"
        }
      ],
      "payable": false,
      "stateMutability": "nonpayable",
      "type": "function"
    },
    {
      "constant": false,
      "inputs": [
        {
          "internalType": "contract CToken",
          "name": "cToken",
          "type": "address"
        },
        {
          "internalType": "uint256",
          "name": "newCollateralFactorMantissa",
          "type": "uint256"
        }
      ],
      "name": "_setCollateralFactor",
      "outputs": [
        {
          "internalType": "uint256",
          "name": "",
          "type": "uint256"
        }
      ],
      "payable": false,
      "stateMutability": "nonpayable",
      "type": "function"
    },
    {
      "constant": false,
      "inputs": [
        {
          "internalType": "uint256",
          "name": "compRate_",
          "type": "uint256"
        }
      ],
      "name": "_setCompRate",
      "outputs": [],
      "payable": false,
      "stateMutability": "nonpayable",
      "type": "function"
    },
    {
      "constant": false,
      "inputs": [
        {
          "internalType": "uint256",
          "name": "newLiquidationIncentiveMantissa",
          "type": "uint256"
        }
      ],
      "name": "_setLiquidationIncentive",
      "outputs": [
        {
          "internalType": "uint256",
          "name": "",
          "type": "uint256"
        }
      ],
      "payable": false,
      "stateMutability": "nonpayable",
      "type": "function"
    },
    {
      "constant": false,
      "inputs": [
        {
          "internalType": "uint256",
          "name": "newMaxAssets",
          "type": "uint256"
        }
      ],
      "name": "_setMaxAssets",
      "outputs": [
        {
          "internalType": "uint256",
          "name": "",
          "type": "uint256"
        }
      ],
      "payable": false,
      "stateMutability": "nonpayable",
      "type": "function"
    },
    {
      "constant": false,
      "inputs": [
        {
          "internalType": "contract CToken",
          "name": "cToken",
          "type": "address"
        },
        {
          "internalType": "bool",
          "name": "state",
          "type": "bool"
        }
      ],
      "name": "_setMintPaused",
      "outputs": [
        {
          "internalType": "bool",
          "name": "",
          "type": "bool"
        }
      ],
      "payable": false,
      "stateMutability": "nonpayable",
      "type": "function"
    },
    {
      "constant": false,
      "inputs": [
        {
          "internalType": "address",
          "name": "newPauseGuardian",
          "type": "address"
        }
      ],
      "name": "_setPauseGuardian",
      "outputs": [
        {
          "internalType": "uint256",
          "name": "",
          "type": "uint256"
        }
      ],
      "payable": false,
      "stateMutability": "nonpayable",
      "type": "function"
    },
    {
      "constant": false,
      "inputs": [
        {
          "internalType": "contract PriceOracle",
          "name": "newOracle",
          "type": "address"
        }
      ],
      "name": "_setPriceOracle",
      "outputs": [
        {
          "internalType": "uint256",
          "name": "",
          "type": "uint256"
        }
      ],
      "payable": false,
      "stateMutability": "nonpayable",
      "type": "function"
    },
    {
      "constant": false,
      "inputs": [
        {
          "internalType": "bool",
          "name": "state",
          "type": "bool"
        }
      ],
      "name": "_setSeizePaused",
      "outputs": [
        {
          "internalType": "bool",
          "name": "",
          "type": "bool"
        }
      ],
      "payable": false,
      "stateMutability": "nonpayable",
      "type": "function"
    },
    {
      "constant": false,
      "inputs": [
        {
          "internalType": "bool",
          "name": "state",
          "type": "bool"
        }
      ],
      "name": "_setTransferPaused",
      "outputs": [
        {
          "internalType": "bool",
          "name": "",
          "type": "bool"
        }
      ],
      "payable": false,
      "stateMutability": "nonpayable",
      "type": "function"
    },
    {
      "constant": false,
      "inputs": [
        {
          "internalType": "contract CToken",
          "name": "cToken",
          "type": "address"
        }
      ],
      "name": "_supportMarket",
      "outputs": [
        {
          "internalType": "uint256",
          "name": "",
          "type": "uint256"
        }
      ],
      "payable": false,
      "stateMutability": "nonpayable",
      "type": "function"
    },
    {
      "constant": true,
      "inputs": [
        {
          "internalType": "address",
          "name": "",
          "type": "address"
        },
        {
          "internalType": "uint256",
          "name": "",
          "type": "uint256"
        }
      ],
      "name": "accountAssets",
      "outputs": [
        {
          "internalType": "contract CToken",
          "name": "",
          "type": "address"
        }
      ],
      "payable": false,
      "stateMutability": "view",
      "type": "function"
    },
    {
      "constant": true,
      "inputs": [],
      "name": "admin",
      "outputs": [
        {
          "internalType": "address",
          "name": "",
          "type": "address"
        }
      ],
      "payable": false,
      "stateMutability": "view",
      "type": "function"
    },
    {
      "constant": true,
      "inputs": [
        {
          "internalType": "uint256",
          "name": "",
          "type": "uint256"
        }
      ],
      "name": "allMarkets",
      "outputs": [
        {
          "internalType": "contract CToken",
          "name": "",
          "type": "address"
        }
      ],
      "payable": false,
      "stateMutability": "view",
      "type": "function"
    },
    {
      "constant": true,
      "inputs": [],
      "name": "blockNumber",
      "outputs": [
        {
          "internalType": "uint256",
          "name": "",
          "type": "uint256"
        }
      ],
      "payable": false,
      "stateMutability": "view",
      "type": "function"
    },
    {
      "constant": false,
      "inputs": [
        {
          "internalType": "address",
          "name": "cToken",
          "type": "address"
        },
        {
          "internalType": "address",
          "name": "borrower",
          "type": "address"
        },
        {
          "internalType": "uint256",
          "name": "borrowAmount",
          "type": "uint256"
        }
      ],
      "name": "borrowAllowed",
      "outputs": [
        {
          "internalType": "uint256",
          "name": "",
          "type": "uint256"
        }
      ],
      "payable": false,
      "stateMutability": "nonpayable",
      "type": "function"
    },
    {
      "constant": true,
      "inputs": [
        {
          "internalType": "address",
          "name": "",
          "type": "address"
        }
      ],
      "name": "borrowGuardianPaused",
      "outputs": [
        {
          "internalType": "bool",
          "name": "",
          "type": "bool"
        }
      ],
      "payable": false,
      "stateMutability": "view",
      "type": "function"
    },
    {
      "constant": false,
      "inputs": [
        {
          "internalType": "address",
          "name": "cToken",
          "type": "address"
        },
        {
          "internalType": "address",
          "name": "borrower",
          "type": "address"
        },
        {
          "internalType": "uint256",
          "name": "borrowAmount",
          "type": "uint256"
        }
      ],
      "name": "borrowVerify",
      "outputs": [],
      "payable": false,
      "stateMutability": "nonpayable",
      "type": "function"
    },
    {
      "constant": true,
      "inputs": [
        {
          "internalType": "address",
          "name": "account",
          "type": "address"
        },
        {
          "internalType": "contract CToken",
          "name": "cToken",
          "type": "address"
        }
      ],
      "name": "checkMembership",
      "outputs": [
        {
          "internalType": "bool",
          "name": "",
          "type": "bool"
        }
      ],
      "payable": false,
      "stateMutability": "view",
      "type": "function"
    },
    {
      "constant": false,
      "inputs": [
        {
          "internalType": "address",
          "name": "holder",
          "type": "address"
        },
        {
          "internalType": "contract CToken[]",
          "name": "cTokens",
          "type": "address[]"
        }
      ],
      "name": "claimComp",
      "outputs": [],
      "payable": false,
      "stateMutability": "nonpayable",
      "type": "function"
    },
    {
      "constant": false,
      "inputs": [
        {
          "internalType": "address[]",
          "name": "holders",
          "type": "address[]"
        },
        {
          "internalType": "contract CToken[]",
          "name": "cTokens",
          "type": "address[]"
        },
        {
          "internalType": "bool",
          "name": "borrowers",
          "type": "bool"
        },
        {
          "internalType": "bool",
          "name": "suppliers",
          "type": "bool"
        }
      ],
      "name": "claimComp",
      "outputs": [],
      "payable": false,
      "stateMutability": "nonpayable",
      "type": "function"
    },
    {
      "constant": false,
      "inputs": [
        {
          "internalType": "address",
          "name": "holder",
          "type": "address"
        }
      ],
      "name": "claimComp",
      "outputs": [],
      "payable": false,
      "stateMutability": "nonpayable",
      "type": "function"
    },
    {
      "constant": true,
      "inputs": [],
      "name": "closeFactorMantissa",
      "outputs": [
        {
          "internalType": "uint256",
          "name": "",
          "type": "uint256"
        }
      ],
      "payable": false,
      "stateMutability": "view",
      "type": "function"
    },
    {
      "constant": true,
      "inputs": [
        {
          "internalType": "address",
          "name": "",
          "type": "address"
        }
      ],
      "name": "compAccrued",
      "outputs": [
        {
          "internalType": "uint256",
          "name": "",
          "type": "uint256"
        }
      ],
      "payable": false,
      "stateMutability": "view",
      "type": "function"
    },
    {
      "constant": true,
      "inputs": [
        {
          "internalType": "address",
          "name": "",
          "type": "address"
        }
      ],
      "name": "compBorrowState",
      "outputs": [
        {
          "internalType": "uint224",
          "name": "index",
          "type": "uint224"
        },
        {
          "internalType": "uint32",
          "name": "block",
          "type": "uint32"
        }
      ],
      "payable": false,
      "stateMutability": "view",
      "type": "function"
    },
    {
      "constant": true,
      "inputs": [
        {
          "internalType": "address",
          "name": "",
          "type": "address"
        },
        {
          "internalType": "address",
          "name": "",
          "type": "address"
        }
      ],
      "name": "compBorrowerIndex",
      "outputs": [
        {
          "internalType": "uint256",
          "name": "",
          "type": "uint256"
        }
      ],
      "payable": false,
      "stateMutability": "view",
      "type": "function"
    },
    {
      "constant": true,
      "inputs": [],
      "name": "compClaimThreshold",
      "outputs": [
        {
          "internalType": "uint256",
          "name": "",
          "type": "uint256"
        }
      ],
      "payable": false,
      "stateMutability": "view",
      "type": "function"
    },
    {
      "constant": true,
      "inputs": [],
      "name": "compInitialIndex",
      "outputs": [
        {
          "internalType": "uint224",
          "name": "",
          "type": "uint224"
        }
      ],
      "payable": false,
      "stateMutability": "view",
      "type": "function"
    },
    {
      "constant": true,
      "inputs": [],
      "name": "compRate",
      "outputs": [
        {
          "internalType": "uint256",
          "name": "",
          "type": "uint256"
        }
      ],
      "payable": false,
      "stateMutability": "view",
      "type": "function"
    },
    {
      "constant": true,
      "inputs": [
        {
          "internalType": "address",
          "name": "",
          "type": "address"
        }
      ],
      "name": "compSpeeds",
      "outputs": [
        {
          "internalType": "uint256",
          "name": "",
          "type": "uint256"
        }
      ],
      "payable": false,
      "stateMutability": "view",
      "type": "function"
    },
    {
      "constant": true,
      "inputs": [
        {
          "internalType": "address",
          "name": "",
          "type": "address"
        },
        {
          "internalType": "address",
          "name": "",
          "type": "address"
        }
      ],
      "name": "compSupplierIndex",
      "outputs": [
        {
          "internalType": "uint256",
          "name": "",
          "type": "uint256"
        }
      ],
      "payable": false,
      "stateMutability": "view",
      "type": "function"
    },
    {
      "constant": true,
      "inputs": [
        {
          "internalType": "address",
          "name": "",
          "type": "address"
        }
      ],
      "name": "compSupplyState",
      "outputs": [
        {
          "internalType": "uint224",
          "name": "index",
          "type": "uint224"
        },
        {
          "internalType": "uint32",
          "name": "block",
          "type": "uint32"
        }
      ],
      "payable": false,
      "stateMutability": "view",
      "type": "function"
    },
    {
      "constant": true,
      "inputs": [],
      "name": "comptrollerImplementation",
      "outputs": [
        {
          "internalType": "address",
          "name": "",
          "type": "address"
        }
      ],
      "payable": false,
      "stateMutability": "view",
      "type": "function"
    },
    {
      "constant": false,
      "inputs": [
        {
          "internalType": "address[]",
          "name": "cTokens",
          "type": "address[]"
        }
      ],
      "name": "enterMarkets",
      "outputs": [
        {
          "internalType": "uint256[]",
          "name": "",
          "type": "uint256[]"
        }
      ],
      "payable": false,
      "stateMutability": "nonpayable",
      "type": "function"
    },
    {
      "constant": false,
      "inputs": [
        {
          "internalType": "address",
          "name": "cTokenAddress",
          "type": "address"
        }
      ],
      "name": "exitMarket",
      "outputs": [
        {
          "internalType": "uint256",
          "name": "",
          "type": "uint256"
        }
      ],
      "payable": false,
      "stateMutability": "nonpayable",
      "type": "function"
    },
    {
      "constant": true,
      "inputs": [
        {
          "internalType": "address",
          "name": "account",
          "type": "address"
        }
      ],
      "name": "getAccountLiquidity",
      "outputs": [
        {
          "internalType": "uint256",
          "name": "",
          "type": "uint256"
        },
        {
          "internalType": "uint256",
          "name": "",
          "type": "uint256"
        },
        {
          "internalType": "uint256",
          "name": "",
          "type": "uint256"
        }
      ],
      "payable": false,
      "stateMutability": "view",
      "type": "function"
    },
    {
      "constant": true,
      "inputs": [],
      "name": "getAllMarkets",
      "outputs": [
        {
          "internalType": "contract CToken[]",
          "name": "",
          "type": "address[]"
        }
      ],
      "payable": false,
      "stateMutability": "view",
      "type": "function"
    },
    {
      "constant": true,
      "inputs": [
        {
          "internalType": "address",
          "name": "account",
          "type": "address"
        }
      ],
      "name": "getAssetsIn",
      "outputs": [
        {
          "internalType": "contract CToken[]",
          "name": "",
          "type": "address[]"
        }
      ],
      "payable": false,
      "stateMutability": "view",
      "type": "function"
    },
    {
      "constant": true,
      "inputs": [
        {
          "internalType": "address",
          "name": "account",
          "type": "address"
        },
        {
          "internalType": "address",
          "name": "cTokenModify",
          "type": "address"
        },
        {
          "internalType": "uint256",
          "name": "redeemTokens",
          "type": "uint256"
        },
        {
          "internalType": "uint256",
          "name": "borrowAmount",
          "type": "uint256"
        }
      ],
      "name": "getHypotheticalAccountLiquidity",
      "outputs": [
        {
          "internalType": "uint256",
          "name": "",
          "type": "uint256"
        },
        {
          "internalType": "uint256",
          "name": "",
          "type": "uint256"
        },
        {
          "internalType": "uint256",
          "name": "",
          "type": "uint256"
        }
      ],
      "payable": false,
      "stateMutability": "view",
      "type": "function"
    },
    {
      "constant": true,
      "inputs": [],
      "name": "isComptroller",
      "outputs": [
        {
          "internalType": "bool",
          "name": "",
          "type": "bool"
        }
      ],
      "payable": false,
      "stateMutability": "view",
      "type": "function"
    },
    {
      "constant": false,
      "inputs": [
        {
          "internalType": "address",
          "name": "cTokenBorrowed",
          "type": "address"
        },
        {
          "internalType": "address",
          "name": "cTokenCollateral",
          "type": "address"
        },
        {
          "internalType": "address",
          "name": "liquidator",
          "type": "address"
        },
        {
          "internalType": "address",
          "name": "borrower",
          "type": "address"
        },
        {
          "internalType": "uint256",
          "name": "repayAmount",
          "type": "uint256"
        }
      ],
      "name": "liquidateBorrowAllowed",
      "outputs": [
        {
          "internalType": "uint256",
          "name": "",
          "type": "uint256"
        }
      ],
      "payable": false,
      "stateMutability": "nonpayable",
      "type": "function"
    },
    {
      "constant": false,
      "inputs": [
        {
          "internalType": "address",
          "name": "cTokenBorrowed",
          "type": "address"
        },
        {
          "internalType": "address",
          "name": "cTokenCollateral",
          "type": "address"
        },
        {
          "internalType": "address",
          "name": "liquidator",
          "type": "address"
        },
        {
          "internalType": "address",
          "name": "borrower",
          "type": "address"
        },
        {
          "internalType": "uint256",
          "name": "actualRepayAmount",
          "type": "uint256"
        },
        {
          "internalType": "uint256",
          "name": "seizeTokens",
          "type": "uint256"
        }
      ],
      "name": "liquidateBorrowVerify",
      "outputs": [],
      "payable": false,
      "stateMutability": "nonpayable",
      "type": "function"
    },
    {
      "constant": true,
      "inputs": [
        {
          "internalType": "address",
          "name": "cTokenBorrowed",
          "type": "address"
        },
        {
          "internalType": "address",
          "name": "cTokenCollateral",
          "type": "address"
        },
        {
          "internalType": "uint256",
          "name": "actualRepayAmount",
          "type": "uint256"
        }
      ],
      "name": "liquidateCalculateSeizeTokens",
      "outputs": [
        {
          "internalType": "uint256",
          "name": "",
          "type": "uint256"
        },
        {
          "internalType": "uint256",
          "name": "",
          "type": "uint256"
        }
      ],
      "payable": false,
      "stateMutability": "view",
      "type": "function"
    },
    {
      "constant": true,
      "inputs": [],
      "name": "liquidationIncentiveMantissa",
      "outputs": [
        {
          "internalType": "uint256",
          "name": "",
          "type": "uint256"
        }
      ],
      "payable": false,
      "stateMutability": "view",
      "type": "function"
    },
    {
      "constant": true,
      "inputs": [
        {
          "internalType": "address",
          "name": "",
          "type": "address"
        }
      ],
      "name": "markets",
      "outputs": [
        {
          "internalType": "bool",
          "name": "isListed",
          "type": "bool"
        },
        {
          "internalType": "uint256",
          "name": "collateralFactorMantissa",
          "type": "uint256"
        },
        {
          "internalType": "bool",
          "name": "isComped",
          "type": "bool"
        }
      ],
      "payable": false,
      "stateMutability": "view",
      "type": "function"
    },
    {
      "constant": true,
      "inputs": [],
      "name": "maxAssets",
      "outputs": [
        {
          "internalType": "uint256",
          "name": "",
          "type": "uint256"
        }
      ],
      "payable": false,
      "stateMutability": "view",
      "type": "function"
    },
    {
      "constant": false,
      "inputs": [
        {
          "internalType": "address",
          "name": "cToken",
          "type": "address"
        },
        {
          "internalType": "address",
          "name": "minter",
          "type": "address"
        },
        {
          "internalType": "uint256",
          "name": "mintAmount",
          "type": "uint256"
        }
      ],
      "name": "mintAllowed",
      "outputs": [
        {
          "internalType": "uint256",
          "name": "",
          "type": "uint256"
        }
      ],
      "payable": false,
      "stateMutability": "nonpayable",
      "type": "function"
    },
    {
      "constant": true,
      "inputs": [
        {
          "internalType": "address",
          "name": "",
          "type": "address"
        }
      ],
      "name": "mintGuardianPaused",
      "outputs": [
        {
          "internalType": "bool",
          "name": "",
          "type": "bool"
        }
      ],
      "payable": false,
      "stateMutability": "view",
      "type": "function"
    },
    {
      "constant": false,
      "inputs": [
        {
          "internalType": "address",
          "name": "cToken",
          "type": "address"
        },
        {
          "internalType": "address",
          "name": "minter",
          "type": "address"
        },
        {
          "internalType": "uint256",
          "name": "actualMintAmount",
          "type": "uint256"
        },
        {
          "internalType": "uint256",
          "name": "mintTokens",
          "type": "uint256"
        }
      ],
      "name": "mintVerify",
      "outputs": [],
      "payable": false,
      "stateMutability": "nonpayable",
      "type": "function"
    },
    {
      "constant": true,
      "inputs": [],
      "name": "oracle",
      "outputs": [
        {
          "internalType": "contract PriceOracle",
          "name": "",
          "type": "address"
        }
      ],
      "payable": false,
      "stateMutability": "view",
      "type": "function"
    },
    {
      "constant": true,
      "inputs": [],
      "name": "pauseGuardian",
      "outputs": [
        {
          "internalType": "address",
          "name": "",
          "type": "address"
        }
      ],
      "payable": false,
      "stateMutability": "view",
      "type": "function"
    },
    {
      "constant": true,
      "inputs": [],
      "name": "pendingAdmin",
      "outputs": [
        {
          "internalType": "address",
          "name": "",
          "type": "address"
        }
      ],
      "payable": false,
      "stateMutability": "view",
      "type": "function"
    },
    {
      "constant": true,
      "inputs": [],
      "name": "pendingComptrollerImplementation",
      "outputs": [
        {
          "internalType": "address",
          "name": "",
          "type": "address"
        }
      ],
      "payable": false,
      "stateMutability": "view",
      "type": "function"
    },
    {
      "constant": false,
      "inputs": [
        {
          "internalType": "address",
          "name": "cToken",
          "type": "address"
        },
        {
          "internalType": "address",
          "name": "redeemer",
          "type": "address"
        },
        {
          "internalType": "uint256",
          "name": "redeemTokens",
          "type": "uint256"
        }
      ],
      "name": "redeemAllowed",
      "outputs": [
        {
          "internalType": "uint256",
          "name": "",
          "type": "uint256"
        }
      ],
      "payable": false,
      "stateMutability": "nonpayable",
      "type": "function"
    },
    {
      "constant": false,
      "inputs": [
        {
          "internalType": "address",
          "name": "cToken",
          "type": "address"
        },
        {
          "internalType": "address",
          "name": "redeemer",
          "type": "address"
        },
        {
          "internalType": "uint256",
          "name": "redeemAmount",
          "type": "uint256"
        },
        {
          "internalType": "uint256",
          "name": "redeemTokens",
          "type": "uint256"
        }
      ],
      "name": "redeemVerify",
      "outputs": [],
      "payable": false,
      "stateMutability": "nonpayable",
      "type": "function"
    },
    {
      "constant": false,
      "inputs": [],
      "name": "refreshCompSpeeds",
      "outputs": [],
      "payable": false,
      "stateMutability": "nonpayable",
      "type": "function"
    },
    {
      "constant": false,
      "inputs": [
        {
          "internalType": "address",
          "name": "cToken",
          "type": "address"
        },
        {
          "internalType": "address",
          "name": "payer",
          "type": "address"
        },
        {
          "internalType": "address",
          "name": "borrower",
          "type": "address"
        },
        {
          "internalType": "uint256",
          "name": "repayAmount",
          "type": "uint256"
        }
      ],
      "name": "repayBorrowAllowed",
      "outputs": [
        {
          "internalType": "uint256",
          "name": "",
          "type": "uint256"
        }
      ],
      "payable": false,
      "stateMutability": "nonpayable",
      "type": "function"
    },
    {
      "constant": false,
      "inputs": [
        {
          "internalType": "address",
          "name": "cToken",
          "type": "address"
        },
        {
          "internalType": "address",
          "name": "payer",
          "type": "address"
        },
        {
          "internalType": "address",
          "name": "borrower",
          "type": "address"
        },
        {
          "internalType": "uint256",
          "name": "actualRepayAmount",
          "type": "uint256"
        },
        {
          "internalType": "uint256",
          "name": "borrowerIndex",
          "type": "uint256"
        }
      ],
      "name": "repayBorrowVerify",
      "outputs": [],
      "payable": false,
      "stateMutability": "nonpayable",
      "type": "function"
    },
    {
      "constant": false,
      "inputs": [
        {
          "internalType": "address",
          "name": "cTokenCollateral",
          "type": "address"
        },
        {
          "internalType": "address",
          "name": "cTokenBorrowed",
          "type": "address"
        },
        {
          "internalType": "address",
          "name": "liquidator",
          "type": "address"
        },
        {
          "internalType": "address",
          "name": "borrower",
          "type": "address"
        },
        {
          "internalType": "uint256",
          "name": "seizeTokens",
          "type": "uint256"
        }
      ],
      "name": "seizeAllowed",
      "outputs": [
        {
          "internalType": "uint256",
          "name": "",
          "type": "uint256"
        }
      ],
      "payable": false,
      "stateMutability": "nonpayable",
      "type": "function"
    },
    {
      "constant": true,
      "inputs": [],
      "name": "seizeGuardianPaused",
      "outputs": [
        {
          "internalType": "bool",
          "name": "",
          "type": "bool"
        }
      ],
      "payable": false,
      "stateMutability": "view",
      "type": "function"
    },
    {
      "constant": false,
      "inputs": [
        {
          "internalType": "address",
          "name": "cTokenCollateral",
          "type": "address"
        },
        {
          "internalType": "address",
          "name": "cTokenBorrowed",
          "type": "address"
        },
        {
          "internalType": "address",
          "name": "liquidator",
          "type": "address"
        },
        {
          "internalType": "address",
          "name": "borrower",
          "type": "address"
        },
        {
          "internalType": "uint256",
          "name": "seizeTokens",
          "type": "uint256"
        }
      ],
      "name": "seizeVerify",
      "outputs": [],
      "payable": false,
      "stateMutability": "nonpayable",
      "type": "function"
    },
    {
      "constant": false,
      "inputs": [
        {
          "internalType": "address",
          "name": "cToken",
          "type": "address"
        },
        {
          "internalType": "address",
          "name": "src",
          "type": "address"
        },
        {
          "internalType": "address",
          "name": "dst",
          "type": "address"
        },
        {
          "internalType": "uint256",
          "name": "transferTokens",
          "type": "uint256"
        }
      ],
      "name": "transferAllowed",
      "outputs": [
        {
          "internalType": "uint256",
          "name": "",
          "type": "uint256"
        }
      ],
      "payable": false,
      "stateMutability": "nonpayable",
      "type": "function"
    },
    {
      "constant": true,
      "inputs": [],
      "name": "transferGuardianPaused",
      "outputs": [
        {
          "internalType": "bool",
          "name": "",
          "type": "bool"
        }
      ],
      "payable": false,
      "stateMutability": "view",
      "type": "function"
    },
    {
      "constant": false,
      "inputs": [
        {
          "internalType": "address",
          "name": "cToken",
          "type": "address"
        },
        {
          "internalType": "address",
          "name": "src",
          "type": "address"
        },
        {
          "internalType": "address",
          "name": "dst",
          "type": "address"
        },
        {
          "internalType": "uint256",
          "name": "transferTokens",
          "type": "uint256"
        }
      ],
      "name": "transferVerify",
      "outputs": [],
      "payable": false,
      "stateMutability": "nonpayable",
      "type": "function"
    },
    {
      "constant": false,
      "inputs": [
        {
          "internalType": "address",
          "name": "harnessedPauseGuardian",
          "type": "address"
        }
      ],
      "name": "setPauseGuardian",
      "outputs": [],
      "payable": false,
      "stateMutability": "nonpayable",
      "type": "function"
    },
    {
      "constant": false,
      "inputs": [
        {
          "internalType": "address",
          "name": "cToken",
          "type": "address"
        },
        {
          "internalType": "uint224",
          "name": "index",
          "type": "uint224"
        },
        {
          "internalType": "uint32",
          "name": "blockNumber_",
          "type": "uint32"
        }
      ],
      "name": "setCompSupplyState",
      "outputs": [],
      "payable": false,
      "stateMutability": "nonpayable",
      "type": "function"
    },
    {
      "constant": false,
      "inputs": [
        {
          "internalType": "address",
          "name": "cToken",
          "type": "address"
        },
        {
          "internalType": "uint224",
          "name": "index",
          "type": "uint224"
        },
        {
          "internalType": "uint32",
          "name": "blockNumber_",
          "type": "uint32"
        }
      ],
      "name": "setCompBorrowState",
      "outputs": [],
      "payable": false,
      "stateMutability": "nonpayable",
      "type": "function"
    },
    {
      "constant": false,
      "inputs": [
        {
          "internalType": "address",
          "name": "user",
          "type": "address"
        },
        {
          "internalType": "uint256",
          "name": "userAccrued",
          "type": "uint256"
        }
      ],
      "name": "setCompAccrued",
      "outputs": [],
      "payable": false,
      "stateMutability": "nonpayable",
      "type": "function"
    },
    {
      "constant": false,
      "inputs": [
        {
          "internalType": "address",
          "name": "compAddress_",
          "type": "address"
        }
      ],
      "name": "setCompAddress",
      "outputs": [],
      "payable": false,
      "stateMutability": "nonpayable",
      "type": "function"
    },
    {
      "constant": true,
      "inputs": [],
      "name": "getCompAddress",
      "outputs": [
        {
          "internalType": "address",
          "name": "",
          "type": "address"
        }
      ],
      "payable": false,
      "stateMutability": "view",
      "type": "function"
    },
    {
      "constant": false,
      "inputs": [
        {
          "internalType": "address",
          "name": "cToken",
          "type": "address"
        },
        {
          "internalType": "uint256",
          "name": "compSpeed",
          "type": "uint256"
        }
      ],
      "name": "setCompSpeed",
      "outputs": [],
      "payable": false,
      "stateMutability": "nonpayable",
      "type": "function"
    },
    {
      "constant": false,
      "inputs": [
        {
          "internalType": "address",
          "name": "cToken",
          "type": "address"
        },
        {
          "internalType": "address",
          "name": "borrower",
          "type": "address"
        },
        {
          "internalType": "uint256",
          "name": "index",
          "type": "uint256"
        }
      ],
      "name": "setCompBorrowerIndex",
      "outputs": [],
      "payable": false,
      "stateMutability": "nonpayable",
      "type": "function"
    },
    {
      "constant": false,
      "inputs": [
        {
          "internalType": "address",
          "name": "cToken",
          "type": "address"
        },
        {
          "internalType": "address",
          "name": "supplier",
          "type": "address"
        },
        {
          "internalType": "uint256",
          "name": "index",
          "type": "uint256"
        }
      ],
      "name": "setCompSupplierIndex",
      "outputs": [],
      "payable": false,
      "stateMutability": "nonpayable",
      "type": "function"
    },
    {
      "constant": false,
      "inputs": [
        {
          "internalType": "address",
          "name": "cToken",
          "type": "address"
        },
        {
          "internalType": "uint256",
          "name": "marketBorrowIndexMantissa",
          "type": "uint256"
        }
      ],
      "name": "harnessUpdateCompBorrowIndex",
      "outputs": [],
      "payable": false,
      "stateMutability": "nonpayable",
      "type": "function"
    },
    {
      "constant": false,
      "inputs": [
        {
          "internalType": "address",
          "name": "cToken",
          "type": "address"
        }
      ],
      "name": "harnessUpdateCompSupplyIndex",
      "outputs": [],
      "payable": false,
      "stateMutability": "nonpayable",
      "type": "function"
    },
    {
      "constant": false,
      "inputs": [
        {
          "internalType": "address",
          "name": "cToken",
          "type": "address"
        },
        {
          "internalType": "address",
          "name": "borrower",
          "type": "address"
        },
        {
          "internalType": "uint256",
          "name": "marketBorrowIndexMantissa",
          "type": "uint256"
        }
      ],
      "name": "harnessDistributeBorrowerComp",
      "outputs": [],
      "payable": false,
      "stateMutability": "nonpayable",
      "type": "function"
    },
    {
      "constant": false,
      "inputs": [
        {
          "internalType": "address",
          "name": "cToken",
          "type": "address"
        },
        {
          "internalType": "address",
          "name": "supplier",
          "type": "address"
        }
      ],
      "name": "harnessDistributeSupplierComp",
      "outputs": [],
      "payable": false,
      "stateMutability": "nonpayable",
      "type": "function"
    },
    {
      "constant": false,
      "inputs": [
        {
          "internalType": "address",
          "name": "user",
          "type": "address"
        },
        {
          "internalType": "uint256",
          "name": "userAccrued",
          "type": "uint256"
        },
        {
          "internalType": "uint256",
          "name": "threshold",
          "type": "uint256"
        }
      ],
      "name": "harnessTransferComp",
      "outputs": [
        {
          "internalType": "uint256",
          "name": "",
          "type": "uint256"
        }
      ],
      "payable": false,
      "stateMutability": "nonpayable",
      "type": "function"
    },
    {
      "constant": false,
      "inputs": [
        {
          "internalType": "uint256",
          "name": "blocks",
          "type": "uint256"
        }
      ],
      "name": "harnessFastForward",
      "outputs": [
        {
          "internalType": "uint256",
          "name": "",
          "type": "uint256"
        }
      ],
      "payable": false,
      "stateMutability": "nonpayable",
      "type": "function"
    },
    {
      "constant": false,
      "inputs": [
        {
          "internalType": "uint256",
          "name": "number",
          "type": "uint256"
        }
      ],
      "name": "setBlockNumber",
      "outputs": [],
      "payable": false,
      "stateMutability": "nonpayable",
      "type": "function"
    },
    {
      "constant": true,
      "inputs": [],
      "name": "getBlockNumber",
      "outputs": [
        {
          "internalType": "uint256",
          "name": "",
          "type": "uint256"
        }
      ],
      "payable": false,
      "stateMutability": "view",
      "type": "function"
    },
    {
      "constant": true,
      "inputs": [],
      "name": "getCompMarkets",
      "outputs": [
        {
          "internalType": "address[]",
          "name": "",
          "type": "address[]"
        }
      ],
      "payable": false,
      "stateMutability": "view",
      "type": "function"
    }
  ],
  "bytecode": "0x608060405234801561001057600080fd5b50600080546001600160a01b0319163317905561653580620000336000396000f3fe608060405234801561001057600080fd5b50600436106104e25760003560e01c80637da5bd501161028e578063bb82aa5e11610167578063dce15449116100d9578063e875544611610092578063e87554461461165a578063e940a7e214611662578063e9af029214611698578063eabe7d91146116be578063ede4edd0146116f4578063f851a4401461171a576104e2565b8063dce154491461159a578063dcfbc0c7146115c6578063e104770b146115ce578063e4028eee146115fa578063e6653f3d14611626578063e6d8c2521461162e576104e2565b8063cc7ebdc41161012b578063cc7ebdc414611408578063ce485c5e1461142e578063d02f7351146114cf578063d4d73a1014611515578063d9226ced14611547578063da3d454c14611564576104e2565b8063bb82aa5e146112a6578063bdcdc258146112ae578063c2998238146112ea578063c488847b1461138b578063ca0af043146113da576104e2565b80639d1b5a0a11610200578063aa900754116101c4578063aa900754146111e2578063abfceffc146111ea578063ac0b0bb714611260578063aee260b414611268578063b0772d0b14611270578063b21be7fd14611278576104e2565b80639d1b5a0a14611132578063a76b3fda1461113a578063a7f0e23114611160578063a8c3c85014611184578063a95c40a6146111a1576104e2565b80638e8f294b116102525780638e8f294b14610f315780638ebf636414610f79578063929fe9a114610f9857806394b2294b14610fc6578063992c529414610fce5780639c52fea714611106576104e2565b80637da5bd5014610ea75780637dc0d1d014610ed5578063858aa5e514610edd57806387f7630314610f035780638c57804e14610f0b576104e2565b80634d8e5037116103c05780635ef1319b116103325780636a56947e116102f65780636a56947e14610d835780636b79c38d14610dbf5780636d154ea514610e0d5780636d35bf9114610e33578063731f0c2b14610e79578063747026c914610e9f576104e2565b80635ef1319b14610b985780635f5af1aa14610bce5780635fc7e71e14610bf45780636810dfa614610c3a5780636a49111214610d66576104e2565b806351dff9891161038457806351dff98914610ab557806352d84d1e14610af157806355ee1fe114610b0e57806357e871e714610b345780635c77860514610b3c5780635ec88c7914610b72576104e2565b80634d8e5037146109da5780634e79238f146109e25780634ef4c3e114610a3c5780634fd42e1714610a725780635164e07314610a8f576104e2565b80632d70db78116104595780633c94786f1161041d5780633c94786f1461091457806341c728b91461091c57806342cbb15c1461095857806347ef3b3b1461096057806348bde20c146109ac5780634ada90af146109d2576104e2565b80632d70db781461084e578063317b0b771461086d57806332f68d6d1461088a5780633aa729b4146108c05780633bcf7ec1146108e6576104e2565b806320216323116104ab578063202163231461065e5780632327c7df1461069f57806324008a62146107c9578063246acab11461080557806324a3d622146108225780632678224714610846576104e2565b80627e3dd2146104e757806318c882a5146105035780631c3db2e0146105315780631d7b33d7146105e45780631ededc911461061c575b600080fd5b6104ef611722565b604080519115158252519081900360200190f35b6104ef6004803603604081101561051957600080fd5b506001600160a01b0381351690602001351515611727565b6105e26004803603604081101561054757600080fd5b6001600160a01b038235169190810190604081016020820135600160201b81111561057157600080fd5b82018360208201111561058357600080fd5b803590602001918460208302840111600160201b831117156105a457600080fd5b9190808060200260200160405190810160405280939291908181526020018383602002808284376000920191909152509295506118c7945050505050565b005b61060a600480360360208110156105fa57600080fd5b50356001600160a01b0316611929565b60408051918252519081900360200190f35b6105e2600480360360a081101561063257600080fd5b506001600160a01b0381358116916020810135821691604082013516906060810135906080013561193b565b6105e26004803603606081101561067457600080fd5b5080356001600160a01b03169060208101356001600160e01b0316906040013563ffffffff16611942565b6105e2600480360360608110156106b557600080fd5b81359190810190604081016020820135600160201b8111156106d657600080fd5b8201836020820111156106e857600080fd5b803590602001918460208302840111600160201b8311171561070957600080fd5b9190808060200260200160405190810160405280939291908181526020018383602002808284376000920191909152509295949360208101935035915050600160201b81111561075857600080fd5b82018360208201111561076a57600080fd5b803590602001918460208302840111600160201b8311171561078b57600080fd5b919080806020026020016040519081016040528093929190818152602001838360200280828437600092019190915250929550611990945050505050565b61060a600480360360808110156107df57600080fd5b506001600160a01b03813581169160208101358216916040820135169060600135611a56565b61060a6004803603602081101561081b57600080fd5b5035611b1f565b61082a611b2f565b604080516001600160a01b039092168252519081900360200190f35b61082a611b3e565b6104ef6004803603602081101561086457600080fd5b50351515611b4d565b61060a6004803603602081101561088357600080fd5b5035611c83565b6105e2600480360360608110156108a057600080fd5b506001600160a01b03813581169160208101359091169060400135611d94565b6105e2600480360360208110156108d657600080fd5b50356001600160a01b0316611dc0565b6104ef600480360360408110156108fc57600080fd5b506001600160a01b0381351690602001351515611ef1565b6104ef61208c565b6105e26004803603608081101561093257600080fd5b506001600160a01b0381358116916020810135909116906040810135906060013561209c565b61060a6120a2565b6105e2600480360360c081101561097657600080fd5b506001600160a01b0381358116916020810135821691604082013581169160608101359091169060808101359060a001356120a9565b6105e2600480360360208110156109c257600080fd5b50356001600160a01b03166120b1565b61060a6120d3565b6105e26120d9565b610a1e600480360360808110156109f857600080fd5b506001600160a01b0381358116916020810135909116906040810135906060013561252b565b60408051938452602084019290925282820152519081900360600190f35b61060a60048036036060811015610a5257600080fd5b506001600160a01b03813581169160208101359091169060400135612565565b61060a60048036036020811015610a8857600080fd5b5035612610565b6105e260048036036020811015610aa557600080fd5b50356001600160a01b0316612704565b6105e260048036036080811015610acb57600080fd5b506001600160a01b03813581169160208101359091169060408101359060600135612710565b61082a60048036036020811015610b0757600080fd5b5035612764565b61060a60048036036020811015610b2457600080fd5b50356001600160a01b031661278b565b61060a612812565b6105e260048036036060811015610b5257600080fd5b506001600160a01b03813581169160208101359091169060400135612818565b610a1e60048036036020811015610b8857600080fd5b50356001600160a01b031661281d565b6105e260048036036060811015610bae57600080fd5b506001600160a01b03813581169160208101359091169060400135612852565b61060a60048036036020811015610be457600080fd5b50356001600160a01b031661286d565b61060a600480360360a0811015610c0a57600080fd5b506001600160a01b03813581169160208101358216916040820135811691606081013590911690608001356128f1565b6105e260048036036080811015610c5057600080fd5b810190602081018135600160201b811115610c6a57600080fd5b820183602082011115610c7c57600080fd5b803590602001918460208302840111600160201b83111715610c9d57600080fd5b9190808060200260200160405190810160405280939291908181526020018383602002808284376000920191909152509295949360208101935035915050600160201b811115610cec57600080fd5b820183602082011115610cfe57600080fd5b803590602001918460208302840111600160201b83111715610d1f57600080fd5b919080806020026020016040519081016040528093929190818152602001838360200280828437600092019190915250929550505050803515159150602001351515612a78565b6105e260048036036020811015610d7c57600080fd5b5035612c21565b6105e260048036036080811015610d9957600080fd5b506001600160a01b0381358116916020810135821691604082013516906060013561209c565b610de560048036036020811015610dd557600080fd5b50356001600160a01b0316612cc5565b604080516001600160e01b03909316835263ffffffff90911660208301528051918290030190f35b6104ef60048036036020811015610e2357600080fd5b50356001600160a01b0316612cef565b6105e2600480360360a0811015610e4957600080fd5b506001600160a01b038135811691602081013582169160408201358116916060810135909116906080013561193b565b6104ef60048036036020811015610e8f57600080fd5b50356001600160a01b0316612d04565b61060a612d19565b6105e260048036036040811015610ebd57600080fd5b506001600160a01b0381358116916020013516612d24565b61082a612d30565b6105e260048036036020811015610ef357600080fd5b50356001600160a01b0316612d3f565b6104ef612d61565b610de560048036036020811015610f2157600080fd5b50356001600160a01b0316612d71565b610f5760048036036020811015610f4757600080fd5b50356001600160a01b0316612d9b565b6040805193151584526020840192909252151582820152519081900360600190f35b6104ef60048036036020811015610f8f57600080fd5b50351515612dc1565b6104ef60048036036040811015610fae57600080fd5b506001600160a01b0381358116916020013516612efa565b61060a612f2d565b6105e260048036036080811015610fe457600080fd5b6001600160a01b0382351691602081013591810190606081016040820135600160201b81111561101357600080fd5b82018360208201111561102557600080fd5b803590602001918460208302840111600160201b8311171561104657600080fd5b9190808060200260200160405190810160405280939291908181526020018383602002808284376000920191909152509295949360208101935035915050600160201b81111561109557600080fd5b8201836020820111156110a757600080fd5b803590602001918460208302840111600160201b831117156110c857600080fd5b919080806020026020016040519081016040528093929190818152602001838360200280828437600092019190915250929550612f33945050505050565b6105e26004803603604081101561111c57600080fd5b506001600160a01b03813516906020013561317f565b61082a61319b565b61060a6004803603602081101561115057600080fd5b50356001600160a01b03166131aa565b611168613307565b604080516001600160e01b039092168252519081900360200190f35b6105e26004803603602081101561119a57600080fd5b503561331a565b6105e2600480360360608110156111b757600080fd5b5080356001600160a01b03169060208101356001600160e01b0316906040013563ffffffff1661331f565b61060a61336d565b6112106004803603602081101561120057600080fd5b50356001600160a01b0316613373565b60408051602080825283518183015283519192839290830191858101910280838360005b8381101561124c578181015183820152602001611234565b505050509050019250505060405180910390f35b6104ef6133fc565b61121061340c565b611210613554565b61060a6004803603604081101561128e57600080fd5b506001600160a01b03813581169160200135166135b6565b61082a6135d3565b61060a600480360360808110156112c457600080fd5b506001600160a01b038135811691602081013582169160408201351690606001356135e2565b6112106004803603602081101561130057600080fd5b810190602081018135600160201b81111561131a57600080fd5b82018360208201111561132c57600080fd5b803590602001918460208302840111600160201b8311171561134d57600080fd5b919080806020026020016040519081016040528093929190818152602001838360200280828437600092019190915250929550613676945050505050565b6113c1600480360360608110156113a157600080fd5b506001600160a01b0381358116916020810135909116906040013561370d565b6040805192835260208301919091528051918290030190f35b61060a600480360360408110156113f057600080fd5b506001600160a01b0381358116916020013516613982565b61060a6004803603602081101561141e57600080fd5b50356001600160a01b031661399f565b6105e26004803603602081101561144457600080fd5b810190602081018135600160201b81111561145e57600080fd5b82018360208201111561147057600080fd5b803590602001918460208302840111600160201b8311171561149157600080fd5b9190808060200260200160405190810160405280939291908181526020018383602002808284376000920191909152509295506139b1945050505050565b61060a600480360360a08110156114e557600080fd5b506001600160a01b0381358116916020810135821691604082013581169160608101359091169060800135613a43565b61060a6004803603606081101561152b57600080fd5b506001600160a01b038135169060208101359060400135613bfb565b61060a6004803603602081101561155d57600080fd5b5035613c08565b61060a6004803603606081101561157a57600080fd5b506001600160a01b03813581169160208101359091169060400135613c71565b61082a600480360360408110156115b057600080fd5b506001600160a01b038135169060200135613f5e565b61082a613f93565b6105e2600480360360408110156115e457600080fd5b506001600160a01b038135169060200135613fa2565b61060a6004803603604081101561161057600080fd5b506001600160a01b038135169060200135613fba565b6104ef61416a565b6105e26004803603604081101561164457600080fd5b506001600160a01b03813516906020013561417a565b61060a614196565b6105e26004803603606081101561167857600080fd5b506001600160a01b0381358116916020810135909116906040013561419c565b6105e2600480360360208110156116ae57600080fd5b50356001600160a01b03166141c8565b61060a600480360360608110156116d457600080fd5b506001600160a01b0381358116916020810135909116906040013561422c565b61060a6004803603602081101561170a57600080fd5b50356001600160a01b0316614269565b61082a61457c565b600181565b6001600160a01b03821660009081526009602052604081205460ff1661177e5760405162461bcd60e51b81526004018080602001828103825260288152602001806164466028913960400191505060405180910390fd5b600a546001600160a01b03163314806117a157506000546001600160a01b031633145b6117dc5760405162461bcd60e51b815260040180806020018281038252602781526020018061646e6027913960400191505060405180910390fd5b6000546001600160a01b03163314806117f757506001821515145b611841576040805162461bcd60e51b81526020600482015260166024820152756f6e6c792061646d696e2063616e20756e706175736560501b604482015290519081900360640190fd5b6001600160a01b0383166000818152600c6020908152604091829020805486151560ff199091168117909155825193845283830152606090830181905260069083015265426f72726f7760d01b6080830152517f71aec636243f9709bb0007ae15e9afb8150ab01716d75fd7573be5cc096e03b09181900360a00190a150805b92915050565b6040805160018082528183019092526060916020808301908038833901905050905082816000815181106118f757fe5b60200260200101906001600160a01b031690816001600160a01b0316815250506119248183600180612a78565b505050565b600f6020526000908152604090205481565b5050505050565b6001600160a01b0392909216600090815260116020526040902080546001600160e01b0319166001600160e01b0392831617909116600160e01b63ffffffff90931692909202919091179055565b6002546001600160a01b031633146119ef576040805162461bcd60e51b815260206004820152601d60248201527f6f6e6c7920627261696e732063616e206265636f6d6520697473656c66000000604482015290519081900360640190fd5b60005b8251811015611a1f57611a17838281518110611a0a57fe5b602002602001015161458b565b6001016119f2565b5060005b8151811015611a4357611a3b828281518110611a0a57fe5b600101611a23565b50611a4d83612c21565b611924826139b1565b6001600160a01b03841660009081526009602052604081205460ff16611a7e57506009611b17565b611a86616386565b6040518060200160405280876001600160a01b031663aa5af0fd6040518163ffffffff1660e01b815260040160206040518083038186803b158015611aca57600080fd5b505afa158015611ade573d6000803e3d6000fd5b505050506040513d6020811015611af457600080fd5b505190529050611b048682614669565b611b1186858360006148f1565b60009150505b949350505050565b601680548201908190555b919050565b600a546001600160a01b031681565b6001546001600160a01b031681565b600a546000906001600160a01b0316331480611b7357506000546001600160a01b031633145b611bae5760405162461bcd60e51b815260040180806020018281038252602781526020018061646e6027913960400191505060405180910390fd5b6000546001600160a01b0316331480611bc957506001821515145b611c13576040805162461bcd60e51b81526020600482015260166024820152756f6e6c792061646d696e2063616e20756e706175736560501b604482015290519081900360640190fd5b600a8054831515600160b81b810260ff60b81b1990921691909117909155604080516020810192909252808252600582820152645365697a6560d81b6060830152517fef159d9a32b2472e32b098f954f3ce62d232939f1c207070b584df1814de2de09181900360800190a15090565b600080546001600160a01b03163314611ca957611ca260016004614adc565b9050611b2a565b611cb1616386565b506040805160208101909152828152611cc8616386565b50604080516020810190915266b1a2bc2ec500008152611ce88282614b42565b15611d0157611cf8600580614adc565b92505050611b2a565b611d09616386565b506040805160208101909152670c7d713b49da00008152611d2a8184614b4a565b15611d4457611d3a600580614adc565b9350505050611b2a565b6005805490869055604080518281526020810188905281517f3b9670cf975d26958e754b57098eaa2ac914d8d2a31b83257997b9f346110fd9929181900390910190a160005b9695505050505050565b6001600160a01b0392831660009081526013602090815260408083209490951682529290925291902055565b6000546001600160a01b03163314611e1f576040805162461bcd60e51b815260206004820152601f60248201527f6f6e6c792061646d696e2063616e2064726f7020636f6d70206d61726b657400604482015290519081900360640190fd5b6001600160a01b0381166000908152600960205260409020600381015460ff161515600114611e95576040805162461bcd60e51b815260206004820152601b60248201527f6d61726b6574206973206e6f74206120636f6d70206d61726b65740000000000604482015290519081900360640190fd5b60038101805460ff19169055604080516001600160a01b03841681526000602082015281517f93c1f3e36ed71139f466a4ce8c9751790e2e33f5afb2df0dcfb3aeabe55d5aa2929181900390910190a1611eed6120d9565b5050565b6001600160a01b03821660009081526009602052604081205460ff16611f485760405162461bcd60e51b81526004018080602001828103825260288152602001806164466028913960400191505060405180910390fd5b600a546001600160a01b0316331480611f6b57506000546001600160a01b031633145b611fa65760405162461bcd60e51b815260040180806020018281038252602781526020018061646e6027913960400191505060405180910390fd5b6000546001600160a01b0316331480611fc157506001821515145b61200b576040805162461bcd60e51b81526020600482015260166024820152756f6e6c792061646d696e2063616e20756e706175736560501b604482015290519081900360640190fd5b6001600160a01b0383166000818152600b6020908152604091829020805486151560ff199091168117909155825193845283830152606090830181905260049083015263135a5b9d60e21b6080830152517f71aec636243f9709bb0007ae15e9afb8150ab01716d75fd7573be5cc096e03b09181900360a00190a150919050565b600a54600160a01b900460ff1681565b50505050565b6016545b90565b505050505050565b600a80546001600160a01b0319166001600160a01b0392909216919091179055565b60065481565b6060600d80548060200260200160405190810160405280929190818152602001828054801561213157602002820191906000526020600020905b81546001600160a01b03168152600190910190602001808311612113575b50939450600093505050505b81518110156121f757600082828151811061215457fe5b60200260200101519050612166616386565b6040518060200160405280836001600160a01b031663aa5af0fd6040518163ffffffff1660e01b815260040160206040518083038186803b1580156121aa57600080fd5b505afa1580156121be573d6000803e3d6000fd5b505050506040513d60208110156121d457600080fd5b5051905290506121e382614b51565b6121ed8282614669565b505060010161213d565b50612200616386565b6040518060200160405280600081525090506060825160405190808252806020026020018201604052801561224f57816020015b61223c616386565b8152602001906001900390816122345790505b50905060005b835181101561246257600084828151811061226c57fe5b6020908102919091018101516001600160a01b0381166000908152600990925260409091206003015490915060ff1615612459576122a8616386565b60408051602080820180845260045463fc57d4df60e01b9091526001600160a01b03868116602485015293519293849391169163fc57d4df916044808601929190818703018186803b1580156122fd57600080fd5b505afa158015612311573d6000803e3d6000fd5b505050506040513d602081101561232757600080fd5b505190529050612335616386565b61241b6040518060200160405280856001600160a01b031663f8f9da286040518163ffffffff1660e01b815260040160206040518083038186803b15801561237c57600080fd5b505afa158015612390573d6000803e3d6000fd5b505050506040513d60208110156123a657600080fd5b50519052604080516308f7a6e360e31b815290516001600160a01b038716916347bd3718916004808301926020929190829003018186803b1580156123ea57600080fd5b505afa1580156123fe573d6000803e3d6000fd5b505050506040513d602081101561241457600080fd5b5051614dcf565b9050612425616386565b61242f8284614df9565b90508086868151811061243e57fe5b60200260200101819052506124538782614e38565b96505050505b50600101612255565b5060005b835181101561209c576000600d828154811061247e57fe5b600091825260208220015485516001600160a01b0390911692506124a35760006124cb565b6124cb600e546124c68686815181106124b857fe5b602002602001015188614e5d565b614e90565b6001600160a01b0383166000818152600f60209081526040918290208490558151848152915193945091927f2ab93f65628379309f36cb125e90d7c902454a545c4f8b8cb0794af75c24b807929181900390910190a25050600101612466565b6000806000806000806125408a8a8a8a614eb8565b92509250925082601181111561255257fe5b95509093509150505b9450945094915050565b6001600160a01b0383166000908152600b602052604081205460ff16156125c4576040805162461bcd60e51b815260206004820152600e60248201526d1b5a5b9d081a5cc81c185d5cd95960921b604482015290519081900360640190fd5b6001600160a01b03841660009081526009602052604090205460ff166125ee5760095b9050612609565b6125f784614b51565b612603848460006152d3565b60005b90505b9392505050565b600080546001600160a01b0316331461262f57611ca26001600b614adc565b612637616386565b50604080516020810190915282815261264e616386565b506040805160208101909152670de0b6b3a7640000815261266f8282614b4a565b1561268057611cf86007600c614adc565b612688616386565b5060408051602081019091526714d1120d7b16000081526126a98184614b4a565b156126ba57611d3a6007600c614adc565b6006805490869055604080518281526020810188905281517faeba5a6c40a8ac138134bff1aaa65debf25971188a58804bad717f82f0ec1316929181900390910190a16000611d8a565b61270d81614b51565b50565b8015801561271e5750600082115b1561209c576040805162461bcd60e51b815260206004820152601160248201527072656465656d546f6b656e73207a65726f60781b604482015290519081900360640190fd5b600d818154811061277157fe5b6000918252602090912001546001600160a01b0316905081565b600080546001600160a01b031633146127aa57611ca260016010614adc565b600480546001600160a01b038481166001600160a01b0319831681179093556040805191909216808252602082019390935281517fd52b2b9b7e9ee655fcb95d2e5b9e0c9f69e7ef2b8e9d2d0ea78402d576d22e22929181900390910190a160009392505050565b60165481565b611924565b600080600080600080612834876000806000614eb8565b92509250925082601181111561284657fe5b97919650945092505050565b611924838360405180602001604052808581525060006148f1565b600080546001600160a01b0316331461288c57611ca260016013614adc565b600a80546001600160a01b038481166001600160a01b0319831617928390556040805192821680845293909116602083015280517f0613b6ee6a04f0d09f390e4d9318894b9f6ac7fd83897cd8d18896ba579c401e9281900390910190a16000612609565b6001600160a01b03851660009081526009602052604081205460ff16158061293257506001600160a01b03851660009081526009602052604090205460ff16155b156129415760095b9050612a6f565b60008061294d856154cb565b9193509091506000905082601181111561296357fe5b1461297d5781601181111561297457fe5b92505050612a6f565b80612989576003612974565b6000886001600160a01b03166395dd9193876040518263ffffffff1660e01b815260040180826001600160a01b03166001600160a01b0316815260200191505060206040518083038186803b1580156129e157600080fd5b505afa1580156129f5573d6000803e3d6000fd5b505050506040513d6020811015612a0b57600080fd5b5051604080516020810190915260055481529091506000908190612a2f90846154eb565b90925090506000826003811115612a4257fe5b14612a5657600b5b95505050505050612a6f565b80871115612a65576011612a4a565b6000955050505050505b95945050505050565b60005b835181101561193b576000848281518110612a9257fe5b6020908102919091018101516001600160a01b0381166000908152600990925260409091205490915060ff16612b07576040805162461bcd60e51b81526020600482015260156024820152741b585c9ad95d081b5d5cdd081899481b1a5cdd1959605a1b604482015290519081900360640190fd5b60018415151415612bcf57612b1a616386565b6040518060200160405280836001600160a01b031663aa5af0fd6040518163ffffffff1660e01b815260040160206040518083038186803b158015612b5e57600080fd5b505afa158015612b72573d6000803e3d6000fd5b505050506040513d6020811015612b8857600080fd5b505190529050612b988282614669565b60005b8751811015612bcc57612bc483898381518110612bb457fe5b60200260200101518460016148f1565b600101612b9b565b50505b60018315151415612c1857612be381614b51565b60005b8651811015612c1657612c0e82888381518110612bff57fe5b602002602001015160016152d3565b600101612be6565b505b50600101612a7b565b612c2961553f565b612c7a576040805162461bcd60e51b815260206004820152601f60248201527f6f6e6c792061646d696e2063616e206368616e676520636f6d70207261746500604482015290519081900360640190fd5b600e805490829055604080518281526020810184905281517fc227c9272633c3a307d9845bf2bc2509cefb20d655b5f3c1002d8e1e3f22c8b0929181900390910190a1611eed6120d9565b6010602052600090815260409020546001600160e01b03811690600160e01b900463ffffffff1682565b600c6020526000908152604090205460ff1681565b600b6020526000908152604090205460ff1681565b66038d7ea4c6800081565b611eed828260006152d3565b6004546001600160a01b031681565b601580546001600160a01b0319166001600160a01b0392909216919091179055565b600a54600160b01b900460ff1681565b6011602052600090815260409020546001600160e01b03811690600160e01b900463ffffffff1682565b60096020526000908152604090208054600182015460039092015460ff91821692911683565b600a546000906001600160a01b0316331480612de757506000546001600160a01b031633145b612e225760405162461bcd60e51b815260040180806020018281038252602781526020018061646e6027913960400191505060405180910390fd5b6000546001600160a01b0316331480612e3d57506001821515145b612e87576040805162461bcd60e51b81526020600482015260166024820152756f6e6c792061646d696e2063616e20756e706175736560501b604482015290519081900360640190fd5b600a8054831515600160b01b810260ff60b01b1990921691909117909155604080516020810192909252808252600882820152672a3930b739b332b960c11b6060830152517fef159d9a32b2472e32b098f954f3ce62d232939f1c207070b584df1814de2de09181900360800190a15090565b6001600160a01b038082166000908152600960209081526040808320938616835260029093019052205460ff1692915050565b60075481565b836001600160a01b031663f851a4406040518163ffffffff1660e01b815260040160206040518083038186803b158015612f6c57600080fd5b505afa158015612f80573d6000803e3d6000fd5b505050506040513d6020811015612f9657600080fd5b50516001600160a01b03163314612fde5760405162461bcd60e51b81526004018080602001828103825260278152602001806164da6027913960400191505060405180910390fd5b836001600160a01b031663c1e803346040518163ffffffff1660e01b8152600401602060405180830381600087803b15801561301957600080fd5b505af115801561302d573d6000803e3d6000fd5b505050506040513d602081101561304357600080fd5b50511561308f576040805162461bcd60e51b815260206004820152601560248201527418da185b99d9481b9bdd08185d5d1a1bdc9a5e9959605a1b604482015290519081900360640190fd5b836001600160a01b0316632327c7df8484846040518463ffffffff1660e01b8152600401808481526020018060200180602001838103835285818151815260200191508051906020019060200280838360005b838110156130fa5781810151838201526020016130e2565b50505050905001838103825284818151815260200191508051906020019060200280838360005b83811015613139578181015183820152602001613121565b5050505090500195505050505050600060405180830381600087803b15801561316157600080fd5b505af1158015613175573d6000803e3d6000fd5b5050505050505050565b6001600160a01b03909116600090815260146020526040902055565b6015546001600160a01b031690565b600080546001600160a01b031633146131c957611ca260016012614adc565b6001600160a01b03821660009081526009602052604090205460ff16156131f657611ca2600a6011614adc565b816001600160a01b031663fe9c44ae6040518163ffffffff1660e01b815260040160206040518083038186803b15801561322f57600080fd5b505afa158015613243573d6000803e3d6000fd5b505050506040513d602081101561325957600080fd5b5050604080516060810182526001808252600060208381018281528486018381526001600160a01b03891684526009909252949091209251835490151560ff199182161784559351918301919091555160039091018054911515919092161790556132c38261458b565b604080516001600160a01b038416815290517fcf583bb0c569eb967f806b11601c4cb93c10310485c67add5f8362c2f212321f9181900360200190a1600092915050565b6ec097ce7bc90715b34b9f100000000081565b601655565b6001600160a01b0392909216600090815260106020526040902080546001600160e01b0319166001600160e01b0392831617909116600160e01b63ffffffff90931692909202919091179055565b600e5481565b60608060086000846001600160a01b03166001600160a01b031681526020019081526020016000208054806020026020016040519081016040528092919081815260200182805480156133ef57602002820191906000526020600020905b81546001600160a01b031681526001909101906020018083116133d1575b5093979650505050505050565b600a54600160b81b900460ff1681565b600d546060906000805b8281101561346e5760096000600d838154811061342f57fe5b60009182526020808320909101546001600160a01b0316835282019290925260400190206003015460ff1615613466576001909101905b600101613416565b5060608160405190808252806020026020018201604052801561349b578160200160208202803883390190505b5090506000805b8481101561354a5760096000600d83815481106134bb57fe5b60009182526020808320909101546001600160a01b0316835282019290925260400190206003015460ff161561354257600d81815481106134f857fe5b600091825260209091200154835160018401936001600160a01b03909216918591811061352157fe5b60200260200101906001600160a01b031690816001600160a01b0316815250505b6001016134a2565b5090935050505090565b6060600d8054806020026020016040519081016040528092919081815260200182805480156135ac57602002820191906000526020600020905b81546001600160a01b0316815260019091019060200180831161358e575b5050505050905090565b601260209081526000928352604080842090915290825290205481565b6002546001600160a01b031681565b600a54600090600160b01b900460ff1615613639576040805162461bcd60e51b81526020600482015260126024820152711d1c985b9cd9995c881a5cc81c185d5cd95960721b604482015290519081900360640190fd5b6000613646868685615568565b90508015613655579050611b17565b61365e86614b51565b61366a868660006152d3565b611b11868560006152d3565b60606000825190506060816040519080825280602002602001820160405280156136aa578160200160208202803883390190505b50905060005b828110156137055760008582815181106136c657fe5b602002602001015190506136da813361560b565b60118111156136e557fe5b8383815181106136f157fe5b6020908102919091010152506001016136b0565b509392505050565b600480546040805163fc57d4df60e01b81526001600160a01b038781169482019490945290516000938493849391169163fc57d4df91602480820192602092909190829003018186803b15801561376357600080fd5b505afa158015613777573d6000803e3d6000fd5b505050506040513d602081101561378d57600080fd5b5051600480546040805163fc57d4df60e01b81526001600160a01b038a8116948201949094529051939450600093929091169163fc57d4df91602480820192602092909190829003018186803b1580156137e657600080fd5b505afa1580156137fa573d6000803e3d6000fd5b505050506040513d602081101561381057600080fd5b5051905081158061381f575080155b1561383457600d93506000925061397a915050565b6000866001600160a01b031663182df0f56040518163ffffffff1660e01b815260040160206040518083038186803b15801561386f57600080fd5b505afa158015613883573d6000803e3d6000fd5b505050506040513d602081101561389957600080fd5b5051905060006138a7616386565b6138af616386565b6138b7616386565b60006138c56006548961572c565b9450905060008160038111156138d757fe5b146138f357600b5b99506000985061397a975050505050505050565b6138fd878761572c565b93509050600081600381111561390f57fe5b1461391b57600b6138df565b6139258484615767565b92509050600081600381111561393757fe5b1461394357600b6138df565b61394d828c6154eb565b95509050600081600381111561395f57fe5b1461396b57600b6138df565b60009950939750505050505050505b935093915050565b601360209081526000928352604080842090915290825290205481565b60146020526000908152604090205481565b6139b961553f565b613a0a576040805162461bcd60e51b815260206004820152601e60248201527f6f6e6c792061646d696e2063616e2061646420636f6d70206d61726b65740000604482015290519081900360640190fd5b60005b8151811015613a3a57613a32828281518110613a2557fe5b602002602001015161577f565b600101613a0d565b5061270d6120d9565b600a54600090600160b81b900460ff1615613a97576040805162461bcd60e51b815260206004820152600f60248201526e1cd95a5e99481a5cc81c185d5cd959608a1b604482015290519081900360640190fd5b6001600160a01b03861660009081526009602052604090205460ff161580613ad857506001600160a01b03851660009081526009602052604090205460ff16155b15613ae457600961293a565b846001600160a01b0316635fe3b5676040518163ffffffff1660e01b815260040160206040518083038186803b158015613b1d57600080fd5b505afa158015613b31573d6000803e3d6000fd5b505050506040513d6020811015613b4757600080fd5b505160408051635fe3b56760e01b815290516001600160a01b0392831692891691635fe3b567916004808301926020929190829003018186803b158015613b8d57600080fd5b505afa158015613ba1573d6000803e3d6000fd5b505050506040513d6020811015613bb757600080fd5b50516001600160a01b031614613bce57600261293a565b613bd786614b51565b613be3868460006152d3565b613bef868560006152d3565b60009695505050505050565b6000612606848484615a9a565b600080546001600160a01b03163314613c2757611ca26001600d614adc565b6007805490839055604080518281526020810185905281517f7093cf1eb653f749c3ff531d6df7f92764536a7fa0d13530cd26e070780c32ea929181900390910190a16000612609565b6001600160a01b0383166000908152600c602052604081205460ff1615613cd2576040805162461bcd60e51b815260206004820152601060248201526f189bdc9c9bddc81a5cc81c185d5cd95960821b604482015290519081900360640190fd5b6001600160a01b03841660009081526009602052604090205460ff16613cf95760096125e7565b6001600160a01b038085166000908152600960209081526040808320938716835260029093019052205460ff16613de957336001600160a01b03851614613d7f576040805162461bcd60e51b815260206004820152601560248201527439b2b73232b91036bab9ba1031329031aa37b5b2b760591b604482015290519081900360640190fd5b6000613d8b338561560b565b90506000816011811115613d9b57fe5b14613db457806011811115613dac57fe5b915050612609565b6001600160a01b038086166000908152600960209081526040808320938816835260029093019052205460ff16613de757fe5b505b600480546040805163fc57d4df60e01b81526001600160a01b03888116948201949094529051929091169163fc57d4df91602480820192602092909190829003018186803b158015613e3a57600080fd5b505afa158015613e4e573d6000803e3d6000fd5b505050506040513d6020811015613e6457600080fd5b5051613e7157600d6125e7565b600080613e818587600087614eb8565b91935090915060009050826011811115613e9757fe5b14613eb157816011811115613ea857fe5b92505050612609565b8015613ebe576004613ea8565b613ec6616386565b6040518060200160405280886001600160a01b031663aa5af0fd6040518163ffffffff1660e01b815260040160206040518083038186803b158015613f0a57600080fd5b505afa158015613f1e573d6000803e3d6000fd5b505050506040513d6020811015613f3457600080fd5b505190529050613f448782614669565b613f5187878360006148f1565b6000979650505050505050565b60086020528160005260406000208181548110613f7757fe5b6000918252602090912001546001600160a01b03169150829050565b6003546001600160a01b031681565b611eed82604051806020016040528084815250614669565b600080546001600160a01b03163314613fe057613fd960016006614adc565b90506118c1565b6001600160a01b0383166000908152600960205260409020805460ff166140155761400d60096007614adc565b9150506118c1565b61401d616386565b506040805160208101909152838152614034616386565b506040805160208101909152670c7d713b49da000081526140558183614b4a565b156140705761406660066008614adc565b93505050506118c1565b84158015906140f95750600480546040805163fc57d4df60e01b81526001600160a01b038a8116948201949094529051929091169163fc57d4df91602480820192602092909190829003018186803b1580156140cb57600080fd5b505afa1580156140df573d6000803e3d6000fd5b505050506040513d60208110156140f557600080fd5b5051155b1561410a57614066600d6009614adc565b60018301805490869055604080516001600160a01b03891681526020810183905280820188905290517f70483e6592cd5182d45ac970e05bc62cdcc90e9d8ef2c2dbe686cf383bcd7fc59181900360600190a16000979650505050505050565b600a54600160a81b900460ff1681565b6001600160a01b039091166000908152600f6020526040902055565b60055481565b6001600160a01b0392831660009081526012602090815260408083209490951682529290925291902055565b61270d81600d80548060200260200160405190810160405280929190818152602001828054801561422257602002820191906000526020600020905b81546001600160a01b03168152600190910190602001808311614204575b50505050506118c7565b60008061423a858585615568565b90508015614249579050612609565b61425285614b51565b61425e858560006152d3565b600095945050505050565b6000808290506000806000836001600160a01b031663c37f68e2336040518263ffffffff1660e01b815260040180826001600160a01b03166001600160a01b0316815260200191505060806040518083038186803b1580156142ca57600080fd5b505afa1580156142de573d6000803e3d6000fd5b505050506040513d60808110156142f457600080fd5b5080516020820151604090920151909450909250905082156143475760405162461bcd60e51b81526004018080602001828103825260258152602001806164956025913960400191505060405180910390fd5b801561436457614359600c6002614adc565b945050505050611b2a565b6000614371873385615568565b9050801561439257614386600e600383615bdf565b95505050505050611b2a565b6001600160a01b0385166000908152600960209081526040808320338452600281019092529091205460ff166143d15760009650505050505050611b2a565b3360009081526002820160209081526040808320805460ff19169055600882529182902080548351818402810184019094528084526060939283018282801561444357602002820191906000526020600020905b81546001600160a01b03168152600190910190602001808311614425575b5050835193945083925060009150505b8281101561449857896001600160a01b031684828151811061447157fe5b60200260200101516001600160a01b0316141561449057809150614498565b600101614453565b508181106144a257fe5b3360009081526008602052604090208054819060001981019081106144c357fe5b9060005260206000200160009054906101000a90046001600160a01b03168183815481106144ed57fe5b600091825260209091200180546001600160a01b0319166001600160a01b03929092169190911790558054614526826000198301616399565b50604080516001600160a01b038c16815233602082015281517fe699a64c18b07ac5b7301aa273f36a2287239eb9501d81950672794afba29a0d929181900390910190a160009c9b505050505050505050505050565b6000546001600160a01b031681565b60005b600d5481101561461657816001600160a01b0316600d82815481106145af57fe5b6000918252602090912001546001600160a01b0316141561460e576040805162461bcd60e51b81526020600482015260146024820152731b585c9ad95d08185b1c9958591e48185919195960621b604482015290519081900360640190fd5b60010161458e565b50600d80546001810182556000919091527fd7b6990105719101dabeb77144f2a3385c8033acd3af97e9423a695e81ad1eb50180546001600160a01b0319166001600160a01b0392909216919091179055565b6001600160a01b0382166000908152601160209081526040808320600f90925282205490916146966120a2565b83549091506000906146b6908390600160e01b900463ffffffff16615c45565b90506000811180156146c85750600083115b1561489757600061473d876001600160a01b03166347bd37186040518163ffffffff1660e01b815260040160206040518083038186803b15801561470b57600080fd5b505afa15801561471f573d6000803e3d6000fd5b505050506040513d602081101561473557600080fd5b505187615c7f565b9050600061474b8386615c9d565b9050614755616386565b60008311614772576040518060200160405280600081525061477c565b61477c8284615cdf565b9050614786616386565b604080516020810190915288546001600160e01b031681526147a89083614e38565b905060405180604001604052806147f883600001516040518060400160405280601a81526020017f6e657720696e6465782065786365656473203232342062697473000000000000815250615d14565b6001600160e01b03168152602001614833886040518060400160405280601c81526020016000805160206164ba833981519152815250615dae565b63ffffffff9081169091526001600160a01b038c166000908152601160209081526040909120835181549490920151909216600160e01b026001600160e01b039182166001600160e01b03199094169390931716919091179055506120a992505050565b80156120a9576148ca826040518060400160405280601c81526020016000805160206164ba833981519152815250615dae565b845463ffffffff91909116600160e01b026001600160e01b03909116178455505050505050565b6001600160a01b0384166000908152601160205260409020614911616386565b50604080516020810190915281546001600160e01b03168152614932616386565b5060408051602080820183526001600160a01b03808a16600090815260138352848120918a1680825282845294812080548552865195909152915291909155805115614ad357614980616386565b61498a8383615e03565b90506000614a19896001600160a01b03166395dd91938a6040518263ffffffff1660e01b815260040180826001600160a01b03166001600160a01b0316815260200191505060206040518083038186803b1580156149e757600080fd5b505afa1580156149fb573d6000803e3d6000fd5b505050506040513d6020811015614a1157600080fd5b505188615c7f565b90506000614a278284615e28565b6001600160a01b038a1660009081526014602052604081205491925090614a4e9083615e48565b9050614a6f8a828a614a675766038d7ea4c68000614a6a565b60005b615a9a565b6001600160a01b03808c1660008181526014602090815260409182902094909455895181518781529485015280519193928f16927f1fc3ecc087d8d2d15e23d0032af5a47059c3892d003d8e139fdcb6bb327c99a6929081900390910190a3505050505b50505050505050565b60007f45b96fe442630264581b197e84bbada861235052c5a1aadfff9ea4e40a969aa0836011811115614b0b57fe5b836013811115614b1757fe5b604080519283526020830191909152600082820152519081900360600190a182601181111561260957fe5b519051111590565b5190511090565b6001600160a01b0381166000908152601060209081526040808320600f9092528220549091614b7e6120a2565b8354909150600090614b9e908390600160e01b900463ffffffff16615c45565b9050600081118015614bb05750600083115b15614d76576000856001600160a01b03166318160ddd6040518163ffffffff1660e01b815260040160206040518083038186803b158015614bf057600080fd5b505afa158015614c04573d6000803e3d6000fd5b505050506040513d6020811015614c1a57600080fd5b505190506000614c2a8386615c9d565b9050614c34616386565b60008311614c515760405180602001604052806000815250614c5b565b614c5b8284615cdf565b9050614c65616386565b604080516020810190915288546001600160e01b03168152614c879083614e38565b90506040518060400160405280614cd783600001516040518060400160405280601a81526020017f6e657720696e6465782065786365656473203232342062697473000000000000815250615d14565b6001600160e01b03168152602001614d12886040518060400160405280601c81526020016000805160206164ba833981519152815250615dae565b63ffffffff9081169091526001600160a01b038b166000908152601060209081526040909120835181549490920151909216600160e01b026001600160e01b039182166001600160e01b031990941693909317169190911790555061193b92505050565b801561193b57614da9826040518060400160405280601c81526020016000805160206164ba833981519152815250615dae565b845463ffffffff91909116600160e01b026001600160e01b039091161784555050505050565b614dd7616386565b6040518060200160405280614df0856000015185615c9d565b90529392505050565b614e01616386565b6040518060200160405280670de0b6b3a7640000614e2786600001518660000151615c9d565b81614e2e57fe5b0490529392505050565b614e40616386565b6040518060200160405280614df085600001518560000151615e48565b614e65616386565b6040518060200160405280614df0614e898660000151670de0b6b3a7640000615c9d565b8551615e7e565b6000670de0b6b3a7640000614ea9848460000151615c9d565b81614eb057fe5b049392505050565b6000806000614ec56163bd565b6001600160a01b038816600090815260086020908152604080832080548251818502810185019093528083528493606093929190830182828015614f3257602002820191906000526020600020905b81546001600160a01b03168152600190910190602001808311614f14575b50939450600093505050505b815181101561528e576000828281518110614f5557fe5b60200260200101519050806001600160a01b031663c37f68e28e6040518263ffffffff1660e01b815260040180826001600160a01b03166001600160a01b0316815260200191505060806040518083038186803b158015614fb557600080fd5b505afa158015614fc9573d6000803e3d6000fd5b505050506040513d6080811015614fdf57600080fd5b508051602082015160408084015160609485015160808c0152938a019390935291880191909152945084156150255750600f97506000965086955061255b945050505050565b60408051602080820183526001600160a01b0380851660008181526009845285902060010154845260c08b01939093528351808301855260808b0151815260e08b015260048054855163fc57d4df60e01b815291820194909452935192169263fc57d4df9260248083019392829003018186803b1580156150a557600080fd5b505afa1580156150b9573d6000803e3d6000fd5b505050506040513d60208110156150cf57600080fd5b505160a087018190526150f35750600d97506000965086955061255b945050505050565b604080516020810190915260a08701518152610100870181905260c087015160e088015161512092615eb1565b6101208801529350600084600381111561513657fe5b146151525750600b97506000965086955061255b945050505050565b61516a86610120015187604001518860000151615f09565b87529350600084600381111561517c57fe5b146151985750600b97506000965086955061255b945050505050565b6151b086610100015187606001518860200151615f09565b6020880152935060008460038111156151c557fe5b146151e15750600b97506000965086955061255b945050505050565b8b6001600160a01b0316816001600160a01b031614156152855761520f8661012001518c8860200151615f09565b60208801529350600084600381111561522457fe5b146152405750600b97506000965086955061255b945050505050565b6152548661010001518b8860200151615f09565b60208801529350600084600381111561526957fe5b146152855750600b97506000965086955061255b945050505050565b50600101614f3e565b506020840151845111156152b557505050602081015190516000945003915082905061255b565b505081516020909201516000955085945091909103915061255b9050565b6001600160a01b03831660009081526010602052604090206152f3616386565b50604080516020810190915281546001600160e01b03168152615314616386565b5060408051602080820183526001600160a01b038089166000908152601283528481209189168082528284529481208054855286519590915291529190915580511580156153625750815115155b1561537a576ec097ce7bc90715b34b9f100000000081525b615382616386565b61538c8383615e03565b90506000876001600160a01b03166370a08231886040518263ffffffff1660e01b815260040180826001600160a01b03166001600160a01b0316815260200191505060206040518083038186803b1580156153e657600080fd5b505afa1580156153fa573d6000803e3d6000fd5b505050506040513d602081101561541057600080fd5b5051905060006154208284615e28565b6001600160a01b038916600090815260146020526040812054919250906154479083615e48565b905061546089828a614a675766038d7ea4c68000614a6a565b6001600160a01b03808b1660008181526014602090815260409182902094909455895181518781529485015280519193928e16927f2caecd17d02f56fa897705dcc740da2d237c373f70686f4e0d9bd3bf0400ea7a929081900390910190a350505050505050505050565b60008060006154de846000806000614eb8565b9250925092509193909250565b60008060006154f8616386565b6155028686615f56565b9092509050600082600381111561551557fe5b146155265750915060009050615538565b600061553182615fbe565b9350935050505b9250929050565b600080546001600160a01b031633148061556357506002546001600160a01b031633145b905090565b6001600160a01b03831660009081526009602052604081205460ff1661558f5760096125e7565b6001600160a01b038085166000908152600960209081526040808320938716835260029093019052205460ff166155c75760006125e7565b6000806155d78587866000614eb8565b919350909150600090508260118111156155ed57fe5b146155fe57816011811115613ea857fe5b8015613bef576004613ea8565b6001600160a01b0382166000908152600960205260408120805460ff166156365760099150506118c1565b6001600160a01b038316600090815260028201602052604090205460ff161515600114156156685760009150506118c1565b6007546001600160a01b038416600090815260086020526040902054106156935760109150506118c1565b6001600160a01b0380841660008181526002840160209081526040808320805460ff19166001908117909155600883528184208054918201815584529282902090920180549489166001600160a01b031990951685179055815193845283019190915280517f3ab23ab0d51cccc0c3085aec51f99228625aa1a922b3a8ca89a26b0f2027a1a59281900390910190a15060009392505050565b6000615736616386565b61575c604051806020016040528086815250604051806020016040528086815250615fcd565b915091509250929050565b6000615771616386565b8351835161575c91906160b6565b6001600160a01b0381166000908152600960205260409020805460ff1615156001146157f2576040805162461bcd60e51b815260206004820152601960248201527f636f6d70206d61726b6574206973206e6f74206c697374656400000000000000604482015290519081900360640190fd5b600381015460ff161561584c576040805162461bcd60e51b815260206004820152601960248201527f636f6d70206d61726b657420616c726561647920616464656400000000000000604482015290519081900360640190fd5b60038101805460ff19166001908117909155604080516001600160a01b0385168152602081019290925280517f93c1f3e36ed71139f466a4ce8c9751790e2e33f5afb2df0dcfb3aeabe55d5aa29281900390910190a16001600160a01b0382166000908152601060205260409020546001600160e01b03161580156158f457506001600160a01b038216600090815260106020526040902054600160e01b900463ffffffff16155b156159b15760405180604001604052806ec097ce7bc90715b34b9f10000000006001600160e01b0316815260200161595661592d6120a2565b6040518060400160405280601c81526020016000805160206164ba833981519152815250615dae565b63ffffffff9081169091526001600160a01b0384166000908152601060209081526040909120835181549490920151909216600160e01b026001600160e01b039182166001600160e01b031990941693909317169190911790555b6001600160a01b0382166000908152601160205260409020546001600160e01b0316158015615a0357506001600160a01b038216600090815260116020526040902054600160e01b900463ffffffff16155b15611eed5760405180604001604052806ec097ce7bc90715b34b9f10000000006001600160e01b03168152602001615a3c61592d6120a2565b63ffffffff9081169091526001600160a01b0384166000908152601160209081526040909120835181549490920151909216600160e01b026001600160e01b039182166001600160e01b031990941693909317169190911790555050565b6000818310158015615aac5750600083115b15615bd7576000615abb61319b565b604080516370a0823160e01b815230600482015290519192506000916001600160a01b038416916370a08231916024808301926020929190829003018186803b158015615b0757600080fd5b505afa158015615b1b573d6000803e3d6000fd5b505050506040513d6020811015615b3157600080fd5b50519050808511615bd457816001600160a01b031663a9059cbb87876040518363ffffffff1660e01b815260040180836001600160a01b03166001600160a01b0316815260200182815260200192505050602060405180830381600087803b158015615b9c57600080fd5b505af1158015615bb0573d6000803e3d6000fd5b505050506040513d6020811015615bc657600080fd5b506000935061260992505050565b50505b509092915050565b60007f45b96fe442630264581b197e84bbada861235052c5a1aadfff9ea4e40a969aa0846011811115615c0e57fe5b846013811115615c1a57fe5b604080519283526020830191909152818101859052519081900360600190a183601181111561260657fe5b60006126098383604051806040016040528060158152602001747375627472616374696f6e20756e646572666c6f7760581b815250616166565b6000612609615c9684670de0b6b3a7640000615c9d565b8351615e7e565b600061260983836040518060400160405280601781526020017f6d756c7469706c69636174696f6e206f766572666c6f770000000000000000008152506161c0565b615ce7616386565b6040518060200160405280614df0615d0e866ec097ce7bc90715b34b9f1000000000615c9d565b85615e7e565b600081600160e01b8410615da65760405162461bcd60e51b81526004018080602001828103825283818151815260200191508051906020019080838360005b83811015615d6b578181015183820152602001615d53565b50505050905090810190601f168015615d985780820380516001836020036101000a031916815260200191505b509250505060405180910390fd5b509192915050565b600081600160201b8410615da65760405162461bcd60e51b8152602060048201818152835160248401528351909283926044909101919085019080838360008315615d6b578181015183820152602001615d53565b615e0b616386565b6040518060200160405280614df085600001518560000151615c45565b60006ec097ce7bc90715b34b9f1000000000614ea9848460000151615c9d565b60006126098383604051806040016040528060118152602001706164646974696f6e206f766572666c6f7760781b81525061623f565b600061260983836040518060400160405280600e81526020016d646976696465206279207a65726f60901b815250616294565b6000615ebb616386565b6000615ec5616386565b615ecf8787615fcd565b90925090506000826003811115615ee257fe5b14615ef157909250905061397a565b615efb8186615fcd565b935093505050935093915050565b6000806000615f16616386565b615f208787615f56565b90925090506000826003811115615f3357fe5b14615f44575091506000905061397a565b615efb615f5082615fbe565b866162f6565b6000615f60616386565b600080615f7186600001518661631c565b90925090506000826003811115615f8457fe5b14615fa357506040805160208101909152600081529092509050615538565b60408051602081019091529081526000969095509350505050565b51670de0b6b3a7640000900490565b6000615fd7616386565b600080615fec8660000151866000015161631c565b90925090506000826003811115615fff57fe5b1461601e57506040805160208101909152600081529092509050615538565b6000806160336706f05b59d3b20000846162f6565b9092509050600082600381111561604657fe5b1461606857506040805160208101909152600081529094509250615538915050565b60008061607d83670de0b6b3a764000061635b565b9092509050600082600381111561609057fe5b1461609757fe5b604080516020810190915290815260009a909950975050505050505050565b60006160c0616386565b6000806160d586670de0b6b3a764000061631c565b909250905060008260038111156160e857fe5b1461610757506040805160208101909152600081529092509050615538565b600080616114838861635b565b9092509050600082600381111561612757fe5b1461614957506040805160208101909152600081529094509250615538915050565b604080516020810190915290815260009890975095505050505050565b600081848411156161b85760405162461bcd60e51b8152602060048201818152835160248401528351909283926044909101919085019080838360008315615d6b578181015183820152602001615d53565b505050900390565b60008315806161cd575082155b156161da57506000612609565b838302838582816161e757fe5b041483906162365760405162461bcd60e51b8152602060048201818152835160248401528351909283926044909101919085019080838360008315615d6b578181015183820152602001615d53565b50949350505050565b600083830182858210156162365760405162461bcd60e51b8152602060048201818152835160248401528351909283926044909101919085019080838360008315615d6b578181015183820152602001615d53565b600081836162e35760405162461bcd60e51b8152602060048201818152835160248401528351909283926044909101919085019080838360008315615d6b578181015183820152602001615d53565b508284816162ed57fe5b04949350505050565b60008083830184811061630e57600092509050615538565b506002915060009050615538565b6000808361632f57506000905080615538565b8383028385828161633c57fe5b041461635057506002915060009050615538565b600092509050615538565b6000808261636f5750600190506000615538565b600083858161637a57fe5b04915091509250929050565b6040518060200160405280600081525090565b81548183558181111561192457600083815260209020611924918101908301616427565b6040518061014001604052806000815260200160008152602001600081526020016000815260200160008152602001600081526020016163fb616386565b8152602001616408616386565b8152602001616415616386565b8152602001616422616386565b905290565b6120a691905b80821115616441576000815560010161642d565b509056fe63616e6e6f742070617573652061206d61726b65742074686174206973206e6f74206c69737465646f6e6c7920706175736520677561726469616e20616e642061646d696e2063616e207061757365657869744d61726b65743a206765744163636f756e74536e617073686f74206661696c6564626c6f636b206e756d62657220657863656564732033322062697473000000006f6e6c7920756e6974726f6c6c65722061646d696e2063616e206368616e676520627261696e73a265627a7a723158208b83a00c590ffa3425a18f68d7b3dc389ed1f5bcb92ddfa5bbd6c52c589ac48c64736f6c634300050e0032",
  "source": "pragma solidity ^0.5.14;\n\nimport \"../../contracts/Comptroller.sol\";\nimport \"../../contracts/PriceOracle.sol\";\n\ncontract ComptrollerKovan is Comptroller {\n  function getCompAddress() public view returns (address) {\n    return 0x61460874a7196d6a22D1eE4922473664b3E95270;\n  }\n}\n\ncontract ComptrollerRopsten is Comptroller {\n  function getCompAddress() public view returns (address) {\n    return 0x1Fe16De955718CFAb7A44605458AB023838C2793;\n  }\n}\n\ncontract ComptrollerHarness is Comptroller {\n    address compAddress;\n    uint public blockNumber;\n\n    constructor() Comptroller() public {}\n\n    function setPauseGuardian(address harnessedPauseGuardian) public {\n        pauseGuardian = harnessedPauseGuardian;\n    }\n\n    function setCompSupplyState(address cToken, uint224 index, uint32 blockNumber_) public {\n        compSupplyState[cToken].index = index;\n        compSupplyState[cToken].block = blockNumber_;\n    }\n\n    function setCompBorrowState(address cToken, uint224 index, uint32 blockNumber_) public {\n        compBorrowState[cToken].index = index;\n        compBorrowState[cToken].block = blockNumber_;\n    }\n\n    function setCompAccrued(address user, uint userAccrued) public {\n        compAccrued[user] = userAccrued;\n    }\n\n    function setCompAddress(address compAddress_) public {\n        compAddress = compAddress_;\n    }\n\n    function getCompAddress() public view returns (address) {\n        return compAddress;\n    }\n\n    function setCompSpeed(address cToken, uint compSpeed) public {\n        compSpeeds[cToken] = compSpeed;\n    }\n\n    function setCompBorrowerIndex(address cToken, address borrower, uint index) public {\n        compBorrowerIndex[cToken][borrower] = index;\n    }\n\n    function setCompSupplierIndex(address cToken, address supplier, uint index) public {\n        compSupplierIndex[cToken][supplier] = index;\n    }\n\n    function harnessUpdateCompBorrowIndex(address cToken, uint marketBorrowIndexMantissa) public {\n        updateCompBorrowIndex(cToken, Exp({mantissa: marketBorrowIndexMantissa}));\n    }\n\n    function harnessUpdateCompSupplyIndex(address cToken) public {\n        updateCompSupplyIndex(cToken);\n    }\n\n    function harnessDistributeBorrowerComp(address cToken, address borrower, uint marketBorrowIndexMantissa) public {\n        distributeBorrowerComp(cToken, borrower, Exp({mantissa: marketBorrowIndexMantissa}), false);\n    }\n\n    function harnessDistributeSupplierComp(address cToken, address supplier) public {\n        distributeSupplierComp(cToken, supplier, false);\n    }\n\n    function harnessTransferComp(address user, uint userAccrued, uint threshold) public returns (uint) {\n        return transferComp(user, userAccrued, threshold);\n    }\n\n    function harnessFastForward(uint blocks) public returns (uint) {\n        blockNumber += blocks;\n        return blockNumber;\n    }\n\n    function setBlockNumber(uint number) public {\n        blockNumber = number;\n    }\n\n    function getBlockNumber() public view returns (uint) {\n        return blockNumber;\n    }\n\n    function getCompMarkets() public view returns (address[] memory) {\n        uint m = allMarkets.length;\n        uint n = 0;\n        for (uint i = 0; i < m; i++) {\n            if (markets[address(allMarkets[i])].isComped) {\n                n++;\n            }\n        }\n\n        address[] memory compMarkets = new address[](n);\n        uint k = 0;\n        for (uint i = 0; i < m; i++) {\n            if (markets[address(allMarkets[i])].isComped) {\n                compMarkets[k++] = address(allMarkets[i]);\n            }\n        }\n        return compMarkets;\n    }\n}\n\ncontract ComptrollerScenario is Comptroller {\n    uint public blockNumber;\n    address public compAddress;\n\n    constructor() Comptroller() public {}\n\n    function setCompAddress(address compAddress_) public {\n        compAddress = compAddress_;\n    }\n\n    function getCompAddress() public view returns (address) {\n        return compAddress;\n    }\n\n    function membershipLength(CToken cToken) public view returns (uint) {\n        return accountAssets[address(cToken)].length;\n    }\n\n    function fastForward(uint blocks) public returns (uint) {\n        blockNumber += blocks;\n\n        return blockNumber;\n    }\n\n    function setBlockNumber(uint number) public {\n        blockNumber = number;\n    }\n\n    function getBlockNumber() public view returns (uint) {\n        return blockNumber;\n    }\n\n    function getCompMarkets() public view returns (address[] memory) {\n        uint m = allMarkets.length;\n        uint n = 0;\n        for (uint i = 0; i < m; i++) {\n            if (markets[address(allMarkets[i])].isComped) {\n                n++;\n            }\n        }\n\n        address[] memory compMarkets = new address[](n);\n        uint k = 0;\n        for (uint i = 0; i < m; i++) {\n            if (markets[address(allMarkets[i])].isComped) {\n                compMarkets[k++] = address(allMarkets[i]);\n            }\n        }\n        return compMarkets;\n    }\n\n    function unlist(CToken cToken) public {\n        markets[address(cToken)].isListed = false;\n    }\n}\n\n\ncontract ComptrollerBorked {\n    function _become(Unitroller unitroller, PriceOracle _oracle, uint _closeFactorMantissa, uint _maxAssets, bool _reinitializing) public {\n        _oracle;\n        _closeFactorMantissa;\n        _maxAssets;\n        _reinitializing;\n\n        require(msg.sender == unitroller.admin(), \"only unitroller admin can change brains\");\n        unitroller._acceptImplementation();\n    }\n}\n\ncontract BoolComptroller is ComptrollerInterface {\n    bool allowMint = true;\n    bool allowRedeem = true;\n    bool allowBorrow = true;\n    bool allowRepayBorrow = true;\n    bool allowLiquidateBorrow = true;\n    bool allowSeize = true;\n    bool allowTransfer = true;\n\n    bool verifyMint = true;\n    bool verifyRedeem = true;\n    bool verifyBorrow = true;\n    bool verifyRepayBorrow = true;\n    bool verifyLiquidateBorrow = true;\n    bool verifySeize = true;\n    bool verifyTransfer = true;\n\n    bool failCalculateSeizeTokens;\n    uint calculatedSeizeTokens;\n\n    uint noError = 0;\n    uint opaqueError = noError + 11; // an arbitrary, opaque error code\n\n    /*** Assets You Are In ***/\n\n    function enterMarkets(address[] calldata _cTokens) external returns (uint[] memory) {\n        _cTokens;\n        uint[] memory ret;\n        return ret;\n    }\n\n    function exitMarket(address _cToken) external returns (uint) {\n        _cToken;\n        return noError;\n    }\n\n    /*** Policy Hooks ***/\n\n    function mintAllowed(address _cToken, address _minter, uint _mintAmount) public returns (uint) {\n        _cToken;\n        _minter;\n        _mintAmount;\n        return allowMint ? noError : opaqueError;\n    }\n\n    function mintVerify(address _cToken, address _minter, uint _mintAmount, uint _mintTokens) external {\n        _cToken;\n        _minter;\n        _mintAmount;\n        _mintTokens;\n        require(verifyMint, \"mintVerify rejected mint\");\n    }\n\n    function redeemAllowed(address _cToken, address _redeemer, uint _redeemTokens) public returns (uint) {\n        _cToken;\n        _redeemer;\n        _redeemTokens;\n        return allowRedeem ? noError : opaqueError;\n    }\n\n    function redeemVerify(address _cToken, address _redeemer, uint _redeemAmount, uint _redeemTokens) external {\n        _cToken;\n        _redeemer;\n        _redeemAmount;\n        _redeemTokens;\n        require(verifyRedeem, \"redeemVerify rejected redeem\");\n    }\n\n    function borrowAllowed(address _cToken, address _borrower, uint _borrowAmount) public returns (uint) {\n        _cToken;\n        _borrower;\n        _borrowAmount;\n        return allowBorrow ? noError : opaqueError;\n    }\n\n    function borrowVerify(address _cToken, address _borrower, uint _borrowAmount) external {\n        _cToken;\n        _borrower;\n        _borrowAmount;\n        require(verifyBorrow, \"borrowVerify rejected borrow\");\n    }\n\n    function repayBorrowAllowed(\n        address _cToken,\n        address _payer,\n        address _borrower,\n        uint _repayAmount) public returns (uint) {\n        _cToken;\n        _payer;\n        _borrower;\n        _repayAmount;\n        return allowRepayBorrow ? noError : opaqueError;\n    }\n\n    function repayBorrowVerify(\n        address _cToken,\n        address _payer,\n        address _borrower,\n        uint _repayAmount,\n        uint _borrowerIndex) external {\n        _cToken;\n        _payer;\n        _borrower;\n        _repayAmount;\n        _borrowerIndex;\n        require(verifyRepayBorrow, \"repayBorrowVerify rejected repayBorrow\");\n    }\n\n    function liquidateBorrowAllowed(\n        address _cTokenBorrowed,\n        address _cTokenCollateral,\n        address _liquidator,\n        address _borrower,\n        uint _repayAmount) public returns (uint) {\n        _cTokenBorrowed;\n        _cTokenCollateral;\n        _liquidator;\n        _borrower;\n        _repayAmount;\n        return allowLiquidateBorrow ? noError : opaqueError;\n    }\n\n    function liquidateBorrowVerify(\n        address _cTokenBorrowed,\n        address _cTokenCollateral,\n        address _liquidator,\n        address _borrower,\n        uint _repayAmount,\n        uint _seizeTokens) external {\n        _cTokenBorrowed;\n        _cTokenCollateral;\n        _liquidator;\n        _borrower;\n        _repayAmount;\n        _seizeTokens;\n        require(verifyLiquidateBorrow, \"liquidateBorrowVerify rejected liquidateBorrow\");\n    }\n\n    function seizeAllowed(\n        address _cTokenCollateral,\n        address _cTokenBorrowed,\n        address _borrower,\n        address _liquidator,\n        uint _seizeTokens) public returns (uint) {\n        _cTokenCollateral;\n        _cTokenBorrowed;\n        _liquidator;\n        _borrower;\n        _seizeTokens;\n        return allowSeize ? noError : opaqueError;\n    }\n\n    function seizeVerify(\n        address _cTokenCollateral,\n        address _cTokenBorrowed,\n        address _liquidator,\n        address _borrower,\n        uint _seizeTokens) external {\n        _cTokenCollateral;\n        _cTokenBorrowed;\n        _liquidator;\n        _borrower;\n        _seizeTokens;\n        require(verifySeize, \"seizeVerify rejected seize\");\n    }\n\n    function transferAllowed(\n        address _cToken,\n        address _src,\n        address _dst,\n        uint _transferTokens) public returns (uint) {\n        _cToken;\n        _src;\n        _dst;\n        _transferTokens;\n        return allowTransfer ? noError : opaqueError;\n    }\n\n    function transferVerify(\n        address _cToken,\n        address _src,\n        address _dst,\n        uint _transferTokens) external {\n        _cToken;\n        _src;\n        _dst;\n        _transferTokens;\n        require(verifyTransfer, \"transferVerify rejected transfer\");\n    }\n\n    /*** Special Liquidation Calculation ***/\n\n    function liquidateCalculateSeizeTokens(\n        address _cTokenBorrowed,\n        address _cTokenCollateral,\n        uint _repayAmount) public view returns (uint, uint) {\n        _cTokenBorrowed;\n        _cTokenCollateral;\n        _repayAmount;\n        return failCalculateSeizeTokens ? (opaqueError, 0) : (noError, calculatedSeizeTokens);\n    }\n\n    /**** Mock Settors ****/\n\n    /*** Policy Hooks ***/\n\n    function setMintAllowed(bool allowMint_) public {\n        allowMint = allowMint_;\n    }\n\n    function setMintVerify(bool verifyMint_) public {\n        verifyMint = verifyMint_;\n    }\n\n    function setRedeemAllowed(bool allowRedeem_) public {\n        allowRedeem = allowRedeem_;\n    }\n\n    function setRedeemVerify(bool verifyRedeem_) public {\n        verifyRedeem = verifyRedeem_;\n    }\n\n    function setBorrowAllowed(bool allowBorrow_) public {\n        allowBorrow = allowBorrow_;\n    }\n\n    function setBorrowVerify(bool verifyBorrow_) public {\n        verifyBorrow = verifyBorrow_;\n    }\n\n    function setRepayBorrowAllowed(bool allowRepayBorrow_) public {\n        allowRepayBorrow = allowRepayBorrow_;\n    }\n\n    function setRepayBorrowVerify(bool verifyRepayBorrow_) public {\n        verifyRepayBorrow = verifyRepayBorrow_;\n    }\n\n    function setLiquidateBorrowAllowed(bool allowLiquidateBorrow_) public {\n        allowLiquidateBorrow = allowLiquidateBorrow_;\n    }\n\n    function setLiquidateBorrowVerify(bool verifyLiquidateBorrow_) public {\n        verifyLiquidateBorrow = verifyLiquidateBorrow_;\n    }\n\n    function setSeizeAllowed(bool allowSeize_) public {\n        allowSeize = allowSeize_;\n    }\n\n    function setSeizeVerify(bool verifySeize_) public {\n        verifySeize = verifySeize_;\n    }\n\n    function setTransferAllowed(bool allowTransfer_) public {\n        allowTransfer = allowTransfer_;\n    }\n\n    function setTransferVerify(bool verifyTransfer_) public {\n        verifyTransfer = verifyTransfer_;\n    }\n\n    /*** Liquidity/Liquidation Calculations ***/\n\n    function setCalculatedSeizeTokens(uint seizeTokens_) public {\n        calculatedSeizeTokens = seizeTokens_;\n    }\n\n    function setFailCalculateSeizeTokens(bool shouldFail) public {\n        failCalculateSeizeTokens = shouldFail;\n    }\n}\n\ncontract EchoTypesComptroller is UnitrollerAdminStorage {\n    function stringy(string memory s) public pure returns(string memory) {\n        return s;\n    }\n\n    function addresses(address a) public pure returns(address) {\n        return a;\n    }\n\n    function booly(bool b) public pure returns(bool) {\n        return b;\n    }\n\n    function listOInts(uint[] memory u) public pure returns(uint[] memory) {\n        return u;\n    }\n\n    function reverty() public pure {\n        require(false, \"gotcha sucka\");\n    }\n\n    function becomeBrains(address payable unitroller) public {\n        Unitroller(unitroller)._acceptImplementation();\n    }\n}\n",
  "sourcePath": "/Users/yanyichun/project/Savings/contracts/compound/test/Contracts/ComptrollerHarness.sol",
  "compiler": {
    "name": "solc",
    "version": "0.5.14+commit.01f1aaa4.Emscripten.clang"
  },
  "schemaVersion": "3.2.3",
  "updatedAt": "2021-02-25T05:55:40.924Z",
  "devdoc": {
    "methods": {
      "_addCompMarkets(address[])": {
        "params": {
          "cTokens": "The addresses of the markets to add"
        }
      },
      "_dropCompMarket(address)": {
        "params": {
          "cToken": "The address of the market to drop"
        }
      },
      "_setCloseFactor(uint256)": {
        "details": "Admin function to set closeFactor",
        "params": {
          "newCloseFactorMantissa": "New close factor, scaled by 1e18"
        },
        "return": "uint 0=success, otherwise a failure. (See ErrorReporter for details)"
      },
      "_setCollateralFactor(address,uint256)": {
        "details": "Admin function to set per-market collateralFactor",
        "params": {
          "cToken": "The market to set the factor on",
          "newCollateralFactorMantissa": "The new collateral factor, scaled by 1e18"
        },
        "return": "uint 0=success, otherwise a failure. (See ErrorReporter for details)"
      },
      "_setCompRate(uint256)": {
        "params": {
          "compRate_": "The amount of COMP wei per block to distribute"
        }
      },
      "_setLiquidationIncentive(uint256)": {
        "details": "Admin function to set liquidationIncentive",
        "params": {
          "newLiquidationIncentiveMantissa": "New liquidationIncentive scaled by 1e18"
        },
        "return": "uint 0=success, otherwise a failure. (See ErrorReporter for details)"
      },
      "_setMaxAssets(uint256)": {
        "details": "Admin function to set maxAssets",
        "params": {
          "newMaxAssets": "New max assets"
        },
        "return": "uint 0=success, otherwise a failure. (See ErrorReporter for details)"
      },
      "_setPauseGuardian(address)": {
        "params": {
          "newPauseGuardian": "The address of the new Pause Guardian"
        },
        "return": "uint 0=success, otherwise a failure. (See enum Error for details)"
      },
      "_setPriceOracle(address)": {
        "details": "Admin function to set a new price oracle",
        "return": "uint 0=success, otherwise a failure (see ErrorReporter.sol for details)"
      },
      "_supportMarket(address)": {
        "details": "Admin function to set isListed and add support for the market",
        "params": {
          "cToken": "The address of the market (token) to list"
        },
        "return": "uint 0=success, otherwise a failure. (See enum Error for details)"
      },
      "borrowAllowed(address,address,uint256)": {
        "params": {
          "borrowAmount": "The amount of underlying the account would borrow",
          "borrower": "The account which would borrow the asset",
          "cToken": "The market to verify the borrow against"
        },
        "return": "0 if the borrow is allowed, otherwise a semi-opaque error code (See ErrorReporter.sol)"
      },
      "borrowVerify(address,address,uint256)": {
        "params": {
          "borrowAmount": "The amount of the underlying asset requested to borrow",
          "borrower": "The address borrowing the underlying",
          "cToken": "Asset whose underlying is being borrowed"
        }
      },
      "checkMembership(address,address)": {
        "params": {
          "account": "The address of the account to check",
          "cToken": "The cToken to check"
        },
        "return": "True if the account is in the asset, otherwise false."
      },
      "claimComp(address)": {
        "params": {
          "holder": "The address to claim COMP for"
        }
      },
      "claimComp(address,address[])": {
        "params": {
          "cTokens": "The list of markets to claim COMP in",
          "holder": "The address to claim COMP for"
        }
      },
      "claimComp(address[],address[],bool,bool)": {
        "params": {
          "borrowers": "Whether or not to claim COMP earned by borrowing",
          "cTokens": "The list of markets to claim COMP in",
          "holders": "The addresses to claim COMP for",
          "suppliers": "Whether or not to claim COMP earned by supplying"
        }
      },
      "enterMarkets(address[])": {
        "params": {
          "cTokens": "The list of addresses of the cToken markets to be enabled"
        },
        "return": "Success indicator for whether each corresponding market was entered"
      },
      "exitMarket(address)": {
        "details": "Sender must not have an outstanding borrow balance in the asset, or be providing neccessary collateral for an outstanding borrow.",
        "params": {
          "cTokenAddress": "The address of the asset to be removed"
        },
        "return": "Whether or not the account successfully exited the market"
      },
      "getAccountLiquidity(address)": {
        "return": "(possible error code (semi-opaque), account liquidity in excess of collateral requirements,         account shortfall below collateral requirements)"
      },
      "getAllMarkets()": {
        "details": "The automatic getter may be used to access an individual market.",
        "return": "The list of market addresses"
      },
      "getAssetsIn(address)": {
        "params": {
          "account": "The address of the account to pull assets for"
        },
        "return": "A dynamic list with the assets the account has entered"
      },
      "getHypotheticalAccountLiquidity(address,address,uint256,uint256)": {
        "params": {
          "account": "The account to determine liquidity for",
          "borrowAmount": "The amount of underlying to hypothetically borrow",
          "cTokenModify": "The market to hypothetically redeem/borrow in",
          "redeemTokens": "The number of tokens to hypothetically redeem"
        },
        "return": "(possible error code (semi-opaque), hypothetical account liquidity in excess of collateral requirements,         hypothetical account shortfall below collateral requirements)"
      },
      "liquidateBorrowAllowed(address,address,address,address,uint256)": {
        "params": {
          "borrower": "The address of the borrower",
          "cTokenBorrowed": "Asset which was borrowed by the borrower",
          "cTokenCollateral": "Asset which was used as collateral and will be seized",
          "liquidator": "The address repaying the borrow and seizing the collateral",
          "repayAmount": "The amount of underlying being repaid"
        }
      },
      "liquidateBorrowVerify(address,address,address,address,uint256,uint256)": {
        "params": {
          "actualRepayAmount": "The amount of underlying being repaid",
          "borrower": "The address of the borrower",
          "cTokenBorrowed": "Asset which was borrowed by the borrower",
          "cTokenCollateral": "Asset which was used as collateral and will be seized",
          "liquidator": "The address repaying the borrow and seizing the collateral"
        }
      },
      "liquidateCalculateSeizeTokens(address,address,uint256)": {
        "details": "Used in liquidation (called in cToken.liquidateBorrowFresh)",
        "params": {
          "actualRepayAmount": "The amount of cTokenBorrowed underlying to convert into cTokenCollateral tokens",
          "cTokenBorrowed": "The address of the borrowed cToken",
          "cTokenCollateral": "The address of the collateral cToken"
        },
        "return": "(errorCode, number of cTokenCollateral tokens to be seized in a liquidation)"
      },
      "mintAllowed(address,address,uint256)": {
        "params": {
          "cToken": "The market to verify the mint against",
          "mintAmount": "The amount of underlying being supplied to the market in exchange for tokens",
          "minter": "The account which would get the minted tokens"
        },
        "return": "0 if the mint is allowed, otherwise a semi-opaque error code (See ErrorReporter.sol)"
      },
      "mintVerify(address,address,uint256,uint256)": {
        "params": {
          "actualMintAmount": "The amount of the underlying asset being minted",
          "cToken": "Asset being minted",
          "mintTokens": "The number of tokens being minted",
          "minter": "The address minting the tokens"
        }
      },
      "redeemAllowed(address,address,uint256)": {
        "params": {
          "cToken": "The market to verify the redeem against",
          "redeemTokens": "The number of cTokens to exchange for the underlying asset in the market",
          "redeemer": "The account which would redeem the tokens"
        },
        "return": "0 if the redeem is allowed, otherwise a semi-opaque error code (See ErrorReporter.sol)"
      },
      "redeemVerify(address,address,uint256,uint256)": {
        "params": {
          "cToken": "Asset being redeemed",
          "redeemAmount": "The amount of the underlying asset being redeemed",
          "redeemTokens": "The number of tokens being redeemed",
          "redeemer": "The address redeeming the tokens"
        }
      },
      "repayBorrowAllowed(address,address,address,uint256)": {
        "params": {
          "borrower": "The account which would borrowed the asset",
          "cToken": "The market to verify the repay against",
          "payer": "The account which would repay the asset",
          "repayAmount": "The amount of the underlying asset the account would repay"
        },
        "return": "0 if the repay is allowed, otherwise a semi-opaque error code (See ErrorReporter.sol)"
      },
      "repayBorrowVerify(address,address,address,uint256,uint256)": {
        "params": {
          "actualRepayAmount": "The amount of underlying being repaid",
          "borrower": "The address of the borrower",
          "cToken": "Asset being repaid",
          "payer": "The address repaying the borrow"
        }
      },
      "seizeAllowed(address,address,address,address,uint256)": {
        "params": {
          "borrower": "The address of the borrower",
          "cTokenBorrowed": "Asset which was borrowed by the borrower",
          "cTokenCollateral": "Asset which was used as collateral and will be seized",
          "liquidator": "The address repaying the borrow and seizing the collateral",
          "seizeTokens": "The number of collateral tokens to seize"
        }
      },
      "seizeVerify(address,address,address,address,uint256)": {
        "params": {
          "borrower": "The address of the borrower",
          "cTokenBorrowed": "Asset which was borrowed by the borrower",
          "cTokenCollateral": "Asset which was used as collateral and will be seized",
          "liquidator": "The address repaying the borrow and seizing the collateral",
          "seizeTokens": "The number of collateral tokens to seize"
        }
      },
      "transferAllowed(address,address,address,uint256)": {
        "params": {
          "cToken": "The market to verify the transfer against",
          "dst": "The account which receives the tokens",
          "src": "The account which sources the tokens",
          "transferTokens": "The number of cTokens to transfer"
        },
        "return": "0 if the transfer is allowed, otherwise a semi-opaque error code (See ErrorReporter.sol)"
      },
      "transferVerify(address,address,address,uint256)": {
        "params": {
          "cToken": "Asset being transferred",
          "dst": "The account which receives the tokens",
          "src": "The account which sources the tokens",
          "transferTokens": "The number of cTokens to transfer"
        }
      }
    }
  },
  "userdoc": {
    "methods": {
      "_addCompMarkets(address[])": {
        "notice": "Add markets to compMarkets, allowing them to earn COMP in the flywheel"
      },
      "_dropCompMarket(address)": {
        "notice": "Remove a market from compMarkets, preventing it from earning COMP in the flywheel"
      },
      "_setCloseFactor(uint256)": {
        "notice": "Sets the closeFactor used when liquidating borrows"
      },
      "_setCollateralFactor(address,uint256)": {
        "notice": "Sets the collateralFactor for a market"
      },
      "_setCompRate(uint256)": {
        "notice": "Set the amount of COMP distributed per block"
      },
      "_setLiquidationIncentive(uint256)": {
        "notice": "Sets liquidationIncentive"
      },
      "_setMaxAssets(uint256)": {
        "notice": "Sets maxAssets which controls how many markets can be entered"
      },
      "_setPauseGuardian(address)": {
        "notice": "Admin function to change the Pause Guardian"
      },
      "_setPriceOracle(address)": {
        "notice": "Sets a new price oracle for the comptroller"
      },
      "_supportMarket(address)": {
        "notice": "Add the market to the markets mapping and set it as listed"
      },
      "borrowAllowed(address,address,uint256)": {
        "notice": "Checks if the account should be allowed to borrow the underlying asset of the given market"
      },
      "borrowVerify(address,address,uint256)": {
        "notice": "Validates borrow and reverts on rejection. May emit logs."
      },
      "checkMembership(address,address)": {
        "notice": "Returns whether the given account is entered in the given asset"
      },
      "claimComp(address)": {
        "notice": "Claim all the comp accrued by holder in all markets"
      },
      "claimComp(address,address[])": {
        "notice": "Claim all the comp accrued by holder in the specified markets"
      },
      "claimComp(address[],address[],bool,bool)": {
        "notice": "Claim all comp accrued by the holders"
      },
      "enterMarkets(address[])": {
        "notice": "Add assets to be included in account liquidity calculation"
      },
      "exitMarket(address)": {
        "notice": "Removes asset from sender's account liquidity calculation"
      },
      "getAccountLiquidity(address)": {
        "notice": "Determine the current account liquidity wrt collateral requirements"
      },
      "getAllMarkets()": {
        "notice": "Return all of the markets"
      },
      "getAssetsIn(address)": {
        "notice": "Returns the assets an account has entered"
      },
      "getHypotheticalAccountLiquidity(address,address,uint256,uint256)": {
        "notice": "Determine what the account liquidity would be if the given amounts were redeemed/borrowed"
      },
      "liquidateBorrowAllowed(address,address,address,address,uint256)": {
        "notice": "Checks if the liquidation should be allowed to occur"
      },
      "liquidateBorrowVerify(address,address,address,address,uint256,uint256)": {
        "notice": "Validates liquidateBorrow and reverts on rejection. May emit logs."
      },
      "liquidateCalculateSeizeTokens(address,address,uint256)": {
        "notice": "Calculate number of tokens of collateral asset to seize given an underlying amount"
      },
      "mintAllowed(address,address,uint256)": {
        "notice": "Checks if the account should be allowed to mint tokens in the given market"
      },
      "mintVerify(address,address,uint256,uint256)": {
        "notice": "Validates mint and reverts on rejection. May emit logs."
      },
      "redeemAllowed(address,address,uint256)": {
        "notice": "Checks if the account should be allowed to redeem tokens in the given market"
      },
      "redeemVerify(address,address,uint256,uint256)": {
        "notice": "Validates redeem and reverts on rejection. May emit logs."
      },
      "refreshCompSpeeds()": {
        "notice": "Recalculate and update COMP speeds for all COMP markets"
      },
      "repayBorrowAllowed(address,address,address,uint256)": {
        "notice": "Checks if the account should be allowed to repay a borrow in the given market"
      },
      "repayBorrowVerify(address,address,address,uint256,uint256)": {
        "notice": "Validates repayBorrow and reverts on rejection. May emit logs."
      },
      "seizeAllowed(address,address,address,address,uint256)": {
        "notice": "Checks if the seizing of assets should be allowed to occur"
      },
      "seizeVerify(address,address,address,address,uint256)": {
        "notice": "Validates seize and reverts on rejection. May emit logs."
      },
      "transferAllowed(address,address,address,uint256)": {
        "notice": "Checks if the account should be allowed to transfer tokens in the given market"
      },
      "transferVerify(address,address,address,uint256)": {
        "notice": "Validates transfer and reverts on rejection. May emit logs."
      }
    }
  }
}