{
  "contractName": "ConstBase",
  "abi": [
    {
      "constant": true,
      "inputs": [],
      "name": "C",
      "outputs": [
        {
          "internalType": "uint256",
          "name": "",
          "type": "uint256"
        }
      ],
      "payable": false,
      "stateMutability": "view",
      "type": "function"
    },
    {
      "constant": true,
      "inputs": [],
      "name": "c",
      "outputs": [
        {
          "internalType": "uint256",
          "name": "",
          "type": "uint256"
        }
      ],
      "payable": false,
      "stateMutability": "pure",
      "type": "function"
    },
    {
      "constant": true,
      "inputs": [
        {
          "internalType": "uint256",
          "name": "a",
          "type": "uint256"
        }
      ],
      "name": "ADD",
      "outputs": [
        {
          "internalType": "uint256",
          "name": "",
          "type": "uint256"
        }
      ],
      "payable": false,
      "stateMutability": "view",
      "type": "function"
    },
    {
      "constant": true,
      "inputs": [
        {
          "internalType": "uint256",
          "name": "a",
          "type": "uint256"
        }
      ],
      "name": "add",
      "outputs": [
        {
          "internalType": "uint256",
          "name": "",
          "type": "uint256"
        }
      ],
      "payable": false,
      "stateMutability": "view",
      "type": "function"
    }
  ],
  "bytecode": "0x608060405234801561001057600080fd5b5060f28061001f6000396000f3fe6080604052348015600f57600080fd5b506004361060465760003560e01c80631003e2d214604b57806320603d3714607757806383dfe5fd146091578063c3da42b8146097575b600080fd5b606560048036036020811015605f57600080fd5b5035609d565b60408051918252519081900360200190f35b606560048036036020811015608b57600080fd5b503560ad565b606560b3565b606560b8565b600060a560b8565b909101919050565b60010190565b600181565b60019056fea265627a7a72315820508d9c7c5aba6ff03923bd5ba23e1a06723bbf9abee0d043dcc2511125cd8c7164736f6c634300050e0032",
  "source": "pragma solidity ^0.5.14;\n\ncontract ConstBase {\n    uint public constant C = 1;\n\n    function c() public pure returns (uint) {\n        return 1;\n    }\n\n    function ADD(uint a) public view returns (uint) {\n        // tells compiler to accept view instead of pure\n        if (false) {\n            C + now;\n        }\n        return a + C;\n    }\n\n    function add(uint a) public view returns (uint) {\n        // tells compiler to accept view instead of pure\n        if (false) {\n            C + now;\n        }\n        return a + c();\n    }\n}\n\ncontract ConstSub is ConstBase {\n    function c() public pure returns (uint) {\n        return 2;\n    }\n}\n",
  "sourcePath": "/Users/yanyichun/project/Savings/contracts/compound/test/Contracts/Const.sol",
  "compiler": {
    "name": "solc",
    "version": "0.5.14+commit.01f1aaa4.Emscripten.clang"
  },
  "schemaVersion": "3.2.3",
  "updatedAt": "2021-02-25T05:55:40.999Z",
  "devdoc": {
    "methods": {}
  },
  "userdoc": {
    "methods": {}
  }
}