{
  "contractName": "EchoTypesComptroller",
  "abi": [
    {
      "constant": true,
      "inputs": [],
      "name": "admin",
      "outputs": [
        {
          "internalType": "address",
          "name": "",
          "type": "address"
        }
      ],
      "payable": false,
      "stateMutability": "view",
      "type": "function"
    },
    {
      "constant": true,
      "inputs": [],
      "name": "comptrollerImplementation",
      "outputs": [
        {
          "internalType": "address",
          "name": "",
          "type": "address"
        }
      ],
      "payable": false,
      "stateMutability": "view",
      "type": "function"
    },
    {
      "constant": true,
      "inputs": [],
      "name": "pendingAdmin",
      "outputs": [
        {
          "internalType": "address",
          "name": "",
          "type": "address"
        }
      ],
      "payable": false,
      "stateMutability": "view",
      "type": "function"
    },
    {
      "constant": true,
      "inputs": [],
      "name": "pendingComptrollerImplementation",
      "outputs": [
        {
          "internalType": "address",
          "name": "",
          "type": "address"
        }
      ],
      "payable": false,
      "stateMutability": "view",
      "type": "function"
    },
    {
      "constant": true,
      "inputs": [
        {
          "internalType": "string",
          "name": "s",
          "type": "string"
        }
      ],
      "name": "stringy",
      "outputs": [
        {
          "internalType": "string",
          "name": "",
          "type": "string"
        }
      ],
      "payable": false,
      "stateMutability": "pure",
      "type": "function"
    },
    {
      "constant": true,
      "inputs": [
        {
          "internalType": "address",
          "name": "a",
          "type": "address"
        }
      ],
      "name": "addresses",
      "outputs": [
        {
          "internalType": "address",
          "name": "",
          "type": "address"
        }
      ],
      "payable": false,
      "stateMutability": "pure",
      "type": "function"
    },
    {
      "constant": true,
      "inputs": [
        {
          "internalType": "bool",
          "name": "b",
          "type": "bool"
        }
      ],
      "name": "booly",
      "outputs": [
        {
          "internalType": "bool",
          "name": "",
          "type": "bool"
        }
      ],
      "payable": false,
      "stateMutability": "pure",
      "type": "function"
    },
    {
      "constant": true,
      "inputs": [
        {
          "internalType": "uint256[]",
          "name": "u",
          "type": "uint256[]"
        }
      ],
      "name": "listOInts",
      "outputs": [
        {
          "internalType": "uint256[]",
          "name": "",
          "type": "uint256[]"
        }
      ],
      "payable": false,
      "stateMutability": "pure",
      "type": "function"
    },
    {
      "constant": true,
      "inputs": [],
      "name": "reverty",
      "outputs": [],
      "payable": false,
      "stateMutability": "pure",
      "type": "function"
    },
    {
      "constant": false,
      "inputs": [
        {
          "internalType": "address payable",
          "name": "unitroller",
          "type": "address"
        }
      ],
      "name": "becomeBrains",
      "outputs": [],
      "payable": false,
      "stateMutability": "nonpayable",
      "type": "function"
    }
  ],
  "bytecode": "0x608060405234801561001057600080fd5b50610490806100206000396000f3fe608060405234801561001057600080fd5b506004361061009e5760003560e01c8063ba3cca6911610066578063ba3cca6914610305578063bb82aa5e1461032b578063bd96b51614610333578063dcfbc0c714610366578063f851a4401461036e5761009e565b806326782247146100a35780634bdd1eaf146100c757806374b0b7df146101ba57806382d38954146102d55780638d2c913c146102fb575b600080fd5b6100ab610376565b604080516001600160a01b039092168252519081900360200190f35b61016a600480360360208110156100dd57600080fd5b8101906020810181356401000000008111156100f857600080fd5b82018360208201111561010a57600080fd5b8035906020019184602083028401116401000000008311171561012c57600080fd5b919080806020026020016040519081016040528093929190818152602001838360200280828437600092019190915250929550610385945050505050565b60408051602080825283518183015283519192839290830191858101910280838360005b838110156101a657818101518382015260200161018e565b505050509050019250505060405180910390f35b610260600480360360208110156101d057600080fd5b8101906020810181356401000000008111156101eb57600080fd5b8201836020820111156101fd57600080fd5b8035906020019184600183028401116401000000008311171561021f57600080fd5b91908080601f016020809104026020016040519081016040528093929190818152602001838380828437600092019190915250929550610385945050505050565b6040805160208082528351818301528351919283929083019185019080838360005b8381101561029a578181015183820152602001610282565b50505050905090810190601f1680156102c75780820380516001836020036101000a031916815260200191505b509250505060405180910390f35b6100ab600480360360208110156102eb57600080fd5b50356001600160a01b0316610385565b610303610388565b005b6103036004803603602081101561031b57600080fd5b50356001600160a01b03166103c4565b6100ab61042e565b6103526004803603602081101561034957600080fd5b50351515610385565b604080519115158252519081900360200190f35b6100ab61043d565b6100ab61044c565b6001546001600160a01b031681565b90565b6040805162461bcd60e51b815260206004820152600c60248201526b676f74636861207375636b6160a01b604482015290519081900360640190fd5b806001600160a01b031663c1e803346040518163ffffffff1660e01b8152600401602060405180830381600087803b1580156103ff57600080fd5b505af1158015610413573d6000803e3d6000fd5b505050506040513d602081101561042957600080fd5b505050565b6002546001600160a01b031681565b6003546001600160a01b031681565b6000546001600160a01b03168156fea265627a7a7231582037ca422bf4999855e2a7da2a21206740ac8d640fc384aa2f83fb525608081f6964736f6c634300050e0032",
  "source": "pragma solidity ^0.5.14;\n\nimport \"../../contracts/Comptroller.sol\";\nimport \"../../contracts/PriceOracle.sol\";\n\ncontract ComptrollerKovan is Comptroller {\n  function getCompAddress() public view returns (address) {\n    return 0x61460874a7196d6a22D1eE4922473664b3E95270;\n  }\n}\n\ncontract ComptrollerRopsten is Comptroller {\n  function getCompAddress() public view returns (address) {\n    return 0x1Fe16De955718CFAb7A44605458AB023838C2793;\n  }\n}\n\ncontract ComptrollerHarness is Comptroller {\n    address compAddress;\n    uint public blockNumber;\n\n    constructor() Comptroller() public {}\n\n    function setPauseGuardian(address harnessedPauseGuardian) public {\n        pauseGuardian = harnessedPauseGuardian;\n    }\n\n    function setCompSupplyState(address cToken, uint224 index, uint32 blockNumber_) public {\n        compSupplyState[cToken].index = index;\n        compSupplyState[cToken].block = blockNumber_;\n    }\n\n    function setCompBorrowState(address cToken, uint224 index, uint32 blockNumber_) public {\n        compBorrowState[cToken].index = index;\n        compBorrowState[cToken].block = blockNumber_;\n    }\n\n    function setCompAccrued(address user, uint userAccrued) public {\n        compAccrued[user] = userAccrued;\n    }\n\n    function setCompAddress(address compAddress_) public {\n        compAddress = compAddress_;\n    }\n\n    function getCompAddress() public view returns (address) {\n        return compAddress;\n    }\n\n    function setCompSpeed(address cToken, uint compSpeed) public {\n        compSpeeds[cToken] = compSpeed;\n    }\n\n    function setCompBorrowerIndex(address cToken, address borrower, uint index) public {\n        compBorrowerIndex[cToken][borrower] = index;\n    }\n\n    function setCompSupplierIndex(address cToken, address supplier, uint index) public {\n        compSupplierIndex[cToken][supplier] = index;\n    }\n\n    function harnessUpdateCompBorrowIndex(address cToken, uint marketBorrowIndexMantissa) public {\n        updateCompBorrowIndex(cToken, Exp({mantissa: marketBorrowIndexMantissa}));\n    }\n\n    function harnessUpdateCompSupplyIndex(address cToken) public {\n        updateCompSupplyIndex(cToken);\n    }\n\n    function harnessDistributeBorrowerComp(address cToken, address borrower, uint marketBorrowIndexMantissa) public {\n        distributeBorrowerComp(cToken, borrower, Exp({mantissa: marketBorrowIndexMantissa}), false);\n    }\n\n    function harnessDistributeSupplierComp(address cToken, address supplier) public {\n        distributeSupplierComp(cToken, supplier, false);\n    }\n\n    function harnessTransferComp(address user, uint userAccrued, uint threshold) public returns (uint) {\n        return transferComp(user, userAccrued, threshold);\n    }\n\n    function harnessFastForward(uint blocks) public returns (uint) {\n        blockNumber += blocks;\n        return blockNumber;\n    }\n\n    function setBlockNumber(uint number) public {\n        blockNumber = number;\n    }\n\n    function getBlockNumber() public view returns (uint) {\n        return blockNumber;\n    }\n\n    function getCompMarkets() public view returns (address[] memory) {\n        uint m = allMarkets.length;\n        uint n = 0;\n        for (uint i = 0; i < m; i++) {\n            if (markets[address(allMarkets[i])].isComped) {\n                n++;\n            }\n        }\n\n        address[] memory compMarkets = new address[](n);\n        uint k = 0;\n        for (uint i = 0; i < m; i++) {\n            if (markets[address(allMarkets[i])].isComped) {\n                compMarkets[k++] = address(allMarkets[i]);\n            }\n        }\n        return compMarkets;\n    }\n}\n\ncontract ComptrollerScenario is Comptroller {\n    uint public blockNumber;\n    address public compAddress;\n\n    constructor() Comptroller() public {}\n\n    function setCompAddress(address compAddress_) public {\n        compAddress = compAddress_;\n    }\n\n    function getCompAddress() public view returns (address) {\n        return compAddress;\n    }\n\n    function membershipLength(CToken cToken) public view returns (uint) {\n        return accountAssets[address(cToken)].length;\n    }\n\n    function fastForward(uint blocks) public returns (uint) {\n        blockNumber += blocks;\n\n        return blockNumber;\n    }\n\n    function setBlockNumber(uint number) public {\n        blockNumber = number;\n    }\n\n    function getBlockNumber() public view returns (uint) {\n        return blockNumber;\n    }\n\n    function getCompMarkets() public view returns (address[] memory) {\n        uint m = allMarkets.length;\n        uint n = 0;\n        for (uint i = 0; i < m; i++) {\n            if (markets[address(allMarkets[i])].isComped) {\n                n++;\n            }\n        }\n\n        address[] memory compMarkets = new address[](n);\n        uint k = 0;\n        for (uint i = 0; i < m; i++) {\n            if (markets[address(allMarkets[i])].isComped) {\n                compMarkets[k++] = address(allMarkets[i]);\n            }\n        }\n        return compMarkets;\n    }\n\n    function unlist(CToken cToken) public {\n        markets[address(cToken)].isListed = false;\n    }\n}\n\n\ncontract ComptrollerBorked {\n    function _become(Unitroller unitroller, PriceOracle _oracle, uint _closeFactorMantissa, uint _maxAssets, bool _reinitializing) public {\n        _oracle;\n        _closeFactorMantissa;\n        _maxAssets;\n        _reinitializing;\n\n        require(msg.sender == unitroller.admin(), \"only unitroller admin can change brains\");\n        unitroller._acceptImplementation();\n    }\n}\n\ncontract BoolComptroller is ComptrollerInterface {\n    bool allowMint = true;\n    bool allowRedeem = true;\n    bool allowBorrow = true;\n    bool allowRepayBorrow = true;\n    bool allowLiquidateBorrow = true;\n    bool allowSeize = true;\n    bool allowTransfer = true;\n\n    bool verifyMint = true;\n    bool verifyRedeem = true;\n    bool verifyBorrow = true;\n    bool verifyRepayBorrow = true;\n    bool verifyLiquidateBorrow = true;\n    bool verifySeize = true;\n    bool verifyTransfer = true;\n\n    bool failCalculateSeizeTokens;\n    uint calculatedSeizeTokens;\n\n    uint noError = 0;\n    uint opaqueError = noError + 11; // an arbitrary, opaque error code\n\n    /*** Assets You Are In ***/\n\n    function enterMarkets(address[] calldata _cTokens) external returns (uint[] memory) {\n        _cTokens;\n        uint[] memory ret;\n        return ret;\n    }\n\n    function exitMarket(address _cToken) external returns (uint) {\n        _cToken;\n        return noError;\n    }\n\n    /*** Policy Hooks ***/\n\n    function mintAllowed(address _cToken, address _minter, uint _mintAmount) public returns (uint) {\n        _cToken;\n        _minter;\n        _mintAmount;\n        return allowMint ? noError : opaqueError;\n    }\n\n    function mintVerify(address _cToken, address _minter, uint _mintAmount, uint _mintTokens) external {\n        _cToken;\n        _minter;\n        _mintAmount;\n        _mintTokens;\n        require(verifyMint, \"mintVerify rejected mint\");\n    }\n\n    function redeemAllowed(address _cToken, address _redeemer, uint _redeemTokens) public returns (uint) {\n        _cToken;\n        _redeemer;\n        _redeemTokens;\n        return allowRedeem ? noError : opaqueError;\n    }\n\n    function redeemVerify(address _cToken, address _redeemer, uint _redeemAmount, uint _redeemTokens) external {\n        _cToken;\n        _redeemer;\n        _redeemAmount;\n        _redeemTokens;\n        require(verifyRedeem, \"redeemVerify rejected redeem\");\n    }\n\n    function borrowAllowed(address _cToken, address _borrower, uint _borrowAmount) public returns (uint) {\n        _cToken;\n        _borrower;\n        _borrowAmount;\n        return allowBorrow ? noError : opaqueError;\n    }\n\n    function borrowVerify(address _cToken, address _borrower, uint _borrowAmount) external {\n        _cToken;\n        _borrower;\n        _borrowAmount;\n        require(verifyBorrow, \"borrowVerify rejected borrow\");\n    }\n\n    function repayBorrowAllowed(\n        address _cToken,\n        address _payer,\n        address _borrower,\n        uint _repayAmount) public returns (uint) {\n        _cToken;\n        _payer;\n        _borrower;\n        _repayAmount;\n        return allowRepayBorrow ? noError : opaqueError;\n    }\n\n    function repayBorrowVerify(\n        address _cToken,\n        address _payer,\n        address _borrower,\n        uint _repayAmount,\n        uint _borrowerIndex) external {\n        _cToken;\n        _payer;\n        _borrower;\n        _repayAmount;\n        _borrowerIndex;\n        require(verifyRepayBorrow, \"repayBorrowVerify rejected repayBorrow\");\n    }\n\n    function liquidateBorrowAllowed(\n        address _cTokenBorrowed,\n        address _cTokenCollateral,\n        address _liquidator,\n        address _borrower,\n        uint _repayAmount) public returns (uint) {\n        _cTokenBorrowed;\n        _cTokenCollateral;\n        _liquidator;\n        _borrower;\n        _repayAmount;\n        return allowLiquidateBorrow ? noError : opaqueError;\n    }\n\n    function liquidateBorrowVerify(\n        address _cTokenBorrowed,\n        address _cTokenCollateral,\n        address _liquidator,\n        address _borrower,\n        uint _repayAmount,\n        uint _seizeTokens) external {\n        _cTokenBorrowed;\n        _cTokenCollateral;\n        _liquidator;\n        _borrower;\n        _repayAmount;\n        _seizeTokens;\n        require(verifyLiquidateBorrow, \"liquidateBorrowVerify rejected liquidateBorrow\");\n    }\n\n    function seizeAllowed(\n        address _cTokenCollateral,\n        address _cTokenBorrowed,\n        address _borrower,\n        address _liquidator,\n        uint _seizeTokens) public returns (uint) {\n        _cTokenCollateral;\n        _cTokenBorrowed;\n        _liquidator;\n        _borrower;\n        _seizeTokens;\n        return allowSeize ? noError : opaqueError;\n    }\n\n    function seizeVerify(\n        address _cTokenCollateral,\n        address _cTokenBorrowed,\n        address _liquidator,\n        address _borrower,\n        uint _seizeTokens) external {\n        _cTokenCollateral;\n        _cTokenBorrowed;\n        _liquidator;\n        _borrower;\n        _seizeTokens;\n        require(verifySeize, \"seizeVerify rejected seize\");\n    }\n\n    function transferAllowed(\n        address _cToken,\n        address _src,\n        address _dst,\n        uint _transferTokens) public returns (uint) {\n        _cToken;\n        _src;\n        _dst;\n        _transferTokens;\n        return allowTransfer ? noError : opaqueError;\n    }\n\n    function transferVerify(\n        address _cToken,\n        address _src,\n        address _dst,\n        uint _transferTokens) external {\n        _cToken;\n        _src;\n        _dst;\n        _transferTokens;\n        require(verifyTransfer, \"transferVerify rejected transfer\");\n    }\n\n    /*** Special Liquidation Calculation ***/\n\n    function liquidateCalculateSeizeTokens(\n        address _cTokenBorrowed,\n        address _cTokenCollateral,\n        uint _repayAmount) public view returns (uint, uint) {\n        _cTokenBorrowed;\n        _cTokenCollateral;\n        _repayAmount;\n        return failCalculateSeizeTokens ? (opaqueError, 0) : (noError, calculatedSeizeTokens);\n    }\n\n    /**** Mock Settors ****/\n\n    /*** Policy Hooks ***/\n\n    function setMintAllowed(bool allowMint_) public {\n        allowMint = allowMint_;\n    }\n\n    function setMintVerify(bool verifyMint_) public {\n        verifyMint = verifyMint_;\n    }\n\n    function setRedeemAllowed(bool allowRedeem_) public {\n        allowRedeem = allowRedeem_;\n    }\n\n    function setRedeemVerify(bool verifyRedeem_) public {\n        verifyRedeem = verifyRedeem_;\n    }\n\n    function setBorrowAllowed(bool allowBorrow_) public {\n        allowBorrow = allowBorrow_;\n    }\n\n    function setBorrowVerify(bool verifyBorrow_) public {\n        verifyBorrow = verifyBorrow_;\n    }\n\n    function setRepayBorrowAllowed(bool allowRepayBorrow_) public {\n        allowRepayBorrow = allowRepayBorrow_;\n    }\n\n    function setRepayBorrowVerify(bool verifyRepayBorrow_) public {\n        verifyRepayBorrow = verifyRepayBorrow_;\n    }\n\n    function setLiquidateBorrowAllowed(bool allowLiquidateBorrow_) public {\n        allowLiquidateBorrow = allowLiquidateBorrow_;\n    }\n\n    function setLiquidateBorrowVerify(bool verifyLiquidateBorrow_) public {\n        verifyLiquidateBorrow = verifyLiquidateBorrow_;\n    }\n\n    function setSeizeAllowed(bool allowSeize_) public {\n        allowSeize = allowSeize_;\n    }\n\n    function setSeizeVerify(bool verifySeize_) public {\n        verifySeize = verifySeize_;\n    }\n\n    function setTransferAllowed(bool allowTransfer_) public {\n        allowTransfer = allowTransfer_;\n    }\n\n    function setTransferVerify(bool verifyTransfer_) public {\n        verifyTransfer = verifyTransfer_;\n    }\n\n    /*** Liquidity/Liquidation Calculations ***/\n\n    function setCalculatedSeizeTokens(uint seizeTokens_) public {\n        calculatedSeizeTokens = seizeTokens_;\n    }\n\n    function setFailCalculateSeizeTokens(bool shouldFail) public {\n        failCalculateSeizeTokens = shouldFail;\n    }\n}\n\ncontract EchoTypesComptroller is UnitrollerAdminStorage {\n    function stringy(string memory s) public pure returns(string memory) {\n        return s;\n    }\n\n    function addresses(address a) public pure returns(address) {\n        return a;\n    }\n\n    function booly(bool b) public pure returns(bool) {\n        return b;\n    }\n\n    function listOInts(uint[] memory u) public pure returns(uint[] memory) {\n        return u;\n    }\n\n    function reverty() public pure {\n        require(false, \"gotcha sucka\");\n    }\n\n    function becomeBrains(address payable unitroller) public {\n        Unitroller(unitroller)._acceptImplementation();\n    }\n}\n",
  "sourcePath": "/Users/yanyichun/project/Savings/contracts/compound/test/Contracts/ComptrollerHarness.sol",
  "compiler": {
    "name": "solc",
    "version": "0.5.14+commit.01f1aaa4.Emscripten.clang"
  },
  "schemaVersion": "3.2.3",
  "updatedAt": "2021-02-25T05:30:06.429Z",
  "devdoc": {
    "methods": {}
  },
  "userdoc": {
    "methods": {}
  }
}