{
  "contractName": "ETHPerFIN",
  "abi": [
    {
      "constant": true,
      "inputs": [],
      "name": "FIN",
      "outputs": [
        {
          "internalType": "address",
          "name": "",
          "type": "address"
        }
      ],
      "payable": false,
      "stateMutability": "view",
      "type": "function"
    },
    {
      "constant": true,
      "inputs": [],
      "name": "WETH",
      "outputs": [
        {
          "internalType": "address",
          "name": "",
          "type": "address"
        }
      ],
      "payable": false,
      "stateMutability": "view",
      "type": "function"
    },
    {
      "constant": true,
      "inputs": [],
      "name": "uniswap",
      "outputs": [
        {
          "internalType": "address",
          "name": "",
          "type": "address"
        }
      ],
      "payable": false,
      "stateMutability": "view",
      "type": "function"
    },
    {
      "constant": true,
      "inputs": [],
      "name": "latestAnswer",
      "outputs": [
        {
          "internalType": "int256",
          "name": "",
          "type": "int256"
        }
      ],
      "payable": false,
      "stateMutability": "view",
      "type": "function"
    }
  ],
  "bytecode": "0x6080604052600080546001600160a01b031990811673054f76beed60ab6dbeb23502178c52d6c5debe401790915560018054821673c02aaa39b223fe8d0a0e5c4f27ead9083c756cc21790556002805490911673486792bcdb13f8aacf85288d98850fa2804f95c717905534801561007657600080fd5b50610396806100866000396000f3fe608060405234801561001057600080fd5b506004361061004c5760003560e01c80632681f7e4146100515780634eac9d861461007557806350d25bcd1461007d578063ad5c464814610097575b600080fd5b61005961009f565b604080516001600160a01b039092168252519081900360200190f35b6100596100ae565b6100856100bd565b60408051918252519081900360200190f35b6100596101f0565b6002546001600160a01b031681565b6000546001600160a01b031681565b60008054600254604080516370a0823160e01b81526001600160a01b0392831660048201529051849392909216916370a0823191602480820192602092909190829003018186803b15801561011157600080fd5b505afa158015610125573d6000803e3d6000fd5b505050506040513d602081101561013b57600080fd5b5051600154600254604080516370a0823160e01b81526001600160a01b039283166004820152905193945060009391909216916370a08231916024808301926020929190829003018186803b15801561019357600080fd5b505afa1580156101a7573d6000803e3d6000fd5b505050506040513d60208110156101bd57600080fd5b505190506101e9826101dd83670de0b6b3a764000063ffffffff6101ff16565b9063ffffffff61026116565b9250505090565b6001546001600160a01b031681565b60008261020e5750600061025b565b8282028284828161021b57fe5b04146102585760405162461bcd60e51b81526004018080602001828103825260218152602001806103416021913960400191505060405180910390fd5b90505b92915050565b600061025883836040518060400160405280601a81526020017f536166654d6174683a206469766973696f6e206279207a65726f0000000000008152506000818361032a5760405162461bcd60e51b81526004018080602001828103825283818151815260200191508051906020019080838360005b838110156102ef5781810151838201526020016102d7565b50505050905090810190601f16801561031c5780820380516001836020036101000a031916815260200191505b509250505060405180910390fd5b50600083858161033657fe5b049594505050505056fe536166654d6174683a206d756c7469706c69636174696f6e206f766572666c6f77a265627a7a72315820d066d8e56c83b705445614367ce5c2a970ee9439496beb6c9f70ca40a68d854264736f6c634300050e0032",
  "source": "pragma solidity 0.5.14;\n\nimport \"openzeppelin-solidity/contracts/math/SafeMath.sol\";\n// import \"../config/Constant.sol\";\n\ninterface mockERC20InterfaceFIN{\n    function balanceOf(address owner) external view returns (uint);\n}\n\ncontract ETHPerFIN {\n    using SafeMath for uint256;\n    \n    // Constant public constants;\n    \n    address public FIN = 0x054f76beED60AB6dBEb23502178C52d6C5dEbE40;\n    address public WETH = 0xC02aaA39b223FE8D0A0e5C4F27eAD9083C756Cc2;\n    address public uniswap = 0x486792bcdb13F8aaCf85288D98850FA2804F95c7;\n    \n    function latestAnswer() public view returns (int256){\n        uint balance0 = mockERC20InterfaceFIN(FIN).balanceOf(uniswap); // 383328811522809054672340\n        uint balance1 = mockERC20InterfaceFIN(WETH).balanceOf(uniswap); // 646683755097326209560\n        return int(balance1.mul(10 ** 18).div(balance0));\n    }\n}",
  "sourcePath": "/Users/yanyichun/project/Savings/contracts/oracle/ETHPerFIN.sol",
  "compiler": {
    "name": "solc",
    "version": "0.5.14+commit.01f1aaa4.Emscripten.clang"
  },
  "schemaVersion": "3.2.3",
  "updatedAt": "2021-02-25T05:30:06.506Z",
  "devdoc": {
    "methods": {}
  },
  "userdoc": {
    "methods": {}
  }
}