{
  "contractName": "ETHPerLPToken",
  "abi": [
    {
      "constant": true,
      "inputs": [],
      "name": "FIN_LP",
      "outputs": [
        {
          "internalType": "address",
          "name": "",
          "type": "address"
        }
      ],
      "payable": false,
      "stateMutability": "view",
      "type": "function"
    },
    {
      "constant": true,
      "inputs": [],
      "name": "WETH",
      "outputs": [
        {
          "internalType": "address",
          "name": "",
          "type": "address"
        }
      ],
      "payable": false,
      "stateMutability": "view",
      "type": "function"
    },
    {
      "constant": true,
      "inputs": [],
      "name": "latestAnswer",
      "outputs": [
        {
          "internalType": "int256",
          "name": "",
          "type": "int256"
        }
      ],
      "payable": false,
      "stateMutability": "view",
      "type": "function"
    }
  ],
  "bytecode": "0x6080604052600080546001600160a01b031990811673c02aaa39b223fe8d0a0e5c4f27ead9083c756cc2179091556001805490911673486792bcdb13f8aacf85288d98850fa2804f95c717905534801561005857600080fd5b5061037a806100686000396000f3fe608060405234801561001057600080fd5b50600436106100415760003560e01c806350d25bcd14610046578063a5cd5e4714610060578063ad5c464814610084575b600080fd5b61004e61008c565b60408051918252519081900360200190f35b6100686101c5565b604080516001600160a01b039092168252519081900360200190f35b6100686101d4565b60008054600154604080516370a0823160e01b81526001600160a01b0392831660048201529051849392909216916370a0823191602480820192602092909190829003018186803b1580156100e057600080fd5b505afa1580156100f4573d6000803e3d6000fd5b505050506040513d602081101561010a57600080fd5b5051600154604080516318160ddd60e01b815290519293506000926001600160a01b03909216916318160ddd91600480820192602092909190829003018186803b15801561015757600080fd5b505afa15801561016b573d6000803e3d6000fd5b505050506040513d602081101561018157600080fd5b505190506101be816101b2670de0b6b3a76400006101a686600263ffffffff6101e316565b9063ffffffff6101e316565b9063ffffffff61024516565b9250505090565b6001546001600160a01b031681565b6000546001600160a01b031681565b6000826101f25750600061023f565b828202828482816101ff57fe5b041461023c5760405162461bcd60e51b81526004018080602001828103825260218152602001806103256021913960400191505060405180910390fd5b90505b92915050565b600061023c83836040518060400160405280601a81526020017f536166654d6174683a206469766973696f6e206279207a65726f0000000000008152506000818361030e5760405162461bcd60e51b81526004018080602001828103825283818151815260200191508051906020019080838360005b838110156102d35781810151838201526020016102bb565b50505050905090810190601f1680156103005780820380516001836020036101000a031916815260200191505b509250505060405180910390fd5b50600083858161031a57fe5b049594505050505056fe536166654d6174683a206d756c7469706c69636174696f6e206f766572666c6f77a265627a7a72315820d9a38e2082446f6c5e93365db52cbd109c62ded62aa71009ab2c332070427f1664736f6c634300050e0032",
  "source": "pragma solidity 0.5.14;\n\nimport \"openzeppelin-solidity/contracts/math/SafeMath.sol\";\n\ninterface mockERC20InterfaceLP{\n    function balanceOf(address owner) external view returns (uint);\n    function totalSupply() external view returns (uint256);\n}\n\ncontract ETHPerLPToken {\n    using SafeMath for uint256;\n    \n    address public WETH = 0xC02aaA39b223FE8D0A0e5C4F27eAD9083C756Cc2;\n    address public FIN_LP = 0x486792bcdb13F8aaCf85288D98850FA2804F95c7;\n    \n    function latestAnswer() public view returns (int256){\n        uint balance = mockERC20InterfaceLP(WETH).balanceOf(FIN_LP);\n        uint totalSupply = mockERC20InterfaceLP(FIN_LP).totalSupply();\n        return int(balance.mul(2).mul(10 ** 18).div(totalSupply));\n    }\n}",
  "sourcePath": "/Users/yanyichun/project/Savings/contracts/oracle/ETHPerLPToken.sol",
  "compiler": {
    "name": "solc",
    "version": "0.5.14+commit.01f1aaa4.Emscripten.clang"
  },
  "schemaVersion": "3.2.3",
  "updatedAt": "2021-02-25T05:55:41.111Z",
  "devdoc": {
    "methods": {}
  },
  "userdoc": {
    "methods": {}
  }
}