{
  "contractName": "FaucetTokenReEntrantHarness",
  "abi": [
    {
      "inputs": [
        {
          "internalType": "uint256",
          "name": "_initialAmount",
          "type": "uint256"
        },
        {
          "internalType": "string",
          "name": "_tokenName",
          "type": "string"
        },
        {
          "internalType": "uint8",
          "name": "_decimalUnits",
          "type": "uint8"
        },
        {
          "internalType": "string",
          "name": "_tokenSymbol",
          "type": "string"
        },
        {
          "internalType": "bytes",
          "name": "_reEntryCallData",
          "type": "bytes"
        },
        {
          "internalType": "string",
          "name": "_reEntryFun",
          "type": "string"
        }
      ],
      "payable": false,
      "stateMutability": "nonpayable",
      "type": "constructor"
    },
    {
      "anonymous": false,
      "inputs": [
        {
          "indexed": true,
          "internalType": "address",
          "name": "owner",
          "type": "address"
        },
        {
          "indexed": true,
          "internalType": "address",
          "name": "spender",
          "type": "address"
        },
        {
          "indexed": false,
          "internalType": "uint256",
          "name": "value",
          "type": "uint256"
        }
      ],
      "name": "Approval",
      "type": "event"
    },
    {
      "anonymous": false,
      "inputs": [
        {
          "indexed": true,
          "internalType": "address",
          "name": "from",
          "type": "address"
        },
        {
          "indexed": true,
          "internalType": "address",
          "name": "to",
          "type": "address"
        },
        {
          "indexed": false,
          "internalType": "uint256",
          "name": "value",
          "type": "uint256"
        }
      ],
      "name": "Transfer",
      "type": "event"
    },
    {
      "constant": true,
      "inputs": [],
      "name": "decimals",
      "outputs": [
        {
          "internalType": "uint8",
          "name": "",
          "type": "uint8"
        }
      ],
      "payable": false,
      "stateMutability": "view",
      "type": "function"
    },
    {
      "constant": true,
      "inputs": [],
      "name": "name",
      "outputs": [
        {
          "internalType": "string",
          "name": "",
          "type": "string"
        }
      ],
      "payable": false,
      "stateMutability": "view",
      "type": "function"
    },
    {
      "constant": true,
      "inputs": [],
      "name": "reEntryCallData",
      "outputs": [
        {
          "internalType": "bytes",
          "name": "",
          "type": "bytes"
        }
      ],
      "payable": false,
      "stateMutability": "view",
      "type": "function"
    },
    {
      "constant": true,
      "inputs": [],
      "name": "reEntryFun",
      "outputs": [
        {
          "internalType": "string",
          "name": "",
          "type": "string"
        }
      ],
      "payable": false,
      "stateMutability": "view",
      "type": "function"
    },
    {
      "constant": true,
      "inputs": [],
      "name": "symbol",
      "outputs": [
        {
          "internalType": "string",
          "name": "",
          "type": "string"
        }
      ],
      "payable": false,
      "stateMutability": "view",
      "type": "function"
    },
    {
      "constant": false,
      "inputs": [
        {
          "internalType": "address",
          "name": "_owner",
          "type": "address"
        },
        {
          "internalType": "uint256",
          "name": "value",
          "type": "uint256"
        }
      ],
      "name": "allocateTo",
      "outputs": [],
      "payable": false,
      "stateMutability": "nonpayable",
      "type": "function"
    },
    {
      "constant": false,
      "inputs": [],
      "name": "totalSupply",
      "outputs": [
        {
          "internalType": "uint256",
          "name": "",
          "type": "uint256"
        }
      ],
      "payable": false,
      "stateMutability": "nonpayable",
      "type": "function"
    },
    {
      "constant": false,
      "inputs": [
        {
          "internalType": "address",
          "name": "owner",
          "type": "address"
        },
        {
          "internalType": "address",
          "name": "spender",
          "type": "address"
        }
      ],
      "name": "allowance",
      "outputs": [
        {
          "internalType": "uint256",
          "name": "remaining",
          "type": "uint256"
        }
      ],
      "payable": false,
      "stateMutability": "nonpayable",
      "type": "function"
    },
    {
      "constant": false,
      "inputs": [
        {
          "internalType": "address",
          "name": "spender",
          "type": "address"
        },
        {
          "internalType": "uint256",
          "name": "amount",
          "type": "uint256"
        }
      ],
      "name": "approve",
      "outputs": [
        {
          "internalType": "bool",
          "name": "success",
          "type": "bool"
        }
      ],
      "payable": false,
      "stateMutability": "nonpayable",
      "type": "function"
    },
    {
      "constant": false,
      "inputs": [
        {
          "internalType": "address",
          "name": "owner",
          "type": "address"
        }
      ],
      "name": "balanceOf",
      "outputs": [
        {
          "internalType": "uint256",
          "name": "balance",
          "type": "uint256"
        }
      ],
      "payable": false,
      "stateMutability": "nonpayable",
      "type": "function"
    },
    {
      "constant": false,
      "inputs": [
        {
          "internalType": "address",
          "name": "dst",
          "type": "address"
        },
        {
          "internalType": "uint256",
          "name": "amount",
          "type": "uint256"
        }
      ],
      "name": "transfer",
      "outputs": [
        {
          "internalType": "bool",
          "name": "success",
          "type": "bool"
        }
      ],
      "payable": false,
      "stateMutability": "nonpayable",
      "type": "function"
    },
    {
      "constant": false,
      "inputs": [
        {
          "internalType": "address",
          "name": "src",
          "type": "address"
        },
        {
          "internalType": "address",
          "name": "dst",
          "type": "address"
        },
        {
          "internalType": "uint256",
          "name": "amount",
          "type": "uint256"
        }
      ],
      "name": "transferFrom",
      "outputs": [
        {
          "internalType": "bool",
          "name": "success",
          "type": "bool"
        }
      ],
      "payable": false,
      "stateMutability": "nonpayable",
      "type": "function"
    }
  ],
  "bytecode": "0x60806040523480156200001157600080fd5b506040516200181638038062001816833981810160405260c08110156200003757600080fd5b8151602083018051604051929492938301929190846401000000008211156200005f57600080fd5b9083019060208201858111156200007557600080fd5b82516401000000008111828201881017156200009057600080fd5b82525081516020918201929091019080838360005b83811015620000bf578181015183820152602001620000a5565b50505050905090810190601f168015620000ed5780820380516001836020036101000a031916815260200191505b506040818152602083015192018051929491939192846401000000008211156200011657600080fd5b9083019060208201858111156200012c57600080fd5b82516401000000008111828201881017156200014757600080fd5b82525081516020918201929091019080838360005b83811015620001765781810151838201526020016200015c565b50505050905090810190601f168015620001a45780820380516001836020036101000a031916815260200191505b5060405260200180516040519392919084640100000000821115620001c857600080fd5b908301906020820185811115620001de57600080fd5b8251640100000000811182820188101715620001f957600080fd5b82525081516020918201929091019080838360005b83811015620002285781810151838201526020016200020e565b50505050905090810190601f168015620002565780820380516001836020036101000a031916815260200191505b50604052602001805160405193929190846401000000008211156200027a57600080fd5b9083019060208201858111156200029057600080fd5b8251640100000000811182820188101715620002ab57600080fd5b82525081516020918201929091019080838360005b83811015620002da578181015183820152602001620002c0565b50505050905090810190601f168015620003085780820380516001836020036101000a031916815260200191505b50604090815260038a9055336000908152600560209081529181208b905589516200033c955090935090890191506200039a565b508251620003529060019060208601906200039a565b506002805460ff191660ff86161790558151620003779060069060208501906200039a565b5080516200038d9060079060208401906200039a565b505050505050506200043f565b828054600181600116156101000203166002900490600052602060002090601f016020900481019282601f10620003dd57805160ff19168380011785556200040d565b828001600101855582156200040d579182015b828111156200040d578251825591602001919060010190620003f0565b506200041b9291506200041f565b5090565b6200043c91905b808211156200041b576000815560010162000426565b90565b6113c7806200044f6000396000f3fe608060405234801561001057600080fd5b50600436106100b45760003560e01c80636f19d6ff116100715780636f19d6ff1461021257806370a082311461021a57806395d89b4114610240578063a9059cbb14610248578063a952e07114610274578063dd62ed3e1461027c576100b4565b806306fdde03146100b957806308bca56614610136578063095ea7b31461016457806318160ddd146101a457806323b872dd146101be578063313ce567146101f4575b600080fd5b6100c16102aa565b6040805160208082528351818301528351919283929083019185019080838360005b838110156100fb5781810151838201526020016100e3565b50505050905090810190601f1680156101285780820380516001836020036101000a031916815260200191505b509250505060405180910390f35b6101626004803603604081101561014c57600080fd5b506001600160a01b038135169060200135610338565b005b6101906004803603604081101561017a57600080fd5b506001600160a01b038135169060200135610398565b604080519115158252519081900360200190f35b6101ac610555565b60408051918252519081900360200190f35b610190600480360360608110156101d457600080fd5b506001600160a01b0381358116916020810135909116906040013561070c565b6101fc610911565b6040805160ff9092168252519081900360200190f35b6100c161091a565b6101ac6004803603602081101561023057600080fd5b50356001600160a01b0316610975565b6100c1610b3e565b6101906004803603604081101561025e57600080fd5b506001600160a01b038135169060200135610b98565b6100c1610d4d565b6101ac6004803603604081101561029257600080fd5b506001600160a01b0381358116916020013516610da8565b6000805460408051602060026001851615610100026000190190941693909304601f810184900484028201840190925281815292918301828280156103305780601f1061030557610100808354040283529160200191610330565b820191906000526020600020905b81548152906001019060200180831161031357829003601f168201915b505050505081565b6001600160a01b03821660008181526005602090815260409182902080548501905560038054850190558151848152915130927fddf252ad1be2c89b69c2b068fc378daa952ba7f163c4a11628f55a4df523b3ef92908290030190a35050565b604080518082018252600780825266617070726f766560c81b6020808401919091528154845160026001831615610100026000190190921691909104601f810183900483028201830190955284815260009460609391928301828280156104405780601f1061041557610100808354040283529160200191610440565b820191906000526020600020905b81548152906001019060200180831161042357829003601f168201915b505050505090506104518183610f81565b1561053f57604080516020810191829052600090819052610474916007916112f7565b5060006060336001600160a01b0316600660405180828054600181600116156101000203166002900480156104e05780601f106104be5761010080835404028352918201916104e0565b820191906000526020600020905b8154815290600101906020018083116104cc575b50509150506000604051808303816000865af19150503d8060008114610522576040519150601f19603f3d011682016040523d82523d6000602084013e610527565b606091505b5091509150600082141561053c573d60208201fd5b50505b61054a338686611068565b506001949350505050565b604080518082018252600b81526a746f74616c537570706c7960a81b60208083019190915260078054845160026001831615610100026000190190921691909104601f81018490048402820184019095528481526000946060939192918301828280156106035780601f106105d857610100808354040283529160200191610603565b820191906000526020600020905b8154815290600101906020018083116105e657829003601f168201915b505050505090506106148183610f81565b1561070257604080516020810191829052600090819052610637916007916112f7565b5060006060336001600160a01b0316600660405180828054600181600116156101000203166002900480156106a35780601f106106815761010080835404028352918201916106a3565b820191906000526020600020905b81548152906001019060200180831161068f575b50509150506000604051808303816000865af19150503d80600081146106e5576040519150601f19603f3d011682016040523d82523d6000602084013e6106ea565b606091505b509150915060008214156106ff573d60208201fd5b50505b6003549250505090565b604080518082018252600c81526b7472616e7366657246726f6d60a01b60208083019190915260078054845160026001831615610100026000190190921691909104601f81018490048402820184019095528481526000946060939192918301828280156107bb5780601f10610790576101008083540402835291602001916107bb565b820191906000526020600020905b81548152906001019060200180831161079e57829003601f168201915b505050505090506107cc8183610f81565b156108ba576040805160208101918290526000908190526107ef916007916112f7565b5060006060336001600160a01b03166006604051808280546001816001161561010002031660029004801561085b5780601f1061083957610100808354040283529182019161085b565b820191906000526020600020905b815481529060010190602001808311610847575b50509150506000604051808303816000865af19150503d806000811461089d576040519150601f19603f3d011682016040523d82523d6000602084013e6108a2565b606091505b509150915060008214156108b7573d60208201fd5b50505b6108c58686866110f0565b6001600160a01b038616600090815260046020908152604080832033808552925290912054610905918891610900908863ffffffff6111bd16565b611068565b50600195945050505050565b60025460ff1681565b6006805460408051602060026001851615610100026000190190941693909304601f810184900484028201840190925281815292918301828280156103305780601f1061030557610100808354040283529160200191610330565b60408051808201825260098152683130b630b731b2a7b360b91b60208083019190915260078054845160026001831615610100026000190190921691909104601f8101849004840282018401909552848152600094606093919291830182828015610a215780601f106109f657610100808354040283529160200191610a21565b820191906000526020600020905b815481529060010190602001808311610a0457829003601f168201915b50505050509050610a328183610f81565b15610b2057604080516020810191829052600090819052610a55916007916112f7565b5060006060336001600160a01b031660066040518082805460018160011615610100020316600290048015610ac15780601f10610a9f576101008083540402835291820191610ac1565b820191906000526020600020905b815481529060010190602001808311610aad575b50509150506000604051808303816000865af19150503d8060008114610b03576040519150601f19603f3d011682016040523d82523d6000602084013e610b08565b606091505b50915091506000821415610b1d573d60208201fd5b50505b5050506001600160a01b031660009081526005602052604090205490565b60018054604080516020600284861615610100026000190190941693909304601f810184900484028201840190925281815292918301828280156103305780601f1061030557610100808354040283529160200191610330565b60408051808201825260088152673a3930b739b332b960c11b60208083019190915260078054845160026001831615610100026000190190921691909104601f8101849004840282018401909552848152600094606093919291830182828015610c435780601f10610c1857610100808354040283529160200191610c43565b820191906000526020600020905b815481529060010190602001808311610c2657829003601f168201915b50505050509050610c548183610f81565b15610d4257604080516020810191829052600090819052610c77916007916112f7565b5060006060336001600160a01b031660066040518082805460018160011615610100020316600290048015610ce35780601f10610cc1576101008083540402835291820191610ce3565b820191906000526020600020905b815481529060010190602001808311610ccf575b50509150506000604051808303816000865af19150503d8060008114610d25576040519150601f19603f3d011682016040523d82523d6000602084013e610d2a565b606091505b50915091506000821415610d3f573d60208201fd5b50505b61054a3386866110f0565b6007805460408051602060026001851615610100026000190190941693909304601f810184900484028201840190925281815292918301828280156103305780601f1061030557610100808354040283529160200191610330565b6040805180820182526009815268616c6c6f77616e636560b81b60208083019190915260078054845160026001831615610100026000190190921691909104601f8101849004840282018401909552848152600094606093919291830182828015610e545780601f10610e2957610100808354040283529160200191610e54565b820191906000526020600020905b815481529060010190602001808311610e3757829003601f168201915b50505050509050610e658183610f81565b15610f5357604080516020810191829052600090819052610e88916007916112f7565b5060006060336001600160a01b031660066040518082805460018160011615610100020316600290048015610ef45780601f10610ed2576101008083540402835291820191610ef4565b820191906000526020600020905b815481529060010190602001808311610ee0575b50509150506000604051808303816000865af19150503d8060008114610f36576040519150601f19603f3d011682016040523d82523d6000602084013e610f3b565b606091505b50915091506000821415610f50573d60208201fd5b50505b5050506001600160a01b03918216600090815260046020908152604080832093909416825291909152205490565b6000816040516020018082805190602001908083835b60208310610fb65780518252601f199092019160209182019101610f97565b6001836020036101000a03801982511681845116808217855250505050505090500191505060405160208183030381529060405280519060200120836040516020018082805190602001908083835b602083106110245780518252601f199092019160209182019101611005565b6001836020036101000a0380198251168184511680821785525050505050509050019150506040516020818303038152906040528051906020012014905092915050565b6001600160a01b03821661107b57600080fd5b6001600160a01b03831661108e57600080fd5b6001600160a01b03808416600081815260046020908152604080832094871680845294825291829020859055815185815291517f8c5be1e5ebec7d5bd14f71427d1e84f3dd0314c0f7b2291e5b200ac8c7c3b9259281900390910190a3505050565b6001600160a01b03821661110357600080fd5b6001600160a01b03831660009081526005602052604090205461112c908263ffffffff6111bd16565b6001600160a01b038085166000908152600560205260408082209390935590841681522054611161908263ffffffff61120616565b6001600160a01b0380841660008181526005602090815260409182902094909455805185815290519193928716927fddf252ad1be2c89b69c2b068fc378daa952ba7f163c4a11628f55a4df523b3ef92918290030190a3505050565b60006111ff83836040518060400160405280601f81526020017f536166654d6174683a207375627472616374696f6e20756e646572666c6f7700815250611260565b9392505050565b6000828201838110156111ff576040805162461bcd60e51b815260206004820152601b60248201527f536166654d6174683a206164646974696f6e206f766572666c6f770000000000604482015290519081900360640190fd5b600081848411156112ef5760405162461bcd60e51b81526004018080602001828103825283818151815260200191508051906020019080838360005b838110156112b457818101518382015260200161129c565b50505050905090810190601f1680156112e15780820380516001836020036101000a031916815260200191505b509250505060405180910390fd5b505050900390565b828054600181600116156101000203166002900490600052602060002090601f016020900481019282601f1061133857805160ff1916838001178555611365565b82800160010185558215611365579182015b8281111561136557825182559160200191906001019061134a565b50611371929150611375565b5090565b61138f91905b80821115611371576000815560010161137b565b9056fea265627a7a72315820bd0cfa73bce2a787cd42b886773d90c8ab107afeced556cbfc1bd9d508b88bd064736f6c634300050e0032",
  "source": "pragma solidity ^0.5.14;\n\nimport \"./ERC20.sol\";\n\n/**\n * @title The Compound Faucet Test Token\n * @author Compound\n * @notice A simple test token that lets anyone get more of it.\n */\ncontract FaucetToken is StandardToken {\n    constructor(uint256 _initialAmount, string memory _tokenName, uint8 _decimalUnits, string memory _tokenSymbol) public\n        StandardToken(_initialAmount, _tokenName, _decimalUnits, _tokenSymbol) {\n    }\n\n    function allocateTo(address _owner, uint256 value) public {\n        balanceOf[_owner] += value;\n        totalSupply += value;\n        emit Transfer(address(this), _owner, value);\n    }\n}\n\n/**\n * @title The Compound Faucet Test Token (non-standard)\n * @author Compound\n * @notice A simple test token that lets anyone get more of it.\n */\ncontract FaucetNonStandardToken is NonStandardToken {\n    constructor(uint256 _initialAmount, string memory _tokenName, uint8 _decimalUnits, string memory _tokenSymbol) public\n        NonStandardToken(_initialAmount, _tokenName, _decimalUnits, _tokenSymbol) {\n    }\n\n    function allocateTo(address _owner, uint256 value) public {\n        balanceOf[_owner] += value;\n        totalSupply += value;\n        emit Transfer(address(this), _owner, value);\n    }\n}\n\n/**\n * @title The Compound Faucet Re-Entrant Test Token\n * @author Compound\n * @notice A test token that is malicious and tries to re-enter callers\n */\ncontract FaucetTokenReEntrantHarness {\n    using SafeMath for uint256;\n\n    event Transfer(address indexed from, address indexed to, uint256 value);\n    event Approval(address indexed owner, address indexed spender, uint256 value);\n\n    string public name;\n    string public symbol;\n    uint8 public decimals;\n    uint256 totalSupply_;\n    mapping (address => mapping (address => uint256)) allowance_;\n    mapping (address => uint256) balanceOf_;\n\n    bytes public reEntryCallData;\n    string public reEntryFun;\n\n    constructor(uint256 _initialAmount, string memory _tokenName, uint8 _decimalUnits, string memory _tokenSymbol, bytes memory _reEntryCallData, string memory _reEntryFun) public {\n        totalSupply_ = _initialAmount;\n        balanceOf_[msg.sender] = _initialAmount;\n        name = _tokenName;\n        symbol = _tokenSymbol;\n        decimals = _decimalUnits;\n        reEntryCallData = _reEntryCallData;\n        reEntryFun = _reEntryFun;\n    }\n\n    modifier reEnter(string memory funName) {\n        string memory _reEntryFun = reEntryFun;\n        if (compareStrings(_reEntryFun, funName)) {\n            reEntryFun = \"\"; // Clear re-entry fun\n            (bool success, bytes memory returndata) = msg.sender.call(reEntryCallData);\n            assembly {\n                if eq(success, 0) {\n                    revert(add(returndata, 0x20), returndatasize())\n                }\n            }\n        }\n\n        _;\n    }\n\n    function compareStrings(string memory a, string memory b) internal pure returns (bool) {\n        return keccak256(abi.encodePacked((a))) == keccak256(abi.encodePacked((b)));\n    }\n\n    function allocateTo(address _owner, uint256 value) public {\n        balanceOf_[_owner] += value;\n        totalSupply_ += value;\n        emit Transfer(address(this), _owner, value);\n    }\n\n    function totalSupply() public reEnter(\"totalSupply\") returns (uint256) {\n        return totalSupply_;\n    }\n\n    function allowance(address owner, address spender) public reEnter(\"allowance\") returns (uint256 remaining) {\n        return allowance_[owner][spender];\n    }\n\n    function approve(address spender, uint256 amount) public reEnter(\"approve\") returns (bool success) {\n        _approve(msg.sender, spender, amount);\n        return true;\n    }\n\n    function balanceOf(address owner) public reEnter(\"balanceOf\") returns (uint256 balance) {\n        return balanceOf_[owner];\n    }\n\n    function transfer(address dst, uint256 amount) public reEnter(\"transfer\") returns (bool success) {\n        _transfer(msg.sender, dst, amount);\n        return true;\n    }\n\n    function transferFrom(address src, address dst, uint256 amount) public reEnter(\"transferFrom\") returns (bool success) {\n        _transfer(src, dst, amount);\n        _approve(src, msg.sender, allowance_[src][msg.sender].sub(amount));\n        return true;\n    }\n\n    function _approve(address owner, address spender, uint256 amount) internal {\n        require(spender != address(0));\n        require(owner != address(0));\n        allowance_[owner][spender] = amount;\n        emit Approval(owner, spender, amount);\n    }\n\n    function _transfer(address src, address dst, uint256 amount) internal {\n        require(dst != address(0));\n        balanceOf_[src] = balanceOf_[src].sub(amount);\n        balanceOf_[dst] = balanceOf_[dst].add(amount);\n        emit Transfer(src, dst, amount);\n    }\n}\n",
  "sourcePath": "/Users/yanyichun/project/Savings/contracts/compound/test/Contracts/FaucetToken.sol",
  "compiler": {
    "name": "solc",
    "version": "0.5.14+commit.01f1aaa4.Emscripten.clang"
  },
  "schemaVersion": "3.2.3",
  "updatedAt": "2021-02-25T05:57:51.482Z",
  "devdoc": {
    "author": "Compound",
    "methods": {},
    "title": "The Compound Faucet Re-Entrant Test Token"
  },
  "userdoc": {
    "methods": {},
    "notice": "A test token that is malicious and tries to re-enter callers"
  }
}