{
  "contractName": "FaucetNonStandardToken",
  "abi": [
    {
      "inputs": [
        {
          "internalType": "uint256",
          "name": "_initialAmount",
          "type": "uint256"
        },
        {
          "internalType": "string",
          "name": "_tokenName",
          "type": "string"
        },
        {
          "internalType": "uint8",
          "name": "_decimalUnits",
          "type": "uint8"
        },
        {
          "internalType": "string",
          "name": "_tokenSymbol",
          "type": "string"
        }
      ],
      "payable": false,
      "stateMutability": "nonpayable",
      "type": "constructor"
    },
    {
      "anonymous": false,
      "inputs": [
        {
          "indexed": true,
          "internalType": "address",
          "name": "owner",
          "type": "address"
        },
        {
          "indexed": true,
          "internalType": "address",
          "name": "spender",
          "type": "address"
        },
        {
          "indexed": false,
          "internalType": "uint256",
          "name": "value",
          "type": "uint256"
        }
      ],
      "name": "Approval",
      "type": "event"
    },
    {
      "anonymous": false,
      "inputs": [
        {
          "indexed": true,
          "internalType": "address",
          "name": "from",
          "type": "address"
        },
        {
          "indexed": true,
          "internalType": "address",
          "name": "to",
          "type": "address"
        },
        {
          "indexed": false,
          "internalType": "uint256",
          "name": "value",
          "type": "uint256"
        }
      ],
      "name": "Transfer",
      "type": "event"
    },
    {
      "constant": true,
      "inputs": [
        {
          "internalType": "address",
          "name": "",
          "type": "address"
        },
        {
          "internalType": "address",
          "name": "",
          "type": "address"
        }
      ],
      "name": "allowance",
      "outputs": [
        {
          "internalType": "uint256",
          "name": "",
          "type": "uint256"
        }
      ],
      "payable": false,
      "stateMutability": "view",
      "type": "function"
    },
    {
      "constant": false,
      "inputs": [
        {
          "internalType": "address",
          "name": "_spender",
          "type": "address"
        },
        {
          "internalType": "uint256",
          "name": "amount",
          "type": "uint256"
        }
      ],
      "name": "approve",
      "outputs": [
        {
          "internalType": "bool",
          "name": "",
          "type": "bool"
        }
      ],
      "payable": false,
      "stateMutability": "nonpayable",
      "type": "function"
    },
    {
      "constant": true,
      "inputs": [
        {
          "internalType": "address",
          "name": "",
          "type": "address"
        }
      ],
      "name": "balanceOf",
      "outputs": [
        {
          "internalType": "uint256",
          "name": "",
          "type": "uint256"
        }
      ],
      "payable": false,
      "stateMutability": "view",
      "type": "function"
    },
    {
      "constant": true,
      "inputs": [],
      "name": "decimals",
      "outputs": [
        {
          "internalType": "uint8",
          "name": "",
          "type": "uint8"
        }
      ],
      "payable": false,
      "stateMutability": "view",
      "type": "function"
    },
    {
      "constant": true,
      "inputs": [],
      "name": "name",
      "outputs": [
        {
          "internalType": "string",
          "name": "",
          "type": "string"
        }
      ],
      "payable": false,
      "stateMutability": "view",
      "type": "function"
    },
    {
      "constant": true,
      "inputs": [],
      "name": "symbol",
      "outputs": [
        {
          "internalType": "string",
          "name": "",
          "type": "string"
        }
      ],
      "payable": false,
      "stateMutability": "view",
      "type": "function"
    },
    {
      "constant": true,
      "inputs": [],
      "name": "totalSupply",
      "outputs": [
        {
          "internalType": "uint256",
          "name": "",
          "type": "uint256"
        }
      ],
      "payable": false,
      "stateMutability": "view",
      "type": "function"
    },
    {
      "constant": false,
      "inputs": [
        {
          "internalType": "address",
          "name": "dst",
          "type": "address"
        },
        {
          "internalType": "uint256",
          "name": "amount",
          "type": "uint256"
        }
      ],
      "name": "transfer",
      "outputs": [],
      "payable": false,
      "stateMutability": "nonpayable",
      "type": "function"
    },
    {
      "constant": false,
      "inputs": [
        {
          "internalType": "address",
          "name": "src",
          "type": "address"
        },
        {
          "internalType": "address",
          "name": "dst",
          "type": "address"
        },
        {
          "internalType": "uint256",
          "name": "amount",
          "type": "uint256"
        }
      ],
      "name": "transferFrom",
      "outputs": [],
      "payable": false,
      "stateMutability": "nonpayable",
      "type": "function"
    },
    {
      "constant": false,
      "inputs": [
        {
          "internalType": "address",
          "name": "_owner",
          "type": "address"
        },
        {
          "internalType": "uint256",
          "name": "value",
          "type": "uint256"
        }
      ],
      "name": "allocateTo",
      "outputs": [],
      "payable": false,
      "stateMutability": "nonpayable",
      "type": "function"
    }
  ],
  "bytecode": "0x608060405234801561001057600080fd5b50604051610ad2380380610ad28339818101604052608081101561003357600080fd5b81516020830180516040519294929383019291908464010000000082111561005a57600080fd5b90830190602082018581111561006f57600080fd5b825164010000000081118282018810171561008957600080fd5b82525081516020918201929091019080838360005b838110156100b657818101518382015260200161009e565b50505050905090810190601f1680156100e35780820380516001836020036101000a031916815260200191505b5060408181526020830151920180519294919391928464010000000082111561010b57600080fd5b90830190602082018581111561012057600080fd5b825164010000000081118282018810171561013a57600080fd5b82525081516020918201929091019080838360005b8381101561016757818101518382015260200161014f565b50505050905090810190601f1680156101945780820380516001836020036101000a031916815260200191505b506040908152600388905533600090815260056020908152918120899055875189955088945087935086926101cd929190860190610203565b5080516101e1906002906020840190610203565b50506001805460ff191660ff929092169190911790555061029e945050505050565b828054600181600116156101000203166002900490600052602060002090601f016020900481019282601f1061024457805160ff1916838001178555610271565b82800160010185558215610271579182015b82811115610271578251825591602001919060010190610256565b5061027d929150610281565b5090565b61029b91905b8082111561027d5760008155600101610287565b90565b610825806102ad6000396000f3fe608060405234801561001057600080fd5b506004361061009e5760003560e01c8063313ce56711610066578063313ce567146101de57806370a08231146101fc57806395d89b4114610222578063a9059cbb1461022a578063dd62ed3e146102565761009e565b806306fdde03146100a357806308bca56614610120578063095ea7b31461014e57806318160ddd1461018e57806323b872dd146101a8575b600080fd5b6100ab610284565b6040805160208082528351818301528351919283929083019185019080838360005b838110156100e55781810151838201526020016100cd565b50505050905090810190601f1680156101125780820380516001836020036101000a031916815260200191505b509250505060405180910390f35b61014c6004803603604081101561013657600080fd5b506001600160a01b038135169060200135610312565b005b61017a6004803603604081101561016457600080fd5b506001600160a01b038135169060200135610372565b604080519115158252519081900360200190f35b6101966103d8565b60408051918252519081900360200190f35b61014c600480360360608110156101be57600080fd5b506001600160a01b038135811691602081013590911690604001356103de565b6101e6610566565b6040805160ff9092168252519081900360200190f35b6101966004803603602081101561021257600080fd5b50356001600160a01b031661056f565b6100ab610581565b61014c6004803603604081101561024057600080fd5b506001600160a01b0381351690602001356105d9565b6101966004803603604081101561026c57600080fd5b506001600160a01b03813581169160200135166106de565b6000805460408051602060026001851615610100026000190190941693909304601f8101849004840282018401909252818152929183018282801561030a5780601f106102df5761010080835404028352916020019161030a565b820191906000526020600020905b8154815290600101906020018083116102ed57829003601f168201915b505050505081565b6001600160a01b03821660008181526005602090815260409182902080548501905560038054850190558151848152915130927fddf252ad1be2c89b69c2b068fc378daa952ba7f163c4a11628f55a4df523b3ef92908290030190a35050565b3360008181526004602090815260408083206001600160a01b038716808552908352818420869055815186815291519394909390927f8c5be1e5ebec7d5bd14f71427d1e84f3dd0314c0f7b2291e5b200ac8c7c3b925928290030190a350600192915050565b60035481565b6040805180820182526016815275496e73756666696369656e7420616c6c6f77616e636560501b6020808301919091526001600160a01b038616600090815260048252838120338252909152919091205461044091839063ffffffff6106fb16565b6001600160a01b0384166000818152600460209081526040808320338452825280832094909455835180850185526014815273496e73756666696369656e742062616c616e636560601b818301529282526005905291909120546104ab91839063ffffffff6106fb16565b6001600160a01b0380851660009081526005602081815260408084209590955584518086018652601081526f42616c616e6365206f766572666c6f7760801b81830152938716835252919091205461050a91839063ffffffff61079216565b6001600160a01b0380841660008181526005602090815260409182902094909455805185815290519193928716927fddf252ad1be2c89b69c2b068fc378daa952ba7f163c4a11628f55a4df523b3ef92918290030190a3505050565b60015460ff1681565b60056020526000908152604090205481565b6002805460408051602060018416156101000260001901909316849004601f8101849004840282018401909252818152929183018282801561030a5780601f106102df5761010080835404028352916020019161030a565b6040805180820182526014815273496e73756666696369656e742062616c616e636560601b6020808301919091523360009081526005909152919091205461062891839063ffffffff6106fb16565b3360009081526005602081815260408084209490945583518085018552601081526f42616c616e6365206f766572666c6f7760801b818301526001600160a01b03871684529190529190205461068591839063ffffffff61079216565b6001600160a01b0383166000818152600560209081526040918290209390935580518481529051919233927fddf252ad1be2c89b69c2b068fc378daa952ba7f163c4a11628f55a4df523b3ef9281900390910190a35050565b600460209081526000928352604080842090915290825290205481565b6000818484111561078a5760405162461bcd60e51b81526004018080602001828103825283818151815260200191508051906020019080838360005b8381101561074f578181015183820152602001610737565b50505050905090810190601f16801561077c5780820380516001836020036101000a031916815260200191505b509250505060405180910390fd5b505050900390565b600083830182858210156107e75760405162461bcd60e51b815260206004820181815283516024840152835190928392604490910191908501908083836000831561074f578181015183820152602001610737565b5094935050505056fea265627a7a72315820167f341b0c7cdf2e8e28c8a021fc0a91f4a7ae825deaa3a26d2bc3bb53bf7b9464736f6c634300050e0032",
  "source": "pragma solidity ^0.5.14;\n\nimport \"./ERC20.sol\";\n\n/**\n * @title The Compound Faucet Test Token\n * @author Compound\n * @notice A simple test token that lets anyone get more of it.\n */\ncontract FaucetToken is StandardToken {\n    constructor(uint256 _initialAmount, string memory _tokenName, uint8 _decimalUnits, string memory _tokenSymbol) public\n        StandardToken(_initialAmount, _tokenName, _decimalUnits, _tokenSymbol) {\n    }\n\n    function allocateTo(address _owner, uint256 value) public {\n        balanceOf[_owner] += value;\n        totalSupply += value;\n        emit Transfer(address(this), _owner, value);\n    }\n}\n\n/**\n * @title The Compound Faucet Test Token (non-standard)\n * @author Compound\n * @notice A simple test token that lets anyone get more of it.\n */\ncontract FaucetNonStandardToken is NonStandardToken {\n    constructor(uint256 _initialAmount, string memory _tokenName, uint8 _decimalUnits, string memory _tokenSymbol) public\n        NonStandardToken(_initialAmount, _tokenName, _decimalUnits, _tokenSymbol) {\n    }\n\n    function allocateTo(address _owner, uint256 value) public {\n        balanceOf[_owner] += value;\n        totalSupply += value;\n        emit Transfer(address(this), _owner, value);\n    }\n}\n\n/**\n * @title The Compound Faucet Re-Entrant Test Token\n * @author Compound\n * @notice A test token that is malicious and tries to re-enter callers\n */\ncontract FaucetTokenReEntrantHarness {\n    using SafeMath for uint256;\n\n    event Transfer(address indexed from, address indexed to, uint256 value);\n    event Approval(address indexed owner, address indexed spender, uint256 value);\n\n    string public name;\n    string public symbol;\n    uint8 public decimals;\n    uint256 totalSupply_;\n    mapping (address => mapping (address => uint256)) allowance_;\n    mapping (address => uint256) balanceOf_;\n\n    bytes public reEntryCallData;\n    string public reEntryFun;\n\n    constructor(uint256 _initialAmount, string memory _tokenName, uint8 _decimalUnits, string memory _tokenSymbol, bytes memory _reEntryCallData, string memory _reEntryFun) public {\n        totalSupply_ = _initialAmount;\n        balanceOf_[msg.sender] = _initialAmount;\n        name = _tokenName;\n        symbol = _tokenSymbol;\n        decimals = _decimalUnits;\n        reEntryCallData = _reEntryCallData;\n        reEntryFun = _reEntryFun;\n    }\n\n    modifier reEnter(string memory funName) {\n        string memory _reEntryFun = reEntryFun;\n        if (compareStrings(_reEntryFun, funName)) {\n            reEntryFun = \"\"; // Clear re-entry fun\n            (bool success, bytes memory returndata) = msg.sender.call(reEntryCallData);\n            assembly {\n                if eq(success, 0) {\n                    revert(add(returndata, 0x20), returndatasize())\n                }\n            }\n        }\n\n        _;\n    }\n\n    function compareStrings(string memory a, string memory b) internal pure returns (bool) {\n        return keccak256(abi.encodePacked((a))) == keccak256(abi.encodePacked((b)));\n    }\n\n    function allocateTo(address _owner, uint256 value) public {\n        balanceOf_[_owner] += value;\n        totalSupply_ += value;\n        emit Transfer(address(this), _owner, value);\n    }\n\n    function totalSupply() public reEnter(\"totalSupply\") returns (uint256) {\n        return totalSupply_;\n    }\n\n    function allowance(address owner, address spender) public reEnter(\"allowance\") returns (uint256 remaining) {\n        return allowance_[owner][spender];\n    }\n\n    function approve(address spender, uint256 amount) public reEnter(\"approve\") returns (bool success) {\n        _approve(msg.sender, spender, amount);\n        return true;\n    }\n\n    function balanceOf(address owner) public reEnter(\"balanceOf\") returns (uint256 balance) {\n        return balanceOf_[owner];\n    }\n\n    function transfer(address dst, uint256 amount) public reEnter(\"transfer\") returns (bool success) {\n        _transfer(msg.sender, dst, amount);\n        return true;\n    }\n\n    function transferFrom(address src, address dst, uint256 amount) public reEnter(\"transferFrom\") returns (bool success) {\n        _transfer(src, dst, amount);\n        _approve(src, msg.sender, allowance_[src][msg.sender].sub(amount));\n        return true;\n    }\n\n    function _approve(address owner, address spender, uint256 amount) internal {\n        require(spender != address(0));\n        require(owner != address(0));\n        allowance_[owner][spender] = amount;\n        emit Approval(owner, spender, amount);\n    }\n\n    function _transfer(address src, address dst, uint256 amount) internal {\n        require(dst != address(0));\n        balanceOf_[src] = balanceOf_[src].sub(amount);\n        balanceOf_[dst] = balanceOf_[dst].add(amount);\n        emit Transfer(src, dst, amount);\n    }\n}\n",
  "sourcePath": "/Users/yanyichun/project/Savings/contracts/compound/test/Contracts/FaucetToken.sol",
  "compiler": {
    "name": "solc",
    "version": "0.5.14+commit.01f1aaa4.Emscripten.clang"
  },
  "schemaVersion": "3.2.3",
  "updatedAt": "2021-02-25T05:40:16.256Z",
  "devdoc": {
    "author": "Compound",
    "methods": {},
    "title": "The Compound Faucet Test Token (non-standard)"
  },
  "userdoc": {
    "methods": {},
    "notice": "A simple test token that lets anyone get more of it."
  }
}