{
  "contractName": "FeeToken",
  "abi": [
    {
      "inputs": [
        {
          "internalType": "uint256",
          "name": "_initialAmount",
          "type": "uint256"
        },
        {
          "internalType": "string",
          "name": "_tokenName",
          "type": "string"
        },
        {
          "internalType": "uint8",
          "name": "_decimalUnits",
          "type": "uint8"
        },
        {
          "internalType": "string",
          "name": "_tokenSymbol",
          "type": "string"
        },
        {
          "internalType": "uint256",
          "name": "_basisPointFee",
          "type": "uint256"
        },
        {
          "internalType": "address",
          "name": "_owner",
          "type": "address"
        }
      ],
      "payable": false,
      "stateMutability": "nonpayable",
      "type": "constructor"
    },
    {
      "anonymous": false,
      "inputs": [
        {
          "indexed": true,
          "internalType": "address",
          "name": "owner",
          "type": "address"
        },
        {
          "indexed": true,
          "internalType": "address",
          "name": "spender",
          "type": "address"
        },
        {
          "indexed": false,
          "internalType": "uint256",
          "name": "value",
          "type": "uint256"
        }
      ],
      "name": "Approval",
      "type": "event"
    },
    {
      "anonymous": false,
      "inputs": [
        {
          "indexed": true,
          "internalType": "address",
          "name": "from",
          "type": "address"
        },
        {
          "indexed": true,
          "internalType": "address",
          "name": "to",
          "type": "address"
        },
        {
          "indexed": false,
          "internalType": "uint256",
          "name": "value",
          "type": "uint256"
        }
      ],
      "name": "Transfer",
      "type": "event"
    },
    {
      "constant": false,
      "inputs": [
        {
          "internalType": "address",
          "name": "_owner",
          "type": "address"
        },
        {
          "internalType": "uint256",
          "name": "value",
          "type": "uint256"
        }
      ],
      "name": "allocateTo",
      "outputs": [],
      "payable": false,
      "stateMutability": "nonpayable",
      "type": "function"
    },
    {
      "constant": true,
      "inputs": [
        {
          "internalType": "address",
          "name": "",
          "type": "address"
        },
        {
          "internalType": "address",
          "name": "",
          "type": "address"
        }
      ],
      "name": "allowance",
      "outputs": [
        {
          "internalType": "uint256",
          "name": "",
          "type": "uint256"
        }
      ],
      "payable": false,
      "stateMutability": "view",
      "type": "function"
    },
    {
      "constant": false,
      "inputs": [
        {
          "internalType": "address",
          "name": "_spender",
          "type": "address"
        },
        {
          "internalType": "uint256",
          "name": "amount",
          "type": "uint256"
        }
      ],
      "name": "approve",
      "outputs": [
        {
          "internalType": "bool",
          "name": "",
          "type": "bool"
        }
      ],
      "payable": false,
      "stateMutability": "nonpayable",
      "type": "function"
    },
    {
      "constant": true,
      "inputs": [
        {
          "internalType": "address",
          "name": "",
          "type": "address"
        }
      ],
      "name": "balanceOf",
      "outputs": [
        {
          "internalType": "uint256",
          "name": "",
          "type": "uint256"
        }
      ],
      "payable": false,
      "stateMutability": "view",
      "type": "function"
    },
    {
      "constant": true,
      "inputs": [],
      "name": "basisPointFee",
      "outputs": [
        {
          "internalType": "uint256",
          "name": "",
          "type": "uint256"
        }
      ],
      "payable": false,
      "stateMutability": "view",
      "type": "function"
    },
    {
      "constant": true,
      "inputs": [],
      "name": "decimals",
      "outputs": [
        {
          "internalType": "uint8",
          "name": "",
          "type": "uint8"
        }
      ],
      "payable": false,
      "stateMutability": "view",
      "type": "function"
    },
    {
      "constant": true,
      "inputs": [],
      "name": "name",
      "outputs": [
        {
          "internalType": "string",
          "name": "",
          "type": "string"
        }
      ],
      "payable": false,
      "stateMutability": "view",
      "type": "function"
    },
    {
      "constant": true,
      "inputs": [],
      "name": "owner",
      "outputs": [
        {
          "internalType": "address",
          "name": "",
          "type": "address"
        }
      ],
      "payable": false,
      "stateMutability": "view",
      "type": "function"
    },
    {
      "constant": true,
      "inputs": [],
      "name": "symbol",
      "outputs": [
        {
          "internalType": "string",
          "name": "",
          "type": "string"
        }
      ],
      "payable": false,
      "stateMutability": "view",
      "type": "function"
    },
    {
      "constant": true,
      "inputs": [],
      "name": "totalSupply",
      "outputs": [
        {
          "internalType": "uint256",
          "name": "",
          "type": "uint256"
        }
      ],
      "payable": false,
      "stateMutability": "view",
      "type": "function"
    },
    {
      "constant": false,
      "inputs": [
        {
          "internalType": "address",
          "name": "dst",
          "type": "address"
        },
        {
          "internalType": "uint256",
          "name": "amount",
          "type": "uint256"
        }
      ],
      "name": "transfer",
      "outputs": [
        {
          "internalType": "bool",
          "name": "",
          "type": "bool"
        }
      ],
      "payable": false,
      "stateMutability": "nonpayable",
      "type": "function"
    },
    {
      "constant": false,
      "inputs": [
        {
          "internalType": "address",
          "name": "src",
          "type": "address"
        },
        {
          "internalType": "address",
          "name": "dst",
          "type": "address"
        },
        {
          "internalType": "uint256",
          "name": "amount",
          "type": "uint256"
        }
      ],
      "name": "transferFrom",
      "outputs": [
        {
          "internalType": "bool",
          "name": "",
          "type": "bool"
        }
      ],
      "payable": false,
      "stateMutability": "nonpayable",
      "type": "function"
    }
  ],
  "bytecode": "0x60806040523480156200001157600080fd5b5060405162000d1138038062000d11833981810160405260c08110156200003757600080fd5b8151602083018051604051929492938301929190846401000000008211156200005f57600080fd5b9083019060208201858111156200007557600080fd5b82516401000000008111828201881017156200009057600080fd5b82525081516020918201929091019080838360005b83811015620000bf578181015183820152602001620000a5565b50505050905090810190601f168015620000ed5780820380516001836020036101000a031916815260200191505b506040818152602083015192018051929491939192846401000000008211156200011657600080fd5b9083019060208201858111156200012c57600080fd5b82516401000000008111828201881017156200014757600080fd5b82525081516020918201929091019080838360005b83811015620001765781810151838201526020016200015c565b50505050905090810190601f168015620001a45780820380516001836020036101000a031916815260200191505b5060409081526020828101519282015160038a9055336000908152600583529283208a90558851939550935088928892889288928692869286928692620001f19290919086019062000254565b5080516200020790600190602084019062000254565b50506002805460ff191660ff929092169190911790555050506006949094555050600780546001600160a01b0319166001600160a01b039290921691909117905550620002f99350505050565b828054600181600116156101000203166002900490600052602060002090601f016020900481019282601f106200029757805160ff1916838001178555620002c7565b82800160010185558215620002c7579182015b82811115620002c7578251825591602001919060010190620002aa565b50620002d5929150620002d9565b5090565b620002f691905b80821115620002d55760008155600101620002e0565b90565b610a0880620003096000396000f3fe608060405234801561001057600080fd5b50600436106100b45760003560e01c806364d41eb61161007157806364d41eb61461021257806370a082311461021a5780638da5cb5b1461024057806395d89b4114610264578063a9059cbb1461026c578063dd62ed3e14610298576100b4565b806306fdde03146100b957806308bca56614610136578063095ea7b31461016457806318160ddd146101a457806323b872dd146101be578063313ce567146101f4575b600080fd5b6100c16102c6565b6040805160208082528351818301528351919283929083019185019080838360005b838110156100fb5781810151838201526020016100e3565b50505050905090810190601f1680156101285780820380516001836020036101000a031916815260200191505b509250505060405180910390f35b6101626004803603604081101561014c57600080fd5b506001600160a01b038135169060200135610354565b005b6101906004803603604081101561017a57600080fd5b506001600160a01b0381351690602001356103b4565b604080519115158252519081900360200190f35b6101ac61041b565b60408051918252519081900360200190f35b610190600480360360608110156101d457600080fd5b506001600160a01b03813581169160208101359091169060400135610421565b6101fc6105ab565b6040805160ff9092168252519081900360200190f35b6101ac6105b4565b6101ac6004803603602081101561023057600080fd5b50356001600160a01b03166105ba565b6102486105cc565b604080516001600160a01b039092168252519081900360200190f35b6100c16105db565b6101906004803603604081101561028257600080fd5b506001600160a01b038135169060200135610635565b6101ac600480360360408110156102ae57600080fd5b506001600160a01b038135811691602001351661075b565b6000805460408051602060026001851615610100026000190190941693909304601f8101849004840282018401909252818152929183018282801561034c5780601f106103215761010080835404028352916020019161034c565b820191906000526020600020905b81548152906001019060200180831161032f57829003601f168201915b505050505081565b6001600160a01b03821660008181526005602090815260409182902080548501905560038054850190558151848152915130927fddf252ad1be2c89b69c2b068fc378daa952ba7f163c4a11628f55a4df523b3ef92908290030190a35050565b3360008181526004602090815260408083206001600160a01b038716808552908352818420869055815186815291519394909390927f8c5be1e5ebec7d5bd14f71427d1e84f3dd0314c0f7b2291e5b200ac8c7c3b925928290030190a35060015b92915050565b60035481565b60008061044b61271061043f6006548661077890919063ffffffff16565b9063ffffffff6107d816565b9050600061045f848363ffffffff61081a16565b6007546001600160a01b031660009081526005602052604090205490915061048d908363ffffffff61085c16565b6007546001600160a01b0390811660009081526005602052604080822093909355908816815220546104c5908563ffffffff61081a16565b6001600160a01b0380881660009081526005602052604080822093909355908716815220546104fa908263ffffffff61085c16565b6001600160a01b03808716600090815260056020908152604080832094909455918916815260048252828120338252909152205461053e908563ffffffff61081a16565b6001600160a01b03808816600081815260046020908152604080832033845282529182902094909455805188815290519289169391927fddf252ad1be2c89b69c2b068fc378daa952ba7f163c4a11628f55a4df523b3ef929181900390910190a350600195945050505050565b60025460ff1681565b60065481565b60056020526000908152604090205481565b6007546001600160a01b031681565b60018054604080516020600284861615610100026000190190941693909304601f8101849004840282018401909252818152929183018282801561034c5780601f106103215761010080835404028352916020019161034c565b60008061065361271061043f6006548661077890919063ffffffff16565b90506000610667848363ffffffff61081a16565b6007546001600160a01b0316600090815260056020526040902054909150610695908363ffffffff61085c16565b6007546001600160a01b03166000908152600560205260408082209290925533815220546106c9908563ffffffff61081a16565b33600090815260056020526040808220929092556001600160a01b038716815220546106fb908263ffffffff61085c16565b6001600160a01b0386166000818152600560209081526040918290209390935580518781529051919233927fddf252ad1be2c89b69c2b068fc378daa952ba7f163c4a11628f55a4df523b3ef9281900390910190a3506001949350505050565b600460209081526000928352604080842090915290825290205481565b60008261078757506000610415565b8282028284828161079457fe5b04146107d15760405162461bcd60e51b81526004018080602001828103825260218152602001806109b36021913960400191505060405180910390fd5b9392505050565b60006107d183836040518060400160405280601a81526020017f536166654d6174683a206469766973696f6e206279207a65726f0000000000008152506108b6565b60006107d183836040518060400160405280601f81526020017f536166654d6174683a207375627472616374696f6e20756e646572666c6f7700815250610958565b6000828201838110156107d1576040805162461bcd60e51b815260206004820152601b60248201527f536166654d6174683a206164646974696f6e206f766572666c6f770000000000604482015290519081900360640190fd5b600081836109425760405162461bcd60e51b81526004018080602001828103825283818151815260200191508051906020019080838360005b838110156109075781810151838201526020016108ef565b50505050905090810190601f1680156109345780820380516001836020036101000a031916815260200191505b509250505060405180910390fd5b50600083858161094e57fe5b0495945050505050565b600081848411156109aa5760405162461bcd60e51b81526020600482018181528351602484015283519092839260449091019190850190808383600083156109075781810151838201526020016108ef565b50505090039056fe536166654d6174683a206d756c7469706c69636174696f6e206f766572666c6f77a265627a7a723158205f6358043a656d44abd01cf49f744ef351c4f19a8275e56f85c30d27866ba0d064736f6c634300050e0032",
  "source": "pragma solidity ^0.5.14;\n\nimport \"./FaucetToken.sol\";\n\n/**\n  * @title Fee Token\n  * @author Compound\n  * @notice A simple test token that charges fees on transfer. Used to mock USDT.\n  */\ncontract FeeToken is FaucetToken {\n    uint public basisPointFee;\n    address public owner;\n\n    constructor(\n        uint256 _initialAmount,\n        string memory _tokenName,\n        uint8 _decimalUnits,\n        string memory _tokenSymbol,\n        uint _basisPointFee,\n        address _owner\n    ) FaucetToken(_initialAmount, _tokenName, _decimalUnits, _tokenSymbol) public {\n        basisPointFee = _basisPointFee;\n        owner = _owner;\n    }\n\n    function transfer(address dst, uint amount) public returns (bool) {\n        uint fee = amount.mul(basisPointFee).div(10000);\n        uint net = amount.sub(fee);\n        balanceOf[owner] = balanceOf[owner].add(fee);\n        balanceOf[msg.sender] = balanceOf[msg.sender].sub(amount);\n        balanceOf[dst] = balanceOf[dst].add(net);\n        emit Transfer(msg.sender, dst, amount);\n        return true;\n    }\n\n    function transferFrom(address src, address dst, uint amount) public returns (bool) {\n        uint fee = amount.mul(basisPointFee).div(10000);\n        uint net = amount.sub(fee);\n        balanceOf[owner] = balanceOf[owner].add(fee);\n        balanceOf[src] = balanceOf[src].sub(amount);\n        balanceOf[dst] = balanceOf[dst].add(net);\n        allowance[src][msg.sender] = allowance[src][msg.sender].sub(amount);\n        emit Transfer(src, dst, amount);\n        return true;\n    }\n}\n",
  "sourcePath": "/Users/yanyichun/project/Savings/contracts/compound/test/Contracts/FeeToken.sol",
  "compiler": {
    "name": "solc",
    "version": "0.5.14+commit.01f1aaa4.Emscripten.clang"
  },
  "schemaVersion": "3.2.3",
  "updatedAt": "2021-02-25T05:57:51.489Z",
  "devdoc": {
    "author": "Compound",
    "methods": {},
    "title": "Fee Token"
  },
  "userdoc": {
    "methods": {},
    "notice": "A simple test token that charges fees on transfer. Used to mock USDT."
  }
}