{
  "contractName": "FixedPriceOracle",
  "abi": [
    {
      "inputs": [
        {
          "internalType": "uint256",
          "name": "_price",
          "type": "uint256"
        }
      ],
      "payable": false,
      "stateMutability": "nonpayable",
      "type": "constructor"
    },
    {
      "constant": true,
      "inputs": [],
      "name": "isPriceOracle",
      "outputs": [
        {
          "internalType": "bool",
          "name": "",
          "type": "bool"
        }
      ],
      "payable": false,
      "stateMutability": "view",
      "type": "function"
    },
    {
      "constant": true,
      "inputs": [],
      "name": "price",
      "outputs": [
        {
          "internalType": "uint256",
          "name": "",
          "type": "uint256"
        }
      ],
      "payable": false,
      "stateMutability": "view",
      "type": "function"
    },
    {
      "constant": true,
      "inputs": [
        {
          "internalType": "contract CToken",
          "name": "cToken",
          "type": "address"
        }
      ],
      "name": "getUnderlyingPrice",
      "outputs": [
        {
          "internalType": "uint256",
          "name": "",
          "type": "uint256"
        }
      ],
      "payable": false,
      "stateMutability": "view",
      "type": "function"
    },
    {
      "constant": true,
      "inputs": [
        {
          "internalType": "address",
          "name": "asset",
          "type": "address"
        }
      ],
      "name": "assetPrices",
      "outputs": [
        {
          "internalType": "uint256",
          "name": "",
          "type": "uint256"
        }
      ],
      "payable": false,
      "stateMutability": "view",
      "type": "function"
    }
  ],
  "bytecode": "0x608060405234801561001057600080fd5b5060405161012d38038061012d8339818101604052602081101561003357600080fd5b505160005560e7806100466000396000f3fe6080604052348015600f57600080fd5b506004361060465760003560e01c80635e9a523c14604b57806366331bba146080578063a035b1fe14609a578063fc57d4df14604b575b600080fd5b606e60048036036020811015605f57600080fd5b50356001600160a01b031660a0565b60408051918252519081900360200190f35b608660a7565b604080519115158252519081900360200190f35b606e60ac565b5060005490565b600181565b6000548156fea265627a7a72315820e0e961dbed3847991c9262b704bc51d98535b4b03312b28bb09523cb5f0f138064736f6c634300050e0032",
  "source": "pragma solidity ^0.5.14;\n\nimport \"../../contracts/PriceOracle.sol\";\n\ncontract FixedPriceOracle is PriceOracle {\n    uint public price;\n\n    constructor(uint _price) public {\n        price = _price;\n    }\n\n    function getUnderlyingPrice(CToken cToken) public view returns (uint) {\n        cToken;\n        return price;\n    }\n\n    function assetPrices(address asset) public view returns (uint) {\n        asset;\n        return price;\n    }\n}\n",
  "sourcePath": "/Users/yanyichun/project/Savings/contracts/compound/test/Contracts/FixedPriceOracle.sol",
  "compiler": {
    "name": "solc",
    "version": "0.5.14+commit.01f1aaa4.Emscripten.clang"
  },
  "schemaVersion": "3.2.3",
  "updatedAt": "2021-02-25T05:30:06.445Z",
  "devdoc": {
    "methods": {}
  },
  "userdoc": {
    "methods": {}
  }
}