{
  "contractName": "GovernorAlphaHarness",
  "abi": [
    {
      "inputs": [
        {
          "internalType": "address",
          "name": "timelock_",
          "type": "address"
        },
        {
          "internalType": "address",
          "name": "comp_",
          "type": "address"
        },
        {
          "internalType": "address",
          "name": "guardian_",
          "type": "address"
        }
      ],
      "payable": false,
      "stateMutability": "nonpayable",
      "type": "constructor"
    },
    {
      "anonymous": false,
      "inputs": [
        {
          "indexed": false,
          "internalType": "uint256",
          "name": "id",
          "type": "uint256"
        }
      ],
      "name": "ProposalCanceled",
      "type": "event"
    },
    {
      "anonymous": false,
      "inputs": [
        {
          "indexed": false,
          "internalType": "uint256",
          "name": "id",
          "type": "uint256"
        },
        {
          "indexed": false,
          "internalType": "address",
          "name": "proposer",
          "type": "address"
        },
        {
          "indexed": false,
          "internalType": "address[]",
          "name": "targets",
          "type": "address[]"
        },
        {
          "indexed": false,
          "internalType": "uint256[]",
          "name": "values",
          "type": "uint256[]"
        },
        {
          "indexed": false,
          "internalType": "string[]",
          "name": "signatures",
          "type": "string[]"
        },
        {
          "indexed": false,
          "internalType": "bytes[]",
          "name": "calldatas",
          "type": "bytes[]"
        },
        {
          "indexed": false,
          "internalType": "uint256",
          "name": "startBlock",
          "type": "uint256"
        },
        {
          "indexed": false,
          "internalType": "uint256",
          "name": "endBlock",
          "type": "uint256"
        },
        {
          "indexed": false,
          "internalType": "string",
          "name": "description",
          "type": "string"
        }
      ],
      "name": "ProposalCreated",
      "type": "event"
    },
    {
      "anonymous": false,
      "inputs": [
        {
          "indexed": false,
          "internalType": "uint256",
          "name": "id",
          "type": "uint256"
        }
      ],
      "name": "ProposalExecuted",
      "type": "event"
    },
    {
      "anonymous": false,
      "inputs": [
        {
          "indexed": false,
          "internalType": "uint256",
          "name": "id",
          "type": "uint256"
        },
        {
          "indexed": false,
          "internalType": "uint256",
          "name": "eta",
          "type": "uint256"
        }
      ],
      "name": "ProposalQueued",
      "type": "event"
    },
    {
      "anonymous": false,
      "inputs": [
        {
          "indexed": false,
          "internalType": "address",
          "name": "voter",
          "type": "address"
        },
        {
          "indexed": false,
          "internalType": "uint256",
          "name": "proposalId",
          "type": "uint256"
        },
        {
          "indexed": false,
          "internalType": "bool",
          "name": "support",
          "type": "bool"
        },
        {
          "indexed": false,
          "internalType": "uint256",
          "name": "votes",
          "type": "uint256"
        }
      ],
      "name": "VoteCast",
      "type": "event"
    },
    {
      "constant": true,
      "inputs": [],
      "name": "BALLOT_TYPEHASH",
      "outputs": [
        {
          "internalType": "bytes32",
          "name": "",
          "type": "bytes32"
        }
      ],
      "payable": false,
      "stateMutability": "view",
      "type": "function"
    },
    {
      "constant": true,
      "inputs": [],
      "name": "DOMAIN_TYPEHASH",
      "outputs": [
        {
          "internalType": "bytes32",
          "name": "",
          "type": "bytes32"
        }
      ],
      "payable": false,
      "stateMutability": "view",
      "type": "function"
    },
    {
      "constant": false,
      "inputs": [],
      "name": "__abdicate",
      "outputs": [],
      "payable": false,
      "stateMutability": "nonpayable",
      "type": "function"
    },
    {
      "constant": false,
      "inputs": [],
      "name": "__acceptAdmin",
      "outputs": [],
      "payable": false,
      "stateMutability": "nonpayable",
      "type": "function"
    },
    {
      "constant": false,
      "inputs": [
        {
          "internalType": "address",
          "name": "newPendingAdmin",
          "type": "address"
        },
        {
          "internalType": "uint256",
          "name": "eta",
          "type": "uint256"
        }
      ],
      "name": "__executeSetTimelockPendingAdmin",
      "outputs": [],
      "payable": false,
      "stateMutability": "nonpayable",
      "type": "function"
    },
    {
      "constant": false,
      "inputs": [
        {
          "internalType": "address",
          "name": "newPendingAdmin",
          "type": "address"
        },
        {
          "internalType": "uint256",
          "name": "eta",
          "type": "uint256"
        }
      ],
      "name": "__queueSetTimelockPendingAdmin",
      "outputs": [],
      "payable": false,
      "stateMutability": "nonpayable",
      "type": "function"
    },
    {
      "constant": false,
      "inputs": [
        {
          "internalType": "uint256",
          "name": "proposalId",
          "type": "uint256"
        }
      ],
      "name": "cancel",
      "outputs": [],
      "payable": false,
      "stateMutability": "nonpayable",
      "type": "function"
    },
    {
      "constant": false,
      "inputs": [
        {
          "internalType": "uint256",
          "name": "proposalId",
          "type": "uint256"
        },
        {
          "internalType": "bool",
          "name": "support",
          "type": "bool"
        }
      ],
      "name": "castVote",
      "outputs": [],
      "payable": false,
      "stateMutability": "nonpayable",
      "type": "function"
    },
    {
      "constant": false,
      "inputs": [
        {
          "internalType": "uint256",
          "name": "proposalId",
          "type": "uint256"
        },
        {
          "internalType": "bool",
          "name": "support",
          "type": "bool"
        },
        {
          "internalType": "uint8",
          "name": "v",
          "type": "uint8"
        },
        {
          "internalType": "bytes32",
          "name": "r",
          "type": "bytes32"
        },
        {
          "internalType": "bytes32",
          "name": "s",
          "type": "bytes32"
        }
      ],
      "name": "castVoteBySig",
      "outputs": [],
      "payable": false,
      "stateMutability": "nonpayable",
      "type": "function"
    },
    {
      "constant": true,
      "inputs": [],
      "name": "comp",
      "outputs": [
        {
          "internalType": "contract CompInterface",
          "name": "",
          "type": "address"
        }
      ],
      "payable": false,
      "stateMutability": "view",
      "type": "function"
    },
    {
      "constant": false,
      "inputs": [
        {
          "internalType": "uint256",
          "name": "proposalId",
          "type": "uint256"
        }
      ],
      "name": "execute",
      "outputs": [],
      "payable": true,
      "stateMutability": "payable",
      "type": "function"
    },
    {
      "constant": true,
      "inputs": [
        {
          "internalType": "uint256",
          "name": "proposalId",
          "type": "uint256"
        }
      ],
      "name": "getActions",
      "outputs": [
        {
          "internalType": "address[]",
          "name": "targets",
          "type": "address[]"
        },
        {
          "internalType": "uint256[]",
          "name": "values",
          "type": "uint256[]"
        },
        {
          "internalType": "string[]",
          "name": "signatures",
          "type": "string[]"
        },
        {
          "internalType": "bytes[]",
          "name": "calldatas",
          "type": "bytes[]"
        }
      ],
      "payable": false,
      "stateMutability": "view",
      "type": "function"
    },
    {
      "constant": true,
      "inputs": [
        {
          "internalType": "uint256",
          "name": "proposalId",
          "type": "uint256"
        },
        {
          "internalType": "address",
          "name": "voter",
          "type": "address"
        }
      ],
      "name": "getReceipt",
      "outputs": [
        {
          "components": [
            {
              "internalType": "bool",
              "name": "hasVoted",
              "type": "bool"
            },
            {
              "internalType": "bool",
              "name": "support",
              "type": "bool"
            },
            {
              "internalType": "uint96",
              "name": "votes",
              "type": "uint96"
            }
          ],
          "internalType": "struct GovernorAlpha.Receipt",
          "name": "",
          "type": "tuple"
        }
      ],
      "payable": false,
      "stateMutability": "view",
      "type": "function"
    },
    {
      "constant": true,
      "inputs": [],
      "name": "guardian",
      "outputs": [
        {
          "internalType": "address",
          "name": "",
          "type": "address"
        }
      ],
      "payable": false,
      "stateMutability": "view",
      "type": "function"
    },
    {
      "constant": true,
      "inputs": [
        {
          "internalType": "address",
          "name": "",
          "type": "address"
        }
      ],
      "name": "latestProposalIds",
      "outputs": [
        {
          "internalType": "uint256",
          "name": "",
          "type": "uint256"
        }
      ],
      "payable": false,
      "stateMutability": "view",
      "type": "function"
    },
    {
      "constant": true,
      "inputs": [],
      "name": "name",
      "outputs": [
        {
          "internalType": "string",
          "name": "",
          "type": "string"
        }
      ],
      "payable": false,
      "stateMutability": "view",
      "type": "function"
    },
    {
      "constant": true,
      "inputs": [],
      "name": "proposalCount",
      "outputs": [
        {
          "internalType": "uint256",
          "name": "",
          "type": "uint256"
        }
      ],
      "payable": false,
      "stateMutability": "view",
      "type": "function"
    },
    {
      "constant": true,
      "inputs": [],
      "name": "proposalMaxOperations",
      "outputs": [
        {
          "internalType": "uint256",
          "name": "",
          "type": "uint256"
        }
      ],
      "payable": false,
      "stateMutability": "pure",
      "type": "function"
    },
    {
      "constant": true,
      "inputs": [],
      "name": "proposalThreshold",
      "outputs": [
        {
          "internalType": "uint256",
          "name": "",
          "type": "uint256"
        }
      ],
      "payable": false,
      "stateMutability": "pure",
      "type": "function"
    },
    {
      "constant": true,
      "inputs": [
        {
          "internalType": "uint256",
          "name": "",
          "type": "uint256"
        }
      ],
      "name": "proposals",
      "outputs": [
        {
          "internalType": "uint256",
          "name": "id",
          "type": "uint256"
        },
        {
          "internalType": "address",
          "name": "proposer",
          "type": "address"
        },
        {
          "internalType": "uint256",
          "name": "eta",
          "type": "uint256"
        },
        {
          "internalType": "uint256",
          "name": "startBlock",
          "type": "uint256"
        },
        {
          "internalType": "uint256",
          "name": "endBlock",
          "type": "uint256"
        },
        {
          "internalType": "uint256",
          "name": "forVotes",
          "type": "uint256"
        },
        {
          "internalType": "uint256",
          "name": "againstVotes",
          "type": "uint256"
        },
        {
          "internalType": "bool",
          "name": "canceled",
          "type": "bool"
        },
        {
          "internalType": "bool",
          "name": "executed",
          "type": "bool"
        }
      ],
      "payable": false,
      "stateMutability": "view",
      "type": "function"
    },
    {
      "constant": false,
      "inputs": [
        {
          "internalType": "address[]",
          "name": "targets",
          "type": "address[]"
        },
        {
          "internalType": "uint256[]",
          "name": "values",
          "type": "uint256[]"
        },
        {
          "internalType": "string[]",
          "name": "signatures",
          "type": "string[]"
        },
        {
          "internalType": "bytes[]",
          "name": "calldatas",
          "type": "bytes[]"
        },
        {
          "internalType": "string",
          "name": "description",
          "type": "string"
        }
      ],
      "name": "propose",
      "outputs": [
        {
          "internalType": "uint256",
          "name": "",
          "type": "uint256"
        }
      ],
      "payable": false,
      "stateMutability": "nonpayable",
      "type": "function"
    },
    {
      "constant": false,
      "inputs": [
        {
          "internalType": "uint256",
          "name": "proposalId",
          "type": "uint256"
        }
      ],
      "name": "queue",
      "outputs": [],
      "payable": false,
      "stateMutability": "nonpayable",
      "type": "function"
    },
    {
      "constant": true,
      "inputs": [],
      "name": "quorumVotes",
      "outputs": [
        {
          "internalType": "uint256",
          "name": "",
          "type": "uint256"
        }
      ],
      "payable": false,
      "stateMutability": "pure",
      "type": "function"
    },
    {
      "constant": true,
      "inputs": [
        {
          "internalType": "uint256",
          "name": "proposalId",
          "type": "uint256"
        }
      ],
      "name": "state",
      "outputs": [
        {
          "internalType": "enum GovernorAlpha.ProposalState",
          "name": "",
          "type": "uint8"
        }
      ],
      "payable": false,
      "stateMutability": "view",
      "type": "function"
    },
    {
      "constant": true,
      "inputs": [],
      "name": "timelock",
      "outputs": [
        {
          "internalType": "contract TimelockInterface",
          "name": "",
          "type": "address"
        }
      ],
      "payable": false,
      "stateMutability": "view",
      "type": "function"
    },
    {
      "constant": true,
      "inputs": [],
      "name": "votingDelay",
      "outputs": [
        {
          "internalType": "uint256",
          "name": "",
          "type": "uint256"
        }
      ],
      "payable": false,
      "stateMutability": "pure",
      "type": "function"
    },
    {
      "constant": true,
      "inputs": [],
      "name": "votingPeriod",
      "outputs": [
        {
          "internalType": "uint256",
          "name": "",
          "type": "uint256"
        }
      ],
      "payable": false,
      "stateMutability": "pure",
      "type": "function"
    }
  ],
  "bytecode": "0x60806040523480156200001157600080fd5b506040516200391c3803806200391c83398101604081905262000034916200008a565b600080546001600160a01b039485166001600160a01b0319918216179091556001805493851693821693909317909255600280549190931691161790556200010a565b80516200008481620000f0565b92915050565b600080600060608486031215620000a057600080fd5b6000620000ae868662000077565b9350506020620000c18682870162000077565b9250506040620000d48682870162000077565b9150509250925092565b60006001600160a01b03821662000084565b620000fb81620000de565b81146200010757600080fd5b50565b613802806200011a6000396000f3fe60806040526004361061019c5760003560e01c8063452a9320116100ec578063d33219b41161008a578063ddf0b00911610064578063ddf0b00914610463578063deaaa7cc14610483578063e23a9a5214610498578063fe0d94c1146104c55761019c565b8063d33219b414610419578063da35c6641461042e578063da95691a146104435761019c565b80637bdbe4d0116100c65780637bdbe4d0146103ba57806391500671146103cf578063b58131b0146103ef578063b9a61961146104045761019c565b8063452a9320146103635780634634c61f14610385578063760fbc13146103a55761019c565b806320606b7011610159578063328dd98211610133578063328dd982146102d15780633932abb1146103015780633e4f49e61461031657806340e58ee5146103435761019c565b806320606b701461028757806321f43e421461029c57806324bc1a64146102bc5761019c565b8063013cf08b146101a157806302a251a3146101df57806306fdde0314610201578063109d0af81461022357806315373e3d1461024557806317977c6114610267575b600080fd5b3480156101ad57600080fd5b506101c16101bc366004612448565b6104d8565b6040516101d6999897969594939291906135ad565b60405180910390f35b3480156101eb57600080fd5b506101f4610531565b6040516101d691906132da565b34801561020d57600080fd5b50610216610537565b6040516101d69190613396565b34801561022f57600080fd5b5061023861056a565b6040516101d6919061337a565b34801561025157600080fd5b50610265610260366004612496565b610579565b005b34801561027357600080fd5b506101f461028236600461228b565b610588565b34801561029357600080fd5b506101f461059a565b3480156102a857600080fd5b506102656102b73660046122b1565b6105b1565b3480156102c857600080fd5b506101f4610698565b3480156102dd57600080fd5b506102f16102ec366004612448565b6106a6565b6040516101d6949392919061328d565b34801561030d57600080fd5b506101f4610935565b34801561032257600080fd5b50610336610331366004612448565b61093a565b6040516101d69190613388565b34801561034f57600080fd5b5061026561035e366004612448565b610abc565b34801561036f57600080fd5b50610378610d25565b6040516101d69190613137565b34801561039157600080fd5b506102656103a03660046124c6565b610d34565b3480156103b157600080fd5b50610265610ecb565b3480156103c657600080fd5b506101f4610f07565b3480156103db57600080fd5b506102656103ea3660046122b1565b610f0c565b3480156103fb57600080fd5b506101f4610fe1565b34801561041057600080fd5b50610265610fef565b34801561042557600080fd5b50610238611074565b34801561043a57600080fd5b506101f4611083565b34801561044f57600080fd5b506101f461045e3660046122eb565b611089565b34801561046f57600080fd5b5061026561047e366004612448565b6114ab565b34801561048f57600080fd5b506101f4611715565b3480156104a457600080fd5b506104b86104b3366004612466565b611721565b6040516101d691906134f7565b6102656104d3366004612448565b611790565b6004602052600090815260409020805460018201546002830154600784015460088501546009860154600a870154600b9097015495966001600160a01b0390951695939492939192909160ff8082169161010090041689565b60f05b90565b60405180604001604052806017815260200176436f6d706f756e6420476f7665726e6f7220416c70686160481b81525081565b6001546001600160a01b031681565b610584338383611955565b5050565b60056020526000908152604090205481565b6040516105a690613121565b604051809103902081565b6002546001600160a01b031633146105e45760405162461bcd60e51b81526004016105db906133d7565b60405180910390fd5b600080546040516001600160a01b0390911691630825f38f9183919061060e908790602001613137565b604051602081830303815290604052856040518563ffffffff1660e01b815260040161063d9493929190613160565b600060405180830381600087803b15801561065757600080fd5b505af115801561066b573d6000803e3d6000fd5b505050506040513d6000823e601f3d908101601f191682016040526106939190810190612413565b505050565b6954b40b1f852bda00000090565b6060806060806000600460008781526020019081526020016000209050806003018160040182600501836006018380548060200260200160405190810160405280929190818152602001828054801561072857602002820191906000526020600020905b81546001600160a01b0316815260019091019060200180831161070a575b505050505093508280548060200260200160405190810160405280929190818152602001828054801561077a57602002820191906000526020600020905b815481526020019060010190808311610766575b5050505050925081805480602002602001604051908101604052809291908181526020016000905b8282101561084d5760008481526020908190208301805460408051601f60026000196101006001871615020190941693909304928301859004850281018501909152818152928301828280156108395780601f1061080e57610100808354040283529160200191610839565b820191906000526020600020905b81548152906001019060200180831161081c57829003601f168201915b5050505050815260200190600101906107a2565b50505050915080805480602002602001604051908101604052809291908181526020016000905b8282101561091f5760008481526020908190208301805460408051601f600260001961010060018716150201909416939093049283018590048502810185019091528181529283018282801561090b5780601f106108e05761010080835404028352916020019161090b565b820191906000526020600020905b8154815290600101906020018083116108ee57829003601f168201915b505050505081526020019060010190610874565b5050505090509450945094509450509193509193565b600190565b6000816003541015801561094e5750600082115b61096a5760405162461bcd60e51b81526004016105db906133e7565b6000828152600460205260409020600b81015460ff161561098f576002915050610ab7565b806007015443116109a4576000915050610ab7565b806008015443116109b9576001915050610ab7565b80600a015481600901541115806109da57506109d3610698565b8160090154105b156109e9576003915050610ab7565b60028101546109fc576004915050610ab7565b600b810154610100900460ff1615610a18576007915050610ab7565b6002810154600054604080516360d143f160e11b81529051610aa193926001600160a01b03169163c1a287e2916004808301926020929190829003018186803b158015610a6457600080fd5b505afa158015610a78573d6000803e3d6000fd5b505050506040513d601f19601f82011682018060405250610a9c91908101906123f5565b611b1e565b4210610ab1576006915050610ab7565b60059150505b919050565b6000610ac78261093a565b90506007816007811115610ad757fe5b1415610af55760405162461bcd60e51b81526004016105db906134b7565b60008281526004602052604090206002546001600160a01b0316331480610bc05750610b1f610fe1565b60018054838201546001600160a01b039182169263782d6fe19290911690610b48904390611b4a565b6040518363ffffffff1660e01b8152600401610b659291906131af565b60206040518083038186803b158015610b7d57600080fd5b505afa158015610b91573d6000803e3d6000fd5b505050506040513d601f19601f82011682018060405250610bb5919081019061252e565b6001600160601b0316105b610bdc5760405162461bcd60e51b81526004016105db90613457565b600b8101805460ff1916600117905560005b6003820154811015610ce8576000546003830180546001600160a01b039092169163591fcdfe919084908110610c2057fe5b6000918252602090912001546004850180546001600160a01b039092169185908110610c4857fe5b9060005260206000200154856005018581548110610c6257fe5b90600052602060002001866006018681548110610c7b57fe5b9060005260206000200187600201546040518663ffffffff1660e01b8152600401610caa95949392919061324c565b600060405180830381600087803b158015610cc457600080fd5b505af1158015610cd8573d6000803e3d6000fd5b505060019092019150610bee9050565b507f789cf55be980739dad1d0699b93b58e806b51c9d96619bfa8fe0a28abaa7b30c83604051610d1891906132da565b60405180910390a1505050565b6002546001600160a01b031681565b6000604051610d4290613121565b604080519182900382208282019091526017825276436f6d706f756e6420476f7665726e6f7220416c70686160481b6020909201919091527ff5eb22c2e7100465020c98b00537528808db4fec6eb24c550685a92742247bc5610da3611b72565b30604051602001610db794939291906132e8565b6040516020818303038152906040528051906020012090506000604051610ddd9061312c565b604051908190038120610df6918990899060200161331d565b60405160208183030381529060405280519060200120905060008282604051602001610e239291906130f0565b604051602081830303815290604052805190602001209050600060018288888860405160008152602001604052604051610e609493929190613345565b6020604051602081039080840390855afa158015610e82573d6000803e3d6000fd5b5050604051601f1901519150506001600160a01b038116610eb55760405162461bcd60e51b81526004016105db90613497565b610ec0818a8a611955565b505050505050505050565b6002546001600160a01b03163314610ef55760405162461bcd60e51b81526004016105db906134e7565b600280546001600160a01b0319169055565b600a90565b6002546001600160a01b03163314610f365760405162461bcd60e51b81526004016105db90613417565b600080546040516001600160a01b0390911691633a66f90191839190610f60908790602001613137565b604051602081830303815290604052856040518563ffffffff1660e01b8152600401610f8f9493929190613160565b602060405180830381600087803b158015610fa957600080fd5b505af1158015610fbd573d6000803e3d6000fd5b505050506040513d601f19601f8201168201806040525061069391908101906123f5565b69152d02c7e14af680000090565b6002546001600160a01b031633146110195760405162461bcd60e51b81526004016105db906133a7565b6000805460408051630e18b68160e01b815290516001600160a01b0390921692630e18b6819260048084019382900301818387803b15801561105a57600080fd5b505af115801561106e573d6000803e3d6000fd5b50505050565b6000546001600160a01b031681565b60035481565b6000611093610fe1565b600180546001600160a01b03169063782d6fe19033906110b4904390611b4a565b6040518363ffffffff1660e01b81526004016110d1929190613145565b60206040518083038186803b1580156110e957600080fd5b505afa1580156110fd573d6000803e3d6000fd5b505050506040513d601f19601f82011682018060405250611121919081019061252e565b6001600160601b0316116111475760405162461bcd60e51b81526004016105db90613487565b84518651148015611159575083518651145b8015611166575082518651145b6111825760405162461bcd60e51b81526004016105db90613447565b85516111a05760405162461bcd60e51b81526004016105db90613477565b6111a8610f07565b865111156111c85760405162461bcd60e51b81526004016105db90613427565b3360009081526005602052604090205480156112455760006111e98261093a565b905060018160078111156111f957fe5b14156112175760405162461bcd60e51b81526004016105db906134a7565b600081600781111561122557fe5b14156112435760405162461bcd60e51b81526004016105db90613407565b505b600061125343610a9c610935565b9050600061126382610a9c610531565b6003805460010190559050611276611cd5565b604051806101a001604052806003548152602001336001600160a01b03168152602001600081526020018b81526020018a815260200189815260200188815260200184815260200183815260200160008152602001600081526020016000151581526020016000151581525090508060046000836000015181526020019081526020016000206000820151816000015560208201518160010160006101000a8154816001600160a01b0302191690836001600160a01b03160217905550604082015181600201556060820151816003019080519060200190611359929190611d4a565b5060808201518051611375916004840191602090910190611daf565b5060a08201518051611391916005840191602090910190611df6565b5060c082015180516113ad916006840191602090910190611e4f565b5060e082015181600701556101008201518160080155610120820151816009015561014082015181600a015561016082015181600b0160006101000a81548160ff02191690831515021790555061018082015181600b0160016101000a81548160ff02191690831515021790555090505080600001516005600083602001516001600160a01b03166001600160a01b03168152602001908152602001600020819055507f7d84a6263ae0d98d3329bd7b46bb4e8d6f98cd35a7adb45c274c8b7fd5ebd5e08160000151338c8c8c8c89898e60405161149399989796959493929190613505565b60405180910390a15193505050505b95945050505050565b60046114b68261093a565b60078111156114c157fe5b146114de5760405162461bcd60e51b81526004016105db906133b7565b600081815260046020818152604080842084548251630d48571f60e31b815292519195946115339442946001600160a01b0390931693636a42b8f8938084019390829003018186803b158015610a6457600080fd5b905060005b60038301548110156116db576116d383600301828154811061155657fe5b6000918252602090912001546004850180546001600160a01b03909216918490811061157e57fe5b906000526020600020015485600501848154811061159857fe5b600091825260209182902001805460408051601f60026000196101006001871615020190941693909304928301859004850281018501909152818152928301828280156116265780601f106115fb57610100808354040283529160200191611626565b820191906000526020600020905b81548152906001019060200180831161160957829003601f168201915b505050505086600601858154811061163a57fe5b600091825260209182902001805460408051601f60026000196101006001871615020190941693909304928301859004850281018501909152818152928301828280156116c85780601f1061169d576101008083540402835291602001916116c8565b820191906000526020600020905b8154815290600101906020018083116116ab57829003601f168201915b505050505086611b76565b600101611538565b50600282018190556040517f9a2e42fd6722813d69113e7d0079d3d940171428df7373df9c7f7617cfda289290610d189085908490613633565b6040516105a69061312c565b611729611ea8565b5060008281526004602090815260408083206001600160a01b0385168452600c018252918290208251606081018452905460ff80821615158352610100820416151592820192909252620100009091046001600160601b0316918101919091525b92915050565b600561179b8261093a565b60078111156117a657fe5b146117c35760405162461bcd60e51b81526004016105db906133c7565b6000818152600460205260408120600b8101805461ff001916610100179055905b6003820154811015611919576000546004830180546001600160a01b0390921691630825f38f91908490811061181657fe5b906000526020600020015484600301848154811061183057fe5b6000918252602090912001546004860180546001600160a01b03909216918690811061185857fe5b906000526020600020015486600501868154811061187257fe5b9060005260206000200187600601878154811061188b57fe5b9060005260206000200188600201546040518763ffffffff1660e01b81526004016118ba95949392919061324c565b6000604051808303818588803b1580156118d357600080fd5b505af11580156118e7573d6000803e3d6000fd5b50505050506040513d6000823e601f3d908101601f191682016040526119109190810190612413565b506001016117e4565b507f712ae1383f79ac853f8d882153778e0260ef8f03b504e2866e0593e04d2b291f8260405161194991906132da565b60405180910390a15050565b60016119608361093a565b600781111561196b57fe5b146119885760405162461bcd60e51b81526004016105db906134c7565b60008281526004602090815260408083206001600160a01b0387168452600c8101909252909120805460ff16156119d15760405162461bcd60e51b81526004016105db906133f7565b600154600783015460405163782d6fe160e01b81526000926001600160a01b03169163782d6fe191611a07918a916004016131af565b60206040518083038186803b158015611a1f57600080fd5b505afa158015611a33573d6000803e3d6000fd5b505050506040513d601f19601f82011682018060405250611a57919081019061252e565b90508315611a8057611a768360090154826001600160601b0316611b1e565b6009840155611a9d565b611a9783600a0154826001600160601b0316611b1e565b600a8401555b8154600160ff199091161761ff00191661010085151502176dffffffffffffffffffffffff00001916620100006001600160601b038316021782556040517f877856338e13f63d0c36822ff0ef736b80934cd90574a3a5bc9262c39d217c4690611b0e9088908890889086906131bd565b60405180910390a1505050505050565b600082820183811015611b435760405162461bcd60e51b81526004016105db90613437565b9392505050565b600082821115611b6c5760405162461bcd60e51b81526004016105db906134d7565b50900390565b4690565b6000546040516001600160a01b039091169063f2b0653790611ba490889088908890889088906020016131f2565b604051602081830303815290604052805190602001206040518263ffffffff1660e01b8152600401611bd691906132da565b60206040518083038186803b158015611bee57600080fd5b505afa158015611c02573d6000803e3d6000fd5b505050506040513d601f19601f82011682018060405250611c2691908101906123d7565b15611c435760405162461bcd60e51b81526004016105db90613467565b600054604051633a66f90160e01b81526001600160a01b0390911690633a66f90190611c7b90889088908890889088906004016131f2565b602060405180830381600087803b158015611c9557600080fd5b505af1158015611ca9573d6000803e3d6000fd5b505050506040513d601f19601f82011682018060405250611ccd91908101906123f5565b505050505050565b604051806101a001604052806000815260200160006001600160a01b031681526020016000815260200160608152602001606081526020016060815260200160608152602001600081526020016000815260200160008152602001600081526020016000151581526020016000151581525090565b828054828255906000526020600020908101928215611d9f579160200282015b82811115611d9f57825182546001600160a01b0319166001600160a01b03909116178255602090920191600190910190611d6a565b50611dab929150611ec8565b5090565b828054828255906000526020600020908101928215611dea579160200282015b82811115611dea578251825591602001919060010190611dcf565b50611dab929150611eec565b828054828255906000526020600020908101928215611e43579160200282015b82811115611e435782518051611e33918491602090910190611f06565b5091602001919060010190611e16565b50611dab929150611f73565b828054828255906000526020600020908101928215611e9c579160200282015b82811115611e9c5782518051611e8c918491602090910190611f06565b5091602001919060010190611e6f565b50611dab929150611f96565b604080516060810182526000808252602082018190529181019190915290565b61053491905b80821115611dab5780546001600160a01b0319168155600101611ece565b61053491905b80821115611dab5760008155600101611ef2565b828054600181600116156101000203166002900490600052602060002090601f016020900481019282601f10611f4757805160ff1916838001178555611dea565b82800160010185558215611dea5791820182811115611dea578251825591602001919060010190611dcf565b61053491905b80821115611dab576000611f8d8282611fb9565b50600101611f79565b61053491905b80821115611dab576000611fb08282611fb9565b50600101611f9c565b50805460018160011615610100020316600290046000825580601f10611fdf5750611ffd565b601f016020900490600052602060002090810190611ffd9190611eec565b50565b803561178a81613787565b600082601f83011261201c57600080fd5b813561202f61202a82613668565b613641565b9150818183526020840193506020810190508385602084028201111561205457600080fd5b60005b83811015612080578161206a8882612000565b8452506020928301929190910190600101612057565b5050505092915050565b600082601f83011261209b57600080fd5b81356120a961202a82613668565b81815260209384019390925082018360005b8381101561208057813586016120d188826121e0565b84525060209283019291909101906001016120bb565b600082601f8301126120f857600080fd5b813561210661202a82613668565b81815260209384019390925082018360005b83811015612080578135860161212e88826121e0565b8452506020928301929190910190600101612118565b600082601f83011261215557600080fd5b813561216361202a82613668565b9150818183526020840193506020810190508385602084028201111561218857600080fd5b60005b83811015612080578161219e88826121ca565b845250602092830192919091019060010161218b565b803561178a8161379b565b805161178a8161379b565b803561178a816137a4565b805161178a816137a4565b600082601f8301126121f157600080fd5b81356121ff61202a82613689565b9150808252602083016020830185838301111561221b57600080fd5b61222683828461373b565b50505092915050565b600082601f83011261224057600080fd5b815161224e61202a82613689565b9150808252602083016020830185838301111561226a57600080fd5b612226838284613747565b803561178a816137ad565b805161178a816137b6565b60006020828403121561229d57600080fd5b60006122a98484612000565b949350505050565b600080604083850312156122c457600080fd5b60006122d08585612000565b92505060206122e1858286016121ca565b9150509250929050565b600080600080600060a0868803121561230357600080fd5b853567ffffffffffffffff81111561231a57600080fd5b6123268882890161200b565b955050602086013567ffffffffffffffff81111561234357600080fd5b61234f88828901612144565b945050604086013567ffffffffffffffff81111561236c57600080fd5b612378888289016120e7565b935050606086013567ffffffffffffffff81111561239557600080fd5b6123a18882890161208a565b925050608086013567ffffffffffffffff8111156123be57600080fd5b6123ca888289016121e0565b9150509295509295909350565b6000602082840312156123e957600080fd5b60006122a984846121bf565b60006020828403121561240757600080fd5b60006122a984846121d5565b60006020828403121561242557600080fd5b815167ffffffffffffffff81111561243c57600080fd5b6122a98482850161222f565b60006020828403121561245a57600080fd5b60006122a984846121ca565b6000806040838503121561247957600080fd5b600061248585856121ca565b92505060206122e185828601612000565b600080604083850312156124a957600080fd5b60006124b585856121ca565b92505060206122e1858286016121b4565b600080600080600060a086880312156124de57600080fd5b60006124ea88886121ca565b95505060206124fb888289016121b4565b945050604061250c88828901612275565b935050606061251d888289016121ca565b92505060806123ca888289016121ca565b60006020828403121561254057600080fd5b60006122a98484612280565b60006125588383612587565b505060200190565b6000611b438383612729565b6000612558838361270f565b61258181613708565b82525050565b612581816136d0565b600061259b826136c3565b6125a581856136c7565b93506125b0836136b1565b8060005b838110156125de5781516125c8888261254c565b97506125d3836136b1565b9250506001016125b4565b509495945050505050565b60006125f4826136c3565b6125fe81856136c7565b935083602082028501612610856136b1565b8060005b8581101561264a578484038952815161262d8582612560565b9450612638836136b1565b60209a909a0199925050600101612614565b5091979650505050505050565b6000612662826136c3565b61266c81856136c7565b93508360208202850161267e856136b1565b8060005b8581101561264a578484038952815161269b8582612560565b94506126a6836136b1565b60209a909a0199925050600101612682565b60006126c3826136c3565b6126cd81856136c7565b93506126d8836136b1565b8060005b838110156125de5781516126f0888261256c565b97506126fb836136b1565b9250506001016126dc565b612581816136db565b61258181610534565b61258161272482610534565b610534565b6000612734826136c3565b61273e81856136c7565b935061274e818560208601613747565b61275781613773565b9093019392505050565b60008154600181166000811461277e57600181146127a4576127e3565b607f600283041661278f81876136c7565b60ff19841681529550506020850192506127e3565b600282046127b281876136c7565b95506127bd856136b7565b60005b828110156127dc578154888201526001909101906020016127c0565b8701945050505b505092915050565b6125818161370f565b6125818161371a565b61258181613725565b60006128136039836136c7565b7f476f7665726e6f72416c7068613a3a5f5f61636365707441646d696e3a20736581527f6e646572206d75737420626520676f7620677561726469616e00000000000000602082015260400192915050565b60006128726044836136c7565b7f476f7665726e6f72416c7068613a3a71756575653a2070726f706f73616c206381527f616e206f6e6c79206265207175657565642069662069742069732073756363656020820152631959195960e21b604082015260600192915050565b60006128de6045836136c7565b7f476f7665726e6f72416c7068613a3a657865637574653a2070726f706f73616c81527f2063616e206f6e6c7920626520657865637574656420696620697420697320716020820152641d595d595960da1b604082015260600192915050565b600061294b600283610ab7565b61190160f01b815260020192915050565b6000612969604c836136c7565b7f476f7665726e6f72416c7068613a3a5f5f6578656375746553657454696d656c81527f6f636b50656e64696e6741646d696e3a2073656e646572206d7573742062652060208201526b33b7bb1033bab0b93234b0b760a11b604082015260600192915050565b60006129dd6018836136c7565b7f73657450656e64696e6741646d696e2861646472657373290000000000000000815260200192915050565b6000612a166029836136c7565b7f476f7665726e6f72416c7068613a3a73746174653a20696e76616c69642070728152681bdc1bdcd85b081a5960ba1b602082015260400192915050565b6000612a61602d836136c7565b7f476f7665726e6f72416c7068613a3a5f63617374566f74653a20766f7465722081526c185b1c9958591e481d9bdd1959609a1b602082015260400192915050565b6000612ab06059836136c7565b7f476f7665726e6f72416c7068613a3a70726f706f73653a206f6e65206c69766581527f2070726f706f73616c207065722070726f706f7365722c20666f756e6420616e60208201527f20616c72656164792070656e64696e672070726f706f73616c00000000000000604082015260600192915050565b6000612b35604a836136c7565b7f476f7665726e6f72416c7068613a3a5f5f717565756553657454696d656c6f6381527f6b50656e64696e6741646d696e3a2073656e646572206d75737420626520676f6020820152693b1033bab0b93234b0b760b11b604082015260600192915050565b6000612ba76028836136c7565b7f476f7665726e6f72416c7068613a3a70726f706f73653a20746f6f206d616e7981526720616374696f6e7360c01b602082015260400192915050565b6000612bf16011836136c7565b706164646974696f6e206f766572666c6f7760781b815260200192915050565b6000612c1e604383610ab7565b7f454950373132446f6d61696e28737472696e67206e616d652c75696e7432353681527f20636861696e49642c6164647265737320766572696679696e67436f6e74726160208201526263742960e81b604082015260430192915050565b6000612c89602783610ab7565b7f42616c6c6f742875696e743235362070726f706f73616c49642c626f6f6c20738152667570706f72742960c81b602082015260270192915050565b6000612cd26044836136c7565b7f476f7665726e6f72416c7068613a3a70726f706f73653a2070726f706f73616c81527f2066756e6374696f6e20696e666f726d6174696f6e206172697479206d69736d6020820152630c2e8c6d60e31b604082015260600192915050565b6000612d3e602f836136c7565b7f476f7665726e6f72416c7068613a3a63616e63656c3a2070726f706f7365722081526e18589bdd99481d1a1c995cda1bdb19608a1b602082015260400192915050565b6000612d8f6044836136c7565b7f476f7665726e6f72416c7068613a3a5f71756575654f725265766572743a207081527f726f706f73616c20616374696f6e20616c7265616479207175657565642061746020820152632065746160e01b604082015260600192915050565b6000612dfb602c836136c7565b7f476f7665726e6f72416c7068613a3a70726f706f73653a206d7573742070726f81526b7669646520616374696f6e7360a01b602082015260400192915050565b6000612e49603f836136c7565b7f476f7665726e6f72416c7068613a3a70726f706f73653a2070726f706f73657281527f20766f7465732062656c6f772070726f706f73616c207468726573686f6c6400602082015260400192915050565b6000612ea8602f836136c7565b7f476f7665726e6f72416c7068613a3a63617374566f746542795369673a20696e81526e76616c6964207369676e617475726560881b602082015260400192915050565b6000612ef96058836136c7565b7f476f7665726e6f72416c7068613a3a70726f706f73653a206f6e65206c69766581527f2070726f706f73616c207065722070726f706f7365722c20666f756e6420616e60208201527f20616c7265616479206163746976652070726f706f73616c0000000000000000604082015260600192915050565b6000612f7e6036836136c7565b7f476f7665726e6f72416c7068613a3a63616e63656c3a2063616e6e6f742063618152751b98d95b08195e1958dd5d1959081c1c9bdc1bdcd85b60521b602082015260400192915050565b6000612fd6602a836136c7565b7f476f7665726e6f72416c7068613a3a5f63617374566f74653a20766f74696e67815269081a5cc818db1bdcd95960b21b602082015260400192915050565b60006130226015836136c7565b747375627472616374696f6e20756e646572666c6f7760581b815260200192915050565b60006130536036836136c7565b7f476f7665726e6f72416c7068613a3a5f5f61626469636174653a2073656e6465815275391036bab9ba1031329033b7bb1033bab0b93234b0b760511b602082015260400192915050565b805160608301906130af8482612706565b5060208201516130c26020850182612706565b50604082015161106e60408501826130e7565b612581816136f6565b61258181613730565b612581816136fc565b60006130fb8261293e565b91506131078285612718565b6020820191506131178284612718565b5060200192915050565b600061178a82612c11565b600061178a82612c7c565b6020810161178a8284612587565b604081016131538285612578565b611b43602083018461270f565b60a0810161316e8287612587565b61317b60208301866127fd565b818103604083015261318c816129d0565b905081810360608301526131a08185612729565b90506114a2608083018461270f565b604081016131538285612587565b608081016131cb8287612587565b6131d8602083018661270f565b6131e56040830185612706565b6114a260608301846130de565b60a081016132008288612587565b61320d602083018761270f565b818103604083015261321f8186612729565b905081810360608301526132338185612729565b9050613242608083018461270f565b9695505050505050565b60a0810161325a8288612587565b613267602083018761270f565b81810360408301526132798186612761565b905081810360608301526132338185612761565b6080808252810161329e8187612590565b905081810360208301526132b281866126b8565b905081810360408301526132c68185612657565b9050818103606083015261324281846125e9565b6020810161178a828461270f565b608081016132f6828761270f565b613303602083018661270f565b613310604083018561270f565b6114a26060830184612587565b6060810161332b828661270f565b613338602083018561270f565b6122a96040830184612706565b60808101613353828761270f565b61336060208301866130d5565b61336d604083018561270f565b6114a2606083018461270f565b6020810161178a82846127eb565b6020810161178a82846127f4565b60208082528101611b438184612729565b6020808252810161178a81612806565b6020808252810161178a81612865565b6020808252810161178a816128d1565b6020808252810161178a8161295c565b6020808252810161178a81612a09565b6020808252810161178a81612a54565b6020808252810161178a81612aa3565b6020808252810161178a81612b28565b6020808252810161178a81612b9a565b6020808252810161178a81612be4565b6020808252810161178a81612cc5565b6020808252810161178a81612d31565b6020808252810161178a81612d82565b6020808252810161178a81612dee565b6020808252810161178a81612e3c565b6020808252810161178a81612e9b565b6020808252810161178a81612eec565b6020808252810161178a81612f71565b6020808252810161178a81612fc9565b6020808252810161178a81613015565b6020808252810161178a81613046565b6060810161178a828461309e565b6101208101613514828c61270f565b613521602083018b612578565b8181036040830152613533818a612590565b9050818103606083015261354781896126b8565b9050818103608083015261355b8188612657565b905081810360a083015261356f81876125e9565b905061357e60c083018661270f565b61358b60e083018561270f565b81810361010083015261359e8184612729565b9b9a5050505050505050505050565b61012081016135bc828c61270f565b6135c9602083018b612587565b6135d6604083018a61270f565b6135e3606083018961270f565b6135f0608083018861270f565b6135fd60a083018761270f565b61360a60c083018661270f565b61361760e0830185612706565b613625610100830184612706565b9a9950505050505050505050565b60408101613153828561270f565b60405181810167ffffffffffffffff8111828210171561366057600080fd5b604052919050565b600067ffffffffffffffff82111561367f57600080fd5b5060209081020190565b600067ffffffffffffffff8211156136a057600080fd5b506020601f91909101601f19160190565b60200190565b60009081526020902090565b5190565b90815260200190565b600061178a826136ea565b151590565b80610ab78161377d565b6001600160a01b031690565b60ff1690565b6001600160601b031690565b600061178a825b600061178a826136d0565b600061178a826136e0565b600061178a82610534565b600061178a826136fc565b82818337506000910152565b60005b8381101561376257818101518382015260200161374a565b8381111561106e5750506000910152565b601f01601f191690565b60088110611ffd57fe5b613790816136d0565b8114611ffd57600080fd5b613790816136db565b61379081610534565b613790816136f6565b613790816136fc56fea365627a7a723158201dc7377bff713278871e7c30a35fe24fd8d2fef272fb1d6ae9b7d9d20ada8a666c6578706572696d656e74616cf564736f6c634300050e0040",
  "source": "pragma solidity ^0.5.14;\npragma experimental ABIEncoderV2;\n\nimport \"../../contracts/Governance/GovernorAlpha.sol\";\n\ncontract GovernorAlphaHarness is GovernorAlpha {\n    constructor(address timelock_, address comp_, address guardian_) GovernorAlpha(timelock_, comp_, guardian_) public {}\n\n    function votingPeriod() public pure returns (uint) { return 240; }\n}\n",
  "sourcePath": "/Users/yanyichun/project/Savings/contracts/compound/test/Contracts/GovernorAlphaHarness.sol",
  "compiler": {
    "name": "solc",
    "version": "0.5.14+commit.01f1aaa4.Emscripten.clang"
  },
  "schemaVersion": "3.2.3",
  "updatedAt": "2021-02-25T05:55:41.060Z",
  "devdoc": {
    "methods": {}
  },
  "userdoc": {
    "methods": {
      "proposalMaxOperations()": {
        "notice": "The maximum number of actions that can be included in a proposal"
      },
      "proposalThreshold()": {
        "notice": "The number of votes required in order for a voter to become a proposer"
      },
      "quorumVotes()": {
        "notice": "The number of votes in support of a proposal required in order for a quorum to be reached and for a vote to succeed"
      },
      "votingDelay()": {
        "notice": "The delay before voting on a proposal may take place, once proposed"
      }
    }
  }
}