{
  "contractName": "MockPot",
  "abi": [
    {
      "inputs": [
        {
          "internalType": "uint256",
          "name": "dsr_",
          "type": "uint256"
        }
      ],
      "payable": false,
      "stateMutability": "nonpayable",
      "type": "constructor"
    },
    {
      "constant": true,
      "inputs": [],
      "name": "dsr",
      "outputs": [
        {
          "internalType": "uint256",
          "name": "",
          "type": "uint256"
        }
      ],
      "payable": false,
      "stateMutability": "view",
      "type": "function"
    },
    {
      "constant": false,
      "inputs": [
        {
          "internalType": "uint256",
          "name": "dsr_",
          "type": "uint256"
        }
      ],
      "name": "setDsr",
      "outputs": [],
      "payable": false,
      "stateMutability": "nonpayable",
      "type": "function"
    }
  ],
  "bytecode": "0x608060405234801561001057600080fd5b5060405161010b38038061010b8339818101604052602081101561003357600080fd5b5051610047816001600160e01b0361004d16565b50610052565b600055565b60ab806100606000396000f3fe6080604052348015600f57600080fd5b506004361060325760003560e01c8063487bf08214603757806362499acf14604f575b600080fd5b603d606b565b60408051918252519081900360200190f35b606960048036036020811015606357600080fd5b50356071565b005b60005481565b60005556fea265627a7a72315820446512d3720de1277df5a656f9d412a3fd83239e48a664869e2f1d5824e8854864736f6c634300050e0032",
  "source": "pragma solidity ^0.5.14;\n\n\ncontract MockPot {\n\n    uint public dsr;  // the Dai Savings Rate\n\n    constructor(uint dsr_) public {\n        setDsr(dsr_);\n    }\n\n    function setDsr(uint dsr_) public {\n        dsr = dsr_;\n    }\n}\n\ncontract MockJug {\n\n    struct Ilk {\n        uint duty;\n        uint rho;\n    }\n\n    mapping (bytes32 => Ilk) public ilks;\n    uint public base;\n\n    constructor(uint duty_, uint base_) public {\n        setETHDuty(duty_);\n        setBase(base_);\n    }\n\n    function setBase(uint base_) public {\n        base = base_;\n    }\n\n    function setETHDuty(uint duty_) public {\n        ilks[\"ETH-A\"].duty = duty_;\n    }\n}",
  "sourcePath": "/Users/yanyichun/project/Savings/contracts/compound/test/Contracts/MockMCD.sol",
  "compiler": {
    "name": "solc",
    "version": "0.5.14+commit.01f1aaa4.Emscripten.clang"
  },
  "schemaVersion": "3.2.3",
  "updatedAt": "2021-02-25T05:55:41.062Z",
  "devdoc": {
    "methods": {}
  },
  "userdoc": {
    "methods": {}
  }
}