{
  "contractName": "MockJug",
  "abi": [
    {
      "inputs": [
        {
          "internalType": "uint256",
          "name": "duty_",
          "type": "uint256"
        },
        {
          "internalType": "uint256",
          "name": "base_",
          "type": "uint256"
        }
      ],
      "payable": false,
      "stateMutability": "nonpayable",
      "type": "constructor"
    },
    {
      "constant": true,
      "inputs": [],
      "name": "base",
      "outputs": [
        {
          "internalType": "uint256",
          "name": "",
          "type": "uint256"
        }
      ],
      "payable": false,
      "stateMutability": "view",
      "type": "function"
    },
    {
      "constant": true,
      "inputs": [
        {
          "internalType": "bytes32",
          "name": "",
          "type": "bytes32"
        }
      ],
      "name": "ilks",
      "outputs": [
        {
          "internalType": "uint256",
          "name": "duty",
          "type": "uint256"
        },
        {
          "internalType": "uint256",
          "name": "rho",
          "type": "uint256"
        }
      ],
      "payable": false,
      "stateMutability": "view",
      "type": "function"
    },
    {
      "constant": false,
      "inputs": [
        {
          "internalType": "uint256",
          "name": "base_",
          "type": "uint256"
        }
      ],
      "name": "setBase",
      "outputs": [],
      "payable": false,
      "stateMutability": "nonpayable",
      "type": "function"
    },
    {
      "constant": false,
      "inputs": [
        {
          "internalType": "uint256",
          "name": "duty_",
          "type": "uint256"
        }
      ],
      "name": "setETHDuty",
      "outputs": [],
      "payable": false,
      "stateMutability": "nonpayable",
      "type": "function"
    }
  ],
  "bytecode": "0x608060405234801561001057600080fd5b5060405161021b38038061021b8339818101604052604081101561003357600080fd5b50805160209091015161004e826001600160e01b0361006716565b610060816001600160e01b0361009c16565b50506100a1565b644554482d4160d81b60009081526020527f197fc466da949b161f8f817fcd524a4571fcf215becdd2a74959c7431b886c2c55565b600155565b61016b806100b06000396000f3fe608060405234801561001057600080fd5b506004361061004c5760003560e01c806338e80f68146100515780635001f3b514610070578063b585a7721461008a578063d9638d36146100a7575b600080fd5b61006e6004803603602081101561006757600080fd5b50356100dd565b005b6100786100e2565b60408051918252519081900360200190f35b61006e600480360360208110156100a057600080fd5b50356100e8565b6100c4600480360360208110156100bd57600080fd5b503561011d565b6040805192835260208301919091528051918290030190f35b600155565b60015481565b644554482d4160d81b60009081526020527f197fc466da949b161f8f817fcd524a4571fcf215becdd2a74959c7431b886c2c55565b600060208190529081526040902080546001909101548256fea265627a7a72315820ee021e110a2a4294ec984e06bcee6d77cf34c1377108d03515a5fc8dc5e324a464736f6c634300050e0032",
  "source": "pragma solidity ^0.5.14;\n\n\ncontract MockPot {\n\n    uint public dsr;  // the Dai Savings Rate\n\n    constructor(uint dsr_) public {\n        setDsr(dsr_);\n    }\n\n    function setDsr(uint dsr_) public {\n        dsr = dsr_;\n    }\n}\n\ncontract MockJug {\n\n    struct Ilk {\n        uint duty;\n        uint rho;\n    }\n\n    mapping (bytes32 => Ilk) public ilks;\n    uint public base;\n\n    constructor(uint duty_, uint base_) public {\n        setETHDuty(duty_);\n        setBase(base_);\n    }\n\n    function setBase(uint base_) public {\n        base = base_;\n    }\n\n    function setETHDuty(uint duty_) public {\n        ilks[\"ETH-A\"].duty = duty_;\n    }\n}",
  "sourcePath": "/Users/yanyichun/project/Savings/contracts/compound/test/Contracts/MockMCD.sol",
  "compiler": {
    "name": "solc",
    "version": "0.5.14+commit.01f1aaa4.Emscripten.clang"
  },
  "schemaVersion": "3.2.3",
  "updatedAt": "2021-02-25T05:30:06.448Z",
  "devdoc": {
    "methods": {}
  },
  "userdoc": {
    "methods": {}
  }
}