{
  "contractName": "MockERC20",
  "abi": [
    {
      "inputs": [
        {
          "internalType": "string",
          "name": "_name",
          "type": "string"
        },
        {
          "internalType": "string",
          "name": "_symbol",
          "type": "string"
        },
        {
          "internalType": "uint8",
          "name": "_decimals",
          "type": "uint8"
        },
        {
          "internalType": "uint256",
          "name": "initialiSupply",
          "type": "uint256"
        }
      ],
      "payable": false,
      "stateMutability": "nonpayable",
      "type": "constructor"
    },
    {
      "anonymous": false,
      "inputs": [
        {
          "indexed": true,
          "internalType": "address",
          "name": "owner",
          "type": "address"
        },
        {
          "indexed": true,
          "internalType": "address",
          "name": "spender",
          "type": "address"
        },
        {
          "indexed": false,
          "internalType": "uint256",
          "name": "value",
          "type": "uint256"
        }
      ],
      "name": "Approval",
      "type": "event"
    },
    {
      "anonymous": false,
      "inputs": [
        {
          "indexed": true,
          "internalType": "address",
          "name": "account",
          "type": "address"
        }
      ],
      "name": "MinterAdded",
      "type": "event"
    },
    {
      "anonymous": false,
      "inputs": [
        {
          "indexed": true,
          "internalType": "address",
          "name": "account",
          "type": "address"
        }
      ],
      "name": "MinterRemoved",
      "type": "event"
    },
    {
      "anonymous": false,
      "inputs": [
        {
          "indexed": true,
          "internalType": "address",
          "name": "from",
          "type": "address"
        },
        {
          "indexed": true,
          "internalType": "address",
          "name": "to",
          "type": "address"
        },
        {
          "indexed": false,
          "internalType": "uint256",
          "name": "value",
          "type": "uint256"
        }
      ],
      "name": "Transfer",
      "type": "event"
    },
    {
      "constant": false,
      "inputs": [
        {
          "internalType": "address",
          "name": "account",
          "type": "address"
        }
      ],
      "name": "addMinter",
      "outputs": [],
      "payable": false,
      "stateMutability": "nonpayable",
      "type": "function"
    },
    {
      "constant": true,
      "inputs": [
        {
          "internalType": "address",
          "name": "owner",
          "type": "address"
        },
        {
          "internalType": "address",
          "name": "spender",
          "type": "address"
        }
      ],
      "name": "allowance",
      "outputs": [
        {
          "internalType": "uint256",
          "name": "",
          "type": "uint256"
        }
      ],
      "payable": false,
      "stateMutability": "view",
      "type": "function"
    },
    {
      "constant": false,
      "inputs": [
        {
          "internalType": "address",
          "name": "spender",
          "type": "address"
        },
        {
          "internalType": "uint256",
          "name": "amount",
          "type": "uint256"
        }
      ],
      "name": "approve",
      "outputs": [
        {
          "internalType": "bool",
          "name": "",
          "type": "bool"
        }
      ],
      "payable": false,
      "stateMutability": "nonpayable",
      "type": "function"
    },
    {
      "constant": true,
      "inputs": [
        {
          "internalType": "address",
          "name": "account",
          "type": "address"
        }
      ],
      "name": "balanceOf",
      "outputs": [
        {
          "internalType": "uint256",
          "name": "",
          "type": "uint256"
        }
      ],
      "payable": false,
      "stateMutability": "view",
      "type": "function"
    },
    {
      "constant": true,
      "inputs": [],
      "name": "decimals",
      "outputs": [
        {
          "internalType": "uint8",
          "name": "",
          "type": "uint8"
        }
      ],
      "payable": false,
      "stateMutability": "view",
      "type": "function"
    },
    {
      "constant": false,
      "inputs": [
        {
          "internalType": "address",
          "name": "spender",
          "type": "address"
        },
        {
          "internalType": "uint256",
          "name": "subtractedValue",
          "type": "uint256"
        }
      ],
      "name": "decreaseAllowance",
      "outputs": [
        {
          "internalType": "bool",
          "name": "",
          "type": "bool"
        }
      ],
      "payable": false,
      "stateMutability": "nonpayable",
      "type": "function"
    },
    {
      "constant": false,
      "inputs": [
        {
          "internalType": "address",
          "name": "spender",
          "type": "address"
        },
        {
          "internalType": "uint256",
          "name": "addedValue",
          "type": "uint256"
        }
      ],
      "name": "increaseAllowance",
      "outputs": [
        {
          "internalType": "bool",
          "name": "",
          "type": "bool"
        }
      ],
      "payable": false,
      "stateMutability": "nonpayable",
      "type": "function"
    },
    {
      "constant": true,
      "inputs": [
        {
          "internalType": "address",
          "name": "account",
          "type": "address"
        }
      ],
      "name": "isMinter",
      "outputs": [
        {
          "internalType": "bool",
          "name": "",
          "type": "bool"
        }
      ],
      "payable": false,
      "stateMutability": "view",
      "type": "function"
    },
    {
      "constant": false,
      "inputs": [
        {
          "internalType": "address",
          "name": "account",
          "type": "address"
        },
        {
          "internalType": "uint256",
          "name": "amount",
          "type": "uint256"
        }
      ],
      "name": "mint",
      "outputs": [
        {
          "internalType": "bool",
          "name": "",
          "type": "bool"
        }
      ],
      "payable": false,
      "stateMutability": "nonpayable",
      "type": "function"
    },
    {
      "constant": true,
      "inputs": [],
      "name": "name",
      "outputs": [
        {
          "internalType": "string",
          "name": "",
          "type": "string"
        }
      ],
      "payable": false,
      "stateMutability": "view",
      "type": "function"
    },
    {
      "constant": false,
      "inputs": [],
      "name": "renounceMinter",
      "outputs": [],
      "payable": false,
      "stateMutability": "nonpayable",
      "type": "function"
    },
    {
      "constant": true,
      "inputs": [],
      "name": "symbol",
      "outputs": [
        {
          "internalType": "string",
          "name": "",
          "type": "string"
        }
      ],
      "payable": false,
      "stateMutability": "view",
      "type": "function"
    },
    {
      "constant": true,
      "inputs": [],
      "name": "totalSupply",
      "outputs": [
        {
          "internalType": "uint256",
          "name": "",
          "type": "uint256"
        }
      ],
      "payable": false,
      "stateMutability": "view",
      "type": "function"
    },
    {
      "constant": false,
      "inputs": [
        {
          "internalType": "address",
          "name": "recipient",
          "type": "address"
        },
        {
          "internalType": "uint256",
          "name": "amount",
          "type": "uint256"
        }
      ],
      "name": "transfer",
      "outputs": [
        {
          "internalType": "bool",
          "name": "",
          "type": "bool"
        }
      ],
      "payable": false,
      "stateMutability": "nonpayable",
      "type": "function"
    },
    {
      "constant": false,
      "inputs": [
        {
          "internalType": "address",
          "name": "sender",
          "type": "address"
        },
        {
          "internalType": "address",
          "name": "recipient",
          "type": "address"
        },
        {
          "internalType": "uint256",
          "name": "amount",
          "type": "uint256"
        }
      ],
      "name": "transferFrom",
      "outputs": [
        {
          "internalType": "bool",
          "name": "",
          "type": "bool"
        }
      ],
      "payable": false,
      "stateMutability": "nonpayable",
      "type": "function"
    }
  ],
  "bytecode": "0x60806040523480156200001157600080fd5b506040516200158138038062001581833981810160405260808110156200003757600080fd5b81019080805160405193929190846401000000008211156200005857600080fd5b9083019060208201858111156200006e57600080fd5b82516401000000008111828201881017156200008957600080fd5b82525081516020918201929091019080838360005b83811015620000b85781810151838201526020016200009e565b50505050905090810190601f168015620000e65780820380516001836020036101000a031916815260200191505b50604052602001805160405193929190846401000000008211156200010a57600080fd5b9083019060208201858111156200012057600080fd5b82516401000000008111828201881017156200013b57600080fd5b82525081516020918201929091019080838360005b838110156200016a57818101518382015260200162000150565b50505050905090810190601f168015620001985780820380516001836020036101000a031916815260200191505b506040908152602082810151929091015186519294509250859185918591620001c8916000919086019062000597565b508151620001de90600190602085019062000597565b506002805460ff191660ff9290921691909117905550620002139050620002046200023d565b6001600160e01b036200024216565b60ff8216600a0a81026200023133826001600160e01b036200029416565b50505050505062000639565b335b90565b6200025d8160066200031760201b62000c551790919060201c565b6040516001600160a01b038216907f6ae172837ea30b801fbfcdd4108aa1d5bf8ff775444fd70256b44e6bf3dfc3f690600090a250565b6000620002bc620002ad6001600160e01b036200023d16565b6001600160e01b03620003a416565b620002f95760405162461bcd60e51b81526004018080602001828103825260308152602001806200152f6030913960400191505060405180910390fd5b6200030e83836001600160e01b03620003c716565b50600192915050565b6200032c82826001600160e01b03620004cc16565b156200037f576040805162461bcd60e51b815260206004820152601f60248201527f526f6c65733a206163636f756e7420616c72656164792068617320726f6c6500604482015290519081900360640190fd5b6001600160a01b0316600090815260209190915260409020805460ff19166001179055565b6000620003c1826006620004cc60201b62000bee1790919060201c565b92915050565b6001600160a01b03821662000423576040805162461bcd60e51b815260206004820152601f60248201527f45524332303a206d696e7420746f20746865207a65726f206164647265737300604482015290519081900360640190fd5b6200043f816005546200053560201b62000a0b1790919060201c565b6005556001600160a01b0382166000908152600360209081526040909120546200047491839062000a0b62000535821b17901c565b6001600160a01b03831660008181526003602090815260408083209490945583518581529351929391927fddf252ad1be2c89b69c2b068fc378daa952ba7f163c4a11628f55a4df523b3ef9281900390910190a35050565b60006001600160a01b038216620005155760405162461bcd60e51b81526004018080602001828103825260228152602001806200155f6022913960400191505060405180910390fd5b506001600160a01b03166000908152602091909152604090205460ff1690565b60008282018381101562000590576040805162461bcd60e51b815260206004820152601b60248201527f536166654d6174683a206164646974696f6e206f766572666c6f770000000000604482015290519081900360640190fd5b9392505050565b828054600181600116156101000203166002900490600052602060002090601f016020900481019282601f10620005da57805160ff19168380011785556200060a565b828001600101855582156200060a579182015b828111156200060a578251825591602001919060010190620005ed565b50620006189291506200061c565b5090565b6200023f91905b8082111562000618576000815560010162000623565b610ee680620006496000396000f3fe608060405234801561001057600080fd5b50600436106100f55760003560e01c806370a0823111610097578063a457c2d711610066578063a457c2d7146102db578063a9059cbb14610307578063aa271e1a14610333578063dd62ed3e14610359576100f5565b806370a082311461027d57806395d89b41146102a3578063983b2d56146102ab57806398650275146102d3576100f5565b806323b872dd116100d357806323b872dd146101d1578063313ce56714610207578063395093511461022557806340c10f1914610251576100f5565b806306fdde03146100fa578063095ea7b31461017757806318160ddd146101b7575b600080fd5b610102610387565b6040805160208082528351818301528351919283929083019185019080838360005b8381101561013c578181015183820152602001610124565b50505050905090810190601f1680156101695780820380516001836020036101000a031916815260200191505b509250505060405180910390f35b6101a36004803603604081101561018d57600080fd5b506001600160a01b03813516906020013561041d565b604080519115158252519081900360200190f35b6101bf61043a565b60408051918252519081900360200190f35b6101a3600480360360608110156101e757600080fd5b506001600160a01b03813581169160208101359091169060400135610440565b61020f6104cd565b6040805160ff9092168252519081900360200190f35b6101a36004803603604081101561023b57600080fd5b506001600160a01b0381351690602001356104d6565b6101a36004803603604081101561026757600080fd5b506001600160a01b03813516906020013561052a565b6101bf6004803603602081101561029357600080fd5b50356001600160a01b0316610581565b61010261059c565b6102d1600480360360208110156102c157600080fd5b50356001600160a01b03166105fc565b005b6102d161064e565b6101a3600480360360408110156102f157600080fd5b506001600160a01b038135169060200135610660565b6101a36004803603604081101561031d57600080fd5b506001600160a01b0381351690602001356106ce565b6101a36004803603602081101561034957600080fd5b50356001600160a01b03166106e2565b6101bf6004803603604081101561036f57600080fd5b506001600160a01b03813581169160200135166106fb565b60008054604080516020601f60026000196101006001881615020190951694909404938401819004810282018101909252828152606093909290918301828280156104135780601f106103e857610100808354040283529160200191610413565b820191906000526020600020905b8154815290600101906020018083116103f657829003601f168201915b5050505050905090565b600061043161042a610726565b848461072a565b50600192915050565b60055490565b600061044d848484610816565b6104c384610459610726565b6104be85604051806060016040528060288152602001610dfa602891396001600160a01b038a16600090815260046020526040812090610497610726565b6001600160a01b03168152602081019190915260400160002054919063ffffffff61097416565b61072a565b5060019392505050565b60025460ff1690565b60006104316104e3610726565b846104be85600460006104f4610726565b6001600160a01b03908116825260208083019390935260409182016000908120918c16815292529020549063ffffffff610a0b16565b600061053c610537610726565b6106e2565b6105775760405162461bcd60e51b8152600401808060200182810382526030815260200180610da96030913960400191505060405180910390fd5b6104318383610a6c565b6001600160a01b031660009081526003602052604090205490565b60018054604080516020601f600260001961010087891615020190951694909404938401819004810282018101909252828152606093909290918301828280156104135780601f106103e857610100808354040283529160200191610413565b610607610537610726565b6106425760405162461bcd60e51b8152600401808060200182810382526030815260200180610da96030913960400191505060405180910390fd5b61064b81610b5e565b50565b61065e610659610726565b610ba6565b565b600061043161066d610726565b846104be85604051806060016040528060258152602001610e8d6025913960046000610697610726565b6001600160a01b03908116825260208083019390935260409182016000908120918d1681529252902054919063ffffffff61097416565b60006104316106db610726565b8484610816565b60006106f560068363ffffffff610bee16565b92915050565b6001600160a01b03918216600090815260046020908152604080832093909416825291909152205490565b3390565b6001600160a01b03831661076f5760405162461bcd60e51b8152600401808060200182810382526024815260200180610e696024913960400191505060405180910390fd5b6001600160a01b0382166107b45760405162461bcd60e51b8152600401808060200182810382526022815260200180610d616022913960400191505060405180910390fd5b6001600160a01b03808416600081815260046020908152604080832094871680845294825291829020859055815185815291517f8c5be1e5ebec7d5bd14f71427d1e84f3dd0314c0f7b2291e5b200ac8c7c3b9259281900390910190a3505050565b6001600160a01b03831661085b5760405162461bcd60e51b8152600401808060200182810382526025815260200180610e446025913960400191505060405180910390fd5b6001600160a01b0382166108a05760405162461bcd60e51b8152600401808060200182810382526023815260200180610d3e6023913960400191505060405180910390fd5b6108e381604051806060016040528060268152602001610d83602691396001600160a01b038616600090815260036020526040902054919063ffffffff61097416565b6001600160a01b038085166000908152600360205260408082209390935590841681522054610918908263ffffffff610a0b16565b6001600160a01b0380841660008181526003602090815260409182902094909455805185815290519193928716927fddf252ad1be2c89b69c2b068fc378daa952ba7f163c4a11628f55a4df523b3ef92918290030190a3505050565b60008184841115610a035760405162461bcd60e51b81526004018080602001828103825283818151815260200191508051906020019080838360005b838110156109c85781810151838201526020016109b0565b50505050905090810190601f1680156109f55780820380516001836020036101000a031916815260200191505b509250505060405180910390fd5b505050900390565b600082820183811015610a65576040805162461bcd60e51b815260206004820152601b60248201527f536166654d6174683a206164646974696f6e206f766572666c6f770000000000604482015290519081900360640190fd5b9392505050565b6001600160a01b038216610ac7576040805162461bcd60e51b815260206004820152601f60248201527f45524332303a206d696e7420746f20746865207a65726f206164647265737300604482015290519081900360640190fd5b600554610ada908263ffffffff610a0b16565b6005556001600160a01b038216600090815260036020526040902054610b06908263ffffffff610a0b16565b6001600160a01b03831660008181526003602090815260408083209490945583518581529351929391927fddf252ad1be2c89b69c2b068fc378daa952ba7f163c4a11628f55a4df523b3ef9281900390910190a35050565b610b6f60068263ffffffff610c5516565b6040516001600160a01b038216907f6ae172837ea30b801fbfcdd4108aa1d5bf8ff775444fd70256b44e6bf3dfc3f690600090a250565b610bb760068263ffffffff610cd616565b6040516001600160a01b038216907fe94479a9f7e1952cc78f2d6baab678adc1b772d936c6583def489e524cb6669290600090a250565b60006001600160a01b038216610c355760405162461bcd60e51b8152600401808060200182810382526022815260200180610e226022913960400191505060405180910390fd5b506001600160a01b03166000908152602091909152604090205460ff1690565b610c5f8282610bee565b15610cb1576040805162461bcd60e51b815260206004820152601f60248201527f526f6c65733a206163636f756e7420616c72656164792068617320726f6c6500604482015290519081900360640190fd5b6001600160a01b0316600090815260209190915260409020805460ff19166001179055565b610ce08282610bee565b610d1b5760405162461bcd60e51b8152600401808060200182810382526021815260200180610dd96021913960400191505060405180910390fd5b6001600160a01b0316600090815260209190915260409020805460ff1916905556fe45524332303a207472616e7366657220746f20746865207a65726f206164647265737345524332303a20617070726f766520746f20746865207a65726f206164647265737345524332303a207472616e7366657220616d6f756e7420657863656564732062616c616e63654d696e746572526f6c653a2063616c6c657220646f6573206e6f74206861766520746865204d696e74657220726f6c65526f6c65733a206163636f756e7420646f6573206e6f74206861766520726f6c6545524332303a207472616e7366657220616d6f756e74206578636565647320616c6c6f77616e6365526f6c65733a206163636f756e7420697320746865207a65726f206164647265737345524332303a207472616e736665722066726f6d20746865207a65726f206164647265737345524332303a20617070726f76652066726f6d20746865207a65726f206164647265737345524332303a2064656372656173656420616c6c6f77616e63652062656c6f77207a65726fa265627a7a7231582098cf512fc1104da41ba019997af0f2c7cb07a96d9fabc51f2f824e815c47e8c164736f6c634300050e00324d696e746572526f6c653a2063616c6c657220646f6573206e6f74206861766520746865204d696e74657220726f6c65526f6c65733a206163636f756e7420697320746865207a65726f2061646472657373",
  "source": "pragma solidity 0.5.14;\n\nimport { ERC20Detailed } from \"openzeppelin-solidity/contracts/token/ERC20/ERC20Detailed.sol\";\nimport { ERC20Mintable } from \"openzeppelin-solidity/contracts/token/ERC20/ERC20Mintable.sol\";\n\ncontract MockERC20 is ERC20Detailed, ERC20Mintable {\n\n    constructor(\n        string memory _name,\n        string memory _symbol,\n        uint8 _decimals,\n        uint256 initialiSupply\n    )\n        public\n        ERC20Detailed(\n            _name,\n            _symbol,\n            _decimals\n        )\n    {\n        uint256 tokens = initialiSupply * (10 ** uint256(_decimals));\n        mint(msg.sender, tokens);\n    }\n}",
  "sourcePath": "/Users/yanyichun/project/Savings/contracts/mocks/MockERC20.sol",
  "compiler": {
    "name": "solc",
    "version": "0.5.14+commit.01f1aaa4.Emscripten.clang"
  },
  "schemaVersion": "3.2.3",
  "updatedAt": "2021-02-25T05:55:41.099Z",
  "devdoc": {
    "methods": {
      "allowance(address,address)": {
        "details": "See {IERC20-allowance}."
      },
      "approve(address,uint256)": {
        "details": "See {IERC20-approve}.     * Requirements:     * - `spender` cannot be the zero address."
      },
      "balanceOf(address)": {
        "details": "See {IERC20-balanceOf}."
      },
      "decimals()": {
        "details": "Returns the number of decimals used to get its user representation. For example, if `decimals` equals `2`, a balance of `505` tokens should be displayed to a user as `5,05` (`505 / 10 ** 2`).     * Tokens usually opt for a value of 18, imitating the relationship between Ether and Wei.     * NOTE: This information is only used for _display_ purposes: it in no way affects any of the arithmetic of the contract, including {IERC20-balanceOf} and {IERC20-transfer}."
      },
      "decreaseAllowance(address,uint256)": {
        "details": "Atomically decreases the allowance granted to `spender` by the caller.     * This is an alternative to {approve} that can be used as a mitigation for problems described in {IERC20-approve}.     * Emits an {Approval} event indicating the updated allowance.     * Requirements:     * - `spender` cannot be the zero address. - `spender` must have allowance for the caller of at least `subtractedValue`."
      },
      "increaseAllowance(address,uint256)": {
        "details": "Atomically increases the allowance granted to `spender` by the caller.     * This is an alternative to {approve} that can be used as a mitigation for problems described in {IERC20-approve}.     * Emits an {Approval} event indicating the updated allowance.     * Requirements:     * - `spender` cannot be the zero address."
      },
      "mint(address,uint256)": {
        "details": "See {ERC20-_mint}.     * Requirements:     * - the caller must have the {MinterRole}."
      },
      "name()": {
        "details": "Returns the name of the token."
      },
      "symbol()": {
        "details": "Returns the symbol of the token, usually a shorter version of the name."
      },
      "totalSupply()": {
        "details": "See {IERC20-totalSupply}."
      },
      "transfer(address,uint256)": {
        "details": "See {IERC20-transfer}.     * Requirements:     * - `recipient` cannot be the zero address. - the caller must have a balance of at least `amount`."
      },
      "transferFrom(address,address,uint256)": {
        "details": "See {IERC20-transferFrom}.     * Emits an {Approval} event indicating the updated allowance. This is not required by the EIP. See the note at the beginning of {ERC20};     * Requirements: - `sender` and `recipient` cannot be the zero address. - `sender` must have a balance of at least `amount`. - the caller must have allowance for `sender`'s tokens of at least `amount`."
      }
    }
  },
  "userdoc": {
    "methods": {}
  }
}