{
  "contractName": "PriceOracleProxy",
  "abi": [
    {
      "inputs": [
        {
          "internalType": "address",
          "name": "guardian_",
          "type": "address"
        },
        {
          "internalType": "address",
          "name": "v1PriceOracle_",
          "type": "address"
        },
        {
          "internalType": "address",
          "name": "cEthAddress_",
          "type": "address"
        },
        {
          "internalType": "address",
          "name": "cUsdcAddress_",
          "type": "address"
        },
        {
          "internalType": "address",
          "name": "cSaiAddress_",
          "type": "address"
        },
        {
          "internalType": "address",
          "name": "cDaiAddress_",
          "type": "address"
        },
        {
          "internalType": "address",
          "name": "cUsdtAddress_",
          "type": "address"
        }
      ],
      "payable": false,
      "stateMutability": "nonpayable",
      "type": "constructor"
    },
    {
      "constant": true,
      "inputs": [],
      "name": "cDaiAddress",
      "outputs": [
        {
          "internalType": "address",
          "name": "",
          "type": "address"
        }
      ],
      "payable": false,
      "stateMutability": "view",
      "type": "function"
    },
    {
      "constant": true,
      "inputs": [],
      "name": "cEthAddress",
      "outputs": [
        {
          "internalType": "address",
          "name": "",
          "type": "address"
        }
      ],
      "payable": false,
      "stateMutability": "view",
      "type": "function"
    },
    {
      "constant": true,
      "inputs": [],
      "name": "cSaiAddress",
      "outputs": [
        {
          "internalType": "address",
          "name": "",
          "type": "address"
        }
      ],
      "payable": false,
      "stateMutability": "view",
      "type": "function"
    },
    {
      "constant": true,
      "inputs": [],
      "name": "cUsdcAddress",
      "outputs": [
        {
          "internalType": "address",
          "name": "",
          "type": "address"
        }
      ],
      "payable": false,
      "stateMutability": "view",
      "type": "function"
    },
    {
      "constant": true,
      "inputs": [],
      "name": "cUsdtAddress",
      "outputs": [
        {
          "internalType": "address",
          "name": "",
          "type": "address"
        }
      ],
      "payable": false,
      "stateMutability": "view",
      "type": "function"
    },
    {
      "constant": true,
      "inputs": [],
      "name": "daiOracleKey",
      "outputs": [
        {
          "internalType": "address",
          "name": "",
          "type": "address"
        }
      ],
      "payable": false,
      "stateMutability": "view",
      "type": "function"
    },
    {
      "constant": true,
      "inputs": [],
      "name": "guardian",
      "outputs": [
        {
          "internalType": "address",
          "name": "",
          "type": "address"
        }
      ],
      "payable": false,
      "stateMutability": "view",
      "type": "function"
    },
    {
      "constant": true,
      "inputs": [],
      "name": "isPriceOracle",
      "outputs": [
        {
          "internalType": "bool",
          "name": "",
          "type": "bool"
        }
      ],
      "payable": false,
      "stateMutability": "view",
      "type": "function"
    },
    {
      "constant": true,
      "inputs": [],
      "name": "saiPrice",
      "outputs": [
        {
          "internalType": "uint256",
          "name": "",
          "type": "uint256"
        }
      ],
      "payable": false,
      "stateMutability": "view",
      "type": "function"
    },
    {
      "constant": true,
      "inputs": [],
      "name": "usdcOracleKey",
      "outputs": [
        {
          "internalType": "address",
          "name": "",
          "type": "address"
        }
      ],
      "payable": false,
      "stateMutability": "view",
      "type": "function"
    },
    {
      "constant": true,
      "inputs": [],
      "name": "v1PriceOracle",
      "outputs": [
        {
          "internalType": "contract V1PriceOracleInterface",
          "name": "",
          "type": "address"
        }
      ],
      "payable": false,
      "stateMutability": "view",
      "type": "function"
    },
    {
      "constant": true,
      "inputs": [
        {
          "internalType": "contract CToken",
          "name": "cToken",
          "type": "address"
        }
      ],
      "name": "getUnderlyingPrice",
      "outputs": [
        {
          "internalType": "uint256",
          "name": "",
          "type": "uint256"
        }
      ],
      "payable": false,
      "stateMutability": "view",
      "type": "function"
    },
    {
      "constant": false,
      "inputs": [
        {
          "internalType": "uint256",
          "name": "price",
          "type": "uint256"
        }
      ],
      "name": "setSaiPrice",
      "outputs": [],
      "payable": false,
      "stateMutability": "nonpayable",
      "type": "function"
    }
  ],
  "bytecode": "0x608060405234801561001057600080fd5b50604051610739380380610739833981810160405260e081101561003357600080fd5b508051602082015160408301516060840151608085015160a086015160c090960151600180546001600160a01b039788166001600160a01b03199182161790915560008054968816968216969096179095556002805494871694861694909417909355600380549286169285169290921790915560058054918516918416919091179055600680549484169483169490941790935560048054929093169116179055610655806100e46000396000f3fe608060405234801561001057600080fd5b50600436106100cf5760003560e01c8063a86b19441161008c578063f9c99e9c11610066578063f9c99e9c1461015e578063fc57d4df1461017d578063fe10c98d146101a3578063ff11439b146101ab576100cf565b8063a86b194414610134578063e5ee0f6e1461014e578063f2c65bf914610156576100cf565b80631a3cb2e8146100d457806321b49128146100f85780632ed58e15146101005780633e76f25514610108578063452a93201461011057806366331bba14610118575b600080fd5b6100dc6101b3565b604080516001600160a01b039092168252519081900360200190f35b6100dc6101c2565b6100dc6101d1565b6100dc6101e0565b6100dc6101e5565b6101206101e0565b604080519115158252519081900360200190f35b61013c6101f4565b60408051918252519081900360200190f35b6100dc6101fa565b6100dc6101ff565b61017b6004803603602081101561017457600080fd5b503561020e565b005b61013c6004803603602081101561019357600080fd5b50356001600160a01b031661030d565b6100dc6105df565b6100dc6105ee565b6004546001600160a01b031681565b6005546001600160a01b031681565b6002546001600160a01b031681565b600181565b6001546001600160a01b031681565b60075481565b600281565b6006546001600160a01b031681565b6001546001600160a01b031633146102575760405162461bcd60e51b81526004018080602001828103825260238152602001806105fe6023913960400191505060405180910390fd5b600754156102ac576040805162461bcd60e51b815260206004820152601e60248201527f534149207072696365206d6179206f6e6c7920626520736574206f6e63650000604482015290519081900360640190fd5b67016345785d8a00008110610308576040805162461bcd60e51b815260206004820152601b60248201527f534149207072696365206d757374206265203c20302e31204554480000000000604482015290519081900360640190fd5b600755565b60025460009082906001600160a01b038083169116141561033957670de0b6b3a76400009150506105da565b6003546001600160a01b038281169116148061036257506004546001600160a01b038281169116145b156103e857600054604080516317a6948f60e21b81526001600482015290516001600160a01b0390921691635e9a523c91602480820192602092909190829003018186803b1580156103b357600080fd5b505afa1580156103c7573d6000803e3d6000fd5b505050506040513d60208110156103dd57600080fd5b505191506105da9050565b6006546001600160a01b038281169116141561044a57600054604080516317a6948f60e21b81526002600482015290516001600160a01b0390921691635e9a523c91602480820192602092909190829003018186803b1580156103b357600080fd5b6005546001600160a01b03828116911614156104f3576000600754116104e757600054604080516317a6948f60e21b81526002600482015290516001600160a01b0390921691635e9a523c91602480820192602092909190829003018186803b1580156104b657600080fd5b505afa1580156104ca573d6000803e3d6000fd5b505050506040513d60208110156104e057600080fd5b50516104eb565b6007545b9150506105da565b6000816001600160a01b0316636f307dc36040518163ffffffff1660e01b815260040160206040518083038186803b15801561052e57600080fd5b505afa158015610542573d6000803e3d6000fd5b505050506040513d602081101561055857600080fd5b5051600054604080516317a6948f60e21b81526001600160a01b0380851660048301529151939450911691635e9a523c91602480820192602092909190829003018186803b1580156105a957600080fd5b505afa1580156105bd573d6000803e3d6000fd5b505050506040513d60208110156105d357600080fd5b5051925050505b919050565b6000546001600160a01b031681565b6003546001600160a01b03168156fe6f6e6c7920677561726469616e206d6179207365742074686520534149207072696365a265627a7a72315820abafab13a18e0f3ec4150585e42ebb799ec2321496c2808eb1f14f877211901964736f6c634300050e0032",
  "source": "pragma solidity ^0.5.14;\n\nimport \"./CErc20.sol\";\nimport \"./CToken.sol\";\nimport \"./PriceOracle.sol\";\n\ninterface V1PriceOracleInterface {\n    function assetPrices(address asset) external view returns (uint);\n}\n\ncontract PriceOracleProxy is PriceOracle {\n    /// @notice Indicator that this is a PriceOracle contract (for inspection)\n    bool public constant isPriceOracle = true;\n\n    /// @notice The v1 price oracle, which will continue to serve prices for v1 assets\n    V1PriceOracleInterface public v1PriceOracle;\n\n    /// @notice Address of the guardian, which may set the SAI price once\n    address public guardian;\n\n    /// @notice Address of the cEther contract, which has a constant price\n    address public cEthAddress;\n\n    /// @notice Address of the cUSDC contract, which we hand pick a key for\n    address public cUsdcAddress;\n\n    /// @notice Address of the cUSDT contract, which uses the cUSDC price\n    address public cUsdtAddress;\n\n    /// @notice Address of the cSAI contract, which may have its price set\n    address public cSaiAddress;\n\n    /// @notice Address of the cDAI contract, which we hand pick a key for\n    address public cDaiAddress;\n\n    /// @notice Handpicked key for USDC\n    address public constant usdcOracleKey = address(1);\n\n    /// @notice Handpicked key for DAI\n    address public constant daiOracleKey = address(2);\n\n    /// @notice Frozen SAI price (or 0 if not set yet)\n    uint public saiPrice;\n\n    /**\n     * @param guardian_ The address of the guardian, which may set the SAI price once\n     * @param v1PriceOracle_ The address of the v1 price oracle, which will continue to operate and hold prices for collateral assets\n     * @param cEthAddress_ The address of cETH, which will return a constant 1e18, since all prices relative to ether\n     * @param cUsdcAddress_ The address of cUSDC, which will be read from a special oracle key\n     * @param cSaiAddress_ The address of cSAI, which may be read directly from storage\n     * @param cDaiAddress_ The address of cDAI, which will be read from a special oracle key\n     * @param cUsdtAddress_ The address of cUSDT, which uses the cUSDC price\n     */\n    constructor(address guardian_,\n                address v1PriceOracle_,\n                address cEthAddress_,\n                address cUsdcAddress_,\n                address cSaiAddress_,\n                address cDaiAddress_,\n                address cUsdtAddress_) public {\n        guardian = guardian_;\n        v1PriceOracle = V1PriceOracleInterface(v1PriceOracle_);\n\n        cEthAddress = cEthAddress_;\n        cUsdcAddress = cUsdcAddress_;\n        cSaiAddress = cSaiAddress_;\n        cDaiAddress = cDaiAddress_;\n        cUsdtAddress = cUsdtAddress_;\n    }\n\n    /**\n     * @notice Get the underlying price of a listed cToken asset\n     * @param cToken The cToken to get the underlying price of\n     * @return The underlying asset price mantissa (scaled by 1e18)\n     */\n    function getUnderlyingPrice(CToken cToken) public view returns (uint) {\n        address cTokenAddress = address(cToken);\n\n        if (cTokenAddress == cEthAddress) {\n            // ether always worth 1\n            return 1e18;\n        }\n\n        if (cTokenAddress == cUsdcAddress || cTokenAddress == cUsdtAddress) {\n            return v1PriceOracle.assetPrices(usdcOracleKey);\n        }\n\n        if (cTokenAddress == cDaiAddress) {\n            return v1PriceOracle.assetPrices(daiOracleKey);\n        }\n\n        if (cTokenAddress == cSaiAddress) {\n            // use the frozen SAI price if set, otherwise use the DAI price\n            return saiPrice > 0 ? saiPrice : v1PriceOracle.assetPrices(daiOracleKey);\n        }\n\n        // otherwise just read from v1 oracle\n        address underlying = CErc20(cTokenAddress).underlying();\n        return v1PriceOracle.assetPrices(underlying);\n    }\n\n    /**\n     * @notice Set the price of SAI, permanently\n     * @param price The price for SAI\n     */\n    function setSaiPrice(uint price) public {\n        require(msg.sender == guardian, \"only guardian may set the SAI price\");\n        require(saiPrice == 0, \"SAI price may only be set once\");\n        require(price < 0.1e18, \"SAI price must be < 0.1 ETH\");\n        saiPrice = price;\n    }\n}\n",
  "sourcePath": "/Users/yanyichun/project/Savings/contracts/compound/contracts/PriceOracleProxy.sol",
  "compiler": {
    "name": "solc",
    "version": "0.5.14+commit.01f1aaa4.Emscripten.clang"
  },
  "schemaVersion": "3.2.3",
  "updatedAt": "2021-02-25T05:55:40.711Z",
  "devdoc": {
    "methods": {
      "constructor": {
        "params": {
          "cDaiAddress_": "The address of cDAI, which will be read from a special oracle key",
          "cEthAddress_": "The address of cETH, which will return a constant 1e18, since all prices relative to ether",
          "cSaiAddress_": "The address of cSAI, which may be read directly from storage",
          "cUsdcAddress_": "The address of cUSDC, which will be read from a special oracle key",
          "cUsdtAddress_": "The address of cUSDT, which uses the cUSDC price",
          "guardian_": "The address of the guardian, which may set the SAI price once",
          "v1PriceOracle_": "The address of the v1 price oracle, which will continue to operate and hold prices for collateral assets"
        }
      },
      "getUnderlyingPrice(address)": {
        "params": {
          "cToken": "The cToken to get the underlying price of"
        },
        "return": "The underlying asset price mantissa (scaled by 1e18)"
      },
      "setSaiPrice(uint256)": {
        "params": {
          "price": "The price for SAI"
        }
      }
    }
  },
  "userdoc": {
    "methods": {
      "getUnderlyingPrice(address)": {
        "notice": "Get the underlying price of a listed cToken asset"
      },
      "setSaiPrice(uint256)": {
        "notice": "Set the price of SAI, permanently"
      }
    }
  }
}