{
  "contractName": "SavingAccountWithController",
  "abi": [
    {
      "inputs": [],
      "payable": false,
      "stateMutability": "nonpayable",
      "type": "constructor"
    },
    {
      "anonymous": false,
      "inputs": [
        {
          "indexed": true,
          "internalType": "address",
          "name": "token",
          "type": "address"
        },
        {
          "indexed": false,
          "internalType": "address",
          "name": "from",
          "type": "address"
        },
        {
          "indexed": false,
          "internalType": "uint256",
          "name": "amount",
          "type": "uint256"
        }
      ],
      "name": "Borrow",
      "type": "event"
    },
    {
      "anonymous": false,
      "inputs": [
        {
          "indexed": false,
          "internalType": "address",
          "name": "from",
          "type": "address"
        },
        {
          "indexed": false,
          "internalType": "uint256",
          "name": "amount",
          "type": "uint256"
        }
      ],
      "name": "Claim",
      "type": "event"
    },
    {
      "anonymous": false,
      "inputs": [
        {
          "indexed": true,
          "internalType": "address",
          "name": "token",
          "type": "address"
        },
        {
          "indexed": false,
          "internalType": "address",
          "name": "from",
          "type": "address"
        },
        {
          "indexed": false,
          "internalType": "uint256",
          "name": "amount",
          "type": "uint256"
        }
      ],
      "name": "Deposit",
      "type": "event"
    },
    {
      "anonymous": false,
      "inputs": [
        {
          "indexed": false,
          "internalType": "address",
          "name": "account",
          "type": "address"
        }
      ],
      "name": "Paused",
      "type": "event"
    },
    {
      "anonymous": false,
      "inputs": [
        {
          "indexed": true,
          "internalType": "address",
          "name": "token",
          "type": "address"
        },
        {
          "indexed": false,
          "internalType": "address",
          "name": "from",
          "type": "address"
        },
        {
          "indexed": false,
          "internalType": "uint256",
          "name": "amount",
          "type": "uint256"
        }
      ],
      "name": "Repay",
      "type": "event"
    },
    {
      "anonymous": false,
      "inputs": [
        {
          "indexed": true,
          "internalType": "address",
          "name": "token",
          "type": "address"
        },
        {
          "indexed": false,
          "internalType": "address",
          "name": "from",
          "type": "address"
        },
        {
          "indexed": false,
          "internalType": "address",
          "name": "to",
          "type": "address"
        },
        {
          "indexed": false,
          "internalType": "uint256",
          "name": "amount",
          "type": "uint256"
        }
      ],
      "name": "Transfer",
      "type": "event"
    },
    {
      "anonymous": false,
      "inputs": [
        {
          "indexed": false,
          "internalType": "address",
          "name": "account",
          "type": "address"
        }
      ],
      "name": "Unpaused",
      "type": "event"
    },
    {
      "anonymous": false,
      "inputs": [
        {
          "indexed": true,
          "internalType": "address",
          "name": "token",
          "type": "address"
        },
        {
          "indexed": false,
          "internalType": "address",
          "name": "from",
          "type": "address"
        },
        {
          "indexed": false,
          "internalType": "uint256",
          "name": "amount",
          "type": "uint256"
        }
      ],
      "name": "Withdraw",
      "type": "event"
    },
    {
      "anonymous": false,
      "inputs": [
        {
          "indexed": true,
          "internalType": "address",
          "name": "token",
          "type": "address"
        },
        {
          "indexed": false,
          "internalType": "address",
          "name": "from",
          "type": "address"
        },
        {
          "indexed": false,
          "internalType": "uint256",
          "name": "amount",
          "type": "uint256"
        }
      ],
      "name": "WithdrawAll",
      "type": "event"
    },
    {
      "payable": true,
      "stateMutability": "payable",
      "type": "fallback"
    },
    {
      "constant": true,
      "inputs": [],
      "name": "ACCURACY",
      "outputs": [
        {
          "internalType": "uint256",
          "name": "",
          "type": "uint256"
        }
      ],
      "payable": false,
      "stateMutability": "view",
      "type": "function"
    },
    {
      "constant": true,
      "inputs": [],
      "name": "BLOCKS_PER_YEAR",
      "outputs": [
        {
          "internalType": "uint256",
          "name": "",
          "type": "uint256"
        }
      ],
      "payable": false,
      "stateMutability": "view",
      "type": "function"
    },
    {
      "constant": true,
      "inputs": [],
      "name": "EMERGENCY_ADDR",
      "outputs": [
        {
          "internalType": "address payable",
          "name": "",
          "type": "address"
        }
      ],
      "payable": false,
      "stateMutability": "view",
      "type": "function"
    },
    {
      "constant": true,
      "inputs": [],
      "name": "ETH_ADDR",
      "outputs": [
        {
          "internalType": "address",
          "name": "",
          "type": "address"
        }
      ],
      "payable": false,
      "stateMutability": "view",
      "type": "function"
    },
    {
      "constant": true,
      "inputs": [],
      "name": "INT_UNIT",
      "outputs": [
        {
          "internalType": "uint256",
          "name": "",
          "type": "uint256"
        }
      ],
      "payable": false,
      "stateMutability": "view",
      "type": "function"
    },
    {
      "constant": true,
      "inputs": [],
      "name": "accountVariable",
      "outputs": [
        {
          "internalType": "uint128",
          "name": "depositBitmap",
          "type": "uint128"
        },
        {
          "internalType": "uint128",
          "name": "borrowBitmap",
          "type": "uint128"
        }
      ],
      "payable": false,
      "stateMutability": "view",
      "type": "function"
    },
    {
      "constant": false,
      "inputs": [
        {
          "internalType": "address",
          "name": "_token",
          "type": "address"
        }
      ],
      "name": "approveAll",
      "outputs": [],
      "payable": false,
      "stateMutability": "nonpayable",
      "type": "function"
    },
    {
      "constant": false,
      "inputs": [
        {
          "internalType": "address",
          "name": "_token",
          "type": "address"
        },
        {
          "internalType": "uint256",
          "name": "_amount",
          "type": "uint256"
        }
      ],
      "name": "borrow",
      "outputs": [],
      "payable": false,
      "stateMutability": "nonpayable",
      "type": "function"
    },
    {
      "constant": false,
      "inputs": [],
      "name": "claim",
      "outputs": [],
      "payable": false,
      "stateMutability": "nonpayable",
      "type": "function"
    },
    {
      "constant": false,
      "inputs": [
        {
          "internalType": "address",
          "name": "_token",
          "type": "address"
        },
        {
          "internalType": "uint256",
          "name": "_amount",
          "type": "uint256"
        }
      ],
      "name": "deposit",
      "outputs": [],
      "payable": true,
      "stateMutability": "payable",
      "type": "function"
    },
    {
      "constant": false,
      "inputs": [
        {
          "internalType": "address",
          "name": "_token",
          "type": "address"
        }
      ],
      "name": "emergencyWithdraw",
      "outputs": [],
      "payable": false,
      "stateMutability": "nonpayable",
      "type": "function"
    },
    {
      "constant": false,
      "inputs": [
        {
          "internalType": "address",
          "name": "_token",
          "type": "address"
        },
        {
          "internalType": "uint256",
          "name": "_amount",
          "type": "uint256"
        }
      ],
      "name": "fromCompound",
      "outputs": [],
      "payable": false,
      "stateMutability": "nonpayable",
      "type": "function"
    },
    {
      "constant": true,
      "inputs": [],
      "name": "globalConfig",
      "outputs": [
        {
          "internalType": "contract GlobalConfig",
          "name": "",
          "type": "address"
        }
      ],
      "payable": false,
      "stateMutability": "view",
      "type": "function"
    },
    {
      "constant": false,
      "inputs": [
        {
          "internalType": "address",
          "name": "_borrower",
          "type": "address"
        },
        {
          "internalType": "address",
          "name": "_borrowedToken",
          "type": "address"
        },
        {
          "internalType": "address",
          "name": "_collateralToken",
          "type": "address"
        }
      ],
      "name": "liquidate",
      "outputs": [],
      "payable": false,
      "stateMutability": "nonpayable",
      "type": "function"
    },
    {
      "constant": false,
      "inputs": [],
      "name": "pause",
      "outputs": [],
      "payable": false,
      "stateMutability": "nonpayable",
      "type": "function"
    },
    {
      "constant": true,
      "inputs": [],
      "name": "paused",
      "outputs": [
        {
          "internalType": "bool",
          "name": "",
          "type": "bool"
        }
      ],
      "payable": false,
      "stateMutability": "view",
      "type": "function"
    },
    {
      "constant": false,
      "inputs": [
        {
          "internalType": "address",
          "name": "_token",
          "type": "address"
        },
        {
          "internalType": "uint256",
          "name": "_amount",
          "type": "uint256"
        }
      ],
      "name": "repay",
      "outputs": [],
      "payable": true,
      "stateMutability": "payable",
      "type": "function"
    },
    {
      "constant": false,
      "inputs": [
        {
          "internalType": "address",
          "name": "_token",
          "type": "address"
        },
        {
          "internalType": "uint256",
          "name": "_amount",
          "type": "uint256"
        }
      ],
      "name": "toCompound",
      "outputs": [],
      "payable": false,
      "stateMutability": "nonpayable",
      "type": "function"
    },
    {
      "constant": false,
      "inputs": [
        {
          "internalType": "address",
          "name": "_to",
          "type": "address"
        },
        {
          "internalType": "address",
          "name": "_token",
          "type": "address"
        },
        {
          "internalType": "uint256",
          "name": "_amount",
          "type": "uint256"
        }
      ],
      "name": "transfer",
      "outputs": [],
      "payable": false,
      "stateMutability": "nonpayable",
      "type": "function"
    },
    {
      "constant": false,
      "inputs": [],
      "name": "unpause",
      "outputs": [],
      "payable": false,
      "stateMutability": "nonpayable",
      "type": "function"
    },
    {
      "constant": false,
      "inputs": [
        {
          "internalType": "address",
          "name": "_token",
          "type": "address"
        },
        {
          "internalType": "uint256",
          "name": "_amount",
          "type": "uint256"
        }
      ],
      "name": "withdraw",
      "outputs": [],
      "payable": false,
      "stateMutability": "nonpayable",
      "type": "function"
    },
    {
      "constant": false,
      "inputs": [
        {
          "internalType": "address",
          "name": "_token",
          "type": "address"
        }
      ],
      "name": "withdrawAll",
      "outputs": [],
      "payable": false,
      "stateMutability": "nonpayable",
      "type": "function"
    },
    {
      "constant": false,
      "inputs": [
        {
          "internalType": "address[]",
          "name": "_tokenAddresses",
          "type": "address[]"
        },
        {
          "internalType": "address[]",
          "name": "_cTokenAddresses",
          "type": "address[]"
        },
        {
          "internalType": "contract GlobalConfig",
          "name": "_globalConfig",
          "type": "address"
        }
      ],
      "name": "initialize",
      "outputs": [],
      "payable": false,
      "stateMutability": "nonpayable",
      "type": "function"
    },
    {
      "constant": false,
      "inputs": [
        {
          "internalType": "address[]",
          "name": "_tokenAddresses",
          "type": "address[]"
        },
        {
          "internalType": "address[]",
          "name": "_cTokenAddresses",
          "type": "address[]"
        },
        {
          "internalType": "contract GlobalConfig",
          "name": "_globalConfig",
          "type": "address"
        },
        {
          "internalType": "address",
          "name": "_comptroller",
          "type": "address"
        }
      ],
      "name": "initialize",
      "outputs": [],
      "payable": false,
      "stateMutability": "nonpayable",
      "type": "function"
    },
    {
      "constant": false,
      "inputs": [
        {
          "internalType": "uint256",
          "name": "blocks",
          "type": "uint256"
        }
      ],
      "name": "fastForward",
      "outputs": [
        {
          "internalType": "uint256",
          "name": "",
          "type": "uint256"
        }
      ],
      "payable": false,
      "stateMutability": "nonpayable",
      "type": "function"
    },
    {
      "constant": false,
      "inputs": [
        {
          "internalType": "address",
          "name": "_token",
          "type": "address"
        }
      ],
      "name": "newRateIndexCheckpoint",
      "outputs": [],
      "payable": false,
      "stateMutability": "nonpayable",
      "type": "function"
    },
    {
      "constant": true,
      "inputs": [
        {
          "internalType": "address",
          "name": "_token",
          "type": "address"
        }
      ],
      "name": "getDepositPrincipal",
      "outputs": [
        {
          "internalType": "uint256",
          "name": "",
          "type": "uint256"
        }
      ],
      "payable": false,
      "stateMutability": "view",
      "type": "function"
    },
    {
      "constant": true,
      "inputs": [
        {
          "internalType": "address",
          "name": "_token",
          "type": "address"
        }
      ],
      "name": "getDepositInterest",
      "outputs": [
        {
          "internalType": "uint256",
          "name": "",
          "type": "uint256"
        }
      ],
      "payable": false,
      "stateMutability": "view",
      "type": "function"
    },
    {
      "constant": true,
      "inputs": [
        {
          "internalType": "address",
          "name": "_token",
          "type": "address"
        },
        {
          "internalType": "address",
          "name": "_accountAddr",
          "type": "address"
        }
      ],
      "name": "getDepositBalance",
      "outputs": [
        {
          "internalType": "uint256",
          "name": "",
          "type": "uint256"
        }
      ],
      "payable": false,
      "stateMutability": "view",
      "type": "function"
    },
    {
      "constant": true,
      "inputs": [
        {
          "internalType": "address",
          "name": "_token",
          "type": "address"
        }
      ],
      "name": "getBorrowPrincipal",
      "outputs": [
        {
          "internalType": "uint256",
          "name": "",
          "type": "uint256"
        }
      ],
      "payable": false,
      "stateMutability": "view",
      "type": "function"
    },
    {
      "constant": true,
      "inputs": [
        {
          "internalType": "address",
          "name": "_token",
          "type": "address"
        }
      ],
      "name": "getBorrowInterest",
      "outputs": [
        {
          "internalType": "uint256",
          "name": "",
          "type": "uint256"
        }
      ],
      "payable": false,
      "stateMutability": "view",
      "type": "function"
    },
    {
      "constant": true,
      "inputs": [
        {
          "internalType": "address",
          "name": "_token",
          "type": "address"
        },
        {
          "internalType": "address",
          "name": "_accountAddr",
          "type": "address"
        }
      ],
      "name": "getBorrowBalance",
      "outputs": [
        {
          "internalType": "uint256",
          "name": "",
          "type": "uint256"
        }
      ],
      "payable": false,
      "stateMutability": "view",
      "type": "function"
    },
    {
      "constant": true,
      "inputs": [
        {
          "internalType": "address",
          "name": "_account",
          "type": "address"
        }
      ],
      "name": "getBorrowETH",
      "outputs": [
        {
          "internalType": "uint256",
          "name": "",
          "type": "uint256"
        }
      ],
      "payable": false,
      "stateMutability": "view",
      "type": "function"
    },
    {
      "constant": true,
      "inputs": [
        {
          "internalType": "address",
          "name": "_account",
          "type": "address"
        }
      ],
      "name": "getDepositETH",
      "outputs": [
        {
          "internalType": "uint256",
          "name": "",
          "type": "uint256"
        }
      ],
      "payable": false,
      "stateMutability": "view",
      "type": "function"
    },
    {
      "constant": true,
      "inputs": [
        {
          "internalType": "address",
          "name": "_token",
          "type": "address"
        }
      ],
      "name": "getTokenPrice",
      "outputs": [
        {
          "internalType": "uint256",
          "name": "",
          "type": "uint256"
        }
      ],
      "payable": false,
      "stateMutability": "view",
      "type": "function"
    },
    {
      "constant": true,
      "inputs": [
        {
          "internalType": "address",
          "name": "_token",
          "type": "address"
        }
      ],
      "name": "getTokenState",
      "outputs": [
        {
          "internalType": "uint256",
          "name": "deposits",
          "type": "uint256"
        },
        {
          "internalType": "uint256",
          "name": "loans",
          "type": "uint256"
        },
        {
          "internalType": "uint256",
          "name": "reserveBalance",
          "type": "uint256"
        },
        {
          "internalType": "uint256",
          "name": "remainingAssets",
          "type": "uint256"
        }
      ],
      "payable": false,
      "stateMutability": "view",
      "type": "function"
    }
  ],
  "bytecode": "0x608060405234801561001057600080fd5b5061679780620000216000396000f3fe60806040526004361061020f5760003560e01c80638280e5a911610118578063d37db1d2116100a0578063f13688ce1161006f578063f13688ce146109f1578063f3fef3a314610a24578063fa09e63014610a5d578063fbcd9b0514610976578063fccbe7f614610a905761020f565b8063d37db1d214610961578063d8c2d84c14610976578063de34b0f41461098b578063e603d835146109be5761020f565b8063b0fcd7a0116100e7578063b0fcd7a014610838578063b52815571461086b578063beabacc8146108a6578063ca5ce2ec146108e9578063d02641a01461092e5761020f565b80638280e5a9146107a25780638456cb59146107db5780639c9dd88f146107f0578063a7c1abe0146108235761020f565b806347e7ef241161019b5780635274ac3f1161016a5780635274ac3f146105c55780635467cec4146107005780635c975abb146107315780636ff1c9bc1461075a5780637753f47b1461078d5761020f565b806347e7ef24146105125780634b8a35291461053e5780634e71d92d14610577578063526e93cb1461058c5761020f565b806322867d78116101e257806322867d781461032557806332a7621214610351578063330d0fff146103845780633c8bf9b3146103b75780633f4ba83a146104fd5761020f565b80630621472c146102115780630ae112a4146102445780630b3eb97014610291578063118e31b7146102ea575b005b34801561021d57600080fd5b5061020f6004803603602081101561023457600080fd5b50356001600160a01b0316610aba565b34801561025057600080fd5b5061027f6004803603604081101561026757600080fd5b506001600160a01b0381358116916020013516610c32565b60408051918252519081900360200190f35b34801561029d57600080fd5b506102c4600480360360208110156102b457600080fd5b50356001600160a01b0316610d2a565b604080519485526020850193909352838301919091526060830152519081900360800190f35b3480156102f657600080fd5b5061027f6004803603604081101561030d57600080fd5b506001600160a01b0381358116916020013516610e3f565b61020f6004803603604081101561033b57600080fd5b506001600160a01b038135169060200135610f02565b34801561035d57600080fd5b5061027f6004803603602081101561037457600080fd5b50356001600160a01b03166113fe565b34801561039057600080fd5b5061027f600480360360208110156103a757600080fd5b50356001600160a01b03166114f1565b3480156103c357600080fd5b5061020f600480360360808110156103da57600080fd5b810190602081018135600160201b8111156103f457600080fd5b82018360208201111561040657600080fd5b803590602001918460208302840111600160201b8311171561042757600080fd5b9190808060200260200160405190810160405280939291908181526020018383602002808284376000920191909152509295949360208101935035915050600160201b81111561047657600080fd5b82018360208201111561048857600080fd5b803590602001918460208302840111600160201b831117156104a957600080fd5b919080806020026020016040519081016040528093929190818152602001838360200280828437600092019190915250929550506001600160a01b0383358116945060209093013590921691506115b29050565b34801561050957600080fd5b5061020f61167e565b61020f6004803603604081101561052857600080fd5b506001600160a01b038135169060200135611851565b34801561054a57600080fd5b5061020f6004803603604081101561056157600080fd5b506001600160a01b038135169060200135611da9565b34801561058357600080fd5b5061020f61234c565b34801561059857600080fd5b5061020f600480360360408110156105af57600080fd5b506001600160a01b0381351690602001356125d4565b3480156105d157600080fd5b5061020f600480360360608110156105e857600080fd5b810190602081018135600160201b81111561060257600080fd5b82018360208201111561061457600080fd5b803590602001918460208302840111600160201b8311171561063557600080fd5b9190808060200260200160405190810160405280939291908181526020018383602002808284376000920191909152509295949360208101935035915050600160201b81111561068457600080fd5b82018360208201111561069657600080fd5b803590602001918460208302840111600160201b831117156106b757600080fd5b919080806020026020016040519081016040528093929190818152602001838360200280828437600092019190915250929550505090356001600160a01b0316915061284d9050565b34801561070c57600080fd5b506107156129f2565b604080516001600160a01b039092168252519081900360200190f35b34801561073d57600080fd5b50610746612a0a565b604080519115158252519081900360200190f35b34801561076657600080fd5b5061020f6004803603602081101561077d57600080fd5b50356001600160a01b0316612a1a565b34801561079957600080fd5b50610715612af1565b3480156107ae57600080fd5b5061020f600480360360408110156107c557600080fd5b506001600160a01b038135169060200135612af6565b3480156107e757600080fd5b5061020f612e47565b3480156107fc57600080fd5b5061027f6004803603602081101561081357600080fd5b50356001600160a01b0316612fd5565b34801561082f57600080fd5b50610715613090565b34801561084457600080fd5b5061027f6004803603602081101561085b57600080fd5b50356001600160a01b031661309f565b34801561087757600080fd5b5061088061315a565b604080516001600160801b03938416815291909216602082015281519081900390910190f35b3480156108b257600080fd5b5061020f600480360360608110156108c957600080fd5b506001600160a01b03813581169160208101359091169060400135613174565b3480156108f557600080fd5b5061020f6004803603606081101561090c57600080fd5b506001600160a01b038135811691602081013582169160409091013516613831565b34801561093a57600080fd5b5061027f6004803603602081101561095157600080fd5b50356001600160a01b0316614f96565b34801561096d57600080fd5b5061027f615051565b34801561098257600080fd5b5061027f615058565b34801561099757600080fd5b5061020f600480360360208110156109ae57600080fd5b50356001600160a01b0316615064565b3480156109ca57600080fd5b5061027f600480360360208110156109e157600080fd5b50356001600160a01b031661513d565b3480156109fd57600080fd5b5061027f60048036036020811015610a1457600080fd5b50356001600160a01b03166151fe565b348015610a3057600080fd5b5061020f60048036036040811015610a4757600080fd5b506001600160a01b0381351690602001356152bf565b348015610a6957600080fd5b5061020f60048036036020811015610a8057600080fd5b50356001600160a01b0316615747565b348015610a9c57600080fd5b5061027f60048036036020811015610ab357600080fd5b5035615e92565b60345460408051639895880f60e01b815290516000926001600160a01b031691639895880f916004808301926020929190829003018186803b158015610aff57600080fd5b505afa158015610b13573d6000803e3d6000fd5b505050506040513d6020811015610b2957600080fd5b505160408051637e5a4eb960e01b81526001600160a01b03858116600483015291519190921691637e5a4eb9916024808301926020929190829003018186803b158015610b7557600080fd5b505afa158015610b89573d6000803e3d6000fd5b505050506040513d6020811015610b9f57600080fd5b505190506001600160a01b038116610bf7576040805162461bcd60e51b815260206004820152601660248201527563546f6b656e2061646472657373206973207a65726f60501b604482015290519081900360640190fd5b610c126001600160a01b03831682600063ffffffff615ef316565b610c2e6001600160a01b0383168260001963ffffffff615ef316565b5050565b6034546040805163346681fb60e11b815290516000926001600160a01b0316916368cd03f6916004808301926020929190829003018186803b158015610c7757600080fd5b505afa158015610c8b573d6000803e3d6000fd5b505050506040513d6020811015610ca157600080fd5b50516040805163b44d253d60e01b81526001600160a01b03868116600483015285811660248301529151919092169163b44d253d916044808301926020929190829003018186803b158015610cf557600080fd5b505afa158015610d09573d6000803e3d6000fd5b505050506040513d6020811015610d1f57600080fd5b505190505b92915050565b600080600080603460009054906101000a90046001600160a01b03166001600160a01b03166376cdb03b6040518163ffffffff1660e01b815260040160206040518083038186803b158015610d7e57600080fd5b505afa158015610d92573d6000803e3d6000fd5b505050506040513d6020811015610da857600080fd5b50516040805162b3eb9760e41b81526001600160a01b03888116600483015291519190921691630b3eb970916024808301926080929190829003018186803b158015610df357600080fd5b505afa158015610e07573d6000803e3d6000fd5b505050506040513d6080811015610e1d57600080fd5b5080516020820151604083015160609093015191989097509195509350915050565b6034546040805163346681fb60e11b815290516000926001600160a01b0316916368cd03f6916004808301926020929190829003018186803b158015610e8457600080fd5b505afa158015610e98573d6000803e3d6000fd5b505050506040513d6020811015610eae57600080fd5b50516040805163e94201c760e01b81526001600160a01b03868116600483015285811660248301529151919092169163e94201c7916044808301926020929190829003018186803b158015610cf557600080fd5b603454604080516378b88bc760e11b81526001600160a01b039283166004820152918416602483015251839173__Utils_________________________________9163f171178e91604480820192602092909190829003018186803b158015610f6a57600080fd5b505af4158015610f7e573d6000803e3d6000fd5b505050506040513d6020811015610f9457600080fd5b50516110cf57603460009054906101000a90046001600160a01b03166001600160a01b0316639895880f6040518163ffffffff1660e01b815260040160206040518083038186803b158015610fe857600080fd5b505afa158015610ffc573d6000803e3d6000fd5b505050506040513d602081101561101257600080fd5b505160408051633fc422e560e01b81526001600160a01b03848116600483015291519190921691633fc422e5916024808301926020929190829003018186803b15801561105e57600080fd5b505afa158015611072573d6000803e3d6000fd5b505050506040513d602081101561108857600080fd5b50516110cf576040805162461bcd60e51b81526020600482015260116024820152702ab739bab83837b93a32b2103a37b5b2b760791b604482015290519081900360640190fd5b60335460ff16611114576040805162461bcd60e51b815260206004820152601f602482015260008051602061656d833981519152604482015290519081900360640190fd5b6033805460ff1916905581611161576040805162461bcd60e51b815260206004820152600e60248201526d416d6f756e74206973207a65726f60901b604482015290519081900360640190fd5b603454604080516384ac1f7560e01b81526001600160a01b0392831660048201526024810185905291851660448301525173__SavingLib_____________________________916384ac1f75916064808301926000929190829003018186803b1580156111cd57600080fd5b505af41580156111e1573d6000803e3d6000fd5b505050506000603460009054906101000a90046001600160a01b03166001600160a01b03166376cdb03b6040518163ffffffff1660e01b815260040160206040518083038186803b15801561123557600080fd5b505afa158015611249573d6000803e3d6000fd5b505050506040513d602081101561125f57600080fd5b505160408051631da649cf60e01b81523360048201526001600160a01b0387811660248301526044820187905291519190921691631da649cf9160648083019260209291908290030181600087803b1580156112ba57600080fd5b505af11580156112ce573d6000803e3d6000fd5b505050506040513d60208110156112e457600080fd5b50519050828110156113a85760345473__SavingLib_____________________________90633b4571a1906001600160a01b0316611328868563ffffffff61600616565b876040518463ffffffff1660e01b815260040180846001600160a01b03166001600160a01b03168152602001838152602001826001600160a01b03166001600160a01b03168152602001935050505060006040518083038186803b15801561138f57600080fd5b505af41580156113a3573d6000803e3d6000fd5b505050505b604080513381526020810183905281516001600160a01b038716927f05f2eeda0e08e4b437f487c8d7d29b14537d15e3488170dc3de5dbdf8dac4684928290030190a250506033805460ff191660011790555050565b6034546040805163346681fb60e11b815290516000926001600160a01b0316916368cd03f6916004808301926020929190829003018186803b15801561144357600080fd5b505afa158015611457573d6000803e3d6000fd5b505050506040513d602081101561146d57600080fd5b50516040805163e2a93dd960e01b81523360048201526001600160a01b0385811660248301529151919092169163e2a93dd9916044808301926020929190829003018186803b1580156114bf57600080fd5b505afa1580156114d3573d6000803e3d6000fd5b505050506040513d60208110156114e957600080fd5b505192915050565b6034546040805163346681fb60e11b815290516000926001600160a01b0316916368cd03f6916004808301926020929190829003018186803b15801561153657600080fd5b505afa15801561154a573d6000803e3d6000fd5b505050506040513d602081101561156057600080fd5b50516040805163fa78d59f60e01b81523360048201526001600160a01b0385811660248301529151919092169163fa78d59f916044808301926020929190829003018186803b1580156114bf57600080fd5b600054610100900460ff16806115cb57506115cb61604f565b806115d9575060005460ff16155b6116145760405162461bcd60e51b815260040180806020018281038252602e8152602001806165ff602e913960400191505060405180910390fd5b600054610100900460ff1615801561163f576000805460ff1961ff0019909116610100171660011790555b603780546001600160a01b0319166001600160a01b03841617905561166585858561284d565b8015611677576000805461ff00191690555b5050505050565b603360019054906101000a90046001600160a01b03166001600160a01b0316638da5cb5b6040518163ffffffff1660e01b815260040160206040518083038186803b1580156116cc57600080fd5b505afa1580156116e0573d6000803e3d6000fd5b505050506040513d60208110156116f657600080fd5b50516001600160a01b0316331461173e5760405162461bcd60e51b815260040180806020018281038252603081526020018061658d6030913960400191505060405180910390fd5b603354600160a81b900460ff16611793576040805162461bcd60e51b815260206004820152601460248201527314185d5cd8589b194e881b9bdd081c185d5cd95960621b604482015290519081900360640190fd5b6033805460ff60a81b19169081905560408051638da5cb5b60e01b815290517f5db9ee0a495bf2e6ff9c91a7834c1ba4fdd244a5e8aa4e537bd38aeae4b073aa9261010090046001600160a01b031691638da5cb5b916004808301926020929190829003018186803b15801561180857600080fd5b505afa15801561181c573d6000803e3d6000fd5b505050506040513d602081101561183257600080fd5b5051604080516001600160a01b039092168252519081900360200190a1565b603454604080516378b88bc760e11b81526001600160a01b039283166004820152918416602483015251839173__Utils_________________________________9163f171178e91604480820192602092909190829003018186803b1580156118b957600080fd5b505af41580156118cd573d6000803e3d6000fd5b505050506040513d60208110156118e357600080fd5b5051611a1e57603460009054906101000a90046001600160a01b03166001600160a01b0316639895880f6040518163ffffffff1660e01b815260040160206040518083038186803b15801561193757600080fd5b505afa15801561194b573d6000803e3d6000fd5b505050506040513d602081101561196157600080fd5b505160408051633fc422e560e01b81526001600160a01b03848116600483015291519190921691633fc422e5916024808301926020929190829003018186803b1580156119ad57600080fd5b505afa1580156119c1573d6000803e3d6000fd5b505050506040513d60208110156119d757600080fd5b5051611a1e576040805162461bcd60e51b81526020600482015260116024820152702ab739bab83837b93a32b2103a37b5b2b760791b604482015290519081900360640190fd5b60345460408051639895880f60e01b8152905185926001600160a01b031691639895880f916004808301926020929190829003018186803b158015611a6257600080fd5b505afa158015611a76573d6000803e3d6000fd5b505050506040513d6020811015611a8c57600080fd5b50516040805163748538d960e01b81526001600160a01b0384811660048301529151919092169163748538d9916024808301926020929190829003018186803b158015611ad857600080fd5b505afa158015611aec573d6000803e3d6000fd5b505050506040513d6020811015611b0257600080fd5b5051611b50576040805162461bcd60e51b8152602060048201526018602482015277151a19481d1bdad95b881a5cc81b9bdd08195b98589b195960421b604482015290519081900360640190fd5b60335460ff16611b95576040805162461bcd60e51b815260206004820152601f602482015260008051602061656d833981519152604482015290519081900360640190fd5b6033805460ff1916905582611be2576040805162461bcd60e51b815260206004820152600e60248201526d416d6f756e74206973207a65726f60901b604482015290519081900360640190fd5b603454604080516384ac1f7560e01b81526001600160a01b0392831660048201526024810186905291861660448301525173__SavingLib_____________________________916384ac1f75916064808301926000929190829003018186803b158015611c4e57600080fd5b505af4158015611c62573d6000803e3d6000fd5b50505050603460009054906101000a90046001600160a01b03166001600160a01b03166376cdb03b6040518163ffffffff1660e01b815260040160206040518083038186803b158015611cb457600080fd5b505afa158015611cc8573d6000803e3d6000fd5b505050506040513d6020811015611cde57600080fd5b505160408051638340f54960e01b81523360048201526001600160a01b0387811660248301526044820187905291519190921691638340f54991606480830192600092919082900301818387803b158015611d3857600080fd5b505af1158015611d4c573d6000803e3d6000fd5b5050604080513381526020810187905281516001600160a01b03891694507f5548c837ab068cf56a2c2479df0882a4922fd203edb7517321831d95078c5f6293509081900390910190a250506033805460ff191660011790555050565b603454604080516378b88bc760e11b81526001600160a01b039283166004820152918416602483015251839173__Utils_________________________________9163f171178e91604480820192602092909190829003018186803b158015611e1157600080fd5b505af4158015611e25573d6000803e3d6000fd5b505050506040513d6020811015611e3b57600080fd5b5051611f7657603460009054906101000a90046001600160a01b03166001600160a01b0316639895880f6040518163ffffffff1660e01b815260040160206040518083038186803b158015611e8f57600080fd5b505afa158015611ea3573d6000803e3d6000fd5b505050506040513d6020811015611eb957600080fd5b505160408051633fc422e560e01b81526001600160a01b03848116600483015291519190921691633fc422e5916024808301926020929190829003018186803b158015611f0557600080fd5b505afa158015611f19573d6000803e3d6000fd5b505050506040513d6020811015611f2f57600080fd5b5051611f76576040805162461bcd60e51b81526020600482015260116024820152702ab739bab83837b93a32b2103a37b5b2b760791b604482015290519081900360640190fd5b60345460408051639895880f60e01b8152905185926001600160a01b031691639895880f916004808301926020929190829003018186803b158015611fba57600080fd5b505afa158015611fce573d6000803e3d6000fd5b505050506040513d6020811015611fe457600080fd5b50516040805163748538d960e01b81526001600160a01b0384811660048301529151919092169163748538d9916024808301926020929190829003018186803b15801561203057600080fd5b505afa158015612044573d6000803e3d6000fd5b505050506040513d602081101561205a57600080fd5b50516120a8576040805162461bcd60e51b8152602060048201526018602482015277151a19481d1bdad95b881a5cc81b9bdd08195b98589b195960421b604482015290519081900360640190fd5b603354600160a81b900460ff16156120fa576040805162461bcd60e51b815260206004820152601060248201526f14185d5cd8589b194e881c185d5cd95960821b604482015290519081900360640190fd5b60335460ff1661213f576040805162461bcd60e51b815260206004820152601f602482015260008051602061656d833981519152604482015290519081900360640190fd5b6033805460ff19169055826121855760405162461bcd60e51b815260040180806020018281038252602b815260200180616542602b913960400191505060405180910390fd5b603460009054906101000a90046001600160a01b03166001600160a01b03166376cdb03b6040518163ffffffff1660e01b815260040160206040518083038186803b1580156121d357600080fd5b505afa1580156121e7573d6000803e3d6000fd5b505050506040513d60208110156121fd57600080fd5b5051604080516314890dcb60e21b81523360048201526001600160a01b0387811660248301526044820187905291519190921691635224372c91606480830192600092919082900301818387803b15801561225757600080fd5b505af115801561226b573d6000803e3d6000fd5b505060345460408051633b4571a160e01b81526001600160a01b0392831660048201526024810188905291881660448301525173__SavingLib_____________________________9350633b4571a192506064808301926000929190829003018186803b1580156122db57600080fd5b505af41580156122ef573d6000803e3d6000fd5b5050604080513381526020810187905281516001600160a01b03891694507f312a5e5e1079f5dda4e95dbbd0b908b291fd5b992ef22073643ab691572c5b5293509081900390910190a250506033805460ff191660011790555050565b60335460ff16612391576040805162461bcd60e51b815260206004820152601f602482015260008051602061656d833981519152604482015290519081900360640190fd5b6033805460ff191690556034546040805163346681fb60e11b815290516000926001600160a01b0316916368cd03f6916004808301926020929190829003018186803b1580156123e057600080fd5b505afa1580156123f4573d6000803e3d6000fd5b505050506040513d602081101561240a57600080fd5b505160408051630f41a04d60e11b815233600482015290516001600160a01b0390921691631e83409a916024808201926020929091908290030181600087803b15801561245657600080fd5b505af115801561246a573d6000803e3d6000fd5b505050506040513d602081101561248057600080fd5b505160345460408051639895880f60e01b8152905192935061258992339285926001600160a01b0390911691639895880f91600480820192602092909190829003018186803b1580156124d257600080fd5b505afa1580156124e6573d6000803e3d6000fd5b505050506040513d60208110156124fc57600080fd5b50516040805163021245b160e01b8152600b600482015290516001600160a01b039092169163021245b191602480820192602092909190829003018186803b15801561254757600080fd5b505afa15801561255b573d6000803e3d6000fd5b505050506040513d602081101561257157600080fd5b50516001600160a01b0316919063ffffffff61605516565b604080513381526020810183905281517f47cee97cb7acd717b3c0aa1435d004cd5b3c8c57d70dbceb4e4458bbd60e39d4929181900390910190a1506033805460ff19166001179055565b603460009054906101000a90046001600160a01b03166001600160a01b03166376cdb03b6040518163ffffffff1660e01b815260040160206040518083038186803b15801561262257600080fd5b505afa158015612636573d6000803e3d6000fd5b505050506040513d602081101561264c57600080fd5b50516001600160a01b031633146126945760405162461bcd60e51b81526004018080602001828103825260388152602001806166cb6038913960400191505060405180910390fd5b603460009054906101000a90046001600160a01b03166001600160a01b0316639895880f6040518163ffffffff1660e01b815260040160206040518083038186803b1580156126e257600080fd5b505afa1580156126f6573d6000803e3d6000fd5b505050506040513d602081101561270c57600080fd5b505160408051637e5a4eb960e01b81526001600160a01b03858116600483015291519190921691637e5a4eb9916024808301926020929190829003018186803b15801561275857600080fd5b505afa15801561276c573d6000803e3d6000fd5b505050506040513d602081101561278257600080fd5b50516040805163852a12e360e01b81526004810184905290516001600160a01b039092169163852a12e3916024808201926020929091908290030181600087803b1580156127cf57600080fd5b505af11580156127e3573d6000803e3d6000fd5b505050506040513d60208110156127f957600080fd5b505115610c2e576040805162461bcd60e51b815260206004820152601760248201527f72656465656d556e6465726c79696e67206661696c6564000000000000000000604482015290519081900360640190fd5b600054610100900460ff1680612866575061286661604f565b80612874575060005460ff16155b6128af5760405162461bcd60e51b815260040180806020018281038252602e8152602001806165ff602e913960400191505060405180910390fd5b600054610100900460ff161580156128da576000805460ff1961ff0019909116610100171660011790555b6128e26160a7565b6128eb826160b6565b603480546001600160a01b0319166001600160a01b03841617905582518451146129465760405162461bcd60e51b81526004018080602001828103825260248152602001806164f66024913960400191505060405180910390fd5b835160005b818110156129d85760006001600160a01b031685828151811061296a57fe5b60200260200101516001600160a01b0316141580156129af5750600e6001600160a01b031686828151811061299b57fe5b60200260200101516001600160a01b031614155b156129d0576129d08682815181106129c357fe5b6020026020010151610aba565b60010161294b565b505080156129ec576000805461ff00191690555b50505050565b73c04158f7db6f9c9ffbd5593236a1a3d69f92167c81565b603354600160a81b900460ff1690565b3373c04158f7db6f9c9ffbd5593236a1a3d69f92167c14612a78576040805162461bcd60e51b8152602060048201526013602482015272155cd95c881b9bdd08185d5d1a1bdc9a5e9959606a1b604482015290519081900360640190fd5b603454604080516302bff52f60e01b81526001600160a01b03928316600482015291831660248301525173__SavingLib_____________________________916302bff52f916044808301926000929190829003018186803b158015612add57600080fd5b505af4158015611677573d6000803e3d6000fd5b600e81565b603460009054906101000a90046001600160a01b03166001600160a01b03166376cdb03b6040518163ffffffff1660e01b815260040160206040518083038186803b158015612b4457600080fd5b505afa158015612b58573d6000803e3d6000fd5b505050506040513d6020811015612b6e57600080fd5b50516001600160a01b03163314612bb65760405162461bcd60e51b81526004018080602001828103825260388152602001806166cb6038913960400191505060405180910390fd5b60345460408051639895880f60e01b815290516000926001600160a01b031691639895880f916004808301926020929190829003018186803b158015612bfb57600080fd5b505afa158015612c0f573d6000803e3d6000fd5b505050506040513d6020811015612c2557600080fd5b505160408051637e5a4eb960e01b81526001600160a01b03868116600483015291519190921691637e5a4eb9916024808301926020929190829003018186803b158015612c7157600080fd5b505afa158015612c85573d6000803e3d6000fd5b505050506040513d6020811015612c9b57600080fd5b5051603454604080516378b88bc760e11b81526001600160a01b03928316600482015291861660248301525191925073__Utils_________________________________9163f171178e91604480820192602092909190829003018186803b158015612d0657600080fd5b505af4158015612d1a573d6000803e3d6000fd5b505050506040513d6020811015612d3057600080fd5b505115612d9057806001600160a01b0316631249c58b836040518263ffffffff1660e01b81526004016000604051808303818588803b158015612d7257600080fd5b505af1158015612d86573d6000803e3d6000fd5b5050505050612e42565b806001600160a01b031663a0712d68836040518263ffffffff1660e01b815260040180828152602001915050602060405180830381600087803b158015612dd657600080fd5b505af1158015612dea573d6000803e3d6000fd5b505050506040513d6020811015612e0057600080fd5b505115612e42576040805162461bcd60e51b815260206004820152600b60248201526a1b5a5b9d0819985a5b195960aa1b604482015290519081900360640190fd5b505050565b603360019054906101000a90046001600160a01b03166001600160a01b0316638da5cb5b6040518163ffffffff1660e01b815260040160206040518083038186803b158015612e9557600080fd5b505afa158015612ea9573d6000803e3d6000fd5b505050506040513d6020811015612ebf57600080fd5b50516001600160a01b03163314612f075760405162461bcd60e51b815260040180806020018281038252603081526020018061658d6030913960400191505060405180910390fd5b603354600160a81b900460ff1615612f59576040805162461bcd60e51b815260206004820152601060248201526f14185d5cd8589b194e881c185d5cd95960821b604482015290519081900360640190fd5b6033805460ff60a81b1916600160a81b179081905560408051638da5cb5b60e01b815290517f62e78cea01bee320cd4e420270b5ea74000d11b0c9f74754ebdbfc544b05a258926001600160a01b036101009091041691638da5cb5b916004808301926020929190829003018186803b15801561180857600080fd5b6034546040805163346681fb60e11b815290516000926001600160a01b0316916368cd03f6916004808301926020929190829003018186803b15801561301a57600080fd5b505afa15801561302e573d6000803e3d6000fd5b505050506040513d602081101561304457600080fd5b505160408051639c9dd88f60e01b81526001600160a01b03858116600483015291519190921691639c9dd88f916024808301926020929190829003018186803b1580156114bf57600080fd5b6034546001600160a01b031681565b6034546040805163346681fb60e11b815290516000926001600160a01b0316916368cd03f6916004808301926020929190829003018186803b1580156130e457600080fd5b505afa1580156130f8573d6000803e3d6000fd5b505050506040513d602081101561310e57600080fd5b505160408051630587e6bd60e51b81526001600160a01b0385811660048301529151919092169163b0fcd7a0916024808301926020929190829003018186803b1580156114bf57600080fd5b6036546001600160801b0380821691600160801b90041682565b603454604080516378b88bc760e11b81526001600160a01b039283166004820152918416602483015251839173__Utils_________________________________9163f171178e91604480820192602092909190829003018186803b1580156131dc57600080fd5b505af41580156131f0573d6000803e3d6000fd5b505050506040513d602081101561320657600080fd5b505161334157603460009054906101000a90046001600160a01b03166001600160a01b0316639895880f6040518163ffffffff1660e01b815260040160206040518083038186803b15801561325a57600080fd5b505afa15801561326e573d6000803e3d6000fd5b505050506040513d602081101561328457600080fd5b505160408051633fc422e560e01b81526001600160a01b03848116600483015291519190921691633fc422e5916024808301926020929190829003018186803b1580156132d057600080fd5b505afa1580156132e4573d6000803e3d6000fd5b505050506040513d60208110156132fa57600080fd5b5051613341576040805162461bcd60e51b81526020600482015260116024820152702ab739bab83837b93a32b2103a37b5b2b760791b604482015290519081900360640190fd5b60345460408051639895880f60e01b8152905185926001600160a01b031691639895880f916004808301926020929190829003018186803b15801561338557600080fd5b505afa158015613399573d6000803e3d6000fd5b505050506040513d60208110156133af57600080fd5b50516040805163748538d960e01b81526001600160a01b0384811660048301529151919092169163748538d9916024808301926020929190829003018186803b1580156133fb57600080fd5b505afa15801561340f573d6000803e3d6000fd5b505050506040513d602081101561342557600080fd5b5051613473576040805162461bcd60e51b8152602060048201526018602482015277151a19481d1bdad95b881a5cc81b9bdd08195b98589b195960421b604482015290519081900360640190fd5b603354600160a81b900460ff16156134c5576040805162461bcd60e51b815260206004820152601060248201526f14185d5cd8589b194e881c185d5cd95960821b604482015290519081900360640190fd5b60335460ff1661350a576040805162461bcd60e51b815260206004820152601f602482015260008051602061656d833981519152604482015290519081900360640190fd5b6033805460ff19169055603454604080516376cdb03b60e01b815290516001600160a01b03909216916376cdb03b91600480820192602092909190829003018186803b15801561355957600080fd5b505afa15801561356d573d6000803e3d6000fd5b505050506040513d602081101561358357600080fd5b50516040805163378d2c3d60e21b81526001600160a01b0387811660048301529151919092169163de34b0f491602480830192600092919082900301818387803b1580156135d057600080fd5b505af11580156135e4573d6000803e3d6000fd5b505050506000603460009054906101000a90046001600160a01b03166001600160a01b03166368cd03f66040518163ffffffff1660e01b815260040160206040518083038186803b15801561363857600080fd5b505afa15801561364c573d6000803e3d6000fd5b505050506040513d602081101561366257600080fd5b505160408051636ce5768960e11b81523360048201526001600160a01b038881166024830152604482018890529151919092169163d9caed129160648083019260209291908290030181600087803b1580156136bd57600080fd5b505af11580156136d1573d6000803e3d6000fd5b505050506040513d60208110156136e757600080fd5b50516034546040805163346681fb60e11b815290519293506001600160a01b03909116916368cd03f691600480820192602092909190829003018186803b15801561373157600080fd5b505afa158015613745573d6000803e3d6000fd5b505050506040513d602081101561375b57600080fd5b505160408051638340f54960e01b81526001600160a01b03898116600483015288811660248301526044820185905291519190921691638340f54991606480830192600092919082900301818387803b1580156137b757600080fd5b505af11580156137cb573d6000803e3d6000fd5b5050604080513381526001600160a01b038a81166020830152818301869052915191891693507fd1398bee19313d6bf672ccb116e51f4a1a947e91c757907f51fbb5b5e56c698f925081900360600190a250506033805460ff1916600117905550505050565b603454604080516378b88bc760e11b81526001600160a01b039283166004820152918416602483015251839173__Utils_________________________________9163f171178e91604480820192602092909190829003018186803b15801561389957600080fd5b505af41580156138ad573d6000803e3d6000fd5b505050506040513d60208110156138c357600080fd5b50516139fe57603460009054906101000a90046001600160a01b03166001600160a01b0316639895880f6040518163ffffffff1660e01b815260040160206040518083038186803b15801561391757600080fd5b505afa15801561392b573d6000803e3d6000fd5b505050506040513d602081101561394157600080fd5b505160408051633fc422e560e01b81526001600160a01b03848116600483015291519190921691633fc422e5916024808301926020929190829003018186803b15801561398d57600080fd5b505afa1580156139a1573d6000803e3d6000fd5b505050506040513d60208110156139b757600080fd5b50516139fe576040805162461bcd60e51b81526020600482015260116024820152702ab739bab83837b93a32b2103a37b5b2b760791b604482015290519081900360640190fd5b603454604080516378b88bc760e11b81526001600160a01b039283166004820152918416602483015251839173__Utils_________________________________9163f171178e91604480820192602092909190829003018186803b158015613a6657600080fd5b505af4158015613a7a573d6000803e3d6000fd5b505050506040513d6020811015613a9057600080fd5b5051613bcb57603460009054906101000a90046001600160a01b03166001600160a01b0316639895880f6040518163ffffffff1660e01b815260040160206040518083038186803b158015613ae457600080fd5b505afa158015613af8573d6000803e3d6000fd5b505050506040513d6020811015613b0e57600080fd5b505160408051633fc422e560e01b81526001600160a01b03848116600483015291519190921691633fc422e5916024808301926020929190829003018186803b158015613b5a57600080fd5b505afa158015613b6e573d6000803e3d6000fd5b505050506040513d6020811015613b8457600080fd5b5051613bcb576040805162461bcd60e51b81526020600482015260116024820152702ab739bab83837b93a32b2103a37b5b2b760791b604482015290519081900360640190fd5b603354600160a81b900460ff1615613c1d576040805162461bcd60e51b815260206004820152601060248201526f14185d5cd8589b194e881c185d5cd95960821b604482015290519081900360640190fd5b60335460ff16613c62576040805162461bcd60e51b815260206004820152601f602482015260008051602061656d833981519152604482015290519081900360640190fd5b6033805460ff191690556034546040805163346681fb60e11b815290516001600160a01b03909216916368cd03f691600480820192602092909190829003018186803b158015613cb157600080fd5b505afa158015613cc5573d6000803e3d6000fd5b505050506040513d6020811015613cdb57600080fd5b50516040805163be2801b560e01b81526001600160a01b0388811660048301529151919092169163be2801b59160248083019260209291908290030181600087803b158015613d2957600080fd5b505af1158015613d3d573d6000803e3d6000fd5b505050506040513d6020811015613d5357600080fd5b5051613d905760405162461bcd60e51b81526004018080602001828103825260218152602001806165bd6021913960400191505060405180910390fd5b613d98616486565b603460009054906101000a90046001600160a01b03166001600160a01b03166368cd03f66040518163ffffffff1660e01b815260040160206040518083038186803b158015613de657600080fd5b505afa158015613dfa573d6000803e3d6000fd5b505050506040513d6020811015613e1057600080fd5b505160408051630587e6bd60e51b815233600482015290516001600160a01b039092169163b0fcd7a091602480820192602092909190829003018186803b158015613e5a57600080fd5b505afa158015613e6e573d6000803e3d6000fd5b505050506040513d6020811015613e8457600080fd5b50516020828101919091526034546040805163346681fb60e11b815290516001600160a01b03909216926368cd03f692600480840193829003018186803b158015613ece57600080fd5b505afa158015613ee2573d6000803e3d6000fd5b505050506040513d6020811015613ef857600080fd5b50516040805163e21f0b5560e01b815233600482015290516001600160a01b039092169163e21f0b5591602480820192602092909190829003018186803b158015613f4257600080fd5b505afa158015613f56573d6000803e3d6000fd5b505050506040513d6020811015613f6c57600080fd5b5051602082015110613faf5760405162461bcd60e51b815260040180806020018281038252602881526020018061651a6028913960400191505060405180910390fd5b603460009054906101000a90046001600160a01b03166001600160a01b03166368cd03f66040518163ffffffff1660e01b815260040160206040518083038186803b158015613ffd57600080fd5b505afa158015614011573d6000803e3d6000fd5b505050506040513d602081101561402757600080fd5b50516040805163b44d253d60e01b81526001600160a01b0388811660048301523360248301529151919092169163b44d253d916044808301926020929190829003018186803b15801561407957600080fd5b505afa15801561408d573d6000803e3d6000fd5b505050506040513d60208110156140a357600080fd5b5051604082018190526140e75760405162461bcd60e51b815260040180806020018281038252602d81526020018061662d602d913960400191505060405180910390fd5b603460009054906101000a90046001600160a01b03166001600160a01b03166368cd03f66040518163ffffffff1660e01b815260040160206040518083038186803b15801561413557600080fd5b505afa158015614149573d6000803e3d6000fd5b505050506040513d602081101561415f57600080fd5b50516040805163e94201c760e01b81526001600160a01b03888116600483015289811660248301529151919092169163e94201c7916044808301926020929190829003018186803b1580156141b357600080fd5b505afa1580156141c7573d6000803e3d6000fd5b505050506040513d60208110156141dd57600080fd5b5051606082018190526142215760405162461bcd60e51b815260040180806020018281038252604481526020018061665a6044913960600191505060405180910390fd5b600061423e826060015183604001516160e590919063ffffffff16565b9050603460009054906101000a90046001600160a01b03166001600160a01b03166368cd03f66040518163ffffffff1660e01b815260040160206040518083038186803b15801561428e57600080fd5b505afa1580156142a2573d6000803e3d6000fd5b505050506040513d60208110156142b857600080fd5b50516040805163b44d253d60e01b81526001600160a01b0388811660048301528a811660248301529151919092169163b44d253d916044808301926020929190829003018186803b15801561430c57600080fd5b505afa158015614320573d6000803e3d6000fd5b505050506040513d602081101561433657600080fd5b505161010083015260345460408051639895880f60e01b815290516001600160a01b0390921691639895880f91600480820192602092909190829003018186803b15801561438357600080fd5b505afa158015614397573d6000803e3d6000fd5b505050506040513d60208110156143ad57600080fd5b505160408051636e9ecb0f60e11b81526001600160a01b0388811660048301529151919092169163dd3d961e916024808301926020929190829003018186803b1580156143f957600080fd5b505afa15801561440d573d6000803e3d6000fd5b505050506040513d602081101561442357600080fd5b505161012083015260345460408051639895880f60e01b815290516000926001600160a01b031691639895880f916004808301926020929190829003018186803b15801561447057600080fd5b505afa158015614484573d6000803e3d6000fd5b505050506040513d602081101561449a57600080fd5b505160408051633c2e3e7b60e11b81526001600160a01b038a811660048301529151919092169163785c7cf6916024808301926020929190829003018186803b1580156144e657600080fd5b505afa1580156144fa573d6000803e3d6000fd5b505050506040513d602081101561451057600080fd5b505160345460408051639895880f60e01b8152905160ff909316600a0a93506000926001600160a01b0390921691639895880f91600480820192602092909190829003018186803b15801561456457600080fd5b505afa158015614578573d6000803e3d6000fd5b505050506040513d602081101561458e57600080fd5b505160408051633c2e3e7b60e11b81526001600160a01b038a811660048301529151919092169163785c7cf6916024808301926020929190829003018186803b1580156145da57600080fd5b505afa1580156145ee573d6000803e3d6000fd5b505050506040513d602081101561460457600080fd5b50516034546040805163346681fb60e11b8152905160ff909316600a0a93506001600160a01b03909116916368cd03f691600480820192602092909190829003018186803b15801561465557600080fd5b505afa158015614669573d6000803e3d6000fd5b505050506040513d602081101561467f57600080fd5b505160408051630587e6bd60e51b81526001600160a01b038c811660048301529151919092169163b0fcd7a0916024808301926020929190829003018186803b1580156146cb57600080fd5b505afa1580156146df573d6000803e3d6000fd5b505050506040513d60208110156146f557600080fd5b505160c08501526034546040805163346681fb60e11b815290516001600160a01b03909216916368cd03f691600480820192602092909190829003018186803b15801561474157600080fd5b505afa158015614755573d6000803e3d6000fd5b505050506040513d602081101561476b57600080fd5b50516040805163e21f0b5560e01b81526001600160a01b038c811660048301529151919092169163e21f0b55916024808301926020929190829003018186803b1580156147b757600080fd5b505afa1580156147cb573d6000803e3d6000fd5b505050506040513d60208110156147e157600080fd5b505160e085015260345460408051634802b7c160e01b815290516001600160a01b0390921691634802b7c191600480820192602092909190829003018186803b15801561482d57600080fd5b505afa158015614841573d6000803e3d6000fd5b505050506040513d602081101561485757600080fd5b505160a085015260345460408051639895880f60e01b815290516001600160a01b0390921691639895880f91600480820192602092909190829003018186803b1580156148a357600080fd5b505afa1580156148b7573d6000803e3d6000fd5b505050506040513d60208110156148cd57600080fd5b505160408051632418cd4960e21b81526001600160a01b038b81166004830152915191909216916390633524916024808301926020929190829003018186803b15801561491957600080fd5b505afa15801561492d573d6000803e3d6000fd5b505050506040513d602081101561494357600080fd5b5051610160850181905260a085015161499e91614966919063ffffffff61600616565b61499260646149868860e001518960c0015161600690919063ffffffff16565b9063ffffffff6160fb16565b9063ffffffff61615416565b6101408501526101208401516101008501516000916149de916149cc9185916149929163ffffffff6160fb16565b6101408701519063ffffffff6160e516565b9050603460009054906101000a90046001600160a01b03166001600160a01b0316639895880f6040518163ffffffff1660e01b815260040160206040518083038186803b158015614a2e57600080fd5b505afa158015614a42573d6000803e3d6000fd5b505050506040513d6020811015614a5857600080fd5b505160408051636e9ecb0f60e11b81526001600160a01b038c811660048301529151919092169163dd3d961e916024808301926020929190829003018186803b158015614aa457600080fd5b505afa158015614ab8573d6000803e3d6000fd5b505050506040513d6020811015614ace57600080fd5b50516080860181905260a0860151600091614b1091614b03916149929088908290606490614986908d9063ffffffff6160fb16565b839063ffffffff6160e516565b9050614b3a86608001516149926064614992886149868c60a00151886160fb90919063ffffffff16565b61018087018190526080870151614b60916149869060649082908863ffffffff6160fb16565b6101a0870181905261012087015160a0880151614b8a92614992919082908963ffffffff61615416565b6101a08701526034546040805163346681fb60e11b815290516001600160a01b03909216916368cd03f691600480820192602092909190829003018186803b158015614bd557600080fd5b505afa158015614be9573d6000803e3d6000fd5b505050506040513d6020811015614bff57600080fd5b50516101a087015160408051638340f54960e01b81523360048201526001600160a01b038d81166024830152604482019390935290519190921691638340f54991606480830192600092919082900301818387803b158015614c6057600080fd5b505af1158015614c74573d6000803e3d6000fd5b50505050603460009054906101000a90046001600160a01b03166001600160a01b03166368cd03f66040518163ffffffff1660e01b815260040160206040518083038186803b158015614cc657600080fd5b505afa158015614cda573d6000803e3d6000fd5b505050506040513d6020811015614cf057600080fd5b505161018087015160408051636ce5768960e11b81523360048201526001600160a01b038e8116602483015260448201939093529051919092169163d9caed129160648083019260209291908290030181600087803b158015614d5257600080fd5b505af1158015614d66573d6000803e3d6000fd5b505050506040513d6020811015614d7c57600080fd5b50506034546040805163346681fb60e11b815290516001600160a01b03909216916368cd03f691600480820192602092909190829003018186803b158015614dc357600080fd5b505afa158015614dd7573d6000803e3d6000fd5b505050506040513d6020811015614ded57600080fd5b50516101a087015160408051636ce5768960e11b81526001600160a01b038f811660048301528d8116602483015260448201939093529051919092169163d9caed129160648083019260209291908290030181600087803b158015614e5157600080fd5b505af1158015614e65573d6000803e3d6000fd5b505050506040513d6020811015614e7b57600080fd5b50506034546040805163346681fb60e11b815290516001600160a01b03909216916368cd03f691600480820192602092909190829003018186803b158015614ec257600080fd5b505afa158015614ed6573d6000803e3d6000fd5b505050506040513d6020811015614eec57600080fd5b505161018087015160408051631da649cf60e01b81526001600160a01b038f811660048301528e81166024830152604482019390935290519190921691631da649cf9160648083019260209291908290030181600087803b158015614f5057600080fd5b505af1158015614f64573d6000803e3d6000fd5b505050506040513d6020811015614f7a57600080fd5b50506033805460ff191660011790555050505050505050505050565b60345460408051639895880f60e01b815290516000926001600160a01b031691639895880f916004808301926020929190829003018186803b158015614fdb57600080fd5b505afa158015614fef573d6000803e3d6000fd5b505050506040513d602081101561500557600080fd5b505160408051636e9ecb0f60e11b81526001600160a01b0385811660048301529151919092169163dd3d961e916024808301926020929190829003018186803b1580156114bf57600080fd5b6220148081565b670de0b6b3a764000081565b603460009054906101000a90046001600160a01b03166001600160a01b03166376cdb03b6040518163ffffffff1660e01b815260040160206040518083038186803b1580156150b257600080fd5b505afa1580156150c6573d6000803e3d6000fd5b505050506040513d60208110156150dc57600080fd5b50516040805163378d2c3d60e21b81526001600160a01b0384811660048301529151919092169163de34b0f491602480830192600092919082900301818387803b15801561512957600080fd5b505af1158015611677573d6000803e3d6000fd5b6034546040805163346681fb60e11b815290516000926001600160a01b0316916368cd03f6916004808301926020929190829003018186803b15801561518257600080fd5b505afa158015615196573d6000803e3d6000fd5b505050506040513d60208110156151ac57600080fd5b505160408051630f1debb960e41b81523360048201526001600160a01b0385811660248301529151919092169163f1debb90916044808301926020929190829003018186803b1580156114bf57600080fd5b6034546040805163346681fb60e11b815290516000926001600160a01b0316916368cd03f6916004808301926020929190829003018186803b15801561524357600080fd5b505afa158015615257573d6000803e3d6000fd5b505050506040513d602081101561526d57600080fd5b505160408051638224b89960e01b81523360048201526001600160a01b03858116602483015291519190921691638224b899916044808301926020929190829003018186803b1580156114bf57600080fd5b603454604080516378b88bc760e11b81526001600160a01b039283166004820152918416602483015251839173__Utils_________________________________9163f171178e91604480820192602092909190829003018186803b15801561532757600080fd5b505af415801561533b573d6000803e3d6000fd5b505050506040513d602081101561535157600080fd5b505161548c57603460009054906101000a90046001600160a01b03166001600160a01b0316639895880f6040518163ffffffff1660e01b815260040160206040518083038186803b1580156153a557600080fd5b505afa1580156153b9573d6000803e3d6000fd5b505050506040513d60208110156153cf57600080fd5b505160408051633fc422e560e01b81526001600160a01b03848116600483015291519190921691633fc422e5916024808301926020929190829003018186803b15801561541b57600080fd5b505afa15801561542f573d6000803e3d6000fd5b505050506040513d602081101561544557600080fd5b505161548c576040805162461bcd60e51b81526020600482015260116024820152702ab739bab83837b93a32b2103a37b5b2b760791b604482015290519081900360640190fd5b603354600160a81b900460ff16156154de576040805162461bcd60e51b815260206004820152601060248201526f14185d5cd8589b194e881c185d5cd95960821b604482015290519081900360640190fd5b60335460ff16615523576040805162461bcd60e51b815260206004820152601f602482015260008051602061656d833981519152604482015290519081900360640190fd5b6033805460ff1916905581615570576040805162461bcd60e51b815260206004820152600e60248201526d416d6f756e74206973207a65726f60901b604482015290519081900360640190fd5b603454604080516376cdb03b60e01b815290516000926001600160a01b0316916376cdb03b916004808301926020929190829003018186803b1580156155b557600080fd5b505afa1580156155c9573d6000803e3d6000fd5b505050506040513d60208110156155df57600080fd5b505160408051636ce5768960e11b81523360048201526001600160a01b038781166024830152604482018790529151919092169163d9caed129160648083019260209291908290030181600087803b15801561563a57600080fd5b505af115801561564e573d6000803e3d6000fd5b505050506040513d602081101561566457600080fd5b505160345460408051633b4571a160e01b81526001600160a01b0392831660048201526024810184905291871660448301525191925073__SavingLib_____________________________91633b4571a191606480820192600092909190829003018186803b1580156156d657600080fd5b505af41580156156ea573d6000803e3d6000fd5b5050604080513381526020810185905281516001600160a01b03891694507f9b1bfa7fa9ee420a16e124f794c35ac9f90472acc99140eb2f6447c714cad8eb93509081900390910190a250506033805460ff191660011790555050565b603454604080516378b88bc760e11b81526001600160a01b039283166004820152918316602483015251829173__Utils_________________________________9163f171178e91604480820192602092909190829003018186803b1580156157af57600080fd5b505af41580156157c3573d6000803e3d6000fd5b505050506040513d60208110156157d957600080fd5b505161591457603460009054906101000a90046001600160a01b03166001600160a01b0316639895880f6040518163ffffffff1660e01b815260040160206040518083038186803b15801561582d57600080fd5b505afa158015615841573d6000803e3d6000fd5b505050506040513d602081101561585757600080fd5b505160408051633fc422e560e01b81526001600160a01b03848116600483015291519190921691633fc422e5916024808301926020929190829003018186803b1580156158a357600080fd5b505afa1580156158b7573d6000803e3d6000fd5b505050506040513d60208110156158cd57600080fd5b5051615914576040805162461bcd60e51b81526020600482015260116024820152702ab739bab83837b93a32b2103a37b5b2b760791b604482015290519081900360640190fd5b603354600160a81b900460ff1615615966576040805162461bcd60e51b815260206004820152601060248201526f14185d5cd8589b194e881c185d5cd95960821b604482015290519081900360640190fd5b60335460ff166159ab576040805162461bcd60e51b815260206004820152601f602482015260008051602061656d833981519152604482015290519081900360640190fd5b6033805460ff191690556034546040805163346681fb60e11b815290516000926001600160a01b0316916368cd03f6916004808301926020929190829003018186803b1580156159fa57600080fd5b505afa158015615a0e573d6000803e3d6000fd5b505050506040513d6020811015615a2457600080fd5b50516040805163fa78d59f60e01b81523360048201526001600160a01b0386811660248301529151919092169163fa78d59f916044808301926020929190829003018186803b158015615a7657600080fd5b505afa158015615a8a573d6000803e3d6000fd5b505050506040513d6020811015615aa057600080fd5b505111615ade5760405162461bcd60e51b815260040180806020018281038252602d81526020018061669e602d913960400191505060405180910390fd5b603460009054906101000a90046001600160a01b03166001600160a01b03166376cdb03b6040518163ffffffff1660e01b815260040160206040518083038186803b158015615b2c57600080fd5b505afa158015615b40573d6000803e3d6000fd5b505050506040513d6020811015615b5657600080fd5b50516040805163378d2c3d60e21b81526001600160a01b0385811660048301529151919092169163de34b0f491602480830192600092919082900301818387803b158015615ba357600080fd5b505af1158015615bb7573d6000803e3d6000fd5b505050506000603460009054906101000a90046001600160a01b03166001600160a01b03166368cd03f66040518163ffffffff1660e01b815260040160206040518083038186803b158015615c0b57600080fd5b505afa158015615c1f573d6000803e3d6000fd5b505050506040513d6020811015615c3557600080fd5b50516040805163b44d253d60e01b81526001600160a01b0386811660048301523360248301529151919092169163b44d253d916044808301926020929190829003018186803b158015615c8757600080fd5b505afa158015615c9b573d6000803e3d6000fd5b505050506040513d6020811015615cb157600080fd5b5051603454604080516376cdb03b60e01b815290519293506000926001600160a01b03909216916376cdb03b91600480820192602092909190829003018186803b158015615cfe57600080fd5b505afa158015615d12573d6000803e3d6000fd5b505050506040513d6020811015615d2857600080fd5b505160408051636ce5768960e11b81523360048201526001600160a01b038781166024830152604482018690529151919092169163d9caed129160648083019260209291908290030181600087803b158015615d8357600080fd5b505af1158015615d97573d6000803e3d6000fd5b505050506040513d6020811015615dad57600080fd5b505190508015615e3c5760345460408051633b4571a160e01b81526001600160a01b0392831660048201526024810184905291861660448301525173__SavingLib_____________________________91633b4571a1916064808301926000929190829003018186803b158015615e2357600080fd5b505af4158015615e37573d6000803e3d6000fd5b505050505b604080513381526020810183905281516001600160a01b038716927f858f8be6acc95d7ac4177f157cb7c92a1d922bd948b968ce21df5b7b26a10a95928290030190a250506033805460ff191660011790555050565b60375460408051637e65f3fb60e11b81526004810184905290516000926001600160a01b03169163fccbe7f691602480830192602092919082900301818787803b158015615edf57600080fd5b505af11580156114d3573d6000803e3d6000fd5b801580615f79575060408051636eb1769f60e11b81523060048201526001600160a01b03848116602483015291519185169163dd62ed3e91604480820192602092909190829003018186803b158015615f4b57600080fd5b505afa158015615f5f573d6000803e3d6000fd5b505050506040513d6020811015615f7557600080fd5b5051155b615fb45760405162461bcd60e51b815260040180806020018281038252603681526020018061672d6036913960400191505060405180910390fd5b604080516001600160a01b038416602482015260448082018490528251808303909101815260649091019091526020810180516001600160e01b031663095ea7b360e01b179052612e42908490616196565b600061604883836040518060400160405280601e81526020017f536166654d6174683a207375627472616374696f6e206f766572666c6f77000081525061634e565b9392505050565b303b1590565b604080516001600160a01b038416602482015260448082018490528251808303909101815260649091019091526020810180516001600160e01b031663a9059cbb60e01b179052612e42908490616196565b6033805460ff19166001179055565b6033805460ff60a81b196001600160a01b0390931661010002610100600160a81b031990911617919091169055565b60008183106160f45781616048565b5090919050565b60008261610a57506000610d24565b8282028284828161611757fe5b04146160485760405162461bcd60e51b81526004018080602001828103825260218152602001806165de6021913960400191505060405180910390fd5b600061604883836040518060400160405280601a81526020017f536166654d6174683a206469766973696f6e206279207a65726f0000000000008152506163e5565b6161a8826001600160a01b031661644a565b6161f9576040805162461bcd60e51b815260206004820152601f60248201527f5361666545524332303a2063616c6c20746f206e6f6e2d636f6e747261637400604482015290519081900360640190fd5b60006060836001600160a01b0316836040518082805190602001908083835b602083106162375780518252601f199092019160209182019101616218565b6001836020036101000a0380198251168184511680821785525050505050509050019150506000604051808303816000865af19150503d8060008114616299576040519150601f19603f3d011682016040523d82523d6000602084013e61629e565b606091505b5091509150816162f5576040805162461bcd60e51b815260206004820181905260248201527f5361666545524332303a206c6f772d6c6576656c2063616c6c206661696c6564604482015290519081900360640190fd5b8051156129ec5780806020019051602081101561631157600080fd5b50516129ec5760405162461bcd60e51b815260040180806020018281038252602a815260200180616703602a913960400191505060405180910390fd5b600081848411156163dd5760405162461bcd60e51b81526004018080602001828103825283818151815260200191508051906020019080838360005b838110156163a257818101518382015260200161638a565b50505050905090810190601f1680156163cf5780820380516001836020036101000a031916815260200191505b509250505060405180910390fd5b505050900390565b600081836164345760405162461bcd60e51b81526020600482018181528351602484015283519092839260449091019190850190808383600083156163a257818101518382015260200161638a565b50600083858161644057fe5b0495945050505050565b6000813f7fc5d2460186f7233c927e7db2dcc703c0e500b653ca82273b7bfad8045d85a47081811480159061647e57508115155b949350505050565b604051806101c001604052806000815260200160008152602001600081526020016000815260200160008152602001600081526020016000815260200160008152602001600081526020016000815260200160008152602001600081526020016000815260200160008152509056fe546f6b656e20616e642063546f6b656e206c656e67746820646f6e2774206d617463682e4e6f2065787472612066756e647320617265207573656420666f72206c69717569646174696f6e2e426f72726f77207a65726f20616d6f756e74206f6620746f6b656e206973206e6f7420616c6c6f7765642e5265656e7472616e637947756172643a207265656e7472616e742063616c6c00506175736572526f6c653a2063616c6c657220646f6573206e6f742068617665207468652050617573657220726f6c6554686520626f72726f776572206973206e6f74206c6971756964617461626c652e536166654d6174683a206d756c7469706c69636174696f6e206f766572666c6f77436f6e747261637420696e7374616e63652068617320616c7265616479206265656e20696e697469616c697a6564546865206163636f756e7420616d6f756e74206d7573742062652067726561746572207468616e207a65726f2e54686520626f72726f77657220646f65736e2774206f776e20616e79206465627420746f6b656e2073706563696669656420627920746865206c697175696461746f722e546f6b656e206465706f7369745072696e636970616c206d7573742062652067726561746572207468616e20304f6e6c7920617574686f72697a656420746f2063616c6c2066726f6d20446546696e657220696e7465726e616c20636f6e7472616374732e5361666545524332303a204552433230206f7065726174696f6e20646964206e6f7420737563636565645361666545524332303a20617070726f76652066726f6d206e6f6e2d7a65726f20746f206e6f6e2d7a65726f20616c6c6f77616e6365a265627a7a72315820156fccf63502dbcdb9cd8d7306ce11c7088f90ed3b034f8438209427d882ceae64736f6c634300050e0032",
  "source": "pragma solidity 0.5.14;\n\nimport \"../SavingAccount.sol\";\nimport { IController } from \"../compound/ICompound.sol\";\nimport \"../Accounts.sol\";\n//import { TokenRegistry } from \"../registry/TokenRegistry.sol\";\n//import { Bank } from \"../Bank.sol\";\n//import \"../config/GlobalConfig.sol\";\n\n// This file is only for testing purpose only\ncontract SavingAccountWithController is SavingAccount {\n\n    Accounts.Account public accountVariable;\n    //GlobalConfig public globalConfig;\n    address comptroller;\n\n    constructor() public {\n        // DO NOT ADD ANY LOGIC HERE.\n        // THIS IS AN UPGRADABLE CONTRACT\n    }\n\n    /**\n     * Intialize the contract\n     * @param _tokenAddresses list of token addresses\n     * @param _cTokenAddresses list of corresponding cToken addresses\n     * @param _globalConfig global configuration contract\n     * @param _comptroller Compound controller address\n     */\n    function initialize(\n        address[] memory _tokenAddresses,\n        address[] memory _cTokenAddresses, \n        //TokenRegistry _tokenRegistry, // can remove\n        GlobalConfig _globalConfig,\n        address _comptroller\n    ) public initializer {\n        comptroller = _comptroller;\n        super.initialize(_tokenAddresses, _cTokenAddresses, _globalConfig);\n    }\n\n    /**\n     * Fastfoward for specified block numbers. The block number is synced to compound.\n     * @param blocks number of blocks to be forwarded\n     */\n    function fastForward(uint blocks) public returns (uint) {\n        return IController(comptroller).fastForward(blocks);\n    }\n\n    /**\n     * Get the block number from comound\n     */\n    function getBlockNumber() internal view returns (uint) {\n        return IController(comptroller).getBlockNumber();\n    }\n\n    function newRateIndexCheckpoint(address _token) public {\n        globalConfig.bank().newRateIndexCheckpoint(_token);\n    }\n\n    function getDepositPrincipal(address _token) public view returns (uint256) {\n        //TokenRegistry.TokenInfo storage tokenInfo.depositPrincipal = globalConfig.accounts().getDepositPrincipal(msg.sender, _token);\n        return globalConfig.accounts().getDepositPrincipal(msg.sender, _token);\n    }\n\n    function getDepositInterest(address _token) public view returns (uint256) {\n        /* TokenRegistry.TokenInfo storage tokenInfo = accountVariable.tokenInfos[_token];\n        uint256 lastDepositBlock = globalConfig.accounts().getLastDepositBlock(msg.sender, _token);\n        uint256 accruedRate = globalConfig.bank().getDepositAccruedRate(_token, lastDepositBlock);\n        return tokenInfo.calculateDepositInterest(accruedRate); */\n        return globalConfig.accounts().getDepositInterest(msg.sender, _token);\n\n    }\n\n    function getDepositBalance(address _token, address _accountAddr) public view returns (uint256) {\n        return globalConfig.accounts().getDepositBalanceCurrent(_token, _accountAddr);\n    }\n\n    function getBorrowPrincipal(address _token) public view returns (uint256) {\n        //TokenRegistry.TokenInfo storage tokenInfo = globalConfig.accounts().accounts[msg.sender].tokenInfos[_token];\n        return globalConfig.accounts().getBorrowPrincipal(msg.sender, _token);\n    }\n\n    function getBorrowInterest(address _token) public view returns (uint256) {\n        /* TokenRegistry.TokenInfo storage tokenInfo = globalConfig.accounts().accounts[msg.sender].tokenInfos[_token];\n        uint256 accruedRate = globalConfig.bank().getBorrowAccruedRate(_token, tokenInfo.getLastBorrowBlock());\n        return tokenInfo.calculateBorrowInterest(accruedRate); */\n        return globalConfig.accounts().getBorrowInterest(msg.sender, _token);\n    }\n\n    function getBorrowBalance(address _token, address _accountAddr) public view returns (uint256) {\n        return globalConfig.accounts().getBorrowBalanceCurrent(_token, _accountAddr);\n    }\n\n    function getBorrowETH(address _account) public view returns (uint256) {\n        return globalConfig.accounts().getBorrowETH(_account);\n    }\n\n    function getDepositETH(address _account) public view returns (uint256) {\n        return globalConfig.accounts().getDepositETH(_account);\n    }\n\n    function getTokenPrice(address _token) public view returns (uint256) {\n        return globalConfig.tokenInfoRegistry().priceFromAddress(_token);\n    }\n\n    function getTokenState(address _token) public view returns (uint256 deposits, uint256 loans, uint256 reserveBalance, uint256 remainingAssets){\n        return globalConfig.bank().getTokenState(_token);\n    }\n}",
  "sourcePath": "/Users/yanyichun/project/Savings/contracts/mocks/SavingAccountWithController.sol",
  "compiler": {
    "name": "solc",
    "version": "0.5.14+commit.01f1aaa4.Emscripten.clang"
  },
  "schemaVersion": "3.2.3",
  "updatedAt": "2021-02-25T05:55:41.101Z",
  "devdoc": {
    "methods": {
      "approveAll(address)": {
        "params": {
          "_token": "token address"
        }
      },
      "borrow(address,uint256)": {
        "params": {
          "_amount": "amout of tokens to borrow",
          "_token": "token address"
        }
      },
      "deposit(address,uint256)": {
        "params": {
          "_amount": "the mount of the deposited token",
          "_token": "the address of the deposited token"
        }
      },
      "fastForward(uint256)": {
        "params": {
          "blocks": "number of blocks to be forwarded"
        }
      },
      "fromCompound(address,uint256)": {
        "params": {
          "_amount": "amount of token",
          "_token": "token address"
        }
      },
      "initialize(address[],address[],address)": {
        "params": {
          "_cTokenAddresses": "list of corresponding cToken addresses",
          "_globalConfig": "global configuration contract",
          "_tokenAddresses": "list of token addresses"
        }
      },
      "initialize(address[],address[],address,address)": {
        "params": {
          "_cTokenAddresses": "list of corresponding cToken addresses",
          "_comptroller": "Compound controller address",
          "_globalConfig": "global configuration contract",
          "_tokenAddresses": "list of token addresses"
        }
      },
      "pause()": {
        "details": "Called by a pauser to pause, triggers stopped state."
      },
      "paused()": {
        "details": "Returns true if the contract is paused, and false otherwise."
      },
      "repay(address,uint256)": {
        "details": "If the repay amount is larger than the borrowed balance, the extra will be returned.",
        "params": {
          "_amount": "amout of tokens to borrow",
          "_token": "token address"
        }
      },
      "transfer(address,address,uint256)": {
        "params": {
          "_amount": "amout of tokens transfer",
          "_to": "the address that the token be transfered to",
          "_token": "token address"
        }
      },
      "unpause()": {
        "details": "Called by a pauser to unpause, returns to normal state."
      },
      "withdraw(address,uint256)": {
        "params": {
          "_amount": "amount to be withdrawn",
          "_token": "token address"
        }
      },
      "withdrawAll(address)": {
        "params": {
          "_token": "the address of the withdrawn token"
        }
      }
    }
  },
  "userdoc": {
    "methods": {
      "approveAll(address)": {
        "notice": "Approve transfer of all available tokens"
      },
      "borrow(address,uint256)": {
        "notice": "Borrow the amount of token from the saving pool."
      },
      "claim()": {
        "notice": "An account claim all mined FIN token"
      },
      "deposit(address,uint256)": {
        "notice": "Deposit the amount of token to the saving pool."
      },
      "fastForward(uint256)": {
        "notice": "Fastfoward for specified block numbers. The block number is synced to compound."
      },
      "fromCompound(address,uint256)": {
        "notice": "Withdraw token from Compound"
      },
      "initialize(address[],address[],address)": {
        "notice": "Initialize function to be called by the Deployer for the first time"
      },
      "initialize(address[],address[],address,address)": {
        "notice": "Intialize the contract"
      },
      "repay(address,uint256)": {
        "notice": "Repay the amount of token back to the saving pool."
      },
      "transfer(address,address,uint256)": {
        "notice": "Transfer the token between users inside DeFiner"
      },
      "withdraw(address,uint256)": {
        "notice": "Withdraw a token from an address"
      },
      "withdrawAll(address)": {
        "notice": "Withdraw all tokens from the saving pool."
      }
    }
  }
}