{
  "contractName": "SavingAccount",
  "abi": [
    {
      "inputs": [],
      "payable": false,
      "stateMutability": "nonpayable",
      "type": "constructor"
    },
    {
      "anonymous": false,
      "inputs": [
        {
          "indexed": true,
          "internalType": "address",
          "name": "token",
          "type": "address"
        },
        {
          "indexed": false,
          "internalType": "address",
          "name": "from",
          "type": "address"
        },
        {
          "indexed": false,
          "internalType": "uint256",
          "name": "amount",
          "type": "uint256"
        }
      ],
      "name": "Borrow",
      "type": "event"
    },
    {
      "anonymous": false,
      "inputs": [
        {
          "indexed": false,
          "internalType": "address",
          "name": "from",
          "type": "address"
        },
        {
          "indexed": false,
          "internalType": "uint256",
          "name": "amount",
          "type": "uint256"
        }
      ],
      "name": "Claim",
      "type": "event"
    },
    {
      "anonymous": false,
      "inputs": [
        {
          "indexed": true,
          "internalType": "address",
          "name": "token",
          "type": "address"
        },
        {
          "indexed": false,
          "internalType": "address",
          "name": "from",
          "type": "address"
        },
        {
          "indexed": false,
          "internalType": "uint256",
          "name": "amount",
          "type": "uint256"
        }
      ],
      "name": "Deposit",
      "type": "event"
    },
    {
      "anonymous": false,
      "inputs": [
        {
          "indexed": false,
          "internalType": "address",
          "name": "account",
          "type": "address"
        }
      ],
      "name": "Paused",
      "type": "event"
    },
    {
      "anonymous": false,
      "inputs": [
        {
          "indexed": true,
          "internalType": "address",
          "name": "token",
          "type": "address"
        },
        {
          "indexed": false,
          "internalType": "address",
          "name": "from",
          "type": "address"
        },
        {
          "indexed": false,
          "internalType": "uint256",
          "name": "amount",
          "type": "uint256"
        }
      ],
      "name": "Repay",
      "type": "event"
    },
    {
      "anonymous": false,
      "inputs": [
        {
          "indexed": true,
          "internalType": "address",
          "name": "token",
          "type": "address"
        },
        {
          "indexed": false,
          "internalType": "address",
          "name": "from",
          "type": "address"
        },
        {
          "indexed": false,
          "internalType": "address",
          "name": "to",
          "type": "address"
        },
        {
          "indexed": false,
          "internalType": "uint256",
          "name": "amount",
          "type": "uint256"
        }
      ],
      "name": "Transfer",
      "type": "event"
    },
    {
      "anonymous": false,
      "inputs": [
        {
          "indexed": false,
          "internalType": "address",
          "name": "account",
          "type": "address"
        }
      ],
      "name": "Unpaused",
      "type": "event"
    },
    {
      "anonymous": false,
      "inputs": [
        {
          "indexed": true,
          "internalType": "address",
          "name": "token",
          "type": "address"
        },
        {
          "indexed": false,
          "internalType": "address",
          "name": "from",
          "type": "address"
        },
        {
          "indexed": false,
          "internalType": "uint256",
          "name": "amount",
          "type": "uint256"
        }
      ],
      "name": "Withdraw",
      "type": "event"
    },
    {
      "anonymous": false,
      "inputs": [
        {
          "indexed": true,
          "internalType": "address",
          "name": "token",
          "type": "address"
        },
        {
          "indexed": false,
          "internalType": "address",
          "name": "from",
          "type": "address"
        },
        {
          "indexed": false,
          "internalType": "uint256",
          "name": "amount",
          "type": "uint256"
        }
      ],
      "name": "WithdrawAll",
      "type": "event"
    },
    {
      "payable": true,
      "stateMutability": "payable",
      "type": "fallback"
    },
    {
      "constant": true,
      "inputs": [],
      "name": "ACCURACY",
      "outputs": [
        {
          "internalType": "uint256",
          "name": "",
          "type": "uint256"
        }
      ],
      "payable": false,
      "stateMutability": "view",
      "type": "function"
    },
    {
      "constant": true,
      "inputs": [],
      "name": "BLOCKS_PER_YEAR",
      "outputs": [
        {
          "internalType": "uint256",
          "name": "",
          "type": "uint256"
        }
      ],
      "payable": false,
      "stateMutability": "view",
      "type": "function"
    },
    {
      "constant": true,
      "inputs": [],
      "name": "EMERGENCY_ADDR",
      "outputs": [
        {
          "internalType": "address payable",
          "name": "",
          "type": "address"
        }
      ],
      "payable": false,
      "stateMutability": "view",
      "type": "function"
    },
    {
      "constant": true,
      "inputs": [],
      "name": "ETH_ADDR",
      "outputs": [
        {
          "internalType": "address",
          "name": "",
          "type": "address"
        }
      ],
      "payable": false,
      "stateMutability": "view",
      "type": "function"
    },
    {
      "constant": true,
      "inputs": [],
      "name": "INT_UNIT",
      "outputs": [
        {
          "internalType": "uint256",
          "name": "",
          "type": "uint256"
        }
      ],
      "payable": false,
      "stateMutability": "view",
      "type": "function"
    },
    {
      "constant": true,
      "inputs": [],
      "name": "globalConfig",
      "outputs": [
        {
          "internalType": "contract GlobalConfig",
          "name": "",
          "type": "address"
        }
      ],
      "payable": false,
      "stateMutability": "view",
      "type": "function"
    },
    {
      "constant": false,
      "inputs": [],
      "name": "pause",
      "outputs": [],
      "payable": false,
      "stateMutability": "nonpayable",
      "type": "function"
    },
    {
      "constant": true,
      "inputs": [],
      "name": "paused",
      "outputs": [
        {
          "internalType": "bool",
          "name": "",
          "type": "bool"
        }
      ],
      "payable": false,
      "stateMutability": "view",
      "type": "function"
    },
    {
      "constant": false,
      "inputs": [],
      "name": "unpause",
      "outputs": [],
      "payable": false,
      "stateMutability": "nonpayable",
      "type": "function"
    },
    {
      "constant": false,
      "inputs": [
        {
          "internalType": "address[]",
          "name": "_tokenAddresses",
          "type": "address[]"
        },
        {
          "internalType": "address[]",
          "name": "_cTokenAddresses",
          "type": "address[]"
        },
        {
          "internalType": "contract GlobalConfig",
          "name": "_globalConfig",
          "type": "address"
        }
      ],
      "name": "initialize",
      "outputs": [],
      "payable": false,
      "stateMutability": "nonpayable",
      "type": "function"
    },
    {
      "constant": false,
      "inputs": [
        {
          "internalType": "address",
          "name": "_token",
          "type": "address"
        }
      ],
      "name": "approveAll",
      "outputs": [],
      "payable": false,
      "stateMutability": "nonpayable",
      "type": "function"
    },
    {
      "constant": false,
      "inputs": [
        {
          "internalType": "address",
          "name": "_to",
          "type": "address"
        },
        {
          "internalType": "address",
          "name": "_token",
          "type": "address"
        },
        {
          "internalType": "uint256",
          "name": "_amount",
          "type": "uint256"
        }
      ],
      "name": "transfer",
      "outputs": [],
      "payable": false,
      "stateMutability": "nonpayable",
      "type": "function"
    },
    {
      "constant": false,
      "inputs": [
        {
          "internalType": "address",
          "name": "_token",
          "type": "address"
        },
        {
          "internalType": "uint256",
          "name": "_amount",
          "type": "uint256"
        }
      ],
      "name": "borrow",
      "outputs": [],
      "payable": false,
      "stateMutability": "nonpayable",
      "type": "function"
    },
    {
      "constant": false,
      "inputs": [
        {
          "internalType": "address",
          "name": "_token",
          "type": "address"
        },
        {
          "internalType": "uint256",
          "name": "_amount",
          "type": "uint256"
        }
      ],
      "name": "repay",
      "outputs": [],
      "payable": true,
      "stateMutability": "payable",
      "type": "function"
    },
    {
      "constant": false,
      "inputs": [
        {
          "internalType": "address",
          "name": "_token",
          "type": "address"
        },
        {
          "internalType": "uint256",
          "name": "_amount",
          "type": "uint256"
        }
      ],
      "name": "deposit",
      "outputs": [],
      "payable": true,
      "stateMutability": "payable",
      "type": "function"
    },
    {
      "constant": false,
      "inputs": [
        {
          "internalType": "address",
          "name": "_token",
          "type": "address"
        },
        {
          "internalType": "uint256",
          "name": "_amount",
          "type": "uint256"
        }
      ],
      "name": "withdraw",
      "outputs": [],
      "payable": false,
      "stateMutability": "nonpayable",
      "type": "function"
    },
    {
      "constant": false,
      "inputs": [
        {
          "internalType": "address",
          "name": "_token",
          "type": "address"
        }
      ],
      "name": "withdrawAll",
      "outputs": [],
      "payable": false,
      "stateMutability": "nonpayable",
      "type": "function"
    },
    {
      "constant": false,
      "inputs": [
        {
          "internalType": "address",
          "name": "_borrower",
          "type": "address"
        },
        {
          "internalType": "address",
          "name": "_borrowedToken",
          "type": "address"
        },
        {
          "internalType": "address",
          "name": "_collateralToken",
          "type": "address"
        }
      ],
      "name": "liquidate",
      "outputs": [],
      "payable": false,
      "stateMutability": "nonpayable",
      "type": "function"
    },
    {
      "constant": false,
      "inputs": [
        {
          "internalType": "address",
          "name": "_token",
          "type": "address"
        },
        {
          "internalType": "uint256",
          "name": "_amount",
          "type": "uint256"
        }
      ],
      "name": "fromCompound",
      "outputs": [],
      "payable": false,
      "stateMutability": "nonpayable",
      "type": "function"
    },
    {
      "constant": false,
      "inputs": [
        {
          "internalType": "address",
          "name": "_token",
          "type": "address"
        },
        {
          "internalType": "uint256",
          "name": "_amount",
          "type": "uint256"
        }
      ],
      "name": "toCompound",
      "outputs": [],
      "payable": false,
      "stateMutability": "nonpayable",
      "type": "function"
    },
    {
      "constant": false,
      "inputs": [
        {
          "internalType": "address",
          "name": "_token",
          "type": "address"
        }
      ],
      "name": "emergencyWithdraw",
      "outputs": [],
      "payable": false,
      "stateMutability": "nonpayable",
      "type": "function"
    },
    {
      "constant": false,
      "inputs": [],
      "name": "claim",
      "outputs": [],
      "payable": false,
      "stateMutability": "nonpayable",
      "type": "function"
    }
  ],
  "bytecode": "0x608060405234801561001057600080fd5b5061586180620000216000396000f3fe6080604052600436106101355760003560e01c80637753f47b116100ab578063ca5ce2ec1161006f578063ca5ce2ec146104e5578063d37db1d21461052a578063d8c2d84c14610551578063f3fef3a314610566578063fa09e6301461059f578063fbcd9b051461055157610135565b80637753f47b1461042a5780638280e5a91461043f5780638456cb5914610478578063a7c1abe01461048d578063beabacc8146104a257610135565b80634e71d92d116100fd5780634e71d92d14610210578063526e93cb146102255780635274ac3f1461025e5780635467cec41461039d5780635c975abb146103ce5780636ff1c9bc146103f757610135565b80630621472c1461013757806322867d781461016a5780633f4ba83a1461019657806347e7ef24146101ab5780634b8a3529146101d7575b005b34801561014357600080fd5b506101356004803603602081101561015a57600080fd5b50356001600160a01b03166105d2565b6101356004803603604081101561018057600080fd5b506001600160a01b03813516906020013561074a565b3480156101a257600080fd5b50610135610c46565b610135600480360360408110156101c157600080fd5b506001600160a01b038135169060200135610e19565b3480156101e357600080fd5b50610135600480360360408110156101fa57600080fd5b506001600160a01b038135169060200135611371565b34801561021c57600080fd5b50610135611914565b34801561023157600080fd5b506101356004803603604081101561024857600080fd5b506001600160a01b038135169060200135611b9c565b34801561026a57600080fd5b506101356004803603606081101561028157600080fd5b81019060208101813564010000000081111561029c57600080fd5b8201836020820111156102ae57600080fd5b803590602001918460208302840111640100000000831117156102d057600080fd5b919080806020026020016040519081016040528093929190818152602001838360200280828437600092019190915250929594936020810193503591505064010000000081111561032057600080fd5b82018360208201111561033257600080fd5b8035906020019184602083028401116401000000008311171561035457600080fd5b919080806020026020016040519081016040528093929190818152602001838360200280828437600092019190915250929550505090356001600160a01b03169150611e159050565b3480156103a957600080fd5b506103b2611fba565b604080516001600160a01b039092168252519081900360200190f35b3480156103da57600080fd5b506103e3611fd2565b604080519115158252519081900360200190f35b34801561040357600080fd5b506101356004803603602081101561041a57600080fd5b50356001600160a01b0316611fe2565b34801561043657600080fd5b506103b26120c0565b34801561044b57600080fd5b506101356004803603604081101561046257600080fd5b506001600160a01b0381351690602001356120c5565b34801561048457600080fd5b50610135612416565b34801561049957600080fd5b506103b26125a4565b3480156104ae57600080fd5b50610135600480360360608110156104c557600080fd5b506001600160a01b038135811691602081013590911690604001356125b3565b3480156104f157600080fd5b506101356004803603606081101561050857600080fd5b506001600160a01b038135811691602081013582169160409091013516612c70565b34801561053657600080fd5b5061053f6143d5565b60408051918252519081900360200190f35b34801561055d57600080fd5b5061053f6143dc565b34801561057257600080fd5b506101356004803603604081101561058957600080fd5b506001600160a01b0381351690602001356143e8565b3480156105ab57600080fd5b50610135600480360360208110156105c257600080fd5b50356001600160a01b0316614870565b60345460408051639895880f60e01b815290516000926001600160a01b031691639895880f916004808301926020929190829003018186803b15801561061757600080fd5b505afa15801561062b573d6000803e3d6000fd5b505050506040513d602081101561064157600080fd5b505160408051637e5a4eb960e01b81526001600160a01b03858116600483015291519190921691637e5a4eb9916024808301926020929190829003018186803b15801561068d57600080fd5b505afa1580156106a1573d6000803e3d6000fd5b505050506040513d60208110156106b757600080fd5b505190506001600160a01b03811661070f576040805162461bcd60e51b815260206004820152601660248201527563546f6b656e2061646472657373206973207a65726f60501b604482015290519081900360640190fd5b61072a6001600160a01b03831682600063ffffffff614fbb16565b6107466001600160a01b0383168260001963ffffffff614fbb16565b5050565b603454604080516378b88bc760e11b81526001600160a01b039283166004820152918416602483015251839173__Utils_________________________________9163f171178e91604480820192602092909190829003018186803b1580156107b257600080fd5b505af41580156107c6573d6000803e3d6000fd5b505050506040513d60208110156107dc57600080fd5b505161091757603460009054906101000a90046001600160a01b03166001600160a01b0316639895880f6040518163ffffffff1660e01b815260040160206040518083038186803b15801561083057600080fd5b505afa158015610844573d6000803e3d6000fd5b505050506040513d602081101561085a57600080fd5b505160408051633fc422e560e01b81526001600160a01b03848116600483015291519190921691633fc422e5916024808301926020929190829003018186803b1580156108a657600080fd5b505afa1580156108ba573d6000803e3d6000fd5b505050506040513d60208110156108d057600080fd5b5051610917576040805162461bcd60e51b81526020600482015260116024820152702ab739bab83837b93a32b2103a37b5b2b760791b604482015290519081900360640190fd5b60335460ff1661095c576040805162461bcd60e51b815260206004820152601f6024820152600080516020615637833981519152604482015290519081900360640190fd5b6033805460ff19169055816109a9576040805162461bcd60e51b815260206004820152600e60248201526d416d6f756e74206973207a65726f60901b604482015290519081900360640190fd5b603454604080516384ac1f7560e01b81526001600160a01b0392831660048201526024810185905291851660448301525173__SavingLib_____________________________916384ac1f75916064808301926000929190829003018186803b158015610a1557600080fd5b505af4158015610a29573d6000803e3d6000fd5b505050506000603460009054906101000a90046001600160a01b03166001600160a01b03166376cdb03b6040518163ffffffff1660e01b815260040160206040518083038186803b158015610a7d57600080fd5b505afa158015610a91573d6000803e3d6000fd5b505050506040513d6020811015610aa757600080fd5b505160408051631da649cf60e01b81523360048201526001600160a01b0387811660248301526044820187905291519190921691631da649cf9160648083019260209291908290030181600087803b158015610b0257600080fd5b505af1158015610b16573d6000803e3d6000fd5b505050506040513d6020811015610b2c57600080fd5b5051905082811015610bf05760345473__SavingLib_____________________________90633b4571a1906001600160a01b0316610b70868563ffffffff6150ce16565b876040518463ffffffff1660e01b815260040180846001600160a01b03166001600160a01b03168152602001838152602001826001600160a01b03166001600160a01b03168152602001935050505060006040518083038186803b158015610bd757600080fd5b505af4158015610beb573d6000803e3d6000fd5b505050505b604080513381526020810183905281516001600160a01b038716927f05f2eeda0e08e4b437f487c8d7d29b14537d15e3488170dc3de5dbdf8dac4684928290030190a250506033805460ff191660011790555050565b603360019054906101000a90046001600160a01b03166001600160a01b0316638da5cb5b6040518163ffffffff1660e01b815260040160206040518083038186803b158015610c9457600080fd5b505afa158015610ca8573d6000803e3d6000fd5b505050506040513d6020811015610cbe57600080fd5b50516001600160a01b03163314610d065760405162461bcd60e51b81526004018080602001828103825260308152602001806156576030913960400191505060405180910390fd5b603354600160a81b900460ff16610d5b576040805162461bcd60e51b815260206004820152601460248201527314185d5cd8589b194e881b9bdd081c185d5cd95960621b604482015290519081900360640190fd5b6033805460ff60a81b19169081905560408051638da5cb5b60e01b815290517f5db9ee0a495bf2e6ff9c91a7834c1ba4fdd244a5e8aa4e537bd38aeae4b073aa9261010090046001600160a01b031691638da5cb5b916004808301926020929190829003018186803b158015610dd057600080fd5b505afa158015610de4573d6000803e3d6000fd5b505050506040513d6020811015610dfa57600080fd5b5051604080516001600160a01b039092168252519081900360200190a1565b603454604080516378b88bc760e11b81526001600160a01b039283166004820152918416602483015251839173__Utils_________________________________9163f171178e91604480820192602092909190829003018186803b158015610e8157600080fd5b505af4158015610e95573d6000803e3d6000fd5b505050506040513d6020811015610eab57600080fd5b5051610fe657603460009054906101000a90046001600160a01b03166001600160a01b0316639895880f6040518163ffffffff1660e01b815260040160206040518083038186803b158015610eff57600080fd5b505afa158015610f13573d6000803e3d6000fd5b505050506040513d6020811015610f2957600080fd5b505160408051633fc422e560e01b81526001600160a01b03848116600483015291519190921691633fc422e5916024808301926020929190829003018186803b158015610f7557600080fd5b505afa158015610f89573d6000803e3d6000fd5b505050506040513d6020811015610f9f57600080fd5b5051610fe6576040805162461bcd60e51b81526020600482015260116024820152702ab739bab83837b93a32b2103a37b5b2b760791b604482015290519081900360640190fd5b60345460408051639895880f60e01b8152905185926001600160a01b031691639895880f916004808301926020929190829003018186803b15801561102a57600080fd5b505afa15801561103e573d6000803e3d6000fd5b505050506040513d602081101561105457600080fd5b50516040805163748538d960e01b81526001600160a01b0384811660048301529151919092169163748538d9916024808301926020929190829003018186803b1580156110a057600080fd5b505afa1580156110b4573d6000803e3d6000fd5b505050506040513d60208110156110ca57600080fd5b5051611118576040805162461bcd60e51b8152602060048201526018602482015277151a19481d1bdad95b881a5cc81b9bdd08195b98589b195960421b604482015290519081900360640190fd5b60335460ff1661115d576040805162461bcd60e51b815260206004820152601f6024820152600080516020615637833981519152604482015290519081900360640190fd5b6033805460ff19169055826111aa576040805162461bcd60e51b815260206004820152600e60248201526d416d6f756e74206973207a65726f60901b604482015290519081900360640190fd5b603454604080516384ac1f7560e01b81526001600160a01b0392831660048201526024810186905291861660448301525173__SavingLib_____________________________916384ac1f75916064808301926000929190829003018186803b15801561121657600080fd5b505af415801561122a573d6000803e3d6000fd5b50505050603460009054906101000a90046001600160a01b03166001600160a01b03166376cdb03b6040518163ffffffff1660e01b815260040160206040518083038186803b15801561127c57600080fd5b505afa158015611290573d6000803e3d6000fd5b505050506040513d60208110156112a657600080fd5b505160408051638340f54960e01b81523360048201526001600160a01b0387811660248301526044820187905291519190921691638340f54991606480830192600092919082900301818387803b15801561130057600080fd5b505af1158015611314573d6000803e3d6000fd5b5050604080513381526020810187905281516001600160a01b03891694507f5548c837ab068cf56a2c2479df0882a4922fd203edb7517321831d95078c5f6293509081900390910190a250506033805460ff191660011790555050565b603454604080516378b88bc760e11b81526001600160a01b039283166004820152918416602483015251839173__Utils_________________________________9163f171178e91604480820192602092909190829003018186803b1580156113d957600080fd5b505af41580156113ed573d6000803e3d6000fd5b505050506040513d602081101561140357600080fd5b505161153e57603460009054906101000a90046001600160a01b03166001600160a01b0316639895880f6040518163ffffffff1660e01b815260040160206040518083038186803b15801561145757600080fd5b505afa15801561146b573d6000803e3d6000fd5b505050506040513d602081101561148157600080fd5b505160408051633fc422e560e01b81526001600160a01b03848116600483015291519190921691633fc422e5916024808301926020929190829003018186803b1580156114cd57600080fd5b505afa1580156114e1573d6000803e3d6000fd5b505050506040513d60208110156114f757600080fd5b505161153e576040805162461bcd60e51b81526020600482015260116024820152702ab739bab83837b93a32b2103a37b5b2b760791b604482015290519081900360640190fd5b60345460408051639895880f60e01b8152905185926001600160a01b031691639895880f916004808301926020929190829003018186803b15801561158257600080fd5b505afa158015611596573d6000803e3d6000fd5b505050506040513d60208110156115ac57600080fd5b50516040805163748538d960e01b81526001600160a01b0384811660048301529151919092169163748538d9916024808301926020929190829003018186803b1580156115f857600080fd5b505afa15801561160c573d6000803e3d6000fd5b505050506040513d602081101561162257600080fd5b5051611670576040805162461bcd60e51b8152602060048201526018602482015277151a19481d1bdad95b881a5cc81b9bdd08195b98589b195960421b604482015290519081900360640190fd5b603354600160a81b900460ff16156116c2576040805162461bcd60e51b815260206004820152601060248201526f14185d5cd8589b194e881c185d5cd95960821b604482015290519081900360640190fd5b60335460ff16611707576040805162461bcd60e51b815260206004820152601f6024820152600080516020615637833981519152604482015290519081900360640190fd5b6033805460ff191690558261174d5760405162461bcd60e51b815260040180806020018281038252602b81526020018061560c602b913960400191505060405180910390fd5b603460009054906101000a90046001600160a01b03166001600160a01b03166376cdb03b6040518163ffffffff1660e01b815260040160206040518083038186803b15801561179b57600080fd5b505afa1580156117af573d6000803e3d6000fd5b505050506040513d60208110156117c557600080fd5b5051604080516314890dcb60e21b81523360048201526001600160a01b0387811660248301526044820187905291519190921691635224372c91606480830192600092919082900301818387803b15801561181f57600080fd5b505af1158015611833573d6000803e3d6000fd5b505060345460408051633b4571a160e01b81526001600160a01b0392831660048201526024810188905291881660448301525173__SavingLib_____________________________9350633b4571a192506064808301926000929190829003018186803b1580156118a357600080fd5b505af41580156118b7573d6000803e3d6000fd5b5050604080513381526020810187905281516001600160a01b03891694507f312a5e5e1079f5dda4e95dbbd0b908b291fd5b992ef22073643ab691572c5b5293509081900390910190a250506033805460ff191660011790555050565b60335460ff16611959576040805162461bcd60e51b815260206004820152601f6024820152600080516020615637833981519152604482015290519081900360640190fd5b6033805460ff191690556034546040805163346681fb60e11b815290516000926001600160a01b0316916368cd03f6916004808301926020929190829003018186803b1580156119a857600080fd5b505afa1580156119bc573d6000803e3d6000fd5b505050506040513d60208110156119d257600080fd5b505160408051630f41a04d60e11b815233600482015290516001600160a01b0390921691631e83409a916024808201926020929091908290030181600087803b158015611a1e57600080fd5b505af1158015611a32573d6000803e3d6000fd5b505050506040513d6020811015611a4857600080fd5b505160345460408051639895880f60e01b81529051929350611b5192339285926001600160a01b0390911691639895880f91600480820192602092909190829003018186803b158015611a9a57600080fd5b505afa158015611aae573d6000803e3d6000fd5b505050506040513d6020811015611ac457600080fd5b50516040805163021245b160e01b8152600b600482015290516001600160a01b039092169163021245b191602480820192602092909190829003018186803b158015611b0f57600080fd5b505afa158015611b23573d6000803e3d6000fd5b505050506040513d6020811015611b3957600080fd5b50516001600160a01b0316919063ffffffff61511916565b604080513381526020810183905281517f47cee97cb7acd717b3c0aa1435d004cd5b3c8c57d70dbceb4e4458bbd60e39d4929181900390910190a1506033805460ff19166001179055565b603460009054906101000a90046001600160a01b03166001600160a01b03166376cdb03b6040518163ffffffff1660e01b815260040160206040518083038186803b158015611bea57600080fd5b505afa158015611bfe573d6000803e3d6000fd5b505050506040513d6020811015611c1457600080fd5b50516001600160a01b03163314611c5c5760405162461bcd60e51b81526004018080602001828103825260388152602001806157956038913960400191505060405180910390fd5b603460009054906101000a90046001600160a01b03166001600160a01b0316639895880f6040518163ffffffff1660e01b815260040160206040518083038186803b158015611caa57600080fd5b505afa158015611cbe573d6000803e3d6000fd5b505050506040513d6020811015611cd457600080fd5b505160408051637e5a4eb960e01b81526001600160a01b03858116600483015291519190921691637e5a4eb9916024808301926020929190829003018186803b158015611d2057600080fd5b505afa158015611d34573d6000803e3d6000fd5b505050506040513d6020811015611d4a57600080fd5b50516040805163852a12e360e01b81526004810184905290516001600160a01b039092169163852a12e3916024808201926020929091908290030181600087803b158015611d9757600080fd5b505af1158015611dab573d6000803e3d6000fd5b505050506040513d6020811015611dc157600080fd5b505115610746576040805162461bcd60e51b815260206004820152601760248201527f72656465656d556e6465726c79696e67206661696c6564000000000000000000604482015290519081900360640190fd5b600054610100900460ff1680611e2e5750611e2e61516b565b80611e3c575060005460ff16155b611e775760405162461bcd60e51b815260040180806020018281038252602e8152602001806156c9602e913960400191505060405180910390fd5b600054610100900460ff16158015611ea2576000805460ff1961ff0019909116610100171660011790555b611eaa615171565b611eb382615180565b603480546001600160a01b0319166001600160a01b0384161790558251845114611f0e5760405162461bcd60e51b81526004018080602001828103825260248152602001806155c06024913960400191505060405180910390fd5b835160005b81811015611fa05760006001600160a01b0316858281518110611f3257fe5b60200260200101516001600160a01b031614158015611f775750600e6001600160a01b0316868281518110611f6357fe5b60200260200101516001600160a01b031614155b15611f9857611f98868281518110611f8b57fe5b60200260200101516105d2565b600101611f13565b50508015611fb4576000805461ff00191690555b50505050565b73c04158f7db6f9c9ffbd5593236a1a3d69f92167c81565b603354600160a81b900460ff1690565b3373c04158f7db6f9c9ffbd5593236a1a3d69f92167c14612040576040805162461bcd60e51b8152602060048201526013602482015272155cd95c881b9bdd08185d5d1a1bdc9a5e9959606a1b604482015290519081900360640190fd5b603454604080516302bff52f60e01b81526001600160a01b03928316600482015291831660248301525173__SavingLib_____________________________916302bff52f916044808301926000929190829003018186803b1580156120a557600080fd5b505af41580156120b9573d6000803e3d6000fd5b5050505050565b600e81565b603460009054906101000a90046001600160a01b03166001600160a01b03166376cdb03b6040518163ffffffff1660e01b815260040160206040518083038186803b15801561211357600080fd5b505afa158015612127573d6000803e3d6000fd5b505050506040513d602081101561213d57600080fd5b50516001600160a01b031633146121855760405162461bcd60e51b81526004018080602001828103825260388152602001806157956038913960400191505060405180910390fd5b60345460408051639895880f60e01b815290516000926001600160a01b031691639895880f916004808301926020929190829003018186803b1580156121ca57600080fd5b505afa1580156121de573d6000803e3d6000fd5b505050506040513d60208110156121f457600080fd5b505160408051637e5a4eb960e01b81526001600160a01b03868116600483015291519190921691637e5a4eb9916024808301926020929190829003018186803b15801561224057600080fd5b505afa158015612254573d6000803e3d6000fd5b505050506040513d602081101561226a57600080fd5b5051603454604080516378b88bc760e11b81526001600160a01b03928316600482015291861660248301525191925073__Utils_________________________________9163f171178e91604480820192602092909190829003018186803b1580156122d557600080fd5b505af41580156122e9573d6000803e3d6000fd5b505050506040513d60208110156122ff57600080fd5b50511561235f57806001600160a01b0316631249c58b836040518263ffffffff1660e01b81526004016000604051808303818588803b15801561234157600080fd5b505af1158015612355573d6000803e3d6000fd5b5050505050612411565b806001600160a01b031663a0712d68836040518263ffffffff1660e01b815260040180828152602001915050602060405180830381600087803b1580156123a557600080fd5b505af11580156123b9573d6000803e3d6000fd5b505050506040513d60208110156123cf57600080fd5b505115612411576040805162461bcd60e51b815260206004820152600b60248201526a1b5a5b9d0819985a5b195960aa1b604482015290519081900360640190fd5b505050565b603360019054906101000a90046001600160a01b03166001600160a01b0316638da5cb5b6040518163ffffffff1660e01b815260040160206040518083038186803b15801561246457600080fd5b505afa158015612478573d6000803e3d6000fd5b505050506040513d602081101561248e57600080fd5b50516001600160a01b031633146124d65760405162461bcd60e51b81526004018080602001828103825260308152602001806156576030913960400191505060405180910390fd5b603354600160a81b900460ff1615612528576040805162461bcd60e51b815260206004820152601060248201526f14185d5cd8589b194e881c185d5cd95960821b604482015290519081900360640190fd5b6033805460ff60a81b1916600160a81b179081905560408051638da5cb5b60e01b815290517f62e78cea01bee320cd4e420270b5ea74000d11b0c9f74754ebdbfc544b05a258926001600160a01b036101009091041691638da5cb5b916004808301926020929190829003018186803b158015610dd057600080fd5b6034546001600160a01b031681565b603454604080516378b88bc760e11b81526001600160a01b039283166004820152918416602483015251839173__Utils_________________________________9163f171178e91604480820192602092909190829003018186803b15801561261b57600080fd5b505af415801561262f573d6000803e3d6000fd5b505050506040513d602081101561264557600080fd5b505161278057603460009054906101000a90046001600160a01b03166001600160a01b0316639895880f6040518163ffffffff1660e01b815260040160206040518083038186803b15801561269957600080fd5b505afa1580156126ad573d6000803e3d6000fd5b505050506040513d60208110156126c357600080fd5b505160408051633fc422e560e01b81526001600160a01b03848116600483015291519190921691633fc422e5916024808301926020929190829003018186803b15801561270f57600080fd5b505afa158015612723573d6000803e3d6000fd5b505050506040513d602081101561273957600080fd5b5051612780576040805162461bcd60e51b81526020600482015260116024820152702ab739bab83837b93a32b2103a37b5b2b760791b604482015290519081900360640190fd5b60345460408051639895880f60e01b8152905185926001600160a01b031691639895880f916004808301926020929190829003018186803b1580156127c457600080fd5b505afa1580156127d8573d6000803e3d6000fd5b505050506040513d60208110156127ee57600080fd5b50516040805163748538d960e01b81526001600160a01b0384811660048301529151919092169163748538d9916024808301926020929190829003018186803b15801561283a57600080fd5b505afa15801561284e573d6000803e3d6000fd5b505050506040513d602081101561286457600080fd5b50516128b2576040805162461bcd60e51b8152602060048201526018602482015277151a19481d1bdad95b881a5cc81b9bdd08195b98589b195960421b604482015290519081900360640190fd5b603354600160a81b900460ff1615612904576040805162461bcd60e51b815260206004820152601060248201526f14185d5cd8589b194e881c185d5cd95960821b604482015290519081900360640190fd5b60335460ff16612949576040805162461bcd60e51b815260206004820152601f6024820152600080516020615637833981519152604482015290519081900360640190fd5b6033805460ff19169055603454604080516376cdb03b60e01b815290516001600160a01b03909216916376cdb03b91600480820192602092909190829003018186803b15801561299857600080fd5b505afa1580156129ac573d6000803e3d6000fd5b505050506040513d60208110156129c257600080fd5b50516040805163378d2c3d60e21b81526001600160a01b0387811660048301529151919092169163de34b0f491602480830192600092919082900301818387803b158015612a0f57600080fd5b505af1158015612a23573d6000803e3d6000fd5b505050506000603460009054906101000a90046001600160a01b03166001600160a01b03166368cd03f66040518163ffffffff1660e01b815260040160206040518083038186803b158015612a7757600080fd5b505afa158015612a8b573d6000803e3d6000fd5b505050506040513d6020811015612aa157600080fd5b505160408051636ce5768960e11b81523360048201526001600160a01b038881166024830152604482018890529151919092169163d9caed129160648083019260209291908290030181600087803b158015612afc57600080fd5b505af1158015612b10573d6000803e3d6000fd5b505050506040513d6020811015612b2657600080fd5b50516034546040805163346681fb60e11b815290519293506001600160a01b03909116916368cd03f691600480820192602092909190829003018186803b158015612b7057600080fd5b505afa158015612b84573d6000803e3d6000fd5b505050506040513d6020811015612b9a57600080fd5b505160408051638340f54960e01b81526001600160a01b03898116600483015288811660248301526044820185905291519190921691638340f54991606480830192600092919082900301818387803b158015612bf657600080fd5b505af1158015612c0a573d6000803e3d6000fd5b5050604080513381526001600160a01b038a81166020830152818301869052915191891693507fd1398bee19313d6bf672ccb116e51f4a1a947e91c757907f51fbb5b5e56c698f925081900360600190a250506033805460ff1916600117905550505050565b603454604080516378b88bc760e11b81526001600160a01b039283166004820152918416602483015251839173__Utils_________________________________9163f171178e91604480820192602092909190829003018186803b158015612cd857600080fd5b505af4158015612cec573d6000803e3d6000fd5b505050506040513d6020811015612d0257600080fd5b5051612e3d57603460009054906101000a90046001600160a01b03166001600160a01b0316639895880f6040518163ffffffff1660e01b815260040160206040518083038186803b158015612d5657600080fd5b505afa158015612d6a573d6000803e3d6000fd5b505050506040513d6020811015612d8057600080fd5b505160408051633fc422e560e01b81526001600160a01b03848116600483015291519190921691633fc422e5916024808301926020929190829003018186803b158015612dcc57600080fd5b505afa158015612de0573d6000803e3d6000fd5b505050506040513d6020811015612df657600080fd5b5051612e3d576040805162461bcd60e51b81526020600482015260116024820152702ab739bab83837b93a32b2103a37b5b2b760791b604482015290519081900360640190fd5b603454604080516378b88bc760e11b81526001600160a01b039283166004820152918416602483015251839173__Utils_________________________________9163f171178e91604480820192602092909190829003018186803b158015612ea557600080fd5b505af4158015612eb9573d6000803e3d6000fd5b505050506040513d6020811015612ecf57600080fd5b505161300a57603460009054906101000a90046001600160a01b03166001600160a01b0316639895880f6040518163ffffffff1660e01b815260040160206040518083038186803b158015612f2357600080fd5b505afa158015612f37573d6000803e3d6000fd5b505050506040513d6020811015612f4d57600080fd5b505160408051633fc422e560e01b81526001600160a01b03848116600483015291519190921691633fc422e5916024808301926020929190829003018186803b158015612f9957600080fd5b505afa158015612fad573d6000803e3d6000fd5b505050506040513d6020811015612fc357600080fd5b505161300a576040805162461bcd60e51b81526020600482015260116024820152702ab739bab83837b93a32b2103a37b5b2b760791b604482015290519081900360640190fd5b603354600160a81b900460ff161561305c576040805162461bcd60e51b815260206004820152601060248201526f14185d5cd8589b194e881c185d5cd95960821b604482015290519081900360640190fd5b60335460ff166130a1576040805162461bcd60e51b815260206004820152601f6024820152600080516020615637833981519152604482015290519081900360640190fd5b6033805460ff191690556034546040805163346681fb60e11b815290516001600160a01b03909216916368cd03f691600480820192602092909190829003018186803b1580156130f057600080fd5b505afa158015613104573d6000803e3d6000fd5b505050506040513d602081101561311a57600080fd5b50516040805163be2801b560e01b81526001600160a01b0388811660048301529151919092169163be2801b59160248083019260209291908290030181600087803b15801561316857600080fd5b505af115801561317c573d6000803e3d6000fd5b505050506040513d602081101561319257600080fd5b50516131cf5760405162461bcd60e51b81526004018080602001828103825260218152602001806156876021913960400191505060405180910390fd5b6131d7615550565b603460009054906101000a90046001600160a01b03166001600160a01b03166368cd03f66040518163ffffffff1660e01b815260040160206040518083038186803b15801561322557600080fd5b505afa158015613239573d6000803e3d6000fd5b505050506040513d602081101561324f57600080fd5b505160408051630587e6bd60e51b815233600482015290516001600160a01b039092169163b0fcd7a091602480820192602092909190829003018186803b15801561329957600080fd5b505afa1580156132ad573d6000803e3d6000fd5b505050506040513d60208110156132c357600080fd5b50516020828101919091526034546040805163346681fb60e11b815290516001600160a01b03909216926368cd03f692600480840193829003018186803b15801561330d57600080fd5b505afa158015613321573d6000803e3d6000fd5b505050506040513d602081101561333757600080fd5b50516040805163e21f0b5560e01b815233600482015290516001600160a01b039092169163e21f0b5591602480820192602092909190829003018186803b15801561338157600080fd5b505afa158015613395573d6000803e3d6000fd5b505050506040513d60208110156133ab57600080fd5b50516020820151106133ee5760405162461bcd60e51b81526004018080602001828103825260288152602001806155e46028913960400191505060405180910390fd5b603460009054906101000a90046001600160a01b03166001600160a01b03166368cd03f66040518163ffffffff1660e01b815260040160206040518083038186803b15801561343c57600080fd5b505afa158015613450573d6000803e3d6000fd5b505050506040513d602081101561346657600080fd5b50516040805163b44d253d60e01b81526001600160a01b0388811660048301523360248301529151919092169163b44d253d916044808301926020929190829003018186803b1580156134b857600080fd5b505afa1580156134cc573d6000803e3d6000fd5b505050506040513d60208110156134e257600080fd5b5051604082018190526135265760405162461bcd60e51b815260040180806020018281038252602d8152602001806156f7602d913960400191505060405180910390fd5b603460009054906101000a90046001600160a01b03166001600160a01b03166368cd03f66040518163ffffffff1660e01b815260040160206040518083038186803b15801561357457600080fd5b505afa158015613588573d6000803e3d6000fd5b505050506040513d602081101561359e57600080fd5b50516040805163e94201c760e01b81526001600160a01b03888116600483015289811660248301529151919092169163e94201c7916044808301926020929190829003018186803b1580156135f257600080fd5b505afa158015613606573d6000803e3d6000fd5b505050506040513d602081101561361c57600080fd5b5051606082018190526136605760405162461bcd60e51b81526004018080602001828103825260448152602001806157246044913960600191505060405180910390fd5b600061367d826060015183604001516151af90919063ffffffff16565b9050603460009054906101000a90046001600160a01b03166001600160a01b03166368cd03f66040518163ffffffff1660e01b815260040160206040518083038186803b1580156136cd57600080fd5b505afa1580156136e1573d6000803e3d6000fd5b505050506040513d60208110156136f757600080fd5b50516040805163b44d253d60e01b81526001600160a01b0388811660048301528a811660248301529151919092169163b44d253d916044808301926020929190829003018186803b15801561374b57600080fd5b505afa15801561375f573d6000803e3d6000fd5b505050506040513d602081101561377557600080fd5b505161010083015260345460408051639895880f60e01b815290516001600160a01b0390921691639895880f91600480820192602092909190829003018186803b1580156137c257600080fd5b505afa1580156137d6573d6000803e3d6000fd5b505050506040513d60208110156137ec57600080fd5b505160408051636e9ecb0f60e11b81526001600160a01b0388811660048301529151919092169163dd3d961e916024808301926020929190829003018186803b15801561383857600080fd5b505afa15801561384c573d6000803e3d6000fd5b505050506040513d602081101561386257600080fd5b505161012083015260345460408051639895880f60e01b815290516000926001600160a01b031691639895880f916004808301926020929190829003018186803b1580156138af57600080fd5b505afa1580156138c3573d6000803e3d6000fd5b505050506040513d60208110156138d957600080fd5b505160408051633c2e3e7b60e11b81526001600160a01b038a811660048301529151919092169163785c7cf6916024808301926020929190829003018186803b15801561392557600080fd5b505afa158015613939573d6000803e3d6000fd5b505050506040513d602081101561394f57600080fd5b505160345460408051639895880f60e01b8152905160ff909316600a0a93506000926001600160a01b0390921691639895880f91600480820192602092909190829003018186803b1580156139a357600080fd5b505afa1580156139b7573d6000803e3d6000fd5b505050506040513d60208110156139cd57600080fd5b505160408051633c2e3e7b60e11b81526001600160a01b038a811660048301529151919092169163785c7cf6916024808301926020929190829003018186803b158015613a1957600080fd5b505afa158015613a2d573d6000803e3d6000fd5b505050506040513d6020811015613a4357600080fd5b50516034546040805163346681fb60e11b8152905160ff909316600a0a93506001600160a01b03909116916368cd03f691600480820192602092909190829003018186803b158015613a9457600080fd5b505afa158015613aa8573d6000803e3d6000fd5b505050506040513d6020811015613abe57600080fd5b505160408051630587e6bd60e51b81526001600160a01b038c811660048301529151919092169163b0fcd7a0916024808301926020929190829003018186803b158015613b0a57600080fd5b505afa158015613b1e573d6000803e3d6000fd5b505050506040513d6020811015613b3457600080fd5b505160c08501526034546040805163346681fb60e11b815290516001600160a01b03909216916368cd03f691600480820192602092909190829003018186803b158015613b8057600080fd5b505afa158015613b94573d6000803e3d6000fd5b505050506040513d6020811015613baa57600080fd5b50516040805163e21f0b5560e01b81526001600160a01b038c811660048301529151919092169163e21f0b55916024808301926020929190829003018186803b158015613bf657600080fd5b505afa158015613c0a573d6000803e3d6000fd5b505050506040513d6020811015613c2057600080fd5b505160e085015260345460408051634802b7c160e01b815290516001600160a01b0390921691634802b7c191600480820192602092909190829003018186803b158015613c6c57600080fd5b505afa158015613c80573d6000803e3d6000fd5b505050506040513d6020811015613c9657600080fd5b505160a085015260345460408051639895880f60e01b815290516001600160a01b0390921691639895880f91600480820192602092909190829003018186803b158015613ce257600080fd5b505afa158015613cf6573d6000803e3d6000fd5b505050506040513d6020811015613d0c57600080fd5b505160408051632418cd4960e21b81526001600160a01b038b81166004830152915191909216916390633524916024808301926020929190829003018186803b158015613d5857600080fd5b505afa158015613d6c573d6000803e3d6000fd5b505050506040513d6020811015613d8257600080fd5b5051610160850181905260a0850151613ddd91613da5919063ffffffff6150ce16565b613dd16064613dc58860e001518960c001516150ce90919063ffffffff16565b9063ffffffff6151c516565b9063ffffffff61521e16565b610140850152610120840151610100850151600091613e1d91613e0b918591613dd19163ffffffff6151c516565b6101408701519063ffffffff6151af16565b9050603460009054906101000a90046001600160a01b03166001600160a01b0316639895880f6040518163ffffffff1660e01b815260040160206040518083038186803b158015613e6d57600080fd5b505afa158015613e81573d6000803e3d6000fd5b505050506040513d6020811015613e9757600080fd5b505160408051636e9ecb0f60e11b81526001600160a01b038c811660048301529151919092169163dd3d961e916024808301926020929190829003018186803b158015613ee357600080fd5b505afa158015613ef7573d6000803e3d6000fd5b505050506040513d6020811015613f0d57600080fd5b50516080860181905260a0860151600091613f4f91613f4291613dd19088908290606490613dc5908d9063ffffffff6151c516565b839063ffffffff6151af16565b9050613f798660800151613dd16064613dd188613dc58c60a00151886151c590919063ffffffff16565b61018087018190526080870151613f9f91613dc59060649082908863ffffffff6151c516565b6101a0870181905261012087015160a0880151613fc992613dd1919082908963ffffffff61521e16565b6101a08701526034546040805163346681fb60e11b815290516001600160a01b03909216916368cd03f691600480820192602092909190829003018186803b15801561401457600080fd5b505afa158015614028573d6000803e3d6000fd5b505050506040513d602081101561403e57600080fd5b50516101a087015160408051638340f54960e01b81523360048201526001600160a01b038d81166024830152604482019390935290519190921691638340f54991606480830192600092919082900301818387803b15801561409f57600080fd5b505af11580156140b3573d6000803e3d6000fd5b50505050603460009054906101000a90046001600160a01b03166001600160a01b03166368cd03f66040518163ffffffff1660e01b815260040160206040518083038186803b15801561410557600080fd5b505afa158015614119573d6000803e3d6000fd5b505050506040513d602081101561412f57600080fd5b505161018087015160408051636ce5768960e11b81523360048201526001600160a01b038e8116602483015260448201939093529051919092169163d9caed129160648083019260209291908290030181600087803b15801561419157600080fd5b505af11580156141a5573d6000803e3d6000fd5b505050506040513d60208110156141bb57600080fd5b50506034546040805163346681fb60e11b815290516001600160a01b03909216916368cd03f691600480820192602092909190829003018186803b15801561420257600080fd5b505afa158015614216573d6000803e3d6000fd5b505050506040513d602081101561422c57600080fd5b50516101a087015160408051636ce5768960e11b81526001600160a01b038f811660048301528d8116602483015260448201939093529051919092169163d9caed129160648083019260209291908290030181600087803b15801561429057600080fd5b505af11580156142a4573d6000803e3d6000fd5b505050506040513d60208110156142ba57600080fd5b50506034546040805163346681fb60e11b815290516001600160a01b03909216916368cd03f691600480820192602092909190829003018186803b15801561430157600080fd5b505afa158015614315573d6000803e3d6000fd5b505050506040513d602081101561432b57600080fd5b505161018087015160408051631da649cf60e01b81526001600160a01b038f811660048301528e81166024830152604482019390935290519190921691631da649cf9160648083019260209291908290030181600087803b15801561438f57600080fd5b505af11580156143a3573d6000803e3d6000fd5b505050506040513d60208110156143b957600080fd5b50506033805460ff191660011790555050505050505050505050565b6220148081565b670de0b6b3a764000081565b603454604080516378b88bc760e11b81526001600160a01b039283166004820152918416602483015251839173__Utils_________________________________9163f171178e91604480820192602092909190829003018186803b15801561445057600080fd5b505af4158015614464573d6000803e3d6000fd5b505050506040513d602081101561447a57600080fd5b50516145b557603460009054906101000a90046001600160a01b03166001600160a01b0316639895880f6040518163ffffffff1660e01b815260040160206040518083038186803b1580156144ce57600080fd5b505afa1580156144e2573d6000803e3d6000fd5b505050506040513d60208110156144f857600080fd5b505160408051633fc422e560e01b81526001600160a01b03848116600483015291519190921691633fc422e5916024808301926020929190829003018186803b15801561454457600080fd5b505afa158015614558573d6000803e3d6000fd5b505050506040513d602081101561456e57600080fd5b50516145b5576040805162461bcd60e51b81526020600482015260116024820152702ab739bab83837b93a32b2103a37b5b2b760791b604482015290519081900360640190fd5b603354600160a81b900460ff1615614607576040805162461bcd60e51b815260206004820152601060248201526f14185d5cd8589b194e881c185d5cd95960821b604482015290519081900360640190fd5b60335460ff1661464c576040805162461bcd60e51b815260206004820152601f6024820152600080516020615637833981519152604482015290519081900360640190fd5b6033805460ff1916905581614699576040805162461bcd60e51b815260206004820152600e60248201526d416d6f756e74206973207a65726f60901b604482015290519081900360640190fd5b603454604080516376cdb03b60e01b815290516000926001600160a01b0316916376cdb03b916004808301926020929190829003018186803b1580156146de57600080fd5b505afa1580156146f2573d6000803e3d6000fd5b505050506040513d602081101561470857600080fd5b505160408051636ce5768960e11b81523360048201526001600160a01b038781166024830152604482018790529151919092169163d9caed129160648083019260209291908290030181600087803b15801561476357600080fd5b505af1158015614777573d6000803e3d6000fd5b505050506040513d602081101561478d57600080fd5b505160345460408051633b4571a160e01b81526001600160a01b0392831660048201526024810184905291871660448301525191925073__SavingLib_____________________________91633b4571a191606480820192600092909190829003018186803b1580156147ff57600080fd5b505af4158015614813573d6000803e3d6000fd5b5050604080513381526020810185905281516001600160a01b03891694507f9b1bfa7fa9ee420a16e124f794c35ac9f90472acc99140eb2f6447c714cad8eb93509081900390910190a250506033805460ff191660011790555050565b603454604080516378b88bc760e11b81526001600160a01b039283166004820152918316602483015251829173__Utils_________________________________9163f171178e91604480820192602092909190829003018186803b1580156148d857600080fd5b505af41580156148ec573d6000803e3d6000fd5b505050506040513d602081101561490257600080fd5b5051614a3d57603460009054906101000a90046001600160a01b03166001600160a01b0316639895880f6040518163ffffffff1660e01b815260040160206040518083038186803b15801561495657600080fd5b505afa15801561496a573d6000803e3d6000fd5b505050506040513d602081101561498057600080fd5b505160408051633fc422e560e01b81526001600160a01b03848116600483015291519190921691633fc422e5916024808301926020929190829003018186803b1580156149cc57600080fd5b505afa1580156149e0573d6000803e3d6000fd5b505050506040513d60208110156149f657600080fd5b5051614a3d576040805162461bcd60e51b81526020600482015260116024820152702ab739bab83837b93a32b2103a37b5b2b760791b604482015290519081900360640190fd5b603354600160a81b900460ff1615614a8f576040805162461bcd60e51b815260206004820152601060248201526f14185d5cd8589b194e881c185d5cd95960821b604482015290519081900360640190fd5b60335460ff16614ad4576040805162461bcd60e51b815260206004820152601f6024820152600080516020615637833981519152604482015290519081900360640190fd5b6033805460ff191690556034546040805163346681fb60e11b815290516000926001600160a01b0316916368cd03f6916004808301926020929190829003018186803b158015614b2357600080fd5b505afa158015614b37573d6000803e3d6000fd5b505050506040513d6020811015614b4d57600080fd5b50516040805163fa78d59f60e01b81523360048201526001600160a01b0386811660248301529151919092169163fa78d59f916044808301926020929190829003018186803b158015614b9f57600080fd5b505afa158015614bb3573d6000803e3d6000fd5b505050506040513d6020811015614bc957600080fd5b505111614c075760405162461bcd60e51b815260040180806020018281038252602d815260200180615768602d913960400191505060405180910390fd5b603460009054906101000a90046001600160a01b03166001600160a01b03166376cdb03b6040518163ffffffff1660e01b815260040160206040518083038186803b158015614c5557600080fd5b505afa158015614c69573d6000803e3d6000fd5b505050506040513d6020811015614c7f57600080fd5b50516040805163378d2c3d60e21b81526001600160a01b0385811660048301529151919092169163de34b0f491602480830192600092919082900301818387803b158015614ccc57600080fd5b505af1158015614ce0573d6000803e3d6000fd5b505050506000603460009054906101000a90046001600160a01b03166001600160a01b03166368cd03f66040518163ffffffff1660e01b815260040160206040518083038186803b158015614d3457600080fd5b505afa158015614d48573d6000803e3d6000fd5b505050506040513d6020811015614d5e57600080fd5b50516040805163b44d253d60e01b81526001600160a01b0386811660048301523360248301529151919092169163b44d253d916044808301926020929190829003018186803b158015614db057600080fd5b505afa158015614dc4573d6000803e3d6000fd5b505050506040513d6020811015614dda57600080fd5b5051603454604080516376cdb03b60e01b815290519293506000926001600160a01b03909216916376cdb03b91600480820192602092909190829003018186803b158015614e2757600080fd5b505afa158015614e3b573d6000803e3d6000fd5b505050506040513d6020811015614e5157600080fd5b505160408051636ce5768960e11b81523360048201526001600160a01b038781166024830152604482018690529151919092169163d9caed129160648083019260209291908290030181600087803b158015614eac57600080fd5b505af1158015614ec0573d6000803e3d6000fd5b505050506040513d6020811015614ed657600080fd5b505190508015614f655760345460408051633b4571a160e01b81526001600160a01b0392831660048201526024810184905291861660448301525173__SavingLib_____________________________91633b4571a1916064808301926000929190829003018186803b158015614f4c57600080fd5b505af4158015614f60573d6000803e3d6000fd5b505050505b604080513381526020810183905281516001600160a01b038716927f858f8be6acc95d7ac4177f157cb7c92a1d922bd948b968ce21df5b7b26a10a95928290030190a250506033805460ff191660011790555050565b801580615041575060408051636eb1769f60e11b81523060048201526001600160a01b03848116602483015291519185169163dd62ed3e91604480820192602092909190829003018186803b15801561501357600080fd5b505afa158015615027573d6000803e3d6000fd5b505050506040513d602081101561503d57600080fd5b5051155b61507c5760405162461bcd60e51b81526004018080602001828103825260368152602001806157f76036913960400191505060405180910390fd5b604080516001600160a01b038416602482015260448082018490528251808303909101815260649091019091526020810180516001600160e01b031663095ea7b360e01b179052612411908490615260565b600061511083836040518060400160405280601e81526020017f536166654d6174683a207375627472616374696f6e206f766572666c6f770000815250615418565b90505b92915050565b604080516001600160a01b038416602482015260448082018490528251808303909101815260649091019091526020810180516001600160e01b031663a9059cbb60e01b179052612411908490615260565b303b1590565b6033805460ff19166001179055565b6033805460ff60a81b196001600160a01b0390931661010002610100600160a81b031990911617919091169055565b60008183106151be5781615110565b5090919050565b6000826151d457506000615113565b828202828482816151e157fe5b04146151105760405162461bcd60e51b81526004018080602001828103825260218152602001806156a86021913960400191505060405180910390fd5b600061511083836040518060400160405280601a81526020017f536166654d6174683a206469766973696f6e206279207a65726f0000000000008152506154af565b615272826001600160a01b0316615514565b6152c3576040805162461bcd60e51b815260206004820152601f60248201527f5361666545524332303a2063616c6c20746f206e6f6e2d636f6e747261637400604482015290519081900360640190fd5b60006060836001600160a01b0316836040518082805190602001908083835b602083106153015780518252601f1990920191602091820191016152e2565b6001836020036101000a0380198251168184511680821785525050505050509050019150506000604051808303816000865af19150503d8060008114615363576040519150601f19603f3d011682016040523d82523d6000602084013e615368565b606091505b5091509150816153bf576040805162461bcd60e51b815260206004820181905260248201527f5361666545524332303a206c6f772d6c6576656c2063616c6c206661696c6564604482015290519081900360640190fd5b805115611fb4578080602001905160208110156153db57600080fd5b5051611fb45760405162461bcd60e51b815260040180806020018281038252602a8152602001806157cd602a913960400191505060405180910390fd5b600081848411156154a75760405162461bcd60e51b81526004018080602001828103825283818151815260200191508051906020019080838360005b8381101561546c578181015183820152602001615454565b50505050905090810190601f1680156154995780820380516001836020036101000a031916815260200191505b509250505060405180910390fd5b505050900390565b600081836154fe5760405162461bcd60e51b815260206004820181815283516024840152835190928392604490910191908501908083836000831561546c578181015183820152602001615454565b50600083858161550a57fe5b0495945050505050565b6000813f7fc5d2460186f7233c927e7db2dcc703c0e500b653ca82273b7bfad8045d85a47081811480159061554857508115155b949350505050565b604051806101c001604052806000815260200160008152602001600081526020016000815260200160008152602001600081526020016000815260200160008152602001600081526020016000815260200160008152602001600081526020016000815260200160008152509056fe546f6b656e20616e642063546f6b656e206c656e67746820646f6e2774206d617463682e4e6f2065787472612066756e647320617265207573656420666f72206c69717569646174696f6e2e426f72726f77207a65726f20616d6f756e74206f6620746f6b656e206973206e6f7420616c6c6f7765642e5265656e7472616e637947756172643a207265656e7472616e742063616c6c00506175736572526f6c653a2063616c6c657220646f6573206e6f742068617665207468652050617573657220726f6c6554686520626f72726f776572206973206e6f74206c6971756964617461626c652e536166654d6174683a206d756c7469706c69636174696f6e206f766572666c6f77436f6e747261637420696e7374616e63652068617320616c7265616479206265656e20696e697469616c697a6564546865206163636f756e7420616d6f756e74206d7573742062652067726561746572207468616e207a65726f2e54686520626f72726f77657220646f65736e2774206f776e20616e79206465627420746f6b656e2073706563696669656420627920746865206c697175696461746f722e546f6b656e206465706f7369745072696e636970616c206d7573742062652067726561746572207468616e20304f6e6c7920617574686f72697a656420746f2063616c6c2066726f6d20446546696e657220696e7465726e616c20636f6e7472616374732e5361666545524332303a204552433230206f7065726174696f6e20646964206e6f7420737563636565645361666545524332303a20617070726f76652066726f6d206e6f6e2d7a65726f20746f206e6f6e2d7a65726f20616c6c6f77616e6365a265627a7a7231582070fd6ed8d932c553d42838b4d293dffdfd5df7a0cedf9bfe6be5c1e7909d4bb064736f6c634300050e0032",
  "source": "pragma solidity 0.5.14;\n\nimport \"openzeppelin-solidity/contracts/token/ERC20/SafeERC20.sol\";\nimport \"./config/Constant.sol\";\nimport \"./config/GlobalConfig.sol\";\nimport \"./lib/SavingLib.sol\";\nimport \"./lib/Utils.sol\";\nimport \"@openzeppelin/upgrades/contracts/Initializable.sol\";\nimport \"./InitializableReentrancyGuard.sol\";\nimport \"./InitializablePausable.sol\";\nimport { ICToken } from \"./compound/ICompound.sol\";\nimport { ICETH } from \"./compound/ICompound.sol\";\nimport \"openzeppelin-solidity/contracts/math/Math.sol\";\n// import \"@nomiclabs/buidler/console.sol\";\n\ncontract SavingAccount is Initializable, InitializableReentrancyGuard, Constant, InitializablePausable {\n    using SafeERC20 for IERC20;\n    using SafeMath for uint256;\n    using Math for uint256;\n\n    GlobalConfig public globalConfig;\n\n    // Following are the constants, initialized via upgradable proxy contract\n    // This is emergency address to allow withdrawal of funds from the contract\n\n    event Transfer(address indexed token, address from, address to, uint256 amount);\n    event Borrow(address indexed token, address from, uint256 amount);\n    event Repay(address indexed token, address from, uint256 amount);\n    event Deposit(address indexed token, address from, uint256 amount);\n    event Withdraw(address indexed token, address from, uint256 amount);\n    event WithdrawAll(address indexed token, address from, uint256 amount);\n    event Claim(address from, uint256 amount);\n\n    modifier onlyEmergencyAddress() {\n        require(msg.sender ==  EMERGENCY_ADDR, \"User not authorized\");\n        _;\n    }\n\n    modifier onlySupportedToken(address _token) {\n        if(!Utils._isETH(address(globalConfig), _token)) {\n            require(globalConfig.tokenInfoRegistry().isTokenExist(_token), \"Unsupported token\");\n        }\n        _;\n    }\n\n    modifier onlyEnabledToken(address _token) {\n        require(globalConfig.tokenInfoRegistry().isTokenEnabled(_token), \"The token is not enabled\");\n        _;\n    }\n\n    modifier onlyAuthorized() {\n        require(msg.sender == address(globalConfig.bank()),\n            \"Only authorized to call from DeFiner internal contracts.\");\n        _;\n    }\n\n    constructor() public {\n        // THIS SHOULD BE EMPTY FOR UPGRADABLE CONTRACTS\n        // console.log(\"Start to construct\", msg.sender);\n    }\n\n    /**\n     * Initialize function to be called by the Deployer for the first time\n     * @param _tokenAddresses list of token addresses\n     * @param _cTokenAddresses list of corresponding cToken addresses\n     * @param _globalConfig global configuration contract\n     */\n    function initialize(\n        address[] memory _tokenAddresses,\n        address[] memory _cTokenAddresses,\n        GlobalConfig _globalConfig\n    )\n        public\n        initializer\n    {\n        // Initialize InitializableReentrancyGuard\n        super._initialize();\n        super._initialize(address(_globalConfig));\n\n        globalConfig = _globalConfig;\n\n        require(_tokenAddresses.length == _cTokenAddresses.length, \"Token and cToken length don't match.\");\n        uint tokenNum = _tokenAddresses.length;\n        for(uint i = 0;i < tokenNum;i++) {\n            if(_cTokenAddresses[i] != address(0x0) && _tokenAddresses[i] != ETH_ADDR) {\n                approveAll(_tokenAddresses[i]);\n            }\n        }\n    }\n\n    /**\n     * Approve transfer of all available tokens\n     * @param _token token address\n     */\n    function approveAll(address _token) public {\n        address cToken = globalConfig.tokenInfoRegistry().getCToken(_token);\n        require(cToken != address(0x0), \"cToken address is zero\");\n        IERC20(_token).safeApprove(cToken, 0);\n        IERC20(_token).safeApprove(cToken, uint256(-1));\n    }\n\n    /**\n     * Get current block number\n     * @return the current block number\n     */\n    function getBlockNumber() internal view returns (uint) {\n        return block.number;\n    }\n\n    /**\n     * Transfer the token between users inside DeFiner\n     * @param _to the address that the token be transfered to\n     * @param _token token address\n     * @param _amount amout of tokens transfer\n     */\n    function transfer(address _to, address _token, uint _amount) external onlySupportedToken(_token) onlyEnabledToken(_token) whenNotPaused nonReentrant {\n\n        globalConfig.bank().newRateIndexCheckpoint(_token);\n        uint256 amount = globalConfig.accounts().withdraw(msg.sender, _token, _amount);\n        globalConfig.accounts().deposit(_to, _token, amount);\n\n        emit Transfer(_token, msg.sender, _to, amount);\n    }\n\n    /**\n     * Borrow the amount of token from the saving pool.\n     * @param _token token address\n     * @param _amount amout of tokens to borrow\n     */\n    function borrow(address _token, uint256 _amount) external onlySupportedToken(_token) onlyEnabledToken(_token) whenNotPaused nonReentrant {\n\n        require(_amount != 0, \"Borrow zero amount of token is not allowed.\");\n\n        globalConfig.bank().borrow(msg.sender, _token, _amount);\n\n        // Transfer the token on Ethereum\n        SavingLib.send(globalConfig, _amount, _token);\n\n        emit Borrow(_token, msg.sender, _amount);\n    }\n\n    /**\n     * Repay the amount of token back to the saving pool.\n     * @param _token token address\n     * @param _amount amout of tokens to borrow\n     * @dev If the repay amount is larger than the borrowed balance, the extra will be returned.\n     */\n    function repay(address _token, uint256 _amount) public payable onlySupportedToken(_token) nonReentrant {\n        require(_amount != 0, \"Amount is zero\");\n        SavingLib.receive(globalConfig, _amount, _token);\n\n        // Add a new checkpoint on the index curve.\n        uint256 amount = globalConfig.bank().repay(msg.sender, _token, _amount);\n\n        // Send the remain money back\n        if(amount < _amount) {\n            SavingLib.send(globalConfig, _amount.sub(amount), _token);\n        }\n\n        emit Repay(_token, msg.sender, amount);\n    }\n\n    /**\n     * Deposit the amount of token to the saving pool.\n     * @param _token the address of the deposited token\n     * @param _amount the mount of the deposited token\n     */\n    function deposit(address _token, uint256 _amount) public payable onlySupportedToken(_token) onlyEnabledToken(_token) nonReentrant {\n        require(_amount != 0, \"Amount is zero\");\n        SavingLib.receive(globalConfig, _amount, _token);\n        globalConfig.bank().deposit(msg.sender, _token, _amount);\n\n        emit Deposit(_token, msg.sender, _amount);\n    }\n\n    /**\n     * Withdraw a token from an address\n     * @param _token token address\n     * @param _amount amount to be withdrawn\n     */\n    function withdraw(address _token, uint256 _amount) external onlySupportedToken(_token) whenNotPaused nonReentrant {\n        require(_amount != 0, \"Amount is zero\");\n        uint256 amount = globalConfig.bank().withdraw(msg.sender, _token, _amount);\n        SavingLib.send(globalConfig, amount, _token);\n\n        emit Withdraw(_token, msg.sender, amount);\n    }\n\n    /**\n     * Withdraw all tokens from the saving pool.\n     * @param _token the address of the withdrawn token\n     */\n    function withdrawAll(address _token) external onlySupportedToken(_token) whenNotPaused nonReentrant {\n\n        // Sanity check\n        require(globalConfig.accounts().getDepositPrincipal(msg.sender, _token) > 0, \"Token depositPrincipal must be greater than 0\");\n\n        // Add a new checkpoint on the index curve.\n        globalConfig.bank().newRateIndexCheckpoint(_token);\n\n        // Get the total amount of token for the account\n        uint amount = globalConfig.accounts().getDepositBalanceCurrent(_token, msg.sender);\n\n        uint256 actualAmount = globalConfig.bank().withdraw(msg.sender, _token, amount);\n        if(actualAmount != 0) {\n            SavingLib.send(globalConfig, actualAmount, _token);\n        }\n        emit WithdrawAll(_token, msg.sender, actualAmount);\n    }\n\n    struct LiquidationVars {\n        // address token;\n        // uint256 tokenPrice;\n        // uint256 coinValue;\n        uint256 borrowerCollateralValue;\n        // uint256 tokenAmount;\n        // uint256 tokenDivisor;\n        uint256 msgTotalBorrow;\n        uint256 targetTokenBalance;\n        uint256 targetTokenBalanceBorrowed;\n        uint256 targetTokenPrice;\n        uint256 liquidationDiscountRatio;\n        uint256 totalBorrow;\n        uint256 borrowPower;\n        uint256 liquidateTokenBalance;\n        uint256 liquidateTokenPrice;\n        // uint256 liquidateTokenValue;\n        uint256 limitRepaymentValue;\n        uint256 borrowTokenLTV;\n        uint256 repayAmount;\n        uint256 payAmount;\n    }\n\n    function liquidate(address _borrower, address _borrowedToken, address _collateralToken) public onlySupportedToken(_borrowedToken) onlySupportedToken(_collateralToken) whenNotPaused nonReentrant {\n\n        require(globalConfig.accounts().isAccountLiquidatable(_borrower), \"The borrower is not liquidatable.\");\n        LiquidationVars memory vars;\n\n        // It is required that the liquidator doesn't exceed it's borrow power.\n        vars.msgTotalBorrow = globalConfig.accounts().getBorrowETH(msg.sender);\n        require(\n            vars.msgTotalBorrow < globalConfig.accounts().getBorrowPower(msg.sender),\n            \"No extra funds are used for liquidation.\"\n        );\n\n        // _borrowedToken balance of the liquidator (deposit balance)\n        vars.targetTokenBalance = globalConfig.accounts().getDepositBalanceCurrent(_borrowedToken, msg.sender);\n        require(vars.targetTokenBalance > 0, \"The account amount must be greater than zero.\");\n\n        // _borrowedToken balance of the borrower (borrow balance)\n        vars.targetTokenBalanceBorrowed = globalConfig.accounts().getBorrowBalanceCurrent(_borrowedToken, _borrower);\n        require(vars.targetTokenBalanceBorrowed > 0, \"The borrower doesn't own any debt token specified by the liquidator.\");\n\n        // _borrowedToken available for liquidation\n        uint256 borrowedTokenAmountForLiquidation = vars.targetTokenBalance.min(vars.targetTokenBalanceBorrowed);\n\n        // _collateralToken balance of the borrower (deposit balance)\n        vars.liquidateTokenBalance = globalConfig.accounts().getDepositBalanceCurrent(_collateralToken, _borrower);\n        vars.liquidateTokenPrice = globalConfig.tokenInfoRegistry().priceFromAddress(_collateralToken);\n\n        uint divisor = 10 ** uint256(globalConfig.tokenInfoRegistry().getTokenDecimals(_borrowedToken));\n        uint liquidateTokendivisor = 10 ** uint256(globalConfig.tokenInfoRegistry().getTokenDecimals(_collateralToken));\n\n        // _collateralToken to purchase so that borrower's balance matches its borrow power\n        vars.totalBorrow = globalConfig.accounts().getBorrowETH(_borrower);\n        vars.borrowPower = globalConfig.accounts().getBorrowPower(_borrower);\n        vars.liquidationDiscountRatio = globalConfig.liquidationDiscountRatio();\n        vars.borrowTokenLTV = globalConfig.tokenInfoRegistry().getBorrowLTV(_borrowedToken);\n        vars.limitRepaymentValue = vars.totalBorrow.sub(vars.borrowPower).mul(100).div(vars.liquidationDiscountRatio.sub(vars.borrowTokenLTV));\n\n        uint256 collateralTokenValueForLiquidation = vars.limitRepaymentValue.min(vars.liquidateTokenBalance.mul(vars.liquidateTokenPrice).div(liquidateTokendivisor));\n\n        vars.targetTokenPrice = globalConfig.tokenInfoRegistry().priceFromAddress(_borrowedToken);\n        uint256 liquidationValue = collateralTokenValueForLiquidation.min(borrowedTokenAmountForLiquidation.mul(vars.targetTokenPrice).mul(100).div(divisor).div(vars.liquidationDiscountRatio));\n\n        vars.repayAmount = liquidationValue.mul(vars.liquidationDiscountRatio).mul(divisor).div(100).div(vars.targetTokenPrice);\n        vars.payAmount = vars.repayAmount.mul(liquidateTokendivisor).mul(100).mul(vars.targetTokenPrice);\n        vars.payAmount = vars.payAmount.div(divisor).div(vars.liquidationDiscountRatio).div(vars.liquidateTokenPrice);\n\n        globalConfig.accounts().deposit(msg.sender, _collateralToken, vars.payAmount);\n        globalConfig.accounts().withdraw(msg.sender, _borrowedToken, vars.repayAmount);\n        globalConfig.accounts().withdraw(_borrower, _collateralToken, vars.payAmount);\n        globalConfig.accounts().repay(_borrower, _borrowedToken, vars.repayAmount);\n    }\n\n    /**\n     * Withdraw token from Compound\n     * @param _token token address\n     * @param _amount amount of token\n     */\n    function fromCompound(address _token, uint _amount) external onlyAuthorized {\n        require(ICToken(globalConfig.tokenInfoRegistry().getCToken(_token)).redeemUnderlying(_amount) == 0, \"redeemUnderlying failed\");\n    }\n\n    function toCompound(address _token, uint _amount) external onlyAuthorized {\n        address cToken = globalConfig.tokenInfoRegistry().getCToken(_token);\n        if (Utils._isETH(address(globalConfig), _token)) {\n            ICETH(cToken).mint.value(_amount)();\n        } else {\n            // uint256 success = ICToken(cToken).mint(_amount);\n            require(ICToken(cToken).mint(_amount) == 0, \"mint failed\");\n        }\n    }\n\n    function() external payable{}\n\n    function emergencyWithdraw(address _token) external onlyEmergencyAddress {\n        SavingLib.emergencyWithdraw(globalConfig, _token);\n    }\n\n    /**\n     * An account claim all mined FIN token\n     */\n    function claim() public nonReentrant {\n        uint FINAmount = globalConfig.accounts().claim(msg.sender);\n        IERC20(globalConfig.tokenInfoRegistry().addressFromIndex(11)).safeTransfer(msg.sender, FINAmount);\n\n        emit Claim(msg.sender, FINAmount);\n    }\n}\n",
  "sourcePath": "/Users/yanyichun/project/Savings/contracts/SavingAccount.sol",
  "compiler": {
    "name": "solc",
    "version": "0.5.14+commit.01f1aaa4.Emscripten.clang"
  },
  "schemaVersion": "3.2.3",
  "updatedAt": "2021-02-25T05:30:05.888Z",
  "devdoc": {
    "methods": {
      "approveAll(address)": {
        "params": {
          "_token": "token address"
        }
      },
      "borrow(address,uint256)": {
        "params": {
          "_amount": "amout of tokens to borrow",
          "_token": "token address"
        }
      },
      "deposit(address,uint256)": {
        "params": {
          "_amount": "the mount of the deposited token",
          "_token": "the address of the deposited token"
        }
      },
      "fromCompound(address,uint256)": {
        "params": {
          "_amount": "amount of token",
          "_token": "token address"
        }
      },
      "initialize(address[],address[],address)": {
        "params": {
          "_cTokenAddresses": "list of corresponding cToken addresses",
          "_globalConfig": "global configuration contract",
          "_tokenAddresses": "list of token addresses"
        }
      },
      "pause()": {
        "details": "Called by a pauser to pause, triggers stopped state."
      },
      "paused()": {
        "details": "Returns true if the contract is paused, and false otherwise."
      },
      "repay(address,uint256)": {
        "details": "If the repay amount is larger than the borrowed balance, the extra will be returned.",
        "params": {
          "_amount": "amout of tokens to borrow",
          "_token": "token address"
        }
      },
      "transfer(address,address,uint256)": {
        "params": {
          "_amount": "amout of tokens transfer",
          "_to": "the address that the token be transfered to",
          "_token": "token address"
        }
      },
      "unpause()": {
        "details": "Called by a pauser to unpause, returns to normal state."
      },
      "withdraw(address,uint256)": {
        "params": {
          "_amount": "amount to be withdrawn",
          "_token": "token address"
        }
      },
      "withdrawAll(address)": {
        "params": {
          "_token": "the address of the withdrawn token"
        }
      }
    }
  },
  "userdoc": {
    "methods": {
      "approveAll(address)": {
        "notice": "Approve transfer of all available tokens"
      },
      "borrow(address,uint256)": {
        "notice": "Borrow the amount of token from the saving pool."
      },
      "claim()": {
        "notice": "An account claim all mined FIN token"
      },
      "deposit(address,uint256)": {
        "notice": "Deposit the amount of token to the saving pool."
      },
      "fromCompound(address,uint256)": {
        "notice": "Withdraw token from Compound"
      },
      "initialize(address[],address[],address)": {
        "notice": "Initialize function to be called by the Deployer for the first time"
      },
      "repay(address,uint256)": {
        "notice": "Repay the amount of token back to the saving pool."
      },
      "transfer(address,address,uint256)": {
        "notice": "Transfer the token between users inside DeFiner"
      },
      "withdraw(address,uint256)": {
        "notice": "Withdraw a token from an address"
      },
      "withdrawAll(address)": {
        "notice": "Withdraw all tokens from the saving pool."
      }
    }
  }
}