{
  "contractName": "Structs",
  "abi": [
    {
      "constant": true,
      "inputs": [
        {
          "internalType": "uint256",
          "name": "",
          "type": "uint256"
        }
      ],
      "name": "outers",
      "outputs": [
        {
          "internalType": "uint256",
          "name": "sentinel",
          "type": "uint256"
        }
      ],
      "payable": false,
      "stateMutability": "view",
      "type": "function"
    },
    {
      "constant": false,
      "inputs": [
        {
          "internalType": "uint256",
          "name": "id",
          "type": "uint256"
        },
        {
          "internalType": "uint16",
          "name": "a",
          "type": "uint16"
        },
        {
          "internalType": "uint16",
          "name": "b",
          "type": "uint16"
        },
        {
          "internalType": "uint96",
          "name": "c",
          "type": "uint96"
        }
      ],
      "name": "writeEach",
      "outputs": [],
      "payable": false,
      "stateMutability": "nonpayable",
      "type": "function"
    },
    {
      "constant": false,
      "inputs": [
        {
          "internalType": "uint256",
          "name": "id",
          "type": "uint256"
        },
        {
          "internalType": "uint16",
          "name": "a",
          "type": "uint16"
        },
        {
          "internalType": "uint16",
          "name": "b",
          "type": "uint16"
        },
        {
          "internalType": "uint96",
          "name": "c",
          "type": "uint96"
        }
      ],
      "name": "writeOnce",
      "outputs": [],
      "payable": false,
      "stateMutability": "nonpayable",
      "type": "function"
    }
  ],
  "bytecode": "0x608060405234801561001057600080fd5b50610322806100206000396000f3fe608060405234801561001057600080fd5b50600436106100415760003560e01c80637e31c374146100465780639440ce0c1461006f578063d26f269f14610084575b600080fd5b6100596100543660046101fc565b610097565b6040516100669190610292565b60405180910390f35b61008261007d366004610222565b6100a9565b005b610082610092366004610222565b610145565b60006020819052908152604090205481565b6100b16101b5565b506040805160608101825261ffff948516815292841660208085019182526001600160601b03938416858401908152600097885287825283882033895260010190915291909520925183549551915161ffff199096169085161763ffff00001916620100009190941602929092176fffffffffffffffffffffffff0000000019166401000000009390921692909202179055565b600093845260208481526040808620338752600101909152909320805461ffff191661ffff9384161763ffff00001916620100009290931691909102919091176fffffffffffffffffffffffff0000000019166401000000006001600160601b0390931692909202919091179055565b604080516060810182526000808252602082018190529181019190915290565b80356101e0816102b6565b92915050565b80356101e0816102cd565b80356101e0816102d6565b60006020828403121561020e57600080fd5b600061021a84846101e6565b949350505050565b6000806000806080858703121561023857600080fd5b600061024487876101e6565b9450506020610255878288016101d5565b9350506040610266878288016101d5565b9250506060610277878288016101f1565b91505092959194509250565b61028c816102a7565b82525050565b602081016101e08284610283565b61ffff1690565b90565b6001600160601b031690565b6102bf816102a0565b81146102ca57600080fd5b50565b6102bf816102a7565b6102bf816102aa56fea365627a7a7231582019f40dacd45ee63c474d4b73ab1ed9db0045c7ad0d56424979cbb7ad734793266c6578706572696d656e74616cf564736f6c634300050e0040",
  "source": "pragma solidity ^0.5.14;\npragma experimental ABIEncoderV2;\n\ncontract Structs {\n    struct Outer {\n        uint sentinel;\n        mapping(address => Inner) inners;\n    }\n\n    struct Inner {\n        uint16 a;\n        uint16 b;\n        uint96 c;\n    }\n\n    mapping(uint => Outer) public outers;\n\n    function writeEach(uint id, uint16 a, uint16 b, uint96 c) public {\n        Inner storage inner = outers[id].inners[msg.sender];\n        inner.a = a;\n        inner.b = b;\n        inner.c = c;\n    }\n\n    function writeOnce(uint id, uint16 a, uint16 b, uint96 c) public {\n        Inner memory inner = Inner({a: a, b: b, c: c});\n        outers[id].inners[msg.sender] = inner;\n    }\n}",
  "sourcePath": "/Users/yanyichun/project/Savings/contracts/compound/test/Contracts/Structs.sol",
  "compiler": {
    "name": "solc",
    "version": "0.5.14+commit.01f1aaa4.Emscripten.clang"
  },
  "schemaVersion": "3.2.3",
  "updatedAt": "2021-02-25T05:55:41.063Z",
  "devdoc": {
    "methods": {}
  },
  "userdoc": {
    "methods": {}
  }
}